{"src/contracts/Patient.sol":{"PatientDetails":{"abi":[{"inputs":[],"stateMutability":"nonpayable","type":"constructor"},{"inputs":[{"internalType":"address","name":"_walletAddress","type":"address"}],"name":"AddDoctorAccess","outputs":[],"stateMutability":"nonpayable","type":"function"},{"inputs":[{"internalType":"string","name":"_name","type":"string"},{"internalType":"address","name":"_walletAddress","type":"address"},{"internalType":"string","name":"_dateOfBirth","type":"string"},{"internalType":"uint256","name":"_age","type":"uint256"},{"internalType":"uint256","name":"_phoneNumber","type":"uint256"},{"internalType":"string","name":"_email","type":"string"}],"name":"AddDoctorPersonalInfo","outputs":[],"stateMutability":"nonpayable","type":"function"},{"inputs":[{"internalType":"address","name":"_walletAddress","type":"address"},{"internalType":"string","name":"_MedicalLicenseNumber","type":"string"},{"internalType":"string","name":"_Specialization","type":"string"},{"internalType":"uint256","name":"_ExperienceInYear","type":"uint256"},{"internalType":"string","name":"_MedicalSchoolAttended","type":"string"}],"name":"AddDoctorProfessionalInfo","outputs":[],"stateMutability":"nonpayable","type":"function"},{"inputs":[{"internalType":"string","name":"_date","type":"string"},{"internalType":"address","name":"_walletAddress","type":"address"},{"internalType":"bool","name":"_isAlcoholic","type":"bool"},{"internalType":"bool","name":"_isSmoker","type":"bool"},{"internalType":"bool","name":"_isSmokelessTobaccoUser","type":"bool"},{"internalType":"string","name":"_surgicalHistory_ifAny","type":"string"},{"internalType":"string","name":"_physicalActivityLevel","type":"string"},{"internalType":"string","name":"_pastMedicationDetails_IfAny","type":"string"}],"name":"AddPatientsMedicalDetails","outputs":[],"stateMutability":"nonpayable","type":"function"},{"inputs":[{"internalType":"string","name":"date","type":"string"},{"internalType":"string","name":"_name","type":"string"},{"internalType":"address","name":"_walletAddress","type":"address"},{"internalType":"string","name":"_gender","type":"string"},{"internalType":"string","name":"_Occupation","type":"string"},{"internalType":"string","name":"_dateOfBirth","type":"string"},{"internalType":"uint256","name":"_age","type":"uint256"},{"internalType":"uint256","name":"number","type":"uint256"}],"name":"AddPatientsPersonalDetails","outputs":[],"stateMutability":"nonpayable","type":"function"},{"inputs":[{"internalType":"address","name":"_walletAddress","type":"address"}],"name":"DeleteDoctorAccess","outputs":[],"stateMutability":"nonpayable","type":"function"},{"inputs":[{"internalType":"address","name":"","type":"address"}],"name":"DoctorAccess","outputs":[{"internalType":"bool","name":"","type":"bool"}],"stateMutability":"view","type":"function"},{"inputs":[{"internalType":"address","name":"","type":"address"}],"name":"DoctorsPersonalInfo","outputs":[{"internalType":"string","name":"name","type":"string"},{"internalType":"address","name":"walletAddress","type":"address"},{"internalType":"string","name":"dateOfBirth","type":"string"},{"internalType":"uint256","name":"age","type":"uint256"},{"internalType":"uint256","name":"phoneNumber","type":"uint256"},{"internalType":"string","name":"email","type":"string"}],"stateMutability":"view","type":"function"},{"inputs":[{"internalType":"address","name":"","type":"address"}],"name":"Doctors_ProfessionalDetails","outputs":[{"internalType":"address","name":"walletAddress","type":"address"},{"internalType":"string","name":"MedicalSchoolAttended","type":"string"},{"internalType":"string","name":"MedicalLicenseNumber","type":"string"},{"internalType":"string","name":"Specialization","type":"string"},{"internalType":"uint256","name":"ExperienceInYear","type":"uint256"}],"stateMutability":"view","type":"function"},{"inputs":[{"internalType":"string","name":"_name","type":"string"},{"internalType":"address","name":"_walletAddress","type":"address"},{"internalType":"string","name":"_dateOfBirth","type":"string"},{"internalType":"uint256","name":"_age","type":"uint256"},{"internalType":"uint256","name":"_phoneNumber","type":"uint256"},{"internalType":"string","name":"_email","type":"string"}],"name":"EditDoctorPersonalDetails","outputs":[],"stateMutability":"nonpayable","type":"function"},{"inputs":[{"internalType":"address","name":"_walletAddress","type":"address"},{"internalType":"string","name":"_MedicalLicenseNumber","type":"string"},{"internalType":"string","name":"_Specialization","type":"string"},{"internalType":"uint256","name":"_ExperienceInYear","type":"uint256"},{"internalType":"string","name":"_MedicalSchoolAttended","type":"string"}],"name":"EditDoctorProfessionalDetails","outputs":[],"stateMutability":"nonpayable","type":"function"},{"inputs":[{"internalType":"string","name":"_date","type":"string"},{"internalType":"string","name":"_name","type":"string"},{"internalType":"address","name":"_walletAddress","type":"address"},{"internalType":"string","name":"_gender","type":"string"},{"internalType":"string","name":"_Occupation","type":"string"},{"internalType":"string","name":"_dateOfBirth","type":"string"},{"internalType":"uint256","name":"_age","type":"uint256"},{"internalType":"uint256","name":"number","type":"uint256"}],"name":"EditPatientPersonalDetails","outputs":[],"stateMutability":"nonpayable","type":"function"},{"inputs":[{"internalType":"string","name":"_date","type":"string"},{"internalType":"address","name":"_walletAddress","type":"address"},{"internalType":"bool","name":"_isAlcoholic","type":"bool"},{"internalType":"bool","name":"_isSmoker","type":"bool"},{"internalType":"bool","name":"_isSmokelessTobaccoUser","type":"bool"},{"internalType":"string","name":"_surgicalHistory_ifAny","type":"string"},{"internalType":"string","name":"_physicalActivityLevel","type":"string"},{"internalType":"string","name":"_pastMedicationDetails_IfAny","type":"string"}],"name":"EditPatinetMedicalDetails","outputs":[],"stateMutability":"nonpayable","type":"function"},{"inputs":[{"internalType":"address","name":"","type":"address"},{"internalType":"uint256","name":"","type":"uint256"}],"name":"HealthCondition","outputs":[{"internalType":"string","name":"date","type":"string"},{"internalType":"address","name":"walletAddress","type":"address"},{"internalType":"address","name":"physician","type":"address"},{"internalType":"string","name":"Department_uint","type":"string"},{"internalType":"string","name":"BloodPressure","type":"string"},{"internalType":"string","name":"HeartRate","type":"string"},{"internalType":"string","name":"RespiratoryRate","type":"string"},{"internalType":"string","name":"Dosage","type":"string"}],"stateMutability":"view","type":"function"},{"inputs":[{"internalType":"address","name":"","type":"address"}],"name":"PatientsMedicalDetails","outputs":[{"internalType":"string","name":"date","type":"string"},{"internalType":"address","name":"walletAddress","type":"address"},{"internalType":"bool","name":"isAlcoholic","type":"bool"},{"internalType":"bool","name":"isSmoker","type":"bool"},{"internalType":"bool","name":"isSmokelessTobaccoUser","type":"bool"},{"internalType":"string","name":"surgicalHistory_ifAny","type":"string"},{"internalType":"string","name":"physicalActivityLevel","type":"string"},{"internalType":"string","name":"pastMedicationDetails_IfAny","type":"string"}],"stateMutability":"view","type":"function"},{"inputs":[{"internalType":"address","name":"","type":"address"}],"name":"PatientsPersonalDetails","outputs":[{"internalType":"string","name":"date","type":"string"},{"internalType":"string","name":"name","type":"string"},{"internalType":"address","name":"walletAddress","type":"address"},{"internalType":"string","name":"gender","type":"string"},{"internalType":"string","name":"Occupation","type":"string"},{"internalType":"string","name":"dateOfBirth","type":"string"},{"internalType":"uint256","name":"age","type":"uint256"},{"internalType":"uint256","name":"phoneNumber","type":"uint256"}],"stateMutability":"view","type":"function"},{"inputs":[{"internalType":"string","name":"_dataURL","type":"string"},{"internalType":"address","name":"user","type":"address"}],"name":"StorePatientData","outputs":[],"stateMutability":"nonpayable","type":"function"},{"inputs":[{"internalType":"address","name":"_address","type":"address"}],"name":"addOwner","outputs":[],"stateMutability":"nonpayable","type":"function"},{"inputs":[{"internalType":"string","name":"_date","type":"string"},{"internalType":"address","name":"_walletAddress","type":"address"},{"internalType":"address","name":"_physician","type":"address"},{"internalType":"string","name":"_Department_uint","type":"string"},{"internalType":"string","name":"_BloodPressure","type":"string"},{"internalType":"string","name":"_HeartRate","type":"string"},{"internalType":"string","name":"_RespiratoryRate","type":"string"},{"internalType":"string","name":"_Dosage","type":"string"}],"name":"addPatientHealthDetails","outputs":[],"stateMutability":"nonpayable","type":"function"},{"inputs":[{"internalType":"uint256","name":"_yearOfBirth","type":"uint256"}],"name":"getAge","outputs":[{"internalType":"uint256","name":"","type":"uint256"}],"stateMutability":"view","type":"function"},{"inputs":[{"internalType":"address","name":"_walletAddress","type":"address"}],"name":"getDoctorPersonalDetails","outputs":[{"components":[{"internalType":"string","name":"name","type":"string"},{"internalType":"address","name":"walletAddress","type":"address"},{"internalType":"string","name":"dateOfBirth","type":"string"},{"internalType":"uint256","name":"age","type":"uint256"},{"internalType":"uint256","name":"phoneNumber","type":"uint256"},{"internalType":"string","name":"email","type":"string"}],"internalType":"struct PatientDetails.DoctorPersonalInfo","name":"","type":"tuple"}],"stateMutability":"view","type":"function"},{"inputs":[{"internalType":"address","name":"_walletAddress","type":"address"}],"name":"getDoctorProfessionalDetails","outputs":[{"components":[{"internalType":"address","name":"walletAddress","type":"address"},{"internalType":"string","name":"MedicalSchoolAttended","type":"string"},{"internalType":"string","name":"MedicalLicenseNumber","type":"string"},{"internalType":"string","name":"Specialization","type":"string"},{"internalType":"uint256","name":"ExperienceInYear","type":"uint256"}],"internalType":"struct PatientDetails.DoctorProfessionalDetails","name":"","type":"tuple"}],"stateMutability":"view","type":"function"},{"inputs":[{"internalType":"address","name":"_walletAddress","type":"address"}],"name":"getPatientDetails","outputs":[{"components":[{"internalType":"string","name":"date","type":"string"},{"internalType":"string","name":"name","type":"string"},{"internalType":"address","name":"walletAddress","type":"address"},{"internalType":"string","name":"gender","type":"string"},{"internalType":"string","name":"Occupation","type":"string"},{"internalType":"string","name":"dateOfBirth","type":"string"},{"internalType":"uint256","name":"age","type":"uint256"},{"internalType":"uint256","name":"phoneNumber","type":"uint256"}],"internalType":"struct PatientDetails.PatientPersonalDetails","name":"","type":"tuple"},{"components":[{"internalType":"string","name":"date","type":"string"},{"internalType":"address","name":"walletAddress","type":"address"},{"internalType":"bool","name":"isAlcoholic","type":"bool"},{"internalType":"bool","name":"isSmoker","type":"bool"},{"internalType":"bool","name":"isSmokelessTobaccoUser","type":"bool"},{"internalType":"string","name":"surgicalHistory_ifAny","type":"string"},{"internalType":"string","name":"physicalActivityLevel","type":"string"},{"internalType":"string","name":"pastMedicationDetails_IfAny","type":"string"}],"internalType":"struct PatientDetails.PatientMedicalDetails","name":"","type":"tuple"}],"stateMutability":"view","type":"function"},{"inputs":[{"internalType":"address","name":"_walletAddress","type":"address"}],"name":"getPatientHealthDetails","outputs":[{"components":[{"internalType":"string","name":"date","type":"string"},{"internalType":"address","name":"walletAddress","type":"address"},{"internalType":"address","name":"physician","type":"address"},{"internalType":"string","name":"Department_uint","type":"string"},{"internalType":"string","name":"BloodPressure","type":"string"},{"internalType":"string","name":"HeartRate","type":"string"},{"internalType":"string","name":"RespiratoryRate","type":"string"},{"internalType":"string","name":"Dosage","type":"string"}],"internalType":"struct PatientDetails.PatientHealthCondition[]","name":"","type":"tuple[]"}],"stateMutability":"view","type":"function"},{"inputs":[{"internalType":"address","name":"_address","type":"address"}],"name":"getPatientStored","outputs":[{"components":[{"internalType":"uint256","name":"timestamp","type":"uint256"},{"internalType":"string","name":"cid","type":"string"}],"internalType":"struct PatientDetails.HealthData[]","name":"","type":"tuple[]"}],"stateMutability":"view","type":"function"},{"inputs":[{"internalType":"uint256","name":"timestamp","type":"uint256"}],"name":"getYear","outputs":[{"internalType":"uint256","name":"","type":"uint256"}],"stateMutability":"pure","type":"function"},{"inputs":[{"internalType":"address","name":"_address","type":"address"}],"name":"isDoctor","outputs":[{"internalType":"bool","name":"val","type":"bool"}],"stateMutability":"view","type":"function"},{"inputs":[{"internalType":"address","name":"_address","type":"address"}],"name":"isOwner","outputs":[{"internalType":"bool","name":"val","type":"bool"}],"stateMutability":"view","type":"function"},{"inputs":[{"internalType":"address","name":"","type":"address"}],"name":"owner","outputs":[{"internalType":"bool","name":"","type":"bool"}],"stateMutability":"view","type":"function"},{"inputs":[{"internalType":"address","name":"","type":"address"},{"internalType":"uint256","name":"","type":"uint256"}],"name":"patientsStoredData","outputs":[{"internalType":"uint256","name":"timestamp","type":"uint256"},{"internalType":"string","name":"cid","type":"string"}],"stateMutability":"view","type":"function"},{"inputs":[{"internalType":"address","name":"_address","type":"address"}],"name":"removeOwner","outputs":[],"stateMutability":"nonpayable","type":"function"},{"inputs":[],"name":"superOwner","outputs":[{"internalType":"address","name":"","type":"address"}],"stateMutability":"view","type":"function"},{"inputs":[],"name":"totalAdmin","outputs":[{"internalType":"uint256","name":"","type":"uint256"}],"stateMutability":"view","type":"function"},{"inputs":[],"name":"totalDoctors","outputs":[{"internalType":"uint256","name":"","type":"uint256"}],"stateMutability":"view","type":"function"},{"inputs":[],"name":"totalPatient","outputs":[{"internalType":"uint256","name":"","type":"uint256"}],"stateMutability":"view","type":"function"}],"evm":{"bytecode":{"linkReferences":{},"object":"608060405234801561000f575f80fd5b50335f818152602081905260409020805460ff1916600190811790915580546001600160a01b0319169091179055614f6e8061004a5f395ff3fe608060405234801561000f575f80fd5b5060043610610208575f3560e01c806375c6a96c1161011f578063ac46b5b7116100a9578063d1f2f0e511610079578063d1f2f0e5146104ef578063efe2ccc114610502578063f243cc6a14610523578063f7e901d31461054a578063fe0c2a311461056a575f80fd5b8063ac46b5b714610476578063b5f63ec514610489578063bb7d6b67146104a9578063bbcaa637146104cb575f80fd5b806392d66313116100ef57806392d663131461040a578063996440c61461041d578063a49b172514610430578063a96a6b2114610443578063a980702c14610463575f80fd5b806375c6a96c1461039e57806387dcd2b6146103c357806392b3141d146103ee57806392c2808f14610401575f80fd5b806348e64d80116101a0578063666e1b3911610170578063666e1b391461032257806366adec5614610344578063686e1f1b146103575780636e2c0ffe1461036a5780637065cb481461038b575f80fd5b806348e64d80146102dd57806355d2df12146102f057806364319e331461031057806365b44d7e14610319575f80fd5b80631a757712116101db5780631a7577121461026d5780631f650cc9146102805780632f54bf6e146102a757806334a9e6eb146102ca575f80fd5b8063040280171461020c5780630b103ee1146102215780630e37008a14610234578063173825d91461025a575b5f80fd5b61021f61021a366004613e3d565b610591565b005b61021f61022f366004613ef3565b6106fa565b610247610242366004613fdf565b6108c5565b6040519081526020015b60405180910390f35b61021f610268366004613e3d565b610942565b61021f61027b366004613ff6565b6109bc565b61029361028e366004613e3d565b610b43565b6040516102519897969594939291906140dd565b6102ba6102b5366004613e3d565b610e2f565b6040519015158152602001610251565b61021f6102d8366004614176565b610e5c565b61021f6102eb36600461425d565b61102a565b6103036102fe366004613e3d565b6111c3565b60405161025191906142f9565b610247600a5481565b61024760095481565b6102ba610330366004613e3d565b5f6020819052908152604090205460ff1681565b61021f610352366004614176565b6112ce565b61021f610365366004613e3d565b611515565b61037d61037836600461436b565b6116b5565b604051610251929190614393565b61021f610399366004613e3d565b611775565b6103b16103ac366004613e3d565b6117f2565b604051610251969594939291906143b3565b6001546103d6906001600160a01b031681565b6040516001600160a01b039091168152602001610251565b61021f6103fc36600461425d565b6119c6565b610247600b5481565b610247610418366004613fdf565b611bfa565b6102ba61042b366004613e3d565b611c0f565b61021f61043e366004613ff6565b611c37565b610456610451366004613e3d565b611e4a565b6040516102519190614413565b61021f610471366004613ef3565b612131565b61021f610484366004614499565b612377565b61049c610497366004613e3d565b6123d6565b60405161025191906144e4565b6102ba6104b7366004613e3d565b60066020525f908152604090205460ff1681565b6104de6104d9366004613e3d565b612864565b6040516102519594939291906145f7565b61021f6104fd366004614653565b612a2e565b610515610510366004613e3d565b612d95565b6040516102519291906147a6565b610536610531366004613e3d565b6135d6565b604051610251989796959493929190614880565b61055d610558366004613e3d565b613846565b6040516102519190614905565b61057d61057836600461436b565b613b14565b604051610251989796959493929190614985565b335f9081526020819052604090205460ff16806105b857506001546001600160a01b031633145b6105dd5760405162461bcd60e51b81526004016105d4906149eb565b60405180910390fd5b335f908152602081905260409020805460ff191660011790556001600160a01b03811661063e5760405162461bcd60e51b815260206004820152600f60248201526e496e76616c6964204164647265737360881b60448201526064016105d4565b6001600160a01b0381165f9081526006602052604090205460ff166106da5760405162461bcd60e51b815260206004820152604660248201527f50726f76696465642061646472657373206d75737420626520616e2041646d6960448201527f6e4163636573734164647265737320746f2072656d6f76652041646d696e416360648201526563657373212160d01b608482015260a4016105d4565b6001600160a01b03165f908152600660205260409020805460ff19169055565b335f9081526006602052604081205460ff1615610715575060015b335f9081526006602052604090205460ff166107435760405162461bcd60e51b81526004016105d490614a35565b6001600160a01b0387161580159061075b57505f8651115b801561076757505f8551115b6107835760405162461bcd60e51b81526004016105d490614a9d565b6001600160a01b038088165f8181526002602081905260409091200154909116146107c05760405162461bcd60e51b81526004016105d490614ae3565b60408051610100810182528a815260208082018b90526001600160a01b038a16828401819052606083018a90526080830189905260a0830188905260c0830187905260e083018690525f90815260029091529190912081518592919081906108289082614bfd565b506020820151600182019061083d9082614bfd565b5060408201516002820180546001600160a01b0319166001600160a01b03909216919091179055606082015160038201906108789082614bfd565b506080820151600482019061088d9082614bfd565b5060a082015160058201906108a29082614bfd565b5060c0820151600682015560e09091015160079091015550505050505050505050565b5f806108d042611bfa565b90505f836108e0836107b2614ccd565b6108ea9190614ce0565b90505f811161093b5760405162461bcd60e51b815260206004820152601860248201527f456e74657220636f72726563742062697274682079656172000000000000000060448201526064016105d4565b9392505050565b6001546001600160a01b0316331461099c5760405162461bcd60e51b815260206004820152601f60248201527f41636365737365626c65206f6e6c7920666f722053757065724f776e6572730060448201526064016105d4565b6001600160a01b03165f908152602081905260409020805460ff19169055565b335f9081526020819052604090205460ff16806109e357506001546001600160a01b031633145b6109ff5760405162461bcd60e51b81526004016105d4906149eb565b6001600160a01b03851615801590610a1757505f8151115b8015610a2357505f8651115b610a3f5760405162461bcd60e51b81526004016105d490614cf3565b6001600160a01b038086165f8181526007602052604090206001015490911614610a7b5760405162461bcd60e51b81526004016105d490614d42565b6040805160c0810182528781526001600160a01b0387166020808301829052828401889052606083018790526080830186905260a083018590525f91825260079052919091208151859291908190610ad39082614bfd565b5060208201516001820180546001600160a01b0319166001600160a01b0390921691909117905560408201516002820190610b0e9082614bfd565b50606082015160038201556080820151600482015560a08201516005820190610b379082614bfd565b50505050505050505050565b60026020525f9081526040902080548190610b5d90614b7b565b80601f0160208091040260200160405190810160405280929190818152602001828054610b8990614b7b565b8015610bd45780601f10610bab57610100808354040283529160200191610bd4565b820191905f5260205f20905b815481529060010190602001808311610bb757829003601f168201915b505050505090806001018054610be990614b7b565b80601f0160208091040260200160405190810160405280929190818152602001828054610c1590614b7b565b8015610c605780601f10610c3757610100808354040283529160200191610c60565b820191905f5260205f20905b815481529060010190602001808311610c4357829003601f168201915b505050600284015460038501805494956001600160a01b03909216949193509150610c8a90614b7b565b80601f0160208091040260200160405190810160405280929190818152602001828054610cb690614b7b565b8015610d015780601f10610cd857610100808354040283529160200191610d01565b820191905f5260205f20905b815481529060010190602001808311610ce457829003601f168201915b505050505090806004018054610d1690614b7b565b80601f0160208091040260200160405190810160405280929190818152602001828054610d4290614b7b565b8015610d8d5780601f10610d6457610100808354040283529160200191610d8d565b820191905f5260205f20905b815481529060010190602001808311610d7057829003601f168201915b505050505090806005018054610da290614b7b565b80601f0160208091040260200160405190810160405280929190818152602001828054610dce90614b7b565b8015610e195780601f10610df057610100808354040283529160200191610e19565b820191905f5260205f20905b815481529060010190602001808311610dfc57829003601f168201915b5050505050908060060154908060070154905088565b6001600160a01b0381165f9081526020819052604081205460ff1615610e5757506001919050565b919050565b335f9081526006602052604081205460ff1615610e77575060015b335f9081526006602052604090205460ff16610ea55760405162461bcd60e51b81526004016105d490614a35565b6001600160a01b038816610ecb5760405162461bcd60e51b81526004016105d490614a9d565b6001600160a01b038089165f818152600260208190526040909120015490911614610f085760405162461bcd60e51b81526004016105d490614ae3565b60408051610100810182528a81526001600160a01b038a1660208083018290528a1515838501528915156060840152881515608084015260a0830188905260c0830187905260e083018690525f918252600390529190912081518190610f6e9082614bfd565b5060208201516001820180546040850151606086015160808701511515600160b01b0260ff60b01b19911515600160a81b029190911661ffff60a81b19921515600160a01b026001600160a81b03199094166001600160a01b039096169590951792909217169290921791909117905560a08201516002820190610ff29082614bfd565b5060c082015160038201906110079082614bfd565b5060e0820151600482019061101c9082614bfd565b505050505050505050505050565b335f9081526020819052604090205460ff168061105157506001546001600160a01b031633145b61106d5760405162461bcd60e51b81526004016105d4906149eb565b6001600160a01b0385161580159061108557505f8151115b801561109157505f8451115b801561109d57505f8351115b6110e15760405162461bcd60e51b8152602060048201526015602482015274656e74657220636f72726563742064657461696c7360581b60448201526064016105d4565b6001600160a01b038086165f818152600860205260409020549091161461111a5760405162461bcd60e51b81526004016105d490614d42565b6040805160a0810182526001600160a01b0387811680835260208084018681528486018a905260608501899052608085018890525f9283526008909152939020825181546001600160a01b0319169216919091178155915190919060018201906111849082614bfd565b50604082015160028201906111999082614bfd565b50606082015160038201906111ae9082614bfd565b50608082015181600401559050505050505050565b6001600160a01b0381165f908152600560209081526040808320805482518185028101850190935280835260609492939192909184015b828210156112c3578382905f5260205f2090600202016040518060400160405290815f820154815260200160018201805461123490614b7b565b80601f016020809104026020016040519081016040528092919081815260200182805461126090614b7b565b80156112ab5780601f10611282576101008083540402835291602001916112ab565b820191905f5260205f20905b81548152906001019060200180831161128e57829003601f168201915b505050505081525050815260200190600101906111fa565b505050509050919050565b335f9081526006602052604081205460ff16156112e9575060015b335f9081526006602052604090205460ff166113175760405162461bcd60e51b81526004016105d490614a35565b6001600160a01b038089165f81815260036020526040902060010154909116036113935760405162461bcd60e51b815260206004820152602760248201527f50617469656e74206d65646963616c2064657461696c7320616c7265616479206044820152666578697374212160c81b60648201526084016105d4565b6001600160a01b0388166113b95760405162461bcd60e51b81526004016105d490614a9d565b60408051610100810182528a81526001600160a01b038a1660208083018290528a1515838501528915156060840152881515608084015260a0830188905260c0830187905260e083018690525f91825260039052919091208151819061141f9082614bfd565b5060208201516001820180546040850151606086015160808701511515600160b01b0260ff60b01b19911515600160a81b029190911661ffff60a81b19921515600160a01b026001600160a81b03199094166001600160a01b039096169590951792909217169290921791909117905560a082015160028201906114a39082614bfd565b5060c082015160038201906114b89082614bfd565b5060e082015160048201906114cd9082614bfd565b5050506001600160a01b038089165f81815260026020819052604090912001549091160361150a57600b8054905f61150483614dda565b91905055505b505050505050505050565b335f9081526020819052604090205460ff168061153c57506001546001600160a01b031633145b6115585760405162461bcd60e51b81526004016105d4906149eb565b335f9081526020819052604090205460ff166115cd5760405162461bcd60e51b815260206004820152602e60248201527f4f6e6c79206f776e6572206861732070726976696c65676520746f206164642060448201526d6f776e657220616363657373212160901b60648201526084016105d4565b6001600160a01b0381165f9081526006602052604090205460ff16156116355760405162461bcd60e51b815260206004820181905260248201527f4164647265737320616c7265616479206861732061646d696e2061636365737360448201526064016105d4565b6001600160a01b03811661167d5760405162461bcd60e51b815260206004820152600f60248201526e496e76616c6964204164647265737360881b60448201526064016105d4565b6001600160a01b0381165f908152600660205260408120805460ff19166001179055600a8054916116ad83614dda565b919050555050565b6005602052815f5260405f2081815481106116ce575f80fd5b905f5260205f2090600202015f9150915050805f0154908060010180546116f490614b7b565b80601f016020809104026020016040519081016040528092919081815260200182805461172090614b7b565b801561176b5780601f106117425761010080835404028352916020019161176b565b820191905f5260205f20905b81548152906001019060200180831161174e57829003601f168201915b5050505050905082565b6001546001600160a01b031633146117cf5760405162461bcd60e51b815260206004820152601f60248201527f41636365737365626c65206f6e6c7920666f722053757065724f776e6572730060448201526064016105d4565b6001600160a01b03165f908152602081905260409020805460ff19166001179055565b60076020525f908152604090208054819061180c90614b7b565b80601f016020809104026020016040519081016040528092919081815260200182805461183890614b7b565b80156118835780601f1061185a57610100808354040283529160200191611883565b820191905f5260205f20905b81548152906001019060200180831161186657829003601f168201915b505050600184015460028501805494956001600160a01b039092169491935091506118ad90614b7b565b80601f01602080910402602001604051908101604052809291908181526020018280546118d990614b7b565b80156119245780601f106118fb57610100808354040283529160200191611924565b820191905f5260205f20905b81548152906001019060200180831161190757829003601f168201915b50505050509080600301549080600401549080600501805461194590614b7b565b80601f016020809104026020016040519081016040528092919081815260200182805461197190614b7b565b80156119bc5780601f10611993576101008083540402835291602001916119bc565b820191905f5260205f20905b81548152906001019060200180831161199f57829003601f168201915b5050505050905086565b335f9081526020819052604090205460ff16806119ed57506001546001600160a01b031633145b611a095760405162461bcd60e51b81526004016105d4906149eb565b6001600160a01b038086165f8181526008602052604090205490911603611a895760405162461bcd60e51b815260206004820152602e60248201527f50687973696369616e2050726f66657373696f6e616c2064657461696c73206160448201526d6c7265616479206578697374212160901b60648201526084016105d4565b6001600160a01b038086165f8181526008602052604090205490911614801590611ab357505f8151115b8015611abf57505f8451115b8015611acb57505f8351115b611b0f5760405162461bcd60e51b8152602060048201526015602482015274456e74657220436f72726563742064657461696c7360581b60448201526064016105d4565b6040805160a0810182526001600160a01b0387811680835260208084018681528486018a905260608501899052608085018890525f9283526008909152939020825181546001600160a01b031916921691909117815591519091906001820190611b799082614bfd565b5060408201516002820190611b8e9082614bfd565b5060608201516003820190611ba39082614bfd565b50608091909101516004909101556001600160a01b038086165f8181526007602052604090206001015490911603611bf357611bde85611515565b60098054905f611bed83614dda565b91905055505b5050505050565b5f611c096301e1338083614df2565b92915050565b6001600160a01b0381165f9081526006602052604081205460ff1615610e5757506001919050565b335f9081526020819052604090205460ff1680611c5e57506001546001600160a01b031633145b611c7a5760405162461bcd60e51b81526004016105d4906149eb565b6001600160a01b038086165f8181526007602052604090206001015490911603611cf85760405162461bcd60e51b815260206004820152602960248201527f50687973696369616e20706572736f6e616c2064657461696c20616c7265616460448201526879206578697374212160b81b60648201526084016105d4565b6001600160a01b03851615801590611d0f57505f82115b8015611d1b57505f8151115b8015611d2757505f8651115b611d435760405162461bcd60e51b81526004016105d490614cf3565b6040805160c0810182528781526001600160a01b0387166020808301829052828401889052606083018790526080830186905260a083018590525f91825260079052919091208151859291908190611d9b9082614bfd565b5060208201516001820180546001600160a01b0319166001600160a01b0390921691909117905560408201516002820190611dd69082614bfd565b50606082015160038201556080820151600482015560a08201516005820190611dff9082614bfd565b5050506001600160a01b038087165f8181526008602052604090205490911603611e4157611e2c86611515565b60098054905f611e3b83614dda565b91905055505b50505050505050565b611e896040518060c00160405280606081526020015f6001600160a01b03168152602001606081526020015f81526020015f8152602001606081525090565b335f9081526020819052604090205460ff1680611eb057506001546001600160a01b031633145b611ecc5760405162461bcd60e51b81526004016105d4906149eb565b6001600160a01b038216611ef25760405162461bcd60e51b81526004016105d490614e11565b6001600160a01b038083165f8181526007602052604090206001015490911614611f2e5760405162461bcd60e51b81526004016105d490614e48565b6001600160a01b0382165f9081526007602052604090819020815160c08101909252805482908290611f5f90614b7b565b80601f0160208091040260200160405190810160405280929190818152602001828054611f8b90614b7b565b8015611fd65780601f10611fad57610100808354040283529160200191611fd6565b820191905f5260205f20905b815481529060010190602001808311611fb957829003601f168201915b505050918352505060018201546001600160a01b0316602082015260028201805460409092019161200690614b7b565b80601f016020809104026020016040519081016040528092919081815260200182805461203290614b7b565b801561207d5780601f106120545761010080835404028352916020019161207d565b820191905f5260205f20905b81548152906001019060200180831161206057829003601f168201915b5050505050815260200160038201548152602001600482015481526020016005820180546120aa90614b7b565b80601f01602080910402602001604051908101604052809291908181526020018280546120d690614b7b565b80156121215780601f106120f857610100808354040283529160200191612121565b820191905f5260205f20905b81548152906001019060200180831161210457829003601f168201915b5050505050815250509050919050565b335f9081526006602052604081205460ff161561214c575060015b335f9081526006602052604090205460ff1661217a5760405162461bcd60e51b81526004016105d490614a35565b6001600160a01b038088165f8181526002602081905260409091200154909116036121fa5760405162461bcd60e51b815260206004820152602a60248201527f50617469656e74277320706572736f6e616c2064657461696c7320616c7265616044820152696479206578697374212160b01b60648201526084016105d4565b6001600160a01b0387161580159061221257505f8651115b801561221e57505f8551115b61223a5760405162461bcd60e51b81526004016105d490614a9d565b60408051610100810182528a815260208082018b90526001600160a01b038a16828401819052606083018a90526080830189905260a0830188905260c0830187905260e083018690525f90815260029091529190912081518592919081906122a29082614bfd565b50602082015160018201906122b79082614bfd565b5060408201516002820180546001600160a01b0319166001600160a01b03909216919091179055606082015160038201906122f29082614bfd565b50608082015160048201906123079082614bfd565b5060a0820151600582019061231c9082614bfd565b5060c0820151600682015560e0909101516007909101556001600160a01b038089165f8181526003602052604090206001015490911603610b3757600b8054905f61236683614dda565b919050555050505050505050505050565b60408051808201825242815260208082018581526001600160a01b0385165f908152600583529384208054600181810183559186529290942083516002909302019182555191928392908201906123ce9082614bfd565b505050505050565b335f81815260026020819052604090912001546060916001600160a01b03909116148061241b5750335f818152600360205260409020600101546001600160a01b0316145b806124345750335f9081526006602052604090205460ff165b8061244d5750335f9081526020819052604090205460ff165b8061246257506001546001600160a01b031633145b61247e5760405162461bcd60e51b81526004016105d490614ef1565b6001600160a01b0382165f90815260046020908152604080832080548251818502810185019093528083529193909284015b828210156112c3578382905f5260205f209060080201604051806101000160405290815f820180546124e190614b7b565b80601f016020809104026020016040519081016040528092919081815260200182805461250d90614b7b565b80156125585780601f1061252f57610100808354040283529160200191612558565b820191905f5260205f20905b81548152906001019060200180831161253b57829003601f168201915b505050918352505060018201546001600160a01b039081166020830152600283015416604082015260038201805460609092019161259590614b7b565b80601f01602080910402602001604051908101604052809291908181526020018280546125c190614b7b565b801561260c5780601f106125e35761010080835404028352916020019161260c565b820191905f5260205f20905b8154815290600101906020018083116125ef57829003601f168201915b5050505050815260200160048201805461262590614b7b565b80601f016020809104026020016040519081016040528092919081815260200182805461265190614b7b565b801561269c5780601f106126735761010080835404028352916020019161269c565b820191905f5260205f20905b81548152906001019060200180831161267f57829003601f168201915b505050505081526020016005820180546126b590614b7b565b80601f01602080910402602001604051908101604052809291908181526020018280546126e190614b7b565b801561272c5780601f106127035761010080835404028352916020019161272c565b820191905f5260205f20905b81548152906001019060200180831161270f57829003601f168201915b5050505050815260200160068201805461274590614b7b565b80601f016020809104026020016040519081016040528092919081815260200182805461277190614b7b565b80156127bc5780601f10612793576101008083540402835291602001916127bc565b820191905f5260205f20905b81548152906001019060200180831161279f57829003601f168201915b505050505081526020016007820180546127d590614b7b565b80601f016020809104026020016040519081016040528092919081815260200182805461280190614b7b565b801561284c5780601f106128235761010080835404028352916020019161284c565b820191905f5260205f20905b81548152906001019060200180831161282f57829003601f168201915b505050505081525050815260200190600101906124b0565b60086020525f9081526040902080546001820180546001600160a01b03909216929161288f90614b7b565b80601f01602080910402602001604051908101604052809291908181526020018280546128bb90614b7b565b80156129065780601f106128dd57610100808354040283529160200191612906565b820191905f5260205f20905b8154815290600101906020018083116128e957829003601f168201915b50505050509080600201805461291b90614b7b565b80601f016020809104026020016040519081016040528092919081815260200182805461294790614b7b565b80156129925780601f1061296957610100808354040283529160200191612992565b820191905f5260205f20905b81548152906001019060200180831161297557829003601f168201915b5050505050908060030180546129a790614b7b565b80601f01602080910402602001604051908101604052809291908181526020018280546129d390614b7b565b8015612a1e5780601f106129f557610100808354040283529160200191612a1e565b820191905f5260205f20905b815481529060010190602001808311612a0157829003601f168201915b5050505050908060040154905085565b335f9081526006602052604081205460ff1615612a49575060015b335f9081526006602052604090205460ff16612a775760405162461bcd60e51b81526004016105d490614a35565b6001600160a01b038089165f8181526002602081905260409091200154909116148015612ac057506001600160a01b038089165f81815260036020526040902060010154909116145b612ba45760405162461bcd60e51b815260206004820152609960248201527f496e636f72726563742050617469656e742077616c6c6574206164647265737360448201527f206f72205468652050617469656e742064657461696c2073706563696669632060648201527f746f20706572736f6e616c206f722070617374206d65646963616c206869737460848201527f6f7279206f662074686520616464726573732070726f7669646564206e6f742060a48201527f617661696c61626c6520696e2074686520636861696e2121200000000000000060c482015260e4016105d4565b6001600160a01b038881165f90815260076020526040902060010154811690881614612c785760405162461bcd60e51b815260206004820152607160248201527f496e636f72726563742050687973696369616e2077616c6c657420616464726560448201527f7373206f72205468652050687973696369616e2064657461696c20666f72207460648201527f686520616464726573732070726f7669646564206e6f7420617661696c61626c6084820152700329034b7103a34329031b430b4b710909607d1b60a482015260c4016105d4565b6001600160a01b038089165f8181526004602090815260408083208151610100810183528f815280840195909552948c1690840152606083018a90526080830189905260a0830188905260c0830187905260e08301869052835460018101855593825290208151919260080201908190612cf29082614bfd565b5060208201516001820180546001600160a01b039283166001600160a01b031991821617909155604084015160028401805491909316911617905560608201516003820190612d419082614bfd565b5060808201516004820190612d569082614bfd565b5060a08201516005820190612d6b9082614bfd565b5060c08201516006820190612d809082614bfd565b5060e0820151600782019061101c9082614bfd565b612de360405180610100016040528060608152602001606081526020015f6001600160a01b031681526020016060815260200160608152602001606081526020015f81526020015f81525090565b612e36604051806101000160405280606081526020015f6001600160a01b031681526020015f151581526020015f151581526020015f151581526020016060815260200160608152602001606081525090565b335f81815260026020819052604090912001546001600160a01b03161480612e765750335f818152600360205260409020600101546001600160a01b0316145b80612e8f5750335f9081526006602052604090205460ff165b80612ea85750335f9081526020819052604090205460ff165b80612ebd57506001546001600160a01b031633145b612ed95760405162461bcd60e51b81526004016105d490614ef1565b6001600160a01b038316612eff5760405162461bcd60e51b81526004016105d490614e11565b6001600160a01b038084165f8181526002602081905260409091200154909116148015612f4857506001600160a01b038084165f81815260036020526040902060010154909116145b6130065760405162461bcd60e51b815260206004820152607960248201527f496e636f72726563742050617469656e742077616c6c6574206164647265737360448201527f206f72205468652050617469656e742064657461696c20666f7220746865206160648201527f6464726573732070726f7669646564206973206e6f7420636f6d706c65746c7960848201527f20617661696c61626c6520696e2074686520636861696e21210000000000000060a482015260c4016105d4565b6001600160a01b0383165f9081526002602090815260408083206003909252918290208251610100810190935281549192909183908290829061304890614b7b565b80601f016020809104026020016040519081016040528092919081815260200182805461307490614b7b565b80156130bf5780601f10613096576101008083540402835291602001916130bf565b820191905f5260205f20905b8154815290600101906020018083116130a257829003601f168201915b505050505081526020016001820180546130d890614b7b565b80601f016020809104026020016040519081016040528092919081815260200182805461310490614b7b565b801561314f5780601f106131265761010080835404028352916020019161314f565b820191905f5260205f20905b81548152906001019060200180831161313257829003601f168201915b505050918352505060028201546001600160a01b0316602082015260038201805460409092019161317f90614b7b565b80601f01602080910402602001604051908101604052809291908181526020018280546131ab90614b7b565b80156131f65780601f106131cd576101008083540402835291602001916131f6565b820191905f5260205f20905b8154815290600101906020018083116131d957829003601f168201915b5050505050815260200160048201805461320f90614b7b565b80601f016020809104026020016040519081016040528092919081815260200182805461323b90614b7b565b80156132865780601f1061325d57610100808354040283529160200191613286565b820191905f5260205f20905b81548152906001019060200180831161326957829003601f168201915b5050505050815260200160058201805461329f90614b7b565b80601f01602080910402602001604051908101604052809291908181526020018280546132cb90614b7b565b80156133165780601f106132ed57610100808354040283529160200191613316565b820191905f5260205f20905b8154815290600101906020018083116132f957829003601f168201915b5050505050815260200160068201548152602001600782015481525050915080604051806101000160405290815f8201805461335190614b7b565b80601f016020809104026020016040519081016040528092919081815260200182805461337d90614b7b565b80156133c85780601f1061339f576101008083540402835291602001916133c8565b820191905f5260205f20905b8154815290600101906020018083116133ab57829003601f168201915b505050918352505060018201546001600160a01b038116602083015260ff600160a01b8204811615156040840152600160a81b8204811615156060840152600160b01b909104161515608082015260028201805460a09092019161342b90614b7b565b80601f016020809104026020016040519081016040528092919081815260200182805461345790614b7b565b80156134a25780601f10613479576101008083540402835291602001916134a2565b820191905f5260205f20905b81548152906001019060200180831161348557829003601f168201915b505050505081526020016003820180546134bb90614b7b565b80601f01602080910402602001604051908101604052809291908181526020018280546134e790614b7b565b80156135325780601f1061350957610100808354040283529160200191613532565b820191905f5260205f20905b81548152906001019060200180831161351557829003601f168201915b5050505050815260200160048201805461354b90614b7b565b80601f016020809104026020016040519081016040528092919081815260200182805461357790614b7b565b80156135c25780601f10613599576101008083540402835291602001916135c2565b820191905f5260205f20905b8154815290600101906020018083116135a557829003601f168201915b505050505081525050905091509150915091565b60036020525f90815260409020805481906135f090614b7b565b80601f016020809104026020016040519081016040528092919081815260200182805461361c90614b7b565b80156136675780601f1061363e57610100808354040283529160200191613667565b820191905f5260205f20905b81548152906001019060200180831161364a57829003601f168201915b50505050600183015460028401805493946001600160a01b0383169460ff600160a01b850481169550600160a81b8504811694600160b01b90041692906136ad90614b7b565b80601f01602080910402602001604051908101604052809291908181526020018280546136d990614b7b565b80156137245780601f106136fb57610100808354040283529160200191613724565b820191905f5260205f20905b81548152906001019060200180831161370757829003601f168201915b50505050509080600301805461373990614b7b565b80601f016020809104026020016040519081016040528092919081815260200182805461376590614b7b565b80156137b05780601f10613787576101008083540402835291602001916137b0565b820191905f5260205f20905b81548152906001019060200180831161379357829003601f168201915b5050505050908060040180546137c590614b7b565b80601f01602080910402602001604051908101604052809291908181526020018280546137f190614b7b565b801561383c5780601f106138135761010080835404028352916020019161383c565b820191905f5260205f20905b81548152906001019060200180831161381f57829003601f168201915b5050505050905088565b61387f6040518060a001604052805f6001600160a01b031681526020016060815260200160608152602001606081526020015f81525090565b335f9081526020819052604090205460ff16806138a657506001546001600160a01b031633145b6138c25760405162461bcd60e51b81526004016105d4906149eb565b6001600160a01b0382166138e85760405162461bcd60e51b81526004016105d490614e11565b6001600160a01b038083165f81815260086020526040902054909116146139215760405162461bcd60e51b81526004016105d490614e48565b6001600160a01b038083165f90815260086020908152604091829020825160a08101909352805490931682526001830180549293929184019161396390614b7b565b80601f016020809104026020016040519081016040528092919081815260200182805461398f90614b7b565b80156139da5780601f106139b1576101008083540402835291602001916139da565b820191905f5260205f20905b8154815290600101906020018083116139bd57829003601f168201915b505050505081526020016002820180546139f390614b7b565b80601f0160208091040260200160405190810160405280929190818152602001828054613a1f90614b7b565b8015613a6a5780601f10613a4157610100808354040283529160200191613a6a565b820191905f5260205f20905b815481529060010190602001808311613a4d57829003601f168201915b50505050508152602001600382018054613a8390614b7b565b80601f0160208091040260200160405190810160405280929190818152602001828054613aaf90614b7b565b8015613afa5780601f10613ad157610100808354040283529160200191613afa565b820191905f5260205f20905b815481529060010190602001808311613add57829003601f168201915b505050505081526020016004820154815250509050919050565b6004602052815f5260405f208181548110613b2d575f80fd5b905f5260205f2090600802015f9150915050805f018054613b4d90614b7b565b80601f0160208091040260200160405190810160405280929190818152602001828054613b7990614b7b565b8015613bc45780601f10613b9b57610100808354040283529160200191613bc4565b820191905f5260205f20905b815481529060010190602001808311613ba757829003601f168201915b5050506001840154600285015460038601805495966001600160a01b0393841696929093169450919250613bf790614b7b565b80601f0160208091040260200160405190810160405280929190818152602001828054613c2390614b7b565b8015613c6e5780601f10613c4557610100808354040283529160200191613c6e565b820191905f5260205f20905b815481529060010190602001808311613c5157829003601f168201915b505050505090806004018054613c8390614b7b565b80601f0160208091040260200160405190810160405280929190818152602001828054613caf90614b7b565b8015613cfa5780601f10613cd157610100808354040283529160200191613cfa565b820191905f5260205f20905b815481529060010190602001808311613cdd57829003601f168201915b505050505090806005018054613d0f90614b7b565b80601f0160208091040260200160405190810160405280929190818152602001828054613d3b90614b7b565b8015613d865780601f10613d5d57610100808354040283529160200191613d86565b820191905f5260205f20905b815481529060010190602001808311613d6957829003601f168201915b505050505090806006018054613d9b90614b7b565b80601f0160208091040260200160405190810160405280929190818152602001828054613dc790614b7b565b8015613e125780601f10613de957610100808354040283529160200191613e12565b820191905f5260205f20905b815481529060010190602001808311613df557829003601f168201915b5050505050908060070180546137c590614b7b565b80356001600160a01b0381168114610e57575f80fd5b5f60208284031215613e4d575f80fd5b61093b82613e27565b634e487b7160e01b5f52604160045260245ffd5b5f82601f830112613e79575f80fd5b813567ffffffffffffffff80821115613e9457613e94613e56565b604051601f8301601f19908116603f01168101908282118183101715613ebc57613ebc613e56565b81604052838152866020858801011115613ed4575f80fd5b836020870160208301375f602085830101528094505050505092915050565b5f805f805f805f80610100898b031215613f0b575f80fd5b883567ffffffffffffffff80821115613f22575f80fd5b613f2e8c838d01613e6a565b995060208b0135915080821115613f43575f80fd5b613f4f8c838d01613e6a565b9850613f5d60408c01613e27565b975060608b0135915080821115613f72575f80fd5b613f7e8c838d01613e6a565b965060808b0135915080821115613f93575f80fd5b613f9f8c838d01613e6a565b955060a08b0135915080821115613fb4575f80fd5b50613fc18b828c01613e6a565b93505060c0890135915060e089013590509295985092959890939650565b5f60208284031215613fef575f80fd5b5035919050565b5f805f805f8060c0878903121561400b575f80fd5b863567ffffffffffffffff80821115614022575f80fd5b61402e8a838b01613e6a565b975061403c60208a01613e27565b96506040890135915080821115614051575f80fd5b61405d8a838b01613e6a565b9550606089013594506080890135935060a0890135915080821115614080575f80fd5b5061408d89828a01613e6a565b9150509295509295509295565b5f81518084525f5b818110156140be576020818501810151868301820152016140a2565b505f602082860101526020601f19601f83011685010191505092915050565b5f6101008083526140f08184018c61409a565b90508281036020840152614104818b61409a565b6001600160a01b038a16604085015283810360608501529050614127818961409a565b9050828103608084015261413b818861409a565b905082810360a084015261414f818761409a565b60c0840195909552505060e001529695505050505050565b80358015158114610e57575f80fd5b5f805f805f805f80610100898b03121561418e575f80fd5b883567ffffffffffffffff808211156141a5575f80fd5b6141b18c838d01613e6a565b99506141bf60208c01613e27565b98506141cd60408c01614167565b97506141db60608c01614167565b96506141e960808c01614167565b955060a08b01359150808211156141fe575f80fd5b61420a8c838d01613e6a565b945060c08b013591508082111561421f575f80fd5b61422b8c838d01613e6a565b935060e08b0135915080821115614240575f80fd5b5061424d8b828c01613e6a565b9150509295985092959890939650565b5f805f805f60a08688031215614271575f80fd5b61427a86613e27565b9450602086013567ffffffffffffffff80821115614296575f80fd5b6142a289838a01613e6a565b955060408801359150808211156142b7575f80fd5b6142c389838a01613e6a565b94506060880135935060808801359150808211156142df575f80fd5b506142ec88828901613e6a565b9150509295509295909350565b5f6020808301818452808551808352604092508286019150828160051b8701018488015f5b8381101561435d57888303603f1901855281518051845287015187840187905261434a8785018261409a565b958801959350509086019060010161431e565b509098975050505050505050565b5f806040838503121561437c575f80fd5b61438583613e27565b946020939093013593505050565b828152604060208201525f6143ab604083018461409a565b949350505050565b60c081525f6143c560c083018961409a565b6001600160a01b038816602084015282810360408401526143e6818861409a565b905085606084015284608084015282810360a0840152614406818561409a565b9998505050505050505050565b602081525f825160c0602084015261442e60e084018261409a565b905060018060a01b0360208501511660408401526040840151601f198085840301606086015261445e838361409a565b925060608601516080860152608086015160a086015260a08601519150808584030160c086015250614490828261409a565b95945050505050565b5f80604083850312156144aa575f80fd5b823567ffffffffffffffff8111156144c0575f80fd5b6144cc85828601613e6a565b9250506144db60208401613e27565b90509250929050565b5f6020808301818452808551808352604092508286019150828160051b8701018488015f5b8381101561435d57603f19898403018552815161010081518186526145308287018261409a565b9150508882015161454b8a8701826001600160a01b03169052565b50878201516001600160a01b03168589015260608083015186830382880152614574838261409a565b925050506080808301518683038288015261458f838261409a565b9250505060a080830151868303828801526145aa838261409a565b9250505060c080830151868303828801526145c5838261409a565b9250505060e080830151925085820381870152506145e3818361409a565b968901969450505090860190600101614509565b6001600160a01b038616815260a0602082018190525f9061461a9083018761409a565b828103604084015261462c818761409a565b90508281036060840152614640818661409a565b9150508260808301529695505050505050565b5f805f805f805f80610100898b03121561466b575f80fd5b883567ffffffffffffffff80821115614682575f80fd5b61468e8c838d01613e6a565b995061469c60208c01613e27565b98506146aa60408c01613e27565b975060608b01359150808211156146bf575f80fd5b6146cb8c838d01613e6a565b965060808b01359150808211156146e0575f80fd5b6141e98c838d01613e6a565b5f61010082518185526147018286018261409a565b915050602083015161471e60208601826001600160a01b03169052565b506040830151614732604086018215159052565b506060830151614746606086018215159052565b50608083015161475a608086018215159052565b5060a083015184820360a0860152614772828261409a565b91505060c083015184820360c086015261478c828261409a565b91505060e083015184820360e0860152614490828261409a565b604081525f83516101008060408501526147c461014085018361409a565b91506020860151603f19808685030160608701526147e2848361409a565b93506040880151915061480060808701836001600160a01b03169052565b60608801519150808685030160a087015261481b848361409a565b935060808801519150808685030160c0870152614838848361409a565b935060a08801519150808685030160e087015250614856838261409a565b92505060c0860151818501525060e0850151610120840152828103602084015261449081856146ec565b5f6101008083526148938184018c61409a565b6001600160a01b038b16602085015289151560408501528815156060850152871515608085015283810360a085015290506148ce818761409a565b905082810360c08401526148e2818661409a565b905082810360e08401526148f6818561409a565b9b9a5050505050505050505050565b602080825282516001600160a01b03168282015282015160a060408301525f9061493260c084018261409a565b90506040840151601f1980858403016060860152614950838361409a565b925060608601519150808584030160808601525061496e828261409a565b915050608084015160a08401528091505092915050565b5f6101008083526149988184018c61409a565b6001600160a01b038b811660208601528a166040850152838103606085015290506149c3818961409a565b905082810360808401526149d7818861409a565b905082810360a08401526148ce818761409a565b6020808252602a908201527f41636365737365626c65206f6e6c7920666f72204f776e65727320616e642053604082015269757065724f776e65727360b01b606082015260800190565b60208082526042908201527f4f6e6c792074686520446f63746f72732063616e2063616c6c2074686973206660408201527f756e6374696f6e2064756520746f20736563757269747920726561736f6e7321606082015261212160f01b608082015260a00190565b60208082526026908201527f4b696e646c792066696c6c20616c6c20746865206d616e6461746f7279206665604082015265696c6473212160d01b606082015260800190565b6020808252606c908201527f496e636f72726563742050617469656e742077616c6c6574206164647265737360408201527f206f72205468652050617469656e742064657461696c20666f7220746865206160608201527f6464726573732070726f7669646564206e6f7420617661696c61626c6520696e60808201526b2074686520636861696e212160a01b60a082015260c00190565b600181811c90821680614b8f57607f821691505b602082108103614bad57634e487b7160e01b5f52602260045260245ffd5b50919050565b601f821115614bf8575f81815260208120601f850160051c81016020861015614bd95750805b601f850160051c820191505b818110156123ce57828155600101614be5565b505050565b815167ffffffffffffffff811115614c1757614c17613e56565b614c2b81614c258454614b7b565b84614bb3565b602080601f831160018114614c5e575f8415614c475750858301515b5f19600386901b1c1916600185901b1785556123ce565b5f85815260208120601f198616915b82811015614c8c57888601518255948401946001909101908401614c6d565b5085821015614ca957878501515f19600388901b60f8161c191681555b5050505050600190811b01905550565b634e487b7160e01b5f52601160045260245ffd5b80820180821115611c0957611c09614cb9565b81810381811115611c0957611c09614cb9565b6020808252602f908201527f4b696e646c792066696c6c20616c6c20746865206d616e6461746f727920666560408201526e696c64732070726f7065726c79212160881b606082015260800190565b6020808252606c908201527f496e636f727265637420446f63746f7227732077616c6c65742061646472657360408201527f73206f722054686520446f63746f722064657461696c20666f7220746865206160608201527f6464726573732070726f7669646564206e6f7420617661696c61626c6520696e60808201526b2074686520636861696e212160a01b60a082015260c00190565b5f60018201614deb57614deb614cb9565b5060010190565b5f82614e0c57634e487b7160e01b5f52601260045260245ffd5b500490565b6020808252601e908201527f57616c6c657420416464726573732063616e6e6f7420626520656d7074790000604082015260600190565b60208082526078908201527f496e636f727265637420446f63746f722077616c6c657420616464726573732060408201527f6f722054686520446f63746f722064657461696c20666f72207468652061646460608201527f726573732070726f7669646564206973206e6f7420636f6d706c6574656c792060808201527f617661696c61626c6520696e2074686520636861696e2121000000000000000060a082015260c00190565b60208082526027908201527f596f752068617665206e6f2061636365737320746f206665746368207468652060408201526664657461696c7360c81b60608201526080019056fea2646970667358221220db1c681453fd9c664898ee04cbfd21992d2c0970114752784d6fa546dc36127a64736f6c63430008150033","opcodes":"PUSH1 0x80 PUSH1 0x40 MSTORE CALLVALUE DUP1 ISZERO PUSH2 0xF JUMPI PUSH0 DUP1 REVERT JUMPDEST POP CALLER PUSH0 DUP2 DUP2 MSTORE PUSH1 0x20 DUP2 SWAP1 MSTORE PUSH1 0x40 SWAP1 KECCAK256 DUP1 SLOAD PUSH1 0xFF NOT AND PUSH1 0x1 SWAP1 DUP2 OR SWAP1 SWAP2 SSTORE DUP1 SLOAD PUSH1 0x1 PUSH1 0x1 PUSH1 0xA0 SHL SUB NOT AND SWAP1 SWAP2 OR SWAP1 SSTORE PUSH2 0x4F6E DUP1 PUSH2 0x4A PUSH0 CODECOPY PUSH0 RETURN INVALID PUSH1 0x80 PUSH1 0x40 MSTORE CALLVALUE DUP1 ISZERO PUSH2 0xF JUMPI PUSH0 DUP1 REVERT JUMPDEST POP PUSH1 0x4 CALLDATASIZE LT PUSH2 0x208 JUMPI PUSH0 CALLDATALOAD PUSH1 0xE0 SHR DUP1 PUSH4 0x75C6A96C GT PUSH2 0x11F JUMPI DUP1 PUSH4 0xAC46B5B7 GT PUSH2 0xA9 JUMPI DUP1 PUSH4 0xD1F2F0E5 GT PUSH2 0x79 JUMPI DUP1 PUSH4 0xD1F2F0E5 EQ PUSH2 0x4EF JUMPI DUP1 PUSH4 0xEFE2CCC1 EQ PUSH2 0x502 JUMPI DUP1 PUSH4 0xF243CC6A EQ PUSH2 0x523 JUMPI DUP1 PUSH4 0xF7E901D3 EQ PUSH2 0x54A JUMPI DUP1 PUSH4 0xFE0C2A31 EQ PUSH2 0x56A JUMPI PUSH0 DUP1 REVERT JUMPDEST DUP1 PUSH4 0xAC46B5B7 EQ PUSH2 0x476 JUMPI DUP1 PUSH4 0xB5F63EC5 EQ PUSH2 0x489 JUMPI DUP1 PUSH4 0xBB7D6B67 EQ PUSH2 0x4A9 JUMPI DUP1 PUSH4 0xBBCAA637 EQ PUSH2 0x4CB JUMPI PUSH0 DUP1 REVERT JUMPDEST DUP1 PUSH4 0x92D66313 GT PUSH2 0xEF JUMPI DUP1 PUSH4 0x92D66313 EQ PUSH2 0x40A JUMPI DUP1 PUSH4 0x996440C6 EQ PUSH2 0x41D JUMPI DUP1 PUSH4 0xA49B1725 EQ PUSH2 0x430 JUMPI DUP1 PUSH4 0xA96A6B21 EQ PUSH2 0x443 JUMPI DUP1 PUSH4 0xA980702C EQ PUSH2 0x463 JUMPI PUSH0 DUP1 REVERT JUMPDEST DUP1 PUSH4 0x75C6A96C EQ PUSH2 0x39E JUMPI DUP1 PUSH4 0x87DCD2B6 EQ PUSH2 0x3C3 JUMPI DUP1 PUSH4 0x92B3141D EQ PUSH2 0x3EE JUMPI DUP1 PUSH4 0x92C2808F EQ PUSH2 0x401 JUMPI PUSH0 DUP1 REVERT JUMPDEST DUP1 PUSH4 0x48E64D80 GT PUSH2 0x1A0 JUMPI DUP1 PUSH4 0x666E1B39 GT PUSH2 0x170 JUMPI DUP1 PUSH4 0x666E1B39 EQ PUSH2 0x322 JUMPI DUP1 PUSH4 0x66ADEC56 EQ PUSH2 0x344 JUMPI DUP1 PUSH4 0x686E1F1B EQ PUSH2 0x357 JUMPI DUP1 PUSH4 0x6E2C0FFE EQ PUSH2 0x36A JUMPI DUP1 PUSH4 0x7065CB48 EQ PUSH2 0x38B JUMPI PUSH0 DUP1 REVERT JUMPDEST DUP1 PUSH4 0x48E64D80 EQ PUSH2 0x2DD JUMPI DUP1 PUSH4 0x55D2DF12 EQ PUSH2 0x2F0 JUMPI DUP1 PUSH4 0x64319E33 EQ PUSH2 0x310 JUMPI DUP1 PUSH4 0x65B44D7E EQ PUSH2 0x319 JUMPI PUSH0 DUP1 REVERT JUMPDEST DUP1 PUSH4 0x1A757712 GT PUSH2 0x1DB JUMPI DUP1 PUSH4 0x1A757712 EQ PUSH2 0x26D JUMPI DUP1 PUSH4 0x1F650CC9 EQ PUSH2 0x280 JUMPI DUP1 PUSH4 0x2F54BF6E EQ PUSH2 0x2A7 JUMPI DUP1 PUSH4 0x34A9E6EB EQ PUSH2 0x2CA JUMPI PUSH0 DUP1 REVERT JUMPDEST DUP1 PUSH4 0x4028017 EQ PUSH2 0x20C JUMPI DUP1 PUSH4 0xB103EE1 EQ PUSH2 0x221 JUMPI DUP1 PUSH4 0xE37008A EQ PUSH2 0x234 JUMPI DUP1 PUSH4 0x173825D9 EQ PUSH2 0x25A JUMPI JUMPDEST PUSH0 DUP1 REVERT JUMPDEST PUSH2 0x21F PUSH2 0x21A CALLDATASIZE PUSH1 0x4 PUSH2 0x3E3D JUMP JUMPDEST PUSH2 0x591 JUMP JUMPDEST STOP JUMPDEST PUSH2 0x21F PUSH2 0x22F CALLDATASIZE PUSH1 0x4 PUSH2 0x3EF3 JUMP JUMPDEST PUSH2 0x6FA JUMP JUMPDEST PUSH2 0x247 PUSH2 0x242 CALLDATASIZE PUSH1 0x4 PUSH2 0x3FDF JUMP JUMPDEST PUSH2 0x8C5 JUMP JUMPDEST PUSH1 0x40 MLOAD SWAP1 DUP2 MSTORE PUSH1 0x20 ADD JUMPDEST PUSH1 0x40 MLOAD DUP1 SWAP2 SUB SWAP1 RETURN JUMPDEST PUSH2 0x21F PUSH2 0x268 CALLDATASIZE PUSH1 0x4 PUSH2 0x3E3D JUMP JUMPDEST PUSH2 0x942 JUMP JUMPDEST PUSH2 0x21F PUSH2 0x27B CALLDATASIZE PUSH1 0x4 PUSH2 0x3FF6 JUMP JUMPDEST PUSH2 0x9BC JUMP JUMPDEST PUSH2 0x293 PUSH2 0x28E CALLDATASIZE PUSH1 0x4 PUSH2 0x3E3D JUMP JUMPDEST PUSH2 0xB43 JUMP JUMPDEST PUSH1 0x40 MLOAD PUSH2 0x251 SWAP9 SWAP8 SWAP7 SWAP6 SWAP5 SWAP4 SWAP3 SWAP2 SWAP1 PUSH2 0x40DD JUMP JUMPDEST PUSH2 0x2BA PUSH2 0x2B5 CALLDATASIZE PUSH1 0x4 PUSH2 0x3E3D JUMP JUMPDEST PUSH2 0xE2F JUMP JUMPDEST PUSH1 0x40 MLOAD SWAP1 ISZERO ISZERO DUP2 MSTORE PUSH1 0x20 ADD PUSH2 0x251 JUMP JUMPDEST PUSH2 0x21F PUSH2 0x2D8 CALLDATASIZE PUSH1 0x4 PUSH2 0x4176 JUMP JUMPDEST PUSH2 0xE5C JUMP JUMPDEST PUSH2 0x21F PUSH2 0x2EB CALLDATASIZE PUSH1 0x4 PUSH2 0x425D JUMP JUMPDEST PUSH2 0x102A JUMP JUMPDEST PUSH2 0x303 PUSH2 0x2FE CALLDATASIZE PUSH1 0x4 PUSH2 0x3E3D JUMP JUMPDEST PUSH2 0x11C3 JUMP JUMPDEST PUSH1 0x40 MLOAD PUSH2 0x251 SWAP2 SWAP1 PUSH2 0x42F9 JUMP JUMPDEST PUSH2 0x247 PUSH1 0xA SLOAD DUP2 JUMP JUMPDEST PUSH2 0x247 PUSH1 0x9 SLOAD DUP2 JUMP JUMPDEST PUSH2 0x2BA PUSH2 0x330 CALLDATASIZE PUSH1 0x4 PUSH2 0x3E3D JUMP JUMPDEST PUSH0 PUSH1 0x20 DUP2 SWAP1 MSTORE SWAP1 DUP2 MSTORE PUSH1 0x40 SWAP1 KECCAK256 SLOAD PUSH1 0xFF AND DUP2 JUMP JUMPDEST PUSH2 0x21F PUSH2 0x352 CALLDATASIZE PUSH1 0x4 PUSH2 0x4176 JUMP JUMPDEST PUSH2 0x12CE JUMP JUMPDEST PUSH2 0x21F PUSH2 0x365 CALLDATASIZE PUSH1 0x4 PUSH2 0x3E3D JUMP JUMPDEST PUSH2 0x1515 JUMP JUMPDEST PUSH2 0x37D PUSH2 0x378 CALLDATASIZE PUSH1 0x4 PUSH2 0x436B JUMP JUMPDEST PUSH2 0x16B5 JUMP JUMPDEST PUSH1 0x40 MLOAD PUSH2 0x251 SWAP3 SWAP2 SWAP1 PUSH2 0x4393 JUMP JUMPDEST PUSH2 0x21F PUSH2 0x399 CALLDATASIZE PUSH1 0x4 PUSH2 0x3E3D JUMP JUMPDEST PUSH2 0x1775 JUMP JUMPDEST PUSH2 0x3B1 PUSH2 0x3AC CALLDATASIZE PUSH1 0x4 PUSH2 0x3E3D JUMP JUMPDEST PUSH2 0x17F2 JUMP JUMPDEST PUSH1 0x40 MLOAD PUSH2 0x251 SWAP7 SWAP6 SWAP5 SWAP4 SWAP3 SWAP2 SWAP1 PUSH2 0x43B3 JUMP JUMPDEST PUSH1 0x1 SLOAD PUSH2 0x3D6 SWAP1 PUSH1 0x1 PUSH1 0x1 PUSH1 0xA0 SHL SUB AND DUP2 JUMP JUMPDEST PUSH1 0x40 MLOAD PUSH1 0x1 PUSH1 0x1 PUSH1 0xA0 SHL SUB SWAP1 SWAP2 AND DUP2 MSTORE PUSH1 0x20 ADD PUSH2 0x251 JUMP JUMPDEST PUSH2 0x21F PUSH2 0x3FC CALLDATASIZE PUSH1 0x4 PUSH2 0x425D JUMP JUMPDEST PUSH2 0x19C6 JUMP JUMPDEST PUSH2 0x247 PUSH1 0xB SLOAD DUP2 JUMP JUMPDEST PUSH2 0x247 PUSH2 0x418 CALLDATASIZE PUSH1 0x4 PUSH2 0x3FDF JUMP JUMPDEST PUSH2 0x1BFA JUMP JUMPDEST PUSH2 0x2BA PUSH2 0x42B CALLDATASIZE PUSH1 0x4 PUSH2 0x3E3D JUMP JUMPDEST PUSH2 0x1C0F JUMP JUMPDEST PUSH2 0x21F PUSH2 0x43E CALLDATASIZE PUSH1 0x4 PUSH2 0x3FF6 JUMP JUMPDEST PUSH2 0x1C37 JUMP JUMPDEST PUSH2 0x456 PUSH2 0x451 CALLDATASIZE PUSH1 0x4 PUSH2 0x3E3D JUMP JUMPDEST PUSH2 0x1E4A JUMP JUMPDEST PUSH1 0x40 MLOAD PUSH2 0x251 SWAP2 SWAP1 PUSH2 0x4413 JUMP JUMPDEST PUSH2 0x21F PUSH2 0x471 CALLDATASIZE PUSH1 0x4 PUSH2 0x3EF3 JUMP JUMPDEST PUSH2 0x2131 JUMP JUMPDEST PUSH2 0x21F PUSH2 0x484 CALLDATASIZE PUSH1 0x4 PUSH2 0x4499 JUMP JUMPDEST PUSH2 0x2377 JUMP JUMPDEST PUSH2 0x49C PUSH2 0x497 CALLDATASIZE PUSH1 0x4 PUSH2 0x3E3D JUMP JUMPDEST PUSH2 0x23D6 JUMP JUMPDEST PUSH1 0x40 MLOAD PUSH2 0x251 SWAP2 SWAP1 PUSH2 0x44E4 JUMP JUMPDEST PUSH2 0x2BA PUSH2 0x4B7 CALLDATASIZE PUSH1 0x4 PUSH2 0x3E3D JUMP JUMPDEST PUSH1 0x6 PUSH1 0x20 MSTORE PUSH0 SWAP1 DUP2 MSTORE PUSH1 0x40 SWAP1 KECCAK256 SLOAD PUSH1 0xFF AND DUP2 JUMP JUMPDEST PUSH2 0x4DE PUSH2 0x4D9 CALLDATASIZE PUSH1 0x4 PUSH2 0x3E3D JUMP JUMPDEST PUSH2 0x2864 JUMP JUMPDEST PUSH1 0x40 MLOAD PUSH2 0x251 SWAP6 SWAP5 SWAP4 SWAP3 SWAP2 SWAP1 PUSH2 0x45F7 JUMP JUMPDEST PUSH2 0x21F PUSH2 0x4FD CALLDATASIZE PUSH1 0x4 PUSH2 0x4653 JUMP JUMPDEST PUSH2 0x2A2E JUMP JUMPDEST PUSH2 0x515 PUSH2 0x510 CALLDATASIZE PUSH1 0x4 PUSH2 0x3E3D JUMP JUMPDEST PUSH2 0x2D95 JUMP JUMPDEST PUSH1 0x40 MLOAD PUSH2 0x251 SWAP3 SWAP2 SWAP1 PUSH2 0x47A6 JUMP JUMPDEST PUSH2 0x536 PUSH2 0x531 CALLDATASIZE PUSH1 0x4 PUSH2 0x3E3D JUMP JUMPDEST PUSH2 0x35D6 JUMP JUMPDEST PUSH1 0x40 MLOAD PUSH2 0x251 SWAP9 SWAP8 SWAP7 SWAP6 SWAP5 SWAP4 SWAP3 SWAP2 SWAP1 PUSH2 0x4880 JUMP JUMPDEST PUSH2 0x55D PUSH2 0x558 CALLDATASIZE PUSH1 0x4 PUSH2 0x3E3D JUMP JUMPDEST PUSH2 0x3846 JUMP JUMPDEST PUSH1 0x40 MLOAD PUSH2 0x251 SWAP2 SWAP1 PUSH2 0x4905 JUMP JUMPDEST PUSH2 0x57D PUSH2 0x578 CALLDATASIZE PUSH1 0x4 PUSH2 0x436B JUMP JUMPDEST PUSH2 0x3B14 JUMP JUMPDEST PUSH1 0x40 MLOAD PUSH2 0x251 SWAP9 SWAP8 SWAP7 SWAP6 SWAP5 SWAP4 SWAP3 SWAP2 SWAP1 PUSH2 0x4985 JUMP JUMPDEST CALLER PUSH0 SWAP1 DUP2 MSTORE PUSH1 0x20 DUP2 SWAP1 MSTORE PUSH1 0x40 SWAP1 KECCAK256 SLOAD PUSH1 0xFF AND DUP1 PUSH2 0x5B8 JUMPI POP PUSH1 0x1 SLOAD PUSH1 0x1 PUSH1 0x1 PUSH1 0xA0 SHL SUB AND CALLER EQ JUMPDEST PUSH2 0x5DD JUMPI PUSH1 0x40 MLOAD PUSH3 0x461BCD PUSH1 0xE5 SHL DUP2 MSTORE PUSH1 0x4 ADD PUSH2 0x5D4 SWAP1 PUSH2 0x49EB JUMP JUMPDEST PUSH1 0x40 MLOAD DUP1 SWAP2 SUB SWAP1 REVERT JUMPDEST CALLER PUSH0 SWAP1 DUP2 MSTORE PUSH1 0x20 DUP2 SWAP1 MSTORE PUSH1 0x40 SWAP1 KECCAK256 DUP1 SLOAD PUSH1 0xFF NOT AND PUSH1 0x1 OR SWAP1 SSTORE PUSH1 0x1 PUSH1 0x1 PUSH1 0xA0 SHL SUB DUP2 AND PUSH2 0x63E JUMPI PUSH1 0x40 MLOAD PUSH3 0x461BCD PUSH1 0xE5 SHL DUP2 MSTORE PUSH1 0x20 PUSH1 0x4 DUP3 ADD MSTORE PUSH1 0xF PUSH1 0x24 DUP3 ADD MSTORE PUSH15 0x496E76616C69642041646472657373 PUSH1 0x88 SHL PUSH1 0x44 DUP3 ADD MSTORE PUSH1 0x64 ADD PUSH2 0x5D4 JUMP JUMPDEST PUSH1 0x1 PUSH1 0x1 PUSH1 0xA0 SHL SUB DUP2 AND PUSH0 SWAP1 DUP2 MSTORE PUSH1 0x6 PUSH1 0x20 MSTORE PUSH1 0x40 SWAP1 KECCAK256 SLOAD PUSH1 0xFF AND PUSH2 0x6DA JUMPI PUSH1 0x40 MLOAD PUSH3 0x461BCD PUSH1 0xE5 SHL DUP2 MSTORE PUSH1 0x20 PUSH1 0x4 DUP3 ADD MSTORE PUSH1 0x46 PUSH1 0x24 DUP3 ADD MSTORE PUSH32 0x50726F76696465642061646472657373206D75737420626520616E2041646D69 PUSH1 0x44 DUP3 ADD MSTORE PUSH32 0x6E4163636573734164647265737320746F2072656D6F76652041646D696E4163 PUSH1 0x64 DUP3 ADD MSTORE PUSH6 0x636573732121 PUSH1 0xD0 SHL PUSH1 0x84 DUP3 ADD MSTORE PUSH1 0xA4 ADD PUSH2 0x5D4 JUMP JUMPDEST PUSH1 0x1 PUSH1 0x1 PUSH1 0xA0 SHL SUB AND PUSH0 SWAP1 DUP2 MSTORE PUSH1 0x6 PUSH1 0x20 MSTORE PUSH1 0x40 SWAP1 KECCAK256 DUP1 SLOAD PUSH1 0xFF NOT AND SWAP1 SSTORE JUMP JUMPDEST CALLER PUSH0 SWAP1 DUP2 MSTORE PUSH1 0x6 PUSH1 0x20 MSTORE PUSH1 0x40 DUP2 KECCAK256 SLOAD PUSH1 0xFF AND ISZERO PUSH2 0x715 JUMPI POP PUSH1 0x1 JUMPDEST CALLER PUSH0 SWAP1 DUP2 MSTORE PUSH1 0x6 PUSH1 0x20 MSTORE PUSH1 0x40 SWAP1 KECCAK256 SLOAD PUSH1 0xFF AND PUSH2 0x743 JUMPI PUSH1 0x40 MLOAD PUSH3 0x461BCD PUSH1 0xE5 SHL DUP2 MSTORE PUSH1 0x4 ADD PUSH2 0x5D4 SWAP1 PUSH2 0x4A35 JUMP JUMPDEST PUSH1 0x1 PUSH1 0x1 PUSH1 0xA0 SHL SUB DUP8 AND ISZERO DUP1 ISZERO SWAP1 PUSH2 0x75B JUMPI POP PUSH0 DUP7 MLOAD GT JUMPDEST DUP1 ISZERO PUSH2 0x767 JUMPI POP PUSH0 DUP6 MLOAD GT JUMPDEST PUSH2 0x783 JUMPI PUSH1 0x40 MLOAD PUSH3 0x461BCD PUSH1 0xE5 SHL DUP2 MSTORE PUSH1 0x4 ADD PUSH2 0x5D4 SWAP1 PUSH2 0x4A9D JUMP JUMPDEST PUSH1 0x1 PUSH1 0x1 PUSH1 0xA0 SHL SUB DUP1 DUP9 AND PUSH0 DUP2 DUP2 MSTORE PUSH1 0x2 PUSH1 0x20 DUP2 SWAP1 MSTORE PUSH1 0x40 SWAP1 SWAP2 KECCAK256 ADD SLOAD SWAP1 SWAP2 AND EQ PUSH2 0x7C0 JUMPI PUSH1 0x40 MLOAD PUSH3 0x461BCD PUSH1 0xE5 SHL DUP2 MSTORE PUSH1 0x4 ADD PUSH2 0x5D4 SWAP1 PUSH2 0x4AE3 JUMP JUMPDEST PUSH1 0x40 DUP1 MLOAD PUSH2 0x100 DUP2 ADD DUP3 MSTORE DUP11 DUP2 MSTORE PUSH1 0x20 DUP1 DUP3 ADD DUP12 SWAP1 MSTORE PUSH1 0x1 PUSH1 0x1 PUSH1 0xA0 SHL SUB DUP11 AND DUP3 DUP5 ADD DUP2 SWAP1 MSTORE PUSH1 0x60 DUP4 ADD DUP11 SWAP1 MSTORE PUSH1 0x80 DUP4 ADD DUP10 SWAP1 MSTORE PUSH1 0xA0 DUP4 ADD DUP9 SWAP1 MSTORE PUSH1 0xC0 DUP4 ADD DUP8 SWAP1 MSTORE PUSH1 0xE0 DUP4 ADD DUP7 SWAP1 MSTORE PUSH0 SWAP1 DUP2 MSTORE PUSH1 0x2 SWAP1 SWAP2 MSTORE SWAP2 SWAP1 SWAP2 KECCAK256 DUP2 MLOAD DUP6 SWAP3 SWAP2 SWAP1 DUP2 SWAP1 PUSH2 0x828 SWAP1 DUP3 PUSH2 0x4BFD JUMP JUMPDEST POP PUSH1 0x20 DUP3 ADD MLOAD PUSH1 0x1 DUP3 ADD SWAP1 PUSH2 0x83D SWAP1 DUP3 PUSH2 0x4BFD JUMP JUMPDEST POP PUSH1 0x40 DUP3 ADD MLOAD PUSH1 0x2 DUP3 ADD DUP1 SLOAD PUSH1 0x1 PUSH1 0x1 PUSH1 0xA0 SHL SUB NOT AND PUSH1 0x1 PUSH1 0x1 PUSH1 0xA0 SHL SUB SWAP1 SWAP3 AND SWAP2 SWAP1 SWAP2 OR SWAP1 SSTORE PUSH1 0x60 DUP3 ADD MLOAD PUSH1 0x3 DUP3 ADD SWAP1 PUSH2 0x878 SWAP1 DUP3 PUSH2 0x4BFD JUMP JUMPDEST POP PUSH1 0x80 DUP3 ADD MLOAD PUSH1 0x4 DUP3 ADD SWAP1 PUSH2 0x88D SWAP1 DUP3 PUSH2 0x4BFD JUMP JUMPDEST POP PUSH1 0xA0 DUP3 ADD MLOAD PUSH1 0x5 DUP3 ADD SWAP1 PUSH2 0x8A2 SWAP1 DUP3 PUSH2 0x4BFD JUMP JUMPDEST POP PUSH1 0xC0 DUP3 ADD MLOAD PUSH1 0x6 DUP3 ADD SSTORE PUSH1 0xE0 SWAP1 SWAP2 ADD MLOAD PUSH1 0x7 SWAP1 SWAP2 ADD SSTORE POP POP POP POP POP POP POP POP POP POP JUMP JUMPDEST PUSH0 DUP1 PUSH2 0x8D0 TIMESTAMP PUSH2 0x1BFA JUMP JUMPDEST SWAP1 POP PUSH0 DUP4 PUSH2 0x8E0 DUP4 PUSH2 0x7B2 PUSH2 0x4CCD JUMP JUMPDEST PUSH2 0x8EA SWAP2 SWAP1 PUSH2 0x4CE0 JUMP JUMPDEST SWAP1 POP PUSH0 DUP2 GT PUSH2 0x93B JUMPI PUSH1 0x40 MLOAD PUSH3 0x461BCD PUSH1 0xE5 SHL DUP2 MSTORE PUSH1 0x20 PUSH1 0x4 DUP3 ADD MSTORE PUSH1 0x18 PUSH1 0x24 DUP3 ADD MSTORE PUSH32 0x456E74657220636F727265637420626972746820796561720000000000000000 PUSH1 0x44 DUP3 ADD MSTORE PUSH1 0x64 ADD PUSH2 0x5D4 JUMP JUMPDEST SWAP4 SWAP3 POP POP POP JUMP JUMPDEST PUSH1 0x1 SLOAD PUSH1 0x1 PUSH1 0x1 PUSH1 0xA0 SHL SUB AND CALLER EQ PUSH2 0x99C JUMPI PUSH1 0x40 MLOAD PUSH3 0x461BCD PUSH1 0xE5 SHL DUP2 MSTORE PUSH1 0x20 PUSH1 0x4 DUP3 ADD MSTORE PUSH1 0x1F PUSH1 0x24 DUP3 ADD MSTORE PUSH32 0x41636365737365626C65206F6E6C7920666F722053757065724F776E65727300 PUSH1 0x44 DUP3 ADD MSTORE PUSH1 0x64 ADD PUSH2 0x5D4 JUMP JUMPDEST PUSH1 0x1 PUSH1 0x1 PUSH1 0xA0 SHL SUB AND PUSH0 SWAP1 DUP2 MSTORE PUSH1 0x20 DUP2 SWAP1 MSTORE PUSH1 0x40 SWAP1 KECCAK256 DUP1 SLOAD PUSH1 0xFF NOT AND SWAP1 SSTORE JUMP JUMPDEST CALLER PUSH0 SWAP1 DUP2 MSTORE PUSH1 0x20 DUP2 SWAP1 MSTORE PUSH1 0x40 SWAP1 KECCAK256 SLOAD PUSH1 0xFF AND DUP1 PUSH2 0x9E3 JUMPI POP PUSH1 0x1 SLOAD PUSH1 0x1 PUSH1 0x1 PUSH1 0xA0 SHL SUB AND CALLER EQ JUMPDEST PUSH2 0x9FF JUMPI PUSH1 0x40 MLOAD PUSH3 0x461BCD PUSH1 0xE5 SHL DUP2 MSTORE PUSH1 0x4 ADD PUSH2 0x5D4 SWAP1 PUSH2 0x49EB JUMP JUMPDEST PUSH1 0x1 PUSH1 0x1 PUSH1 0xA0 SHL SUB DUP6 AND ISZERO DUP1 ISZERO SWAP1 PUSH2 0xA17 JUMPI POP PUSH0 DUP2 MLOAD GT JUMPDEST DUP1 ISZERO PUSH2 0xA23 JUMPI POP PUSH0 DUP7 MLOAD GT JUMPDEST PUSH2 0xA3F JUMPI PUSH1 0x40 MLOAD PUSH3 0x461BCD PUSH1 0xE5 SHL DUP2 MSTORE PUSH1 0x4 ADD PUSH2 0x5D4 SWAP1 PUSH2 0x4CF3 JUMP JUMPDEST PUSH1 0x1 PUSH1 0x1 PUSH1 0xA0 SHL SUB DUP1 DUP7 AND PUSH0 DUP2 DUP2 MSTORE PUSH1 0x7 PUSH1 0x20 MSTORE PUSH1 0x40 SWAP1 KECCAK256 PUSH1 0x1 ADD SLOAD SWAP1 SWAP2 AND EQ PUSH2 0xA7B JUMPI PUSH1 0x40 MLOAD PUSH3 0x461BCD PUSH1 0xE5 SHL DUP2 MSTORE PUSH1 0x4 ADD PUSH2 0x5D4 SWAP1 PUSH2 0x4D42 JUMP JUMPDEST PUSH1 0x40 DUP1 MLOAD PUSH1 0xC0 DUP2 ADD DUP3 MSTORE DUP8 DUP2 MSTORE PUSH1 0x1 PUSH1 0x1 PUSH1 0xA0 SHL SUB DUP8 AND PUSH1 0x20 DUP1 DUP4 ADD DUP3 SWAP1 MSTORE DUP3 DUP5 ADD DUP9 SWAP1 MSTORE PUSH1 0x60 DUP4 ADD DUP8 SWAP1 MSTORE PUSH1 0x80 DUP4 ADD DUP7 SWAP1 MSTORE PUSH1 0xA0 DUP4 ADD DUP6 SWAP1 MSTORE PUSH0 SWAP2 DUP3 MSTORE PUSH1 0x7 SWAP1 MSTORE SWAP2 SWAP1 SWAP2 KECCAK256 DUP2 MLOAD DUP6 SWAP3 SWAP2 SWAP1 DUP2 SWAP1 PUSH2 0xAD3 SWAP1 DUP3 PUSH2 0x4BFD JUMP JUMPDEST POP PUSH1 0x20 DUP3 ADD MLOAD PUSH1 0x1 DUP3 ADD DUP1 SLOAD PUSH1 0x1 PUSH1 0x1 PUSH1 0xA0 SHL SUB NOT AND PUSH1 0x1 PUSH1 0x1 PUSH1 0xA0 SHL SUB SWAP1 SWAP3 AND SWAP2 SWAP1 SWAP2 OR SWAP1 SSTORE PUSH1 0x40 DUP3 ADD MLOAD PUSH1 0x2 DUP3 ADD SWAP1 PUSH2 0xB0E SWAP1 DUP3 PUSH2 0x4BFD JUMP JUMPDEST POP PUSH1 0x60 DUP3 ADD MLOAD PUSH1 0x3 DUP3 ADD SSTORE PUSH1 0x80 DUP3 ADD MLOAD PUSH1 0x4 DUP3 ADD SSTORE PUSH1 0xA0 DUP3 ADD MLOAD PUSH1 0x5 DUP3 ADD SWAP1 PUSH2 0xB37 SWAP1 DUP3 PUSH2 0x4BFD JUMP JUMPDEST POP POP POP POP POP POP POP POP POP POP JUMP JUMPDEST PUSH1 0x2 PUSH1 0x20 MSTORE PUSH0 SWAP1 DUP2 MSTORE PUSH1 0x40 SWAP1 KECCAK256 DUP1 SLOAD DUP2 SWAP1 PUSH2 0xB5D SWAP1 PUSH2 0x4B7B JUMP JUMPDEST DUP1 PUSH1 0x1F ADD PUSH1 0x20 DUP1 SWAP2 DIV MUL PUSH1 0x20 ADD PUSH1 0x40 MLOAD SWAP1 DUP2 ADD PUSH1 0x40 MSTORE DUP1 SWAP3 SWAP2 SWAP1 DUP2 DUP2 MSTORE PUSH1 0x20 ADD DUP3 DUP1 SLOAD PUSH2 0xB89 SWAP1 PUSH2 0x4B7B JUMP JUMPDEST DUP1 ISZERO PUSH2 0xBD4 JUMPI DUP1 PUSH1 0x1F LT PUSH2 0xBAB JUMPI PUSH2 0x100 DUP1 DUP4 SLOAD DIV MUL DUP4 MSTORE SWAP2 PUSH1 0x20 ADD SWAP2 PUSH2 0xBD4 JUMP JUMPDEST DUP3 ADD SWAP2 SWAP1 PUSH0 MSTORE PUSH1 0x20 PUSH0 KECCAK256 SWAP1 JUMPDEST DUP2 SLOAD DUP2 MSTORE SWAP1 PUSH1 0x1 ADD SWAP1 PUSH1 0x20 ADD DUP1 DUP4 GT PUSH2 0xBB7 JUMPI DUP3 SWAP1 SUB PUSH1 0x1F AND DUP3 ADD SWAP2 JUMPDEST POP POP POP POP POP SWAP1 DUP1 PUSH1 0x1 ADD DUP1 SLOAD PUSH2 0xBE9 SWAP1 PUSH2 0x4B7B JUMP JUMPDEST DUP1 PUSH1 0x1F ADD PUSH1 0x20 DUP1 SWAP2 DIV MUL PUSH1 0x20 ADD PUSH1 0x40 MLOAD SWAP1 DUP2 ADD PUSH1 0x40 MSTORE DUP1 SWAP3 SWAP2 SWAP1 DUP2 DUP2 MSTORE PUSH1 0x20 ADD DUP3 DUP1 SLOAD PUSH2 0xC15 SWAP1 PUSH2 0x4B7B JUMP JUMPDEST DUP1 ISZERO PUSH2 0xC60 JUMPI DUP1 PUSH1 0x1F LT PUSH2 0xC37 JUMPI PUSH2 0x100 DUP1 DUP4 SLOAD DIV MUL DUP4 MSTORE SWAP2 PUSH1 0x20 ADD SWAP2 PUSH2 0xC60 JUMP JUMPDEST DUP3 ADD SWAP2 SWAP1 PUSH0 MSTORE PUSH1 0x20 PUSH0 KECCAK256 SWAP1 JUMPDEST DUP2 SLOAD DUP2 MSTORE SWAP1 PUSH1 0x1 ADD SWAP1 PUSH1 0x20 ADD DUP1 DUP4 GT PUSH2 0xC43 JUMPI DUP3 SWAP1 SUB PUSH1 0x1F AND DUP3 ADD SWAP2 JUMPDEST POP POP POP PUSH1 0x2 DUP5 ADD SLOAD PUSH1 0x3 DUP6 ADD DUP1 SLOAD SWAP5 SWAP6 PUSH1 0x1 PUSH1 0x1 PUSH1 0xA0 SHL SUB SWAP1 SWAP3 AND SWAP5 SWAP2 SWAP4 POP SWAP2 POP PUSH2 0xC8A SWAP1 PUSH2 0x4B7B JUMP JUMPDEST DUP1 PUSH1 0x1F ADD PUSH1 0x20 DUP1 SWAP2 DIV MUL PUSH1 0x20 ADD PUSH1 0x40 MLOAD SWAP1 DUP2 ADD PUSH1 0x40 MSTORE DUP1 SWAP3 SWAP2 SWAP1 DUP2 DUP2 MSTORE PUSH1 0x20 ADD DUP3 DUP1 SLOAD PUSH2 0xCB6 SWAP1 PUSH2 0x4B7B JUMP JUMPDEST DUP1 ISZERO PUSH2 0xD01 JUMPI DUP1 PUSH1 0x1F LT PUSH2 0xCD8 JUMPI PUSH2 0x100 DUP1 DUP4 SLOAD DIV MUL DUP4 MSTORE SWAP2 PUSH1 0x20 ADD SWAP2 PUSH2 0xD01 JUMP JUMPDEST DUP3 ADD SWAP2 SWAP1 PUSH0 MSTORE PUSH1 0x20 PUSH0 KECCAK256 SWAP1 JUMPDEST DUP2 SLOAD DUP2 MSTORE SWAP1 PUSH1 0x1 ADD SWAP1 PUSH1 0x20 ADD DUP1 DUP4 GT PUSH2 0xCE4 JUMPI DUP3 SWAP1 SUB PUSH1 0x1F AND DUP3 ADD SWAP2 JUMPDEST POP POP POP POP POP SWAP1 DUP1 PUSH1 0x4 ADD DUP1 SLOAD PUSH2 0xD16 SWAP1 PUSH2 0x4B7B JUMP JUMPDEST DUP1 PUSH1 0x1F ADD PUSH1 0x20 DUP1 SWAP2 DIV MUL PUSH1 0x20 ADD PUSH1 0x40 MLOAD SWAP1 DUP2 ADD PUSH1 0x40 MSTORE DUP1 SWAP3 SWAP2 SWAP1 DUP2 DUP2 MSTORE PUSH1 0x20 ADD DUP3 DUP1 SLOAD PUSH2 0xD42 SWAP1 PUSH2 0x4B7B JUMP JUMPDEST DUP1 ISZERO PUSH2 0xD8D JUMPI DUP1 PUSH1 0x1F LT PUSH2 0xD64 JUMPI PUSH2 0x100 DUP1 DUP4 SLOAD DIV MUL DUP4 MSTORE SWAP2 PUSH1 0x20 ADD SWAP2 PUSH2 0xD8D JUMP JUMPDEST DUP3 ADD SWAP2 SWAP1 PUSH0 MSTORE PUSH1 0x20 PUSH0 KECCAK256 SWAP1 JUMPDEST DUP2 SLOAD DUP2 MSTORE SWAP1 PUSH1 0x1 ADD SWAP1 PUSH1 0x20 ADD DUP1 DUP4 GT PUSH2 0xD70 JUMPI DUP3 SWAP1 SUB PUSH1 0x1F AND DUP3 ADD SWAP2 JUMPDEST POP POP POP POP POP SWAP1 DUP1 PUSH1 0x5 ADD DUP1 SLOAD PUSH2 0xDA2 SWAP1 PUSH2 0x4B7B JUMP JUMPDEST DUP1 PUSH1 0x1F ADD PUSH1 0x20 DUP1 SWAP2 DIV MUL PUSH1 0x20 ADD PUSH1 0x40 MLOAD SWAP1 DUP2 ADD PUSH1 0x40 MSTORE DUP1 SWAP3 SWAP2 SWAP1 DUP2 DUP2 MSTORE PUSH1 0x20 ADD DUP3 DUP1 SLOAD PUSH2 0xDCE SWAP1 PUSH2 0x4B7B JUMP JUMPDEST DUP1 ISZERO PUSH2 0xE19 JUMPI DUP1 PUSH1 0x1F LT PUSH2 0xDF0 JUMPI PUSH2 0x100 DUP1 DUP4 SLOAD DIV MUL DUP4 MSTORE SWAP2 PUSH1 0x20 ADD SWAP2 PUSH2 0xE19 JUMP JUMPDEST DUP3 ADD SWAP2 SWAP1 PUSH0 MSTORE PUSH1 0x20 PUSH0 KECCAK256 SWAP1 JUMPDEST DUP2 SLOAD DUP2 MSTORE SWAP1 PUSH1 0x1 ADD SWAP1 PUSH1 0x20 ADD DUP1 DUP4 GT PUSH2 0xDFC JUMPI DUP3 SWAP1 SUB PUSH1 0x1F AND DUP3 ADD SWAP2 JUMPDEST POP POP POP POP POP SWAP1 DUP1 PUSH1 0x6 ADD SLOAD SWAP1 DUP1 PUSH1 0x7 ADD SLOAD SWAP1 POP DUP9 JUMP JUMPDEST PUSH1 0x1 PUSH1 0x1 PUSH1 0xA0 SHL SUB DUP2 AND PUSH0 SWAP1 DUP2 MSTORE PUSH1 0x20 DUP2 SWAP1 MSTORE PUSH1 0x40 DUP2 KECCAK256 SLOAD PUSH1 0xFF AND ISZERO PUSH2 0xE57 JUMPI POP PUSH1 0x1 SWAP2 SWAP1 POP JUMP JUMPDEST SWAP2 SWAP1 POP JUMP JUMPDEST CALLER PUSH0 SWAP1 DUP2 MSTORE PUSH1 0x6 PUSH1 0x20 MSTORE PUSH1 0x40 DUP2 KECCAK256 SLOAD PUSH1 0xFF AND ISZERO PUSH2 0xE77 JUMPI POP PUSH1 0x1 JUMPDEST CALLER PUSH0 SWAP1 DUP2 MSTORE PUSH1 0x6 PUSH1 0x20 MSTORE PUSH1 0x40 SWAP1 KECCAK256 SLOAD PUSH1 0xFF AND PUSH2 0xEA5 JUMPI PUSH1 0x40 MLOAD PUSH3 0x461BCD PUSH1 0xE5 SHL DUP2 MSTORE PUSH1 0x4 ADD PUSH2 0x5D4 SWAP1 PUSH2 0x4A35 JUMP JUMPDEST PUSH1 0x1 PUSH1 0x1 PUSH1 0xA0 SHL SUB DUP9 AND PUSH2 0xECB JUMPI PUSH1 0x40 MLOAD PUSH3 0x461BCD PUSH1 0xE5 SHL DUP2 MSTORE PUSH1 0x4 ADD PUSH2 0x5D4 SWAP1 PUSH2 0x4A9D JUMP JUMPDEST PUSH1 0x1 PUSH1 0x1 PUSH1 0xA0 SHL SUB DUP1 DUP10 AND PUSH0 DUP2 DUP2 MSTORE PUSH1 0x2 PUSH1 0x20 DUP2 SWAP1 MSTORE PUSH1 0x40 SWAP1 SWAP2 KECCAK256 ADD SLOAD SWAP1 SWAP2 AND EQ PUSH2 0xF08 JUMPI PUSH1 0x40 MLOAD PUSH3 0x461BCD PUSH1 0xE5 SHL DUP2 MSTORE PUSH1 0x4 ADD PUSH2 0x5D4 SWAP1 PUSH2 0x4AE3 JUMP JUMPDEST PUSH1 0x40 DUP1 MLOAD PUSH2 0x100 DUP2 ADD DUP3 MSTORE DUP11 DUP2 MSTORE PUSH1 0x1 PUSH1 0x1 PUSH1 0xA0 SHL SUB DUP11 AND PUSH1 0x20 DUP1 DUP4 ADD DUP3 SWAP1 MSTORE DUP11 ISZERO ISZERO DUP4 DUP6 ADD MSTORE DUP10 ISZERO ISZERO PUSH1 0x60 DUP5 ADD MSTORE DUP9 ISZERO ISZERO PUSH1 0x80 DUP5 ADD MSTORE PUSH1 0xA0 DUP4 ADD DUP9 SWAP1 MSTORE PUSH1 0xC0 DUP4 ADD DUP8 SWAP1 MSTORE PUSH1 0xE0 DUP4 ADD DUP7 SWAP1 MSTORE PUSH0 SWAP2 DUP3 MSTORE PUSH1 0x3 SWAP1 MSTORE SWAP2 SWAP1 SWAP2 KECCAK256 DUP2 MLOAD DUP2 SWAP1 PUSH2 0xF6E SWAP1 DUP3 PUSH2 0x4BFD JUMP JUMPDEST POP PUSH1 0x20 DUP3 ADD MLOAD PUSH1 0x1 DUP3 ADD DUP1 SLOAD PUSH1 0x40 DUP6 ADD MLOAD PUSH1 0x60 DUP7 ADD MLOAD PUSH1 0x80 DUP8 ADD MLOAD ISZERO ISZERO PUSH1 0x1 PUSH1 0xB0 SHL MUL PUSH1 0xFF PUSH1 0xB0 SHL NOT SWAP2 ISZERO ISZERO PUSH1 0x1 PUSH1 0xA8 SHL MUL SWAP2 SWAP1 SWAP2 AND PUSH2 0xFFFF PUSH1 0xA8 SHL NOT SWAP3 ISZERO ISZERO PUSH1 0x1 PUSH1 0xA0 SHL MUL PUSH1 0x1 PUSH1 0x1 PUSH1 0xA8 SHL SUB NOT SWAP1 SWAP5 AND PUSH1 0x1 PUSH1 0x1 PUSH1 0xA0 SHL SUB SWAP1 SWAP7 AND SWAP6 SWAP1 SWAP6 OR SWAP3 SWAP1 SWAP3 OR AND SWAP3 SWAP1 SWAP3 OR SWAP2 SWAP1 SWAP2 OR SWAP1 SSTORE PUSH1 0xA0 DUP3 ADD MLOAD PUSH1 0x2 DUP3 ADD SWAP1 PUSH2 0xFF2 SWAP1 DUP3 PUSH2 0x4BFD JUMP JUMPDEST POP PUSH1 0xC0 DUP3 ADD MLOAD PUSH1 0x3 DUP3 ADD SWAP1 PUSH2 0x1007 SWAP1 DUP3 PUSH2 0x4BFD JUMP JUMPDEST POP PUSH1 0xE0 DUP3 ADD MLOAD PUSH1 0x4 DUP3 ADD SWAP1 PUSH2 0x101C SWAP1 DUP3 PUSH2 0x4BFD JUMP JUMPDEST POP POP POP POP POP POP POP POP POP POP POP POP JUMP JUMPDEST CALLER PUSH0 SWAP1 DUP2 MSTORE PUSH1 0x20 DUP2 SWAP1 MSTORE PUSH1 0x40 SWAP1 KECCAK256 SLOAD PUSH1 0xFF AND DUP1 PUSH2 0x1051 JUMPI POP PUSH1 0x1 SLOAD PUSH1 0x1 PUSH1 0x1 PUSH1 0xA0 SHL SUB AND CALLER EQ JUMPDEST PUSH2 0x106D JUMPI PUSH1 0x40 MLOAD PUSH3 0x461BCD PUSH1 0xE5 SHL DUP2 MSTORE PUSH1 0x4 ADD PUSH2 0x5D4 SWAP1 PUSH2 0x49EB JUMP JUMPDEST PUSH1 0x1 PUSH1 0x1 PUSH1 0xA0 SHL SUB DUP6 AND ISZERO DUP1 ISZERO SWAP1 PUSH2 0x1085 JUMPI POP PUSH0 DUP2 MLOAD GT JUMPDEST DUP1 ISZERO PUSH2 0x1091 JUMPI POP PUSH0 DUP5 MLOAD GT JUMPDEST DUP1 ISZERO PUSH2 0x109D JUMPI POP PUSH0 DUP4 MLOAD GT JUMPDEST PUSH2 0x10E1 JUMPI PUSH1 0x40 MLOAD PUSH3 0x461BCD PUSH1 0xE5 SHL DUP2 MSTORE PUSH1 0x20 PUSH1 0x4 DUP3 ADD MSTORE PUSH1 0x15 PUSH1 0x24 DUP3 ADD MSTORE PUSH21 0x656E74657220636F72726563742064657461696C73 PUSH1 0x58 SHL PUSH1 0x44 DUP3 ADD MSTORE PUSH1 0x64 ADD PUSH2 0x5D4 JUMP JUMPDEST PUSH1 0x1 PUSH1 0x1 PUSH1 0xA0 SHL SUB DUP1 DUP7 AND PUSH0 DUP2 DUP2 MSTORE PUSH1 0x8 PUSH1 0x20 MSTORE PUSH1 0x40 SWAP1 KECCAK256 SLOAD SWAP1 SWAP2 AND EQ PUSH2 0x111A JUMPI PUSH1 0x40 MLOAD PUSH3 0x461BCD PUSH1 0xE5 SHL DUP2 MSTORE PUSH1 0x4 ADD PUSH2 0x5D4 SWAP1 PUSH2 0x4D42 JUMP JUMPDEST PUSH1 0x40 DUP1 MLOAD PUSH1 0xA0 DUP2 ADD DUP3 MSTORE PUSH1 0x1 PUSH1 0x1 PUSH1 0xA0 SHL SUB DUP8 DUP2 AND DUP1 DUP4 MSTORE PUSH1 0x20 DUP1 DUP5 ADD DUP7 DUP2 MSTORE DUP5 DUP7 ADD DUP11 SWAP1 MSTORE PUSH1 0x60 DUP6 ADD DUP10 SWAP1 MSTORE PUSH1 0x80 DUP6 ADD DUP9 SWAP1 MSTORE PUSH0 SWAP3 DUP4 MSTORE PUSH1 0x8 SWAP1 SWAP2 MSTORE SWAP4 SWAP1 KECCAK256 DUP3 MLOAD DUP2 SLOAD PUSH1 0x1 PUSH1 0x1 PUSH1 0xA0 SHL SUB NOT AND SWAP3 AND SWAP2 SWAP1 SWAP2 OR DUP2 SSTORE SWAP2 MLOAD SWAP1 SWAP2 SWAP1 PUSH1 0x1 DUP3 ADD SWAP1 PUSH2 0x1184 SWAP1 DUP3 PUSH2 0x4BFD JUMP JUMPDEST POP PUSH1 0x40 DUP3 ADD MLOAD PUSH1 0x2 DUP3 ADD SWAP1 PUSH2 0x1199 SWAP1 DUP3 PUSH2 0x4BFD JUMP JUMPDEST POP PUSH1 0x60 DUP3 ADD MLOAD PUSH1 0x3 DUP3 ADD SWAP1 PUSH2 0x11AE SWAP1 DUP3 PUSH2 0x4BFD JUMP JUMPDEST POP PUSH1 0x80 DUP3 ADD MLOAD DUP2 PUSH1 0x4 ADD SSTORE SWAP1 POP POP POP POP POP POP POP JUMP JUMPDEST PUSH1 0x1 PUSH1 0x1 PUSH1 0xA0 SHL SUB DUP2 AND PUSH0 SWAP1 DUP2 MSTORE PUSH1 0x5 PUSH1 0x20 SWAP1 DUP2 MSTORE PUSH1 0x40 DUP1 DUP4 KECCAK256 DUP1 SLOAD DUP3 MLOAD DUP2 DUP6 MUL DUP2 ADD DUP6 ADD SWAP1 SWAP4 MSTORE DUP1 DUP4 MSTORE PUSH1 0x60 SWAP5 SWAP3 SWAP4 SWAP2 SWAP3 SWAP1 SWAP2 DUP5 ADD JUMPDEST DUP3 DUP3 LT ISZERO PUSH2 0x12C3 JUMPI DUP4 DUP3 SWAP1 PUSH0 MSTORE PUSH1 0x20 PUSH0 KECCAK256 SWAP1 PUSH1 0x2 MUL ADD PUSH1 0x40 MLOAD DUP1 PUSH1 0x40 ADD PUSH1 0x40 MSTORE SWAP1 DUP2 PUSH0 DUP3 ADD SLOAD DUP2 MSTORE PUSH1 0x20 ADD PUSH1 0x1 DUP3 ADD DUP1 SLOAD PUSH2 0x1234 SWAP1 PUSH2 0x4B7B JUMP JUMPDEST DUP1 PUSH1 0x1F ADD PUSH1 0x20 DUP1 SWAP2 DIV MUL PUSH1 0x20 ADD PUSH1 0x40 MLOAD SWAP1 DUP2 ADD PUSH1 0x40 MSTORE DUP1 SWAP3 SWAP2 SWAP1 DUP2 DUP2 MSTORE PUSH1 0x20 ADD DUP3 DUP1 SLOAD PUSH2 0x1260 SWAP1 PUSH2 0x4B7B JUMP JUMPDEST DUP1 ISZERO PUSH2 0x12AB JUMPI DUP1 PUSH1 0x1F LT PUSH2 0x1282 JUMPI PUSH2 0x100 DUP1 DUP4 SLOAD DIV MUL DUP4 MSTORE SWAP2 PUSH1 0x20 ADD SWAP2 PUSH2 0x12AB JUMP JUMPDEST DUP3 ADD SWAP2 SWAP1 PUSH0 MSTORE PUSH1 0x20 PUSH0 KECCAK256 SWAP1 JUMPDEST DUP2 SLOAD DUP2 MSTORE SWAP1 PUSH1 0x1 ADD SWAP1 PUSH1 0x20 ADD DUP1 DUP4 GT PUSH2 0x128E JUMPI DUP3 SWAP1 SUB PUSH1 0x1F AND DUP3 ADD SWAP2 JUMPDEST POP POP POP POP POP DUP2 MSTORE POP POP DUP2 MSTORE PUSH1 0x20 ADD SWAP1 PUSH1 0x1 ADD SWAP1 PUSH2 0x11FA JUMP JUMPDEST POP POP POP POP SWAP1 POP SWAP2 SWAP1 POP JUMP JUMPDEST CALLER PUSH0 SWAP1 DUP2 MSTORE PUSH1 0x6 PUSH1 0x20 MSTORE PUSH1 0x40 DUP2 KECCAK256 SLOAD PUSH1 0xFF AND ISZERO PUSH2 0x12E9 JUMPI POP PUSH1 0x1 JUMPDEST CALLER PUSH0 SWAP1 DUP2 MSTORE PUSH1 0x6 PUSH1 0x20 MSTORE PUSH1 0x40 SWAP1 KECCAK256 SLOAD PUSH1 0xFF AND PUSH2 0x1317 JUMPI PUSH1 0x40 MLOAD PUSH3 0x461BCD PUSH1 0xE5 SHL DUP2 MSTORE PUSH1 0x4 ADD PUSH2 0x5D4 SWAP1 PUSH2 0x4A35 JUMP JUMPDEST PUSH1 0x1 PUSH1 0x1 PUSH1 0xA0 SHL SUB DUP1 DUP10 AND PUSH0 DUP2 DUP2 MSTORE PUSH1 0x3 PUSH1 0x20 MSTORE PUSH1 0x40 SWAP1 KECCAK256 PUSH1 0x1 ADD SLOAD SWAP1 SWAP2 AND SUB PUSH2 0x1393 JUMPI PUSH1 0x40 MLOAD PUSH3 0x461BCD PUSH1 0xE5 SHL DUP2 MSTORE PUSH1 0x20 PUSH1 0x4 DUP3 ADD MSTORE PUSH1 0x27 PUSH1 0x24 DUP3 ADD MSTORE PUSH32 0x50617469656E74206D65646963616C2064657461696C7320616C726561647920 PUSH1 0x44 DUP3 ADD MSTORE PUSH7 0x65786973742121 PUSH1 0xC8 SHL PUSH1 0x64 DUP3 ADD MSTORE PUSH1 0x84 ADD PUSH2 0x5D4 JUMP JUMPDEST PUSH1 0x1 PUSH1 0x1 PUSH1 0xA0 SHL SUB DUP9 AND PUSH2 0x13B9 JUMPI PUSH1 0x40 MLOAD PUSH3 0x461BCD PUSH1 0xE5 SHL DUP2 MSTORE PUSH1 0x4 ADD PUSH2 0x5D4 SWAP1 PUSH2 0x4A9D JUMP JUMPDEST PUSH1 0x40 DUP1 MLOAD PUSH2 0x100 DUP2 ADD DUP3 MSTORE DUP11 DUP2 MSTORE PUSH1 0x1 PUSH1 0x1 PUSH1 0xA0 SHL SUB DUP11 AND PUSH1 0x20 DUP1 DUP4 ADD DUP3 SWAP1 MSTORE DUP11 ISZERO ISZERO DUP4 DUP6 ADD MSTORE DUP10 ISZERO ISZERO PUSH1 0x60 DUP5 ADD MSTORE DUP9 ISZERO ISZERO PUSH1 0x80 DUP5 ADD MSTORE PUSH1 0xA0 DUP4 ADD DUP9 SWAP1 MSTORE PUSH1 0xC0 DUP4 ADD DUP8 SWAP1 MSTORE PUSH1 0xE0 DUP4 ADD DUP7 SWAP1 MSTORE PUSH0 SWAP2 DUP3 MSTORE PUSH1 0x3 SWAP1 MSTORE SWAP2 SWAP1 SWAP2 KECCAK256 DUP2 MLOAD DUP2 SWAP1 PUSH2 0x141F SWAP1 DUP3 PUSH2 0x4BFD JUMP JUMPDEST POP PUSH1 0x20 DUP3 ADD MLOAD PUSH1 0x1 DUP3 ADD DUP1 SLOAD PUSH1 0x40 DUP6 ADD MLOAD PUSH1 0x60 DUP7 ADD MLOAD PUSH1 0x80 DUP8 ADD MLOAD ISZERO ISZERO PUSH1 0x1 PUSH1 0xB0 SHL MUL PUSH1 0xFF PUSH1 0xB0 SHL NOT SWAP2 ISZERO ISZERO PUSH1 0x1 PUSH1 0xA8 SHL MUL SWAP2 SWAP1 SWAP2 AND PUSH2 0xFFFF PUSH1 0xA8 SHL NOT SWAP3 ISZERO ISZERO PUSH1 0x1 PUSH1 0xA0 SHL MUL PUSH1 0x1 PUSH1 0x1 PUSH1 0xA8 SHL SUB NOT SWAP1 SWAP5 AND PUSH1 0x1 PUSH1 0x1 PUSH1 0xA0 SHL SUB SWAP1 SWAP7 AND SWAP6 SWAP1 SWAP6 OR SWAP3 SWAP1 SWAP3 OR AND SWAP3 SWAP1 SWAP3 OR SWAP2 SWAP1 SWAP2 OR SWAP1 SSTORE PUSH1 0xA0 DUP3 ADD MLOAD PUSH1 0x2 DUP3 ADD SWAP1 PUSH2 0x14A3 SWAP1 DUP3 PUSH2 0x4BFD JUMP JUMPDEST POP PUSH1 0xC0 DUP3 ADD MLOAD PUSH1 0x3 DUP3 ADD SWAP1 PUSH2 0x14B8 SWAP1 DUP3 PUSH2 0x4BFD JUMP JUMPDEST POP PUSH1 0xE0 DUP3 ADD MLOAD PUSH1 0x4 DUP3 ADD SWAP1 PUSH2 0x14CD SWAP1 DUP3 PUSH2 0x4BFD JUMP JUMPDEST POP POP POP PUSH1 0x1 PUSH1 0x1 PUSH1 0xA0 SHL SUB DUP1 DUP10 AND PUSH0 DUP2 DUP2 MSTORE PUSH1 0x2 PUSH1 0x20 DUP2 SWAP1 MSTORE PUSH1 0x40 SWAP1 SWAP2 KECCAK256 ADD SLOAD SWAP1 SWAP2 AND SUB PUSH2 0x150A JUMPI PUSH1 0xB DUP1 SLOAD SWAP1 PUSH0 PUSH2 0x1504 DUP4 PUSH2 0x4DDA JUMP JUMPDEST SWAP2 SWAP1 POP SSTORE POP JUMPDEST POP POP POP POP POP POP POP POP POP JUMP JUMPDEST CALLER PUSH0 SWAP1 DUP2 MSTORE PUSH1 0x20 DUP2 SWAP1 MSTORE PUSH1 0x40 SWAP1 KECCAK256 SLOAD PUSH1 0xFF AND DUP1 PUSH2 0x153C JUMPI POP PUSH1 0x1 SLOAD PUSH1 0x1 PUSH1 0x1 PUSH1 0xA0 SHL SUB AND CALLER EQ JUMPDEST PUSH2 0x1558 JUMPI PUSH1 0x40 MLOAD PUSH3 0x461BCD PUSH1 0xE5 SHL DUP2 MSTORE PUSH1 0x4 ADD PUSH2 0x5D4 SWAP1 PUSH2 0x49EB JUMP JUMPDEST CALLER PUSH0 SWAP1 DUP2 MSTORE PUSH1 0x20 DUP2 SWAP1 MSTORE PUSH1 0x40 SWAP1 KECCAK256 SLOAD PUSH1 0xFF AND PUSH2 0x15CD JUMPI PUSH1 0x40 MLOAD PUSH3 0x461BCD PUSH1 0xE5 SHL DUP2 MSTORE PUSH1 0x20 PUSH1 0x4 DUP3 ADD MSTORE PUSH1 0x2E PUSH1 0x24 DUP3 ADD MSTORE PUSH32 0x4F6E6C79206F776E6572206861732070726976696C65676520746F2061646420 PUSH1 0x44 DUP3 ADD MSTORE PUSH14 0x6F776E6572206163636573732121 PUSH1 0x90 SHL PUSH1 0x64 DUP3 ADD MSTORE PUSH1 0x84 ADD PUSH2 0x5D4 JUMP JUMPDEST PUSH1 0x1 PUSH1 0x1 PUSH1 0xA0 SHL SUB DUP2 AND PUSH0 SWAP1 DUP2 MSTORE PUSH1 0x6 PUSH1 0x20 MSTORE PUSH1 0x40 SWAP1 KECCAK256 SLOAD PUSH1 0xFF AND ISZERO PUSH2 0x1635 JUMPI PUSH1 0x40 MLOAD PUSH3 0x461BCD PUSH1 0xE5 SHL DUP2 MSTORE PUSH1 0x20 PUSH1 0x4 DUP3 ADD DUP2 SWAP1 MSTORE PUSH1 0x24 DUP3 ADD MSTORE PUSH32 0x4164647265737320616C7265616479206861732061646D696E20616363657373 PUSH1 0x44 DUP3 ADD MSTORE PUSH1 0x64 ADD PUSH2 0x5D4 JUMP JUMPDEST PUSH1 0x1 PUSH1 0x1 PUSH1 0xA0 SHL SUB DUP2 AND PUSH2 0x167D JUMPI PUSH1 0x40 MLOAD PUSH3 0x461BCD PUSH1 0xE5 SHL DUP2 MSTORE PUSH1 0x20 PUSH1 0x4 DUP3 ADD MSTORE PUSH1 0xF PUSH1 0x24 DUP3 ADD MSTORE PUSH15 0x496E76616C69642041646472657373 PUSH1 0x88 SHL PUSH1 0x44 DUP3 ADD MSTORE PUSH1 0x64 ADD PUSH2 0x5D4 JUMP JUMPDEST PUSH1 0x1 PUSH1 0x1 PUSH1 0xA0 SHL SUB DUP2 AND PUSH0 SWAP1 DUP2 MSTORE PUSH1 0x6 PUSH1 0x20 MSTORE PUSH1 0x40 DUP2 KECCAK256 DUP1 SLOAD PUSH1 0xFF NOT AND PUSH1 0x1 OR SWAP1 SSTORE PUSH1 0xA DUP1 SLOAD SWAP2 PUSH2 0x16AD DUP4 PUSH2 0x4DDA JUMP JUMPDEST SWAP2 SWAP1 POP SSTORE POP POP JUMP JUMPDEST PUSH1 0x5 PUSH1 0x20 MSTORE DUP2 PUSH0 MSTORE PUSH1 0x40 PUSH0 KECCAK256 DUP2 DUP2 SLOAD DUP2 LT PUSH2 0x16CE JUMPI PUSH0 DUP1 REVERT JUMPDEST SWAP1 PUSH0 MSTORE PUSH1 0x20 PUSH0 KECCAK256 SWAP1 PUSH1 0x2 MUL ADD PUSH0 SWAP2 POP SWAP2 POP POP DUP1 PUSH0 ADD SLOAD SWAP1 DUP1 PUSH1 0x1 ADD DUP1 SLOAD PUSH2 0x16F4 SWAP1 PUSH2 0x4B7B JUMP JUMPDEST DUP1 PUSH1 0x1F ADD PUSH1 0x20 DUP1 SWAP2 DIV MUL PUSH1 0x20 ADD PUSH1 0x40 MLOAD SWAP1 DUP2 ADD PUSH1 0x40 MSTORE DUP1 SWAP3 SWAP2 SWAP1 DUP2 DUP2 MSTORE PUSH1 0x20 ADD DUP3 DUP1 SLOAD PUSH2 0x1720 SWAP1 PUSH2 0x4B7B JUMP JUMPDEST DUP1 ISZERO PUSH2 0x176B JUMPI DUP1 PUSH1 0x1F LT PUSH2 0x1742 JUMPI PUSH2 0x100 DUP1 DUP4 SLOAD DIV MUL DUP4 MSTORE SWAP2 PUSH1 0x20 ADD SWAP2 PUSH2 0x176B JUMP JUMPDEST DUP3 ADD SWAP2 SWAP1 PUSH0 MSTORE PUSH1 0x20 PUSH0 KECCAK256 SWAP1 JUMPDEST DUP2 SLOAD DUP2 MSTORE SWAP1 PUSH1 0x1 ADD SWAP1 PUSH1 0x20 ADD DUP1 DUP4 GT PUSH2 0x174E JUMPI DUP3 SWAP1 SUB PUSH1 0x1F AND DUP3 ADD SWAP2 JUMPDEST POP POP POP POP POP SWAP1 POP DUP3 JUMP JUMPDEST PUSH1 0x1 SLOAD PUSH1 0x1 PUSH1 0x1 PUSH1 0xA0 SHL SUB AND CALLER EQ PUSH2 0x17CF JUMPI PUSH1 0x40 MLOAD PUSH3 0x461BCD PUSH1 0xE5 SHL DUP2 MSTORE PUSH1 0x20 PUSH1 0x4 DUP3 ADD MSTORE PUSH1 0x1F PUSH1 0x24 DUP3 ADD MSTORE PUSH32 0x41636365737365626C65206F6E6C7920666F722053757065724F776E65727300 PUSH1 0x44 DUP3 ADD MSTORE PUSH1 0x64 ADD PUSH2 0x5D4 JUMP JUMPDEST PUSH1 0x1 PUSH1 0x1 PUSH1 0xA0 SHL SUB AND PUSH0 SWAP1 DUP2 MSTORE PUSH1 0x20 DUP2 SWAP1 MSTORE PUSH1 0x40 SWAP1 KECCAK256 DUP1 SLOAD PUSH1 0xFF NOT AND PUSH1 0x1 OR SWAP1 SSTORE JUMP JUMPDEST PUSH1 0x7 PUSH1 0x20 MSTORE PUSH0 SWAP1 DUP2 MSTORE PUSH1 0x40 SWAP1 KECCAK256 DUP1 SLOAD DUP2 SWAP1 PUSH2 0x180C SWAP1 PUSH2 0x4B7B JUMP JUMPDEST DUP1 PUSH1 0x1F ADD PUSH1 0x20 DUP1 SWAP2 DIV MUL PUSH1 0x20 ADD PUSH1 0x40 MLOAD SWAP1 DUP2 ADD PUSH1 0x40 MSTORE DUP1 SWAP3 SWAP2 SWAP1 DUP2 DUP2 MSTORE PUSH1 0x20 ADD DUP3 DUP1 SLOAD PUSH2 0x1838 SWAP1 PUSH2 0x4B7B JUMP JUMPDEST DUP1 ISZERO PUSH2 0x1883 JUMPI DUP1 PUSH1 0x1F LT PUSH2 0x185A JUMPI PUSH2 0x100 DUP1 DUP4 SLOAD DIV MUL DUP4 MSTORE SWAP2 PUSH1 0x20 ADD SWAP2 PUSH2 0x1883 JUMP JUMPDEST DUP3 ADD SWAP2 SWAP1 PUSH0 MSTORE PUSH1 0x20 PUSH0 KECCAK256 SWAP1 JUMPDEST DUP2 SLOAD DUP2 MSTORE SWAP1 PUSH1 0x1 ADD SWAP1 PUSH1 0x20 ADD DUP1 DUP4 GT PUSH2 0x1866 JUMPI DUP3 SWAP1 SUB PUSH1 0x1F AND DUP3 ADD SWAP2 JUMPDEST POP POP POP PUSH1 0x1 DUP5 ADD SLOAD PUSH1 0x2 DUP6 ADD DUP1 SLOAD SWAP5 SWAP6 PUSH1 0x1 PUSH1 0x1 PUSH1 0xA0 SHL SUB SWAP1 SWAP3 AND SWAP5 SWAP2 SWAP4 POP SWAP2 POP PUSH2 0x18AD SWAP1 PUSH2 0x4B7B JUMP JUMPDEST DUP1 PUSH1 0x1F ADD PUSH1 0x20 DUP1 SWAP2 DIV MUL PUSH1 0x20 ADD PUSH1 0x40 MLOAD SWAP1 DUP2 ADD PUSH1 0x40 MSTORE DUP1 SWAP3 SWAP2 SWAP1 DUP2 DUP2 MSTORE PUSH1 0x20 ADD DUP3 DUP1 SLOAD PUSH2 0x18D9 SWAP1 PUSH2 0x4B7B JUMP JUMPDEST DUP1 ISZERO PUSH2 0x1924 JUMPI DUP1 PUSH1 0x1F LT PUSH2 0x18FB JUMPI PUSH2 0x100 DUP1 DUP4 SLOAD DIV MUL DUP4 MSTORE SWAP2 PUSH1 0x20 ADD SWAP2 PUSH2 0x1924 JUMP JUMPDEST DUP3 ADD SWAP2 SWAP1 PUSH0 MSTORE PUSH1 0x20 PUSH0 KECCAK256 SWAP1 JUMPDEST DUP2 SLOAD DUP2 MSTORE SWAP1 PUSH1 0x1 ADD SWAP1 PUSH1 0x20 ADD DUP1 DUP4 GT PUSH2 0x1907 JUMPI DUP3 SWAP1 SUB PUSH1 0x1F AND DUP3 ADD SWAP2 JUMPDEST POP POP POP POP POP SWAP1 DUP1 PUSH1 0x3 ADD SLOAD SWAP1 DUP1 PUSH1 0x4 ADD SLOAD SWAP1 DUP1 PUSH1 0x5 ADD DUP1 SLOAD PUSH2 0x1945 SWAP1 PUSH2 0x4B7B JUMP JUMPDEST DUP1 PUSH1 0x1F ADD PUSH1 0x20 DUP1 SWAP2 DIV MUL PUSH1 0x20 ADD PUSH1 0x40 MLOAD SWAP1 DUP2 ADD PUSH1 0x40 MSTORE DUP1 SWAP3 SWAP2 SWAP1 DUP2 DUP2 MSTORE PUSH1 0x20 ADD DUP3 DUP1 SLOAD PUSH2 0x1971 SWAP1 PUSH2 0x4B7B JUMP JUMPDEST DUP1 ISZERO PUSH2 0x19BC JUMPI DUP1 PUSH1 0x1F LT PUSH2 0x1993 JUMPI PUSH2 0x100 DUP1 DUP4 SLOAD DIV MUL DUP4 MSTORE SWAP2 PUSH1 0x20 ADD SWAP2 PUSH2 0x19BC JUMP JUMPDEST DUP3 ADD SWAP2 SWAP1 PUSH0 MSTORE PUSH1 0x20 PUSH0 KECCAK256 SWAP1 JUMPDEST DUP2 SLOAD DUP2 MSTORE SWAP1 PUSH1 0x1 ADD SWAP1 PUSH1 0x20 ADD DUP1 DUP4 GT PUSH2 0x199F JUMPI DUP3 SWAP1 SUB PUSH1 0x1F AND DUP3 ADD SWAP2 JUMPDEST POP POP POP POP POP SWAP1 POP DUP7 JUMP JUMPDEST CALLER PUSH0 SWAP1 DUP2 MSTORE PUSH1 0x20 DUP2 SWAP1 MSTORE PUSH1 0x40 SWAP1 KECCAK256 SLOAD PUSH1 0xFF AND DUP1 PUSH2 0x19ED JUMPI POP PUSH1 0x1 SLOAD PUSH1 0x1 PUSH1 0x1 PUSH1 0xA0 SHL SUB AND CALLER EQ JUMPDEST PUSH2 0x1A09 JUMPI PUSH1 0x40 MLOAD PUSH3 0x461BCD PUSH1 0xE5 SHL DUP2 MSTORE PUSH1 0x4 ADD PUSH2 0x5D4 SWAP1 PUSH2 0x49EB JUMP JUMPDEST PUSH1 0x1 PUSH1 0x1 PUSH1 0xA0 SHL SUB DUP1 DUP7 AND PUSH0 DUP2 DUP2 MSTORE PUSH1 0x8 PUSH1 0x20 MSTORE PUSH1 0x40 SWAP1 KECCAK256 SLOAD SWAP1 SWAP2 AND SUB PUSH2 0x1A89 JUMPI PUSH1 0x40 MLOAD PUSH3 0x461BCD PUSH1 0xE5 SHL DUP2 MSTORE PUSH1 0x20 PUSH1 0x4 DUP3 ADD MSTORE PUSH1 0x2E PUSH1 0x24 DUP3 ADD MSTORE PUSH32 0x50687973696369616E2050726F66657373696F6E616C2064657461696C732061 PUSH1 0x44 DUP3 ADD MSTORE PUSH14 0x6C72656164792065786973742121 PUSH1 0x90 SHL PUSH1 0x64 DUP3 ADD MSTORE PUSH1 0x84 ADD PUSH2 0x5D4 JUMP JUMPDEST PUSH1 0x1 PUSH1 0x1 PUSH1 0xA0 SHL SUB DUP1 DUP7 AND PUSH0 DUP2 DUP2 MSTORE PUSH1 0x8 PUSH1 0x20 MSTORE PUSH1 0x40 SWAP1 KECCAK256 SLOAD SWAP1 SWAP2 AND EQ DUP1 ISZERO SWAP1 PUSH2 0x1AB3 JUMPI POP PUSH0 DUP2 MLOAD GT JUMPDEST DUP1 ISZERO PUSH2 0x1ABF JUMPI POP PUSH0 DUP5 MLOAD GT JUMPDEST DUP1 ISZERO PUSH2 0x1ACB JUMPI POP PUSH0 DUP4 MLOAD GT JUMPDEST PUSH2 0x1B0F JUMPI PUSH1 0x40 MLOAD PUSH3 0x461BCD PUSH1 0xE5 SHL DUP2 MSTORE PUSH1 0x20 PUSH1 0x4 DUP3 ADD MSTORE PUSH1 0x15 PUSH1 0x24 DUP3 ADD MSTORE PUSH21 0x456E74657220436F72726563742064657461696C73 PUSH1 0x58 SHL PUSH1 0x44 DUP3 ADD MSTORE PUSH1 0x64 ADD PUSH2 0x5D4 JUMP JUMPDEST PUSH1 0x40 DUP1 MLOAD PUSH1 0xA0 DUP2 ADD DUP3 MSTORE PUSH1 0x1 PUSH1 0x1 PUSH1 0xA0 SHL SUB DUP8 DUP2 AND DUP1 DUP4 MSTORE PUSH1 0x20 DUP1 DUP5 ADD DUP7 DUP2 MSTORE DUP5 DUP7 ADD DUP11 SWAP1 MSTORE PUSH1 0x60 DUP6 ADD DUP10 SWAP1 MSTORE PUSH1 0x80 DUP6 ADD DUP9 SWAP1 MSTORE PUSH0 SWAP3 DUP4 MSTORE PUSH1 0x8 SWAP1 SWAP2 MSTORE SWAP4 SWAP1 KECCAK256 DUP3 MLOAD DUP2 SLOAD PUSH1 0x1 PUSH1 0x1 PUSH1 0xA0 SHL SUB NOT AND SWAP3 AND SWAP2 SWAP1 SWAP2 OR DUP2 SSTORE SWAP2 MLOAD SWAP1 SWAP2 SWAP1 PUSH1 0x1 DUP3 ADD SWAP1 PUSH2 0x1B79 SWAP1 DUP3 PUSH2 0x4BFD JUMP JUMPDEST POP PUSH1 0x40 DUP3 ADD MLOAD PUSH1 0x2 DUP3 ADD SWAP1 PUSH2 0x1B8E SWAP1 DUP3 PUSH2 0x4BFD JUMP JUMPDEST POP PUSH1 0x60 DUP3 ADD MLOAD PUSH1 0x3 DUP3 ADD SWAP1 PUSH2 0x1BA3 SWAP1 DUP3 PUSH2 0x4BFD JUMP JUMPDEST POP PUSH1 0x80 SWAP2 SWAP1 SWAP2 ADD MLOAD PUSH1 0x4 SWAP1 SWAP2 ADD SSTORE PUSH1 0x1 PUSH1 0x1 PUSH1 0xA0 SHL SUB DUP1 DUP7 AND PUSH0 DUP2 DUP2 MSTORE PUSH1 0x7 PUSH1 0x20 MSTORE PUSH1 0x40 SWAP1 KECCAK256 PUSH1 0x1 ADD SLOAD SWAP1 SWAP2 AND SUB PUSH2 0x1BF3 JUMPI PUSH2 0x1BDE DUP6 PUSH2 0x1515 JUMP JUMPDEST PUSH1 0x9 DUP1 SLOAD SWAP1 PUSH0 PUSH2 0x1BED DUP4 PUSH2 0x4DDA JUMP JUMPDEST SWAP2 SWAP1 POP SSTORE POP JUMPDEST POP POP POP POP POP JUMP JUMPDEST PUSH0 PUSH2 0x1C09 PUSH4 0x1E13380 DUP4 PUSH2 0x4DF2 JUMP JUMPDEST SWAP3 SWAP2 POP POP JUMP JUMPDEST PUSH1 0x1 PUSH1 0x1 PUSH1 0xA0 SHL SUB DUP2 AND PUSH0 SWAP1 DUP2 MSTORE PUSH1 0x6 PUSH1 0x20 MSTORE PUSH1 0x40 DUP2 KECCAK256 SLOAD PUSH1 0xFF AND ISZERO PUSH2 0xE57 JUMPI POP PUSH1 0x1 SWAP2 SWAP1 POP JUMP JUMPDEST CALLER PUSH0 SWAP1 DUP2 MSTORE PUSH1 0x20 DUP2 SWAP1 MSTORE PUSH1 0x40 SWAP1 KECCAK256 SLOAD PUSH1 0xFF AND DUP1 PUSH2 0x1C5E JUMPI POP PUSH1 0x1 SLOAD PUSH1 0x1 PUSH1 0x1 PUSH1 0xA0 SHL SUB AND CALLER EQ JUMPDEST PUSH2 0x1C7A JUMPI PUSH1 0x40 MLOAD PUSH3 0x461BCD PUSH1 0xE5 SHL DUP2 MSTORE PUSH1 0x4 ADD PUSH2 0x5D4 SWAP1 PUSH2 0x49EB JUMP JUMPDEST PUSH1 0x1 PUSH1 0x1 PUSH1 0xA0 SHL SUB DUP1 DUP7 AND PUSH0 DUP2 DUP2 MSTORE PUSH1 0x7 PUSH1 0x20 MSTORE PUSH1 0x40 SWAP1 KECCAK256 PUSH1 0x1 ADD SLOAD SWAP1 SWAP2 AND SUB PUSH2 0x1CF8 JUMPI PUSH1 0x40 MLOAD PUSH3 0x461BCD PUSH1 0xE5 SHL DUP2 MSTORE PUSH1 0x20 PUSH1 0x4 DUP3 ADD MSTORE PUSH1 0x29 PUSH1 0x24 DUP3 ADD MSTORE PUSH32 0x50687973696369616E20706572736F6E616C2064657461696C20616C72656164 PUSH1 0x44 DUP3 ADD MSTORE PUSH9 0x792065786973742121 PUSH1 0xB8 SHL PUSH1 0x64 DUP3 ADD MSTORE PUSH1 0x84 ADD PUSH2 0x5D4 JUMP JUMPDEST PUSH1 0x1 PUSH1 0x1 PUSH1 0xA0 SHL SUB DUP6 AND ISZERO DUP1 ISZERO SWAP1 PUSH2 0x1D0F JUMPI POP PUSH0 DUP3 GT JUMPDEST DUP1 ISZERO PUSH2 0x1D1B JUMPI POP PUSH0 DUP2 MLOAD GT JUMPDEST DUP1 ISZERO PUSH2 0x1D27 JUMPI POP PUSH0 DUP7 MLOAD GT JUMPDEST PUSH2 0x1D43 JUMPI PUSH1 0x40 MLOAD PUSH3 0x461BCD PUSH1 0xE5 SHL DUP2 MSTORE PUSH1 0x4 ADD PUSH2 0x5D4 SWAP1 PUSH2 0x4CF3 JUMP JUMPDEST PUSH1 0x40 DUP1 MLOAD PUSH1 0xC0 DUP2 ADD DUP3 MSTORE DUP8 DUP2 MSTORE PUSH1 0x1 PUSH1 0x1 PUSH1 0xA0 SHL SUB DUP8 AND PUSH1 0x20 DUP1 DUP4 ADD DUP3 SWAP1 MSTORE DUP3 DUP5 ADD DUP9 SWAP1 MSTORE PUSH1 0x60 DUP4 ADD DUP8 SWAP1 MSTORE PUSH1 0x80 DUP4 ADD DUP7 SWAP1 MSTORE PUSH1 0xA0 DUP4 ADD DUP6 SWAP1 MSTORE PUSH0 SWAP2 DUP3 MSTORE PUSH1 0x7 SWAP1 MSTORE SWAP2 SWAP1 SWAP2 KECCAK256 DUP2 MLOAD DUP6 SWAP3 SWAP2 SWAP1 DUP2 SWAP1 PUSH2 0x1D9B SWAP1 DUP3 PUSH2 0x4BFD JUMP JUMPDEST POP PUSH1 0x20 DUP3 ADD MLOAD PUSH1 0x1 DUP3 ADD DUP1 SLOAD PUSH1 0x1 PUSH1 0x1 PUSH1 0xA0 SHL SUB NOT AND PUSH1 0x1 PUSH1 0x1 PUSH1 0xA0 SHL SUB SWAP1 SWAP3 AND SWAP2 SWAP1 SWAP2 OR SWAP1 SSTORE PUSH1 0x40 DUP3 ADD MLOAD PUSH1 0x2 DUP3 ADD SWAP1 PUSH2 0x1DD6 SWAP1 DUP3 PUSH2 0x4BFD JUMP JUMPDEST POP PUSH1 0x60 DUP3 ADD MLOAD PUSH1 0x3 DUP3 ADD SSTORE PUSH1 0x80 DUP3 ADD MLOAD PUSH1 0x4 DUP3 ADD SSTORE PUSH1 0xA0 DUP3 ADD MLOAD PUSH1 0x5 DUP3 ADD SWAP1 PUSH2 0x1DFF SWAP1 DUP3 PUSH2 0x4BFD JUMP JUMPDEST POP POP POP PUSH1 0x1 PUSH1 0x1 PUSH1 0xA0 SHL SUB DUP1 DUP8 AND PUSH0 DUP2 DUP2 MSTORE PUSH1 0x8 PUSH1 0x20 MSTORE PUSH1 0x40 SWAP1 KECCAK256 SLOAD SWAP1 SWAP2 AND SUB PUSH2 0x1E41 JUMPI PUSH2 0x1E2C DUP7 PUSH2 0x1515 JUMP JUMPDEST PUSH1 0x9 DUP1 SLOAD SWAP1 PUSH0 PUSH2 0x1E3B DUP4 PUSH2 0x4DDA JUMP JUMPDEST SWAP2 SWAP1 POP SSTORE POP JUMPDEST POP POP POP POP POP POP POP JUMP JUMPDEST PUSH2 0x1E89 PUSH1 0x40 MLOAD DUP1 PUSH1 0xC0 ADD PUSH1 0x40 MSTORE DUP1 PUSH1 0x60 DUP2 MSTORE PUSH1 0x20 ADD PUSH0 PUSH1 0x1 PUSH1 0x1 PUSH1 0xA0 SHL SUB AND DUP2 MSTORE PUSH1 0x20 ADD PUSH1 0x60 DUP2 MSTORE PUSH1 0x20 ADD PUSH0 DUP2 MSTORE PUSH1 0x20 ADD PUSH0 DUP2 MSTORE PUSH1 0x20 ADD PUSH1 0x60 DUP2 MSTORE POP SWAP1 JUMP JUMPDEST CALLER PUSH0 SWAP1 DUP2 MSTORE PUSH1 0x20 DUP2 SWAP1 MSTORE PUSH1 0x40 SWAP1 KECCAK256 SLOAD PUSH1 0xFF AND DUP1 PUSH2 0x1EB0 JUMPI POP PUSH1 0x1 SLOAD PUSH1 0x1 PUSH1 0x1 PUSH1 0xA0 SHL SUB AND CALLER EQ JUMPDEST PUSH2 0x1ECC JUMPI PUSH1 0x40 MLOAD PUSH3 0x461BCD PUSH1 0xE5 SHL DUP2 MSTORE PUSH1 0x4 ADD PUSH2 0x5D4 SWAP1 PUSH2 0x49EB JUMP JUMPDEST PUSH1 0x1 PUSH1 0x1 PUSH1 0xA0 SHL SUB DUP3 AND PUSH2 0x1EF2 JUMPI PUSH1 0x40 MLOAD PUSH3 0x461BCD PUSH1 0xE5 SHL DUP2 MSTORE PUSH1 0x4 ADD PUSH2 0x5D4 SWAP1 PUSH2 0x4E11 JUMP JUMPDEST PUSH1 0x1 PUSH1 0x1 PUSH1 0xA0 SHL SUB DUP1 DUP4 AND PUSH0 DUP2 DUP2 MSTORE PUSH1 0x7 PUSH1 0x20 MSTORE PUSH1 0x40 SWAP1 KECCAK256 PUSH1 0x1 ADD SLOAD SWAP1 SWAP2 AND EQ PUSH2 0x1F2E JUMPI PUSH1 0x40 MLOAD PUSH3 0x461BCD PUSH1 0xE5 SHL DUP2 MSTORE PUSH1 0x4 ADD PUSH2 0x5D4 SWAP1 PUSH2 0x4E48 JUMP JUMPDEST PUSH1 0x1 PUSH1 0x1 PUSH1 0xA0 SHL SUB DUP3 AND PUSH0 SWAP1 DUP2 MSTORE PUSH1 0x7 PUSH1 0x20 MSTORE PUSH1 0x40 SWAP1 DUP2 SWAP1 KECCAK256 DUP2 MLOAD PUSH1 0xC0 DUP2 ADD SWAP1 SWAP3 MSTORE DUP1 SLOAD DUP3 SWAP1 DUP3 SWAP1 PUSH2 0x1F5F SWAP1 PUSH2 0x4B7B JUMP JUMPDEST DUP1 PUSH1 0x1F ADD PUSH1 0x20 DUP1 SWAP2 DIV MUL PUSH1 0x20 ADD PUSH1 0x40 MLOAD SWAP1 DUP2 ADD PUSH1 0x40 MSTORE DUP1 SWAP3 SWAP2 SWAP1 DUP2 DUP2 MSTORE PUSH1 0x20 ADD DUP3 DUP1 SLOAD PUSH2 0x1F8B SWAP1 PUSH2 0x4B7B JUMP JUMPDEST DUP1 ISZERO PUSH2 0x1FD6 JUMPI DUP1 PUSH1 0x1F LT PUSH2 0x1FAD JUMPI PUSH2 0x100 DUP1 DUP4 SLOAD DIV MUL DUP4 MSTORE SWAP2 PUSH1 0x20 ADD SWAP2 PUSH2 0x1FD6 JUMP JUMPDEST DUP3 ADD SWAP2 SWAP1 PUSH0 MSTORE PUSH1 0x20 PUSH0 KECCAK256 SWAP1 JUMPDEST DUP2 SLOAD DUP2 MSTORE SWAP1 PUSH1 0x1 ADD SWAP1 PUSH1 0x20 ADD DUP1 DUP4 GT PUSH2 0x1FB9 JUMPI DUP3 SWAP1 SUB PUSH1 0x1F AND DUP3 ADD SWAP2 JUMPDEST POP POP POP SWAP2 DUP4 MSTORE POP POP PUSH1 0x1 DUP3 ADD SLOAD PUSH1 0x1 PUSH1 0x1 PUSH1 0xA0 SHL SUB AND PUSH1 0x20 DUP3 ADD MSTORE PUSH1 0x2 DUP3 ADD DUP1 SLOAD PUSH1 0x40 SWAP1 SWAP3 ADD SWAP2 PUSH2 0x2006 SWAP1 PUSH2 0x4B7B JUMP JUMPDEST DUP1 PUSH1 0x1F ADD PUSH1 0x20 DUP1 SWAP2 DIV MUL PUSH1 0x20 ADD PUSH1 0x40 MLOAD SWAP1 DUP2 ADD PUSH1 0x40 MSTORE DUP1 SWAP3 SWAP2 SWAP1 DUP2 DUP2 MSTORE PUSH1 0x20 ADD DUP3 DUP1 SLOAD PUSH2 0x2032 SWAP1 PUSH2 0x4B7B JUMP JUMPDEST DUP1 ISZERO PUSH2 0x207D JUMPI DUP1 PUSH1 0x1F LT PUSH2 0x2054 JUMPI PUSH2 0x100 DUP1 DUP4 SLOAD DIV MUL DUP4 MSTORE SWAP2 PUSH1 0x20 ADD SWAP2 PUSH2 0x207D JUMP JUMPDEST DUP3 ADD SWAP2 SWAP1 PUSH0 MSTORE PUSH1 0x20 PUSH0 KECCAK256 SWAP1 JUMPDEST DUP2 SLOAD DUP2 MSTORE SWAP1 PUSH1 0x1 ADD SWAP1 PUSH1 0x20 ADD DUP1 DUP4 GT PUSH2 0x2060 JUMPI DUP3 SWAP1 SUB PUSH1 0x1F AND DUP3 ADD SWAP2 JUMPDEST POP POP POP POP POP DUP2 MSTORE PUSH1 0x20 ADD PUSH1 0x3 DUP3 ADD SLOAD DUP2 MSTORE PUSH1 0x20 ADD PUSH1 0x4 DUP3 ADD SLOAD DUP2 MSTORE PUSH1 0x20 ADD PUSH1 0x5 DUP3 ADD DUP1 SLOAD PUSH2 0x20AA SWAP1 PUSH2 0x4B7B JUMP JUMPDEST DUP1 PUSH1 0x1F ADD PUSH1 0x20 DUP1 SWAP2 DIV MUL PUSH1 0x20 ADD PUSH1 0x40 MLOAD SWAP1 DUP2 ADD PUSH1 0x40 MSTORE DUP1 SWAP3 SWAP2 SWAP1 DUP2 DUP2 MSTORE PUSH1 0x20 ADD DUP3 DUP1 SLOAD PUSH2 0x20D6 SWAP1 PUSH2 0x4B7B JUMP JUMPDEST DUP1 ISZERO PUSH2 0x2121 JUMPI DUP1 PUSH1 0x1F LT PUSH2 0x20F8 JUMPI PUSH2 0x100 DUP1 DUP4 SLOAD DIV MUL DUP4 MSTORE SWAP2 PUSH1 0x20 ADD SWAP2 PUSH2 0x2121 JUMP JUMPDEST DUP3 ADD SWAP2 SWAP1 PUSH0 MSTORE PUSH1 0x20 PUSH0 KECCAK256 SWAP1 JUMPDEST DUP2 SLOAD DUP2 MSTORE SWAP1 PUSH1 0x1 ADD SWAP1 PUSH1 0x20 ADD DUP1 DUP4 GT PUSH2 0x2104 JUMPI DUP3 SWAP1 SUB PUSH1 0x1F AND DUP3 ADD SWAP2 JUMPDEST POP POP POP POP POP DUP2 MSTORE POP POP SWAP1 POP SWAP2 SWAP1 POP JUMP JUMPDEST CALLER PUSH0 SWAP1 DUP2 MSTORE PUSH1 0x6 PUSH1 0x20 MSTORE PUSH1 0x40 DUP2 KECCAK256 SLOAD PUSH1 0xFF AND ISZERO PUSH2 0x214C JUMPI POP PUSH1 0x1 JUMPDEST CALLER PUSH0 SWAP1 DUP2 MSTORE PUSH1 0x6 PUSH1 0x20 MSTORE PUSH1 0x40 SWAP1 KECCAK256 SLOAD PUSH1 0xFF AND PUSH2 0x217A JUMPI PUSH1 0x40 MLOAD PUSH3 0x461BCD PUSH1 0xE5 SHL DUP2 MSTORE PUSH1 0x4 ADD PUSH2 0x5D4 SWAP1 PUSH2 0x4A35 JUMP JUMPDEST PUSH1 0x1 PUSH1 0x1 PUSH1 0xA0 SHL SUB DUP1 DUP9 AND PUSH0 DUP2 DUP2 MSTORE PUSH1 0x2 PUSH1 0x20 DUP2 SWAP1 MSTORE PUSH1 0x40 SWAP1 SWAP2 KECCAK256 ADD SLOAD SWAP1 SWAP2 AND SUB PUSH2 0x21FA JUMPI PUSH1 0x40 MLOAD PUSH3 0x461BCD PUSH1 0xE5 SHL DUP2 MSTORE PUSH1 0x20 PUSH1 0x4 DUP3 ADD MSTORE PUSH1 0x2A PUSH1 0x24 DUP3 ADD MSTORE PUSH32 0x50617469656E74277320706572736F6E616C2064657461696C7320616C726561 PUSH1 0x44 DUP3 ADD MSTORE PUSH10 0x64792065786973742121 PUSH1 0xB0 SHL PUSH1 0x64 DUP3 ADD MSTORE PUSH1 0x84 ADD PUSH2 0x5D4 JUMP JUMPDEST PUSH1 0x1 PUSH1 0x1 PUSH1 0xA0 SHL SUB DUP8 AND ISZERO DUP1 ISZERO SWAP1 PUSH2 0x2212 JUMPI POP PUSH0 DUP7 MLOAD GT JUMPDEST DUP1 ISZERO PUSH2 0x221E JUMPI POP PUSH0 DUP6 MLOAD GT JUMPDEST PUSH2 0x223A JUMPI PUSH1 0x40 MLOAD PUSH3 0x461BCD PUSH1 0xE5 SHL DUP2 MSTORE PUSH1 0x4 ADD PUSH2 0x5D4 SWAP1 PUSH2 0x4A9D JUMP JUMPDEST PUSH1 0x40 DUP1 MLOAD PUSH2 0x100 DUP2 ADD DUP3 MSTORE DUP11 DUP2 MSTORE PUSH1 0x20 DUP1 DUP3 ADD DUP12 SWAP1 MSTORE PUSH1 0x1 PUSH1 0x1 PUSH1 0xA0 SHL SUB DUP11 AND DUP3 DUP5 ADD DUP2 SWAP1 MSTORE PUSH1 0x60 DUP4 ADD DUP11 SWAP1 MSTORE PUSH1 0x80 DUP4 ADD DUP10 SWAP1 MSTORE PUSH1 0xA0 DUP4 ADD DUP9 SWAP1 MSTORE PUSH1 0xC0 DUP4 ADD DUP8 SWAP1 MSTORE PUSH1 0xE0 DUP4 ADD DUP7 SWAP1 MSTORE PUSH0 SWAP1 DUP2 MSTORE PUSH1 0x2 SWAP1 SWAP2 MSTORE SWAP2 SWAP1 SWAP2 KECCAK256 DUP2 MLOAD DUP6 SWAP3 SWAP2 SWAP1 DUP2 SWAP1 PUSH2 0x22A2 SWAP1 DUP3 PUSH2 0x4BFD JUMP JUMPDEST POP PUSH1 0x20 DUP3 ADD MLOAD PUSH1 0x1 DUP3 ADD SWAP1 PUSH2 0x22B7 SWAP1 DUP3 PUSH2 0x4BFD JUMP JUMPDEST POP PUSH1 0x40 DUP3 ADD MLOAD PUSH1 0x2 DUP3 ADD DUP1 SLOAD PUSH1 0x1 PUSH1 0x1 PUSH1 0xA0 SHL SUB NOT AND PUSH1 0x1 PUSH1 0x1 PUSH1 0xA0 SHL SUB SWAP1 SWAP3 AND SWAP2 SWAP1 SWAP2 OR SWAP1 SSTORE PUSH1 0x60 DUP3 ADD MLOAD PUSH1 0x3 DUP3 ADD SWAP1 PUSH2 0x22F2 SWAP1 DUP3 PUSH2 0x4BFD JUMP JUMPDEST POP PUSH1 0x80 DUP3 ADD MLOAD PUSH1 0x4 DUP3 ADD SWAP1 PUSH2 0x2307 SWAP1 DUP3 PUSH2 0x4BFD JUMP JUMPDEST POP PUSH1 0xA0 DUP3 ADD MLOAD PUSH1 0x5 DUP3 ADD SWAP1 PUSH2 0x231C SWAP1 DUP3 PUSH2 0x4BFD JUMP JUMPDEST POP PUSH1 0xC0 DUP3 ADD MLOAD PUSH1 0x6 DUP3 ADD SSTORE PUSH1 0xE0 SWAP1 SWAP2 ADD MLOAD PUSH1 0x7 SWAP1 SWAP2 ADD SSTORE PUSH1 0x1 PUSH1 0x1 PUSH1 0xA0 SHL SUB DUP1 DUP10 AND PUSH0 DUP2 DUP2 MSTORE PUSH1 0x3 PUSH1 0x20 MSTORE PUSH1 0x40 SWAP1 KECCAK256 PUSH1 0x1 ADD SLOAD SWAP1 SWAP2 AND SUB PUSH2 0xB37 JUMPI PUSH1 0xB DUP1 SLOAD SWAP1 PUSH0 PUSH2 0x2366 DUP4 PUSH2 0x4DDA JUMP JUMPDEST SWAP2 SWAP1 POP SSTORE POP POP POP POP POP POP POP POP POP POP POP JUMP JUMPDEST PUSH1 0x40 DUP1 MLOAD DUP1 DUP3 ADD DUP3 MSTORE TIMESTAMP DUP2 MSTORE PUSH1 0x20 DUP1 DUP3 ADD DUP6 DUP2 MSTORE PUSH1 0x1 PUSH1 0x1 PUSH1 0xA0 SHL SUB DUP6 AND PUSH0 SWAP1 DUP2 MSTORE PUSH1 0x5 DUP4 MSTORE SWAP4 DUP5 KECCAK256 DUP1 SLOAD PUSH1 0x1 DUP2 DUP2 ADD DUP4 SSTORE SWAP2 DUP7 MSTORE SWAP3 SWAP1 SWAP5 KECCAK256 DUP4 MLOAD PUSH1 0x2 SWAP1 SWAP4 MUL ADD SWAP2 DUP3 SSTORE MLOAD SWAP2 SWAP3 DUP4 SWAP3 SWAP1 DUP3 ADD SWAP1 PUSH2 0x23CE SWAP1 DUP3 PUSH2 0x4BFD JUMP JUMPDEST POP POP POP POP POP POP JUMP JUMPDEST CALLER PUSH0 DUP2 DUP2 MSTORE PUSH1 0x2 PUSH1 0x20 DUP2 SWAP1 MSTORE PUSH1 0x40 SWAP1 SWAP2 KECCAK256 ADD SLOAD PUSH1 0x60 SWAP2 PUSH1 0x1 PUSH1 0x1 PUSH1 0xA0 SHL SUB SWAP1 SWAP2 AND EQ DUP1 PUSH2 0x241B JUMPI POP CALLER PUSH0 DUP2 DUP2 MSTORE PUSH1 0x3 PUSH1 0x20 MSTORE PUSH1 0x40 SWAP1 KECCAK256 PUSH1 0x1 ADD SLOAD PUSH1 0x1 PUSH1 0x1 PUSH1 0xA0 SHL SUB AND EQ JUMPDEST DUP1 PUSH2 0x2434 JUMPI POP CALLER PUSH0 SWAP1 DUP2 MSTORE PUSH1 0x6 PUSH1 0x20 MSTORE PUSH1 0x40 SWAP1 KECCAK256 SLOAD PUSH1 0xFF AND JUMPDEST DUP1 PUSH2 0x244D JUMPI POP CALLER PUSH0 SWAP1 DUP2 MSTORE PUSH1 0x20 DUP2 SWAP1 MSTORE PUSH1 0x40 SWAP1 KECCAK256 SLOAD PUSH1 0xFF AND JUMPDEST DUP1 PUSH2 0x2462 JUMPI POP PUSH1 0x1 SLOAD PUSH1 0x1 PUSH1 0x1 PUSH1 0xA0 SHL SUB AND CALLER EQ JUMPDEST PUSH2 0x247E JUMPI PUSH1 0x40 MLOAD PUSH3 0x461BCD PUSH1 0xE5 SHL DUP2 MSTORE PUSH1 0x4 ADD PUSH2 0x5D4 SWAP1 PUSH2 0x4EF1 JUMP JUMPDEST PUSH1 0x1 PUSH1 0x1 PUSH1 0xA0 SHL SUB DUP3 AND PUSH0 SWAP1 DUP2 MSTORE PUSH1 0x4 PUSH1 0x20 SWAP1 DUP2 MSTORE PUSH1 0x40 DUP1 DUP4 KECCAK256 DUP1 SLOAD DUP3 MLOAD DUP2 DUP6 MUL DUP2 ADD DUP6 ADD SWAP1 SWAP4 MSTORE DUP1 DUP4 MSTORE SWAP2 SWAP4 SWAP1 SWAP3 DUP5 ADD JUMPDEST DUP3 DUP3 LT ISZERO PUSH2 0x12C3 JUMPI DUP4 DUP3 SWAP1 PUSH0 MSTORE PUSH1 0x20 PUSH0 KECCAK256 SWAP1 PUSH1 0x8 MUL ADD PUSH1 0x40 MLOAD DUP1 PUSH2 0x100 ADD PUSH1 0x40 MSTORE SWAP1 DUP2 PUSH0 DUP3 ADD DUP1 SLOAD PUSH2 0x24E1 SWAP1 PUSH2 0x4B7B JUMP JUMPDEST DUP1 PUSH1 0x1F ADD PUSH1 0x20 DUP1 SWAP2 DIV MUL PUSH1 0x20 ADD PUSH1 0x40 MLOAD SWAP1 DUP2 ADD PUSH1 0x40 MSTORE DUP1 SWAP3 SWAP2 SWAP1 DUP2 DUP2 MSTORE PUSH1 0x20 ADD DUP3 DUP1 SLOAD PUSH2 0x250D SWAP1 PUSH2 0x4B7B JUMP JUMPDEST DUP1 ISZERO PUSH2 0x2558 JUMPI DUP1 PUSH1 0x1F LT PUSH2 0x252F JUMPI PUSH2 0x100 DUP1 DUP4 SLOAD DIV MUL DUP4 MSTORE SWAP2 PUSH1 0x20 ADD SWAP2 PUSH2 0x2558 JUMP JUMPDEST DUP3 ADD SWAP2 SWAP1 PUSH0 MSTORE PUSH1 0x20 PUSH0 KECCAK256 SWAP1 JUMPDEST DUP2 SLOAD DUP2 MSTORE SWAP1 PUSH1 0x1 ADD SWAP1 PUSH1 0x20 ADD DUP1 DUP4 GT PUSH2 0x253B JUMPI DUP3 SWAP1 SUB PUSH1 0x1F AND DUP3 ADD SWAP2 JUMPDEST POP POP POP SWAP2 DUP4 MSTORE POP POP PUSH1 0x1 DUP3 ADD SLOAD PUSH1 0x1 PUSH1 0x1 PUSH1 0xA0 SHL SUB SWAP1 DUP2 AND PUSH1 0x20 DUP4 ADD MSTORE PUSH1 0x2 DUP4 ADD SLOAD AND PUSH1 0x40 DUP3 ADD MSTORE PUSH1 0x3 DUP3 ADD DUP1 SLOAD PUSH1 0x60 SWAP1 SWAP3 ADD SWAP2 PUSH2 0x2595 SWAP1 PUSH2 0x4B7B JUMP JUMPDEST DUP1 PUSH1 0x1F ADD PUSH1 0x20 DUP1 SWAP2 DIV MUL PUSH1 0x20 ADD PUSH1 0x40 MLOAD SWAP1 DUP2 ADD PUSH1 0x40 MSTORE DUP1 SWAP3 SWAP2 SWAP1 DUP2 DUP2 MSTORE PUSH1 0x20 ADD DUP3 DUP1 SLOAD PUSH2 0x25C1 SWAP1 PUSH2 0x4B7B JUMP JUMPDEST DUP1 ISZERO PUSH2 0x260C JUMPI DUP1 PUSH1 0x1F LT PUSH2 0x25E3 JUMPI PUSH2 0x100 DUP1 DUP4 SLOAD DIV MUL DUP4 MSTORE SWAP2 PUSH1 0x20 ADD SWAP2 PUSH2 0x260C JUMP JUMPDEST DUP3 ADD SWAP2 SWAP1 PUSH0 MSTORE PUSH1 0x20 PUSH0 KECCAK256 SWAP1 JUMPDEST DUP2 SLOAD DUP2 MSTORE SWAP1 PUSH1 0x1 ADD SWAP1 PUSH1 0x20 ADD DUP1 DUP4 GT PUSH2 0x25EF JUMPI DUP3 SWAP1 SUB PUSH1 0x1F AND DUP3 ADD SWAP2 JUMPDEST POP POP POP POP POP DUP2 MSTORE PUSH1 0x20 ADD PUSH1 0x4 DUP3 ADD DUP1 SLOAD PUSH2 0x2625 SWAP1 PUSH2 0x4B7B JUMP JUMPDEST DUP1 PUSH1 0x1F ADD PUSH1 0x20 DUP1 SWAP2 DIV MUL PUSH1 0x20 ADD PUSH1 0x40 MLOAD SWAP1 DUP2 ADD PUSH1 0x40 MSTORE DUP1 SWAP3 SWAP2 SWAP1 DUP2 DUP2 MSTORE PUSH1 0x20 ADD DUP3 DUP1 SLOAD PUSH2 0x2651 SWAP1 PUSH2 0x4B7B JUMP JUMPDEST DUP1 ISZERO PUSH2 0x269C JUMPI DUP1 PUSH1 0x1F LT PUSH2 0x2673 JUMPI PUSH2 0x100 DUP1 DUP4 SLOAD DIV MUL DUP4 MSTORE SWAP2 PUSH1 0x20 ADD SWAP2 PUSH2 0x269C JUMP JUMPDEST DUP3 ADD SWAP2 SWAP1 PUSH0 MSTORE PUSH1 0x20 PUSH0 KECCAK256 SWAP1 JUMPDEST DUP2 SLOAD DUP2 MSTORE SWAP1 PUSH1 0x1 ADD SWAP1 PUSH1 0x20 ADD DUP1 DUP4 GT PUSH2 0x267F JUMPI DUP3 SWAP1 SUB PUSH1 0x1F AND DUP3 ADD SWAP2 JUMPDEST POP POP POP POP POP DUP2 MSTORE PUSH1 0x20 ADD PUSH1 0x5 DUP3 ADD DUP1 SLOAD PUSH2 0x26B5 SWAP1 PUSH2 0x4B7B JUMP JUMPDEST DUP1 PUSH1 0x1F ADD PUSH1 0x20 DUP1 SWAP2 DIV MUL PUSH1 0x20 ADD PUSH1 0x40 MLOAD SWAP1 DUP2 ADD PUSH1 0x40 MSTORE DUP1 SWAP3 SWAP2 SWAP1 DUP2 DUP2 MSTORE PUSH1 0x20 ADD DUP3 DUP1 SLOAD PUSH2 0x26E1 SWAP1 PUSH2 0x4B7B JUMP JUMPDEST DUP1 ISZERO PUSH2 0x272C JUMPI DUP1 PUSH1 0x1F LT PUSH2 0x2703 JUMPI PUSH2 0x100 DUP1 DUP4 SLOAD DIV MUL DUP4 MSTORE SWAP2 PUSH1 0x20 ADD SWAP2 PUSH2 0x272C JUMP JUMPDEST DUP3 ADD SWAP2 SWAP1 PUSH0 MSTORE PUSH1 0x20 PUSH0 KECCAK256 SWAP1 JUMPDEST DUP2 SLOAD DUP2 MSTORE SWAP1 PUSH1 0x1 ADD SWAP1 PUSH1 0x20 ADD DUP1 DUP4 GT PUSH2 0x270F JUMPI DUP3 SWAP1 SUB PUSH1 0x1F AND DUP3 ADD SWAP2 JUMPDEST POP POP POP POP POP DUP2 MSTORE PUSH1 0x20 ADD PUSH1 0x6 DUP3 ADD DUP1 SLOAD PUSH2 0x2745 SWAP1 PUSH2 0x4B7B JUMP JUMPDEST DUP1 PUSH1 0x1F ADD PUSH1 0x20 DUP1 SWAP2 DIV MUL PUSH1 0x20 ADD PUSH1 0x40 MLOAD SWAP1 DUP2 ADD PUSH1 0x40 MSTORE DUP1 SWAP3 SWAP2 SWAP1 DUP2 DUP2 MSTORE PUSH1 0x20 ADD DUP3 DUP1 SLOAD PUSH2 0x2771 SWAP1 PUSH2 0x4B7B JUMP JUMPDEST DUP1 ISZERO PUSH2 0x27BC JUMPI DUP1 PUSH1 0x1F LT PUSH2 0x2793 JUMPI PUSH2 0x100 DUP1 DUP4 SLOAD DIV MUL DUP4 MSTORE SWAP2 PUSH1 0x20 ADD SWAP2 PUSH2 0x27BC JUMP JUMPDEST DUP3 ADD SWAP2 SWAP1 PUSH0 MSTORE PUSH1 0x20 PUSH0 KECCAK256 SWAP1 JUMPDEST DUP2 SLOAD DUP2 MSTORE SWAP1 PUSH1 0x1 ADD SWAP1 PUSH1 0x20 ADD DUP1 DUP4 GT PUSH2 0x279F JUMPI DUP3 SWAP1 SUB PUSH1 0x1F AND DUP3 ADD SWAP2 JUMPDEST POP POP POP POP POP DUP2 MSTORE PUSH1 0x20 ADD PUSH1 0x7 DUP3 ADD DUP1 SLOAD PUSH2 0x27D5 SWAP1 PUSH2 0x4B7B JUMP JUMPDEST DUP1 PUSH1 0x1F ADD PUSH1 0x20 DUP1 SWAP2 DIV MUL PUSH1 0x20 ADD PUSH1 0x40 MLOAD SWAP1 DUP2 ADD PUSH1 0x40 MSTORE DUP1 SWAP3 SWAP2 SWAP1 DUP2 DUP2 MSTORE PUSH1 0x20 ADD DUP3 DUP1 SLOAD PUSH2 0x2801 SWAP1 PUSH2 0x4B7B JUMP JUMPDEST DUP1 ISZERO PUSH2 0x284C JUMPI DUP1 PUSH1 0x1F LT PUSH2 0x2823 JUMPI PUSH2 0x100 DUP1 DUP4 SLOAD DIV MUL DUP4 MSTORE SWAP2 PUSH1 0x20 ADD SWAP2 PUSH2 0x284C JUMP JUMPDEST DUP3 ADD SWAP2 SWAP1 PUSH0 MSTORE PUSH1 0x20 PUSH0 KECCAK256 SWAP1 JUMPDEST DUP2 SLOAD DUP2 MSTORE SWAP1 PUSH1 0x1 ADD SWAP1 PUSH1 0x20 ADD DUP1 DUP4 GT PUSH2 0x282F JUMPI DUP3 SWAP1 SUB PUSH1 0x1F AND DUP3 ADD SWAP2 JUMPDEST POP POP POP POP POP DUP2 MSTORE POP POP DUP2 MSTORE PUSH1 0x20 ADD SWAP1 PUSH1 0x1 ADD SWAP1 PUSH2 0x24B0 JUMP JUMPDEST PUSH1 0x8 PUSH1 0x20 MSTORE PUSH0 SWAP1 DUP2 MSTORE PUSH1 0x40 SWAP1 KECCAK256 DUP1 SLOAD PUSH1 0x1 DUP3 ADD DUP1 SLOAD PUSH1 0x1 PUSH1 0x1 PUSH1 0xA0 SHL SUB SWAP1 SWAP3 AND SWAP3 SWAP2 PUSH2 0x288F SWAP1 PUSH2 0x4B7B JUMP JUMPDEST DUP1 PUSH1 0x1F ADD PUSH1 0x20 DUP1 SWAP2 DIV MUL PUSH1 0x20 ADD PUSH1 0x40 MLOAD SWAP1 DUP2 ADD PUSH1 0x40 MSTORE DUP1 SWAP3 SWAP2 SWAP1 DUP2 DUP2 MSTORE PUSH1 0x20 ADD DUP3 DUP1 SLOAD PUSH2 0x28BB SWAP1 PUSH2 0x4B7B JUMP JUMPDEST DUP1 ISZERO PUSH2 0x2906 JUMPI DUP1 PUSH1 0x1F LT PUSH2 0x28DD JUMPI PUSH2 0x100 DUP1 DUP4 SLOAD DIV MUL DUP4 MSTORE SWAP2 PUSH1 0x20 ADD SWAP2 PUSH2 0x2906 JUMP JUMPDEST DUP3 ADD SWAP2 SWAP1 PUSH0 MSTORE PUSH1 0x20 PUSH0 KECCAK256 SWAP1 JUMPDEST DUP2 SLOAD DUP2 MSTORE SWAP1 PUSH1 0x1 ADD SWAP1 PUSH1 0x20 ADD DUP1 DUP4 GT PUSH2 0x28E9 JUMPI DUP3 SWAP1 SUB PUSH1 0x1F AND DUP3 ADD SWAP2 JUMPDEST POP POP POP POP POP SWAP1 DUP1 PUSH1 0x2 ADD DUP1 SLOAD PUSH2 0x291B SWAP1 PUSH2 0x4B7B JUMP JUMPDEST DUP1 PUSH1 0x1F ADD PUSH1 0x20 DUP1 SWAP2 DIV MUL PUSH1 0x20 ADD PUSH1 0x40 MLOAD SWAP1 DUP2 ADD PUSH1 0x40 MSTORE DUP1 SWAP3 SWAP2 SWAP1 DUP2 DUP2 MSTORE PUSH1 0x20 ADD DUP3 DUP1 SLOAD PUSH2 0x2947 SWAP1 PUSH2 0x4B7B JUMP JUMPDEST DUP1 ISZERO PUSH2 0x2992 JUMPI DUP1 PUSH1 0x1F LT PUSH2 0x2969 JUMPI PUSH2 0x100 DUP1 DUP4 SLOAD DIV MUL DUP4 MSTORE SWAP2 PUSH1 0x20 ADD SWAP2 PUSH2 0x2992 JUMP JUMPDEST DUP3 ADD SWAP2 SWAP1 PUSH0 MSTORE PUSH1 0x20 PUSH0 KECCAK256 SWAP1 JUMPDEST DUP2 SLOAD DUP2 MSTORE SWAP1 PUSH1 0x1 ADD SWAP1 PUSH1 0x20 ADD DUP1 DUP4 GT PUSH2 0x2975 JUMPI DUP3 SWAP1 SUB PUSH1 0x1F AND DUP3 ADD SWAP2 JUMPDEST POP POP POP POP POP SWAP1 DUP1 PUSH1 0x3 ADD DUP1 SLOAD PUSH2 0x29A7 SWAP1 PUSH2 0x4B7B JUMP JUMPDEST DUP1 PUSH1 0x1F ADD PUSH1 0x20 DUP1 SWAP2 DIV MUL PUSH1 0x20 ADD PUSH1 0x40 MLOAD SWAP1 DUP2 ADD PUSH1 0x40 MSTORE DUP1 SWAP3 SWAP2 SWAP1 DUP2 DUP2 MSTORE PUSH1 0x20 ADD DUP3 DUP1 SLOAD PUSH2 0x29D3 SWAP1 PUSH2 0x4B7B JUMP JUMPDEST DUP1 ISZERO PUSH2 0x2A1E JUMPI DUP1 PUSH1 0x1F LT PUSH2 0x29F5 JUMPI PUSH2 0x100 DUP1 DUP4 SLOAD DIV MUL DUP4 MSTORE SWAP2 PUSH1 0x20 ADD SWAP2 PUSH2 0x2A1E JUMP JUMPDEST DUP3 ADD SWAP2 SWAP1 PUSH0 MSTORE PUSH1 0x20 PUSH0 KECCAK256 SWAP1 JUMPDEST DUP2 SLOAD DUP2 MSTORE SWAP1 PUSH1 0x1 ADD SWAP1 PUSH1 0x20 ADD DUP1 DUP4 GT PUSH2 0x2A01 JUMPI DUP3 SWAP1 SUB PUSH1 0x1F AND DUP3 ADD SWAP2 JUMPDEST POP POP POP POP POP SWAP1 DUP1 PUSH1 0x4 ADD SLOAD SWAP1 POP DUP6 JUMP JUMPDEST CALLER PUSH0 SWAP1 DUP2 MSTORE PUSH1 0x6 PUSH1 0x20 MSTORE PUSH1 0x40 DUP2 KECCAK256 SLOAD PUSH1 0xFF AND ISZERO PUSH2 0x2A49 JUMPI POP PUSH1 0x1 JUMPDEST CALLER PUSH0 SWAP1 DUP2 MSTORE PUSH1 0x6 PUSH1 0x20 MSTORE PUSH1 0x40 SWAP1 KECCAK256 SLOAD PUSH1 0xFF AND PUSH2 0x2A77 JUMPI PUSH1 0x40 MLOAD PUSH3 0x461BCD PUSH1 0xE5 SHL DUP2 MSTORE PUSH1 0x4 ADD PUSH2 0x5D4 SWAP1 PUSH2 0x4A35 JUMP JUMPDEST PUSH1 0x1 PUSH1 0x1 PUSH1 0xA0 SHL SUB DUP1 DUP10 AND PUSH0 DUP2 DUP2 MSTORE PUSH1 0x2 PUSH1 0x20 DUP2 SWAP1 MSTORE PUSH1 0x40 SWAP1 SWAP2 KECCAK256 ADD SLOAD SWAP1 SWAP2 AND EQ DUP1 ISZERO PUSH2 0x2AC0 JUMPI POP PUSH1 0x1 PUSH1 0x1 PUSH1 0xA0 SHL SUB DUP1 DUP10 AND PUSH0 DUP2 DUP2 MSTORE PUSH1 0x3 PUSH1 0x20 MSTORE PUSH1 0x40 SWAP1 KECCAK256 PUSH1 0x1 ADD SLOAD SWAP1 SWAP2 AND EQ JUMPDEST PUSH2 0x2BA4 JUMPI PUSH1 0x40 MLOAD PUSH3 0x461BCD PUSH1 0xE5 SHL DUP2 MSTORE PUSH1 0x20 PUSH1 0x4 DUP3 ADD MSTORE PUSH1 0x99 PUSH1 0x24 DUP3 ADD MSTORE PUSH32 0x496E636F72726563742050617469656E742077616C6C65742061646472657373 PUSH1 0x44 DUP3 ADD MSTORE PUSH32 0x206F72205468652050617469656E742064657461696C20737065636966696320 PUSH1 0x64 DUP3 ADD MSTORE PUSH32 0x746F20706572736F6E616C206F722070617374206D65646963616C2068697374 PUSH1 0x84 DUP3 ADD MSTORE PUSH32 0x6F7279206F662074686520616464726573732070726F7669646564206E6F7420 PUSH1 0xA4 DUP3 ADD MSTORE PUSH32 0x617661696C61626C6520696E2074686520636861696E21212000000000000000 PUSH1 0xC4 DUP3 ADD MSTORE PUSH1 0xE4 ADD PUSH2 0x5D4 JUMP JUMPDEST PUSH1 0x1 PUSH1 0x1 PUSH1 0xA0 SHL SUB DUP9 DUP2 AND PUSH0 SWAP1 DUP2 MSTORE PUSH1 0x7 PUSH1 0x20 MSTORE PUSH1 0x40 SWAP1 KECCAK256 PUSH1 0x1 ADD SLOAD DUP2 AND SWAP1 DUP9 AND EQ PUSH2 0x2C78 JUMPI PUSH1 0x40 MLOAD PUSH3 0x461BCD PUSH1 0xE5 SHL DUP2 MSTORE PUSH1 0x20 PUSH1 0x4 DUP3 ADD MSTORE PUSH1 0x71 PUSH1 0x24 DUP3 ADD MSTORE PUSH32 0x496E636F72726563742050687973696369616E2077616C6C6574206164647265 PUSH1 0x44 DUP3 ADD MSTORE PUSH32 0x7373206F72205468652050687973696369616E2064657461696C20666F722074 PUSH1 0x64 DUP3 ADD MSTORE PUSH32 0x686520616464726573732070726F7669646564206E6F7420617661696C61626C PUSH1 0x84 DUP3 ADD MSTORE PUSH17 0x329034B7103A34329031B430B4B710909 PUSH1 0x7D SHL PUSH1 0xA4 DUP3 ADD MSTORE PUSH1 0xC4 ADD PUSH2 0x5D4 JUMP JUMPDEST PUSH1 0x1 PUSH1 0x1 PUSH1 0xA0 SHL SUB DUP1 DUP10 AND PUSH0 DUP2 DUP2 MSTORE PUSH1 0x4 PUSH1 0x20 SWAP1 DUP2 MSTORE PUSH1 0x40 DUP1 DUP4 KECCAK256 DUP2 MLOAD PUSH2 0x100 DUP2 ADD DUP4 MSTORE DUP16 DUP2 MSTORE DUP1 DUP5 ADD SWAP6 SWAP1 SWAP6 MSTORE SWAP5 DUP13 AND SWAP1 DUP5 ADD MSTORE PUSH1 0x60 DUP4 ADD DUP11 SWAP1 MSTORE PUSH1 0x80 DUP4 ADD DUP10 SWAP1 MSTORE PUSH1 0xA0 DUP4 ADD DUP9 SWAP1 MSTORE PUSH1 0xC0 DUP4 ADD DUP8 SWAP1 MSTORE PUSH1 0xE0 DUP4 ADD DUP7 SWAP1 MSTORE DUP4 SLOAD PUSH1 0x1 DUP2 ADD DUP6 SSTORE SWAP4 DUP3 MSTORE SWAP1 KECCAK256 DUP2 MLOAD SWAP2 SWAP3 PUSH1 0x8 MUL ADD SWAP1 DUP2 SWAP1 PUSH2 0x2CF2 SWAP1 DUP3 PUSH2 0x4BFD JUMP JUMPDEST POP PUSH1 0x20 DUP3 ADD MLOAD PUSH1 0x1 DUP3 ADD DUP1 SLOAD PUSH1 0x1 PUSH1 0x1 PUSH1 0xA0 SHL SUB SWAP3 DUP4 AND PUSH1 0x1 PUSH1 0x1 PUSH1 0xA0 SHL SUB NOT SWAP2 DUP3 AND OR SWAP1 SWAP2 SSTORE PUSH1 0x40 DUP5 ADD MLOAD PUSH1 0x2 DUP5 ADD DUP1 SLOAD SWAP2 SWAP1 SWAP4 AND SWAP2 AND OR SWAP1 SSTORE PUSH1 0x60 DUP3 ADD MLOAD PUSH1 0x3 DUP3 ADD SWAP1 PUSH2 0x2D41 SWAP1 DUP3 PUSH2 0x4BFD JUMP JUMPDEST POP PUSH1 0x80 DUP3 ADD MLOAD PUSH1 0x4 DUP3 ADD SWAP1 PUSH2 0x2D56 SWAP1 DUP3 PUSH2 0x4BFD JUMP JUMPDEST POP PUSH1 0xA0 DUP3 ADD MLOAD PUSH1 0x5 DUP3 ADD SWAP1 PUSH2 0x2D6B SWAP1 DUP3 PUSH2 0x4BFD JUMP JUMPDEST POP PUSH1 0xC0 DUP3 ADD MLOAD PUSH1 0x6 DUP3 ADD SWAP1 PUSH2 0x2D80 SWAP1 DUP3 PUSH2 0x4BFD JUMP JUMPDEST POP PUSH1 0xE0 DUP3 ADD MLOAD PUSH1 0x7 DUP3 ADD SWAP1 PUSH2 0x101C SWAP1 DUP3 PUSH2 0x4BFD JUMP JUMPDEST PUSH2 0x2DE3 PUSH1 0x40 MLOAD DUP1 PUSH2 0x100 ADD PUSH1 0x40 MSTORE DUP1 PUSH1 0x60 DUP2 MSTORE PUSH1 0x20 ADD PUSH1 0x60 DUP2 MSTORE PUSH1 0x20 ADD PUSH0 PUSH1 0x1 PUSH1 0x1 PUSH1 0xA0 SHL SUB AND DUP2 MSTORE PUSH1 0x20 ADD PUSH1 0x60 DUP2 MSTORE PUSH1 0x20 ADD PUSH1 0x60 DUP2 MSTORE PUSH1 0x20 ADD PUSH1 0x60 DUP2 MSTORE PUSH1 0x20 ADD PUSH0 DUP2 MSTORE PUSH1 0x20 ADD PUSH0 DUP2 MSTORE POP SWAP1 JUMP JUMPDEST PUSH2 0x2E36 PUSH1 0x40 MLOAD DUP1 PUSH2 0x100 ADD PUSH1 0x40 MSTORE DUP1 PUSH1 0x60 DUP2 MSTORE PUSH1 0x20 ADD PUSH0 PUSH1 0x1 PUSH1 0x1 PUSH1 0xA0 SHL SUB AND DUP2 MSTORE PUSH1 0x20 ADD PUSH0 ISZERO ISZERO DUP2 MSTORE PUSH1 0x20 ADD PUSH0 ISZERO ISZERO DUP2 MSTORE PUSH1 0x20 ADD PUSH0 ISZERO ISZERO DUP2 MSTORE PUSH1 0x20 ADD PUSH1 0x60 DUP2 MSTORE PUSH1 0x20 ADD PUSH1 0x60 DUP2 MSTORE PUSH1 0x20 ADD PUSH1 0x60 DUP2 MSTORE POP SWAP1 JUMP JUMPDEST CALLER PUSH0 DUP2 DUP2 MSTORE PUSH1 0x2 PUSH1 0x20 DUP2 SWAP1 MSTORE PUSH1 0x40 SWAP1 SWAP2 KECCAK256 ADD SLOAD PUSH1 0x1 PUSH1 0x1 PUSH1 0xA0 SHL SUB AND EQ DUP1 PUSH2 0x2E76 JUMPI POP CALLER PUSH0 DUP2 DUP2 MSTORE PUSH1 0x3 PUSH1 0x20 MSTORE PUSH1 0x40 SWAP1 KECCAK256 PUSH1 0x1 ADD SLOAD PUSH1 0x1 PUSH1 0x1 PUSH1 0xA0 SHL SUB AND EQ JUMPDEST DUP1 PUSH2 0x2E8F JUMPI POP CALLER PUSH0 SWAP1 DUP2 MSTORE PUSH1 0x6 PUSH1 0x20 MSTORE PUSH1 0x40 SWAP1 KECCAK256 SLOAD PUSH1 0xFF AND JUMPDEST DUP1 PUSH2 0x2EA8 JUMPI POP CALLER PUSH0 SWAP1 DUP2 MSTORE PUSH1 0x20 DUP2 SWAP1 MSTORE PUSH1 0x40 SWAP1 KECCAK256 SLOAD PUSH1 0xFF AND JUMPDEST DUP1 PUSH2 0x2EBD JUMPI POP PUSH1 0x1 SLOAD PUSH1 0x1 PUSH1 0x1 PUSH1 0xA0 SHL SUB AND CALLER EQ JUMPDEST PUSH2 0x2ED9 JUMPI PUSH1 0x40 MLOAD PUSH3 0x461BCD PUSH1 0xE5 SHL DUP2 MSTORE PUSH1 0x4 ADD PUSH2 0x5D4 SWAP1 PUSH2 0x4EF1 JUMP JUMPDEST PUSH1 0x1 PUSH1 0x1 PUSH1 0xA0 SHL SUB DUP4 AND PUSH2 0x2EFF JUMPI PUSH1 0x40 MLOAD PUSH3 0x461BCD PUSH1 0xE5 SHL DUP2 MSTORE PUSH1 0x4 ADD PUSH2 0x5D4 SWAP1 PUSH2 0x4E11 JUMP JUMPDEST PUSH1 0x1 PUSH1 0x1 PUSH1 0xA0 SHL SUB DUP1 DUP5 AND PUSH0 DUP2 DUP2 MSTORE PUSH1 0x2 PUSH1 0x20 DUP2 SWAP1 MSTORE PUSH1 0x40 SWAP1 SWAP2 KECCAK256 ADD SLOAD SWAP1 SWAP2 AND EQ DUP1 ISZERO PUSH2 0x2F48 JUMPI POP PUSH1 0x1 PUSH1 0x1 PUSH1 0xA0 SHL SUB DUP1 DUP5 AND PUSH0 DUP2 DUP2 MSTORE PUSH1 0x3 PUSH1 0x20 MSTORE PUSH1 0x40 SWAP1 KECCAK256 PUSH1 0x1 ADD SLOAD SWAP1 SWAP2 AND EQ JUMPDEST PUSH2 0x3006 JUMPI PUSH1 0x40 MLOAD PUSH3 0x461BCD PUSH1 0xE5 SHL DUP2 MSTORE PUSH1 0x20 PUSH1 0x4 DUP3 ADD MSTORE PUSH1 0x79 PUSH1 0x24 DUP3 ADD MSTORE PUSH32 0x496E636F72726563742050617469656E742077616C6C65742061646472657373 PUSH1 0x44 DUP3 ADD MSTORE PUSH32 0x206F72205468652050617469656E742064657461696C20666F72207468652061 PUSH1 0x64 DUP3 ADD MSTORE PUSH32 0x6464726573732070726F7669646564206973206E6F7420636F6D706C65746C79 PUSH1 0x84 DUP3 ADD MSTORE PUSH32 0x20617661696C61626C6520696E2074686520636861696E212100000000000000 PUSH1 0xA4 DUP3 ADD MSTORE PUSH1 0xC4 ADD PUSH2 0x5D4 JUMP JUMPDEST PUSH1 0x1 PUSH1 0x1 PUSH1 0xA0 SHL SUB DUP4 AND PUSH0 SWAP1 DUP2 MSTORE PUSH1 0x2 PUSH1 0x20 SWAP1 DUP2 MSTORE PUSH1 0x40 DUP1 DUP4 KECCAK256 PUSH1 0x3 SWAP1 SWAP3 MSTORE SWAP2 DUP3 SWAP1 KECCAK256 DUP3 MLOAD PUSH2 0x100 DUP2 ADD SWAP1 SWAP4 MSTORE DUP2 SLOAD SWAP2 SWAP3 SWAP1 SWAP2 DUP4 SWAP1 DUP3 SWAP1 DUP3 SWAP1 PUSH2 0x3048 SWAP1 PUSH2 0x4B7B JUMP JUMPDEST DUP1 PUSH1 0x1F ADD PUSH1 0x20 DUP1 SWAP2 DIV MUL PUSH1 0x20 ADD PUSH1 0x40 MLOAD SWAP1 DUP2 ADD PUSH1 0x40 MSTORE DUP1 SWAP3 SWAP2 SWAP1 DUP2 DUP2 MSTORE PUSH1 0x20 ADD DUP3 DUP1 SLOAD PUSH2 0x3074 SWAP1 PUSH2 0x4B7B JUMP JUMPDEST DUP1 ISZERO PUSH2 0x30BF JUMPI DUP1 PUSH1 0x1F LT PUSH2 0x3096 JUMPI PUSH2 0x100 DUP1 DUP4 SLOAD DIV MUL DUP4 MSTORE SWAP2 PUSH1 0x20 ADD SWAP2 PUSH2 0x30BF JUMP JUMPDEST DUP3 ADD SWAP2 SWAP1 PUSH0 MSTORE PUSH1 0x20 PUSH0 KECCAK256 SWAP1 JUMPDEST DUP2 SLOAD DUP2 MSTORE SWAP1 PUSH1 0x1 ADD SWAP1 PUSH1 0x20 ADD DUP1 DUP4 GT PUSH2 0x30A2 JUMPI DUP3 SWAP1 SUB PUSH1 0x1F AND DUP3 ADD SWAP2 JUMPDEST POP POP POP POP POP DUP2 MSTORE PUSH1 0x20 ADD PUSH1 0x1 DUP3 ADD DUP1 SLOAD PUSH2 0x30D8 SWAP1 PUSH2 0x4B7B JUMP JUMPDEST DUP1 PUSH1 0x1F ADD PUSH1 0x20 DUP1 SWAP2 DIV MUL PUSH1 0x20 ADD PUSH1 0x40 MLOAD SWAP1 DUP2 ADD PUSH1 0x40 MSTORE DUP1 SWAP3 SWAP2 SWAP1 DUP2 DUP2 MSTORE PUSH1 0x20 ADD DUP3 DUP1 SLOAD PUSH2 0x3104 SWAP1 PUSH2 0x4B7B JUMP JUMPDEST DUP1 ISZERO PUSH2 0x314F JUMPI DUP1 PUSH1 0x1F LT PUSH2 0x3126 JUMPI PUSH2 0x100 DUP1 DUP4 SLOAD DIV MUL DUP4 MSTORE SWAP2 PUSH1 0x20 ADD SWAP2 PUSH2 0x314F JUMP JUMPDEST DUP3 ADD SWAP2 SWAP1 PUSH0 MSTORE PUSH1 0x20 PUSH0 KECCAK256 SWAP1 JUMPDEST DUP2 SLOAD DUP2 MSTORE SWAP1 PUSH1 0x1 ADD SWAP1 PUSH1 0x20 ADD DUP1 DUP4 GT PUSH2 0x3132 JUMPI DUP3 SWAP1 SUB PUSH1 0x1F AND DUP3 ADD SWAP2 JUMPDEST POP POP POP SWAP2 DUP4 MSTORE POP POP PUSH1 0x2 DUP3 ADD SLOAD PUSH1 0x1 PUSH1 0x1 PUSH1 0xA0 SHL SUB AND PUSH1 0x20 DUP3 ADD MSTORE PUSH1 0x3 DUP3 ADD DUP1 SLOAD PUSH1 0x40 SWAP1 SWAP3 ADD SWAP2 PUSH2 0x317F SWAP1 PUSH2 0x4B7B JUMP JUMPDEST DUP1 PUSH1 0x1F ADD PUSH1 0x20 DUP1 SWAP2 DIV MUL PUSH1 0x20 ADD PUSH1 0x40 MLOAD SWAP1 DUP2 ADD PUSH1 0x40 MSTORE DUP1 SWAP3 SWAP2 SWAP1 DUP2 DUP2 MSTORE PUSH1 0x20 ADD DUP3 DUP1 SLOAD PUSH2 0x31AB SWAP1 PUSH2 0x4B7B JUMP JUMPDEST DUP1 ISZERO PUSH2 0x31F6 JUMPI DUP1 PUSH1 0x1F LT PUSH2 0x31CD JUMPI PUSH2 0x100 DUP1 DUP4 SLOAD DIV MUL DUP4 MSTORE SWAP2 PUSH1 0x20 ADD SWAP2 PUSH2 0x31F6 JUMP JUMPDEST DUP3 ADD SWAP2 SWAP1 PUSH0 MSTORE PUSH1 0x20 PUSH0 KECCAK256 SWAP1 JUMPDEST DUP2 SLOAD DUP2 MSTORE SWAP1 PUSH1 0x1 ADD SWAP1 PUSH1 0x20 ADD DUP1 DUP4 GT PUSH2 0x31D9 JUMPI DUP3 SWAP1 SUB PUSH1 0x1F AND DUP3 ADD SWAP2 JUMPDEST POP POP POP POP POP DUP2 MSTORE PUSH1 0x20 ADD PUSH1 0x4 DUP3 ADD DUP1 SLOAD PUSH2 0x320F SWAP1 PUSH2 0x4B7B JUMP JUMPDEST DUP1 PUSH1 0x1F ADD PUSH1 0x20 DUP1 SWAP2 DIV MUL PUSH1 0x20 ADD PUSH1 0x40 MLOAD SWAP1 DUP2 ADD PUSH1 0x40 MSTORE DUP1 SWAP3 SWAP2 SWAP1 DUP2 DUP2 MSTORE PUSH1 0x20 ADD DUP3 DUP1 SLOAD PUSH2 0x323B SWAP1 PUSH2 0x4B7B JUMP JUMPDEST DUP1 ISZERO PUSH2 0x3286 JUMPI DUP1 PUSH1 0x1F LT PUSH2 0x325D JUMPI PUSH2 0x100 DUP1 DUP4 SLOAD DIV MUL DUP4 MSTORE SWAP2 PUSH1 0x20 ADD SWAP2 PUSH2 0x3286 JUMP JUMPDEST DUP3 ADD SWAP2 SWAP1 PUSH0 MSTORE PUSH1 0x20 PUSH0 KECCAK256 SWAP1 JUMPDEST DUP2 SLOAD DUP2 MSTORE SWAP1 PUSH1 0x1 ADD SWAP1 PUSH1 0x20 ADD DUP1 DUP4 GT PUSH2 0x3269 JUMPI DUP3 SWAP1 SUB PUSH1 0x1F AND DUP3 ADD SWAP2 JUMPDEST POP POP POP POP POP DUP2 MSTORE PUSH1 0x20 ADD PUSH1 0x5 DUP3 ADD DUP1 SLOAD PUSH2 0x329F SWAP1 PUSH2 0x4B7B JUMP JUMPDEST DUP1 PUSH1 0x1F ADD PUSH1 0x20 DUP1 SWAP2 DIV MUL PUSH1 0x20 ADD PUSH1 0x40 MLOAD SWAP1 DUP2 ADD PUSH1 0x40 MSTORE DUP1 SWAP3 SWAP2 SWAP1 DUP2 DUP2 MSTORE PUSH1 0x20 ADD DUP3 DUP1 SLOAD PUSH2 0x32CB SWAP1 PUSH2 0x4B7B JUMP JUMPDEST DUP1 ISZERO PUSH2 0x3316 JUMPI DUP1 PUSH1 0x1F LT PUSH2 0x32ED JUMPI PUSH2 0x100 DUP1 DUP4 SLOAD DIV MUL DUP4 MSTORE SWAP2 PUSH1 0x20 ADD SWAP2 PUSH2 0x3316 JUMP JUMPDEST DUP3 ADD SWAP2 SWAP1 PUSH0 MSTORE PUSH1 0x20 PUSH0 KECCAK256 SWAP1 JUMPDEST DUP2 SLOAD DUP2 MSTORE SWAP1 PUSH1 0x1 ADD SWAP1 PUSH1 0x20 ADD DUP1 DUP4 GT PUSH2 0x32F9 JUMPI DUP3 SWAP1 SUB PUSH1 0x1F AND DUP3 ADD SWAP2 JUMPDEST POP POP POP POP POP DUP2 MSTORE PUSH1 0x20 ADD PUSH1 0x6 DUP3 ADD SLOAD DUP2 MSTORE PUSH1 0x20 ADD PUSH1 0x7 DUP3 ADD SLOAD DUP2 MSTORE POP POP SWAP2 POP DUP1 PUSH1 0x40 MLOAD DUP1 PUSH2 0x100 ADD PUSH1 0x40 MSTORE SWAP1 DUP2 PUSH0 DUP3 ADD DUP1 SLOAD PUSH2 0x3351 SWAP1 PUSH2 0x4B7B JUMP JUMPDEST DUP1 PUSH1 0x1F ADD PUSH1 0x20 DUP1 SWAP2 DIV MUL PUSH1 0x20 ADD PUSH1 0x40 MLOAD SWAP1 DUP2 ADD PUSH1 0x40 MSTORE DUP1 SWAP3 SWAP2 SWAP1 DUP2 DUP2 MSTORE PUSH1 0x20 ADD DUP3 DUP1 SLOAD PUSH2 0x337D SWAP1 PUSH2 0x4B7B JUMP JUMPDEST DUP1 ISZERO PUSH2 0x33C8 JUMPI DUP1 PUSH1 0x1F LT PUSH2 0x339F JUMPI PUSH2 0x100 DUP1 DUP4 SLOAD DIV MUL DUP4 MSTORE SWAP2 PUSH1 0x20 ADD SWAP2 PUSH2 0x33C8 JUMP JUMPDEST DUP3 ADD SWAP2 SWAP1 PUSH0 MSTORE PUSH1 0x20 PUSH0 KECCAK256 SWAP1 JUMPDEST DUP2 SLOAD DUP2 MSTORE SWAP1 PUSH1 0x1 ADD SWAP1 PUSH1 0x20 ADD DUP1 DUP4 GT PUSH2 0x33AB JUMPI DUP3 SWAP1 SUB PUSH1 0x1F AND DUP3 ADD SWAP2 JUMPDEST POP POP POP SWAP2 DUP4 MSTORE POP POP PUSH1 0x1 DUP3 ADD SLOAD PUSH1 0x1 PUSH1 0x1 PUSH1 0xA0 SHL SUB DUP2 AND PUSH1 0x20 DUP4 ADD MSTORE PUSH1 0xFF PUSH1 0x1 PUSH1 0xA0 SHL DUP3 DIV DUP2 AND ISZERO ISZERO PUSH1 0x40 DUP5 ADD MSTORE PUSH1 0x1 PUSH1 0xA8 SHL DUP3 DIV DUP2 AND ISZERO ISZERO PUSH1 0x60 DUP5 ADD MSTORE PUSH1 0x1 PUSH1 0xB0 SHL SWAP1 SWAP2 DIV AND ISZERO ISZERO PUSH1 0x80 DUP3 ADD MSTORE PUSH1 0x2 DUP3 ADD DUP1 SLOAD PUSH1 0xA0 SWAP1 SWAP3 ADD SWAP2 PUSH2 0x342B SWAP1 PUSH2 0x4B7B JUMP JUMPDEST DUP1 PUSH1 0x1F ADD PUSH1 0x20 DUP1 SWAP2 DIV MUL PUSH1 0x20 ADD PUSH1 0x40 MLOAD SWAP1 DUP2 ADD PUSH1 0x40 MSTORE DUP1 SWAP3 SWAP2 SWAP1 DUP2 DUP2 MSTORE PUSH1 0x20 ADD DUP3 DUP1 SLOAD PUSH2 0x3457 SWAP1 PUSH2 0x4B7B JUMP JUMPDEST DUP1 ISZERO PUSH2 0x34A2 JUMPI DUP1 PUSH1 0x1F LT PUSH2 0x3479 JUMPI PUSH2 0x100 DUP1 DUP4 SLOAD DIV MUL DUP4 MSTORE SWAP2 PUSH1 0x20 ADD SWAP2 PUSH2 0x34A2 JUMP JUMPDEST DUP3 ADD SWAP2 SWAP1 PUSH0 MSTORE PUSH1 0x20 PUSH0 KECCAK256 SWAP1 JUMPDEST DUP2 SLOAD DUP2 MSTORE SWAP1 PUSH1 0x1 ADD SWAP1 PUSH1 0x20 ADD DUP1 DUP4 GT PUSH2 0x3485 JUMPI DUP3 SWAP1 SUB PUSH1 0x1F AND DUP3 ADD SWAP2 JUMPDEST POP POP POP POP POP DUP2 MSTORE PUSH1 0x20 ADD PUSH1 0x3 DUP3 ADD DUP1 SLOAD PUSH2 0x34BB SWAP1 PUSH2 0x4B7B JUMP JUMPDEST DUP1 PUSH1 0x1F ADD PUSH1 0x20 DUP1 SWAP2 DIV MUL PUSH1 0x20 ADD PUSH1 0x40 MLOAD SWAP1 DUP2 ADD PUSH1 0x40 MSTORE DUP1 SWAP3 SWAP2 SWAP1 DUP2 DUP2 MSTORE PUSH1 0x20 ADD DUP3 DUP1 SLOAD PUSH2 0x34E7 SWAP1 PUSH2 0x4B7B JUMP JUMPDEST DUP1 ISZERO PUSH2 0x3532 JUMPI DUP1 PUSH1 0x1F LT PUSH2 0x3509 JUMPI PUSH2 0x100 DUP1 DUP4 SLOAD DIV MUL DUP4 MSTORE SWAP2 PUSH1 0x20 ADD SWAP2 PUSH2 0x3532 JUMP JUMPDEST DUP3 ADD SWAP2 SWAP1 PUSH0 MSTORE PUSH1 0x20 PUSH0 KECCAK256 SWAP1 JUMPDEST DUP2 SLOAD DUP2 MSTORE SWAP1 PUSH1 0x1 ADD SWAP1 PUSH1 0x20 ADD DUP1 DUP4 GT PUSH2 0x3515 JUMPI DUP3 SWAP1 SUB PUSH1 0x1F AND DUP3 ADD SWAP2 JUMPDEST POP POP POP POP POP DUP2 MSTORE PUSH1 0x20 ADD PUSH1 0x4 DUP3 ADD DUP1 SLOAD PUSH2 0x354B SWAP1 PUSH2 0x4B7B JUMP JUMPDEST DUP1 PUSH1 0x1F ADD PUSH1 0x20 DUP1 SWAP2 DIV MUL PUSH1 0x20 ADD PUSH1 0x40 MLOAD SWAP1 DUP2 ADD PUSH1 0x40 MSTORE DUP1 SWAP3 SWAP2 SWAP1 DUP2 DUP2 MSTORE PUSH1 0x20 ADD DUP3 DUP1 SLOAD PUSH2 0x3577 SWAP1 PUSH2 0x4B7B JUMP JUMPDEST DUP1 ISZERO PUSH2 0x35C2 JUMPI DUP1 PUSH1 0x1F LT PUSH2 0x3599 JUMPI PUSH2 0x100 DUP1 DUP4 SLOAD DIV MUL DUP4 MSTORE SWAP2 PUSH1 0x20 ADD SWAP2 PUSH2 0x35C2 JUMP JUMPDEST DUP3 ADD SWAP2 SWAP1 PUSH0 MSTORE PUSH1 0x20 PUSH0 KECCAK256 SWAP1 JUMPDEST DUP2 SLOAD DUP2 MSTORE SWAP1 PUSH1 0x1 ADD SWAP1 PUSH1 0x20 ADD DUP1 DUP4 GT PUSH2 0x35A5 JUMPI DUP3 SWAP1 SUB PUSH1 0x1F AND DUP3 ADD SWAP2 JUMPDEST POP POP POP POP POP DUP2 MSTORE POP POP SWAP1 POP SWAP2 POP SWAP2 POP SWAP2 POP SWAP2 JUMP JUMPDEST PUSH1 0x3 PUSH1 0x20 MSTORE PUSH0 SWAP1 DUP2 MSTORE PUSH1 0x40 SWAP1 KECCAK256 DUP1 SLOAD DUP2 SWAP1 PUSH2 0x35F0 SWAP1 PUSH2 0x4B7B JUMP JUMPDEST DUP1 PUSH1 0x1F ADD PUSH1 0x20 DUP1 SWAP2 DIV MUL PUSH1 0x20 ADD PUSH1 0x40 MLOAD SWAP1 DUP2 ADD PUSH1 0x40 MSTORE DUP1 SWAP3 SWAP2 SWAP1 DUP2 DUP2 MSTORE PUSH1 0x20 ADD DUP3 DUP1 SLOAD PUSH2 0x361C SWAP1 PUSH2 0x4B7B JUMP JUMPDEST DUP1 ISZERO PUSH2 0x3667 JUMPI DUP1 PUSH1 0x1F LT PUSH2 0x363E JUMPI PUSH2 0x100 DUP1 DUP4 SLOAD DIV MUL DUP4 MSTORE SWAP2 PUSH1 0x20 ADD SWAP2 PUSH2 0x3667 JUMP JUMPDEST DUP3 ADD SWAP2 SWAP1 PUSH0 MSTORE PUSH1 0x20 PUSH0 KECCAK256 SWAP1 JUMPDEST DUP2 SLOAD DUP2 MSTORE SWAP1 PUSH1 0x1 ADD SWAP1 PUSH1 0x20 ADD DUP1 DUP4 GT PUSH2 0x364A JUMPI DUP3 SWAP1 SUB PUSH1 0x1F AND DUP3 ADD SWAP2 JUMPDEST POP POP POP POP PUSH1 0x1 DUP4 ADD SLOAD PUSH1 0x2 DUP5 ADD DUP1 SLOAD SWAP4 SWAP5 PUSH1 0x1 PUSH1 0x1 PUSH1 0xA0 SHL SUB DUP4 AND SWAP5 PUSH1 0xFF PUSH1 0x1 PUSH1 0xA0 SHL DUP6 DIV DUP2 AND SWAP6 POP PUSH1 0x1 PUSH1 0xA8 SHL DUP6 DIV DUP2 AND SWAP5 PUSH1 0x1 PUSH1 0xB0 SHL SWAP1 DIV AND SWAP3 SWAP1 PUSH2 0x36AD SWAP1 PUSH2 0x4B7B JUMP JUMPDEST DUP1 PUSH1 0x1F ADD PUSH1 0x20 DUP1 SWAP2 DIV MUL PUSH1 0x20 ADD PUSH1 0x40 MLOAD SWAP1 DUP2 ADD PUSH1 0x40 MSTORE DUP1 SWAP3 SWAP2 SWAP1 DUP2 DUP2 MSTORE PUSH1 0x20 ADD DUP3 DUP1 SLOAD PUSH2 0x36D9 SWAP1 PUSH2 0x4B7B JUMP JUMPDEST DUP1 ISZERO PUSH2 0x3724 JUMPI DUP1 PUSH1 0x1F LT PUSH2 0x36FB JUMPI PUSH2 0x100 DUP1 DUP4 SLOAD DIV MUL DUP4 MSTORE SWAP2 PUSH1 0x20 ADD SWAP2 PUSH2 0x3724 JUMP JUMPDEST DUP3 ADD SWAP2 SWAP1 PUSH0 MSTORE PUSH1 0x20 PUSH0 KECCAK256 SWAP1 JUMPDEST DUP2 SLOAD DUP2 MSTORE SWAP1 PUSH1 0x1 ADD SWAP1 PUSH1 0x20 ADD DUP1 DUP4 GT PUSH2 0x3707 JUMPI DUP3 SWAP1 SUB PUSH1 0x1F AND DUP3 ADD SWAP2 JUMPDEST POP POP POP POP POP SWAP1 DUP1 PUSH1 0x3 ADD DUP1 SLOAD PUSH2 0x3739 SWAP1 PUSH2 0x4B7B JUMP JUMPDEST DUP1 PUSH1 0x1F ADD PUSH1 0x20 DUP1 SWAP2 DIV MUL PUSH1 0x20 ADD PUSH1 0x40 MLOAD SWAP1 DUP2 ADD PUSH1 0x40 MSTORE DUP1 SWAP3 SWAP2 SWAP1 DUP2 DUP2 MSTORE PUSH1 0x20 ADD DUP3 DUP1 SLOAD PUSH2 0x3765 SWAP1 PUSH2 0x4B7B JUMP JUMPDEST DUP1 ISZERO PUSH2 0x37B0 JUMPI DUP1 PUSH1 0x1F LT PUSH2 0x3787 JUMPI PUSH2 0x100 DUP1 DUP4 SLOAD DIV MUL DUP4 MSTORE SWAP2 PUSH1 0x20 ADD SWAP2 PUSH2 0x37B0 JUMP JUMPDEST DUP3 ADD SWAP2 SWAP1 PUSH0 MSTORE PUSH1 0x20 PUSH0 KECCAK256 SWAP1 JUMPDEST DUP2 SLOAD DUP2 MSTORE SWAP1 PUSH1 0x1 ADD SWAP1 PUSH1 0x20 ADD DUP1 DUP4 GT PUSH2 0x3793 JUMPI DUP3 SWAP1 SUB PUSH1 0x1F AND DUP3 ADD SWAP2 JUMPDEST POP POP POP POP POP SWAP1 DUP1 PUSH1 0x4 ADD DUP1 SLOAD PUSH2 0x37C5 SWAP1 PUSH2 0x4B7B JUMP JUMPDEST DUP1 PUSH1 0x1F ADD PUSH1 0x20 DUP1 SWAP2 DIV MUL PUSH1 0x20 ADD PUSH1 0x40 MLOAD SWAP1 DUP2 ADD PUSH1 0x40 MSTORE DUP1 SWAP3 SWAP2 SWAP1 DUP2 DUP2 MSTORE PUSH1 0x20 ADD DUP3 DUP1 SLOAD PUSH2 0x37F1 SWAP1 PUSH2 0x4B7B JUMP JUMPDEST DUP1 ISZERO PUSH2 0x383C JUMPI DUP1 PUSH1 0x1F LT PUSH2 0x3813 JUMPI PUSH2 0x100 DUP1 DUP4 SLOAD DIV MUL DUP4 MSTORE SWAP2 PUSH1 0x20 ADD SWAP2 PUSH2 0x383C JUMP JUMPDEST DUP3 ADD SWAP2 SWAP1 PUSH0 MSTORE PUSH1 0x20 PUSH0 KECCAK256 SWAP1 JUMPDEST DUP2 SLOAD DUP2 MSTORE SWAP1 PUSH1 0x1 ADD SWAP1 PUSH1 0x20 ADD DUP1 DUP4 GT PUSH2 0x381F JUMPI DUP3 SWAP1 SUB PUSH1 0x1F AND DUP3 ADD SWAP2 JUMPDEST POP POP POP POP POP SWAP1 POP DUP9 JUMP JUMPDEST PUSH2 0x387F PUSH1 0x40 MLOAD DUP1 PUSH1 0xA0 ADD PUSH1 0x40 MSTORE DUP1 PUSH0 PUSH1 0x1 PUSH1 0x1 PUSH1 0xA0 SHL SUB AND DUP2 MSTORE PUSH1 0x20 ADD PUSH1 0x60 DUP2 MSTORE PUSH1 0x20 ADD PUSH1 0x60 DUP2 MSTORE PUSH1 0x20 ADD PUSH1 0x60 DUP2 MSTORE PUSH1 0x20 ADD PUSH0 DUP2 MSTORE POP SWAP1 JUMP JUMPDEST CALLER PUSH0 SWAP1 DUP2 MSTORE PUSH1 0x20 DUP2 SWAP1 MSTORE PUSH1 0x40 SWAP1 KECCAK256 SLOAD PUSH1 0xFF AND DUP1 PUSH2 0x38A6 JUMPI POP PUSH1 0x1 SLOAD PUSH1 0x1 PUSH1 0x1 PUSH1 0xA0 SHL SUB AND CALLER EQ JUMPDEST PUSH2 0x38C2 JUMPI PUSH1 0x40 MLOAD PUSH3 0x461BCD PUSH1 0xE5 SHL DUP2 MSTORE PUSH1 0x4 ADD PUSH2 0x5D4 SWAP1 PUSH2 0x49EB JUMP JUMPDEST PUSH1 0x1 PUSH1 0x1 PUSH1 0xA0 SHL SUB DUP3 AND PUSH2 0x38E8 JUMPI PUSH1 0x40 MLOAD PUSH3 0x461BCD PUSH1 0xE5 SHL DUP2 MSTORE PUSH1 0x4 ADD PUSH2 0x5D4 SWAP1 PUSH2 0x4E11 JUMP JUMPDEST PUSH1 0x1 PUSH1 0x1 PUSH1 0xA0 SHL SUB DUP1 DUP4 AND PUSH0 DUP2 DUP2 MSTORE PUSH1 0x8 PUSH1 0x20 MSTORE PUSH1 0x40 SWAP1 KECCAK256 SLOAD SWAP1 SWAP2 AND EQ PUSH2 0x3921 JUMPI PUSH1 0x40 MLOAD PUSH3 0x461BCD PUSH1 0xE5 SHL DUP2 MSTORE PUSH1 0x4 ADD PUSH2 0x5D4 SWAP1 PUSH2 0x4E48 JUMP JUMPDEST PUSH1 0x1 PUSH1 0x1 PUSH1 0xA0 SHL SUB DUP1 DUP4 AND PUSH0 SWAP1 DUP2 MSTORE PUSH1 0x8 PUSH1 0x20 SWAP1 DUP2 MSTORE PUSH1 0x40 SWAP2 DUP3 SWAP1 KECCAK256 DUP3 MLOAD PUSH1 0xA0 DUP2 ADD SWAP1 SWAP4 MSTORE DUP1 SLOAD SWAP1 SWAP4 AND DUP3 MSTORE PUSH1 0x1 DUP4 ADD DUP1 SLOAD SWAP3 SWAP4 SWAP3 SWAP2 DUP5 ADD SWAP2 PUSH2 0x3963 SWAP1 PUSH2 0x4B7B JUMP JUMPDEST DUP1 PUSH1 0x1F ADD PUSH1 0x20 DUP1 SWAP2 DIV MUL PUSH1 0x20 ADD PUSH1 0x40 MLOAD SWAP1 DUP2 ADD PUSH1 0x40 MSTORE DUP1 SWAP3 SWAP2 SWAP1 DUP2 DUP2 MSTORE PUSH1 0x20 ADD DUP3 DUP1 SLOAD PUSH2 0x398F SWAP1 PUSH2 0x4B7B JUMP JUMPDEST DUP1 ISZERO PUSH2 0x39DA JUMPI DUP1 PUSH1 0x1F LT PUSH2 0x39B1 JUMPI PUSH2 0x100 DUP1 DUP4 SLOAD DIV MUL DUP4 MSTORE SWAP2 PUSH1 0x20 ADD SWAP2 PUSH2 0x39DA JUMP JUMPDEST DUP3 ADD SWAP2 SWAP1 PUSH0 MSTORE PUSH1 0x20 PUSH0 KECCAK256 SWAP1 JUMPDEST DUP2 SLOAD DUP2 MSTORE SWAP1 PUSH1 0x1 ADD SWAP1 PUSH1 0x20 ADD DUP1 DUP4 GT PUSH2 0x39BD JUMPI DUP3 SWAP1 SUB PUSH1 0x1F AND DUP3 ADD SWAP2 JUMPDEST POP POP POP POP POP DUP2 MSTORE PUSH1 0x20 ADD PUSH1 0x2 DUP3 ADD DUP1 SLOAD PUSH2 0x39F3 SWAP1 PUSH2 0x4B7B JUMP JUMPDEST DUP1 PUSH1 0x1F ADD PUSH1 0x20 DUP1 SWAP2 DIV MUL PUSH1 0x20 ADD PUSH1 0x40 MLOAD SWAP1 DUP2 ADD PUSH1 0x40 MSTORE DUP1 SWAP3 SWAP2 SWAP1 DUP2 DUP2 MSTORE PUSH1 0x20 ADD DUP3 DUP1 SLOAD PUSH2 0x3A1F SWAP1 PUSH2 0x4B7B JUMP JUMPDEST DUP1 ISZERO PUSH2 0x3A6A JUMPI DUP1 PUSH1 0x1F LT PUSH2 0x3A41 JUMPI PUSH2 0x100 DUP1 DUP4 SLOAD DIV MUL DUP4 MSTORE SWAP2 PUSH1 0x20 ADD SWAP2 PUSH2 0x3A6A JUMP JUMPDEST DUP3 ADD SWAP2 SWAP1 PUSH0 MSTORE PUSH1 0x20 PUSH0 KECCAK256 SWAP1 JUMPDEST DUP2 SLOAD DUP2 MSTORE SWAP1 PUSH1 0x1 ADD SWAP1 PUSH1 0x20 ADD DUP1 DUP4 GT PUSH2 0x3A4D JUMPI DUP3 SWAP1 SUB PUSH1 0x1F AND DUP3 ADD SWAP2 JUMPDEST POP POP POP POP POP DUP2 MSTORE PUSH1 0x20 ADD PUSH1 0x3 DUP3 ADD DUP1 SLOAD PUSH2 0x3A83 SWAP1 PUSH2 0x4B7B JUMP JUMPDEST DUP1 PUSH1 0x1F ADD PUSH1 0x20 DUP1 SWAP2 DIV MUL PUSH1 0x20 ADD PUSH1 0x40 MLOAD SWAP1 DUP2 ADD PUSH1 0x40 MSTORE DUP1 SWAP3 SWAP2 SWAP1 DUP2 DUP2 MSTORE PUSH1 0x20 ADD DUP3 DUP1 SLOAD PUSH2 0x3AAF SWAP1 PUSH2 0x4B7B JUMP JUMPDEST DUP1 ISZERO PUSH2 0x3AFA JUMPI DUP1 PUSH1 0x1F LT PUSH2 0x3AD1 JUMPI PUSH2 0x100 DUP1 DUP4 SLOAD DIV MUL DUP4 MSTORE SWAP2 PUSH1 0x20 ADD SWAP2 PUSH2 0x3AFA JUMP JUMPDEST DUP3 ADD SWAP2 SWAP1 PUSH0 MSTORE PUSH1 0x20 PUSH0 KECCAK256 SWAP1 JUMPDEST DUP2 SLOAD DUP2 MSTORE SWAP1 PUSH1 0x1 ADD SWAP1 PUSH1 0x20 ADD DUP1 DUP4 GT PUSH2 0x3ADD JUMPI DUP3 SWAP1 SUB PUSH1 0x1F AND DUP3 ADD SWAP2 JUMPDEST POP POP POP POP POP DUP2 MSTORE PUSH1 0x20 ADD PUSH1 0x4 DUP3 ADD SLOAD DUP2 MSTORE POP POP SWAP1 POP SWAP2 SWAP1 POP JUMP JUMPDEST PUSH1 0x4 PUSH1 0x20 MSTORE DUP2 PUSH0 MSTORE PUSH1 0x40 PUSH0 KECCAK256 DUP2 DUP2 SLOAD DUP2 LT PUSH2 0x3B2D JUMPI PUSH0 DUP1 REVERT JUMPDEST SWAP1 PUSH0 MSTORE PUSH1 0x20 PUSH0 KECCAK256 SWAP1 PUSH1 0x8 MUL ADD PUSH0 SWAP2 POP SWAP2 POP POP DUP1 PUSH0 ADD DUP1 SLOAD PUSH2 0x3B4D SWAP1 PUSH2 0x4B7B JUMP JUMPDEST DUP1 PUSH1 0x1F ADD PUSH1 0x20 DUP1 SWAP2 DIV MUL PUSH1 0x20 ADD PUSH1 0x40 MLOAD SWAP1 DUP2 ADD PUSH1 0x40 MSTORE DUP1 SWAP3 SWAP2 SWAP1 DUP2 DUP2 MSTORE PUSH1 0x20 ADD DUP3 DUP1 SLOAD PUSH2 0x3B79 SWAP1 PUSH2 0x4B7B JUMP JUMPDEST DUP1 ISZERO PUSH2 0x3BC4 JUMPI DUP1 PUSH1 0x1F LT PUSH2 0x3B9B JUMPI PUSH2 0x100 DUP1 DUP4 SLOAD DIV MUL DUP4 MSTORE SWAP2 PUSH1 0x20 ADD SWAP2 PUSH2 0x3BC4 JUMP JUMPDEST DUP3 ADD SWAP2 SWAP1 PUSH0 MSTORE PUSH1 0x20 PUSH0 KECCAK256 SWAP1 JUMPDEST DUP2 SLOAD DUP2 MSTORE SWAP1 PUSH1 0x1 ADD SWAP1 PUSH1 0x20 ADD DUP1 DUP4 GT PUSH2 0x3BA7 JUMPI DUP3 SWAP1 SUB PUSH1 0x1F AND DUP3 ADD SWAP2 JUMPDEST POP POP POP PUSH1 0x1 DUP5 ADD SLOAD PUSH1 0x2 DUP6 ADD SLOAD PUSH1 0x3 DUP7 ADD DUP1 SLOAD SWAP6 SWAP7 PUSH1 0x1 PUSH1 0x1 PUSH1 0xA0 SHL SUB SWAP4 DUP5 AND SWAP7 SWAP3 SWAP1 SWAP4 AND SWAP5 POP SWAP2 SWAP3 POP PUSH2 0x3BF7 SWAP1 PUSH2 0x4B7B JUMP JUMPDEST DUP1 PUSH1 0x1F ADD PUSH1 0x20 DUP1 SWAP2 DIV MUL PUSH1 0x20 ADD PUSH1 0x40 MLOAD SWAP1 DUP2 ADD PUSH1 0x40 MSTORE DUP1 SWAP3 SWAP2 SWAP1 DUP2 DUP2 MSTORE PUSH1 0x20 ADD DUP3 DUP1 SLOAD PUSH2 0x3C23 SWAP1 PUSH2 0x4B7B JUMP JUMPDEST DUP1 ISZERO PUSH2 0x3C6E JUMPI DUP1 PUSH1 0x1F LT PUSH2 0x3C45 JUMPI PUSH2 0x100 DUP1 DUP4 SLOAD DIV MUL DUP4 MSTORE SWAP2 PUSH1 0x20 ADD SWAP2 PUSH2 0x3C6E JUMP JUMPDEST DUP3 ADD SWAP2 SWAP1 PUSH0 MSTORE PUSH1 0x20 PUSH0 KECCAK256 SWAP1 JUMPDEST DUP2 SLOAD DUP2 MSTORE SWAP1 PUSH1 0x1 ADD SWAP1 PUSH1 0x20 ADD DUP1 DUP4 GT PUSH2 0x3C51 JUMPI DUP3 SWAP1 SUB PUSH1 0x1F AND DUP3 ADD SWAP2 JUMPDEST POP POP POP POP POP SWAP1 DUP1 PUSH1 0x4 ADD DUP1 SLOAD PUSH2 0x3C83 SWAP1 PUSH2 0x4B7B JUMP JUMPDEST DUP1 PUSH1 0x1F ADD PUSH1 0x20 DUP1 SWAP2 DIV MUL PUSH1 0x20 ADD PUSH1 0x40 MLOAD SWAP1 DUP2 ADD PUSH1 0x40 MSTORE DUP1 SWAP3 SWAP2 SWAP1 DUP2 DUP2 MSTORE PUSH1 0x20 ADD DUP3 DUP1 SLOAD PUSH2 0x3CAF SWAP1 PUSH2 0x4B7B JUMP JUMPDEST DUP1 ISZERO PUSH2 0x3CFA JUMPI DUP1 PUSH1 0x1F LT PUSH2 0x3CD1 JUMPI PUSH2 0x100 DUP1 DUP4 SLOAD DIV MUL DUP4 MSTORE SWAP2 PUSH1 0x20 ADD SWAP2 PUSH2 0x3CFA JUMP JUMPDEST DUP3 ADD SWAP2 SWAP1 PUSH0 MSTORE PUSH1 0x20 PUSH0 KECCAK256 SWAP1 JUMPDEST DUP2 SLOAD DUP2 MSTORE SWAP1 PUSH1 0x1 ADD SWAP1 PUSH1 0x20 ADD DUP1 DUP4 GT PUSH2 0x3CDD JUMPI DUP3 SWAP1 SUB PUSH1 0x1F AND DUP3 ADD SWAP2 JUMPDEST POP POP POP POP POP SWAP1 DUP1 PUSH1 0x5 ADD DUP1 SLOAD PUSH2 0x3D0F SWAP1 PUSH2 0x4B7B JUMP JUMPDEST DUP1 PUSH1 0x1F ADD PUSH1 0x20 DUP1 SWAP2 DIV MUL PUSH1 0x20 ADD PUSH1 0x40 MLOAD SWAP1 DUP2 ADD PUSH1 0x40 MSTORE DUP1 SWAP3 SWAP2 SWAP1 DUP2 DUP2 MSTORE PUSH1 0x20 ADD DUP3 DUP1 SLOAD PUSH2 0x3D3B SWAP1 PUSH2 0x4B7B JUMP JUMPDEST DUP1 ISZERO PUSH2 0x3D86 JUMPI DUP1 PUSH1 0x1F LT PUSH2 0x3D5D JUMPI PUSH2 0x100 DUP1 DUP4 SLOAD DIV MUL DUP4 MSTORE SWAP2 PUSH1 0x20 ADD SWAP2 PUSH2 0x3D86 JUMP JUMPDEST DUP3 ADD SWAP2 SWAP1 PUSH0 MSTORE PUSH1 0x20 PUSH0 KECCAK256 SWAP1 JUMPDEST DUP2 SLOAD DUP2 MSTORE SWAP1 PUSH1 0x1 ADD SWAP1 PUSH1 0x20 ADD DUP1 DUP4 GT PUSH2 0x3D69 JUMPI DUP3 SWAP1 SUB PUSH1 0x1F AND DUP3 ADD SWAP2 JUMPDEST POP POP POP POP POP SWAP1 DUP1 PUSH1 0x6 ADD DUP1 SLOAD PUSH2 0x3D9B SWAP1 PUSH2 0x4B7B JUMP JUMPDEST DUP1 PUSH1 0x1F ADD PUSH1 0x20 DUP1 SWAP2 DIV MUL PUSH1 0x20 ADD PUSH1 0x40 MLOAD SWAP1 DUP2 ADD PUSH1 0x40 MSTORE DUP1 SWAP3 SWAP2 SWAP1 DUP2 DUP2 MSTORE PUSH1 0x20 ADD DUP3 DUP1 SLOAD PUSH2 0x3DC7 SWAP1 PUSH2 0x4B7B JUMP JUMPDEST DUP1 ISZERO PUSH2 0x3E12 JUMPI DUP1 PUSH1 0x1F LT PUSH2 0x3DE9 JUMPI PUSH2 0x100 DUP1 DUP4 SLOAD DIV MUL DUP4 MSTORE SWAP2 PUSH1 0x20 ADD SWAP2 PUSH2 0x3E12 JUMP JUMPDEST DUP3 ADD SWAP2 SWAP1 PUSH0 MSTORE PUSH1 0x20 PUSH0 KECCAK256 SWAP1 JUMPDEST DUP2 SLOAD DUP2 MSTORE SWAP1 PUSH1 0x1 ADD SWAP1 PUSH1 0x20 ADD DUP1 DUP4 GT PUSH2 0x3DF5 JUMPI DUP3 SWAP1 SUB PUSH1 0x1F AND DUP3 ADD SWAP2 JUMPDEST POP POP POP POP POP SWAP1 DUP1 PUSH1 0x7 ADD DUP1 SLOAD PUSH2 0x37C5 SWAP1 PUSH2 0x4B7B JUMP JUMPDEST DUP1 CALLDATALOAD PUSH1 0x1 PUSH1 0x1 PUSH1 0xA0 SHL SUB DUP2 AND DUP2 EQ PUSH2 0xE57 JUMPI PUSH0 DUP1 REVERT JUMPDEST PUSH0 PUSH1 0x20 DUP3 DUP5 SUB SLT ISZERO PUSH2 0x3E4D JUMPI PUSH0 DUP1 REVERT JUMPDEST PUSH2 0x93B DUP3 PUSH2 0x3E27 JUMP JUMPDEST PUSH4 0x4E487B71 PUSH1 0xE0 SHL PUSH0 MSTORE PUSH1 0x41 PUSH1 0x4 MSTORE PUSH1 0x24 PUSH0 REVERT JUMPDEST PUSH0 DUP3 PUSH1 0x1F DUP4 ADD SLT PUSH2 0x3E79 JUMPI PUSH0 DUP1 REVERT JUMPDEST DUP2 CALLDATALOAD PUSH8 0xFFFFFFFFFFFFFFFF DUP1 DUP3 GT ISZERO PUSH2 0x3E94 JUMPI PUSH2 0x3E94 PUSH2 0x3E56 JUMP JUMPDEST PUSH1 0x40 MLOAD PUSH1 0x1F DUP4 ADD PUSH1 0x1F NOT SWAP1 DUP2 AND PUSH1 0x3F ADD AND DUP2 ADD SWAP1 DUP3 DUP3 GT DUP2 DUP4 LT OR ISZERO PUSH2 0x3EBC JUMPI PUSH2 0x3EBC PUSH2 0x3E56 JUMP JUMPDEST DUP2 PUSH1 0x40 MSTORE DUP4 DUP2 MSTORE DUP7 PUSH1 0x20 DUP6 DUP9 ADD ADD GT ISZERO PUSH2 0x3ED4 JUMPI PUSH0 DUP1 REVERT JUMPDEST DUP4 PUSH1 0x20 DUP8 ADD PUSH1 0x20 DUP4 ADD CALLDATACOPY PUSH0 PUSH1 0x20 DUP6 DUP4 ADD ADD MSTORE DUP1 SWAP5 POP POP POP POP POP SWAP3 SWAP2 POP POP JUMP JUMPDEST PUSH0 DUP1 PUSH0 DUP1 PUSH0 DUP1 PUSH0 DUP1 PUSH2 0x100 DUP10 DUP12 SUB SLT ISZERO PUSH2 0x3F0B JUMPI PUSH0 DUP1 REVERT JUMPDEST DUP9 CALLDATALOAD PUSH8 0xFFFFFFFFFFFFFFFF DUP1 DUP3 GT ISZERO PUSH2 0x3F22 JUMPI PUSH0 DUP1 REVERT JUMPDEST PUSH2 0x3F2E DUP13 DUP4 DUP14 ADD PUSH2 0x3E6A JUMP JUMPDEST SWAP10 POP PUSH1 0x20 DUP12 ADD CALLDATALOAD SWAP2 POP DUP1 DUP3 GT ISZERO PUSH2 0x3F43 JUMPI PUSH0 DUP1 REVERT JUMPDEST PUSH2 0x3F4F DUP13 DUP4 DUP14 ADD PUSH2 0x3E6A JUMP JUMPDEST SWAP9 POP PUSH2 0x3F5D PUSH1 0x40 DUP13 ADD PUSH2 0x3E27 JUMP JUMPDEST SWAP8 POP PUSH1 0x60 DUP12 ADD CALLDATALOAD SWAP2 POP DUP1 DUP3 GT ISZERO PUSH2 0x3F72 JUMPI PUSH0 DUP1 REVERT JUMPDEST PUSH2 0x3F7E DUP13 DUP4 DUP14 ADD PUSH2 0x3E6A JUMP JUMPDEST SWAP7 POP PUSH1 0x80 DUP12 ADD CALLDATALOAD SWAP2 POP DUP1 DUP3 GT ISZERO PUSH2 0x3F93 JUMPI PUSH0 DUP1 REVERT JUMPDEST PUSH2 0x3F9F DUP13 DUP4 DUP14 ADD PUSH2 0x3E6A JUMP JUMPDEST SWAP6 POP PUSH1 0xA0 DUP12 ADD CALLDATALOAD SWAP2 POP DUP1 DUP3 GT ISZERO PUSH2 0x3FB4 JUMPI PUSH0 DUP1 REVERT JUMPDEST POP PUSH2 0x3FC1 DUP12 DUP3 DUP13 ADD PUSH2 0x3E6A JUMP JUMPDEST SWAP4 POP POP PUSH1 0xC0 DUP10 ADD CALLDATALOAD SWAP2 POP PUSH1 0xE0 DUP10 ADD CALLDATALOAD SWAP1 POP SWAP3 SWAP6 SWAP9 POP SWAP3 SWAP6 SWAP9 SWAP1 SWAP4 SWAP7 POP JUMP JUMPDEST PUSH0 PUSH1 0x20 DUP3 DUP5 SUB SLT ISZERO PUSH2 0x3FEF JUMPI PUSH0 DUP1 REVERT JUMPDEST POP CALLDATALOAD SWAP2 SWAP1 POP JUMP JUMPDEST PUSH0 DUP1 PUSH0 DUP1 PUSH0 DUP1 PUSH1 0xC0 DUP8 DUP10 SUB SLT ISZERO PUSH2 0x400B JUMPI PUSH0 DUP1 REVERT JUMPDEST DUP7 CALLDATALOAD PUSH8 0xFFFFFFFFFFFFFFFF DUP1 DUP3 GT ISZERO PUSH2 0x4022 JUMPI PUSH0 DUP1 REVERT JUMPDEST PUSH2 0x402E DUP11 DUP4 DUP12 ADD PUSH2 0x3E6A JUMP JUMPDEST SWAP8 POP PUSH2 0x403C PUSH1 0x20 DUP11 ADD PUSH2 0x3E27 JUMP JUMPDEST SWAP7 POP PUSH1 0x40 DUP10 ADD CALLDATALOAD SWAP2 POP DUP1 DUP3 GT ISZERO PUSH2 0x4051 JUMPI PUSH0 DUP1 REVERT JUMPDEST PUSH2 0x405D DUP11 DUP4 DUP12 ADD PUSH2 0x3E6A JUMP JUMPDEST SWAP6 POP PUSH1 0x60 DUP10 ADD CALLDATALOAD SWAP5 POP PUSH1 0x80 DUP10 ADD CALLDATALOAD SWAP4 POP PUSH1 0xA0 DUP10 ADD CALLDATALOAD SWAP2 POP DUP1 DUP3 GT ISZERO PUSH2 0x4080 JUMPI PUSH0 DUP1 REVERT JUMPDEST POP PUSH2 0x408D DUP10 DUP3 DUP11 ADD PUSH2 0x3E6A JUMP JUMPDEST SWAP2 POP POP SWAP3 SWAP6 POP SWAP3 SWAP6 POP SWAP3 SWAP6 JUMP JUMPDEST PUSH0 DUP2 MLOAD DUP1 DUP5 MSTORE PUSH0 JUMPDEST DUP2 DUP2 LT ISZERO PUSH2 0x40BE JUMPI PUSH1 0x20 DUP2 DUP6 ADD DUP2 ADD MLOAD DUP7 DUP4 ADD DUP3 ADD MSTORE ADD PUSH2 0x40A2 JUMP JUMPDEST POP PUSH0 PUSH1 0x20 DUP3 DUP7 ADD ADD MSTORE PUSH1 0x20 PUSH1 0x1F NOT PUSH1 0x1F DUP4 ADD AND DUP6 ADD ADD SWAP2 POP POP SWAP3 SWAP2 POP POP JUMP JUMPDEST PUSH0 PUSH2 0x100 DUP1 DUP4 MSTORE PUSH2 0x40F0 DUP2 DUP5 ADD DUP13 PUSH2 0x409A JUMP JUMPDEST SWAP1 POP DUP3 DUP2 SUB PUSH1 0x20 DUP5 ADD MSTORE PUSH2 0x4104 DUP2 DUP12 PUSH2 0x409A JUMP JUMPDEST PUSH1 0x1 PUSH1 0x1 PUSH1 0xA0 SHL SUB DUP11 AND PUSH1 0x40 DUP6 ADD MSTORE DUP4 DUP2 SUB PUSH1 0x60 DUP6 ADD MSTORE SWAP1 POP PUSH2 0x4127 DUP2 DUP10 PUSH2 0x409A JUMP JUMPDEST SWAP1 POP DUP3 DUP2 SUB PUSH1 0x80 DUP5 ADD MSTORE PUSH2 0x413B DUP2 DUP9 PUSH2 0x409A JUMP JUMPDEST SWAP1 POP DUP3 DUP2 SUB PUSH1 0xA0 DUP5 ADD MSTORE PUSH2 0x414F DUP2 DUP8 PUSH2 0x409A JUMP JUMPDEST PUSH1 0xC0 DUP5 ADD SWAP6 SWAP1 SWAP6 MSTORE POP POP PUSH1 0xE0 ADD MSTORE SWAP7 SWAP6 POP POP POP POP POP POP JUMP JUMPDEST DUP1 CALLDATALOAD DUP1 ISZERO ISZERO DUP2 EQ PUSH2 0xE57 JUMPI PUSH0 DUP1 REVERT JUMPDEST PUSH0 DUP1 PUSH0 DUP1 PUSH0 DUP1 PUSH0 DUP1 PUSH2 0x100 DUP10 DUP12 SUB SLT ISZERO PUSH2 0x418E JUMPI PUSH0 DUP1 REVERT JUMPDEST DUP9 CALLDATALOAD PUSH8 0xFFFFFFFFFFFFFFFF DUP1 DUP3 GT ISZERO PUSH2 0x41A5 JUMPI PUSH0 DUP1 REVERT JUMPDEST PUSH2 0x41B1 DUP13 DUP4 DUP14 ADD PUSH2 0x3E6A JUMP JUMPDEST SWAP10 POP PUSH2 0x41BF PUSH1 0x20 DUP13 ADD PUSH2 0x3E27 JUMP JUMPDEST SWAP9 POP PUSH2 0x41CD PUSH1 0x40 DUP13 ADD PUSH2 0x4167 JUMP JUMPDEST SWAP8 POP PUSH2 0x41DB PUSH1 0x60 DUP13 ADD PUSH2 0x4167 JUMP JUMPDEST SWAP7 POP PUSH2 0x41E9 PUSH1 0x80 DUP13 ADD PUSH2 0x4167 JUMP JUMPDEST SWAP6 POP PUSH1 0xA0 DUP12 ADD CALLDATALOAD SWAP2 POP DUP1 DUP3 GT ISZERO PUSH2 0x41FE JUMPI PUSH0 DUP1 REVERT JUMPDEST PUSH2 0x420A DUP13 DUP4 DUP14 ADD PUSH2 0x3E6A JUMP JUMPDEST SWAP5 POP PUSH1 0xC0 DUP12 ADD CALLDATALOAD SWAP2 POP DUP1 DUP3 GT ISZERO PUSH2 0x421F JUMPI PUSH0 DUP1 REVERT JUMPDEST PUSH2 0x422B DUP13 DUP4 DUP14 ADD PUSH2 0x3E6A JUMP JUMPDEST SWAP4 POP PUSH1 0xE0 DUP12 ADD CALLDATALOAD SWAP2 POP DUP1 DUP3 GT ISZERO PUSH2 0x4240 JUMPI PUSH0 DUP1 REVERT JUMPDEST POP PUSH2 0x424D DUP12 DUP3 DUP13 ADD PUSH2 0x3E6A JUMP JUMPDEST SWAP2 POP POP SWAP3 SWAP6 SWAP9 POP SWAP3 SWAP6 SWAP9 SWAP1 SWAP4 SWAP7 POP JUMP JUMPDEST PUSH0 DUP1 PUSH0 DUP1 PUSH0 PUSH1 0xA0 DUP7 DUP9 SUB SLT ISZERO PUSH2 0x4271 JUMPI PUSH0 DUP1 REVERT JUMPDEST PUSH2 0x427A DUP7 PUSH2 0x3E27 JUMP JUMPDEST SWAP5 POP PUSH1 0x20 DUP7 ADD CALLDATALOAD PUSH8 0xFFFFFFFFFFFFFFFF DUP1 DUP3 GT ISZERO PUSH2 0x4296 JUMPI PUSH0 DUP1 REVERT JUMPDEST PUSH2 0x42A2 DUP10 DUP4 DUP11 ADD PUSH2 0x3E6A JUMP JUMPDEST SWAP6 POP PUSH1 0x40 DUP9 ADD CALLDATALOAD SWAP2 POP DUP1 DUP3 GT ISZERO PUSH2 0x42B7 JUMPI PUSH0 DUP1 REVERT JUMPDEST PUSH2 0x42C3 DUP10 DUP4 DUP11 ADD PUSH2 0x3E6A JUMP JUMPDEST SWAP5 POP PUSH1 0x60 DUP9 ADD CALLDATALOAD SWAP4 POP PUSH1 0x80 DUP9 ADD CALLDATALOAD SWAP2 POP DUP1 DUP3 GT ISZERO PUSH2 0x42DF JUMPI PUSH0 DUP1 REVERT JUMPDEST POP PUSH2 0x42EC DUP9 DUP3 DUP10 ADD PUSH2 0x3E6A JUMP JUMPDEST SWAP2 POP POP SWAP3 SWAP6 POP SWAP3 SWAP6 SWAP1 SWAP4 POP JUMP JUMPDEST PUSH0 PUSH1 0x20 DUP1 DUP4 ADD DUP2 DUP5 MSTORE DUP1 DUP6 MLOAD DUP1 DUP4 MSTORE PUSH1 0x40 SWAP3 POP DUP3 DUP7 ADD SWAP2 POP DUP3 DUP2 PUSH1 0x5 SHL DUP8 ADD ADD DUP5 DUP9 ADD PUSH0 JUMPDEST DUP4 DUP2 LT ISZERO PUSH2 0x435D JUMPI DUP9 DUP4 SUB PUSH1 0x3F NOT ADD DUP6 MSTORE DUP2 MLOAD DUP1 MLOAD DUP5 MSTORE DUP8 ADD MLOAD DUP8 DUP5 ADD DUP8 SWAP1 MSTORE PUSH2 0x434A DUP8 DUP6 ADD DUP3 PUSH2 0x409A JUMP JUMPDEST SWAP6 DUP9 ADD SWAP6 SWAP4 POP POP SWAP1 DUP7 ADD SWAP1 PUSH1 0x1 ADD PUSH2 0x431E JUMP JUMPDEST POP SWAP1 SWAP9 SWAP8 POP POP POP POP POP POP POP POP JUMP JUMPDEST PUSH0 DUP1 PUSH1 0x40 DUP4 DUP6 SUB SLT ISZERO PUSH2 0x437C JUMPI PUSH0 DUP1 REVERT JUMPDEST PUSH2 0x4385 DUP4 PUSH2 0x3E27 JUMP JUMPDEST SWAP5 PUSH1 0x20 SWAP4 SWAP1 SWAP4 ADD CALLDATALOAD SWAP4 POP POP POP JUMP JUMPDEST DUP3 DUP2 MSTORE PUSH1 0x40 PUSH1 0x20 DUP3 ADD MSTORE PUSH0 PUSH2 0x43AB PUSH1 0x40 DUP4 ADD DUP5 PUSH2 0x409A JUMP JUMPDEST SWAP5 SWAP4 POP POP POP POP JUMP JUMPDEST PUSH1 0xC0 DUP2 MSTORE PUSH0 PUSH2 0x43C5 PUSH1 0xC0 DUP4 ADD DUP10 PUSH2 0x409A JUMP JUMPDEST PUSH1 0x1 PUSH1 0x1 PUSH1 0xA0 SHL SUB DUP9 AND PUSH1 0x20 DUP5 ADD MSTORE DUP3 DUP2 SUB PUSH1 0x40 DUP5 ADD MSTORE PUSH2 0x43E6 DUP2 DUP9 PUSH2 0x409A JUMP JUMPDEST SWAP1 POP DUP6 PUSH1 0x60 DUP5 ADD MSTORE DUP5 PUSH1 0x80 DUP5 ADD MSTORE DUP3 DUP2 SUB PUSH1 0xA0 DUP5 ADD MSTORE PUSH2 0x4406 DUP2 DUP6 PUSH2 0x409A JUMP JUMPDEST SWAP10 SWAP9 POP POP POP POP POP POP POP POP POP JUMP JUMPDEST PUSH1 0x20 DUP2 MSTORE PUSH0 DUP3 MLOAD PUSH1 0xC0 PUSH1 0x20 DUP5 ADD MSTORE PUSH2 0x442E PUSH1 0xE0 DUP5 ADD DUP3 PUSH2 0x409A JUMP JUMPDEST SWAP1 POP PUSH1 0x1 DUP1 PUSH1 0xA0 SHL SUB PUSH1 0x20 DUP6 ADD MLOAD AND PUSH1 0x40 DUP5 ADD MSTORE PUSH1 0x40 DUP5 ADD MLOAD PUSH1 0x1F NOT DUP1 DUP6 DUP5 SUB ADD PUSH1 0x60 DUP7 ADD MSTORE PUSH2 0x445E DUP4 DUP4 PUSH2 0x409A JUMP JUMPDEST SWAP3 POP PUSH1 0x60 DUP7 ADD MLOAD PUSH1 0x80 DUP7 ADD MSTORE PUSH1 0x80 DUP7 ADD MLOAD PUSH1 0xA0 DUP7 ADD MSTORE PUSH1 0xA0 DUP7 ADD MLOAD SWAP2 POP DUP1 DUP6 DUP5 SUB ADD PUSH1 0xC0 DUP7 ADD MSTORE POP PUSH2 0x4490 DUP3 DUP3 PUSH2 0x409A JUMP JUMPDEST SWAP6 SWAP5 POP POP POP POP POP JUMP JUMPDEST PUSH0 DUP1 PUSH1 0x40 DUP4 DUP6 SUB SLT ISZERO PUSH2 0x44AA JUMPI PUSH0 DUP1 REVERT JUMPDEST DUP3 CALLDATALOAD PUSH8 0xFFFFFFFFFFFFFFFF DUP2 GT ISZERO PUSH2 0x44C0 JUMPI PUSH0 DUP1 REVERT JUMPDEST PUSH2 0x44CC DUP6 DUP3 DUP7 ADD PUSH2 0x3E6A JUMP JUMPDEST SWAP3 POP POP PUSH2 0x44DB PUSH1 0x20 DUP5 ADD PUSH2 0x3E27 JUMP JUMPDEST SWAP1 POP SWAP3 POP SWAP3 SWAP1 POP JUMP JUMPDEST PUSH0 PUSH1 0x20 DUP1 DUP4 ADD DUP2 DUP5 MSTORE DUP1 DUP6 MLOAD DUP1 DUP4 MSTORE PUSH1 0x40 SWAP3 POP DUP3 DUP7 ADD SWAP2 POP DUP3 DUP2 PUSH1 0x5 SHL DUP8 ADD ADD DUP5 DUP9 ADD PUSH0 JUMPDEST DUP4 DUP2 LT ISZERO PUSH2 0x435D JUMPI PUSH1 0x3F NOT DUP10 DUP5 SUB ADD DUP6 MSTORE DUP2 MLOAD PUSH2 0x100 DUP2 MLOAD DUP2 DUP7 MSTORE PUSH2 0x4530 DUP3 DUP8 ADD DUP3 PUSH2 0x409A JUMP JUMPDEST SWAP2 POP POP DUP9 DUP3 ADD MLOAD PUSH2 0x454B DUP11 DUP8 ADD DUP3 PUSH1 0x1 PUSH1 0x1 PUSH1 0xA0 SHL SUB AND SWAP1 MSTORE JUMP JUMPDEST POP DUP8 DUP3 ADD MLOAD PUSH1 0x1 PUSH1 0x1 PUSH1 0xA0 SHL SUB AND DUP6 DUP10 ADD MSTORE PUSH1 0x60 DUP1 DUP4 ADD MLOAD DUP7 DUP4 SUB DUP3 DUP9 ADD MSTORE PUSH2 0x4574 DUP4 DUP3 PUSH2 0x409A JUMP JUMPDEST SWAP3 POP POP POP PUSH1 0x80 DUP1 DUP4 ADD MLOAD DUP7 DUP4 SUB DUP3 DUP9 ADD MSTORE PUSH2 0x458F DUP4 DUP3 PUSH2 0x409A JUMP JUMPDEST SWAP3 POP POP POP PUSH1 0xA0 DUP1 DUP4 ADD MLOAD DUP7 DUP4 SUB DUP3 DUP9 ADD MSTORE PUSH2 0x45AA DUP4 DUP3 PUSH2 0x409A JUMP JUMPDEST SWAP3 POP POP POP PUSH1 0xC0 DUP1 DUP4 ADD MLOAD DUP7 DUP4 SUB DUP3 DUP9 ADD MSTORE PUSH2 0x45C5 DUP4 DUP3 PUSH2 0x409A JUMP JUMPDEST SWAP3 POP POP POP PUSH1 0xE0 DUP1 DUP4 ADD MLOAD SWAP3 POP DUP6 DUP3 SUB DUP2 DUP8 ADD MSTORE POP PUSH2 0x45E3 DUP2 DUP4 PUSH2 0x409A JUMP JUMPDEST SWAP7 DUP10 ADD SWAP7 SWAP5 POP POP POP SWAP1 DUP7 ADD SWAP1 PUSH1 0x1 ADD PUSH2 0x4509 JUMP JUMPDEST PUSH1 0x1 PUSH1 0x1 PUSH1 0xA0 SHL SUB DUP7 AND DUP2 MSTORE PUSH1 0xA0 PUSH1 0x20 DUP3 ADD DUP2 SWAP1 MSTORE PUSH0 SWAP1 PUSH2 0x461A SWAP1 DUP4 ADD DUP8 PUSH2 0x409A JUMP JUMPDEST DUP3 DUP2 SUB PUSH1 0x40 DUP5 ADD MSTORE PUSH2 0x462C DUP2 DUP8 PUSH2 0x409A JUMP JUMPDEST SWAP1 POP DUP3 DUP2 SUB PUSH1 0x60 DUP5 ADD MSTORE PUSH2 0x4640 DUP2 DUP7 PUSH2 0x409A JUMP JUMPDEST SWAP2 POP POP DUP3 PUSH1 0x80 DUP4 ADD MSTORE SWAP7 SWAP6 POP POP POP POP POP POP JUMP JUMPDEST PUSH0 DUP1 PUSH0 DUP1 PUSH0 DUP1 PUSH0 DUP1 PUSH2 0x100 DUP10 DUP12 SUB SLT ISZERO PUSH2 0x466B JUMPI PUSH0 DUP1 REVERT JUMPDEST DUP9 CALLDATALOAD PUSH8 0xFFFFFFFFFFFFFFFF DUP1 DUP3 GT ISZERO PUSH2 0x4682 JUMPI PUSH0 DUP1 REVERT JUMPDEST PUSH2 0x468E DUP13 DUP4 DUP14 ADD PUSH2 0x3E6A JUMP JUMPDEST SWAP10 POP PUSH2 0x469C PUSH1 0x20 DUP13 ADD PUSH2 0x3E27 JUMP JUMPDEST SWAP9 POP PUSH2 0x46AA PUSH1 0x40 DUP13 ADD PUSH2 0x3E27 JUMP JUMPDEST SWAP8 POP PUSH1 0x60 DUP12 ADD CALLDATALOAD SWAP2 POP DUP1 DUP3 GT ISZERO PUSH2 0x46BF JUMPI PUSH0 DUP1 REVERT JUMPDEST PUSH2 0x46CB DUP13 DUP4 DUP14 ADD PUSH2 0x3E6A JUMP JUMPDEST SWAP7 POP PUSH1 0x80 DUP12 ADD CALLDATALOAD SWAP2 POP DUP1 DUP3 GT ISZERO PUSH2 0x46E0 JUMPI PUSH0 DUP1 REVERT JUMPDEST PUSH2 0x41E9 DUP13 DUP4 DUP14 ADD PUSH2 0x3E6A JUMP JUMPDEST PUSH0 PUSH2 0x100 DUP3 MLOAD DUP2 DUP6 MSTORE PUSH2 0x4701 DUP3 DUP7 ADD DUP3 PUSH2 0x409A JUMP JUMPDEST SWAP2 POP POP PUSH1 0x20 DUP4 ADD MLOAD PUSH2 0x471E PUSH1 0x20 DUP7 ADD DUP3 PUSH1 0x1 PUSH1 0x1 PUSH1 0xA0 SHL SUB AND SWAP1 MSTORE JUMP JUMPDEST POP PUSH1 0x40 DUP4 ADD MLOAD PUSH2 0x4732 PUSH1 0x40 DUP7 ADD DUP3 ISZERO ISZERO SWAP1 MSTORE JUMP JUMPDEST POP PUSH1 0x60 DUP4 ADD MLOAD PUSH2 0x4746 PUSH1 0x60 DUP7 ADD DUP3 ISZERO ISZERO SWAP1 MSTORE JUMP JUMPDEST POP PUSH1 0x80 DUP4 ADD MLOAD PUSH2 0x475A PUSH1 0x80 DUP7 ADD DUP3 ISZERO ISZERO SWAP1 MSTORE JUMP JUMPDEST POP PUSH1 0xA0 DUP4 ADD MLOAD DUP5 DUP3 SUB PUSH1 0xA0 DUP7 ADD MSTORE PUSH2 0x4772 DUP3 DUP3 PUSH2 0x409A JUMP JUMPDEST SWAP2 POP POP PUSH1 0xC0 DUP4 ADD MLOAD DUP5 DUP3 SUB PUSH1 0xC0 DUP7 ADD MSTORE PUSH2 0x478C DUP3 DUP3 PUSH2 0x409A JUMP JUMPDEST SWAP2 POP POP PUSH1 0xE0 DUP4 ADD MLOAD DUP5 DUP3 SUB PUSH1 0xE0 DUP7 ADD MSTORE PUSH2 0x4490 DUP3 DUP3 PUSH2 0x409A JUMP JUMPDEST PUSH1 0x40 DUP2 MSTORE PUSH0 DUP4 MLOAD PUSH2 0x100 DUP1 PUSH1 0x40 DUP6 ADD MSTORE PUSH2 0x47C4 PUSH2 0x140 DUP6 ADD DUP4 PUSH2 0x409A JUMP JUMPDEST SWAP2 POP PUSH1 0x20 DUP7 ADD MLOAD PUSH1 0x3F NOT DUP1 DUP7 DUP6 SUB ADD PUSH1 0x60 DUP8 ADD MSTORE PUSH2 0x47E2 DUP5 DUP4 PUSH2 0x409A JUMP JUMPDEST SWAP4 POP PUSH1 0x40 DUP9 ADD MLOAD SWAP2 POP PUSH2 0x4800 PUSH1 0x80 DUP8 ADD DUP4 PUSH1 0x1 PUSH1 0x1 PUSH1 0xA0 SHL SUB AND SWAP1 MSTORE JUMP JUMPDEST PUSH1 0x60 DUP9 ADD MLOAD SWAP2 POP DUP1 DUP7 DUP6 SUB ADD PUSH1 0xA0 DUP8 ADD MSTORE PUSH2 0x481B DUP5 DUP4 PUSH2 0x409A JUMP JUMPDEST SWAP4 POP PUSH1 0x80 DUP9 ADD MLOAD SWAP2 POP DUP1 DUP7 DUP6 SUB ADD PUSH1 0xC0 DUP8 ADD MSTORE PUSH2 0x4838 DUP5 DUP4 PUSH2 0x409A JUMP JUMPDEST SWAP4 POP PUSH1 0xA0 DUP9 ADD MLOAD SWAP2 POP DUP1 DUP7 DUP6 SUB ADD PUSH1 0xE0 DUP8 ADD MSTORE POP PUSH2 0x4856 DUP4 DUP3 PUSH2 0x409A JUMP JUMPDEST SWAP3 POP POP PUSH1 0xC0 DUP7 ADD MLOAD DUP2 DUP6 ADD MSTORE POP PUSH1 0xE0 DUP6 ADD MLOAD PUSH2 0x120 DUP5 ADD MSTORE DUP3 DUP2 SUB PUSH1 0x20 DUP5 ADD MSTORE PUSH2 0x4490 DUP2 DUP6 PUSH2 0x46EC JUMP JUMPDEST PUSH0 PUSH2 0x100 DUP1 DUP4 MSTORE PUSH2 0x4893 DUP2 DUP5 ADD DUP13 PUSH2 0x409A JUMP JUMPDEST PUSH1 0x1 PUSH1 0x1 PUSH1 0xA0 SHL SUB DUP12 AND PUSH1 0x20 DUP6 ADD MSTORE DUP10 ISZERO ISZERO PUSH1 0x40 DUP6 ADD MSTORE DUP9 ISZERO ISZERO PUSH1 0x60 DUP6 ADD MSTORE DUP8 ISZERO ISZERO PUSH1 0x80 DUP6 ADD MSTORE DUP4 DUP2 SUB PUSH1 0xA0 DUP6 ADD MSTORE SWAP1 POP PUSH2 0x48CE DUP2 DUP8 PUSH2 0x409A JUMP JUMPDEST SWAP1 POP DUP3 DUP2 SUB PUSH1 0xC0 DUP5 ADD MSTORE PUSH2 0x48E2 DUP2 DUP7 PUSH2 0x409A JUMP JUMPDEST SWAP1 POP DUP3 DUP2 SUB PUSH1 0xE0 DUP5 ADD MSTORE PUSH2 0x48F6 DUP2 DUP6 PUSH2 0x409A JUMP JUMPDEST SWAP12 SWAP11 POP POP POP POP POP POP POP POP POP POP POP JUMP JUMPDEST PUSH1 0x20 DUP1 DUP3 MSTORE DUP3 MLOAD PUSH1 0x1 PUSH1 0x1 PUSH1 0xA0 SHL SUB AND DUP3 DUP3 ADD MSTORE DUP3 ADD MLOAD PUSH1 0xA0 PUSH1 0x40 DUP4 ADD MSTORE PUSH0 SWAP1 PUSH2 0x4932 PUSH1 0xC0 DUP5 ADD DUP3 PUSH2 0x409A JUMP JUMPDEST SWAP1 POP PUSH1 0x40 DUP5 ADD MLOAD PUSH1 0x1F NOT DUP1 DUP6 DUP5 SUB ADD PUSH1 0x60 DUP7 ADD MSTORE PUSH2 0x4950 DUP4 DUP4 PUSH2 0x409A JUMP JUMPDEST SWAP3 POP PUSH1 0x60 DUP7 ADD MLOAD SWAP2 POP DUP1 DUP6 DUP5 SUB ADD PUSH1 0x80 DUP7 ADD MSTORE POP PUSH2 0x496E DUP3 DUP3 PUSH2 0x409A JUMP JUMPDEST SWAP2 POP POP PUSH1 0x80 DUP5 ADD MLOAD PUSH1 0xA0 DUP5 ADD MSTORE DUP1 SWAP2 POP POP SWAP3 SWAP2 POP POP JUMP JUMPDEST PUSH0 PUSH2 0x100 DUP1 DUP4 MSTORE PUSH2 0x4998 DUP2 DUP5 ADD DUP13 PUSH2 0x409A JUMP JUMPDEST PUSH1 0x1 PUSH1 0x1 PUSH1 0xA0 SHL SUB DUP12 DUP2 AND PUSH1 0x20 DUP7 ADD MSTORE DUP11 AND PUSH1 0x40 DUP6 ADD MSTORE DUP4 DUP2 SUB PUSH1 0x60 DUP6 ADD MSTORE SWAP1 POP PUSH2 0x49C3 DUP2 DUP10 PUSH2 0x409A JUMP JUMPDEST SWAP1 POP DUP3 DUP2 SUB PUSH1 0x80 DUP5 ADD MSTORE PUSH2 0x49D7 DUP2 DUP9 PUSH2 0x409A JUMP JUMPDEST SWAP1 POP DUP3 DUP2 SUB PUSH1 0xA0 DUP5 ADD MSTORE PUSH2 0x48CE DUP2 DUP8 PUSH2 0x409A JUMP JUMPDEST PUSH1 0x20 DUP1 DUP3 MSTORE PUSH1 0x2A SWAP1 DUP3 ADD MSTORE PUSH32 0x41636365737365626C65206F6E6C7920666F72204F776E65727320616E642053 PUSH1 0x40 DUP3 ADD MSTORE PUSH10 0x757065724F776E657273 PUSH1 0xB0 SHL PUSH1 0x60 DUP3 ADD MSTORE PUSH1 0x80 ADD SWAP1 JUMP JUMPDEST PUSH1 0x20 DUP1 DUP3 MSTORE PUSH1 0x42 SWAP1 DUP3 ADD MSTORE PUSH32 0x4F6E6C792074686520446F63746F72732063616E2063616C6C20746869732066 PUSH1 0x40 DUP3 ADD MSTORE PUSH32 0x756E6374696F6E2064756520746F20736563757269747920726561736F6E7321 PUSH1 0x60 DUP3 ADD MSTORE PUSH2 0x2121 PUSH1 0xF0 SHL PUSH1 0x80 DUP3 ADD MSTORE PUSH1 0xA0 ADD SWAP1 JUMP JUMPDEST PUSH1 0x20 DUP1 DUP3 MSTORE PUSH1 0x26 SWAP1 DUP3 ADD MSTORE PUSH32 0x4B696E646C792066696C6C20616C6C20746865206D616E6461746F7279206665 PUSH1 0x40 DUP3 ADD MSTORE PUSH6 0x696C64732121 PUSH1 0xD0 SHL PUSH1 0x60 DUP3 ADD MSTORE PUSH1 0x80 ADD SWAP1 JUMP JUMPDEST PUSH1 0x20 DUP1 DUP3 MSTORE PUSH1 0x6C SWAP1 DUP3 ADD MSTORE PUSH32 0x496E636F72726563742050617469656E742077616C6C65742061646472657373 PUSH1 0x40 DUP3 ADD MSTORE PUSH32 0x206F72205468652050617469656E742064657461696C20666F72207468652061 PUSH1 0x60 DUP3 ADD MSTORE PUSH32 0x6464726573732070726F7669646564206E6F7420617661696C61626C6520696E PUSH1 0x80 DUP3 ADD MSTORE PUSH12 0x2074686520636861696E2121 PUSH1 0xA0 SHL PUSH1 0xA0 DUP3 ADD MSTORE PUSH1 0xC0 ADD SWAP1 JUMP JUMPDEST PUSH1 0x1 DUP2 DUP2 SHR SWAP1 DUP3 AND DUP1 PUSH2 0x4B8F JUMPI PUSH1 0x7F DUP3 AND SWAP2 POP JUMPDEST PUSH1 0x20 DUP3 LT DUP2 SUB PUSH2 0x4BAD JUMPI PUSH4 0x4E487B71 PUSH1 0xE0 SHL PUSH0 MSTORE PUSH1 0x22 PUSH1 0x4 MSTORE PUSH1 0x24 PUSH0 REVERT JUMPDEST POP SWAP2 SWAP1 POP JUMP JUMPDEST PUSH1 0x1F DUP3 GT ISZERO PUSH2 0x4BF8 JUMPI PUSH0 DUP2 DUP2 MSTORE PUSH1 0x20 DUP2 KECCAK256 PUSH1 0x1F DUP6 ADD PUSH1 0x5 SHR DUP2 ADD PUSH1 0x20 DUP7 LT ISZERO PUSH2 0x4BD9 JUMPI POP DUP1 JUMPDEST PUSH1 0x1F DUP6 ADD PUSH1 0x5 SHR DUP3 ADD SWAP2 POP JUMPDEST DUP2 DUP2 LT ISZERO PUSH2 0x23CE JUMPI DUP3 DUP2 SSTORE PUSH1 0x1 ADD PUSH2 0x4BE5 JUMP JUMPDEST POP POP POP JUMP JUMPDEST DUP2 MLOAD PUSH8 0xFFFFFFFFFFFFFFFF DUP2 GT ISZERO PUSH2 0x4C17 JUMPI PUSH2 0x4C17 PUSH2 0x3E56 JUMP JUMPDEST PUSH2 0x4C2B DUP2 PUSH2 0x4C25 DUP5 SLOAD PUSH2 0x4B7B JUMP JUMPDEST DUP5 PUSH2 0x4BB3 JUMP JUMPDEST PUSH1 0x20 DUP1 PUSH1 0x1F DUP4 GT PUSH1 0x1 DUP2 EQ PUSH2 0x4C5E JUMPI PUSH0 DUP5 ISZERO PUSH2 0x4C47 JUMPI POP DUP6 DUP4 ADD MLOAD JUMPDEST PUSH0 NOT PUSH1 0x3 DUP7 SWAP1 SHL SHR NOT AND PUSH1 0x1 DUP6 SWAP1 SHL OR DUP6 SSTORE PUSH2 0x23CE JUMP JUMPDEST PUSH0 DUP6 DUP2 MSTORE PUSH1 0x20 DUP2 KECCAK256 PUSH1 0x1F NOT DUP7 AND SWAP2 JUMPDEST DUP3 DUP2 LT ISZERO PUSH2 0x4C8C JUMPI DUP9 DUP7 ADD MLOAD DUP3 SSTORE SWAP5 DUP5 ADD SWAP5 PUSH1 0x1 SWAP1 SWAP2 ADD SWAP1 DUP5 ADD PUSH2 0x4C6D JUMP JUMPDEST POP DUP6 DUP3 LT ISZERO PUSH2 0x4CA9 JUMPI DUP8 DUP6 ADD MLOAD PUSH0 NOT PUSH1 0x3 DUP9 SWAP1 SHL PUSH1 0xF8 AND SHR NOT AND DUP2 SSTORE JUMPDEST POP POP POP POP POP PUSH1 0x1 SWAP1 DUP2 SHL ADD SWAP1 SSTORE POP JUMP JUMPDEST PUSH4 0x4E487B71 PUSH1 0xE0 SHL PUSH0 MSTORE PUSH1 0x11 PUSH1 0x4 MSTORE PUSH1 0x24 PUSH0 REVERT JUMPDEST DUP1 DUP3 ADD DUP1 DUP3 GT ISZERO PUSH2 0x1C09 JUMPI PUSH2 0x1C09 PUSH2 0x4CB9 JUMP JUMPDEST DUP2 DUP2 SUB DUP2 DUP2 GT ISZERO PUSH2 0x1C09 JUMPI PUSH2 0x1C09 PUSH2 0x4CB9 JUMP JUMPDEST PUSH1 0x20 DUP1 DUP3 MSTORE PUSH1 0x2F SWAP1 DUP3 ADD MSTORE PUSH32 0x4B696E646C792066696C6C20616C6C20746865206D616E6461746F7279206665 PUSH1 0x40 DUP3 ADD MSTORE PUSH15 0x696C64732070726F7065726C792121 PUSH1 0x88 SHL PUSH1 0x60 DUP3 ADD MSTORE PUSH1 0x80 ADD SWAP1 JUMP JUMPDEST PUSH1 0x20 DUP1 DUP3 MSTORE PUSH1 0x6C SWAP1 DUP3 ADD MSTORE PUSH32 0x496E636F727265637420446F63746F7227732077616C6C657420616464726573 PUSH1 0x40 DUP3 ADD MSTORE PUSH32 0x73206F722054686520446F63746F722064657461696C20666F72207468652061 PUSH1 0x60 DUP3 ADD MSTORE PUSH32 0x6464726573732070726F7669646564206E6F7420617661696C61626C6520696E PUSH1 0x80 DUP3 ADD MSTORE PUSH12 0x2074686520636861696E2121 PUSH1 0xA0 SHL PUSH1 0xA0 DUP3 ADD MSTORE PUSH1 0xC0 ADD SWAP1 JUMP JUMPDEST PUSH0 PUSH1 0x1 DUP3 ADD PUSH2 0x4DEB JUMPI PUSH2 0x4DEB PUSH2 0x4CB9 JUMP JUMPDEST POP PUSH1 0x1 ADD SWAP1 JUMP JUMPDEST PUSH0 DUP3 PUSH2 0x4E0C JUMPI PUSH4 0x4E487B71 PUSH1 0xE0 SHL PUSH0 MSTORE PUSH1 0x12 PUSH1 0x4 MSTORE PUSH1 0x24 PUSH0 REVERT JUMPDEST POP DIV SWAP1 JUMP JUMPDEST PUSH1 0x20 DUP1 DUP3 MSTORE PUSH1 0x1E SWAP1 DUP3 ADD MSTORE PUSH32 0x57616C6C657420416464726573732063616E6E6F7420626520656D7074790000 PUSH1 0x40 DUP3 ADD MSTORE PUSH1 0x60 ADD SWAP1 JUMP JUMPDEST PUSH1 0x20 DUP1 DUP3 MSTORE PUSH1 0x78 SWAP1 DUP3 ADD MSTORE PUSH32 0x496E636F727265637420446F63746F722077616C6C6574206164647265737320 PUSH1 0x40 DUP3 ADD MSTORE PUSH32 0x6F722054686520446F63746F722064657461696C20666F722074686520616464 PUSH1 0x60 DUP3 ADD MSTORE PUSH32 0x726573732070726F7669646564206973206E6F7420636F6D706C6574656C7920 PUSH1 0x80 DUP3 ADD MSTORE PUSH32 0x617661696C61626C6520696E2074686520636861696E21210000000000000000 PUSH1 0xA0 DUP3 ADD MSTORE PUSH1 0xC0 ADD SWAP1 JUMP JUMPDEST PUSH1 0x20 DUP1 DUP3 MSTORE PUSH1 0x27 SWAP1 DUP3 ADD MSTORE PUSH32 0x596F752068617665206E6F2061636365737320746F2066657463682074686520 PUSH1 0x40 DUP3 ADD MSTORE PUSH7 0x64657461696C73 PUSH1 0xC8 SHL PUSH1 0x60 DUP3 ADD MSTORE PUSH1 0x80 ADD SWAP1 JUMP INVALID LOG2 PUSH5 0x6970667358 0x22 SLT KECCAK256 0xDB SHR PUSH9 0x1453FD9C664898EE04 0xCB REVERT 0x21 SWAP10 0x2D 0x2C MULMOD PUSH17 0x114752784D6FA546DC36127A64736F6C63 NUMBER STOP ADDMOD ISZERO STOP CALLER "},"methodIdentifiers":{"AddDoctorAccess(address)":"686e1f1b","AddDoctorPersonalInfo(string,address,string,uint256,uint256,string)":"a49b1725","AddDoctorProfessionalInfo(address,string,string,uint256,string)":"92b3141d","AddPatientsMedicalDetails(string,address,bool,bool,bool,string,string,string)":"66adec56","AddPatientsPersonalDetails(string,string,address,string,string,string,uint256,uint256)":"a980702c","DeleteDoctorAccess(address)":"04028017","DoctorAccess(address)":"bb7d6b67","DoctorsPersonalInfo(address)":"75c6a96c","Doctors_ProfessionalDetails(address)":"bbcaa637","EditDoctorPersonalDetails(string,address,string,uint256,uint256,string)":"1a757712","EditDoctorProfessionalDetails(address,string,string,uint256,string)":"48e64d80","EditPatientPersonalDetails(string,string,address,string,string,string,uint256,uint256)":"0b103ee1","EditPatinetMedicalDetails(string,address,bool,bool,bool,string,string,string)":"34a9e6eb","HealthCondition(address,uint256)":"fe0c2a31","PatientsMedicalDetails(address)":"f243cc6a","PatientsPersonalDetails(address)":"1f650cc9","StorePatientData(string,address)":"ac46b5b7","addOwner(address)":"7065cb48","addPatientHealthDetails(string,address,address,string,string,string,string,string)":"d1f2f0e5","getAge(uint256)":"0e37008a","getDoctorPersonalDetails(address)":"a96a6b21","getDoctorProfessionalDetails(address)":"f7e901d3","getPatientDetails(address)":"efe2ccc1","getPatientHealthDetails(address)":"b5f63ec5","getPatientStored(address)":"55d2df12","getYear(uint256)":"92d66313","isDoctor(address)":"996440c6","isOwner(address)":"2f54bf6e","owner(address)":"666e1b39","patientsStoredData(address,uint256)":"6e2c0ffe","removeOwner(address)":"173825d9","superOwner()":"87dcd2b6","totalAdmin()":"64319e33","totalDoctors()":"65b44d7e","totalPatient()":"92c2808f"}}}}}