{"src/contracts/Patient.sol":{"PatientDetails":{"abi":[{"inputs":[],"stateMutability":"nonpayable","type":"constructor"},{"inputs":[{"internalType":"address","name":"_walletAddress","type":"address"}],"name":"AddDoctorAccess","outputs":[],"stateMutability":"nonpayable","type":"function"},{"inputs":[{"internalType":"string","name":"_name","type":"string"},{"internalType":"address","name":"_walletAddress","type":"address"},{"internalType":"string","name":"_dateOfBirth","type":"string"},{"internalType":"uint256","name":"_age","type":"uint256"},{"internalType":"uint256","name":"_phoneNumber","type":"uint256"},{"internalType":"string","name":"_email","type":"string"}],"name":"AddDoctorPersonalInfo","outputs":[],"stateMutability":"nonpayable","type":"function"},{"inputs":[{"internalType":"address","name":"_walletAddress","type":"address"},{"internalType":"string","name":"_MedicalLicenseNumber","type":"string"},{"internalType":"string","name":"_Specialization","type":"string"},{"internalType":"uint256","name":"_ExperienceInYear","type":"uint256"},{"internalType":"string","name":"_MedicalSchoolAttended","type":"string"}],"name":"AddDoctorProfessionalInfo","outputs":[],"stateMutability":"nonpayable","type":"function"},{"inputs":[{"internalType":"string","name":"_date","type":"string"},{"internalType":"address","name":"_walletAddress","type":"address"},{"internalType":"bool","name":"_isAlcoholic","type":"bool"},{"internalType":"bool","name":"_isSmoker","type":"bool"},{"internalType":"bool","name":"_isSmokelessTobaccoUser","type":"bool"},{"internalType":"string","name":"_surgicalHistory_ifAny","type":"string"},{"internalType":"string","name":"_physicalActivityLevel","type":"string"},{"internalType":"string","name":"_pastMedicationDetails_IfAny","type":"string"}],"name":"AddPatientsMedicalDetails","outputs":[],"stateMutability":"nonpayable","type":"function"},{"inputs":[{"internalType":"string","name":"date","type":"string"},{"internalType":"string","name":"_name","type":"string"},{"internalType":"address","name":"_walletAddress","type":"address"},{"internalType":"string","name":"_gender","type":"string"},{"internalType":"string","name":"_Occupation","type":"string"},{"internalType":"string","name":"_dateOfBirth","type":"string"},{"internalType":"uint256","name":"_age","type":"uint256"},{"internalType":"uint256","name":"number","type":"uint256"}],"name":"AddPatientsPersonalDetails","outputs":[],"stateMutability":"nonpayable","type":"function"},{"inputs":[{"internalType":"address","name":"_walletAddress","type":"address"}],"name":"DeleteDoctorAccess","outputs":[],"stateMutability":"nonpayable","type":"function"},{"inputs":[{"internalType":"address","name":"","type":"address"}],"name":"DoctorAccess","outputs":[{"internalType":"bool","name":"","type":"bool"}],"stateMutability":"view","type":"function"},{"inputs":[{"internalType":"address","name":"","type":"address"}],"name":"DoctorsPersonalInfo","outputs":[{"internalType":"string","name":"name","type":"string"},{"internalType":"address","name":"walletAddress","type":"address"},{"internalType":"string","name":"dateOfBirth","type":"string"},{"internalType":"uint256","name":"age","type":"uint256"},{"internalType":"uint256","name":"phoneNumber","type":"uint256"},{"internalType":"string","name":"email","type":"string"}],"stateMutability":"view","type":"function"},{"inputs":[{"internalType":"address","name":"","type":"address"}],"name":"Doctors_ProfessionalDetails","outputs":[{"internalType":"address","name":"walletAddress","type":"address"},{"internalType":"string","name":"MedicalSchoolAttended","type":"string"},{"internalType":"string","name":"MedicalLicenseNumber","type":"string"},{"internalType":"string","name":"Specialization","type":"string"},{"internalType":"uint256","name":"ExperienceInYear","type":"uint256"}],"stateMutability":"view","type":"function"},{"inputs":[{"internalType":"string","name":"_name","type":"string"},{"internalType":"address","name":"_walletAddress","type":"address"},{"internalType":"string","name":"_dateOfBirth","type":"string"},{"internalType":"uint256","name":"_age","type":"uint256"},{"internalType":"uint256","name":"_phoneNumber","type":"uint256"},{"internalType":"string","name":"_email","type":"string"}],"name":"EditDoctorPersonalDetails","outputs":[],"stateMutability":"nonpayable","type":"function"},{"inputs":[{"internalType":"address","name":"_walletAddress","type":"address"},{"internalType":"string","name":"_MedicalLicenseNumber","type":"string"},{"internalType":"string","name":"_Specialization","type":"string"},{"internalType":"uint256","name":"_ExperienceInYear","type":"uint256"},{"internalType":"string","name":"_MedicalSchoolAttended","type":"string"}],"name":"EditDoctorProfessionalDetails","outputs":[],"stateMutability":"nonpayable","type":"function"},{"inputs":[{"internalType":"string","name":"_date","type":"string"},{"internalType":"string","name":"_name","type":"string"},{"internalType":"address","name":"_walletAddress","type":"address"},{"internalType":"string","name":"_gender","type":"string"},{"internalType":"string","name":"_Occupation","type":"string"},{"internalType":"string","name":"_dateOfBirth","type":"string"},{"internalType":"uint256","name":"_age","type":"uint256"},{"internalType":"uint256","name":"number","type":"uint256"}],"name":"EditPatientPersonalDetails","outputs":[],"stateMutability":"nonpayable","type":"function"},{"inputs":[{"internalType":"string","name":"_date","type":"string"},{"internalType":"address","name":"_walletAddress","type":"address"},{"internalType":"bool","name":"_isAlcoholic","type":"bool"},{"internalType":"bool","name":"_isSmoker","type":"bool"},{"internalType":"bool","name":"_isSmokelessTobaccoUser","type":"bool"},{"internalType":"string","name":"_surgicalHistory_ifAny","type":"string"},{"internalType":"string","name":"_physicalActivityLevel","type":"string"},{"internalType":"string","name":"_pastMedicationDetails_IfAny","type":"string"}],"name":"EditPatinetMedicalDetails","outputs":[],"stateMutability":"nonpayable","type":"function"},{"inputs":[{"internalType":"address","name":"","type":"address"},{"internalType":"uint256","name":"","type":"uint256"}],"name":"HealthCondition","outputs":[{"internalType":"string","name":"date","type":"string"},{"internalType":"address","name":"walletAddress","type":"address"},{"internalType":"address","name":"physician","type":"address"},{"internalType":"string","name":"Department_uint","type":"string"},{"internalType":"string","name":"BloodPressure","type":"string"},{"internalType":"string","name":"HeartRate","type":"string"},{"internalType":"string","name":"RespiratoryRate","type":"string"},{"internalType":"string","name":"Dosage","type":"string"}],"stateMutability":"view","type":"function"},{"inputs":[{"internalType":"address","name":"","type":"address"}],"name":"PatientsMedicalDetails","outputs":[{"internalType":"string","name":"date","type":"string"},{"internalType":"address","name":"walletAddress","type":"address"},{"internalType":"bool","name":"isAlcoholic","type":"bool"},{"internalType":"bool","name":"isSmoker","type":"bool"},{"internalType":"bool","name":"isSmokelessTobaccoUser","type":"bool"},{"internalType":"string","name":"surgicalHistory_ifAny","type":"string"},{"internalType":"string","name":"physicalActivityLevel","type":"string"},{"internalType":"string","name":"pastMedicationDetails_IfAny","type":"string"}],"stateMutability":"view","type":"function"},{"inputs":[{"internalType":"address","name":"","type":"address"}],"name":"PatientsPersonalDetails","outputs":[{"internalType":"string","name":"date","type":"string"},{"internalType":"string","name":"name","type":"string"},{"internalType":"address","name":"walletAddress","type":"address"},{"internalType":"string","name":"gender","type":"string"},{"internalType":"string","name":"Occupation","type":"string"},{"internalType":"string","name":"dateOfBirth","type":"string"},{"internalType":"uint256","name":"age","type":"uint256"},{"internalType":"uint256","name":"phoneNumber","type":"uint256"}],"stateMutability":"view","type":"function"},{"inputs":[{"internalType":"string","name":"_dataURL","type":"string"},{"internalType":"address","name":"user","type":"address"}],"name":"StorePatientData","outputs":[],"stateMutability":"nonpayable","type":"function"},{"inputs":[{"internalType":"address","name":"_address","type":"address"}],"name":"addOwner","outputs":[],"stateMutability":"nonpayable","type":"function"},{"inputs":[{"internalType":"string","name":"_date","type":"string"},{"internalType":"address","name":"_walletAddress","type":"address"},{"internalType":"address","name":"_physician","type":"address"},{"internalType":"string","name":"_Department_uint","type":"string"},{"internalType":"string","name":"_BloodPressure","type":"string"},{"internalType":"string","name":"_HeartRate","type":"string"},{"internalType":"string","name":"_RespiratoryRate","type":"string"},{"internalType":"string","name":"_Dosage","type":"string"}],"name":"addPatientHealthDetails","outputs":[],"stateMutability":"nonpayable","type":"function"},{"inputs":[{"internalType":"uint256","name":"_yearOfBirth","type":"uint256"}],"name":"getAge","outputs":[{"internalType":"uint256","name":"","type":"uint256"}],"stateMutability":"view","type":"function"},{"inputs":[{"internalType":"address","name":"_walletAddress","type":"address"}],"name":"getDoctorPersonalDetails","outputs":[{"components":[{"internalType":"string","name":"name","type":"string"},{"internalType":"address","name":"walletAddress","type":"address"},{"internalType":"string","name":"dateOfBirth","type":"string"},{"internalType":"uint256","name":"age","type":"uint256"},{"internalType":"uint256","name":"phoneNumber","type":"uint256"},{"internalType":"string","name":"email","type":"string"}],"internalType":"struct PatientDetails.DoctorPersonalInfo","name":"","type":"tuple"}],"stateMutability":"view","type":"function"},{"inputs":[{"internalType":"address","name":"_walletAddress","type":"address"}],"name":"getDoctorProfessionalDetails","outputs":[{"components":[{"internalType":"address","name":"walletAddress","type":"address"},{"internalType":"string","name":"MedicalSchoolAttended","type":"string"},{"internalType":"string","name":"MedicalLicenseNumber","type":"string"},{"internalType":"string","name":"Specialization","type":"string"},{"internalType":"uint256","name":"ExperienceInYear","type":"uint256"}],"internalType":"struct PatientDetails.DoctorProfessionalDetails","name":"","type":"tuple"}],"stateMutability":"view","type":"function"},{"inputs":[{"internalType":"address","name":"_walletAddress","type":"address"}],"name":"getPatientDetails","outputs":[{"components":[{"internalType":"string","name":"date","type":"string"},{"internalType":"string","name":"name","type":"string"},{"internalType":"address","name":"walletAddress","type":"address"},{"internalType":"string","name":"gender","type":"string"},{"internalType":"string","name":"Occupation","type":"string"},{"internalType":"string","name":"dateOfBirth","type":"string"},{"internalType":"uint256","name":"age","type":"uint256"},{"internalType":"uint256","name":"phoneNumber","type":"uint256"}],"internalType":"struct PatientDetails.PatientPersonalDetails","name":"","type":"tuple"},{"components":[{"internalType":"string","name":"date","type":"string"},{"internalType":"address","name":"walletAddress","type":"address"},{"internalType":"bool","name":"isAlcoholic","type":"bool"},{"internalType":"bool","name":"isSmoker","type":"bool"},{"internalType":"bool","name":"isSmokelessTobaccoUser","type":"bool"},{"internalType":"string","name":"surgicalHistory_ifAny","type":"string"},{"internalType":"string","name":"physicalActivityLevel","type":"string"},{"internalType":"string","name":"pastMedicationDetails_IfAny","type":"string"}],"internalType":"struct PatientDetails.PatientMedicalDetails","name":"","type":"tuple"}],"stateMutability":"view","type":"function"},{"inputs":[{"internalType":"address","name":"_walletAddress","type":"address"}],"name":"getPatientHealthDetails","outputs":[{"components":[{"internalType":"string","name":"date","type":"string"},{"internalType":"address","name":"walletAddress","type":"address"},{"internalType":"address","name":"physician","type":"address"},{"internalType":"string","name":"Department_uint","type":"string"},{"internalType":"string","name":"BloodPressure","type":"string"},{"internalType":"string","name":"HeartRate","type":"string"},{"internalType":"string","name":"RespiratoryRate","type":"string"},{"internalType":"string","name":"Dosage","type":"string"}],"internalType":"struct PatientDetails.PatientHealthCondition[]","name":"","type":"tuple[]"}],"stateMutability":"view","type":"function"},{"inputs":[{"internalType":"address","name":"_address","type":"address"}],"name":"getPatientStored","outputs":[{"components":[{"internalType":"uint256","name":"timestamp","type":"uint256"},{"internalType":"string","name":"cid","type":"string"}],"internalType":"struct PatientDetails.HealthData[]","name":"","type":"tuple[]"}],"stateMutability":"view","type":"function"},{"inputs":[{"internalType":"uint256","name":"timestamp","type":"uint256"}],"name":"getYear","outputs":[{"internalType":"uint256","name":"","type":"uint256"}],"stateMutability":"pure","type":"function"},{"inputs":[{"internalType":"address","name":"_address","type":"address"}],"name":"isDoctor","outputs":[{"internalType":"bool","name":"val","type":"bool"}],"stateMutability":"view","type":"function"},{"inputs":[{"internalType":"address","name":"_address","type":"address"}],"name":"isOwner","outputs":[{"internalType":"bool","name":"val","type":"bool"}],"stateMutability":"view","type":"function"},{"inputs":[{"internalType":"address","name":"_address","type":"address"}],"name":"isPatient","outputs":[{"internalType":"bool","name":"","type":"bool"}],"stateMutability":"view","type":"function"},{"inputs":[{"internalType":"address","name":"","type":"address"}],"name":"owner","outputs":[{"internalType":"bool","name":"","type":"bool"}],"stateMutability":"view","type":"function"},{"inputs":[{"internalType":"address","name":"","type":"address"},{"internalType":"uint256","name":"","type":"uint256"}],"name":"patientsStoredData","outputs":[{"internalType":"uint256","name":"timestamp","type":"uint256"},{"internalType":"string","name":"cid","type":"string"}],"stateMutability":"view","type":"function"},{"inputs":[{"internalType":"address","name":"_address","type":"address"}],"name":"removeOwner","outputs":[],"stateMutability":"nonpayable","type":"function"},{"inputs":[],"name":"superOwner","outputs":[{"internalType":"address","name":"","type":"address"}],"stateMutability":"view","type":"function"},{"inputs":[],"name":"totalAdmin","outputs":[{"internalType":"uint256","name":"","type":"uint256"}],"stateMutability":"view","type":"function"},{"inputs":[],"name":"totalDoctors","outputs":[{"internalType":"uint256","name":"","type":"uint256"}],"stateMutability":"view","type":"function"},{"inputs":[],"name":"totalPatient","outputs":[{"internalType":"uint256","name":"","type":"uint256"}],"stateMutability":"view","type":"function"}],"evm":{"bytecode":{"linkReferences":{},"object":"608060405234801561000f575f80fd5b50335f818152602081905260409020805460ff1916600190811790915580546001600160a01b03191690911790556150228061004a5f395ff3fe608060405234801561000f575f80fd5b5060043610610213575f3560e01c806387dcd2b61161011f578063ac46b5b7116100a9578063d1f2f0e511610079578063d1f2f0e51461050d578063efe2ccc114610520578063f243cc6a14610541578063f7e901d314610568578063fe0c2a3114610588575f80fd5b8063ac46b5b714610494578063b5f63ec5146104a7578063bb7d6b67146104c7578063bbcaa637146104e9575f80fd5b806392d66313116100ef57806392d6631314610428578063996440c61461043b578063a49b17251461044e578063a96a6b2114610461578063a980702c14610481575f80fd5b806387dcd2b6146103ce5780638f9c79ed146103f957806392b3141d1461040c57806392c2808f1461041f575f80fd5b806355d2df12116101a057806366adec561161017057806366adec561461034f578063686e1f1b146103625780636e2c0ffe146103755780637065cb481461039657806375c6a96c146103a9575f80fd5b806355d2df12146102fb57806364319e331461031b57806365b44d7e14610324578063666e1b391461032d575f80fd5b80631a757712116101e65780631a757712146102785780631f650cc91461028b5780632f54bf6e146102b257806334a9e6eb146102d557806348e64d80146102e8575f80fd5b806304028017146102175780630b103ee11461022c5780630e37008a1461023f578063173825d914610265575b5f80fd5b61022a610225366004613ef1565b6105af565b005b61022a61023a366004613fa7565b610718565b61025261024d366004614093565b6108e3565b6040519081526020015b60405180910390f35b61022a610273366004613ef1565b610960565b61022a6102863660046140aa565b6109da565b61029e610299366004613ef1565b610b61565b60405161025c989796959493929190614191565b6102c56102c0366004613ef1565b610e4d565b604051901515815260200161025c565b61022a6102e336600461422a565b610e7a565b61022a6102f6366004614311565b611048565b61030e610309366004613ef1565b6111e1565b60405161025c91906143ad565b610252600a5481565b61025260095481565b6102c561033b366004613ef1565b5f6020819052908152604090205460ff1681565b61022a61035d36600461422a565b6112ec565b61022a610370366004613ef1565b61155c565b61038861038336600461441f565b6116fc565b60405161025c929190614447565b61022a6103a4366004613ef1565b6117bc565b6103bc6103b7366004613ef1565b611839565b60405161025c96959493929190614467565b6001546103e1906001600160a01b031681565b6040516001600160a01b03909116815260200161025c565b6102c5610407366004613ef1565b611a0d565b61022a61041a366004614311565b611a5a565b610252600b5481565b610252610436366004614093565b611c8e565b6102c5610449366004613ef1565b611c9d565b61022a61045c3660046140aa565b611cc5565b61047461046f366004613ef1565b611ed8565b60405161025c91906144c7565b61022a61048f366004613fa7565b6121bf565b61022a6104a236600461454d565b61242d565b6104ba6104b5366004613ef1565b61248c565b60405161025c9190614598565b6102c56104d5366004613ef1565b60066020525f908152604090205460ff1681565b6104fc6104f7366004613ef1565b61291a565b60405161025c9594939291906146ab565b61022a61051b366004614707565b612ae4565b61053361052e366004613ef1565b612e49565b60405161025c92919061485a565b61055461054f366004613ef1565b61368a565b60405161025c989796959493929190614934565b61057b610576366004613ef1565b6138fa565b60405161025c91906149b9565b61059b61059636600461441f565b613bc8565b60405161025c989796959493929190614a39565b335f9081526020819052604090205460ff16806105d657506001546001600160a01b031633145b6105fb5760405162461bcd60e51b81526004016105f290614a9f565b60405180910390fd5b335f908152602081905260409020805460ff191660011790556001600160a01b03811661065c5760405162461bcd60e51b815260206004820152600f60248201526e496e76616c6964204164647265737360881b60448201526064016105f2565b6001600160a01b0381165f9081526006602052604090205460ff166106f85760405162461bcd60e51b815260206004820152604660248201527f50726f76696465642061646472657373206d75737420626520616e2041646d6960448201527f6e4163636573734164647265737320746f2072656d6f76652041646d696e416360648201526563657373212160d01b608482015260a4016105f2565b6001600160a01b03165f908152600660205260409020805460ff19169055565b335f9081526006602052604081205460ff1615610733575060015b335f9081526006602052604090205460ff166107615760405162461bcd60e51b81526004016105f290614ae9565b6001600160a01b0387161580159061077957505f8651115b801561078557505f8551115b6107a15760405162461bcd60e51b81526004016105f290614b51565b6001600160a01b038088165f8181526002602081905260409091200154909116146107de5760405162461bcd60e51b81526004016105f290614b97565b60408051610100810182528a815260208082018b90526001600160a01b038a16828401819052606083018a90526080830189905260a0830188905260c0830187905260e083018690525f90815260029091529190912081518592919081906108469082614cb1565b506020820151600182019061085b9082614cb1565b5060408201516002820180546001600160a01b0319166001600160a01b03909216919091179055606082015160038201906108969082614cb1565b50608082015160048201906108ab9082614cb1565b5060a082015160058201906108c09082614cb1565b5060c0820151600682015560e09091015160079091015550505050505050505050565b5f806108ee42611c8e565b90505f836108fe836107b2614d81565b6109089190614d94565b90505f81116109595760405162461bcd60e51b815260206004820152601860248201527f456e74657220636f72726563742062697274682079656172000000000000000060448201526064016105f2565b9392505050565b6001546001600160a01b031633146109ba5760405162461bcd60e51b815260206004820152601f60248201527f41636365737365626c65206f6e6c7920666f722053757065724f776e6572730060448201526064016105f2565b6001600160a01b03165f908152602081905260409020805460ff19169055565b335f9081526020819052604090205460ff1680610a0157506001546001600160a01b031633145b610a1d5760405162461bcd60e51b81526004016105f290614a9f565b6001600160a01b03851615801590610a3557505f8151115b8015610a4157505f8651115b610a5d5760405162461bcd60e51b81526004016105f290614da7565b6001600160a01b038086165f8181526007602052604090206001015490911614610a995760405162461bcd60e51b81526004016105f290614df6565b6040805160c0810182528781526001600160a01b0387166020808301829052828401889052606083018790526080830186905260a083018590525f91825260079052919091208151859291908190610af19082614cb1565b5060208201516001820180546001600160a01b0319166001600160a01b0390921691909117905560408201516002820190610b2c9082614cb1565b50606082015160038201556080820151600482015560a08201516005820190610b559082614cb1565b50505050505050505050565b60026020525f9081526040902080548190610b7b90614c2f565b80601f0160208091040260200160405190810160405280929190818152602001828054610ba790614c2f565b8015610bf25780601f10610bc957610100808354040283529160200191610bf2565b820191905f5260205f20905b815481529060010190602001808311610bd557829003601f168201915b505050505090806001018054610c0790614c2f565b80601f0160208091040260200160405190810160405280929190818152602001828054610c3390614c2f565b8015610c7e5780601f10610c5557610100808354040283529160200191610c7e565b820191905f5260205f20905b815481529060010190602001808311610c6157829003601f168201915b505050600284015460038501805494956001600160a01b03909216949193509150610ca890614c2f565b80601f0160208091040260200160405190810160405280929190818152602001828054610cd490614c2f565b8015610d1f5780601f10610cf657610100808354040283529160200191610d1f565b820191905f5260205f20905b815481529060010190602001808311610d0257829003601f168201915b505050505090806004018054610d3490614c2f565b80601f0160208091040260200160405190810160405280929190818152602001828054610d6090614c2f565b8015610dab5780601f10610d8257610100808354040283529160200191610dab565b820191905f5260205f20905b815481529060010190602001808311610d8e57829003601f168201915b505050505090806005018054610dc090614c2f565b80601f0160208091040260200160405190810160405280929190818152602001828054610dec90614c2f565b8015610e375780601f10610e0e57610100808354040283529160200191610e37565b820191905f5260205f20905b815481529060010190602001808311610e1a57829003601f168201915b5050505050908060060154908060070154905088565b6001600160a01b0381165f9081526020819052604081205460ff1615610e7557506001919050565b919050565b335f9081526006602052604081205460ff1615610e95575060015b335f9081526006602052604090205460ff16610ec35760405162461bcd60e51b81526004016105f290614ae9565b6001600160a01b038816610ee95760405162461bcd60e51b81526004016105f290614b51565b6001600160a01b038089165f818152600260208190526040909120015490911614610f265760405162461bcd60e51b81526004016105f290614b97565b60408051610100810182528a81526001600160a01b038a1660208083018290528a1515838501528915156060840152881515608084015260a0830188905260c0830187905260e083018690525f918252600390529190912081518190610f8c9082614cb1565b5060208201516001820180546040850151606086015160808701511515600160b01b0260ff60b01b19911515600160a81b029190911661ffff60a81b19921515600160a01b026001600160a81b03199094166001600160a01b039096169590951792909217169290921791909117905560a082015160028201906110109082614cb1565b5060c082015160038201906110259082614cb1565b5060e0820151600482019061103a9082614cb1565b505050505050505050505050565b335f9081526020819052604090205460ff168061106f57506001546001600160a01b031633145b61108b5760405162461bcd60e51b81526004016105f290614a9f565b6001600160a01b038516158015906110a357505f8151115b80156110af57505f8451115b80156110bb57505f8351115b6110ff5760405162461bcd60e51b8152602060048201526015602482015274656e74657220636f72726563742064657461696c7360581b60448201526064016105f2565b6001600160a01b038086165f81815260086020526040902054909116146111385760405162461bcd60e51b81526004016105f290614df6565b6040805160a0810182526001600160a01b0387811680835260208084018681528486018a905260608501899052608085018890525f9283526008909152939020825181546001600160a01b0319169216919091178155915190919060018201906111a29082614cb1565b50604082015160028201906111b79082614cb1565b50606082015160038201906111cc9082614cb1565b50608082015181600401559050505050505050565b6001600160a01b0381165f908152600560209081526040808320805482518185028101850190935280835260609492939192909184015b828210156112e1578382905f5260205f2090600202016040518060400160405290815f820154815260200160018201805461125290614c2f565b80601f016020809104026020016040519081016040528092919081815260200182805461127e90614c2f565b80156112c95780601f106112a0576101008083540402835291602001916112c9565b820191905f5260205f20905b8154815290600101906020018083116112ac57829003601f168201915b50505050508152505081526020019060010190611218565b505050509050919050565b335f9081526006602052604081205460ff1615611307575060015b335f9081526006602052604090205460ff166113355760405162461bcd60e51b81526004016105f290614ae9565b6001600160a01b038089165f81815260036020526040902060010154909116036113da5760405162461bcd60e51b815260206004820152604a60248201527f50617469656e74206d65646963616c2064657461696c7320616c72656164792060448201527f657869737421212e204b696e646c792065646974207468652064657461696c73606482015269081a59881b995959195960b21b608482015260a4016105f2565b6001600160a01b0388166114005760405162461bcd60e51b81526004016105f290614b51565b60408051610100810182528a81526001600160a01b038a1660208083018290528a1515838501528915156060840152881515608084015260a0830188905260c0830187905260e083018690525f9182526003905291909120815181906114669082614cb1565b5060208201516001820180546040850151606086015160808701511515600160b01b0260ff60b01b19911515600160a81b029190911661ffff60a81b19921515600160a01b026001600160a81b03199094166001600160a01b039096169590951792909217169290921791909117905560a082015160028201906114ea9082614cb1565b5060c082015160038201906114ff9082614cb1565b5060e082015160048201906115149082614cb1565b5050506001600160a01b038089165f81815260026020819052604090912001549091160361155157600b8054905f61154b83614e8e565b91905055505b505050505050505050565b335f9081526020819052604090205460ff168061158357506001546001600160a01b031633145b61159f5760405162461bcd60e51b81526004016105f290614a9f565b335f9081526020819052604090205460ff166116145760405162461bcd60e51b815260206004820152602e60248201527f4f6e6c79206f776e6572206861732070726976696c65676520746f206164642060448201526d6f776e657220616363657373212160901b60648201526084016105f2565b6001600160a01b0381165f9081526006602052604090205460ff161561167c5760405162461bcd60e51b815260206004820181905260248201527f4164647265737320616c7265616479206861732061646d696e2061636365737360448201526064016105f2565b6001600160a01b0381166116c45760405162461bcd60e51b815260206004820152600f60248201526e496e76616c6964204164647265737360881b60448201526064016105f2565b6001600160a01b0381165f908152600660205260408120805460ff19166001179055600a8054916116f483614e8e565b919050555050565b6005602052815f5260405f208181548110611715575f80fd5b905f5260205f2090600202015f9150915050805f01549080600101805461173b90614c2f565b80601f016020809104026020016040519081016040528092919081815260200182805461176790614c2f565b80156117b25780601f10611789576101008083540402835291602001916117b2565b820191905f5260205f20905b81548152906001019060200180831161179557829003601f168201915b5050505050905082565b6001546001600160a01b031633146118165760405162461bcd60e51b815260206004820152601f60248201527f41636365737365626c65206f6e6c7920666f722053757065724f776e6572730060448201526064016105f2565b6001600160a01b03165f908152602081905260409020805460ff19166001179055565b60076020525f908152604090208054819061185390614c2f565b80601f016020809104026020016040519081016040528092919081815260200182805461187f90614c2f565b80156118ca5780601f106118a1576101008083540402835291602001916118ca565b820191905f5260205f20905b8154815290600101906020018083116118ad57829003601f168201915b505050600184015460028501805494956001600160a01b039092169491935091506118f490614c2f565b80601f016020809104026020016040519081016040528092919081815260200182805461192090614c2f565b801561196b5780601f106119425761010080835404028352916020019161196b565b820191905f5260205f20905b81548152906001019060200180831161194e57829003601f168201915b50505050509080600301549080600401549080600501805461198c90614c2f565b80601f01602080910402602001604051908101604052809291908181526020018280546119b890614c2f565b8015611a035780601f106119da57610100808354040283529160200191611a03565b820191905f5260205f20905b8154815290600101906020018083116119e657829003601f168201915b5050505050905086565b6001600160a01b038082165f818152600260208190526040822001549092161480611a5457506001600160a01b038083165f81815260036020526040902060010154909116145b92915050565b335f9081526020819052604090205460ff1680611a8157506001546001600160a01b031633145b611a9d5760405162461bcd60e51b81526004016105f290614a9f565b6001600160a01b038086165f8181526008602052604090205490911603611b1d5760405162461bcd60e51b815260206004820152602e60248201527f50687973696369616e2050726f66657373696f6e616c2064657461696c73206160448201526d6c7265616479206578697374212160901b60648201526084016105f2565b6001600160a01b038086165f8181526008602052604090205490911614801590611b4757505f8151115b8015611b5357505f8451115b8015611b5f57505f8351115b611ba35760405162461bcd60e51b8152602060048201526015602482015274456e74657220436f72726563742064657461696c7360581b60448201526064016105f2565b6040805160a0810182526001600160a01b0387811680835260208084018681528486018a905260608501899052608085018890525f9283526008909152939020825181546001600160a01b031916921691909117815591519091906001820190611c0d9082614cb1565b5060408201516002820190611c229082614cb1565b5060608201516003820190611c379082614cb1565b50608091909101516004909101556001600160a01b038086165f8181526007602052604090206001015490911603611c8757611c728561155c565b60098054905f611c8183614e8e565b91905055505b5050505050565b5f611a546301e1338083614ea6565b6001600160a01b0381165f9081526006602052604081205460ff1615610e7557506001919050565b335f9081526020819052604090205460ff1680611cec57506001546001600160a01b031633145b611d085760405162461bcd60e51b81526004016105f290614a9f565b6001600160a01b038086165f8181526007602052604090206001015490911603611d865760405162461bcd60e51b815260206004820152602960248201527f50687973696369616e20706572736f6e616c2064657461696c20616c7265616460448201526879206578697374212160b81b60648201526084016105f2565b6001600160a01b03851615801590611d9d57505f82115b8015611da957505f8151115b8015611db557505f8651115b611dd15760405162461bcd60e51b81526004016105f290614da7565b6040805160c0810182528781526001600160a01b0387166020808301829052828401889052606083018790526080830186905260a083018590525f91825260079052919091208151859291908190611e299082614cb1565b5060208201516001820180546001600160a01b0319166001600160a01b0390921691909117905560408201516002820190611e649082614cb1565b50606082015160038201556080820151600482015560a08201516005820190611e8d9082614cb1565b5050506001600160a01b038087165f8181526008602052604090205490911603611ecf57611eba8661155c565b60098054905f611ec983614e8e565b91905055505b50505050505050565b611f176040518060c00160405280606081526020015f6001600160a01b03168152602001606081526020015f81526020015f8152602001606081525090565b335f9081526020819052604090205460ff1680611f3e57506001546001600160a01b031633145b611f5a5760405162461bcd60e51b81526004016105f290614a9f565b6001600160a01b038216611f805760405162461bcd60e51b81526004016105f290614ec5565b6001600160a01b038083165f8181526007602052604090206001015490911614611fbc5760405162461bcd60e51b81526004016105f290614efc565b6001600160a01b0382165f9081526007602052604090819020815160c08101909252805482908290611fed90614c2f565b80601f016020809104026020016040519081016040528092919081815260200182805461201990614c2f565b80156120645780601f1061203b57610100808354040283529160200191612064565b820191905f5260205f20905b81548152906001019060200180831161204757829003601f168201915b505050918352505060018201546001600160a01b0316602082015260028201805460409092019161209490614c2f565b80601f01602080910402602001604051908101604052809291908181526020018280546120c090614c2f565b801561210b5780601f106120e25761010080835404028352916020019161210b565b820191905f5260205f20905b8154815290600101906020018083116120ee57829003601f168201915b50505050508152602001600382015481526020016004820154815260200160058201805461213890614c2f565b80601f016020809104026020016040519081016040528092919081815260200182805461216490614c2f565b80156121af5780601f10612186576101008083540402835291602001916121af565b820191905f5260205f20905b81548152906001019060200180831161219257829003601f168201915b5050505050815250509050919050565b335f9081526006602052604081205460ff16156121da575060015b335f9081526006602052604090205460ff166122085760405162461bcd60e51b81526004016105f290614ae9565b6001600160a01b038088165f8181526002602081905260409091200154909116036122b05760405162461bcd60e51b815260206004820152604c60248201527f50617469656e742773204d65646963616c2064657461696c7320616c7265616460448201527f7920657869737421212e204b696e646c7920656469742074686520646574616960648201526b1b1cc81a59881b995959195960a21b608482015260a4016105f2565b6001600160a01b038716158015906122c857505f8651115b80156122d457505f8551115b6122f05760405162461bcd60e51b81526004016105f290614b51565b60408051610100810182528a815260208082018b90526001600160a01b038a16828401819052606083018a90526080830189905260a0830188905260c0830187905260e083018690525f90815260029091529190912081518592919081906123589082614cb1565b506020820151600182019061236d9082614cb1565b5060408201516002820180546001600160a01b0319166001600160a01b03909216919091179055606082015160038201906123a89082614cb1565b50608082015160048201906123bd9082614cb1565b5060a082015160058201906123d29082614cb1565b5060c0820151600682015560e0909101516007909101556001600160a01b038089165f8181526003602052604090206001015490911603610b5557600b8054905f61241c83614e8e565b919050555050505050505050505050565b60408051808201825242815260208082018581526001600160a01b0385165f908152600583529384208054600181810183559186529290942083516002909302019182555191928392908201906124849082614cb1565b505050505050565b335f81815260026020819052604090912001546060916001600160a01b0390911614806124d15750335f818152600360205260409020600101546001600160a01b0316145b806124ea5750335f9081526006602052604090205460ff165b806125035750335f9081526020819052604090205460ff165b8061251857506001546001600160a01b031633145b6125345760405162461bcd60e51b81526004016105f290614fa5565b6001600160a01b0382165f90815260046020908152604080832080548251818502810185019093528083529193909284015b828210156112e1578382905f5260205f209060080201604051806101000160405290815f8201805461259790614c2f565b80601f01602080910402602001604051908101604052809291908181526020018280546125c390614c2f565b801561260e5780601f106125e55761010080835404028352916020019161260e565b820191905f5260205f20905b8154815290600101906020018083116125f157829003601f168201915b505050918352505060018201546001600160a01b039081166020830152600283015416604082015260038201805460609092019161264b90614c2f565b80601f016020809104026020016040519081016040528092919081815260200182805461267790614c2f565b80156126c25780601f10612699576101008083540402835291602001916126c2565b820191905f5260205f20905b8154815290600101906020018083116126a557829003601f168201915b505050505081526020016004820180546126db90614c2f565b80601f016020809104026020016040519081016040528092919081815260200182805461270790614c2f565b80156127525780601f1061272957610100808354040283529160200191612752565b820191905f5260205f20905b81548152906001019060200180831161273557829003601f168201915b5050505050815260200160058201805461276b90614c2f565b80601f016020809104026020016040519081016040528092919081815260200182805461279790614c2f565b80156127e25780601f106127b9576101008083540402835291602001916127e2565b820191905f5260205f20905b8154815290600101906020018083116127c557829003601f168201915b505050505081526020016006820180546127fb90614c2f565b80601f016020809104026020016040519081016040528092919081815260200182805461282790614c2f565b80156128725780601f1061284957610100808354040283529160200191612872565b820191905f5260205f20905b81548152906001019060200180831161285557829003601f168201915b5050505050815260200160078201805461288b90614c2f565b80601f01602080910402602001604051908101604052809291908181526020018280546128b790614c2f565b80156129025780601f106128d957610100808354040283529160200191612902565b820191905f5260205f20905b8154815290600101906020018083116128e557829003601f168201915b50505050508152505081526020019060010190612566565b60086020525f9081526040902080546001820180546001600160a01b03909216929161294590614c2f565b80601f016020809104026020016040519081016040528092919081815260200182805461297190614c2f565b80156129bc5780601f10612993576101008083540402835291602001916129bc565b820191905f5260205f20905b81548152906001019060200180831161299f57829003601f168201915b5050505050908060020180546129d190614c2f565b80601f01602080910402602001604051908101604052809291908181526020018280546129fd90614c2f565b8015612a485780601f10612a1f57610100808354040283529160200191612a48565b820191905f5260205f20905b815481529060010190602001808311612a2b57829003601f168201915b505050505090806003018054612a5d90614c2f565b80601f0160208091040260200160405190810160405280929190818152602001828054612a8990614c2f565b8015612ad45780601f10612aab57610100808354040283529160200191612ad4565b820191905f5260205f20905b815481529060010190602001808311612ab757829003601f168201915b5050505050908060040154905085565b335f9081526006602052604081205460ff1615612aff575060015b335f9081526006602052604090205460ff16612b2d5760405162461bcd60e51b81526004016105f290614ae9565b6001600160a01b038089165f8181526002602081905260409091200154909116148015612b7657506001600160a01b038089165f81815260036020526040902060010154909116145b612c5a5760405162461bcd60e51b815260206004820152609960248201527f496e636f72726563742050617469656e742077616c6c6574206164647265737360448201527f206f72205468652050617469656e742064657461696c2073706563696669632060648201527f746f20706572736f6e616c206f722070617374206d65646963616c206869737460848201527f6f7279206f662074686520616464726573732070726f7669646564206e6f742060a48201527f617661696c61626c6520696e2074686520636861696e2121200000000000000060c482015260e4016105f2565b6001600160a01b038088165f8181526007602052604090206001015490911614612d2c5760405162461bcd60e51b815260206004820152607160248201527f496e636f72726563742050687973696369616e2077616c6c657420616464726560448201527f7373206f72205468652050687973696369616e2064657461696c20666f72207460648201527f686520616464726573732070726f7669646564206e6f7420617661696c61626c6084820152700329034b7103a34329031b430b4b710909607d1b60a482015260c4016105f2565b6001600160a01b038089165f8181526004602090815260408083208151610100810183528f815280840195909552948c1690840152606083018a90526080830189905260a0830188905260c0830187905260e08301869052835460018101855593825290208151919260080201908190612da69082614cb1565b5060208201516001820180546001600160a01b039283166001600160a01b031991821617909155604084015160028401805491909316911617905560608201516003820190612df59082614cb1565b5060808201516004820190612e0a9082614cb1565b5060a08201516005820190612e1f9082614cb1565b5060c08201516006820190612e349082614cb1565b5060e0820151600782019061103a9082614cb1565b612e9760405180610100016040528060608152602001606081526020015f6001600160a01b031681526020016060815260200160608152602001606081526020015f81526020015f81525090565b612eea604051806101000160405280606081526020015f6001600160a01b031681526020015f151581526020015f151581526020015f151581526020016060815260200160608152602001606081525090565b335f81815260026020819052604090912001546001600160a01b03161480612f2a5750335f818152600360205260409020600101546001600160a01b0316145b80612f435750335f9081526006602052604090205460ff165b80612f5c5750335f9081526020819052604090205460ff165b80612f7157506001546001600160a01b031633145b612f8d5760405162461bcd60e51b81526004016105f290614fa5565b6001600160a01b038316612fb35760405162461bcd60e51b81526004016105f290614ec5565b6001600160a01b038084165f8181526002602081905260409091200154909116148015612ffc57506001600160a01b038084165f81815260036020526040902060010154909116145b6130ba5760405162461bcd60e51b815260206004820152607960248201527f496e636f72726563742050617469656e742077616c6c6574206164647265737360448201527f206f72205468652050617469656e742064657461696c20666f7220746865206160648201527f6464726573732070726f7669646564206973206e6f7420636f6d706c65746c7960848201527f20617661696c61626c6520696e2074686520636861696e21210000000000000060a482015260c4016105f2565b6001600160a01b0383165f908152600260209081526040808320600390925291829020825161010081019093528154919290918390829082906130fc90614c2f565b80601f016020809104026020016040519081016040528092919081815260200182805461312890614c2f565b80156131735780601f1061314a57610100808354040283529160200191613173565b820191905f5260205f20905b81548152906001019060200180831161315657829003601f168201915b5050505050815260200160018201805461318c90614c2f565b80601f01602080910402602001604051908101604052809291908181526020018280546131b890614c2f565b80156132035780601f106131da57610100808354040283529160200191613203565b820191905f5260205f20905b8154815290600101906020018083116131e657829003601f168201915b505050918352505060028201546001600160a01b0316602082015260038201805460409092019161323390614c2f565b80601f016020809104026020016040519081016040528092919081815260200182805461325f90614c2f565b80156132aa5780601f10613281576101008083540402835291602001916132aa565b820191905f5260205f20905b81548152906001019060200180831161328d57829003601f168201915b505050505081526020016004820180546132c390614c2f565b80601f01602080910402602001604051908101604052809291908181526020018280546132ef90614c2f565b801561333a5780601f106133115761010080835404028352916020019161333a565b820191905f5260205f20905b81548152906001019060200180831161331d57829003601f168201915b5050505050815260200160058201805461335390614c2f565b80601f016020809104026020016040519081016040528092919081815260200182805461337f90614c2f565b80156133ca5780601f106133a1576101008083540402835291602001916133ca565b820191905f5260205f20905b8154815290600101906020018083116133ad57829003601f168201915b5050505050815260200160068201548152602001600782015481525050915080604051806101000160405290815f8201805461340590614c2f565b80601f016020809104026020016040519081016040528092919081815260200182805461343190614c2f565b801561347c5780601f106134535761010080835404028352916020019161347c565b820191905f5260205f20905b81548152906001019060200180831161345f57829003601f168201915b505050918352505060018201546001600160a01b038116602083015260ff600160a01b8204811615156040840152600160a81b8204811615156060840152600160b01b909104161515608082015260028201805460a0909201916134df90614c2f565b80601f016020809104026020016040519081016040528092919081815260200182805461350b90614c2f565b80156135565780601f1061352d57610100808354040283529160200191613556565b820191905f5260205f20905b81548152906001019060200180831161353957829003601f168201915b5050505050815260200160038201805461356f90614c2f565b80601f016020809104026020016040519081016040528092919081815260200182805461359b90614c2f565b80156135e65780601f106135bd576101008083540402835291602001916135e6565b820191905f5260205f20905b8154815290600101906020018083116135c957829003601f168201915b505050505081526020016004820180546135ff90614c2f565b80601f016020809104026020016040519081016040528092919081815260200182805461362b90614c2f565b80156136765780601f1061364d57610100808354040283529160200191613676565b820191905f5260205f20905b81548152906001019060200180831161365957829003601f168201915b505050505081525050905091509150915091565b60036020525f90815260409020805481906136a490614c2f565b80601f01602080910402602001604051908101604052809291908181526020018280546136d090614c2f565b801561371b5780601f106136f25761010080835404028352916020019161371b565b820191905f5260205f20905b8154815290600101906020018083116136fe57829003601f168201915b50505050600183015460028401805493946001600160a01b0383169460ff600160a01b850481169550600160a81b8504811694600160b01b900416929061376190614c2f565b80601f016020809104026020016040519081016040528092919081815260200182805461378d90614c2f565b80156137d85780601f106137af576101008083540402835291602001916137d8565b820191905f5260205f20905b8154815290600101906020018083116137bb57829003601f168201915b5050505050908060030180546137ed90614c2f565b80601f016020809104026020016040519081016040528092919081815260200182805461381990614c2f565b80156138645780601f1061383b57610100808354040283529160200191613864565b820191905f5260205f20905b81548152906001019060200180831161384757829003601f168201915b50505050509080600401805461387990614c2f565b80601f01602080910402602001604051908101604052809291908181526020018280546138a590614c2f565b80156138f05780601f106138c7576101008083540402835291602001916138f0565b820191905f5260205f20905b8154815290600101906020018083116138d357829003601f168201915b5050505050905088565b6139336040518060a001604052805f6001600160a01b031681526020016060815260200160608152602001606081526020015f81525090565b335f9081526020819052604090205460ff168061395a57506001546001600160a01b031633145b6139765760405162461bcd60e51b81526004016105f290614a9f565b6001600160a01b03821661399c5760405162461bcd60e51b81526004016105f290614ec5565b6001600160a01b038083165f81815260086020526040902054909116146139d55760405162461bcd60e51b81526004016105f290614efc565b6001600160a01b038083165f90815260086020908152604091829020825160a081019093528054909316825260018301805492939291840191613a1790614c2f565b80601f0160208091040260200160405190810160405280929190818152602001828054613a4390614c2f565b8015613a8e5780601f10613a6557610100808354040283529160200191613a8e565b820191905f5260205f20905b815481529060010190602001808311613a7157829003601f168201915b50505050508152602001600282018054613aa790614c2f565b80601f0160208091040260200160405190810160405280929190818152602001828054613ad390614c2f565b8015613b1e5780601f10613af557610100808354040283529160200191613b1e565b820191905f5260205f20905b815481529060010190602001808311613b0157829003601f168201915b50505050508152602001600382018054613b3790614c2f565b80601f0160208091040260200160405190810160405280929190818152602001828054613b6390614c2f565b8015613bae5780601f10613b8557610100808354040283529160200191613bae565b820191905f5260205f20905b815481529060010190602001808311613b9157829003601f168201915b505050505081526020016004820154815250509050919050565b6004602052815f5260405f208181548110613be1575f80fd5b905f5260205f2090600802015f9150915050805f018054613c0190614c2f565b80601f0160208091040260200160405190810160405280929190818152602001828054613c2d90614c2f565b8015613c785780601f10613c4f57610100808354040283529160200191613c78565b820191905f5260205f20905b815481529060010190602001808311613c5b57829003601f168201915b5050506001840154600285015460038601805495966001600160a01b0393841696929093169450919250613cab90614c2f565b80601f0160208091040260200160405190810160405280929190818152602001828054613cd790614c2f565b8015613d225780601f10613cf957610100808354040283529160200191613d22565b820191905f5260205f20905b815481529060010190602001808311613d0557829003601f168201915b505050505090806004018054613d3790614c2f565b80601f0160208091040260200160405190810160405280929190818152602001828054613d6390614c2f565b8015613dae5780601f10613d8557610100808354040283529160200191613dae565b820191905f5260205f20905b815481529060010190602001808311613d9157829003601f168201915b505050505090806005018054613dc390614c2f565b80601f0160208091040260200160405190810160405280929190818152602001828054613def90614c2f565b8015613e3a5780601f10613e1157610100808354040283529160200191613e3a565b820191905f5260205f20905b815481529060010190602001808311613e1d57829003601f168201915b505050505090806006018054613e4f90614c2f565b80601f0160208091040260200160405190810160405280929190818152602001828054613e7b90614c2f565b8015613ec65780601f10613e9d57610100808354040283529160200191613ec6565b820191905f5260205f20905b815481529060010190602001808311613ea957829003601f168201915b50505050509080600701805461387990614c2f565b80356001600160a01b0381168114610e75575f80fd5b5f60208284031215613f01575f80fd5b61095982613edb565b634e487b7160e01b5f52604160045260245ffd5b5f82601f830112613f2d575f80fd5b813567ffffffffffffffff80821115613f4857613f48613f0a565b604051601f8301601f19908116603f01168101908282118183101715613f7057613f70613f0a565b81604052838152866020858801011115613f88575f80fd5b836020870160208301375f602085830101528094505050505092915050565b5f805f805f805f80610100898b031215613fbf575f80fd5b883567ffffffffffffffff80821115613fd6575f80fd5b613fe28c838d01613f1e565b995060208b0135915080821115613ff7575f80fd5b6140038c838d01613f1e565b985061401160408c01613edb565b975060608b0135915080821115614026575f80fd5b6140328c838d01613f1e565b965060808b0135915080821115614047575f80fd5b6140538c838d01613f1e565b955060a08b0135915080821115614068575f80fd5b506140758b828c01613f1e565b93505060c0890135915060e089013590509295985092959890939650565b5f602082840312156140a3575f80fd5b5035919050565b5f805f805f8060c087890312156140bf575f80fd5b863567ffffffffffffffff808211156140d6575f80fd5b6140e28a838b01613f1e565b97506140f060208a01613edb565b96506040890135915080821115614105575f80fd5b6141118a838b01613f1e565b9550606089013594506080890135935060a0890135915080821115614134575f80fd5b5061414189828a01613f1e565b9150509295509295509295565b5f81518084525f5b8181101561417257602081850181015186830182015201614156565b505f602082860101526020601f19601f83011685010191505092915050565b5f6101008083526141a48184018c61414e565b905082810360208401526141b8818b61414e565b6001600160a01b038a166040850152838103606085015290506141db818961414e565b905082810360808401526141ef818861414e565b905082810360a0840152614203818761414e565b60c0840195909552505060e001529695505050505050565b80358015158114610e75575f80fd5b5f805f805f805f80610100898b031215614242575f80fd5b883567ffffffffffffffff80821115614259575f80fd5b6142658c838d01613f1e565b995061427360208c01613edb565b985061428160408c0161421b565b975061428f60608c0161421b565b965061429d60808c0161421b565b955060a08b01359150808211156142b2575f80fd5b6142be8c838d01613f1e565b945060c08b01359150808211156142d3575f80fd5b6142df8c838d01613f1e565b935060e08b01359150808211156142f4575f80fd5b506143018b828c01613f1e565b9150509295985092959890939650565b5f805f805f60a08688031215614325575f80fd5b61432e86613edb565b9450602086013567ffffffffffffffff8082111561434a575f80fd5b61435689838a01613f1e565b9550604088013591508082111561436b575f80fd5b61437789838a01613f1e565b9450606088013593506080880135915080821115614393575f80fd5b506143a088828901613f1e565b9150509295509295909350565b5f6020808301818452808551808352604092508286019150828160051b8701018488015f5b8381101561441157888303603f190185528151805184528701518784018790526143fe8785018261414e565b95880195935050908601906001016143d2565b509098975050505050505050565b5f8060408385031215614430575f80fd5b61443983613edb565b946020939093013593505050565b828152604060208201525f61445f604083018461414e565b949350505050565b60c081525f61447960c083018961414e565b6001600160a01b0388166020840152828103604084015261449a818861414e565b905085606084015284608084015282810360a08401526144ba818561414e565b9998505050505050505050565b602081525f825160c060208401526144e260e084018261414e565b905060018060a01b0360208501511660408401526040840151601f1980858403016060860152614512838361414e565b925060608601516080860152608086015160a086015260a08601519150808584030160c086015250614544828261414e565b95945050505050565b5f806040838503121561455e575f80fd5b823567ffffffffffffffff811115614574575f80fd5b61458085828601613f1e565b92505061458f60208401613edb565b90509250929050565b5f6020808301818452808551808352604092508286019150828160051b8701018488015f5b8381101561441157603f19898403018552815161010081518186526145e48287018261414e565b915050888201516145ff8a8701826001600160a01b03169052565b50878201516001600160a01b03168589015260608083015186830382880152614628838261414e565b9250505060808083015186830382880152614643838261414e565b9250505060a0808301518683038288015261465e838261414e565b9250505060c08083015186830382880152614679838261414e565b9250505060e08083015192508582038187015250614697818361414e565b9689019694505050908601906001016145bd565b6001600160a01b038616815260a0602082018190525f906146ce9083018761414e565b82810360408401526146e0818761414e565b905082810360608401526146f4818661414e565b9150508260808301529695505050505050565b5f805f805f805f80610100898b03121561471f575f80fd5b883567ffffffffffffffff80821115614736575f80fd5b6147428c838d01613f1e565b995061475060208c01613edb565b985061475e60408c01613edb565b975060608b0135915080821115614773575f80fd5b61477f8c838d01613f1e565b965060808b0135915080821115614794575f80fd5b61429d8c838d01613f1e565b5f61010082518185526147b58286018261414e565b91505060208301516147d260208601826001600160a01b03169052565b5060408301516147e6604086018215159052565b5060608301516147fa606086018215159052565b50608083015161480e608086018215159052565b5060a083015184820360a0860152614826828261414e565b91505060c083015184820360c0860152614840828261414e565b91505060e083015184820360e0860152614544828261414e565b604081525f835161010080604085015261487861014085018361414e565b91506020860151603f1980868503016060870152614896848361414e565b9350604088015191506148b460808701836001600160a01b03169052565b60608801519150808685030160a08701526148cf848361414e565b935060808801519150808685030160c08701526148ec848361414e565b935060a08801519150808685030160e08701525061490a838261414e565b92505060c0860151818501525060e0850151610120840152828103602084015261454481856147a0565b5f6101008083526149478184018c61414e565b6001600160a01b038b16602085015289151560408501528815156060850152871515608085015283810360a08501529050614982818761414e565b905082810360c0840152614996818661414e565b905082810360e08401526149aa818561414e565b9b9a5050505050505050505050565b602080825282516001600160a01b03168282015282015160a060408301525f906149e660c084018261414e565b90506040840151601f1980858403016060860152614a04838361414e565b9250606086015191508085840301608086015250614a22828261414e565b915050608084015160a08401528091505092915050565b5f610100808352614a4c8184018c61414e565b6001600160a01b038b811660208601528a16604085015283810360608501529050614a77818961414e565b90508281036080840152614a8b818861414e565b905082810360a0840152614982818761414e565b6020808252602a908201527f41636365737365626c65206f6e6c7920666f72204f776e65727320616e642053604082015269757065724f776e65727360b01b606082015260800190565b60208082526042908201527f4f6e6c792074686520446f63746f72732063616e2063616c6c2074686973206660408201527f756e6374696f6e2064756520746f20736563757269747920726561736f6e7321606082015261212160f01b608082015260a00190565b60208082526026908201527f4b696e646c792066696c6c20616c6c20746865206d616e6461746f7279206665604082015265696c6473212160d01b606082015260800190565b6020808252606c908201527f496e636f72726563742050617469656e742077616c6c6574206164647265737360408201527f206f72205468652050617469656e742064657461696c20666f7220746865206160608201527f6464726573732070726f7669646564206e6f7420617661696c61626c6520696e60808201526b2074686520636861696e212160a01b60a082015260c00190565b600181811c90821680614c4357607f821691505b602082108103614c6157634e487b7160e01b5f52602260045260245ffd5b50919050565b601f821115614cac575f81815260208120601f850160051c81016020861015614c8d5750805b601f850160051c820191505b8181101561248457828155600101614c99565b505050565b815167ffffffffffffffff811115614ccb57614ccb613f0a565b614cdf81614cd98454614c2f565b84614c67565b602080601f831160018114614d12575f8415614cfb5750858301515b5f19600386901b1c1916600185901b178555612484565b5f85815260208120601f198616915b82811015614d4057888601518255948401946001909101908401614d21565b5085821015614d5d57878501515f19600388901b60f8161c191681555b5050505050600190811b01905550565b634e487b7160e01b5f52601160045260245ffd5b80820180821115611a5457611a54614d6d565b81810381811115611a5457611a54614d6d565b6020808252602f908201527f4b696e646c792066696c6c20616c6c20746865206d616e6461746f727920666560408201526e696c64732070726f7065726c79212160881b606082015260800190565b6020808252606c908201527f496e636f727265637420446f63746f7227732077616c6c65742061646472657360408201527f73206f722054686520446f63746f722064657461696c20666f7220746865206160608201527f6464726573732070726f7669646564206e6f7420617661696c61626c6520696e60808201526b2074686520636861696e212160a01b60a082015260c00190565b5f60018201614e9f57614e9f614d6d565b5060010190565b5f82614ec057634e487b7160e01b5f52601260045260245ffd5b500490565b6020808252601e908201527f57616c6c657420416464726573732063616e6e6f7420626520656d7074790000604082015260600190565b60208082526078908201527f496e636f727265637420446f63746f722077616c6c657420616464726573732060408201527f6f722054686520446f63746f722064657461696c20666f72207468652061646460608201527f726573732070726f7669646564206973206e6f7420636f6d706c6574656c792060808201527f617661696c61626c6520696e2074686520636861696e2121000000000000000060a082015260c00190565b60208082526027908201527f596f752068617665206e6f2061636365737320746f206665746368207468652060408201526664657461696c7360c81b60608201526080019056fea2646970667358221220cd97faf445294f0c1b68d5cd74ec2e78ff801663e4737e865d4bee6894523b9e64736f6c63430008150033","opcodes":"PUSH1 0x80 PUSH1 0x40 MSTORE CALLVALUE DUP1 ISZERO PUSH2 0xF JUMPI PUSH0 DUP1 REVERT JUMPDEST POP CALLER PUSH0 DUP2 DUP2 MSTORE PUSH1 0x20 DUP2 SWAP1 MSTORE PUSH1 0x40 SWAP1 KECCAK256 DUP1 SLOAD PUSH1 0xFF NOT AND PUSH1 0x1 SWAP1 DUP2 OR SWAP1 SWAP2 SSTORE DUP1 SLOAD PUSH1 0x1 PUSH1 0x1 PUSH1 0xA0 SHL SUB NOT AND SWAP1 SWAP2 OR SWAP1 SSTORE PUSH2 0x5022 DUP1 PUSH2 0x4A PUSH0 CODECOPY PUSH0 RETURN INVALID PUSH1 0x80 PUSH1 0x40 MSTORE CALLVALUE DUP1 ISZERO PUSH2 0xF JUMPI PUSH0 DUP1 REVERT JUMPDEST POP PUSH1 0x4 CALLDATASIZE LT PUSH2 0x213 JUMPI PUSH0 CALLDATALOAD PUSH1 0xE0 SHR DUP1 PUSH4 0x87DCD2B6 GT PUSH2 0x11F JUMPI DUP1 PUSH4 0xAC46B5B7 GT PUSH2 0xA9 JUMPI DUP1 PUSH4 0xD1F2F0E5 GT PUSH2 0x79 JUMPI DUP1 PUSH4 0xD1F2F0E5 EQ PUSH2 0x50D JUMPI DUP1 PUSH4 0xEFE2CCC1 EQ PUSH2 0x520 JUMPI DUP1 PUSH4 0xF243CC6A EQ PUSH2 0x541 JUMPI DUP1 PUSH4 0xF7E901D3 EQ PUSH2 0x568 JUMPI DUP1 PUSH4 0xFE0C2A31 EQ PUSH2 0x588 JUMPI PUSH0 DUP1 REVERT JUMPDEST DUP1 PUSH4 0xAC46B5B7 EQ PUSH2 0x494 JUMPI DUP1 PUSH4 0xB5F63EC5 EQ PUSH2 0x4A7 JUMPI DUP1 PUSH4 0xBB7D6B67 EQ PUSH2 0x4C7 JUMPI DUP1 PUSH4 0xBBCAA637 EQ PUSH2 0x4E9 JUMPI PUSH0 DUP1 REVERT JUMPDEST DUP1 PUSH4 0x92D66313 GT PUSH2 0xEF JUMPI DUP1 PUSH4 0x92D66313 EQ PUSH2 0x428 JUMPI DUP1 PUSH4 0x996440C6 EQ PUSH2 0x43B JUMPI DUP1 PUSH4 0xA49B1725 EQ PUSH2 0x44E JUMPI DUP1 PUSH4 0xA96A6B21 EQ PUSH2 0x461 JUMPI DUP1 PUSH4 0xA980702C EQ PUSH2 0x481 JUMPI PUSH0 DUP1 REVERT JUMPDEST DUP1 PUSH4 0x87DCD2B6 EQ PUSH2 0x3CE JUMPI DUP1 PUSH4 0x8F9C79ED EQ PUSH2 0x3F9 JUMPI DUP1 PUSH4 0x92B3141D EQ PUSH2 0x40C JUMPI DUP1 PUSH4 0x92C2808F EQ PUSH2 0x41F JUMPI PUSH0 DUP1 REVERT JUMPDEST DUP1 PUSH4 0x55D2DF12 GT PUSH2 0x1A0 JUMPI DUP1 PUSH4 0x66ADEC56 GT PUSH2 0x170 JUMPI DUP1 PUSH4 0x66ADEC56 EQ PUSH2 0x34F JUMPI DUP1 PUSH4 0x686E1F1B EQ PUSH2 0x362 JUMPI DUP1 PUSH4 0x6E2C0FFE EQ PUSH2 0x375 JUMPI DUP1 PUSH4 0x7065CB48 EQ PUSH2 0x396 JUMPI DUP1 PUSH4 0x75C6A96C EQ PUSH2 0x3A9 JUMPI PUSH0 DUP1 REVERT JUMPDEST DUP1 PUSH4 0x55D2DF12 EQ PUSH2 0x2FB JUMPI DUP1 PUSH4 0x64319E33 EQ PUSH2 0x31B JUMPI DUP1 PUSH4 0x65B44D7E EQ PUSH2 0x324 JUMPI DUP1 PUSH4 0x666E1B39 EQ PUSH2 0x32D JUMPI PUSH0 DUP1 REVERT JUMPDEST DUP1 PUSH4 0x1A757712 GT PUSH2 0x1E6 JUMPI DUP1 PUSH4 0x1A757712 EQ PUSH2 0x278 JUMPI DUP1 PUSH4 0x1F650CC9 EQ PUSH2 0x28B JUMPI DUP1 PUSH4 0x2F54BF6E EQ PUSH2 0x2B2 JUMPI DUP1 PUSH4 0x34A9E6EB EQ PUSH2 0x2D5 JUMPI DUP1 PUSH4 0x48E64D80 EQ PUSH2 0x2E8 JUMPI PUSH0 DUP1 REVERT JUMPDEST DUP1 PUSH4 0x4028017 EQ PUSH2 0x217 JUMPI DUP1 PUSH4 0xB103EE1 EQ PUSH2 0x22C JUMPI DUP1 PUSH4 0xE37008A EQ PUSH2 0x23F JUMPI DUP1 PUSH4 0x173825D9 EQ PUSH2 0x265 JUMPI JUMPDEST PUSH0 DUP1 REVERT JUMPDEST PUSH2 0x22A PUSH2 0x225 CALLDATASIZE PUSH1 0x4 PUSH2 0x3EF1 JUMP JUMPDEST PUSH2 0x5AF JUMP JUMPDEST STOP JUMPDEST PUSH2 0x22A PUSH2 0x23A CALLDATASIZE PUSH1 0x4 PUSH2 0x3FA7 JUMP JUMPDEST PUSH2 0x718 JUMP JUMPDEST PUSH2 0x252 PUSH2 0x24D CALLDATASIZE PUSH1 0x4 PUSH2 0x4093 JUMP JUMPDEST PUSH2 0x8E3 JUMP JUMPDEST PUSH1 0x40 MLOAD SWAP1 DUP2 MSTORE PUSH1 0x20 ADD JUMPDEST PUSH1 0x40 MLOAD DUP1 SWAP2 SUB SWAP1 RETURN JUMPDEST PUSH2 0x22A PUSH2 0x273 CALLDATASIZE PUSH1 0x4 PUSH2 0x3EF1 JUMP JUMPDEST PUSH2 0x960 JUMP JUMPDEST PUSH2 0x22A PUSH2 0x286 CALLDATASIZE PUSH1 0x4 PUSH2 0x40AA JUMP JUMPDEST PUSH2 0x9DA JUMP JUMPDEST PUSH2 0x29E PUSH2 0x299 CALLDATASIZE PUSH1 0x4 PUSH2 0x3EF1 JUMP JUMPDEST PUSH2 0xB61 JUMP JUMPDEST PUSH1 0x40 MLOAD PUSH2 0x25C SWAP9 SWAP8 SWAP7 SWAP6 SWAP5 SWAP4 SWAP3 SWAP2 SWAP1 PUSH2 0x4191 JUMP JUMPDEST PUSH2 0x2C5 PUSH2 0x2C0 CALLDATASIZE PUSH1 0x4 PUSH2 0x3EF1 JUMP JUMPDEST PUSH2 0xE4D JUMP JUMPDEST PUSH1 0x40 MLOAD SWAP1 ISZERO ISZERO DUP2 MSTORE PUSH1 0x20 ADD PUSH2 0x25C JUMP JUMPDEST PUSH2 0x22A PUSH2 0x2E3 CALLDATASIZE PUSH1 0x4 PUSH2 0x422A JUMP JUMPDEST PUSH2 0xE7A JUMP JUMPDEST PUSH2 0x22A PUSH2 0x2F6 CALLDATASIZE PUSH1 0x4 PUSH2 0x4311 JUMP JUMPDEST PUSH2 0x1048 JUMP JUMPDEST PUSH2 0x30E PUSH2 0x309 CALLDATASIZE PUSH1 0x4 PUSH2 0x3EF1 JUMP JUMPDEST PUSH2 0x11E1 JUMP JUMPDEST PUSH1 0x40 MLOAD PUSH2 0x25C SWAP2 SWAP1 PUSH2 0x43AD JUMP JUMPDEST PUSH2 0x252 PUSH1 0xA SLOAD DUP2 JUMP JUMPDEST PUSH2 0x252 PUSH1 0x9 SLOAD DUP2 JUMP JUMPDEST PUSH2 0x2C5 PUSH2 0x33B CALLDATASIZE PUSH1 0x4 PUSH2 0x3EF1 JUMP JUMPDEST PUSH0 PUSH1 0x20 DUP2 SWAP1 MSTORE SWAP1 DUP2 MSTORE PUSH1 0x40 SWAP1 KECCAK256 SLOAD PUSH1 0xFF AND DUP2 JUMP JUMPDEST PUSH2 0x22A PUSH2 0x35D CALLDATASIZE PUSH1 0x4 PUSH2 0x422A JUMP JUMPDEST PUSH2 0x12EC JUMP JUMPDEST PUSH2 0x22A PUSH2 0x370 CALLDATASIZE PUSH1 0x4 PUSH2 0x3EF1 JUMP JUMPDEST PUSH2 0x155C JUMP JUMPDEST PUSH2 0x388 PUSH2 0x383 CALLDATASIZE PUSH1 0x4 PUSH2 0x441F JUMP JUMPDEST PUSH2 0x16FC JUMP JUMPDEST PUSH1 0x40 MLOAD PUSH2 0x25C SWAP3 SWAP2 SWAP1 PUSH2 0x4447 JUMP JUMPDEST PUSH2 0x22A PUSH2 0x3A4 CALLDATASIZE PUSH1 0x4 PUSH2 0x3EF1 JUMP JUMPDEST PUSH2 0x17BC JUMP JUMPDEST PUSH2 0x3BC PUSH2 0x3B7 CALLDATASIZE PUSH1 0x4 PUSH2 0x3EF1 JUMP JUMPDEST PUSH2 0x1839 JUMP JUMPDEST PUSH1 0x40 MLOAD PUSH2 0x25C SWAP7 SWAP6 SWAP5 SWAP4 SWAP3 SWAP2 SWAP1 PUSH2 0x4467 JUMP JUMPDEST PUSH1 0x1 SLOAD PUSH2 0x3E1 SWAP1 PUSH1 0x1 PUSH1 0x1 PUSH1 0xA0 SHL SUB AND DUP2 JUMP JUMPDEST PUSH1 0x40 MLOAD PUSH1 0x1 PUSH1 0x1 PUSH1 0xA0 SHL SUB SWAP1 SWAP2 AND DUP2 MSTORE PUSH1 0x20 ADD PUSH2 0x25C JUMP JUMPDEST PUSH2 0x2C5 PUSH2 0x407 CALLDATASIZE PUSH1 0x4 PUSH2 0x3EF1 JUMP JUMPDEST PUSH2 0x1A0D JUMP JUMPDEST PUSH2 0x22A PUSH2 0x41A CALLDATASIZE PUSH1 0x4 PUSH2 0x4311 JUMP JUMPDEST PUSH2 0x1A5A JUMP JUMPDEST PUSH2 0x252 PUSH1 0xB SLOAD DUP2 JUMP JUMPDEST PUSH2 0x252 PUSH2 0x436 CALLDATASIZE PUSH1 0x4 PUSH2 0x4093 JUMP JUMPDEST PUSH2 0x1C8E JUMP JUMPDEST PUSH2 0x2C5 PUSH2 0x449 CALLDATASIZE PUSH1 0x4 PUSH2 0x3EF1 JUMP JUMPDEST PUSH2 0x1C9D JUMP JUMPDEST PUSH2 0x22A PUSH2 0x45C CALLDATASIZE PUSH1 0x4 PUSH2 0x40AA JUMP JUMPDEST PUSH2 0x1CC5 JUMP JUMPDEST PUSH2 0x474 PUSH2 0x46F CALLDATASIZE PUSH1 0x4 PUSH2 0x3EF1 JUMP JUMPDEST PUSH2 0x1ED8 JUMP JUMPDEST PUSH1 0x40 MLOAD PUSH2 0x25C SWAP2 SWAP1 PUSH2 0x44C7 JUMP JUMPDEST PUSH2 0x22A PUSH2 0x48F CALLDATASIZE PUSH1 0x4 PUSH2 0x3FA7 JUMP JUMPDEST PUSH2 0x21BF JUMP JUMPDEST PUSH2 0x22A PUSH2 0x4A2 CALLDATASIZE PUSH1 0x4 PUSH2 0x454D JUMP JUMPDEST PUSH2 0x242D JUMP JUMPDEST PUSH2 0x4BA PUSH2 0x4B5 CALLDATASIZE PUSH1 0x4 PUSH2 0x3EF1 JUMP JUMPDEST PUSH2 0x248C JUMP JUMPDEST PUSH1 0x40 MLOAD PUSH2 0x25C SWAP2 SWAP1 PUSH2 0x4598 JUMP JUMPDEST PUSH2 0x2C5 PUSH2 0x4D5 CALLDATASIZE PUSH1 0x4 PUSH2 0x3EF1 JUMP JUMPDEST PUSH1 0x6 PUSH1 0x20 MSTORE PUSH0 SWAP1 DUP2 MSTORE PUSH1 0x40 SWAP1 KECCAK256 SLOAD PUSH1 0xFF AND DUP2 JUMP JUMPDEST PUSH2 0x4FC PUSH2 0x4F7 CALLDATASIZE PUSH1 0x4 PUSH2 0x3EF1 JUMP JUMPDEST PUSH2 0x291A JUMP JUMPDEST PUSH1 0x40 MLOAD PUSH2 0x25C SWAP6 SWAP5 SWAP4 SWAP3 SWAP2 SWAP1 PUSH2 0x46AB JUMP JUMPDEST PUSH2 0x22A PUSH2 0x51B CALLDATASIZE PUSH1 0x4 PUSH2 0x4707 JUMP JUMPDEST PUSH2 0x2AE4 JUMP JUMPDEST PUSH2 0x533 PUSH2 0x52E CALLDATASIZE PUSH1 0x4 PUSH2 0x3EF1 JUMP JUMPDEST PUSH2 0x2E49 JUMP JUMPDEST PUSH1 0x40 MLOAD PUSH2 0x25C SWAP3 SWAP2 SWAP1 PUSH2 0x485A JUMP JUMPDEST PUSH2 0x554 PUSH2 0x54F CALLDATASIZE PUSH1 0x4 PUSH2 0x3EF1 JUMP JUMPDEST PUSH2 0x368A JUMP JUMPDEST PUSH1 0x40 MLOAD PUSH2 0x25C SWAP9 SWAP8 SWAP7 SWAP6 SWAP5 SWAP4 SWAP3 SWAP2 SWAP1 PUSH2 0x4934 JUMP JUMPDEST PUSH2 0x57B PUSH2 0x576 CALLDATASIZE PUSH1 0x4 PUSH2 0x3EF1 JUMP JUMPDEST PUSH2 0x38FA JUMP JUMPDEST PUSH1 0x40 MLOAD PUSH2 0x25C SWAP2 SWAP1 PUSH2 0x49B9 JUMP JUMPDEST PUSH2 0x59B PUSH2 0x596 CALLDATASIZE PUSH1 0x4 PUSH2 0x441F JUMP JUMPDEST PUSH2 0x3BC8 JUMP JUMPDEST PUSH1 0x40 MLOAD PUSH2 0x25C SWAP9 SWAP8 SWAP7 SWAP6 SWAP5 SWAP4 SWAP3 SWAP2 SWAP1 PUSH2 0x4A39 JUMP JUMPDEST CALLER PUSH0 SWAP1 DUP2 MSTORE PUSH1 0x20 DUP2 SWAP1 MSTORE PUSH1 0x40 SWAP1 KECCAK256 SLOAD PUSH1 0xFF AND DUP1 PUSH2 0x5D6 JUMPI POP PUSH1 0x1 SLOAD PUSH1 0x1 PUSH1 0x1 PUSH1 0xA0 SHL SUB AND CALLER EQ JUMPDEST PUSH2 0x5FB JUMPI PUSH1 0x40 MLOAD PUSH3 0x461BCD PUSH1 0xE5 SHL DUP2 MSTORE PUSH1 0x4 ADD PUSH2 0x5F2 SWAP1 PUSH2 0x4A9F JUMP JUMPDEST PUSH1 0x40 MLOAD DUP1 SWAP2 SUB SWAP1 REVERT JUMPDEST CALLER PUSH0 SWAP1 DUP2 MSTORE PUSH1 0x20 DUP2 SWAP1 MSTORE PUSH1 0x40 SWAP1 KECCAK256 DUP1 SLOAD PUSH1 0xFF NOT AND PUSH1 0x1 OR SWAP1 SSTORE PUSH1 0x1 PUSH1 0x1 PUSH1 0xA0 SHL SUB DUP2 AND PUSH2 0x65C JUMPI PUSH1 0x40 MLOAD PUSH3 0x461BCD PUSH1 0xE5 SHL DUP2 MSTORE PUSH1 0x20 PUSH1 0x4 DUP3 ADD MSTORE PUSH1 0xF PUSH1 0x24 DUP3 ADD MSTORE PUSH15 0x496E76616C69642041646472657373 PUSH1 0x88 SHL PUSH1 0x44 DUP3 ADD MSTORE PUSH1 0x64 ADD PUSH2 0x5F2 JUMP JUMPDEST PUSH1 0x1 PUSH1 0x1 PUSH1 0xA0 SHL SUB DUP2 AND PUSH0 SWAP1 DUP2 MSTORE PUSH1 0x6 PUSH1 0x20 MSTORE PUSH1 0x40 SWAP1 KECCAK256 SLOAD PUSH1 0xFF AND PUSH2 0x6F8 JUMPI PUSH1 0x40 MLOAD PUSH3 0x461BCD PUSH1 0xE5 SHL DUP2 MSTORE PUSH1 0x20 PUSH1 0x4 DUP3 ADD MSTORE PUSH1 0x46 PUSH1 0x24 DUP3 ADD MSTORE PUSH32 0x50726F76696465642061646472657373206D75737420626520616E2041646D69 PUSH1 0x44 DUP3 ADD MSTORE PUSH32 0x6E4163636573734164647265737320746F2072656D6F76652041646D696E4163 PUSH1 0x64 DUP3 ADD MSTORE PUSH6 0x636573732121 PUSH1 0xD0 SHL PUSH1 0x84 DUP3 ADD MSTORE PUSH1 0xA4 ADD PUSH2 0x5F2 JUMP JUMPDEST PUSH1 0x1 PUSH1 0x1 PUSH1 0xA0 SHL SUB AND PUSH0 SWAP1 DUP2 MSTORE PUSH1 0x6 PUSH1 0x20 MSTORE PUSH1 0x40 SWAP1 KECCAK256 DUP1 SLOAD PUSH1 0xFF NOT AND SWAP1 SSTORE JUMP JUMPDEST CALLER PUSH0 SWAP1 DUP2 MSTORE PUSH1 0x6 PUSH1 0x20 MSTORE PUSH1 0x40 DUP2 KECCAK256 SLOAD PUSH1 0xFF AND ISZERO PUSH2 0x733 JUMPI POP PUSH1 0x1 JUMPDEST CALLER PUSH0 SWAP1 DUP2 MSTORE PUSH1 0x6 PUSH1 0x20 MSTORE PUSH1 0x40 SWAP1 KECCAK256 SLOAD PUSH1 0xFF AND PUSH2 0x761 JUMPI PUSH1 0x40 MLOAD PUSH3 0x461BCD PUSH1 0xE5 SHL DUP2 MSTORE PUSH1 0x4 ADD PUSH2 0x5F2 SWAP1 PUSH2 0x4AE9 JUMP JUMPDEST PUSH1 0x1 PUSH1 0x1 PUSH1 0xA0 SHL SUB DUP8 AND ISZERO DUP1 ISZERO SWAP1 PUSH2 0x779 JUMPI POP PUSH0 DUP7 MLOAD GT JUMPDEST DUP1 ISZERO PUSH2 0x785 JUMPI POP PUSH0 DUP6 MLOAD GT JUMPDEST PUSH2 0x7A1 JUMPI PUSH1 0x40 MLOAD PUSH3 0x461BCD PUSH1 0xE5 SHL DUP2 MSTORE PUSH1 0x4 ADD PUSH2 0x5F2 SWAP1 PUSH2 0x4B51 JUMP JUMPDEST PUSH1 0x1 PUSH1 0x1 PUSH1 0xA0 SHL SUB DUP1 DUP9 AND PUSH0 DUP2 DUP2 MSTORE PUSH1 0x2 PUSH1 0x20 DUP2 SWAP1 MSTORE PUSH1 0x40 SWAP1 SWAP2 KECCAK256 ADD SLOAD SWAP1 SWAP2 AND EQ PUSH2 0x7DE JUMPI PUSH1 0x40 MLOAD PUSH3 0x461BCD PUSH1 0xE5 SHL DUP2 MSTORE PUSH1 0x4 ADD PUSH2 0x5F2 SWAP1 PUSH2 0x4B97 JUMP JUMPDEST PUSH1 0x40 DUP1 MLOAD PUSH2 0x100 DUP2 ADD DUP3 MSTORE DUP11 DUP2 MSTORE PUSH1 0x20 DUP1 DUP3 ADD DUP12 SWAP1 MSTORE PUSH1 0x1 PUSH1 0x1 PUSH1 0xA0 SHL SUB DUP11 AND DUP3 DUP5 ADD DUP2 SWAP1 MSTORE PUSH1 0x60 DUP4 ADD DUP11 SWAP1 MSTORE PUSH1 0x80 DUP4 ADD DUP10 SWAP1 MSTORE PUSH1 0xA0 DUP4 ADD DUP9 SWAP1 MSTORE PUSH1 0xC0 DUP4 ADD DUP8 SWAP1 MSTORE PUSH1 0xE0 DUP4 ADD DUP7 SWAP1 MSTORE PUSH0 SWAP1 DUP2 MSTORE PUSH1 0x2 SWAP1 SWAP2 MSTORE SWAP2 SWAP1 SWAP2 KECCAK256 DUP2 MLOAD DUP6 SWAP3 SWAP2 SWAP1 DUP2 SWAP1 PUSH2 0x846 SWAP1 DUP3 PUSH2 0x4CB1 JUMP JUMPDEST POP PUSH1 0x20 DUP3 ADD MLOAD PUSH1 0x1 DUP3 ADD SWAP1 PUSH2 0x85B SWAP1 DUP3 PUSH2 0x4CB1 JUMP JUMPDEST POP PUSH1 0x40 DUP3 ADD MLOAD PUSH1 0x2 DUP3 ADD DUP1 SLOAD PUSH1 0x1 PUSH1 0x1 PUSH1 0xA0 SHL SUB NOT AND PUSH1 0x1 PUSH1 0x1 PUSH1 0xA0 SHL SUB SWAP1 SWAP3 AND SWAP2 SWAP1 SWAP2 OR SWAP1 SSTORE PUSH1 0x60 DUP3 ADD MLOAD PUSH1 0x3 DUP3 ADD SWAP1 PUSH2 0x896 SWAP1 DUP3 PUSH2 0x4CB1 JUMP JUMPDEST POP PUSH1 0x80 DUP3 ADD MLOAD PUSH1 0x4 DUP3 ADD SWAP1 PUSH2 0x8AB SWAP1 DUP3 PUSH2 0x4CB1 JUMP JUMPDEST POP PUSH1 0xA0 DUP3 ADD MLOAD PUSH1 0x5 DUP3 ADD SWAP1 PUSH2 0x8C0 SWAP1 DUP3 PUSH2 0x4CB1 JUMP JUMPDEST POP PUSH1 0xC0 DUP3 ADD MLOAD PUSH1 0x6 DUP3 ADD SSTORE PUSH1 0xE0 SWAP1 SWAP2 ADD MLOAD PUSH1 0x7 SWAP1 SWAP2 ADD SSTORE POP POP POP POP POP POP POP POP POP POP JUMP JUMPDEST PUSH0 DUP1 PUSH2 0x8EE TIMESTAMP PUSH2 0x1C8E JUMP JUMPDEST SWAP1 POP PUSH0 DUP4 PUSH2 0x8FE DUP4 PUSH2 0x7B2 PUSH2 0x4D81 JUMP JUMPDEST PUSH2 0x908 SWAP2 SWAP1 PUSH2 0x4D94 JUMP JUMPDEST SWAP1 POP PUSH0 DUP2 GT PUSH2 0x959 JUMPI PUSH1 0x40 MLOAD PUSH3 0x461BCD PUSH1 0xE5 SHL DUP2 MSTORE PUSH1 0x20 PUSH1 0x4 DUP3 ADD MSTORE PUSH1 0x18 PUSH1 0x24 DUP3 ADD MSTORE PUSH32 0x456E74657220636F727265637420626972746820796561720000000000000000 PUSH1 0x44 DUP3 ADD MSTORE PUSH1 0x64 ADD PUSH2 0x5F2 JUMP JUMPDEST SWAP4 SWAP3 POP POP POP JUMP JUMPDEST PUSH1 0x1 SLOAD PUSH1 0x1 PUSH1 0x1 PUSH1 0xA0 SHL SUB AND CALLER EQ PUSH2 0x9BA JUMPI PUSH1 0x40 MLOAD PUSH3 0x461BCD PUSH1 0xE5 SHL DUP2 MSTORE PUSH1 0x20 PUSH1 0x4 DUP3 ADD MSTORE PUSH1 0x1F PUSH1 0x24 DUP3 ADD MSTORE PUSH32 0x41636365737365626C65206F6E6C7920666F722053757065724F776E65727300 PUSH1 0x44 DUP3 ADD MSTORE PUSH1 0x64 ADD PUSH2 0x5F2 JUMP JUMPDEST PUSH1 0x1 PUSH1 0x1 PUSH1 0xA0 SHL SUB AND PUSH0 SWAP1 DUP2 MSTORE PUSH1 0x20 DUP2 SWAP1 MSTORE PUSH1 0x40 SWAP1 KECCAK256 DUP1 SLOAD PUSH1 0xFF NOT AND SWAP1 SSTORE JUMP JUMPDEST CALLER PUSH0 SWAP1 DUP2 MSTORE PUSH1 0x20 DUP2 SWAP1 MSTORE PUSH1 0x40 SWAP1 KECCAK256 SLOAD PUSH1 0xFF AND DUP1 PUSH2 0xA01 JUMPI POP PUSH1 0x1 SLOAD PUSH1 0x1 PUSH1 0x1 PUSH1 0xA0 SHL SUB AND CALLER EQ JUMPDEST PUSH2 0xA1D JUMPI PUSH1 0x40 MLOAD PUSH3 0x461BCD PUSH1 0xE5 SHL DUP2 MSTORE PUSH1 0x4 ADD PUSH2 0x5F2 SWAP1 PUSH2 0x4A9F JUMP JUMPDEST PUSH1 0x1 PUSH1 0x1 PUSH1 0xA0 SHL SUB DUP6 AND ISZERO DUP1 ISZERO SWAP1 PUSH2 0xA35 JUMPI POP PUSH0 DUP2 MLOAD GT JUMPDEST DUP1 ISZERO PUSH2 0xA41 JUMPI POP PUSH0 DUP7 MLOAD GT JUMPDEST PUSH2 0xA5D JUMPI PUSH1 0x40 MLOAD PUSH3 0x461BCD PUSH1 0xE5 SHL DUP2 MSTORE PUSH1 0x4 ADD PUSH2 0x5F2 SWAP1 PUSH2 0x4DA7 JUMP JUMPDEST PUSH1 0x1 PUSH1 0x1 PUSH1 0xA0 SHL SUB DUP1 DUP7 AND PUSH0 DUP2 DUP2 MSTORE PUSH1 0x7 PUSH1 0x20 MSTORE PUSH1 0x40 SWAP1 KECCAK256 PUSH1 0x1 ADD SLOAD SWAP1 SWAP2 AND EQ PUSH2 0xA99 JUMPI PUSH1 0x40 MLOAD PUSH3 0x461BCD PUSH1 0xE5 SHL DUP2 MSTORE PUSH1 0x4 ADD PUSH2 0x5F2 SWAP1 PUSH2 0x4DF6 JUMP JUMPDEST PUSH1 0x40 DUP1 MLOAD PUSH1 0xC0 DUP2 ADD DUP3 MSTORE DUP8 DUP2 MSTORE PUSH1 0x1 PUSH1 0x1 PUSH1 0xA0 SHL SUB DUP8 AND PUSH1 0x20 DUP1 DUP4 ADD DUP3 SWAP1 MSTORE DUP3 DUP5 ADD DUP9 SWAP1 MSTORE PUSH1 0x60 DUP4 ADD DUP8 SWAP1 MSTORE PUSH1 0x80 DUP4 ADD DUP7 SWAP1 MSTORE PUSH1 0xA0 DUP4 ADD DUP6 SWAP1 MSTORE PUSH0 SWAP2 DUP3 MSTORE PUSH1 0x7 SWAP1 MSTORE SWAP2 SWAP1 SWAP2 KECCAK256 DUP2 MLOAD DUP6 SWAP3 SWAP2 SWAP1 DUP2 SWAP1 PUSH2 0xAF1 SWAP1 DUP3 PUSH2 0x4CB1 JUMP JUMPDEST POP PUSH1 0x20 DUP3 ADD MLOAD PUSH1 0x1 DUP3 ADD DUP1 SLOAD PUSH1 0x1 PUSH1 0x1 PUSH1 0xA0 SHL SUB NOT AND PUSH1 0x1 PUSH1 0x1 PUSH1 0xA0 SHL SUB SWAP1 SWAP3 AND SWAP2 SWAP1 SWAP2 OR SWAP1 SSTORE PUSH1 0x40 DUP3 ADD MLOAD PUSH1 0x2 DUP3 ADD SWAP1 PUSH2 0xB2C SWAP1 DUP3 PUSH2 0x4CB1 JUMP JUMPDEST POP PUSH1 0x60 DUP3 ADD MLOAD PUSH1 0x3 DUP3 ADD SSTORE PUSH1 0x80 DUP3 ADD MLOAD PUSH1 0x4 DUP3 ADD SSTORE PUSH1 0xA0 DUP3 ADD MLOAD PUSH1 0x5 DUP3 ADD SWAP1 PUSH2 0xB55 SWAP1 DUP3 PUSH2 0x4CB1 JUMP JUMPDEST POP POP POP POP POP POP POP POP POP POP JUMP JUMPDEST PUSH1 0x2 PUSH1 0x20 MSTORE PUSH0 SWAP1 DUP2 MSTORE PUSH1 0x40 SWAP1 KECCAK256 DUP1 SLOAD DUP2 SWAP1 PUSH2 0xB7B SWAP1 PUSH2 0x4C2F JUMP JUMPDEST DUP1 PUSH1 0x1F ADD PUSH1 0x20 DUP1 SWAP2 DIV MUL PUSH1 0x20 ADD PUSH1 0x40 MLOAD SWAP1 DUP2 ADD PUSH1 0x40 MSTORE DUP1 SWAP3 SWAP2 SWAP1 DUP2 DUP2 MSTORE PUSH1 0x20 ADD DUP3 DUP1 SLOAD PUSH2 0xBA7 SWAP1 PUSH2 0x4C2F JUMP JUMPDEST DUP1 ISZERO PUSH2 0xBF2 JUMPI DUP1 PUSH1 0x1F LT PUSH2 0xBC9 JUMPI PUSH2 0x100 DUP1 DUP4 SLOAD DIV MUL DUP4 MSTORE SWAP2 PUSH1 0x20 ADD SWAP2 PUSH2 0xBF2 JUMP JUMPDEST DUP3 ADD SWAP2 SWAP1 PUSH0 MSTORE PUSH1 0x20 PUSH0 KECCAK256 SWAP1 JUMPDEST DUP2 SLOAD DUP2 MSTORE SWAP1 PUSH1 0x1 ADD SWAP1 PUSH1 0x20 ADD DUP1 DUP4 GT PUSH2 0xBD5 JUMPI DUP3 SWAP1 SUB PUSH1 0x1F AND DUP3 ADD SWAP2 JUMPDEST POP POP POP POP POP SWAP1 DUP1 PUSH1 0x1 ADD DUP1 SLOAD PUSH2 0xC07 SWAP1 PUSH2 0x4C2F JUMP JUMPDEST DUP1 PUSH1 0x1F ADD PUSH1 0x20 DUP1 SWAP2 DIV MUL PUSH1 0x20 ADD PUSH1 0x40 MLOAD SWAP1 DUP2 ADD PUSH1 0x40 MSTORE DUP1 SWAP3 SWAP2 SWAP1 DUP2 DUP2 MSTORE PUSH1 0x20 ADD DUP3 DUP1 SLOAD PUSH2 0xC33 SWAP1 PUSH2 0x4C2F JUMP JUMPDEST DUP1 ISZERO PUSH2 0xC7E JUMPI DUP1 PUSH1 0x1F LT PUSH2 0xC55 JUMPI PUSH2 0x100 DUP1 DUP4 SLOAD DIV MUL DUP4 MSTORE SWAP2 PUSH1 0x20 ADD SWAP2 PUSH2 0xC7E JUMP JUMPDEST DUP3 ADD SWAP2 SWAP1 PUSH0 MSTORE PUSH1 0x20 PUSH0 KECCAK256 SWAP1 JUMPDEST DUP2 SLOAD DUP2 MSTORE SWAP1 PUSH1 0x1 ADD SWAP1 PUSH1 0x20 ADD DUP1 DUP4 GT PUSH2 0xC61 JUMPI DUP3 SWAP1 SUB PUSH1 0x1F AND DUP3 ADD SWAP2 JUMPDEST POP POP POP PUSH1 0x2 DUP5 ADD SLOAD PUSH1 0x3 DUP6 ADD DUP1 SLOAD SWAP5 SWAP6 PUSH1 0x1 PUSH1 0x1 PUSH1 0xA0 SHL SUB SWAP1 SWAP3 AND SWAP5 SWAP2 SWAP4 POP SWAP2 POP PUSH2 0xCA8 SWAP1 PUSH2 0x4C2F JUMP JUMPDEST DUP1 PUSH1 0x1F ADD PUSH1 0x20 DUP1 SWAP2 DIV MUL PUSH1 0x20 ADD PUSH1 0x40 MLOAD SWAP1 DUP2 ADD PUSH1 0x40 MSTORE DUP1 SWAP3 SWAP2 SWAP1 DUP2 DUP2 MSTORE PUSH1 0x20 ADD DUP3 DUP1 SLOAD PUSH2 0xCD4 SWAP1 PUSH2 0x4C2F JUMP JUMPDEST DUP1 ISZERO PUSH2 0xD1F JUMPI DUP1 PUSH1 0x1F LT PUSH2 0xCF6 JUMPI PUSH2 0x100 DUP1 DUP4 SLOAD DIV MUL DUP4 MSTORE SWAP2 PUSH1 0x20 ADD SWAP2 PUSH2 0xD1F JUMP JUMPDEST DUP3 ADD SWAP2 SWAP1 PUSH0 MSTORE PUSH1 0x20 PUSH0 KECCAK256 SWAP1 JUMPDEST DUP2 SLOAD DUP2 MSTORE SWAP1 PUSH1 0x1 ADD SWAP1 PUSH1 0x20 ADD DUP1 DUP4 GT PUSH2 0xD02 JUMPI DUP3 SWAP1 SUB PUSH1 0x1F AND DUP3 ADD SWAP2 JUMPDEST POP POP POP POP POP SWAP1 DUP1 PUSH1 0x4 ADD DUP1 SLOAD PUSH2 0xD34 SWAP1 PUSH2 0x4C2F JUMP JUMPDEST DUP1 PUSH1 0x1F ADD PUSH1 0x20 DUP1 SWAP2 DIV MUL PUSH1 0x20 ADD PUSH1 0x40 MLOAD SWAP1 DUP2 ADD PUSH1 0x40 MSTORE DUP1 SWAP3 SWAP2 SWAP1 DUP2 DUP2 MSTORE PUSH1 0x20 ADD DUP3 DUP1 SLOAD PUSH2 0xD60 SWAP1 PUSH2 0x4C2F JUMP JUMPDEST DUP1 ISZERO PUSH2 0xDAB JUMPI DUP1 PUSH1 0x1F LT PUSH2 0xD82 JUMPI PUSH2 0x100 DUP1 DUP4 SLOAD DIV MUL DUP4 MSTORE SWAP2 PUSH1 0x20 ADD SWAP2 PUSH2 0xDAB JUMP JUMPDEST DUP3 ADD SWAP2 SWAP1 PUSH0 MSTORE PUSH1 0x20 PUSH0 KECCAK256 SWAP1 JUMPDEST DUP2 SLOAD DUP2 MSTORE SWAP1 PUSH1 0x1 ADD SWAP1 PUSH1 0x20 ADD DUP1 DUP4 GT PUSH2 0xD8E JUMPI DUP3 SWAP1 SUB PUSH1 0x1F AND DUP3 ADD SWAP2 JUMPDEST POP POP POP POP POP SWAP1 DUP1 PUSH1 0x5 ADD DUP1 SLOAD PUSH2 0xDC0 SWAP1 PUSH2 0x4C2F JUMP JUMPDEST DUP1 PUSH1 0x1F ADD PUSH1 0x20 DUP1 SWAP2 DIV MUL PUSH1 0x20 ADD PUSH1 0x40 MLOAD SWAP1 DUP2 ADD PUSH1 0x40 MSTORE DUP1 SWAP3 SWAP2 SWAP1 DUP2 DUP2 MSTORE PUSH1 0x20 ADD DUP3 DUP1 SLOAD PUSH2 0xDEC SWAP1 PUSH2 0x4C2F JUMP JUMPDEST DUP1 ISZERO PUSH2 0xE37 JUMPI DUP1 PUSH1 0x1F LT PUSH2 0xE0E JUMPI PUSH2 0x100 DUP1 DUP4 SLOAD DIV MUL DUP4 MSTORE SWAP2 PUSH1 0x20 ADD SWAP2 PUSH2 0xE37 JUMP JUMPDEST DUP3 ADD SWAP2 SWAP1 PUSH0 MSTORE PUSH1 0x20 PUSH0 KECCAK256 SWAP1 JUMPDEST DUP2 SLOAD DUP2 MSTORE SWAP1 PUSH1 0x1 ADD SWAP1 PUSH1 0x20 ADD DUP1 DUP4 GT PUSH2 0xE1A JUMPI DUP3 SWAP1 SUB PUSH1 0x1F AND DUP3 ADD SWAP2 JUMPDEST POP POP POP POP POP SWAP1 DUP1 PUSH1 0x6 ADD SLOAD SWAP1 DUP1 PUSH1 0x7 ADD SLOAD SWAP1 POP DUP9 JUMP JUMPDEST PUSH1 0x1 PUSH1 0x1 PUSH1 0xA0 SHL SUB DUP2 AND PUSH0 SWAP1 DUP2 MSTORE PUSH1 0x20 DUP2 SWAP1 MSTORE PUSH1 0x40 DUP2 KECCAK256 SLOAD PUSH1 0xFF AND ISZERO PUSH2 0xE75 JUMPI POP PUSH1 0x1 SWAP2 SWAP1 POP JUMP JUMPDEST SWAP2 SWAP1 POP JUMP JUMPDEST CALLER PUSH0 SWAP1 DUP2 MSTORE PUSH1 0x6 PUSH1 0x20 MSTORE PUSH1 0x40 DUP2 KECCAK256 SLOAD PUSH1 0xFF AND ISZERO PUSH2 0xE95 JUMPI POP PUSH1 0x1 JUMPDEST CALLER PUSH0 SWAP1 DUP2 MSTORE PUSH1 0x6 PUSH1 0x20 MSTORE PUSH1 0x40 SWAP1 KECCAK256 SLOAD PUSH1 0xFF AND PUSH2 0xEC3 JUMPI PUSH1 0x40 MLOAD PUSH3 0x461BCD PUSH1 0xE5 SHL DUP2 MSTORE PUSH1 0x4 ADD PUSH2 0x5F2 SWAP1 PUSH2 0x4AE9 JUMP JUMPDEST PUSH1 0x1 PUSH1 0x1 PUSH1 0xA0 SHL SUB DUP9 AND PUSH2 0xEE9 JUMPI PUSH1 0x40 MLOAD PUSH3 0x461BCD PUSH1 0xE5 SHL DUP2 MSTORE PUSH1 0x4 ADD PUSH2 0x5F2 SWAP1 PUSH2 0x4B51 JUMP JUMPDEST PUSH1 0x1 PUSH1 0x1 PUSH1 0xA0 SHL SUB DUP1 DUP10 AND PUSH0 DUP2 DUP2 MSTORE PUSH1 0x2 PUSH1 0x20 DUP2 SWAP1 MSTORE PUSH1 0x40 SWAP1 SWAP2 KECCAK256 ADD SLOAD SWAP1 SWAP2 AND EQ PUSH2 0xF26 JUMPI PUSH1 0x40 MLOAD PUSH3 0x461BCD PUSH1 0xE5 SHL DUP2 MSTORE PUSH1 0x4 ADD PUSH2 0x5F2 SWAP1 PUSH2 0x4B97 JUMP JUMPDEST PUSH1 0x40 DUP1 MLOAD PUSH2 0x100 DUP2 ADD DUP3 MSTORE DUP11 DUP2 MSTORE PUSH1 0x1 PUSH1 0x1 PUSH1 0xA0 SHL SUB DUP11 AND PUSH1 0x20 DUP1 DUP4 ADD DUP3 SWAP1 MSTORE DUP11 ISZERO ISZERO DUP4 DUP6 ADD MSTORE DUP10 ISZERO ISZERO PUSH1 0x60 DUP5 ADD MSTORE DUP9 ISZERO ISZERO PUSH1 0x80 DUP5 ADD MSTORE PUSH1 0xA0 DUP4 ADD DUP9 SWAP1 MSTORE PUSH1 0xC0 DUP4 ADD DUP8 SWAP1 MSTORE PUSH1 0xE0 DUP4 ADD DUP7 SWAP1 MSTORE PUSH0 SWAP2 DUP3 MSTORE PUSH1 0x3 SWAP1 MSTORE SWAP2 SWAP1 SWAP2 KECCAK256 DUP2 MLOAD DUP2 SWAP1 PUSH2 0xF8C SWAP1 DUP3 PUSH2 0x4CB1 JUMP JUMPDEST POP PUSH1 0x20 DUP3 ADD MLOAD PUSH1 0x1 DUP3 ADD DUP1 SLOAD PUSH1 0x40 DUP6 ADD MLOAD PUSH1 0x60 DUP7 ADD MLOAD PUSH1 0x80 DUP8 ADD MLOAD ISZERO ISZERO PUSH1 0x1 PUSH1 0xB0 SHL MUL PUSH1 0xFF PUSH1 0xB0 SHL NOT SWAP2 ISZERO ISZERO PUSH1 0x1 PUSH1 0xA8 SHL MUL SWAP2 SWAP1 SWAP2 AND PUSH2 0xFFFF PUSH1 0xA8 SHL NOT SWAP3 ISZERO ISZERO PUSH1 0x1 PUSH1 0xA0 SHL MUL PUSH1 0x1 PUSH1 0x1 PUSH1 0xA8 SHL SUB NOT SWAP1 SWAP5 AND PUSH1 0x1 PUSH1 0x1 PUSH1 0xA0 SHL SUB SWAP1 SWAP7 AND SWAP6 SWAP1 SWAP6 OR SWAP3 SWAP1 SWAP3 OR AND SWAP3 SWAP1 SWAP3 OR SWAP2 SWAP1 SWAP2 OR SWAP1 SSTORE PUSH1 0xA0 DUP3 ADD MLOAD PUSH1 0x2 DUP3 ADD SWAP1 PUSH2 0x1010 SWAP1 DUP3 PUSH2 0x4CB1 JUMP JUMPDEST POP PUSH1 0xC0 DUP3 ADD MLOAD PUSH1 0x3 DUP3 ADD SWAP1 PUSH2 0x1025 SWAP1 DUP3 PUSH2 0x4CB1 JUMP JUMPDEST POP PUSH1 0xE0 DUP3 ADD MLOAD PUSH1 0x4 DUP3 ADD SWAP1 PUSH2 0x103A SWAP1 DUP3 PUSH2 0x4CB1 JUMP JUMPDEST POP POP POP POP POP POP POP POP POP POP POP POP JUMP JUMPDEST CALLER PUSH0 SWAP1 DUP2 MSTORE PUSH1 0x20 DUP2 SWAP1 MSTORE PUSH1 0x40 SWAP1 KECCAK256 SLOAD PUSH1 0xFF AND DUP1 PUSH2 0x106F JUMPI POP PUSH1 0x1 SLOAD PUSH1 0x1 PUSH1 0x1 PUSH1 0xA0 SHL SUB AND CALLER EQ JUMPDEST PUSH2 0x108B JUMPI PUSH1 0x40 MLOAD PUSH3 0x461BCD PUSH1 0xE5 SHL DUP2 MSTORE PUSH1 0x4 ADD PUSH2 0x5F2 SWAP1 PUSH2 0x4A9F JUMP JUMPDEST PUSH1 0x1 PUSH1 0x1 PUSH1 0xA0 SHL SUB DUP6 AND ISZERO DUP1 ISZERO SWAP1 PUSH2 0x10A3 JUMPI POP PUSH0 DUP2 MLOAD GT JUMPDEST DUP1 ISZERO PUSH2 0x10AF JUMPI POP PUSH0 DUP5 MLOAD GT JUMPDEST DUP1 ISZERO PUSH2 0x10BB JUMPI POP PUSH0 DUP4 MLOAD GT JUMPDEST PUSH2 0x10FF JUMPI PUSH1 0x40 MLOAD PUSH3 0x461BCD PUSH1 0xE5 SHL DUP2 MSTORE PUSH1 0x20 PUSH1 0x4 DUP3 ADD MSTORE PUSH1 0x15 PUSH1 0x24 DUP3 ADD MSTORE PUSH21 0x656E74657220636F72726563742064657461696C73 PUSH1 0x58 SHL PUSH1 0x44 DUP3 ADD MSTORE PUSH1 0x64 ADD PUSH2 0x5F2 JUMP JUMPDEST PUSH1 0x1 PUSH1 0x1 PUSH1 0xA0 SHL SUB DUP1 DUP7 AND PUSH0 DUP2 DUP2 MSTORE PUSH1 0x8 PUSH1 0x20 MSTORE PUSH1 0x40 SWAP1 KECCAK256 SLOAD SWAP1 SWAP2 AND EQ PUSH2 0x1138 JUMPI PUSH1 0x40 MLOAD PUSH3 0x461BCD PUSH1 0xE5 SHL DUP2 MSTORE PUSH1 0x4 ADD PUSH2 0x5F2 SWAP1 PUSH2 0x4DF6 JUMP JUMPDEST PUSH1 0x40 DUP1 MLOAD PUSH1 0xA0 DUP2 ADD DUP3 MSTORE PUSH1 0x1 PUSH1 0x1 PUSH1 0xA0 SHL SUB DUP8 DUP2 AND DUP1 DUP4 MSTORE PUSH1 0x20 DUP1 DUP5 ADD DUP7 DUP2 MSTORE DUP5 DUP7 ADD DUP11 SWAP1 MSTORE PUSH1 0x60 DUP6 ADD DUP10 SWAP1 MSTORE PUSH1 0x80 DUP6 ADD DUP9 SWAP1 MSTORE PUSH0 SWAP3 DUP4 MSTORE PUSH1 0x8 SWAP1 SWAP2 MSTORE SWAP4 SWAP1 KECCAK256 DUP3 MLOAD DUP2 SLOAD PUSH1 0x1 PUSH1 0x1 PUSH1 0xA0 SHL SUB NOT AND SWAP3 AND SWAP2 SWAP1 SWAP2 OR DUP2 SSTORE SWAP2 MLOAD SWAP1 SWAP2 SWAP1 PUSH1 0x1 DUP3 ADD SWAP1 PUSH2 0x11A2 SWAP1 DUP3 PUSH2 0x4CB1 JUMP JUMPDEST POP PUSH1 0x40 DUP3 ADD MLOAD PUSH1 0x2 DUP3 ADD SWAP1 PUSH2 0x11B7 SWAP1 DUP3 PUSH2 0x4CB1 JUMP JUMPDEST POP PUSH1 0x60 DUP3 ADD MLOAD PUSH1 0x3 DUP3 ADD SWAP1 PUSH2 0x11CC SWAP1 DUP3 PUSH2 0x4CB1 JUMP JUMPDEST POP PUSH1 0x80 DUP3 ADD MLOAD DUP2 PUSH1 0x4 ADD SSTORE SWAP1 POP POP POP POP POP POP POP JUMP JUMPDEST PUSH1 0x1 PUSH1 0x1 PUSH1 0xA0 SHL SUB DUP2 AND PUSH0 SWAP1 DUP2 MSTORE PUSH1 0x5 PUSH1 0x20 SWAP1 DUP2 MSTORE PUSH1 0x40 DUP1 DUP4 KECCAK256 DUP1 SLOAD DUP3 MLOAD DUP2 DUP6 MUL DUP2 ADD DUP6 ADD SWAP1 SWAP4 MSTORE DUP1 DUP4 MSTORE PUSH1 0x60 SWAP5 SWAP3 SWAP4 SWAP2 SWAP3 SWAP1 SWAP2 DUP5 ADD JUMPDEST DUP3 DUP3 LT ISZERO PUSH2 0x12E1 JUMPI DUP4 DUP3 SWAP1 PUSH0 MSTORE PUSH1 0x20 PUSH0 KECCAK256 SWAP1 PUSH1 0x2 MUL ADD PUSH1 0x40 MLOAD DUP1 PUSH1 0x40 ADD PUSH1 0x40 MSTORE SWAP1 DUP2 PUSH0 DUP3 ADD SLOAD DUP2 MSTORE PUSH1 0x20 ADD PUSH1 0x1 DUP3 ADD DUP1 SLOAD PUSH2 0x1252 SWAP1 PUSH2 0x4C2F JUMP JUMPDEST DUP1 PUSH1 0x1F ADD PUSH1 0x20 DUP1 SWAP2 DIV MUL PUSH1 0x20 ADD PUSH1 0x40 MLOAD SWAP1 DUP2 ADD PUSH1 0x40 MSTORE DUP1 SWAP3 SWAP2 SWAP1 DUP2 DUP2 MSTORE PUSH1 0x20 ADD DUP3 DUP1 SLOAD PUSH2 0x127E SWAP1 PUSH2 0x4C2F JUMP JUMPDEST DUP1 ISZERO PUSH2 0x12C9 JUMPI DUP1 PUSH1 0x1F LT PUSH2 0x12A0 JUMPI PUSH2 0x100 DUP1 DUP4 SLOAD DIV MUL DUP4 MSTORE SWAP2 PUSH1 0x20 ADD SWAP2 PUSH2 0x12C9 JUMP JUMPDEST DUP3 ADD SWAP2 SWAP1 PUSH0 MSTORE PUSH1 0x20 PUSH0 KECCAK256 SWAP1 JUMPDEST DUP2 SLOAD DUP2 MSTORE SWAP1 PUSH1 0x1 ADD SWAP1 PUSH1 0x20 ADD DUP1 DUP4 GT PUSH2 0x12AC JUMPI DUP3 SWAP1 SUB PUSH1 0x1F AND DUP3 ADD SWAP2 JUMPDEST POP POP POP POP POP DUP2 MSTORE POP POP DUP2 MSTORE PUSH1 0x20 ADD SWAP1 PUSH1 0x1 ADD SWAP1 PUSH2 0x1218 JUMP JUMPDEST POP POP POP POP SWAP1 POP SWAP2 SWAP1 POP JUMP JUMPDEST CALLER PUSH0 SWAP1 DUP2 MSTORE PUSH1 0x6 PUSH1 0x20 MSTORE PUSH1 0x40 DUP2 KECCAK256 SLOAD PUSH1 0xFF AND ISZERO PUSH2 0x1307 JUMPI POP PUSH1 0x1 JUMPDEST CALLER PUSH0 SWAP1 DUP2 MSTORE PUSH1 0x6 PUSH1 0x20 MSTORE PUSH1 0x40 SWAP1 KECCAK256 SLOAD PUSH1 0xFF AND PUSH2 0x1335 JUMPI PUSH1 0x40 MLOAD PUSH3 0x461BCD PUSH1 0xE5 SHL DUP2 MSTORE PUSH1 0x4 ADD PUSH2 0x5F2 SWAP1 PUSH2 0x4AE9 JUMP JUMPDEST PUSH1 0x1 PUSH1 0x1 PUSH1 0xA0 SHL SUB DUP1 DUP10 AND PUSH0 DUP2 DUP2 MSTORE PUSH1 0x3 PUSH1 0x20 MSTORE PUSH1 0x40 SWAP1 KECCAK256 PUSH1 0x1 ADD SLOAD SWAP1 SWAP2 AND SUB PUSH2 0x13DA JUMPI PUSH1 0x40 MLOAD PUSH3 0x461BCD PUSH1 0xE5 SHL DUP2 MSTORE PUSH1 0x20 PUSH1 0x4 DUP3 ADD MSTORE PUSH1 0x4A PUSH1 0x24 DUP3 ADD MSTORE PUSH32 0x50617469656E74206D65646963616C2064657461696C7320616C726561647920 PUSH1 0x44 DUP3 ADD MSTORE PUSH32 0x657869737421212E204B696E646C792065646974207468652064657461696C73 PUSH1 0x64 DUP3 ADD MSTORE PUSH10 0x81A59881B9959591959 PUSH1 0xB2 SHL PUSH1 0x84 DUP3 ADD MSTORE PUSH1 0xA4 ADD PUSH2 0x5F2 JUMP JUMPDEST PUSH1 0x1 PUSH1 0x1 PUSH1 0xA0 SHL SUB DUP9 AND PUSH2 0x1400 JUMPI PUSH1 0x40 MLOAD PUSH3 0x461BCD PUSH1 0xE5 SHL DUP2 MSTORE PUSH1 0x4 ADD PUSH2 0x5F2 SWAP1 PUSH2 0x4B51 JUMP JUMPDEST PUSH1 0x40 DUP1 MLOAD PUSH2 0x100 DUP2 ADD DUP3 MSTORE DUP11 DUP2 MSTORE PUSH1 0x1 PUSH1 0x1 PUSH1 0xA0 SHL SUB DUP11 AND PUSH1 0x20 DUP1 DUP4 ADD DUP3 SWAP1 MSTORE DUP11 ISZERO ISZERO DUP4 DUP6 ADD MSTORE DUP10 ISZERO ISZERO PUSH1 0x60 DUP5 ADD MSTORE DUP9 ISZERO ISZERO PUSH1 0x80 DUP5 ADD MSTORE PUSH1 0xA0 DUP4 ADD DUP9 SWAP1 MSTORE PUSH1 0xC0 DUP4 ADD DUP8 SWAP1 MSTORE PUSH1 0xE0 DUP4 ADD DUP7 SWAP1 MSTORE PUSH0 SWAP2 DUP3 MSTORE PUSH1 0x3 SWAP1 MSTORE SWAP2 SWAP1 SWAP2 KECCAK256 DUP2 MLOAD DUP2 SWAP1 PUSH2 0x1466 SWAP1 DUP3 PUSH2 0x4CB1 JUMP JUMPDEST POP PUSH1 0x20 DUP3 ADD MLOAD PUSH1 0x1 DUP3 ADD DUP1 SLOAD PUSH1 0x40 DUP6 ADD MLOAD PUSH1 0x60 DUP7 ADD MLOAD PUSH1 0x80 DUP8 ADD MLOAD ISZERO ISZERO PUSH1 0x1 PUSH1 0xB0 SHL MUL PUSH1 0xFF PUSH1 0xB0 SHL NOT SWAP2 ISZERO ISZERO PUSH1 0x1 PUSH1 0xA8 SHL MUL SWAP2 SWAP1 SWAP2 AND PUSH2 0xFFFF PUSH1 0xA8 SHL NOT SWAP3 ISZERO ISZERO PUSH1 0x1 PUSH1 0xA0 SHL MUL PUSH1 0x1 PUSH1 0x1 PUSH1 0xA8 SHL SUB NOT SWAP1 SWAP5 AND PUSH1 0x1 PUSH1 0x1 PUSH1 0xA0 SHL SUB SWAP1 SWAP7 AND SWAP6 SWAP1 SWAP6 OR SWAP3 SWAP1 SWAP3 OR AND SWAP3 SWAP1 SWAP3 OR SWAP2 SWAP1 SWAP2 OR SWAP1 SSTORE PUSH1 0xA0 DUP3 ADD MLOAD PUSH1 0x2 DUP3 ADD SWAP1 PUSH2 0x14EA SWAP1 DUP3 PUSH2 0x4CB1 JUMP JUMPDEST POP PUSH1 0xC0 DUP3 ADD MLOAD PUSH1 0x3 DUP3 ADD SWAP1 PUSH2 0x14FF SWAP1 DUP3 PUSH2 0x4CB1 JUMP JUMPDEST POP PUSH1 0xE0 DUP3 ADD MLOAD PUSH1 0x4 DUP3 ADD SWAP1 PUSH2 0x1514 SWAP1 DUP3 PUSH2 0x4CB1 JUMP JUMPDEST POP POP POP PUSH1 0x1 PUSH1 0x1 PUSH1 0xA0 SHL SUB DUP1 DUP10 AND PUSH0 DUP2 DUP2 MSTORE PUSH1 0x2 PUSH1 0x20 DUP2 SWAP1 MSTORE PUSH1 0x40 SWAP1 SWAP2 KECCAK256 ADD SLOAD SWAP1 SWAP2 AND SUB PUSH2 0x1551 JUMPI PUSH1 0xB DUP1 SLOAD SWAP1 PUSH0 PUSH2 0x154B DUP4 PUSH2 0x4E8E JUMP JUMPDEST SWAP2 SWAP1 POP SSTORE POP JUMPDEST POP POP POP POP POP POP POP POP POP JUMP JUMPDEST CALLER PUSH0 SWAP1 DUP2 MSTORE PUSH1 0x20 DUP2 SWAP1 MSTORE PUSH1 0x40 SWAP1 KECCAK256 SLOAD PUSH1 0xFF AND DUP1 PUSH2 0x1583 JUMPI POP PUSH1 0x1 SLOAD PUSH1 0x1 PUSH1 0x1 PUSH1 0xA0 SHL SUB AND CALLER EQ JUMPDEST PUSH2 0x159F JUMPI PUSH1 0x40 MLOAD PUSH3 0x461BCD PUSH1 0xE5 SHL DUP2 MSTORE PUSH1 0x4 ADD PUSH2 0x5F2 SWAP1 PUSH2 0x4A9F JUMP JUMPDEST CALLER PUSH0 SWAP1 DUP2 MSTORE PUSH1 0x20 DUP2 SWAP1 MSTORE PUSH1 0x40 SWAP1 KECCAK256 SLOAD PUSH1 0xFF AND PUSH2 0x1614 JUMPI PUSH1 0x40 MLOAD PUSH3 0x461BCD PUSH1 0xE5 SHL DUP2 MSTORE PUSH1 0x20 PUSH1 0x4 DUP3 ADD MSTORE PUSH1 0x2E PUSH1 0x24 DUP3 ADD MSTORE PUSH32 0x4F6E6C79206F776E6572206861732070726976696C65676520746F2061646420 PUSH1 0x44 DUP3 ADD MSTORE PUSH14 0x6F776E6572206163636573732121 PUSH1 0x90 SHL PUSH1 0x64 DUP3 ADD MSTORE PUSH1 0x84 ADD PUSH2 0x5F2 JUMP JUMPDEST PUSH1 0x1 PUSH1 0x1 PUSH1 0xA0 SHL SUB DUP2 AND PUSH0 SWAP1 DUP2 MSTORE PUSH1 0x6 PUSH1 0x20 MSTORE PUSH1 0x40 SWAP1 KECCAK256 SLOAD PUSH1 0xFF AND ISZERO PUSH2 0x167C JUMPI PUSH1 0x40 MLOAD PUSH3 0x461BCD PUSH1 0xE5 SHL DUP2 MSTORE PUSH1 0x20 PUSH1 0x4 DUP3 ADD DUP2 SWAP1 MSTORE PUSH1 0x24 DUP3 ADD MSTORE PUSH32 0x4164647265737320616C7265616479206861732061646D696E20616363657373 PUSH1 0x44 DUP3 ADD MSTORE PUSH1 0x64 ADD PUSH2 0x5F2 JUMP JUMPDEST PUSH1 0x1 PUSH1 0x1 PUSH1 0xA0 SHL SUB DUP2 AND PUSH2 0x16C4 JUMPI PUSH1 0x40 MLOAD PUSH3 0x461BCD PUSH1 0xE5 SHL DUP2 MSTORE PUSH1 0x20 PUSH1 0x4 DUP3 ADD MSTORE PUSH1 0xF PUSH1 0x24 DUP3 ADD MSTORE PUSH15 0x496E76616C69642041646472657373 PUSH1 0x88 SHL PUSH1 0x44 DUP3 ADD MSTORE PUSH1 0x64 ADD PUSH2 0x5F2 JUMP JUMPDEST PUSH1 0x1 PUSH1 0x1 PUSH1 0xA0 SHL SUB DUP2 AND PUSH0 SWAP1 DUP2 MSTORE PUSH1 0x6 PUSH1 0x20 MSTORE PUSH1 0x40 DUP2 KECCAK256 DUP1 SLOAD PUSH1 0xFF NOT AND PUSH1 0x1 OR SWAP1 SSTORE PUSH1 0xA DUP1 SLOAD SWAP2 PUSH2 0x16F4 DUP4 PUSH2 0x4E8E JUMP JUMPDEST SWAP2 SWAP1 POP SSTORE POP POP JUMP JUMPDEST PUSH1 0x5 PUSH1 0x20 MSTORE DUP2 PUSH0 MSTORE PUSH1 0x40 PUSH0 KECCAK256 DUP2 DUP2 SLOAD DUP2 LT PUSH2 0x1715 JUMPI PUSH0 DUP1 REVERT JUMPDEST SWAP1 PUSH0 MSTORE PUSH1 0x20 PUSH0 KECCAK256 SWAP1 PUSH1 0x2 MUL ADD PUSH0 SWAP2 POP SWAP2 POP POP DUP1 PUSH0 ADD SLOAD SWAP1 DUP1 PUSH1 0x1 ADD DUP1 SLOAD PUSH2 0x173B SWAP1 PUSH2 0x4C2F JUMP JUMPDEST DUP1 PUSH1 0x1F ADD PUSH1 0x20 DUP1 SWAP2 DIV MUL PUSH1 0x20 ADD PUSH1 0x40 MLOAD SWAP1 DUP2 ADD PUSH1 0x40 MSTORE DUP1 SWAP3 SWAP2 SWAP1 DUP2 DUP2 MSTORE PUSH1 0x20 ADD DUP3 DUP1 SLOAD PUSH2 0x1767 SWAP1 PUSH2 0x4C2F JUMP JUMPDEST DUP1 ISZERO PUSH2 0x17B2 JUMPI DUP1 PUSH1 0x1F LT PUSH2 0x1789 JUMPI PUSH2 0x100 DUP1 DUP4 SLOAD DIV MUL DUP4 MSTORE SWAP2 PUSH1 0x20 ADD SWAP2 PUSH2 0x17B2 JUMP JUMPDEST DUP3 ADD SWAP2 SWAP1 PUSH0 MSTORE PUSH1 0x20 PUSH0 KECCAK256 SWAP1 JUMPDEST DUP2 SLOAD DUP2 MSTORE SWAP1 PUSH1 0x1 ADD SWAP1 PUSH1 0x20 ADD DUP1 DUP4 GT PUSH2 0x1795 JUMPI DUP3 SWAP1 SUB PUSH1 0x1F AND DUP3 ADD SWAP2 JUMPDEST POP POP POP POP POP SWAP1 POP DUP3 JUMP JUMPDEST PUSH1 0x1 SLOAD PUSH1 0x1 PUSH1 0x1 PUSH1 0xA0 SHL SUB AND CALLER EQ PUSH2 0x1816 JUMPI PUSH1 0x40 MLOAD PUSH3 0x461BCD PUSH1 0xE5 SHL DUP2 MSTORE PUSH1 0x20 PUSH1 0x4 DUP3 ADD MSTORE PUSH1 0x1F PUSH1 0x24 DUP3 ADD MSTORE PUSH32 0x41636365737365626C65206F6E6C7920666F722053757065724F776E65727300 PUSH1 0x44 DUP3 ADD MSTORE PUSH1 0x64 ADD PUSH2 0x5F2 JUMP JUMPDEST PUSH1 0x1 PUSH1 0x1 PUSH1 0xA0 SHL SUB AND PUSH0 SWAP1 DUP2 MSTORE PUSH1 0x20 DUP2 SWAP1 MSTORE PUSH1 0x40 SWAP1 KECCAK256 DUP1 SLOAD PUSH1 0xFF NOT AND PUSH1 0x1 OR SWAP1 SSTORE JUMP JUMPDEST PUSH1 0x7 PUSH1 0x20 MSTORE PUSH0 SWAP1 DUP2 MSTORE PUSH1 0x40 SWAP1 KECCAK256 DUP1 SLOAD DUP2 SWAP1 PUSH2 0x1853 SWAP1 PUSH2 0x4C2F JUMP JUMPDEST DUP1 PUSH1 0x1F ADD PUSH1 0x20 DUP1 SWAP2 DIV MUL PUSH1 0x20 ADD PUSH1 0x40 MLOAD SWAP1 DUP2 ADD PUSH1 0x40 MSTORE DUP1 SWAP3 SWAP2 SWAP1 DUP2 DUP2 MSTORE PUSH1 0x20 ADD DUP3 DUP1 SLOAD PUSH2 0x187F SWAP1 PUSH2 0x4C2F JUMP JUMPDEST DUP1 ISZERO PUSH2 0x18CA JUMPI DUP1 PUSH1 0x1F LT PUSH2 0x18A1 JUMPI PUSH2 0x100 DUP1 DUP4 SLOAD DIV MUL DUP4 MSTORE SWAP2 PUSH1 0x20 ADD SWAP2 PUSH2 0x18CA JUMP JUMPDEST DUP3 ADD SWAP2 SWAP1 PUSH0 MSTORE PUSH1 0x20 PUSH0 KECCAK256 SWAP1 JUMPDEST DUP2 SLOAD DUP2 MSTORE SWAP1 PUSH1 0x1 ADD SWAP1 PUSH1 0x20 ADD DUP1 DUP4 GT PUSH2 0x18AD JUMPI DUP3 SWAP1 SUB PUSH1 0x1F AND DUP3 ADD SWAP2 JUMPDEST POP POP POP PUSH1 0x1 DUP5 ADD SLOAD PUSH1 0x2 DUP6 ADD DUP1 SLOAD SWAP5 SWAP6 PUSH1 0x1 PUSH1 0x1 PUSH1 0xA0 SHL SUB SWAP1 SWAP3 AND SWAP5 SWAP2 SWAP4 POP SWAP2 POP PUSH2 0x18F4 SWAP1 PUSH2 0x4C2F JUMP JUMPDEST DUP1 PUSH1 0x1F ADD PUSH1 0x20 DUP1 SWAP2 DIV MUL PUSH1 0x20 ADD PUSH1 0x40 MLOAD SWAP1 DUP2 ADD PUSH1 0x40 MSTORE DUP1 SWAP3 SWAP2 SWAP1 DUP2 DUP2 MSTORE PUSH1 0x20 ADD DUP3 DUP1 SLOAD PUSH2 0x1920 SWAP1 PUSH2 0x4C2F JUMP JUMPDEST DUP1 ISZERO PUSH2 0x196B JUMPI DUP1 PUSH1 0x1F LT PUSH2 0x1942 JUMPI PUSH2 0x100 DUP1 DUP4 SLOAD DIV MUL DUP4 MSTORE SWAP2 PUSH1 0x20 ADD SWAP2 PUSH2 0x196B JUMP JUMPDEST DUP3 ADD SWAP2 SWAP1 PUSH0 MSTORE PUSH1 0x20 PUSH0 KECCAK256 SWAP1 JUMPDEST DUP2 SLOAD DUP2 MSTORE SWAP1 PUSH1 0x1 ADD SWAP1 PUSH1 0x20 ADD DUP1 DUP4 GT PUSH2 0x194E JUMPI DUP3 SWAP1 SUB PUSH1 0x1F AND DUP3 ADD SWAP2 JUMPDEST POP POP POP POP POP SWAP1 DUP1 PUSH1 0x3 ADD SLOAD SWAP1 DUP1 PUSH1 0x4 ADD SLOAD SWAP1 DUP1 PUSH1 0x5 ADD DUP1 SLOAD PUSH2 0x198C SWAP1 PUSH2 0x4C2F JUMP JUMPDEST DUP1 PUSH1 0x1F ADD PUSH1 0x20 DUP1 SWAP2 DIV MUL PUSH1 0x20 ADD PUSH1 0x40 MLOAD SWAP1 DUP2 ADD PUSH1 0x40 MSTORE DUP1 SWAP3 SWAP2 SWAP1 DUP2 DUP2 MSTORE PUSH1 0x20 ADD DUP3 DUP1 SLOAD PUSH2 0x19B8 SWAP1 PUSH2 0x4C2F JUMP JUMPDEST DUP1 ISZERO PUSH2 0x1A03 JUMPI DUP1 PUSH1 0x1F LT PUSH2 0x19DA JUMPI PUSH2 0x100 DUP1 DUP4 SLOAD DIV MUL DUP4 MSTORE SWAP2 PUSH1 0x20 ADD SWAP2 PUSH2 0x1A03 JUMP JUMPDEST DUP3 ADD SWAP2 SWAP1 PUSH0 MSTORE PUSH1 0x20 PUSH0 KECCAK256 SWAP1 JUMPDEST DUP2 SLOAD DUP2 MSTORE SWAP1 PUSH1 0x1 ADD SWAP1 PUSH1 0x20 ADD DUP1 DUP4 GT PUSH2 0x19E6 JUMPI DUP3 SWAP1 SUB PUSH1 0x1F AND DUP3 ADD SWAP2 JUMPDEST POP POP POP POP POP SWAP1 POP DUP7 JUMP JUMPDEST PUSH1 0x1 PUSH1 0x1 PUSH1 0xA0 SHL SUB DUP1 DUP3 AND PUSH0 DUP2 DUP2 MSTORE PUSH1 0x2 PUSH1 0x20 DUP2 SWAP1 MSTORE PUSH1 0x40 DUP3 KECCAK256 ADD SLOAD SWAP1 SWAP3 AND EQ DUP1 PUSH2 0x1A54 JUMPI POP PUSH1 0x1 PUSH1 0x1 PUSH1 0xA0 SHL SUB DUP1 DUP4 AND PUSH0 DUP2 DUP2 MSTORE PUSH1 0x3 PUSH1 0x20 MSTORE PUSH1 0x40 SWAP1 KECCAK256 PUSH1 0x1 ADD SLOAD SWAP1 SWAP2 AND EQ JUMPDEST SWAP3 SWAP2 POP POP JUMP JUMPDEST CALLER PUSH0 SWAP1 DUP2 MSTORE PUSH1 0x20 DUP2 SWAP1 MSTORE PUSH1 0x40 SWAP1 KECCAK256 SLOAD PUSH1 0xFF AND DUP1 PUSH2 0x1A81 JUMPI POP PUSH1 0x1 SLOAD PUSH1 0x1 PUSH1 0x1 PUSH1 0xA0 SHL SUB AND CALLER EQ JUMPDEST PUSH2 0x1A9D JUMPI PUSH1 0x40 MLOAD PUSH3 0x461BCD PUSH1 0xE5 SHL DUP2 MSTORE PUSH1 0x4 ADD PUSH2 0x5F2 SWAP1 PUSH2 0x4A9F JUMP JUMPDEST PUSH1 0x1 PUSH1 0x1 PUSH1 0xA0 SHL SUB DUP1 DUP7 AND PUSH0 DUP2 DUP2 MSTORE PUSH1 0x8 PUSH1 0x20 MSTORE PUSH1 0x40 SWAP1 KECCAK256 SLOAD SWAP1 SWAP2 AND SUB PUSH2 0x1B1D JUMPI PUSH1 0x40 MLOAD PUSH3 0x461BCD PUSH1 0xE5 SHL DUP2 MSTORE PUSH1 0x20 PUSH1 0x4 DUP3 ADD MSTORE PUSH1 0x2E PUSH1 0x24 DUP3 ADD MSTORE PUSH32 0x50687973696369616E2050726F66657373696F6E616C2064657461696C732061 PUSH1 0x44 DUP3 ADD MSTORE PUSH14 0x6C72656164792065786973742121 PUSH1 0x90 SHL PUSH1 0x64 DUP3 ADD MSTORE PUSH1 0x84 ADD PUSH2 0x5F2 JUMP JUMPDEST PUSH1 0x1 PUSH1 0x1 PUSH1 0xA0 SHL SUB DUP1 DUP7 AND PUSH0 DUP2 DUP2 MSTORE PUSH1 0x8 PUSH1 0x20 MSTORE PUSH1 0x40 SWAP1 KECCAK256 SLOAD SWAP1 SWAP2 AND EQ DUP1 ISZERO SWAP1 PUSH2 0x1B47 JUMPI POP PUSH0 DUP2 MLOAD GT JUMPDEST DUP1 ISZERO PUSH2 0x1B53 JUMPI POP PUSH0 DUP5 MLOAD GT JUMPDEST DUP1 ISZERO PUSH2 0x1B5F JUMPI POP PUSH0 DUP4 MLOAD GT JUMPDEST PUSH2 0x1BA3 JUMPI PUSH1 0x40 MLOAD PUSH3 0x461BCD PUSH1 0xE5 SHL DUP2 MSTORE PUSH1 0x20 PUSH1 0x4 DUP3 ADD MSTORE PUSH1 0x15 PUSH1 0x24 DUP3 ADD MSTORE PUSH21 0x456E74657220436F72726563742064657461696C73 PUSH1 0x58 SHL PUSH1 0x44 DUP3 ADD MSTORE PUSH1 0x64 ADD PUSH2 0x5F2 JUMP JUMPDEST PUSH1 0x40 DUP1 MLOAD PUSH1 0xA0 DUP2 ADD DUP3 MSTORE PUSH1 0x1 PUSH1 0x1 PUSH1 0xA0 SHL SUB DUP8 DUP2 AND DUP1 DUP4 MSTORE PUSH1 0x20 DUP1 DUP5 ADD DUP7 DUP2 MSTORE DUP5 DUP7 ADD DUP11 SWAP1 MSTORE PUSH1 0x60 DUP6 ADD DUP10 SWAP1 MSTORE PUSH1 0x80 DUP6 ADD DUP9 SWAP1 MSTORE PUSH0 SWAP3 DUP4 MSTORE PUSH1 0x8 SWAP1 SWAP2 MSTORE SWAP4 SWAP1 KECCAK256 DUP3 MLOAD DUP2 SLOAD PUSH1 0x1 PUSH1 0x1 PUSH1 0xA0 SHL SUB NOT AND SWAP3 AND SWAP2 SWAP1 SWAP2 OR DUP2 SSTORE SWAP2 MLOAD SWAP1 SWAP2 SWAP1 PUSH1 0x1 DUP3 ADD SWAP1 PUSH2 0x1C0D SWAP1 DUP3 PUSH2 0x4CB1 JUMP JUMPDEST POP PUSH1 0x40 DUP3 ADD MLOAD PUSH1 0x2 DUP3 ADD SWAP1 PUSH2 0x1C22 SWAP1 DUP3 PUSH2 0x4CB1 JUMP JUMPDEST POP PUSH1 0x60 DUP3 ADD MLOAD PUSH1 0x3 DUP3 ADD SWAP1 PUSH2 0x1C37 SWAP1 DUP3 PUSH2 0x4CB1 JUMP JUMPDEST POP PUSH1 0x80 SWAP2 SWAP1 SWAP2 ADD MLOAD PUSH1 0x4 SWAP1 SWAP2 ADD SSTORE PUSH1 0x1 PUSH1 0x1 PUSH1 0xA0 SHL SUB DUP1 DUP7 AND PUSH0 DUP2 DUP2 MSTORE PUSH1 0x7 PUSH1 0x20 MSTORE PUSH1 0x40 SWAP1 KECCAK256 PUSH1 0x1 ADD SLOAD SWAP1 SWAP2 AND SUB PUSH2 0x1C87 JUMPI PUSH2 0x1C72 DUP6 PUSH2 0x155C JUMP JUMPDEST PUSH1 0x9 DUP1 SLOAD SWAP1 PUSH0 PUSH2 0x1C81 DUP4 PUSH2 0x4E8E JUMP JUMPDEST SWAP2 SWAP1 POP SSTORE POP JUMPDEST POP POP POP POP POP JUMP JUMPDEST PUSH0 PUSH2 0x1A54 PUSH4 0x1E13380 DUP4 PUSH2 0x4EA6 JUMP JUMPDEST PUSH1 0x1 PUSH1 0x1 PUSH1 0xA0 SHL SUB DUP2 AND PUSH0 SWAP1 DUP2 MSTORE PUSH1 0x6 PUSH1 0x20 MSTORE PUSH1 0x40 DUP2 KECCAK256 SLOAD PUSH1 0xFF AND ISZERO PUSH2 0xE75 JUMPI POP PUSH1 0x1 SWAP2 SWAP1 POP JUMP JUMPDEST CALLER PUSH0 SWAP1 DUP2 MSTORE PUSH1 0x20 DUP2 SWAP1 MSTORE PUSH1 0x40 SWAP1 KECCAK256 SLOAD PUSH1 0xFF AND DUP1 PUSH2 0x1CEC JUMPI POP PUSH1 0x1 SLOAD PUSH1 0x1 PUSH1 0x1 PUSH1 0xA0 SHL SUB AND CALLER EQ JUMPDEST PUSH2 0x1D08 JUMPI PUSH1 0x40 MLOAD PUSH3 0x461BCD PUSH1 0xE5 SHL DUP2 MSTORE PUSH1 0x4 ADD PUSH2 0x5F2 SWAP1 PUSH2 0x4A9F JUMP JUMPDEST PUSH1 0x1 PUSH1 0x1 PUSH1 0xA0 SHL SUB DUP1 DUP7 AND PUSH0 DUP2 DUP2 MSTORE PUSH1 0x7 PUSH1 0x20 MSTORE PUSH1 0x40 SWAP1 KECCAK256 PUSH1 0x1 ADD SLOAD SWAP1 SWAP2 AND SUB PUSH2 0x1D86 JUMPI PUSH1 0x40 MLOAD PUSH3 0x461BCD PUSH1 0xE5 SHL DUP2 MSTORE PUSH1 0x20 PUSH1 0x4 DUP3 ADD MSTORE PUSH1 0x29 PUSH1 0x24 DUP3 ADD MSTORE PUSH32 0x50687973696369616E20706572736F6E616C2064657461696C20616C72656164 PUSH1 0x44 DUP3 ADD MSTORE PUSH9 0x792065786973742121 PUSH1 0xB8 SHL PUSH1 0x64 DUP3 ADD MSTORE PUSH1 0x84 ADD PUSH2 0x5F2 JUMP JUMPDEST PUSH1 0x1 PUSH1 0x1 PUSH1 0xA0 SHL SUB DUP6 AND ISZERO DUP1 ISZERO SWAP1 PUSH2 0x1D9D JUMPI POP PUSH0 DUP3 GT JUMPDEST DUP1 ISZERO PUSH2 0x1DA9 JUMPI POP PUSH0 DUP2 MLOAD GT JUMPDEST DUP1 ISZERO PUSH2 0x1DB5 JUMPI POP PUSH0 DUP7 MLOAD GT JUMPDEST PUSH2 0x1DD1 JUMPI PUSH1 0x40 MLOAD PUSH3 0x461BCD PUSH1 0xE5 SHL DUP2 MSTORE PUSH1 0x4 ADD PUSH2 0x5F2 SWAP1 PUSH2 0x4DA7 JUMP JUMPDEST PUSH1 0x40 DUP1 MLOAD PUSH1 0xC0 DUP2 ADD DUP3 MSTORE DUP8 DUP2 MSTORE PUSH1 0x1 PUSH1 0x1 PUSH1 0xA0 SHL SUB DUP8 AND PUSH1 0x20 DUP1 DUP4 ADD DUP3 SWAP1 MSTORE DUP3 DUP5 ADD DUP9 SWAP1 MSTORE PUSH1 0x60 DUP4 ADD DUP8 SWAP1 MSTORE PUSH1 0x80 DUP4 ADD DUP7 SWAP1 MSTORE PUSH1 0xA0 DUP4 ADD DUP6 SWAP1 MSTORE PUSH0 SWAP2 DUP3 MSTORE PUSH1 0x7 SWAP1 MSTORE SWAP2 SWAP1 SWAP2 KECCAK256 DUP2 MLOAD DUP6 SWAP3 SWAP2 SWAP1 DUP2 SWAP1 PUSH2 0x1E29 SWAP1 DUP3 PUSH2 0x4CB1 JUMP JUMPDEST POP PUSH1 0x20 DUP3 ADD MLOAD PUSH1 0x1 DUP3 ADD DUP1 SLOAD PUSH1 0x1 PUSH1 0x1 PUSH1 0xA0 SHL SUB NOT AND PUSH1 0x1 PUSH1 0x1 PUSH1 0xA0 SHL SUB SWAP1 SWAP3 AND SWAP2 SWAP1 SWAP2 OR SWAP1 SSTORE PUSH1 0x40 DUP3 ADD MLOAD PUSH1 0x2 DUP3 ADD SWAP1 PUSH2 0x1E64 SWAP1 DUP3 PUSH2 0x4CB1 JUMP JUMPDEST POP PUSH1 0x60 DUP3 ADD MLOAD PUSH1 0x3 DUP3 ADD SSTORE PUSH1 0x80 DUP3 ADD MLOAD PUSH1 0x4 DUP3 ADD SSTORE PUSH1 0xA0 DUP3 ADD MLOAD PUSH1 0x5 DUP3 ADD SWAP1 PUSH2 0x1E8D SWAP1 DUP3 PUSH2 0x4CB1 JUMP JUMPDEST POP POP POP PUSH1 0x1 PUSH1 0x1 PUSH1 0xA0 SHL SUB DUP1 DUP8 AND PUSH0 DUP2 DUP2 MSTORE PUSH1 0x8 PUSH1 0x20 MSTORE PUSH1 0x40 SWAP1 KECCAK256 SLOAD SWAP1 SWAP2 AND SUB PUSH2 0x1ECF JUMPI PUSH2 0x1EBA DUP7 PUSH2 0x155C JUMP JUMPDEST PUSH1 0x9 DUP1 SLOAD SWAP1 PUSH0 PUSH2 0x1EC9 DUP4 PUSH2 0x4E8E JUMP JUMPDEST SWAP2 SWAP1 POP SSTORE POP JUMPDEST POP POP POP POP POP POP POP JUMP JUMPDEST PUSH2 0x1F17 PUSH1 0x40 MLOAD DUP1 PUSH1 0xC0 ADD PUSH1 0x40 MSTORE DUP1 PUSH1 0x60 DUP2 MSTORE PUSH1 0x20 ADD PUSH0 PUSH1 0x1 PUSH1 0x1 PUSH1 0xA0 SHL SUB AND DUP2 MSTORE PUSH1 0x20 ADD PUSH1 0x60 DUP2 MSTORE PUSH1 0x20 ADD PUSH0 DUP2 MSTORE PUSH1 0x20 ADD PUSH0 DUP2 MSTORE PUSH1 0x20 ADD PUSH1 0x60 DUP2 MSTORE POP SWAP1 JUMP JUMPDEST CALLER PUSH0 SWAP1 DUP2 MSTORE PUSH1 0x20 DUP2 SWAP1 MSTORE PUSH1 0x40 SWAP1 KECCAK256 SLOAD PUSH1 0xFF AND DUP1 PUSH2 0x1F3E JUMPI POP PUSH1 0x1 SLOAD PUSH1 0x1 PUSH1 0x1 PUSH1 0xA0 SHL SUB AND CALLER EQ JUMPDEST PUSH2 0x1F5A JUMPI PUSH1 0x40 MLOAD PUSH3 0x461BCD PUSH1 0xE5 SHL DUP2 MSTORE PUSH1 0x4 ADD PUSH2 0x5F2 SWAP1 PUSH2 0x4A9F JUMP JUMPDEST PUSH1 0x1 PUSH1 0x1 PUSH1 0xA0 SHL SUB DUP3 AND PUSH2 0x1F80 JUMPI PUSH1 0x40 MLOAD PUSH3 0x461BCD PUSH1 0xE5 SHL DUP2 MSTORE PUSH1 0x4 ADD PUSH2 0x5F2 SWAP1 PUSH2 0x4EC5 JUMP JUMPDEST PUSH1 0x1 PUSH1 0x1 PUSH1 0xA0 SHL SUB DUP1 DUP4 AND PUSH0 DUP2 DUP2 MSTORE PUSH1 0x7 PUSH1 0x20 MSTORE PUSH1 0x40 SWAP1 KECCAK256 PUSH1 0x1 ADD SLOAD SWAP1 SWAP2 AND EQ PUSH2 0x1FBC JUMPI PUSH1 0x40 MLOAD PUSH3 0x461BCD PUSH1 0xE5 SHL DUP2 MSTORE PUSH1 0x4 ADD PUSH2 0x5F2 SWAP1 PUSH2 0x4EFC JUMP JUMPDEST PUSH1 0x1 PUSH1 0x1 PUSH1 0xA0 SHL SUB DUP3 AND PUSH0 SWAP1 DUP2 MSTORE PUSH1 0x7 PUSH1 0x20 MSTORE PUSH1 0x40 SWAP1 DUP2 SWAP1 KECCAK256 DUP2 MLOAD PUSH1 0xC0 DUP2 ADD SWAP1 SWAP3 MSTORE DUP1 SLOAD DUP3 SWAP1 DUP3 SWAP1 PUSH2 0x1FED SWAP1 PUSH2 0x4C2F JUMP JUMPDEST DUP1 PUSH1 0x1F ADD PUSH1 0x20 DUP1 SWAP2 DIV MUL PUSH1 0x20 ADD PUSH1 0x40 MLOAD SWAP1 DUP2 ADD PUSH1 0x40 MSTORE DUP1 SWAP3 SWAP2 SWAP1 DUP2 DUP2 MSTORE PUSH1 0x20 ADD DUP3 DUP1 SLOAD PUSH2 0x2019 SWAP1 PUSH2 0x4C2F JUMP JUMPDEST DUP1 ISZERO PUSH2 0x2064 JUMPI DUP1 PUSH1 0x1F LT PUSH2 0x203B JUMPI PUSH2 0x100 DUP1 DUP4 SLOAD DIV MUL DUP4 MSTORE SWAP2 PUSH1 0x20 ADD SWAP2 PUSH2 0x2064 JUMP JUMPDEST DUP3 ADD SWAP2 SWAP1 PUSH0 MSTORE PUSH1 0x20 PUSH0 KECCAK256 SWAP1 JUMPDEST DUP2 SLOAD DUP2 MSTORE SWAP1 PUSH1 0x1 ADD SWAP1 PUSH1 0x20 ADD DUP1 DUP4 GT PUSH2 0x2047 JUMPI DUP3 SWAP1 SUB PUSH1 0x1F AND DUP3 ADD SWAP2 JUMPDEST POP POP POP SWAP2 DUP4 MSTORE POP POP PUSH1 0x1 DUP3 ADD SLOAD PUSH1 0x1 PUSH1 0x1 PUSH1 0xA0 SHL SUB AND PUSH1 0x20 DUP3 ADD MSTORE PUSH1 0x2 DUP3 ADD DUP1 SLOAD PUSH1 0x40 SWAP1 SWAP3 ADD SWAP2 PUSH2 0x2094 SWAP1 PUSH2 0x4C2F JUMP JUMPDEST DUP1 PUSH1 0x1F ADD PUSH1 0x20 DUP1 SWAP2 DIV MUL PUSH1 0x20 ADD PUSH1 0x40 MLOAD SWAP1 DUP2 ADD PUSH1 0x40 MSTORE DUP1 SWAP3 SWAP2 SWAP1 DUP2 DUP2 MSTORE PUSH1 0x20 ADD DUP3 DUP1 SLOAD PUSH2 0x20C0 SWAP1 PUSH2 0x4C2F JUMP JUMPDEST DUP1 ISZERO PUSH2 0x210B JUMPI DUP1 PUSH1 0x1F LT PUSH2 0x20E2 JUMPI PUSH2 0x100 DUP1 DUP4 SLOAD DIV MUL DUP4 MSTORE SWAP2 PUSH1 0x20 ADD SWAP2 PUSH2 0x210B JUMP JUMPDEST DUP3 ADD SWAP2 SWAP1 PUSH0 MSTORE PUSH1 0x20 PUSH0 KECCAK256 SWAP1 JUMPDEST DUP2 SLOAD DUP2 MSTORE SWAP1 PUSH1 0x1 ADD SWAP1 PUSH1 0x20 ADD DUP1 DUP4 GT PUSH2 0x20EE JUMPI DUP3 SWAP1 SUB PUSH1 0x1F AND DUP3 ADD SWAP2 JUMPDEST POP POP POP POP POP DUP2 MSTORE PUSH1 0x20 ADD PUSH1 0x3 DUP3 ADD SLOAD DUP2 MSTORE PUSH1 0x20 ADD PUSH1 0x4 DUP3 ADD SLOAD DUP2 MSTORE PUSH1 0x20 ADD PUSH1 0x5 DUP3 ADD DUP1 SLOAD PUSH2 0x2138 SWAP1 PUSH2 0x4C2F JUMP JUMPDEST DUP1 PUSH1 0x1F ADD PUSH1 0x20 DUP1 SWAP2 DIV MUL PUSH1 0x20 ADD PUSH1 0x40 MLOAD SWAP1 DUP2 ADD PUSH1 0x40 MSTORE DUP1 SWAP3 SWAP2 SWAP1 DUP2 DUP2 MSTORE PUSH1 0x20 ADD DUP3 DUP1 SLOAD PUSH2 0x2164 SWAP1 PUSH2 0x4C2F JUMP JUMPDEST DUP1 ISZERO PUSH2 0x21AF JUMPI DUP1 PUSH1 0x1F LT PUSH2 0x2186 JUMPI PUSH2 0x100 DUP1 DUP4 SLOAD DIV MUL DUP4 MSTORE SWAP2 PUSH1 0x20 ADD SWAP2 PUSH2 0x21AF JUMP JUMPDEST DUP3 ADD SWAP2 SWAP1 PUSH0 MSTORE PUSH1 0x20 PUSH0 KECCAK256 SWAP1 JUMPDEST DUP2 SLOAD DUP2 MSTORE SWAP1 PUSH1 0x1 ADD SWAP1 PUSH1 0x20 ADD DUP1 DUP4 GT PUSH2 0x2192 JUMPI DUP3 SWAP1 SUB PUSH1 0x1F AND DUP3 ADD SWAP2 JUMPDEST POP POP POP POP POP DUP2 MSTORE POP POP SWAP1 POP SWAP2 SWAP1 POP JUMP JUMPDEST CALLER PUSH0 SWAP1 DUP2 MSTORE PUSH1 0x6 PUSH1 0x20 MSTORE PUSH1 0x40 DUP2 KECCAK256 SLOAD PUSH1 0xFF AND ISZERO PUSH2 0x21DA JUMPI POP PUSH1 0x1 JUMPDEST CALLER PUSH0 SWAP1 DUP2 MSTORE PUSH1 0x6 PUSH1 0x20 MSTORE PUSH1 0x40 SWAP1 KECCAK256 SLOAD PUSH1 0xFF AND PUSH2 0x2208 JUMPI PUSH1 0x40 MLOAD PUSH3 0x461BCD PUSH1 0xE5 SHL DUP2 MSTORE PUSH1 0x4 ADD PUSH2 0x5F2 SWAP1 PUSH2 0x4AE9 JUMP JUMPDEST PUSH1 0x1 PUSH1 0x1 PUSH1 0xA0 SHL SUB DUP1 DUP9 AND PUSH0 DUP2 DUP2 MSTORE PUSH1 0x2 PUSH1 0x20 DUP2 SWAP1 MSTORE PUSH1 0x40 SWAP1 SWAP2 KECCAK256 ADD SLOAD SWAP1 SWAP2 AND SUB PUSH2 0x22B0 JUMPI PUSH1 0x40 MLOAD PUSH3 0x461BCD PUSH1 0xE5 SHL DUP2 MSTORE PUSH1 0x20 PUSH1 0x4 DUP3 ADD MSTORE PUSH1 0x4C PUSH1 0x24 DUP3 ADD MSTORE PUSH32 0x50617469656E742773204D65646963616C2064657461696C7320616C72656164 PUSH1 0x44 DUP3 ADD MSTORE PUSH32 0x7920657869737421212E204B696E646C79206564697420746865206465746169 PUSH1 0x64 DUP3 ADD MSTORE PUSH12 0x1B1CC81A59881B9959591959 PUSH1 0xA2 SHL PUSH1 0x84 DUP3 ADD MSTORE PUSH1 0xA4 ADD PUSH2 0x5F2 JUMP JUMPDEST PUSH1 0x1 PUSH1 0x1 PUSH1 0xA0 SHL SUB DUP8 AND ISZERO DUP1 ISZERO SWAP1 PUSH2 0x22C8 JUMPI POP PUSH0 DUP7 MLOAD GT JUMPDEST DUP1 ISZERO PUSH2 0x22D4 JUMPI POP PUSH0 DUP6 MLOAD GT JUMPDEST PUSH2 0x22F0 JUMPI PUSH1 0x40 MLOAD PUSH3 0x461BCD PUSH1 0xE5 SHL DUP2 MSTORE PUSH1 0x4 ADD PUSH2 0x5F2 SWAP1 PUSH2 0x4B51 JUMP JUMPDEST PUSH1 0x40 DUP1 MLOAD PUSH2 0x100 DUP2 ADD DUP3 MSTORE DUP11 DUP2 MSTORE PUSH1 0x20 DUP1 DUP3 ADD DUP12 SWAP1 MSTORE PUSH1 0x1 PUSH1 0x1 PUSH1 0xA0 SHL SUB DUP11 AND DUP3 DUP5 ADD DUP2 SWAP1 MSTORE PUSH1 0x60 DUP4 ADD DUP11 SWAP1 MSTORE PUSH1 0x80 DUP4 ADD DUP10 SWAP1 MSTORE PUSH1 0xA0 DUP4 ADD DUP9 SWAP1 MSTORE PUSH1 0xC0 DUP4 ADD DUP8 SWAP1 MSTORE PUSH1 0xE0 DUP4 ADD DUP7 SWAP1 MSTORE PUSH0 SWAP1 DUP2 MSTORE PUSH1 0x2 SWAP1 SWAP2 MSTORE SWAP2 SWAP1 SWAP2 KECCAK256 DUP2 MLOAD DUP6 SWAP3 SWAP2 SWAP1 DUP2 SWAP1 PUSH2 0x2358 SWAP1 DUP3 PUSH2 0x4CB1 JUMP JUMPDEST POP PUSH1 0x20 DUP3 ADD MLOAD PUSH1 0x1 DUP3 ADD SWAP1 PUSH2 0x236D SWAP1 DUP3 PUSH2 0x4CB1 JUMP JUMPDEST POP PUSH1 0x40 DUP3 ADD MLOAD PUSH1 0x2 DUP3 ADD DUP1 SLOAD PUSH1 0x1 PUSH1 0x1 PUSH1 0xA0 SHL SUB NOT AND PUSH1 0x1 PUSH1 0x1 PUSH1 0xA0 SHL SUB SWAP1 SWAP3 AND SWAP2 SWAP1 SWAP2 OR SWAP1 SSTORE PUSH1 0x60 DUP3 ADD MLOAD PUSH1 0x3 DUP3 ADD SWAP1 PUSH2 0x23A8 SWAP1 DUP3 PUSH2 0x4CB1 JUMP JUMPDEST POP PUSH1 0x80 DUP3 ADD MLOAD PUSH1 0x4 DUP3 ADD SWAP1 PUSH2 0x23BD SWAP1 DUP3 PUSH2 0x4CB1 JUMP JUMPDEST POP PUSH1 0xA0 DUP3 ADD MLOAD PUSH1 0x5 DUP3 ADD SWAP1 PUSH2 0x23D2 SWAP1 DUP3 PUSH2 0x4CB1 JUMP JUMPDEST POP PUSH1 0xC0 DUP3 ADD MLOAD PUSH1 0x6 DUP3 ADD SSTORE PUSH1 0xE0 SWAP1 SWAP2 ADD MLOAD PUSH1 0x7 SWAP1 SWAP2 ADD SSTORE PUSH1 0x1 PUSH1 0x1 PUSH1 0xA0 SHL SUB DUP1 DUP10 AND PUSH0 DUP2 DUP2 MSTORE PUSH1 0x3 PUSH1 0x20 MSTORE PUSH1 0x40 SWAP1 KECCAK256 PUSH1 0x1 ADD SLOAD SWAP1 SWAP2 AND SUB PUSH2 0xB55 JUMPI PUSH1 0xB DUP1 SLOAD SWAP1 PUSH0 PUSH2 0x241C DUP4 PUSH2 0x4E8E JUMP JUMPDEST SWAP2 SWAP1 POP SSTORE POP POP POP POP POP POP POP POP POP POP POP JUMP JUMPDEST PUSH1 0x40 DUP1 MLOAD DUP1 DUP3 ADD DUP3 MSTORE TIMESTAMP DUP2 MSTORE PUSH1 0x20 DUP1 DUP3 ADD DUP6 DUP2 MSTORE PUSH1 0x1 PUSH1 0x1 PUSH1 0xA0 SHL SUB DUP6 AND PUSH0 SWAP1 DUP2 MSTORE PUSH1 0x5 DUP4 MSTORE SWAP4 DUP5 KECCAK256 DUP1 SLOAD PUSH1 0x1 DUP2 DUP2 ADD DUP4 SSTORE SWAP2 DUP7 MSTORE SWAP3 SWAP1 SWAP5 KECCAK256 DUP4 MLOAD PUSH1 0x2 SWAP1 SWAP4 MUL ADD SWAP2 DUP3 SSTORE MLOAD SWAP2 SWAP3 DUP4 SWAP3 SWAP1 DUP3 ADD SWAP1 PUSH2 0x2484 SWAP1 DUP3 PUSH2 0x4CB1 JUMP JUMPDEST POP POP POP POP POP POP JUMP JUMPDEST CALLER PUSH0 DUP2 DUP2 MSTORE PUSH1 0x2 PUSH1 0x20 DUP2 SWAP1 MSTORE PUSH1 0x40 SWAP1 SWAP2 KECCAK256 ADD SLOAD PUSH1 0x60 SWAP2 PUSH1 0x1 PUSH1 0x1 PUSH1 0xA0 SHL SUB SWAP1 SWAP2 AND EQ DUP1 PUSH2 0x24D1 JUMPI POP CALLER PUSH0 DUP2 DUP2 MSTORE PUSH1 0x3 PUSH1 0x20 MSTORE PUSH1 0x40 SWAP1 KECCAK256 PUSH1 0x1 ADD SLOAD PUSH1 0x1 PUSH1 0x1 PUSH1 0xA0 SHL SUB AND EQ JUMPDEST DUP1 PUSH2 0x24EA JUMPI POP CALLER PUSH0 SWAP1 DUP2 MSTORE PUSH1 0x6 PUSH1 0x20 MSTORE PUSH1 0x40 SWAP1 KECCAK256 SLOAD PUSH1 0xFF AND JUMPDEST DUP1 PUSH2 0x2503 JUMPI POP CALLER PUSH0 SWAP1 DUP2 MSTORE PUSH1 0x20 DUP2 SWAP1 MSTORE PUSH1 0x40 SWAP1 KECCAK256 SLOAD PUSH1 0xFF AND JUMPDEST DUP1 PUSH2 0x2518 JUMPI POP PUSH1 0x1 SLOAD PUSH1 0x1 PUSH1 0x1 PUSH1 0xA0 SHL SUB AND CALLER EQ JUMPDEST PUSH2 0x2534 JUMPI PUSH1 0x40 MLOAD PUSH3 0x461BCD PUSH1 0xE5 SHL DUP2 MSTORE PUSH1 0x4 ADD PUSH2 0x5F2 SWAP1 PUSH2 0x4FA5 JUMP JUMPDEST PUSH1 0x1 PUSH1 0x1 PUSH1 0xA0 SHL SUB DUP3 AND PUSH0 SWAP1 DUP2 MSTORE PUSH1 0x4 PUSH1 0x20 SWAP1 DUP2 MSTORE PUSH1 0x40 DUP1 DUP4 KECCAK256 DUP1 SLOAD DUP3 MLOAD DUP2 DUP6 MUL DUP2 ADD DUP6 ADD SWAP1 SWAP4 MSTORE DUP1 DUP4 MSTORE SWAP2 SWAP4 SWAP1 SWAP3 DUP5 ADD JUMPDEST DUP3 DUP3 LT ISZERO PUSH2 0x12E1 JUMPI DUP4 DUP3 SWAP1 PUSH0 MSTORE PUSH1 0x20 PUSH0 KECCAK256 SWAP1 PUSH1 0x8 MUL ADD PUSH1 0x40 MLOAD DUP1 PUSH2 0x100 ADD PUSH1 0x40 MSTORE SWAP1 DUP2 PUSH0 DUP3 ADD DUP1 SLOAD PUSH2 0x2597 SWAP1 PUSH2 0x4C2F JUMP JUMPDEST DUP1 PUSH1 0x1F ADD PUSH1 0x20 DUP1 SWAP2 DIV MUL PUSH1 0x20 ADD PUSH1 0x40 MLOAD SWAP1 DUP2 ADD PUSH1 0x40 MSTORE DUP1 SWAP3 SWAP2 SWAP1 DUP2 DUP2 MSTORE PUSH1 0x20 ADD DUP3 DUP1 SLOAD PUSH2 0x25C3 SWAP1 PUSH2 0x4C2F JUMP JUMPDEST DUP1 ISZERO PUSH2 0x260E JUMPI DUP1 PUSH1 0x1F LT PUSH2 0x25E5 JUMPI PUSH2 0x100 DUP1 DUP4 SLOAD DIV MUL DUP4 MSTORE SWAP2 PUSH1 0x20 ADD SWAP2 PUSH2 0x260E JUMP JUMPDEST DUP3 ADD SWAP2 SWAP1 PUSH0 MSTORE PUSH1 0x20 PUSH0 KECCAK256 SWAP1 JUMPDEST DUP2 SLOAD DUP2 MSTORE SWAP1 PUSH1 0x1 ADD SWAP1 PUSH1 0x20 ADD DUP1 DUP4 GT PUSH2 0x25F1 JUMPI DUP3 SWAP1 SUB PUSH1 0x1F AND DUP3 ADD SWAP2 JUMPDEST POP POP POP SWAP2 DUP4 MSTORE POP POP PUSH1 0x1 DUP3 ADD SLOAD PUSH1 0x1 PUSH1 0x1 PUSH1 0xA0 SHL SUB SWAP1 DUP2 AND PUSH1 0x20 DUP4 ADD MSTORE PUSH1 0x2 DUP4 ADD SLOAD AND PUSH1 0x40 DUP3 ADD MSTORE PUSH1 0x3 DUP3 ADD DUP1 SLOAD PUSH1 0x60 SWAP1 SWAP3 ADD SWAP2 PUSH2 0x264B SWAP1 PUSH2 0x4C2F JUMP JUMPDEST DUP1 PUSH1 0x1F ADD PUSH1 0x20 DUP1 SWAP2 DIV MUL PUSH1 0x20 ADD PUSH1 0x40 MLOAD SWAP1 DUP2 ADD PUSH1 0x40 MSTORE DUP1 SWAP3 SWAP2 SWAP1 DUP2 DUP2 MSTORE PUSH1 0x20 ADD DUP3 DUP1 SLOAD PUSH2 0x2677 SWAP1 PUSH2 0x4C2F JUMP JUMPDEST DUP1 ISZERO PUSH2 0x26C2 JUMPI DUP1 PUSH1 0x1F LT PUSH2 0x2699 JUMPI PUSH2 0x100 DUP1 DUP4 SLOAD DIV MUL DUP4 MSTORE SWAP2 PUSH1 0x20 ADD SWAP2 PUSH2 0x26C2 JUMP JUMPDEST DUP3 ADD SWAP2 SWAP1 PUSH0 MSTORE PUSH1 0x20 PUSH0 KECCAK256 SWAP1 JUMPDEST DUP2 SLOAD DUP2 MSTORE SWAP1 PUSH1 0x1 ADD SWAP1 PUSH1 0x20 ADD DUP1 DUP4 GT PUSH2 0x26A5 JUMPI DUP3 SWAP1 SUB PUSH1 0x1F AND DUP3 ADD SWAP2 JUMPDEST POP POP POP POP POP DUP2 MSTORE PUSH1 0x20 ADD PUSH1 0x4 DUP3 ADD DUP1 SLOAD PUSH2 0x26DB SWAP1 PUSH2 0x4C2F JUMP JUMPDEST DUP1 PUSH1 0x1F ADD PUSH1 0x20 DUP1 SWAP2 DIV MUL PUSH1 0x20 ADD PUSH1 0x40 MLOAD SWAP1 DUP2 ADD PUSH1 0x40 MSTORE DUP1 SWAP3 SWAP2 SWAP1 DUP2 DUP2 MSTORE PUSH1 0x20 ADD DUP3 DUP1 SLOAD PUSH2 0x2707 SWAP1 PUSH2 0x4C2F JUMP JUMPDEST DUP1 ISZERO PUSH2 0x2752 JUMPI DUP1 PUSH1 0x1F LT PUSH2 0x2729 JUMPI PUSH2 0x100 DUP1 DUP4 SLOAD DIV MUL DUP4 MSTORE SWAP2 PUSH1 0x20 ADD SWAP2 PUSH2 0x2752 JUMP JUMPDEST DUP3 ADD SWAP2 SWAP1 PUSH0 MSTORE PUSH1 0x20 PUSH0 KECCAK256 SWAP1 JUMPDEST DUP2 SLOAD DUP2 MSTORE SWAP1 PUSH1 0x1 ADD SWAP1 PUSH1 0x20 ADD DUP1 DUP4 GT PUSH2 0x2735 JUMPI DUP3 SWAP1 SUB PUSH1 0x1F AND DUP3 ADD SWAP2 JUMPDEST POP POP POP POP POP DUP2 MSTORE PUSH1 0x20 ADD PUSH1 0x5 DUP3 ADD DUP1 SLOAD PUSH2 0x276B SWAP1 PUSH2 0x4C2F JUMP JUMPDEST DUP1 PUSH1 0x1F ADD PUSH1 0x20 DUP1 SWAP2 DIV MUL PUSH1 0x20 ADD PUSH1 0x40 MLOAD SWAP1 DUP2 ADD PUSH1 0x40 MSTORE DUP1 SWAP3 SWAP2 SWAP1 DUP2 DUP2 MSTORE PUSH1 0x20 ADD DUP3 DUP1 SLOAD PUSH2 0x2797 SWAP1 PUSH2 0x4C2F JUMP JUMPDEST DUP1 ISZERO PUSH2 0x27E2 JUMPI DUP1 PUSH1 0x1F LT PUSH2 0x27B9 JUMPI PUSH2 0x100 DUP1 DUP4 SLOAD DIV MUL DUP4 MSTORE SWAP2 PUSH1 0x20 ADD SWAP2 PUSH2 0x27E2 JUMP JUMPDEST DUP3 ADD SWAP2 SWAP1 PUSH0 MSTORE PUSH1 0x20 PUSH0 KECCAK256 SWAP1 JUMPDEST DUP2 SLOAD DUP2 MSTORE SWAP1 PUSH1 0x1 ADD SWAP1 PUSH1 0x20 ADD DUP1 DUP4 GT PUSH2 0x27C5 JUMPI DUP3 SWAP1 SUB PUSH1 0x1F AND DUP3 ADD SWAP2 JUMPDEST POP POP POP POP POP DUP2 MSTORE PUSH1 0x20 ADD PUSH1 0x6 DUP3 ADD DUP1 SLOAD PUSH2 0x27FB SWAP1 PUSH2 0x4C2F JUMP JUMPDEST DUP1 PUSH1 0x1F ADD PUSH1 0x20 DUP1 SWAP2 DIV MUL PUSH1 0x20 ADD PUSH1 0x40 MLOAD SWAP1 DUP2 ADD PUSH1 0x40 MSTORE DUP1 SWAP3 SWAP2 SWAP1 DUP2 DUP2 MSTORE PUSH1 0x20 ADD DUP3 DUP1 SLOAD PUSH2 0x2827 SWAP1 PUSH2 0x4C2F JUMP JUMPDEST DUP1 ISZERO PUSH2 0x2872 JUMPI DUP1 PUSH1 0x1F LT PUSH2 0x2849 JUMPI PUSH2 0x100 DUP1 DUP4 SLOAD DIV MUL DUP4 MSTORE SWAP2 PUSH1 0x20 ADD SWAP2 PUSH2 0x2872 JUMP JUMPDEST DUP3 ADD SWAP2 SWAP1 PUSH0 MSTORE PUSH1 0x20 PUSH0 KECCAK256 SWAP1 JUMPDEST DUP2 SLOAD DUP2 MSTORE SWAP1 PUSH1 0x1 ADD SWAP1 PUSH1 0x20 ADD DUP1 DUP4 GT PUSH2 0x2855 JUMPI DUP3 SWAP1 SUB PUSH1 0x1F AND DUP3 ADD SWAP2 JUMPDEST POP POP POP POP POP DUP2 MSTORE PUSH1 0x20 ADD PUSH1 0x7 DUP3 ADD DUP1 SLOAD PUSH2 0x288B SWAP1 PUSH2 0x4C2F JUMP JUMPDEST DUP1 PUSH1 0x1F ADD PUSH1 0x20 DUP1 SWAP2 DIV MUL PUSH1 0x20 ADD PUSH1 0x40 MLOAD SWAP1 DUP2 ADD PUSH1 0x40 MSTORE DUP1 SWAP3 SWAP2 SWAP1 DUP2 DUP2 MSTORE PUSH1 0x20 ADD DUP3 DUP1 SLOAD PUSH2 0x28B7 SWAP1 PUSH2 0x4C2F JUMP JUMPDEST DUP1 ISZERO PUSH2 0x2902 JUMPI DUP1 PUSH1 0x1F LT PUSH2 0x28D9 JUMPI PUSH2 0x100 DUP1 DUP4 SLOAD DIV MUL DUP4 MSTORE SWAP2 PUSH1 0x20 ADD SWAP2 PUSH2 0x2902 JUMP JUMPDEST DUP3 ADD SWAP2 SWAP1 PUSH0 MSTORE PUSH1 0x20 PUSH0 KECCAK256 SWAP1 JUMPDEST DUP2 SLOAD DUP2 MSTORE SWAP1 PUSH1 0x1 ADD SWAP1 PUSH1 0x20 ADD DUP1 DUP4 GT PUSH2 0x28E5 JUMPI DUP3 SWAP1 SUB PUSH1 0x1F AND DUP3 ADD SWAP2 JUMPDEST POP POP POP POP POP DUP2 MSTORE POP POP DUP2 MSTORE PUSH1 0x20 ADD SWAP1 PUSH1 0x1 ADD SWAP1 PUSH2 0x2566 JUMP JUMPDEST PUSH1 0x8 PUSH1 0x20 MSTORE PUSH0 SWAP1 DUP2 MSTORE PUSH1 0x40 SWAP1 KECCAK256 DUP1 SLOAD PUSH1 0x1 DUP3 ADD DUP1 SLOAD PUSH1 0x1 PUSH1 0x1 PUSH1 0xA0 SHL SUB SWAP1 SWAP3 AND SWAP3 SWAP2 PUSH2 0x2945 SWAP1 PUSH2 0x4C2F JUMP JUMPDEST DUP1 PUSH1 0x1F ADD PUSH1 0x20 DUP1 SWAP2 DIV MUL PUSH1 0x20 ADD PUSH1 0x40 MLOAD SWAP1 DUP2 ADD PUSH1 0x40 MSTORE DUP1 SWAP3 SWAP2 SWAP1 DUP2 DUP2 MSTORE PUSH1 0x20 ADD DUP3 DUP1 SLOAD PUSH2 0x2971 SWAP1 PUSH2 0x4C2F JUMP JUMPDEST DUP1 ISZERO PUSH2 0x29BC JUMPI DUP1 PUSH1 0x1F LT PUSH2 0x2993 JUMPI PUSH2 0x100 DUP1 DUP4 SLOAD DIV MUL DUP4 MSTORE SWAP2 PUSH1 0x20 ADD SWAP2 PUSH2 0x29BC JUMP JUMPDEST DUP3 ADD SWAP2 SWAP1 PUSH0 MSTORE PUSH1 0x20 PUSH0 KECCAK256 SWAP1 JUMPDEST DUP2 SLOAD DUP2 MSTORE SWAP1 PUSH1 0x1 ADD SWAP1 PUSH1 0x20 ADD DUP1 DUP4 GT PUSH2 0x299F JUMPI DUP3 SWAP1 SUB PUSH1 0x1F AND DUP3 ADD SWAP2 JUMPDEST POP POP POP POP POP SWAP1 DUP1 PUSH1 0x2 ADD DUP1 SLOAD PUSH2 0x29D1 SWAP1 PUSH2 0x4C2F JUMP JUMPDEST DUP1 PUSH1 0x1F ADD PUSH1 0x20 DUP1 SWAP2 DIV MUL PUSH1 0x20 ADD PUSH1 0x40 MLOAD SWAP1 DUP2 ADD PUSH1 0x40 MSTORE DUP1 SWAP3 SWAP2 SWAP1 DUP2 DUP2 MSTORE PUSH1 0x20 ADD DUP3 DUP1 SLOAD PUSH2 0x29FD SWAP1 PUSH2 0x4C2F JUMP JUMPDEST DUP1 ISZERO PUSH2 0x2A48 JUMPI DUP1 PUSH1 0x1F LT PUSH2 0x2A1F JUMPI PUSH2 0x100 DUP1 DUP4 SLOAD DIV MUL DUP4 MSTORE SWAP2 PUSH1 0x20 ADD SWAP2 PUSH2 0x2A48 JUMP JUMPDEST DUP3 ADD SWAP2 SWAP1 PUSH0 MSTORE PUSH1 0x20 PUSH0 KECCAK256 SWAP1 JUMPDEST DUP2 SLOAD DUP2 MSTORE SWAP1 PUSH1 0x1 ADD SWAP1 PUSH1 0x20 ADD DUP1 DUP4 GT PUSH2 0x2A2B JUMPI DUP3 SWAP1 SUB PUSH1 0x1F AND DUP3 ADD SWAP2 JUMPDEST POP POP POP POP POP SWAP1 DUP1 PUSH1 0x3 ADD DUP1 SLOAD PUSH2 0x2A5D SWAP1 PUSH2 0x4C2F JUMP JUMPDEST DUP1 PUSH1 0x1F ADD PUSH1 0x20 DUP1 SWAP2 DIV MUL PUSH1 0x20 ADD PUSH1 0x40 MLOAD SWAP1 DUP2 ADD PUSH1 0x40 MSTORE DUP1 SWAP3 SWAP2 SWAP1 DUP2 DUP2 MSTORE PUSH1 0x20 ADD DUP3 DUP1 SLOAD PUSH2 0x2A89 SWAP1 PUSH2 0x4C2F JUMP JUMPDEST DUP1 ISZERO PUSH2 0x2AD4 JUMPI DUP1 PUSH1 0x1F LT PUSH2 0x2AAB JUMPI PUSH2 0x100 DUP1 DUP4 SLOAD DIV MUL DUP4 MSTORE SWAP2 PUSH1 0x20 ADD SWAP2 PUSH2 0x2AD4 JUMP JUMPDEST DUP3 ADD SWAP2 SWAP1 PUSH0 MSTORE PUSH1 0x20 PUSH0 KECCAK256 SWAP1 JUMPDEST DUP2 SLOAD DUP2 MSTORE SWAP1 PUSH1 0x1 ADD SWAP1 PUSH1 0x20 ADD DUP1 DUP4 GT PUSH2 0x2AB7 JUMPI DUP3 SWAP1 SUB PUSH1 0x1F AND DUP3 ADD SWAP2 JUMPDEST POP POP POP POP POP SWAP1 DUP1 PUSH1 0x4 ADD SLOAD SWAP1 POP DUP6 JUMP JUMPDEST CALLER PUSH0 SWAP1 DUP2 MSTORE PUSH1 0x6 PUSH1 0x20 MSTORE PUSH1 0x40 DUP2 KECCAK256 SLOAD PUSH1 0xFF AND ISZERO PUSH2 0x2AFF JUMPI POP PUSH1 0x1 JUMPDEST CALLER PUSH0 SWAP1 DUP2 MSTORE PUSH1 0x6 PUSH1 0x20 MSTORE PUSH1 0x40 SWAP1 KECCAK256 SLOAD PUSH1 0xFF AND PUSH2 0x2B2D JUMPI PUSH1 0x40 MLOAD PUSH3 0x461BCD PUSH1 0xE5 SHL DUP2 MSTORE PUSH1 0x4 ADD PUSH2 0x5F2 SWAP1 PUSH2 0x4AE9 JUMP JUMPDEST PUSH1 0x1 PUSH1 0x1 PUSH1 0xA0 SHL SUB DUP1 DUP10 AND PUSH0 DUP2 DUP2 MSTORE PUSH1 0x2 PUSH1 0x20 DUP2 SWAP1 MSTORE PUSH1 0x40 SWAP1 SWAP2 KECCAK256 ADD SLOAD SWAP1 SWAP2 AND EQ DUP1 ISZERO PUSH2 0x2B76 JUMPI POP PUSH1 0x1 PUSH1 0x1 PUSH1 0xA0 SHL SUB DUP1 DUP10 AND PUSH0 DUP2 DUP2 MSTORE PUSH1 0x3 PUSH1 0x20 MSTORE PUSH1 0x40 SWAP1 KECCAK256 PUSH1 0x1 ADD SLOAD SWAP1 SWAP2 AND EQ JUMPDEST PUSH2 0x2C5A JUMPI PUSH1 0x40 MLOAD PUSH3 0x461BCD PUSH1 0xE5 SHL DUP2 MSTORE PUSH1 0x20 PUSH1 0x4 DUP3 ADD MSTORE PUSH1 0x99 PUSH1 0x24 DUP3 ADD MSTORE PUSH32 0x496E636F72726563742050617469656E742077616C6C65742061646472657373 PUSH1 0x44 DUP3 ADD MSTORE PUSH32 0x206F72205468652050617469656E742064657461696C20737065636966696320 PUSH1 0x64 DUP3 ADD MSTORE PUSH32 0x746F20706572736F6E616C206F722070617374206D65646963616C2068697374 PUSH1 0x84 DUP3 ADD MSTORE PUSH32 0x6F7279206F662074686520616464726573732070726F7669646564206E6F7420 PUSH1 0xA4 DUP3 ADD MSTORE PUSH32 0x617661696C61626C6520696E2074686520636861696E21212000000000000000 PUSH1 0xC4 DUP3 ADD MSTORE PUSH1 0xE4 ADD PUSH2 0x5F2 JUMP JUMPDEST PUSH1 0x1 PUSH1 0x1 PUSH1 0xA0 SHL SUB DUP1 DUP9 AND PUSH0 DUP2 DUP2 MSTORE PUSH1 0x7 PUSH1 0x20 MSTORE PUSH1 0x40 SWAP1 KECCAK256 PUSH1 0x1 ADD SLOAD SWAP1 SWAP2 AND EQ PUSH2 0x2D2C JUMPI PUSH1 0x40 MLOAD PUSH3 0x461BCD PUSH1 0xE5 SHL DUP2 MSTORE PUSH1 0x20 PUSH1 0x4 DUP3 ADD MSTORE PUSH1 0x71 PUSH1 0x24 DUP3 ADD MSTORE PUSH32 0x496E636F72726563742050687973696369616E2077616C6C6574206164647265 PUSH1 0x44 DUP3 ADD MSTORE PUSH32 0x7373206F72205468652050687973696369616E2064657461696C20666F722074 PUSH1 0x64 DUP3 ADD MSTORE PUSH32 0x686520616464726573732070726F7669646564206E6F7420617661696C61626C PUSH1 0x84 DUP3 ADD MSTORE PUSH17 0x329034B7103A34329031B430B4B710909 PUSH1 0x7D SHL PUSH1 0xA4 DUP3 ADD MSTORE PUSH1 0xC4 ADD PUSH2 0x5F2 JUMP JUMPDEST PUSH1 0x1 PUSH1 0x1 PUSH1 0xA0 SHL SUB DUP1 DUP10 AND PUSH0 DUP2 DUP2 MSTORE PUSH1 0x4 PUSH1 0x20 SWAP1 DUP2 MSTORE PUSH1 0x40 DUP1 DUP4 KECCAK256 DUP2 MLOAD PUSH2 0x100 DUP2 ADD DUP4 MSTORE DUP16 DUP2 MSTORE DUP1 DUP5 ADD SWAP6 SWAP1 SWAP6 MSTORE SWAP5 DUP13 AND SWAP1 DUP5 ADD MSTORE PUSH1 0x60 DUP4 ADD DUP11 SWAP1 MSTORE PUSH1 0x80 DUP4 ADD DUP10 SWAP1 MSTORE PUSH1 0xA0 DUP4 ADD DUP9 SWAP1 MSTORE PUSH1 0xC0 DUP4 ADD DUP8 SWAP1 MSTORE PUSH1 0xE0 DUP4 ADD DUP7 SWAP1 MSTORE DUP4 SLOAD PUSH1 0x1 DUP2 ADD DUP6 SSTORE SWAP4 DUP3 MSTORE SWAP1 KECCAK256 DUP2 MLOAD SWAP2 SWAP3 PUSH1 0x8 MUL ADD SWAP1 DUP2 SWAP1 PUSH2 0x2DA6 SWAP1 DUP3 PUSH2 0x4CB1 JUMP JUMPDEST POP PUSH1 0x20 DUP3 ADD MLOAD PUSH1 0x1 DUP3 ADD DUP1 SLOAD PUSH1 0x1 PUSH1 0x1 PUSH1 0xA0 SHL SUB SWAP3 DUP4 AND PUSH1 0x1 PUSH1 0x1 PUSH1 0xA0 SHL SUB NOT SWAP2 DUP3 AND OR SWAP1 SWAP2 SSTORE PUSH1 0x40 DUP5 ADD MLOAD PUSH1 0x2 DUP5 ADD DUP1 SLOAD SWAP2 SWAP1 SWAP4 AND SWAP2 AND OR SWAP1 SSTORE PUSH1 0x60 DUP3 ADD MLOAD PUSH1 0x3 DUP3 ADD SWAP1 PUSH2 0x2DF5 SWAP1 DUP3 PUSH2 0x4CB1 JUMP JUMPDEST POP PUSH1 0x80 DUP3 ADD MLOAD PUSH1 0x4 DUP3 ADD SWAP1 PUSH2 0x2E0A SWAP1 DUP3 PUSH2 0x4CB1 JUMP JUMPDEST POP PUSH1 0xA0 DUP3 ADD MLOAD PUSH1 0x5 DUP3 ADD SWAP1 PUSH2 0x2E1F SWAP1 DUP3 PUSH2 0x4CB1 JUMP JUMPDEST POP PUSH1 0xC0 DUP3 ADD MLOAD PUSH1 0x6 DUP3 ADD SWAP1 PUSH2 0x2E34 SWAP1 DUP3 PUSH2 0x4CB1 JUMP JUMPDEST POP PUSH1 0xE0 DUP3 ADD MLOAD PUSH1 0x7 DUP3 ADD SWAP1 PUSH2 0x103A SWAP1 DUP3 PUSH2 0x4CB1 JUMP JUMPDEST PUSH2 0x2E97 PUSH1 0x40 MLOAD DUP1 PUSH2 0x100 ADD PUSH1 0x40 MSTORE DUP1 PUSH1 0x60 DUP2 MSTORE PUSH1 0x20 ADD PUSH1 0x60 DUP2 MSTORE PUSH1 0x20 ADD PUSH0 PUSH1 0x1 PUSH1 0x1 PUSH1 0xA0 SHL SUB AND DUP2 MSTORE PUSH1 0x20 ADD PUSH1 0x60 DUP2 MSTORE PUSH1 0x20 ADD PUSH1 0x60 DUP2 MSTORE PUSH1 0x20 ADD PUSH1 0x60 DUP2 MSTORE PUSH1 0x20 ADD PUSH0 DUP2 MSTORE PUSH1 0x20 ADD PUSH0 DUP2 MSTORE POP SWAP1 JUMP JUMPDEST PUSH2 0x2EEA PUSH1 0x40 MLOAD DUP1 PUSH2 0x100 ADD PUSH1 0x40 MSTORE DUP1 PUSH1 0x60 DUP2 MSTORE PUSH1 0x20 ADD PUSH0 PUSH1 0x1 PUSH1 0x1 PUSH1 0xA0 SHL SUB AND DUP2 MSTORE PUSH1 0x20 ADD PUSH0 ISZERO ISZERO DUP2 MSTORE PUSH1 0x20 ADD PUSH0 ISZERO ISZERO DUP2 MSTORE PUSH1 0x20 ADD PUSH0 ISZERO ISZERO DUP2 MSTORE PUSH1 0x20 ADD PUSH1 0x60 DUP2 MSTORE PUSH1 0x20 ADD PUSH1 0x60 DUP2 MSTORE PUSH1 0x20 ADD PUSH1 0x60 DUP2 MSTORE POP SWAP1 JUMP JUMPDEST CALLER PUSH0 DUP2 DUP2 MSTORE PUSH1 0x2 PUSH1 0x20 DUP2 SWAP1 MSTORE PUSH1 0x40 SWAP1 SWAP2 KECCAK256 ADD SLOAD PUSH1 0x1 PUSH1 0x1 PUSH1 0xA0 SHL SUB AND EQ DUP1 PUSH2 0x2F2A JUMPI POP CALLER PUSH0 DUP2 DUP2 MSTORE PUSH1 0x3 PUSH1 0x20 MSTORE PUSH1 0x40 SWAP1 KECCAK256 PUSH1 0x1 ADD SLOAD PUSH1 0x1 PUSH1 0x1 PUSH1 0xA0 SHL SUB AND EQ JUMPDEST DUP1 PUSH2 0x2F43 JUMPI POP CALLER PUSH0 SWAP1 DUP2 MSTORE PUSH1 0x6 PUSH1 0x20 MSTORE PUSH1 0x40 SWAP1 KECCAK256 SLOAD PUSH1 0xFF AND JUMPDEST DUP1 PUSH2 0x2F5C JUMPI POP CALLER PUSH0 SWAP1 DUP2 MSTORE PUSH1 0x20 DUP2 SWAP1 MSTORE PUSH1 0x40 SWAP1 KECCAK256 SLOAD PUSH1 0xFF AND JUMPDEST DUP1 PUSH2 0x2F71 JUMPI POP PUSH1 0x1 SLOAD PUSH1 0x1 PUSH1 0x1 PUSH1 0xA0 SHL SUB AND CALLER EQ JUMPDEST PUSH2 0x2F8D JUMPI PUSH1 0x40 MLOAD PUSH3 0x461BCD PUSH1 0xE5 SHL DUP2 MSTORE PUSH1 0x4 ADD PUSH2 0x5F2 SWAP1 PUSH2 0x4FA5 JUMP JUMPDEST PUSH1 0x1 PUSH1 0x1 PUSH1 0xA0 SHL SUB DUP4 AND PUSH2 0x2FB3 JUMPI PUSH1 0x40 MLOAD PUSH3 0x461BCD PUSH1 0xE5 SHL DUP2 MSTORE PUSH1 0x4 ADD PUSH2 0x5F2 SWAP1 PUSH2 0x4EC5 JUMP JUMPDEST PUSH1 0x1 PUSH1 0x1 PUSH1 0xA0 SHL SUB DUP1 DUP5 AND PUSH0 DUP2 DUP2 MSTORE PUSH1 0x2 PUSH1 0x20 DUP2 SWAP1 MSTORE PUSH1 0x40 SWAP1 SWAP2 KECCAK256 ADD SLOAD SWAP1 SWAP2 AND EQ DUP1 ISZERO PUSH2 0x2FFC JUMPI POP PUSH1 0x1 PUSH1 0x1 PUSH1 0xA0 SHL SUB DUP1 DUP5 AND PUSH0 DUP2 DUP2 MSTORE PUSH1 0x3 PUSH1 0x20 MSTORE PUSH1 0x40 SWAP1 KECCAK256 PUSH1 0x1 ADD SLOAD SWAP1 SWAP2 AND EQ JUMPDEST PUSH2 0x30BA JUMPI PUSH1 0x40 MLOAD PUSH3 0x461BCD PUSH1 0xE5 SHL DUP2 MSTORE PUSH1 0x20 PUSH1 0x4 DUP3 ADD MSTORE PUSH1 0x79 PUSH1 0x24 DUP3 ADD MSTORE PUSH32 0x496E636F72726563742050617469656E742077616C6C65742061646472657373 PUSH1 0x44 DUP3 ADD MSTORE PUSH32 0x206F72205468652050617469656E742064657461696C20666F72207468652061 PUSH1 0x64 DUP3 ADD MSTORE PUSH32 0x6464726573732070726F7669646564206973206E6F7420636F6D706C65746C79 PUSH1 0x84 DUP3 ADD MSTORE PUSH32 0x20617661696C61626C6520696E2074686520636861696E212100000000000000 PUSH1 0xA4 DUP3 ADD MSTORE PUSH1 0xC4 ADD PUSH2 0x5F2 JUMP JUMPDEST PUSH1 0x1 PUSH1 0x1 PUSH1 0xA0 SHL SUB DUP4 AND PUSH0 SWAP1 DUP2 MSTORE PUSH1 0x2 PUSH1 0x20 SWAP1 DUP2 MSTORE PUSH1 0x40 DUP1 DUP4 KECCAK256 PUSH1 0x3 SWAP1 SWAP3 MSTORE SWAP2 DUP3 SWAP1 KECCAK256 DUP3 MLOAD PUSH2 0x100 DUP2 ADD SWAP1 SWAP4 MSTORE DUP2 SLOAD SWAP2 SWAP3 SWAP1 SWAP2 DUP4 SWAP1 DUP3 SWAP1 DUP3 SWAP1 PUSH2 0x30FC SWAP1 PUSH2 0x4C2F JUMP JUMPDEST DUP1 PUSH1 0x1F ADD PUSH1 0x20 DUP1 SWAP2 DIV MUL PUSH1 0x20 ADD PUSH1 0x40 MLOAD SWAP1 DUP2 ADD PUSH1 0x40 MSTORE DUP1 SWAP3 SWAP2 SWAP1 DUP2 DUP2 MSTORE PUSH1 0x20 ADD DUP3 DUP1 SLOAD PUSH2 0x3128 SWAP1 PUSH2 0x4C2F JUMP JUMPDEST DUP1 ISZERO PUSH2 0x3173 JUMPI DUP1 PUSH1 0x1F LT PUSH2 0x314A JUMPI PUSH2 0x100 DUP1 DUP4 SLOAD DIV MUL DUP4 MSTORE SWAP2 PUSH1 0x20 ADD SWAP2 PUSH2 0x3173 JUMP JUMPDEST DUP3 ADD SWAP2 SWAP1 PUSH0 MSTORE PUSH1 0x20 PUSH0 KECCAK256 SWAP1 JUMPDEST DUP2 SLOAD DUP2 MSTORE SWAP1 PUSH1 0x1 ADD SWAP1 PUSH1 0x20 ADD DUP1 DUP4 GT PUSH2 0x3156 JUMPI DUP3 SWAP1 SUB PUSH1 0x1F AND DUP3 ADD SWAP2 JUMPDEST POP POP POP POP POP DUP2 MSTORE PUSH1 0x20 ADD PUSH1 0x1 DUP3 ADD DUP1 SLOAD PUSH2 0x318C SWAP1 PUSH2 0x4C2F JUMP JUMPDEST DUP1 PUSH1 0x1F ADD PUSH1 0x20 DUP1 SWAP2 DIV MUL PUSH1 0x20 ADD PUSH1 0x40 MLOAD SWAP1 DUP2 ADD PUSH1 0x40 MSTORE DUP1 SWAP3 SWAP2 SWAP1 DUP2 DUP2 MSTORE PUSH1 0x20 ADD DUP3 DUP1 SLOAD PUSH2 0x31B8 SWAP1 PUSH2 0x4C2F JUMP JUMPDEST DUP1 ISZERO PUSH2 0x3203 JUMPI DUP1 PUSH1 0x1F LT PUSH2 0x31DA JUMPI PUSH2 0x100 DUP1 DUP4 SLOAD DIV MUL DUP4 MSTORE SWAP2 PUSH1 0x20 ADD SWAP2 PUSH2 0x3203 JUMP JUMPDEST DUP3 ADD SWAP2 SWAP1 PUSH0 MSTORE PUSH1 0x20 PUSH0 KECCAK256 SWAP1 JUMPDEST DUP2 SLOAD DUP2 MSTORE SWAP1 PUSH1 0x1 ADD SWAP1 PUSH1 0x20 ADD DUP1 DUP4 GT PUSH2 0x31E6 JUMPI DUP3 SWAP1 SUB PUSH1 0x1F AND DUP3 ADD SWAP2 JUMPDEST POP POP POP SWAP2 DUP4 MSTORE POP POP PUSH1 0x2 DUP3 ADD SLOAD PUSH1 0x1 PUSH1 0x1 PUSH1 0xA0 SHL SUB AND PUSH1 0x20 DUP3 ADD MSTORE PUSH1 0x3 DUP3 ADD DUP1 SLOAD PUSH1 0x40 SWAP1 SWAP3 ADD SWAP2 PUSH2 0x3233 SWAP1 PUSH2 0x4C2F JUMP JUMPDEST DUP1 PUSH1 0x1F ADD PUSH1 0x20 DUP1 SWAP2 DIV MUL PUSH1 0x20 ADD PUSH1 0x40 MLOAD SWAP1 DUP2 ADD PUSH1 0x40 MSTORE DUP1 SWAP3 SWAP2 SWAP1 DUP2 DUP2 MSTORE PUSH1 0x20 ADD DUP3 DUP1 SLOAD PUSH2 0x325F SWAP1 PUSH2 0x4C2F JUMP JUMPDEST DUP1 ISZERO PUSH2 0x32AA JUMPI DUP1 PUSH1 0x1F LT PUSH2 0x3281 JUMPI PUSH2 0x100 DUP1 DUP4 SLOAD DIV MUL DUP4 MSTORE SWAP2 PUSH1 0x20 ADD SWAP2 PUSH2 0x32AA JUMP JUMPDEST DUP3 ADD SWAP2 SWAP1 PUSH0 MSTORE PUSH1 0x20 PUSH0 KECCAK256 SWAP1 JUMPDEST DUP2 SLOAD DUP2 MSTORE SWAP1 PUSH1 0x1 ADD SWAP1 PUSH1 0x20 ADD DUP1 DUP4 GT PUSH2 0x328D JUMPI DUP3 SWAP1 SUB PUSH1 0x1F AND DUP3 ADD SWAP2 JUMPDEST POP POP POP POP POP DUP2 MSTORE PUSH1 0x20 ADD PUSH1 0x4 DUP3 ADD DUP1 SLOAD PUSH2 0x32C3 SWAP1 PUSH2 0x4C2F JUMP JUMPDEST DUP1 PUSH1 0x1F ADD PUSH1 0x20 DUP1 SWAP2 DIV MUL PUSH1 0x20 ADD PUSH1 0x40 MLOAD SWAP1 DUP2 ADD PUSH1 0x40 MSTORE DUP1 SWAP3 SWAP2 SWAP1 DUP2 DUP2 MSTORE PUSH1 0x20 ADD DUP3 DUP1 SLOAD PUSH2 0x32EF SWAP1 PUSH2 0x4C2F JUMP JUMPDEST DUP1 ISZERO PUSH2 0x333A JUMPI DUP1 PUSH1 0x1F LT PUSH2 0x3311 JUMPI PUSH2 0x100 DUP1 DUP4 SLOAD DIV MUL DUP4 MSTORE SWAP2 PUSH1 0x20 ADD SWAP2 PUSH2 0x333A JUMP JUMPDEST DUP3 ADD SWAP2 SWAP1 PUSH0 MSTORE PUSH1 0x20 PUSH0 KECCAK256 SWAP1 JUMPDEST DUP2 SLOAD DUP2 MSTORE SWAP1 PUSH1 0x1 ADD SWAP1 PUSH1 0x20 ADD DUP1 DUP4 GT PUSH2 0x331D JUMPI DUP3 SWAP1 SUB PUSH1 0x1F AND DUP3 ADD SWAP2 JUMPDEST POP POP POP POP POP DUP2 MSTORE PUSH1 0x20 ADD PUSH1 0x5 DUP3 ADD DUP1 SLOAD PUSH2 0x3353 SWAP1 PUSH2 0x4C2F JUMP JUMPDEST DUP1 PUSH1 0x1F ADD PUSH1 0x20 DUP1 SWAP2 DIV MUL PUSH1 0x20 ADD PUSH1 0x40 MLOAD SWAP1 DUP2 ADD PUSH1 0x40 MSTORE DUP1 SWAP3 SWAP2 SWAP1 DUP2 DUP2 MSTORE PUSH1 0x20 ADD DUP3 DUP1 SLOAD PUSH2 0x337F SWAP1 PUSH2 0x4C2F JUMP JUMPDEST DUP1 ISZERO PUSH2 0x33CA JUMPI DUP1 PUSH1 0x1F LT PUSH2 0x33A1 JUMPI PUSH2 0x100 DUP1 DUP4 SLOAD DIV MUL DUP4 MSTORE SWAP2 PUSH1 0x20 ADD SWAP2 PUSH2 0x33CA JUMP JUMPDEST DUP3 ADD SWAP2 SWAP1 PUSH0 MSTORE PUSH1 0x20 PUSH0 KECCAK256 SWAP1 JUMPDEST DUP2 SLOAD DUP2 MSTORE SWAP1 PUSH1 0x1 ADD SWAP1 PUSH1 0x20 ADD DUP1 DUP4 GT PUSH2 0x33AD JUMPI DUP3 SWAP1 SUB PUSH1 0x1F AND DUP3 ADD SWAP2 JUMPDEST POP POP POP POP POP DUP2 MSTORE PUSH1 0x20 ADD PUSH1 0x6 DUP3 ADD SLOAD DUP2 MSTORE PUSH1 0x20 ADD PUSH1 0x7 DUP3 ADD SLOAD DUP2 MSTORE POP POP SWAP2 POP DUP1 PUSH1 0x40 MLOAD DUP1 PUSH2 0x100 ADD PUSH1 0x40 MSTORE SWAP1 DUP2 PUSH0 DUP3 ADD DUP1 SLOAD PUSH2 0x3405 SWAP1 PUSH2 0x4C2F JUMP JUMPDEST DUP1 PUSH1 0x1F ADD PUSH1 0x20 DUP1 SWAP2 DIV MUL PUSH1 0x20 ADD PUSH1 0x40 MLOAD SWAP1 DUP2 ADD PUSH1 0x40 MSTORE DUP1 SWAP3 SWAP2 SWAP1 DUP2 DUP2 MSTORE PUSH1 0x20 ADD DUP3 DUP1 SLOAD PUSH2 0x3431 SWAP1 PUSH2 0x4C2F JUMP JUMPDEST DUP1 ISZERO PUSH2 0x347C JUMPI DUP1 PUSH1 0x1F LT PUSH2 0x3453 JUMPI PUSH2 0x100 DUP1 DUP4 SLOAD DIV MUL DUP4 MSTORE SWAP2 PUSH1 0x20 ADD SWAP2 PUSH2 0x347C JUMP JUMPDEST DUP3 ADD SWAP2 SWAP1 PUSH0 MSTORE PUSH1 0x20 PUSH0 KECCAK256 SWAP1 JUMPDEST DUP2 SLOAD DUP2 MSTORE SWAP1 PUSH1 0x1 ADD SWAP1 PUSH1 0x20 ADD DUP1 DUP4 GT PUSH2 0x345F JUMPI DUP3 SWAP1 SUB PUSH1 0x1F AND DUP3 ADD SWAP2 JUMPDEST POP POP POP SWAP2 DUP4 MSTORE POP POP PUSH1 0x1 DUP3 ADD SLOAD PUSH1 0x1 PUSH1 0x1 PUSH1 0xA0 SHL SUB DUP2 AND PUSH1 0x20 DUP4 ADD MSTORE PUSH1 0xFF PUSH1 0x1 PUSH1 0xA0 SHL DUP3 DIV DUP2 AND ISZERO ISZERO PUSH1 0x40 DUP5 ADD MSTORE PUSH1 0x1 PUSH1 0xA8 SHL DUP3 DIV DUP2 AND ISZERO ISZERO PUSH1 0x60 DUP5 ADD MSTORE PUSH1 0x1 PUSH1 0xB0 SHL SWAP1 SWAP2 DIV AND ISZERO ISZERO PUSH1 0x80 DUP3 ADD MSTORE PUSH1 0x2 DUP3 ADD DUP1 SLOAD PUSH1 0xA0 SWAP1 SWAP3 ADD SWAP2 PUSH2 0x34DF SWAP1 PUSH2 0x4C2F JUMP JUMPDEST DUP1 PUSH1 0x1F ADD PUSH1 0x20 DUP1 SWAP2 DIV MUL PUSH1 0x20 ADD PUSH1 0x40 MLOAD SWAP1 DUP2 ADD PUSH1 0x40 MSTORE DUP1 SWAP3 SWAP2 SWAP1 DUP2 DUP2 MSTORE PUSH1 0x20 ADD DUP3 DUP1 SLOAD PUSH2 0x350B SWAP1 PUSH2 0x4C2F JUMP JUMPDEST DUP1 ISZERO PUSH2 0x3556 JUMPI DUP1 PUSH1 0x1F LT PUSH2 0x352D JUMPI PUSH2 0x100 DUP1 DUP4 SLOAD DIV MUL DUP4 MSTORE SWAP2 PUSH1 0x20 ADD SWAP2 PUSH2 0x3556 JUMP JUMPDEST DUP3 ADD SWAP2 SWAP1 PUSH0 MSTORE PUSH1 0x20 PUSH0 KECCAK256 SWAP1 JUMPDEST DUP2 SLOAD DUP2 MSTORE SWAP1 PUSH1 0x1 ADD SWAP1 PUSH1 0x20 ADD DUP1 DUP4 GT PUSH2 0x3539 JUMPI DUP3 SWAP1 SUB PUSH1 0x1F AND DUP3 ADD SWAP2 JUMPDEST POP POP POP POP POP DUP2 MSTORE PUSH1 0x20 ADD PUSH1 0x3 DUP3 ADD DUP1 SLOAD PUSH2 0x356F SWAP1 PUSH2 0x4C2F JUMP JUMPDEST DUP1 PUSH1 0x1F ADD PUSH1 0x20 DUP1 SWAP2 DIV MUL PUSH1 0x20 ADD PUSH1 0x40 MLOAD SWAP1 DUP2 ADD PUSH1 0x40 MSTORE DUP1 SWAP3 SWAP2 SWAP1 DUP2 DUP2 MSTORE PUSH1 0x20 ADD DUP3 DUP1 SLOAD PUSH2 0x359B SWAP1 PUSH2 0x4C2F JUMP JUMPDEST DUP1 ISZERO PUSH2 0x35E6 JUMPI DUP1 PUSH1 0x1F LT PUSH2 0x35BD JUMPI PUSH2 0x100 DUP1 DUP4 SLOAD DIV MUL DUP4 MSTORE SWAP2 PUSH1 0x20 ADD SWAP2 PUSH2 0x35E6 JUMP JUMPDEST DUP3 ADD SWAP2 SWAP1 PUSH0 MSTORE PUSH1 0x20 PUSH0 KECCAK256 SWAP1 JUMPDEST DUP2 SLOAD DUP2 MSTORE SWAP1 PUSH1 0x1 ADD SWAP1 PUSH1 0x20 ADD DUP1 DUP4 GT PUSH2 0x35C9 JUMPI DUP3 SWAP1 SUB PUSH1 0x1F AND DUP3 ADD SWAP2 JUMPDEST POP POP POP POP POP DUP2 MSTORE PUSH1 0x20 ADD PUSH1 0x4 DUP3 ADD DUP1 SLOAD PUSH2 0x35FF SWAP1 PUSH2 0x4C2F JUMP JUMPDEST DUP1 PUSH1 0x1F ADD PUSH1 0x20 DUP1 SWAP2 DIV MUL PUSH1 0x20 ADD PUSH1 0x40 MLOAD SWAP1 DUP2 ADD PUSH1 0x40 MSTORE DUP1 SWAP3 SWAP2 SWAP1 DUP2 DUP2 MSTORE PUSH1 0x20 ADD DUP3 DUP1 SLOAD PUSH2 0x362B SWAP1 PUSH2 0x4C2F JUMP JUMPDEST DUP1 ISZERO PUSH2 0x3676 JUMPI DUP1 PUSH1 0x1F LT PUSH2 0x364D JUMPI PUSH2 0x100 DUP1 DUP4 SLOAD DIV MUL DUP4 MSTORE SWAP2 PUSH1 0x20 ADD SWAP2 PUSH2 0x3676 JUMP JUMPDEST DUP3 ADD SWAP2 SWAP1 PUSH0 MSTORE PUSH1 0x20 PUSH0 KECCAK256 SWAP1 JUMPDEST DUP2 SLOAD DUP2 MSTORE SWAP1 PUSH1 0x1 ADD SWAP1 PUSH1 0x20 ADD DUP1 DUP4 GT PUSH2 0x3659 JUMPI DUP3 SWAP1 SUB PUSH1 0x1F AND DUP3 ADD SWAP2 JUMPDEST POP POP POP POP POP DUP2 MSTORE POP POP SWAP1 POP SWAP2 POP SWAP2 POP SWAP2 POP SWAP2 JUMP JUMPDEST PUSH1 0x3 PUSH1 0x20 MSTORE PUSH0 SWAP1 DUP2 MSTORE PUSH1 0x40 SWAP1 KECCAK256 DUP1 SLOAD DUP2 SWAP1 PUSH2 0x36A4 SWAP1 PUSH2 0x4C2F JUMP JUMPDEST DUP1 PUSH1 0x1F ADD PUSH1 0x20 DUP1 SWAP2 DIV MUL PUSH1 0x20 ADD PUSH1 0x40 MLOAD SWAP1 DUP2 ADD PUSH1 0x40 MSTORE DUP1 SWAP3 SWAP2 SWAP1 DUP2 DUP2 MSTORE PUSH1 0x20 ADD DUP3 DUP1 SLOAD PUSH2 0x36D0 SWAP1 PUSH2 0x4C2F JUMP JUMPDEST DUP1 ISZERO PUSH2 0x371B JUMPI DUP1 PUSH1 0x1F LT PUSH2 0x36F2 JUMPI PUSH2 0x100 DUP1 DUP4 SLOAD DIV MUL DUP4 MSTORE SWAP2 PUSH1 0x20 ADD SWAP2 PUSH2 0x371B JUMP JUMPDEST DUP3 ADD SWAP2 SWAP1 PUSH0 MSTORE PUSH1 0x20 PUSH0 KECCAK256 SWAP1 JUMPDEST DUP2 SLOAD DUP2 MSTORE SWAP1 PUSH1 0x1 ADD SWAP1 PUSH1 0x20 ADD DUP1 DUP4 GT PUSH2 0x36FE JUMPI DUP3 SWAP1 SUB PUSH1 0x1F AND DUP3 ADD SWAP2 JUMPDEST POP POP POP POP PUSH1 0x1 DUP4 ADD SLOAD PUSH1 0x2 DUP5 ADD DUP1 SLOAD SWAP4 SWAP5 PUSH1 0x1 PUSH1 0x1 PUSH1 0xA0 SHL SUB DUP4 AND SWAP5 PUSH1 0xFF PUSH1 0x1 PUSH1 0xA0 SHL DUP6 DIV DUP2 AND SWAP6 POP PUSH1 0x1 PUSH1 0xA8 SHL DUP6 DIV DUP2 AND SWAP5 PUSH1 0x1 PUSH1 0xB0 SHL SWAP1 DIV AND SWAP3 SWAP1 PUSH2 0x3761 SWAP1 PUSH2 0x4C2F JUMP JUMPDEST DUP1 PUSH1 0x1F ADD PUSH1 0x20 DUP1 SWAP2 DIV MUL PUSH1 0x20 ADD PUSH1 0x40 MLOAD SWAP1 DUP2 ADD PUSH1 0x40 MSTORE DUP1 SWAP3 SWAP2 SWAP1 DUP2 DUP2 MSTORE PUSH1 0x20 ADD DUP3 DUP1 SLOAD PUSH2 0x378D SWAP1 PUSH2 0x4C2F JUMP JUMPDEST DUP1 ISZERO PUSH2 0x37D8 JUMPI DUP1 PUSH1 0x1F LT PUSH2 0x37AF JUMPI PUSH2 0x100 DUP1 DUP4 SLOAD DIV MUL DUP4 MSTORE SWAP2 PUSH1 0x20 ADD SWAP2 PUSH2 0x37D8 JUMP JUMPDEST DUP3 ADD SWAP2 SWAP1 PUSH0 MSTORE PUSH1 0x20 PUSH0 KECCAK256 SWAP1 JUMPDEST DUP2 SLOAD DUP2 MSTORE SWAP1 PUSH1 0x1 ADD SWAP1 PUSH1 0x20 ADD DUP1 DUP4 GT PUSH2 0x37BB JUMPI DUP3 SWAP1 SUB PUSH1 0x1F AND DUP3 ADD SWAP2 JUMPDEST POP POP POP POP POP SWAP1 DUP1 PUSH1 0x3 ADD DUP1 SLOAD PUSH2 0x37ED SWAP1 PUSH2 0x4C2F JUMP JUMPDEST DUP1 PUSH1 0x1F ADD PUSH1 0x20 DUP1 SWAP2 DIV MUL PUSH1 0x20 ADD PUSH1 0x40 MLOAD SWAP1 DUP2 ADD PUSH1 0x40 MSTORE DUP1 SWAP3 SWAP2 SWAP1 DUP2 DUP2 MSTORE PUSH1 0x20 ADD DUP3 DUP1 SLOAD PUSH2 0x3819 SWAP1 PUSH2 0x4C2F JUMP JUMPDEST DUP1 ISZERO PUSH2 0x3864 JUMPI DUP1 PUSH1 0x1F LT PUSH2 0x383B JUMPI PUSH2 0x100 DUP1 DUP4 SLOAD DIV MUL DUP4 MSTORE SWAP2 PUSH1 0x20 ADD SWAP2 PUSH2 0x3864 JUMP JUMPDEST DUP3 ADD SWAP2 SWAP1 PUSH0 MSTORE PUSH1 0x20 PUSH0 KECCAK256 SWAP1 JUMPDEST DUP2 SLOAD DUP2 MSTORE SWAP1 PUSH1 0x1 ADD SWAP1 PUSH1 0x20 ADD DUP1 DUP4 GT PUSH2 0x3847 JUMPI DUP3 SWAP1 SUB PUSH1 0x1F AND DUP3 ADD SWAP2 JUMPDEST POP POP POP POP POP SWAP1 DUP1 PUSH1 0x4 ADD DUP1 SLOAD PUSH2 0x3879 SWAP1 PUSH2 0x4C2F JUMP JUMPDEST DUP1 PUSH1 0x1F ADD PUSH1 0x20 DUP1 SWAP2 DIV MUL PUSH1 0x20 ADD PUSH1 0x40 MLOAD SWAP1 DUP2 ADD PUSH1 0x40 MSTORE DUP1 SWAP3 SWAP2 SWAP1 DUP2 DUP2 MSTORE PUSH1 0x20 ADD DUP3 DUP1 SLOAD PUSH2 0x38A5 SWAP1 PUSH2 0x4C2F JUMP JUMPDEST DUP1 ISZERO PUSH2 0x38F0 JUMPI DUP1 PUSH1 0x1F LT PUSH2 0x38C7 JUMPI PUSH2 0x100 DUP1 DUP4 SLOAD DIV MUL DUP4 MSTORE SWAP2 PUSH1 0x20 ADD SWAP2 PUSH2 0x38F0 JUMP JUMPDEST DUP3 ADD SWAP2 SWAP1 PUSH0 MSTORE PUSH1 0x20 PUSH0 KECCAK256 SWAP1 JUMPDEST DUP2 SLOAD DUP2 MSTORE SWAP1 PUSH1 0x1 ADD SWAP1 PUSH1 0x20 ADD DUP1 DUP4 GT PUSH2 0x38D3 JUMPI DUP3 SWAP1 SUB PUSH1 0x1F AND DUP3 ADD SWAP2 JUMPDEST POP POP POP POP POP SWAP1 POP DUP9 JUMP JUMPDEST PUSH2 0x3933 PUSH1 0x40 MLOAD DUP1 PUSH1 0xA0 ADD PUSH1 0x40 MSTORE DUP1 PUSH0 PUSH1 0x1 PUSH1 0x1 PUSH1 0xA0 SHL SUB AND DUP2 MSTORE PUSH1 0x20 ADD PUSH1 0x60 DUP2 MSTORE PUSH1 0x20 ADD PUSH1 0x60 DUP2 MSTORE PUSH1 0x20 ADD PUSH1 0x60 DUP2 MSTORE PUSH1 0x20 ADD PUSH0 DUP2 MSTORE POP SWAP1 JUMP JUMPDEST CALLER PUSH0 SWAP1 DUP2 MSTORE PUSH1 0x20 DUP2 SWAP1 MSTORE PUSH1 0x40 SWAP1 KECCAK256 SLOAD PUSH1 0xFF AND DUP1 PUSH2 0x395A JUMPI POP PUSH1 0x1 SLOAD PUSH1 0x1 PUSH1 0x1 PUSH1 0xA0 SHL SUB AND CALLER EQ JUMPDEST PUSH2 0x3976 JUMPI PUSH1 0x40 MLOAD PUSH3 0x461BCD PUSH1 0xE5 SHL DUP2 MSTORE PUSH1 0x4 ADD PUSH2 0x5F2 SWAP1 PUSH2 0x4A9F JUMP JUMPDEST PUSH1 0x1 PUSH1 0x1 PUSH1 0xA0 SHL SUB DUP3 AND PUSH2 0x399C JUMPI PUSH1 0x40 MLOAD PUSH3 0x461BCD PUSH1 0xE5 SHL DUP2 MSTORE PUSH1 0x4 ADD PUSH2 0x5F2 SWAP1 PUSH2 0x4EC5 JUMP JUMPDEST PUSH1 0x1 PUSH1 0x1 PUSH1 0xA0 SHL SUB DUP1 DUP4 AND PUSH0 DUP2 DUP2 MSTORE PUSH1 0x8 PUSH1 0x20 MSTORE PUSH1 0x40 SWAP1 KECCAK256 SLOAD SWAP1 SWAP2 AND EQ PUSH2 0x39D5 JUMPI PUSH1 0x40 MLOAD PUSH3 0x461BCD PUSH1 0xE5 SHL DUP2 MSTORE PUSH1 0x4 ADD PUSH2 0x5F2 SWAP1 PUSH2 0x4EFC JUMP JUMPDEST PUSH1 0x1 PUSH1 0x1 PUSH1 0xA0 SHL SUB DUP1 DUP4 AND PUSH0 SWAP1 DUP2 MSTORE PUSH1 0x8 PUSH1 0x20 SWAP1 DUP2 MSTORE PUSH1 0x40 SWAP2 DUP3 SWAP1 KECCAK256 DUP3 MLOAD PUSH1 0xA0 DUP2 ADD SWAP1 SWAP4 MSTORE DUP1 SLOAD SWAP1 SWAP4 AND DUP3 MSTORE PUSH1 0x1 DUP4 ADD DUP1 SLOAD SWAP3 SWAP4 SWAP3 SWAP2 DUP5 ADD SWAP2 PUSH2 0x3A17 SWAP1 PUSH2 0x4C2F JUMP JUMPDEST DUP1 PUSH1 0x1F ADD PUSH1 0x20 DUP1 SWAP2 DIV MUL PUSH1 0x20 ADD PUSH1 0x40 MLOAD SWAP1 DUP2 ADD PUSH1 0x40 MSTORE DUP1 SWAP3 SWAP2 SWAP1 DUP2 DUP2 MSTORE PUSH1 0x20 ADD DUP3 DUP1 SLOAD PUSH2 0x3A43 SWAP1 PUSH2 0x4C2F JUMP JUMPDEST DUP1 ISZERO PUSH2 0x3A8E JUMPI DUP1 PUSH1 0x1F LT PUSH2 0x3A65 JUMPI PUSH2 0x100 DUP1 DUP4 SLOAD DIV MUL DUP4 MSTORE SWAP2 PUSH1 0x20 ADD SWAP2 PUSH2 0x3A8E JUMP JUMPDEST DUP3 ADD SWAP2 SWAP1 PUSH0 MSTORE PUSH1 0x20 PUSH0 KECCAK256 SWAP1 JUMPDEST DUP2 SLOAD DUP2 MSTORE SWAP1 PUSH1 0x1 ADD SWAP1 PUSH1 0x20 ADD DUP1 DUP4 GT PUSH2 0x3A71 JUMPI DUP3 SWAP1 SUB PUSH1 0x1F AND DUP3 ADD SWAP2 JUMPDEST POP POP POP POP POP DUP2 MSTORE PUSH1 0x20 ADD PUSH1 0x2 DUP3 ADD DUP1 SLOAD PUSH2 0x3AA7 SWAP1 PUSH2 0x4C2F JUMP JUMPDEST DUP1 PUSH1 0x1F ADD PUSH1 0x20 DUP1 SWAP2 DIV MUL PUSH1 0x20 ADD PUSH1 0x40 MLOAD SWAP1 DUP2 ADD PUSH1 0x40 MSTORE DUP1 SWAP3 SWAP2 SWAP1 DUP2 DUP2 MSTORE PUSH1 0x20 ADD DUP3 DUP1 SLOAD PUSH2 0x3AD3 SWAP1 PUSH2 0x4C2F JUMP JUMPDEST DUP1 ISZERO PUSH2 0x3B1E JUMPI DUP1 PUSH1 0x1F LT PUSH2 0x3AF5 JUMPI PUSH2 0x100 DUP1 DUP4 SLOAD DIV MUL DUP4 MSTORE SWAP2 PUSH1 0x20 ADD SWAP2 PUSH2 0x3B1E JUMP JUMPDEST DUP3 ADD SWAP2 SWAP1 PUSH0 MSTORE PUSH1 0x20 PUSH0 KECCAK256 SWAP1 JUMPDEST DUP2 SLOAD DUP2 MSTORE SWAP1 PUSH1 0x1 ADD SWAP1 PUSH1 0x20 ADD DUP1 DUP4 GT PUSH2 0x3B01 JUMPI DUP3 SWAP1 SUB PUSH1 0x1F AND DUP3 ADD SWAP2 JUMPDEST POP POP POP POP POP DUP2 MSTORE PUSH1 0x20 ADD PUSH1 0x3 DUP3 ADD DUP1 SLOAD PUSH2 0x3B37 SWAP1 PUSH2 0x4C2F JUMP JUMPDEST DUP1 PUSH1 0x1F ADD PUSH1 0x20 DUP1 SWAP2 DIV MUL PUSH1 0x20 ADD PUSH1 0x40 MLOAD SWAP1 DUP2 ADD PUSH1 0x40 MSTORE DUP1 SWAP3 SWAP2 SWAP1 DUP2 DUP2 MSTORE PUSH1 0x20 ADD DUP3 DUP1 SLOAD PUSH2 0x3B63 SWAP1 PUSH2 0x4C2F JUMP JUMPDEST DUP1 ISZERO PUSH2 0x3BAE JUMPI DUP1 PUSH1 0x1F LT PUSH2 0x3B85 JUMPI PUSH2 0x100 DUP1 DUP4 SLOAD DIV MUL DUP4 MSTORE SWAP2 PUSH1 0x20 ADD SWAP2 PUSH2 0x3BAE JUMP JUMPDEST DUP3 ADD SWAP2 SWAP1 PUSH0 MSTORE PUSH1 0x20 PUSH0 KECCAK256 SWAP1 JUMPDEST DUP2 SLOAD DUP2 MSTORE SWAP1 PUSH1 0x1 ADD SWAP1 PUSH1 0x20 ADD DUP1 DUP4 GT PUSH2 0x3B91 JUMPI DUP3 SWAP1 SUB PUSH1 0x1F AND DUP3 ADD SWAP2 JUMPDEST POP POP POP POP POP DUP2 MSTORE PUSH1 0x20 ADD PUSH1 0x4 DUP3 ADD SLOAD DUP2 MSTORE POP POP SWAP1 POP SWAP2 SWAP1 POP JUMP JUMPDEST PUSH1 0x4 PUSH1 0x20 MSTORE DUP2 PUSH0 MSTORE PUSH1 0x40 PUSH0 KECCAK256 DUP2 DUP2 SLOAD DUP2 LT PUSH2 0x3BE1 JUMPI PUSH0 DUP1 REVERT JUMPDEST SWAP1 PUSH0 MSTORE PUSH1 0x20 PUSH0 KECCAK256 SWAP1 PUSH1 0x8 MUL ADD PUSH0 SWAP2 POP SWAP2 POP POP DUP1 PUSH0 ADD DUP1 SLOAD PUSH2 0x3C01 SWAP1 PUSH2 0x4C2F JUMP JUMPDEST DUP1 PUSH1 0x1F ADD PUSH1 0x20 DUP1 SWAP2 DIV MUL PUSH1 0x20 ADD PUSH1 0x40 MLOAD SWAP1 DUP2 ADD PUSH1 0x40 MSTORE DUP1 SWAP3 SWAP2 SWAP1 DUP2 DUP2 MSTORE PUSH1 0x20 ADD DUP3 DUP1 SLOAD PUSH2 0x3C2D SWAP1 PUSH2 0x4C2F JUMP JUMPDEST DUP1 ISZERO PUSH2 0x3C78 JUMPI DUP1 PUSH1 0x1F LT PUSH2 0x3C4F JUMPI PUSH2 0x100 DUP1 DUP4 SLOAD DIV MUL DUP4 MSTORE SWAP2 PUSH1 0x20 ADD SWAP2 PUSH2 0x3C78 JUMP JUMPDEST DUP3 ADD SWAP2 SWAP1 PUSH0 MSTORE PUSH1 0x20 PUSH0 KECCAK256 SWAP1 JUMPDEST DUP2 SLOAD DUP2 MSTORE SWAP1 PUSH1 0x1 ADD SWAP1 PUSH1 0x20 ADD DUP1 DUP4 GT PUSH2 0x3C5B JUMPI DUP3 SWAP1 SUB PUSH1 0x1F AND DUP3 ADD SWAP2 JUMPDEST POP POP POP PUSH1 0x1 DUP5 ADD SLOAD PUSH1 0x2 DUP6 ADD SLOAD PUSH1 0x3 DUP7 ADD DUP1 SLOAD SWAP6 SWAP7 PUSH1 0x1 PUSH1 0x1 PUSH1 0xA0 SHL SUB SWAP4 DUP5 AND SWAP7 SWAP3 SWAP1 SWAP4 AND SWAP5 POP SWAP2 SWAP3 POP PUSH2 0x3CAB SWAP1 PUSH2 0x4C2F JUMP JUMPDEST DUP1 PUSH1 0x1F ADD PUSH1 0x20 DUP1 SWAP2 DIV MUL PUSH1 0x20 ADD PUSH1 0x40 MLOAD SWAP1 DUP2 ADD PUSH1 0x40 MSTORE DUP1 SWAP3 SWAP2 SWAP1 DUP2 DUP2 MSTORE PUSH1 0x20 ADD DUP3 DUP1 SLOAD PUSH2 0x3CD7 SWAP1 PUSH2 0x4C2F JUMP JUMPDEST DUP1 ISZERO PUSH2 0x3D22 JUMPI DUP1 PUSH1 0x1F LT PUSH2 0x3CF9 JUMPI PUSH2 0x100 DUP1 DUP4 SLOAD DIV MUL DUP4 MSTORE SWAP2 PUSH1 0x20 ADD SWAP2 PUSH2 0x3D22 JUMP JUMPDEST DUP3 ADD SWAP2 SWAP1 PUSH0 MSTORE PUSH1 0x20 PUSH0 KECCAK256 SWAP1 JUMPDEST DUP2 SLOAD DUP2 MSTORE SWAP1 PUSH1 0x1 ADD SWAP1 PUSH1 0x20 ADD DUP1 DUP4 GT PUSH2 0x3D05 JUMPI DUP3 SWAP1 SUB PUSH1 0x1F AND DUP3 ADD SWAP2 JUMPDEST POP POP POP POP POP SWAP1 DUP1 PUSH1 0x4 ADD DUP1 SLOAD PUSH2 0x3D37 SWAP1 PUSH2 0x4C2F JUMP JUMPDEST DUP1 PUSH1 0x1F ADD PUSH1 0x20 DUP1 SWAP2 DIV MUL PUSH1 0x20 ADD PUSH1 0x40 MLOAD SWAP1 DUP2 ADD PUSH1 0x40 MSTORE DUP1 SWAP3 SWAP2 SWAP1 DUP2 DUP2 MSTORE PUSH1 0x20 ADD DUP3 DUP1 SLOAD PUSH2 0x3D63 SWAP1 PUSH2 0x4C2F JUMP JUMPDEST DUP1 ISZERO PUSH2 0x3DAE JUMPI DUP1 PUSH1 0x1F LT PUSH2 0x3D85 JUMPI PUSH2 0x100 DUP1 DUP4 SLOAD DIV MUL DUP4 MSTORE SWAP2 PUSH1 0x20 ADD SWAP2 PUSH2 0x3DAE JUMP JUMPDEST DUP3 ADD SWAP2 SWAP1 PUSH0 MSTORE PUSH1 0x20 PUSH0 KECCAK256 SWAP1 JUMPDEST DUP2 SLOAD DUP2 MSTORE SWAP1 PUSH1 0x1 ADD SWAP1 PUSH1 0x20 ADD DUP1 DUP4 GT PUSH2 0x3D91 JUMPI DUP3 SWAP1 SUB PUSH1 0x1F AND DUP3 ADD SWAP2 JUMPDEST POP POP POP POP POP SWAP1 DUP1 PUSH1 0x5 ADD DUP1 SLOAD PUSH2 0x3DC3 SWAP1 PUSH2 0x4C2F JUMP JUMPDEST DUP1 PUSH1 0x1F ADD PUSH1 0x20 DUP1 SWAP2 DIV MUL PUSH1 0x20 ADD PUSH1 0x40 MLOAD SWAP1 DUP2 ADD PUSH1 0x40 MSTORE DUP1 SWAP3 SWAP2 SWAP1 DUP2 DUP2 MSTORE PUSH1 0x20 ADD DUP3 DUP1 SLOAD PUSH2 0x3DEF SWAP1 PUSH2 0x4C2F JUMP JUMPDEST DUP1 ISZERO PUSH2 0x3E3A JUMPI DUP1 PUSH1 0x1F LT PUSH2 0x3E11 JUMPI PUSH2 0x100 DUP1 DUP4 SLOAD DIV MUL DUP4 MSTORE SWAP2 PUSH1 0x20 ADD SWAP2 PUSH2 0x3E3A JUMP JUMPDEST DUP3 ADD SWAP2 SWAP1 PUSH0 MSTORE PUSH1 0x20 PUSH0 KECCAK256 SWAP1 JUMPDEST DUP2 SLOAD DUP2 MSTORE SWAP1 PUSH1 0x1 ADD SWAP1 PUSH1 0x20 ADD DUP1 DUP4 GT PUSH2 0x3E1D JUMPI DUP3 SWAP1 SUB PUSH1 0x1F AND DUP3 ADD SWAP2 JUMPDEST POP POP POP POP POP SWAP1 DUP1 PUSH1 0x6 ADD DUP1 SLOAD PUSH2 0x3E4F SWAP1 PUSH2 0x4C2F JUMP JUMPDEST DUP1 PUSH1 0x1F ADD PUSH1 0x20 DUP1 SWAP2 DIV MUL PUSH1 0x20 ADD PUSH1 0x40 MLOAD SWAP1 DUP2 ADD PUSH1 0x40 MSTORE DUP1 SWAP3 SWAP2 SWAP1 DUP2 DUP2 MSTORE PUSH1 0x20 ADD DUP3 DUP1 SLOAD PUSH2 0x3E7B SWAP1 PUSH2 0x4C2F JUMP JUMPDEST DUP1 ISZERO PUSH2 0x3EC6 JUMPI DUP1 PUSH1 0x1F LT PUSH2 0x3E9D JUMPI PUSH2 0x100 DUP1 DUP4 SLOAD DIV MUL DUP4 MSTORE SWAP2 PUSH1 0x20 ADD SWAP2 PUSH2 0x3EC6 JUMP JUMPDEST DUP3 ADD SWAP2 SWAP1 PUSH0 MSTORE PUSH1 0x20 PUSH0 KECCAK256 SWAP1 JUMPDEST DUP2 SLOAD DUP2 MSTORE SWAP1 PUSH1 0x1 ADD SWAP1 PUSH1 0x20 ADD DUP1 DUP4 GT PUSH2 0x3EA9 JUMPI DUP3 SWAP1 SUB PUSH1 0x1F AND DUP3 ADD SWAP2 JUMPDEST POP POP POP POP POP SWAP1 DUP1 PUSH1 0x7 ADD DUP1 SLOAD PUSH2 0x3879 SWAP1 PUSH2 0x4C2F JUMP JUMPDEST DUP1 CALLDATALOAD PUSH1 0x1 PUSH1 0x1 PUSH1 0xA0 SHL SUB DUP2 AND DUP2 EQ PUSH2 0xE75 JUMPI PUSH0 DUP1 REVERT JUMPDEST PUSH0 PUSH1 0x20 DUP3 DUP5 SUB SLT ISZERO PUSH2 0x3F01 JUMPI PUSH0 DUP1 REVERT JUMPDEST PUSH2 0x959 DUP3 PUSH2 0x3EDB JUMP JUMPDEST PUSH4 0x4E487B71 PUSH1 0xE0 SHL PUSH0 MSTORE PUSH1 0x41 PUSH1 0x4 MSTORE PUSH1 0x24 PUSH0 REVERT JUMPDEST PUSH0 DUP3 PUSH1 0x1F DUP4 ADD SLT PUSH2 0x3F2D JUMPI PUSH0 DUP1 REVERT JUMPDEST DUP2 CALLDATALOAD PUSH8 0xFFFFFFFFFFFFFFFF DUP1 DUP3 GT ISZERO PUSH2 0x3F48 JUMPI PUSH2 0x3F48 PUSH2 0x3F0A JUMP JUMPDEST PUSH1 0x40 MLOAD PUSH1 0x1F DUP4 ADD PUSH1 0x1F NOT SWAP1 DUP2 AND PUSH1 0x3F ADD AND DUP2 ADD SWAP1 DUP3 DUP3 GT DUP2 DUP4 LT OR ISZERO PUSH2 0x3F70 JUMPI PUSH2 0x3F70 PUSH2 0x3F0A JUMP JUMPDEST DUP2 PUSH1 0x40 MSTORE DUP4 DUP2 MSTORE DUP7 PUSH1 0x20 DUP6 DUP9 ADD ADD GT ISZERO PUSH2 0x3F88 JUMPI PUSH0 DUP1 REVERT JUMPDEST DUP4 PUSH1 0x20 DUP8 ADD PUSH1 0x20 DUP4 ADD CALLDATACOPY PUSH0 PUSH1 0x20 DUP6 DUP4 ADD ADD MSTORE DUP1 SWAP5 POP POP POP POP POP SWAP3 SWAP2 POP POP JUMP JUMPDEST PUSH0 DUP1 PUSH0 DUP1 PUSH0 DUP1 PUSH0 DUP1 PUSH2 0x100 DUP10 DUP12 SUB SLT ISZERO PUSH2 0x3FBF JUMPI PUSH0 DUP1 REVERT JUMPDEST DUP9 CALLDATALOAD PUSH8 0xFFFFFFFFFFFFFFFF DUP1 DUP3 GT ISZERO PUSH2 0x3FD6 JUMPI PUSH0 DUP1 REVERT JUMPDEST PUSH2 0x3FE2 DUP13 DUP4 DUP14 ADD PUSH2 0x3F1E JUMP JUMPDEST SWAP10 POP PUSH1 0x20 DUP12 ADD CALLDATALOAD SWAP2 POP DUP1 DUP3 GT ISZERO PUSH2 0x3FF7 JUMPI PUSH0 DUP1 REVERT JUMPDEST PUSH2 0x4003 DUP13 DUP4 DUP14 ADD PUSH2 0x3F1E JUMP JUMPDEST SWAP9 POP PUSH2 0x4011 PUSH1 0x40 DUP13 ADD PUSH2 0x3EDB JUMP JUMPDEST SWAP8 POP PUSH1 0x60 DUP12 ADD CALLDATALOAD SWAP2 POP DUP1 DUP3 GT ISZERO PUSH2 0x4026 JUMPI PUSH0 DUP1 REVERT JUMPDEST PUSH2 0x4032 DUP13 DUP4 DUP14 ADD PUSH2 0x3F1E JUMP JUMPDEST SWAP7 POP PUSH1 0x80 DUP12 ADD CALLDATALOAD SWAP2 POP DUP1 DUP3 GT ISZERO PUSH2 0x4047 JUMPI PUSH0 DUP1 REVERT JUMPDEST PUSH2 0x4053 DUP13 DUP4 DUP14 ADD PUSH2 0x3F1E JUMP JUMPDEST SWAP6 POP PUSH1 0xA0 DUP12 ADD CALLDATALOAD SWAP2 POP DUP1 DUP3 GT ISZERO PUSH2 0x4068 JUMPI PUSH0 DUP1 REVERT JUMPDEST POP PUSH2 0x4075 DUP12 DUP3 DUP13 ADD PUSH2 0x3F1E JUMP JUMPDEST SWAP4 POP POP PUSH1 0xC0 DUP10 ADD CALLDATALOAD SWAP2 POP PUSH1 0xE0 DUP10 ADD CALLDATALOAD SWAP1 POP SWAP3 SWAP6 SWAP9 POP SWAP3 SWAP6 SWAP9 SWAP1 SWAP4 SWAP7 POP JUMP JUMPDEST PUSH0 PUSH1 0x20 DUP3 DUP5 SUB SLT ISZERO PUSH2 0x40A3 JUMPI PUSH0 DUP1 REVERT JUMPDEST POP CALLDATALOAD SWAP2 SWAP1 POP JUMP JUMPDEST PUSH0 DUP1 PUSH0 DUP1 PUSH0 DUP1 PUSH1 0xC0 DUP8 DUP10 SUB SLT ISZERO PUSH2 0x40BF JUMPI PUSH0 DUP1 REVERT JUMPDEST DUP7 CALLDATALOAD PUSH8 0xFFFFFFFFFFFFFFFF DUP1 DUP3 GT ISZERO PUSH2 0x40D6 JUMPI PUSH0 DUP1 REVERT JUMPDEST PUSH2 0x40E2 DUP11 DUP4 DUP12 ADD PUSH2 0x3F1E JUMP JUMPDEST SWAP8 POP PUSH2 0x40F0 PUSH1 0x20 DUP11 ADD PUSH2 0x3EDB JUMP JUMPDEST SWAP7 POP PUSH1 0x40 DUP10 ADD CALLDATALOAD SWAP2 POP DUP1 DUP3 GT ISZERO PUSH2 0x4105 JUMPI PUSH0 DUP1 REVERT JUMPDEST PUSH2 0x4111 DUP11 DUP4 DUP12 ADD PUSH2 0x3F1E JUMP JUMPDEST SWAP6 POP PUSH1 0x60 DUP10 ADD CALLDATALOAD SWAP5 POP PUSH1 0x80 DUP10 ADD CALLDATALOAD SWAP4 POP PUSH1 0xA0 DUP10 ADD CALLDATALOAD SWAP2 POP DUP1 DUP3 GT ISZERO PUSH2 0x4134 JUMPI PUSH0 DUP1 REVERT JUMPDEST POP PUSH2 0x4141 DUP10 DUP3 DUP11 ADD PUSH2 0x3F1E JUMP JUMPDEST SWAP2 POP POP SWAP3 SWAP6 POP SWAP3 SWAP6 POP SWAP3 SWAP6 JUMP JUMPDEST PUSH0 DUP2 MLOAD DUP1 DUP5 MSTORE PUSH0 JUMPDEST DUP2 DUP2 LT ISZERO PUSH2 0x4172 JUMPI PUSH1 0x20 DUP2 DUP6 ADD DUP2 ADD MLOAD DUP7 DUP4 ADD DUP3 ADD MSTORE ADD PUSH2 0x4156 JUMP JUMPDEST POP PUSH0 PUSH1 0x20 DUP3 DUP7 ADD ADD MSTORE PUSH1 0x20 PUSH1 0x1F NOT PUSH1 0x1F DUP4 ADD AND DUP6 ADD ADD SWAP2 POP POP SWAP3 SWAP2 POP POP JUMP JUMPDEST PUSH0 PUSH2 0x100 DUP1 DUP4 MSTORE PUSH2 0x41A4 DUP2 DUP5 ADD DUP13 PUSH2 0x414E JUMP JUMPDEST SWAP1 POP DUP3 DUP2 SUB PUSH1 0x20 DUP5 ADD MSTORE PUSH2 0x41B8 DUP2 DUP12 PUSH2 0x414E JUMP JUMPDEST PUSH1 0x1 PUSH1 0x1 PUSH1 0xA0 SHL SUB DUP11 AND PUSH1 0x40 DUP6 ADD MSTORE DUP4 DUP2 SUB PUSH1 0x60 DUP6 ADD MSTORE SWAP1 POP PUSH2 0x41DB DUP2 DUP10 PUSH2 0x414E JUMP JUMPDEST SWAP1 POP DUP3 DUP2 SUB PUSH1 0x80 DUP5 ADD MSTORE PUSH2 0x41EF DUP2 DUP9 PUSH2 0x414E JUMP JUMPDEST SWAP1 POP DUP3 DUP2 SUB PUSH1 0xA0 DUP5 ADD MSTORE PUSH2 0x4203 DUP2 DUP8 PUSH2 0x414E JUMP JUMPDEST PUSH1 0xC0 DUP5 ADD SWAP6 SWAP1 SWAP6 MSTORE POP POP PUSH1 0xE0 ADD MSTORE SWAP7 SWAP6 POP POP POP POP POP POP JUMP JUMPDEST DUP1 CALLDATALOAD DUP1 ISZERO ISZERO DUP2 EQ PUSH2 0xE75 JUMPI PUSH0 DUP1 REVERT JUMPDEST PUSH0 DUP1 PUSH0 DUP1 PUSH0 DUP1 PUSH0 DUP1 PUSH2 0x100 DUP10 DUP12 SUB SLT ISZERO PUSH2 0x4242 JUMPI PUSH0 DUP1 REVERT JUMPDEST DUP9 CALLDATALOAD PUSH8 0xFFFFFFFFFFFFFFFF DUP1 DUP3 GT ISZERO PUSH2 0x4259 JUMPI PUSH0 DUP1 REVERT JUMPDEST PUSH2 0x4265 DUP13 DUP4 DUP14 ADD PUSH2 0x3F1E JUMP JUMPDEST SWAP10 POP PUSH2 0x4273 PUSH1 0x20 DUP13 ADD PUSH2 0x3EDB JUMP JUMPDEST SWAP9 POP PUSH2 0x4281 PUSH1 0x40 DUP13 ADD PUSH2 0x421B JUMP JUMPDEST SWAP8 POP PUSH2 0x428F PUSH1 0x60 DUP13 ADD PUSH2 0x421B JUMP JUMPDEST SWAP7 POP PUSH2 0x429D PUSH1 0x80 DUP13 ADD PUSH2 0x421B JUMP JUMPDEST SWAP6 POP PUSH1 0xA0 DUP12 ADD CALLDATALOAD SWAP2 POP DUP1 DUP3 GT ISZERO PUSH2 0x42B2 JUMPI PUSH0 DUP1 REVERT JUMPDEST PUSH2 0x42BE DUP13 DUP4 DUP14 ADD PUSH2 0x3F1E JUMP JUMPDEST SWAP5 POP PUSH1 0xC0 DUP12 ADD CALLDATALOAD SWAP2 POP DUP1 DUP3 GT ISZERO PUSH2 0x42D3 JUMPI PUSH0 DUP1 REVERT JUMPDEST PUSH2 0x42DF DUP13 DUP4 DUP14 ADD PUSH2 0x3F1E JUMP JUMPDEST SWAP4 POP PUSH1 0xE0 DUP12 ADD CALLDATALOAD SWAP2 POP DUP1 DUP3 GT ISZERO PUSH2 0x42F4 JUMPI PUSH0 DUP1 REVERT JUMPDEST POP PUSH2 0x4301 DUP12 DUP3 DUP13 ADD PUSH2 0x3F1E JUMP JUMPDEST SWAP2 POP POP SWAP3 SWAP6 SWAP9 POP SWAP3 SWAP6 SWAP9 SWAP1 SWAP4 SWAP7 POP JUMP JUMPDEST PUSH0 DUP1 PUSH0 DUP1 PUSH0 PUSH1 0xA0 DUP7 DUP9 SUB SLT ISZERO PUSH2 0x4325 JUMPI PUSH0 DUP1 REVERT JUMPDEST PUSH2 0x432E DUP7 PUSH2 0x3EDB JUMP JUMPDEST SWAP5 POP PUSH1 0x20 DUP7 ADD CALLDATALOAD PUSH8 0xFFFFFFFFFFFFFFFF DUP1 DUP3 GT ISZERO PUSH2 0x434A JUMPI PUSH0 DUP1 REVERT JUMPDEST PUSH2 0x4356 DUP10 DUP4 DUP11 ADD PUSH2 0x3F1E JUMP JUMPDEST SWAP6 POP PUSH1 0x40 DUP9 ADD CALLDATALOAD SWAP2 POP DUP1 DUP3 GT ISZERO PUSH2 0x436B JUMPI PUSH0 DUP1 REVERT JUMPDEST PUSH2 0x4377 DUP10 DUP4 DUP11 ADD PUSH2 0x3F1E JUMP JUMPDEST SWAP5 POP PUSH1 0x60 DUP9 ADD CALLDATALOAD SWAP4 POP PUSH1 0x80 DUP9 ADD CALLDATALOAD SWAP2 POP DUP1 DUP3 GT ISZERO PUSH2 0x4393 JUMPI PUSH0 DUP1 REVERT JUMPDEST POP PUSH2 0x43A0 DUP9 DUP3 DUP10 ADD PUSH2 0x3F1E JUMP JUMPDEST SWAP2 POP POP SWAP3 SWAP6 POP SWAP3 SWAP6 SWAP1 SWAP4 POP JUMP JUMPDEST PUSH0 PUSH1 0x20 DUP1 DUP4 ADD DUP2 DUP5 MSTORE DUP1 DUP6 MLOAD DUP1 DUP4 MSTORE PUSH1 0x40 SWAP3 POP DUP3 DUP7 ADD SWAP2 POP DUP3 DUP2 PUSH1 0x5 SHL DUP8 ADD ADD DUP5 DUP9 ADD PUSH0 JUMPDEST DUP4 DUP2 LT ISZERO PUSH2 0x4411 JUMPI DUP9 DUP4 SUB PUSH1 0x3F NOT ADD DUP6 MSTORE DUP2 MLOAD DUP1 MLOAD DUP5 MSTORE DUP8 ADD MLOAD DUP8 DUP5 ADD DUP8 SWAP1 MSTORE PUSH2 0x43FE DUP8 DUP6 ADD DUP3 PUSH2 0x414E JUMP JUMPDEST SWAP6 DUP9 ADD SWAP6 SWAP4 POP POP SWAP1 DUP7 ADD SWAP1 PUSH1 0x1 ADD PUSH2 0x43D2 JUMP JUMPDEST POP SWAP1 SWAP9 SWAP8 POP POP POP POP POP POP POP POP JUMP JUMPDEST PUSH0 DUP1 PUSH1 0x40 DUP4 DUP6 SUB SLT ISZERO PUSH2 0x4430 JUMPI PUSH0 DUP1 REVERT JUMPDEST PUSH2 0x4439 DUP4 PUSH2 0x3EDB JUMP JUMPDEST SWAP5 PUSH1 0x20 SWAP4 SWAP1 SWAP4 ADD CALLDATALOAD SWAP4 POP POP POP JUMP JUMPDEST DUP3 DUP2 MSTORE PUSH1 0x40 PUSH1 0x20 DUP3 ADD MSTORE PUSH0 PUSH2 0x445F PUSH1 0x40 DUP4 ADD DUP5 PUSH2 0x414E JUMP JUMPDEST SWAP5 SWAP4 POP POP POP POP JUMP JUMPDEST PUSH1 0xC0 DUP2 MSTORE PUSH0 PUSH2 0x4479 PUSH1 0xC0 DUP4 ADD DUP10 PUSH2 0x414E JUMP JUMPDEST PUSH1 0x1 PUSH1 0x1 PUSH1 0xA0 SHL SUB DUP9 AND PUSH1 0x20 DUP5 ADD MSTORE DUP3 DUP2 SUB PUSH1 0x40 DUP5 ADD MSTORE PUSH2 0x449A DUP2 DUP9 PUSH2 0x414E JUMP JUMPDEST SWAP1 POP DUP6 PUSH1 0x60 DUP5 ADD MSTORE DUP5 PUSH1 0x80 DUP5 ADD MSTORE DUP3 DUP2 SUB PUSH1 0xA0 DUP5 ADD MSTORE PUSH2 0x44BA DUP2 DUP6 PUSH2 0x414E JUMP JUMPDEST SWAP10 SWAP9 POP POP POP POP POP POP POP POP POP JUMP JUMPDEST PUSH1 0x20 DUP2 MSTORE PUSH0 DUP3 MLOAD PUSH1 0xC0 PUSH1 0x20 DUP5 ADD MSTORE PUSH2 0x44E2 PUSH1 0xE0 DUP5 ADD DUP3 PUSH2 0x414E JUMP JUMPDEST SWAP1 POP PUSH1 0x1 DUP1 PUSH1 0xA0 SHL SUB PUSH1 0x20 DUP6 ADD MLOAD AND PUSH1 0x40 DUP5 ADD MSTORE PUSH1 0x40 DUP5 ADD MLOAD PUSH1 0x1F NOT DUP1 DUP6 DUP5 SUB ADD PUSH1 0x60 DUP7 ADD MSTORE PUSH2 0x4512 DUP4 DUP4 PUSH2 0x414E JUMP JUMPDEST SWAP3 POP PUSH1 0x60 DUP7 ADD MLOAD PUSH1 0x80 DUP7 ADD MSTORE PUSH1 0x80 DUP7 ADD MLOAD PUSH1 0xA0 DUP7 ADD MSTORE PUSH1 0xA0 DUP7 ADD MLOAD SWAP2 POP DUP1 DUP6 DUP5 SUB ADD PUSH1 0xC0 DUP7 ADD MSTORE POP PUSH2 0x4544 DUP3 DUP3 PUSH2 0x414E JUMP JUMPDEST SWAP6 SWAP5 POP POP POP POP POP JUMP JUMPDEST PUSH0 DUP1 PUSH1 0x40 DUP4 DUP6 SUB SLT ISZERO PUSH2 0x455E JUMPI PUSH0 DUP1 REVERT JUMPDEST DUP3 CALLDATALOAD PUSH8 0xFFFFFFFFFFFFFFFF DUP2 GT ISZERO PUSH2 0x4574 JUMPI PUSH0 DUP1 REVERT JUMPDEST PUSH2 0x4580 DUP6 DUP3 DUP7 ADD PUSH2 0x3F1E JUMP JUMPDEST SWAP3 POP POP PUSH2 0x458F PUSH1 0x20 DUP5 ADD PUSH2 0x3EDB JUMP JUMPDEST SWAP1 POP SWAP3 POP SWAP3 SWAP1 POP JUMP JUMPDEST PUSH0 PUSH1 0x20 DUP1 DUP4 ADD DUP2 DUP5 MSTORE DUP1 DUP6 MLOAD DUP1 DUP4 MSTORE PUSH1 0x40 SWAP3 POP DUP3 DUP7 ADD SWAP2 POP DUP3 DUP2 PUSH1 0x5 SHL DUP8 ADD ADD DUP5 DUP9 ADD PUSH0 JUMPDEST DUP4 DUP2 LT ISZERO PUSH2 0x4411 JUMPI PUSH1 0x3F NOT DUP10 DUP5 SUB ADD DUP6 MSTORE DUP2 MLOAD PUSH2 0x100 DUP2 MLOAD DUP2 DUP7 MSTORE PUSH2 0x45E4 DUP3 DUP8 ADD DUP3 PUSH2 0x414E JUMP JUMPDEST SWAP2 POP POP DUP9 DUP3 ADD MLOAD PUSH2 0x45FF DUP11 DUP8 ADD DUP3 PUSH1 0x1 PUSH1 0x1 PUSH1 0xA0 SHL SUB AND SWAP1 MSTORE JUMP JUMPDEST POP DUP8 DUP3 ADD MLOAD PUSH1 0x1 PUSH1 0x1 PUSH1 0xA0 SHL SUB AND DUP6 DUP10 ADD MSTORE PUSH1 0x60 DUP1 DUP4 ADD MLOAD DUP7 DUP4 SUB DUP3 DUP9 ADD MSTORE PUSH2 0x4628 DUP4 DUP3 PUSH2 0x414E JUMP JUMPDEST SWAP3 POP POP POP PUSH1 0x80 DUP1 DUP4 ADD MLOAD DUP7 DUP4 SUB DUP3 DUP9 ADD MSTORE PUSH2 0x4643 DUP4 DUP3 PUSH2 0x414E JUMP JUMPDEST SWAP3 POP POP POP PUSH1 0xA0 DUP1 DUP4 ADD MLOAD DUP7 DUP4 SUB DUP3 DUP9 ADD MSTORE PUSH2 0x465E DUP4 DUP3 PUSH2 0x414E JUMP JUMPDEST SWAP3 POP POP POP PUSH1 0xC0 DUP1 DUP4 ADD MLOAD DUP7 DUP4 SUB DUP3 DUP9 ADD MSTORE PUSH2 0x4679 DUP4 DUP3 PUSH2 0x414E JUMP JUMPDEST SWAP3 POP POP POP PUSH1 0xE0 DUP1 DUP4 ADD MLOAD SWAP3 POP DUP6 DUP3 SUB DUP2 DUP8 ADD MSTORE POP PUSH2 0x4697 DUP2 DUP4 PUSH2 0x414E JUMP JUMPDEST SWAP7 DUP10 ADD SWAP7 SWAP5 POP POP POP SWAP1 DUP7 ADD SWAP1 PUSH1 0x1 ADD PUSH2 0x45BD JUMP JUMPDEST PUSH1 0x1 PUSH1 0x1 PUSH1 0xA0 SHL SUB DUP7 AND DUP2 MSTORE PUSH1 0xA0 PUSH1 0x20 DUP3 ADD DUP2 SWAP1 MSTORE PUSH0 SWAP1 PUSH2 0x46CE SWAP1 DUP4 ADD DUP8 PUSH2 0x414E JUMP JUMPDEST DUP3 DUP2 SUB PUSH1 0x40 DUP5 ADD MSTORE PUSH2 0x46E0 DUP2 DUP8 PUSH2 0x414E JUMP JUMPDEST SWAP1 POP DUP3 DUP2 SUB PUSH1 0x60 DUP5 ADD MSTORE PUSH2 0x46F4 DUP2 DUP7 PUSH2 0x414E JUMP JUMPDEST SWAP2 POP POP DUP3 PUSH1 0x80 DUP4 ADD MSTORE SWAP7 SWAP6 POP POP POP POP POP POP JUMP JUMPDEST PUSH0 DUP1 PUSH0 DUP1 PUSH0 DUP1 PUSH0 DUP1 PUSH2 0x100 DUP10 DUP12 SUB SLT ISZERO PUSH2 0x471F JUMPI PUSH0 DUP1 REVERT JUMPDEST DUP9 CALLDATALOAD PUSH8 0xFFFFFFFFFFFFFFFF DUP1 DUP3 GT ISZERO PUSH2 0x4736 JUMPI PUSH0 DUP1 REVERT JUMPDEST PUSH2 0x4742 DUP13 DUP4 DUP14 ADD PUSH2 0x3F1E JUMP JUMPDEST SWAP10 POP PUSH2 0x4750 PUSH1 0x20 DUP13 ADD PUSH2 0x3EDB JUMP JUMPDEST SWAP9 POP PUSH2 0x475E PUSH1 0x40 DUP13 ADD PUSH2 0x3EDB JUMP JUMPDEST SWAP8 POP PUSH1 0x60 DUP12 ADD CALLDATALOAD SWAP2 POP DUP1 DUP3 GT ISZERO PUSH2 0x4773 JUMPI PUSH0 DUP1 REVERT JUMPDEST PUSH2 0x477F DUP13 DUP4 DUP14 ADD PUSH2 0x3F1E JUMP JUMPDEST SWAP7 POP PUSH1 0x80 DUP12 ADD CALLDATALOAD SWAP2 POP DUP1 DUP3 GT ISZERO PUSH2 0x4794 JUMPI PUSH0 DUP1 REVERT JUMPDEST PUSH2 0x429D DUP13 DUP4 DUP14 ADD PUSH2 0x3F1E JUMP JUMPDEST PUSH0 PUSH2 0x100 DUP3 MLOAD DUP2 DUP6 MSTORE PUSH2 0x47B5 DUP3 DUP7 ADD DUP3 PUSH2 0x414E JUMP JUMPDEST SWAP2 POP POP PUSH1 0x20 DUP4 ADD MLOAD PUSH2 0x47D2 PUSH1 0x20 DUP7 ADD DUP3 PUSH1 0x1 PUSH1 0x1 PUSH1 0xA0 SHL SUB AND SWAP1 MSTORE JUMP JUMPDEST POP PUSH1 0x40 DUP4 ADD MLOAD PUSH2 0x47E6 PUSH1 0x40 DUP7 ADD DUP3 ISZERO ISZERO SWAP1 MSTORE JUMP JUMPDEST POP PUSH1 0x60 DUP4 ADD MLOAD PUSH2 0x47FA PUSH1 0x60 DUP7 ADD DUP3 ISZERO ISZERO SWAP1 MSTORE JUMP JUMPDEST POP PUSH1 0x80 DUP4 ADD MLOAD PUSH2 0x480E PUSH1 0x80 DUP7 ADD DUP3 ISZERO ISZERO SWAP1 MSTORE JUMP JUMPDEST POP PUSH1 0xA0 DUP4 ADD MLOAD DUP5 DUP3 SUB PUSH1 0xA0 DUP7 ADD MSTORE PUSH2 0x4826 DUP3 DUP3 PUSH2 0x414E JUMP JUMPDEST SWAP2 POP POP PUSH1 0xC0 DUP4 ADD MLOAD DUP5 DUP3 SUB PUSH1 0xC0 DUP7 ADD MSTORE PUSH2 0x4840 DUP3 DUP3 PUSH2 0x414E JUMP JUMPDEST SWAP2 POP POP PUSH1 0xE0 DUP4 ADD MLOAD DUP5 DUP3 SUB PUSH1 0xE0 DUP7 ADD MSTORE PUSH2 0x4544 DUP3 DUP3 PUSH2 0x414E JUMP JUMPDEST PUSH1 0x40 DUP2 MSTORE PUSH0 DUP4 MLOAD PUSH2 0x100 DUP1 PUSH1 0x40 DUP6 ADD MSTORE PUSH2 0x4878 PUSH2 0x140 DUP6 ADD DUP4 PUSH2 0x414E JUMP JUMPDEST SWAP2 POP PUSH1 0x20 DUP7 ADD MLOAD PUSH1 0x3F NOT DUP1 DUP7 DUP6 SUB ADD PUSH1 0x60 DUP8 ADD MSTORE PUSH2 0x4896 DUP5 DUP4 PUSH2 0x414E JUMP JUMPDEST SWAP4 POP PUSH1 0x40 DUP9 ADD MLOAD SWAP2 POP PUSH2 0x48B4 PUSH1 0x80 DUP8 ADD DUP4 PUSH1 0x1 PUSH1 0x1 PUSH1 0xA0 SHL SUB AND SWAP1 MSTORE JUMP JUMPDEST PUSH1 0x60 DUP9 ADD MLOAD SWAP2 POP DUP1 DUP7 DUP6 SUB ADD PUSH1 0xA0 DUP8 ADD MSTORE PUSH2 0x48CF DUP5 DUP4 PUSH2 0x414E JUMP JUMPDEST SWAP4 POP PUSH1 0x80 DUP9 ADD MLOAD SWAP2 POP DUP1 DUP7 DUP6 SUB ADD PUSH1 0xC0 DUP8 ADD MSTORE PUSH2 0x48EC DUP5 DUP4 PUSH2 0x414E JUMP JUMPDEST SWAP4 POP PUSH1 0xA0 DUP9 ADD MLOAD SWAP2 POP DUP1 DUP7 DUP6 SUB ADD PUSH1 0xE0 DUP8 ADD MSTORE POP PUSH2 0x490A DUP4 DUP3 PUSH2 0x414E JUMP JUMPDEST SWAP3 POP POP PUSH1 0xC0 DUP7 ADD MLOAD DUP2 DUP6 ADD MSTORE POP PUSH1 0xE0 DUP6 ADD MLOAD PUSH2 0x120 DUP5 ADD MSTORE DUP3 DUP2 SUB PUSH1 0x20 DUP5 ADD MSTORE PUSH2 0x4544 DUP2 DUP6 PUSH2 0x47A0 JUMP JUMPDEST PUSH0 PUSH2 0x100 DUP1 DUP4 MSTORE PUSH2 0x4947 DUP2 DUP5 ADD DUP13 PUSH2 0x414E JUMP JUMPDEST PUSH1 0x1 PUSH1 0x1 PUSH1 0xA0 SHL SUB DUP12 AND PUSH1 0x20 DUP6 ADD MSTORE DUP10 ISZERO ISZERO PUSH1 0x40 DUP6 ADD MSTORE DUP9 ISZERO ISZERO PUSH1 0x60 DUP6 ADD MSTORE DUP8 ISZERO ISZERO PUSH1 0x80 DUP6 ADD MSTORE DUP4 DUP2 SUB PUSH1 0xA0 DUP6 ADD MSTORE SWAP1 POP PUSH2 0x4982 DUP2 DUP8 PUSH2 0x414E JUMP JUMPDEST SWAP1 POP DUP3 DUP2 SUB PUSH1 0xC0 DUP5 ADD MSTORE PUSH2 0x4996 DUP2 DUP7 PUSH2 0x414E JUMP JUMPDEST SWAP1 POP DUP3 DUP2 SUB PUSH1 0xE0 DUP5 ADD MSTORE PUSH2 0x49AA DUP2 DUP6 PUSH2 0x414E JUMP JUMPDEST SWAP12 SWAP11 POP POP POP POP POP POP POP POP POP POP POP JUMP JUMPDEST PUSH1 0x20 DUP1 DUP3 MSTORE DUP3 MLOAD PUSH1 0x1 PUSH1 0x1 PUSH1 0xA0 SHL SUB AND DUP3 DUP3 ADD MSTORE DUP3 ADD MLOAD PUSH1 0xA0 PUSH1 0x40 DUP4 ADD MSTORE PUSH0 SWAP1 PUSH2 0x49E6 PUSH1 0xC0 DUP5 ADD DUP3 PUSH2 0x414E JUMP JUMPDEST SWAP1 POP PUSH1 0x40 DUP5 ADD MLOAD PUSH1 0x1F NOT DUP1 DUP6 DUP5 SUB ADD PUSH1 0x60 DUP7 ADD MSTORE PUSH2 0x4A04 DUP4 DUP4 PUSH2 0x414E JUMP JUMPDEST SWAP3 POP PUSH1 0x60 DUP7 ADD MLOAD SWAP2 POP DUP1 DUP6 DUP5 SUB ADD PUSH1 0x80 DUP7 ADD MSTORE POP PUSH2 0x4A22 DUP3 DUP3 PUSH2 0x414E JUMP JUMPDEST SWAP2 POP POP PUSH1 0x80 DUP5 ADD MLOAD PUSH1 0xA0 DUP5 ADD MSTORE DUP1 SWAP2 POP POP SWAP3 SWAP2 POP POP JUMP JUMPDEST PUSH0 PUSH2 0x100 DUP1 DUP4 MSTORE PUSH2 0x4A4C DUP2 DUP5 ADD DUP13 PUSH2 0x414E JUMP JUMPDEST PUSH1 0x1 PUSH1 0x1 PUSH1 0xA0 SHL SUB DUP12 DUP2 AND PUSH1 0x20 DUP7 ADD MSTORE DUP11 AND PUSH1 0x40 DUP6 ADD MSTORE DUP4 DUP2 SUB PUSH1 0x60 DUP6 ADD MSTORE SWAP1 POP PUSH2 0x4A77 DUP2 DUP10 PUSH2 0x414E JUMP JUMPDEST SWAP1 POP DUP3 DUP2 SUB PUSH1 0x80 DUP5 ADD MSTORE PUSH2 0x4A8B DUP2 DUP9 PUSH2 0x414E JUMP JUMPDEST SWAP1 POP DUP3 DUP2 SUB PUSH1 0xA0 DUP5 ADD MSTORE PUSH2 0x4982 DUP2 DUP8 PUSH2 0x414E JUMP JUMPDEST PUSH1 0x20 DUP1 DUP3 MSTORE PUSH1 0x2A SWAP1 DUP3 ADD MSTORE PUSH32 0x41636365737365626C65206F6E6C7920666F72204F776E65727320616E642053 PUSH1 0x40 DUP3 ADD MSTORE PUSH10 0x757065724F776E657273 PUSH1 0xB0 SHL PUSH1 0x60 DUP3 ADD MSTORE PUSH1 0x80 ADD SWAP1 JUMP JUMPDEST PUSH1 0x20 DUP1 DUP3 MSTORE PUSH1 0x42 SWAP1 DUP3 ADD MSTORE PUSH32 0x4F6E6C792074686520446F63746F72732063616E2063616C6C20746869732066 PUSH1 0x40 DUP3 ADD MSTORE PUSH32 0x756E6374696F6E2064756520746F20736563757269747920726561736F6E7321 PUSH1 0x60 DUP3 ADD MSTORE PUSH2 0x2121 PUSH1 0xF0 SHL PUSH1 0x80 DUP3 ADD MSTORE PUSH1 0xA0 ADD SWAP1 JUMP JUMPDEST PUSH1 0x20 DUP1 DUP3 MSTORE PUSH1 0x26 SWAP1 DUP3 ADD MSTORE PUSH32 0x4B696E646C792066696C6C20616C6C20746865206D616E6461746F7279206665 PUSH1 0x40 DUP3 ADD MSTORE PUSH6 0x696C64732121 PUSH1 0xD0 SHL PUSH1 0x60 DUP3 ADD MSTORE PUSH1 0x80 ADD SWAP1 JUMP JUMPDEST PUSH1 0x20 DUP1 DUP3 MSTORE PUSH1 0x6C SWAP1 DUP3 ADD MSTORE PUSH32 0x496E636F72726563742050617469656E742077616C6C65742061646472657373 PUSH1 0x40 DUP3 ADD MSTORE PUSH32 0x206F72205468652050617469656E742064657461696C20666F72207468652061 PUSH1 0x60 DUP3 ADD MSTORE PUSH32 0x6464726573732070726F7669646564206E6F7420617661696C61626C6520696E PUSH1 0x80 DUP3 ADD MSTORE PUSH12 0x2074686520636861696E2121 PUSH1 0xA0 SHL PUSH1 0xA0 DUP3 ADD MSTORE PUSH1 0xC0 ADD SWAP1 JUMP JUMPDEST PUSH1 0x1 DUP2 DUP2 SHR SWAP1 DUP3 AND DUP1 PUSH2 0x4C43 JUMPI PUSH1 0x7F DUP3 AND SWAP2 POP JUMPDEST PUSH1 0x20 DUP3 LT DUP2 SUB PUSH2 0x4C61 JUMPI PUSH4 0x4E487B71 PUSH1 0xE0 SHL PUSH0 MSTORE PUSH1 0x22 PUSH1 0x4 MSTORE PUSH1 0x24 PUSH0 REVERT JUMPDEST POP SWAP2 SWAP1 POP JUMP JUMPDEST PUSH1 0x1F DUP3 GT ISZERO PUSH2 0x4CAC JUMPI PUSH0 DUP2 DUP2 MSTORE PUSH1 0x20 DUP2 KECCAK256 PUSH1 0x1F DUP6 ADD PUSH1 0x5 SHR DUP2 ADD PUSH1 0x20 DUP7 LT ISZERO PUSH2 0x4C8D JUMPI POP DUP1 JUMPDEST PUSH1 0x1F DUP6 ADD PUSH1 0x5 SHR DUP3 ADD SWAP2 POP JUMPDEST DUP2 DUP2 LT ISZERO PUSH2 0x2484 JUMPI DUP3 DUP2 SSTORE PUSH1 0x1 ADD PUSH2 0x4C99 JUMP JUMPDEST POP POP POP JUMP JUMPDEST DUP2 MLOAD PUSH8 0xFFFFFFFFFFFFFFFF DUP2 GT ISZERO PUSH2 0x4CCB JUMPI PUSH2 0x4CCB PUSH2 0x3F0A JUMP JUMPDEST PUSH2 0x4CDF DUP2 PUSH2 0x4CD9 DUP5 SLOAD PUSH2 0x4C2F JUMP JUMPDEST DUP5 PUSH2 0x4C67 JUMP JUMPDEST PUSH1 0x20 DUP1 PUSH1 0x1F DUP4 GT PUSH1 0x1 DUP2 EQ PUSH2 0x4D12 JUMPI PUSH0 DUP5 ISZERO PUSH2 0x4CFB JUMPI POP DUP6 DUP4 ADD MLOAD JUMPDEST PUSH0 NOT PUSH1 0x3 DUP7 SWAP1 SHL SHR NOT AND PUSH1 0x1 DUP6 SWAP1 SHL OR DUP6 SSTORE PUSH2 0x2484 JUMP JUMPDEST PUSH0 DUP6 DUP2 MSTORE PUSH1 0x20 DUP2 KECCAK256 PUSH1 0x1F NOT DUP7 AND SWAP2 JUMPDEST DUP3 DUP2 LT ISZERO PUSH2 0x4D40 JUMPI DUP9 DUP7 ADD MLOAD DUP3 SSTORE SWAP5 DUP5 ADD SWAP5 PUSH1 0x1 SWAP1 SWAP2 ADD SWAP1 DUP5 ADD PUSH2 0x4D21 JUMP JUMPDEST POP DUP6 DUP3 LT ISZERO PUSH2 0x4D5D JUMPI DUP8 DUP6 ADD MLOAD PUSH0 NOT PUSH1 0x3 DUP9 SWAP1 SHL PUSH1 0xF8 AND SHR NOT AND DUP2 SSTORE JUMPDEST POP POP POP POP POP PUSH1 0x1 SWAP1 DUP2 SHL ADD SWAP1 SSTORE POP JUMP JUMPDEST PUSH4 0x4E487B71 PUSH1 0xE0 SHL PUSH0 MSTORE PUSH1 0x11 PUSH1 0x4 MSTORE PUSH1 0x24 PUSH0 REVERT JUMPDEST DUP1 DUP3 ADD DUP1 DUP3 GT ISZERO PUSH2 0x1A54 JUMPI PUSH2 0x1A54 PUSH2 0x4D6D JUMP JUMPDEST DUP2 DUP2 SUB DUP2 DUP2 GT ISZERO PUSH2 0x1A54 JUMPI PUSH2 0x1A54 PUSH2 0x4D6D JUMP JUMPDEST PUSH1 0x20 DUP1 DUP3 MSTORE PUSH1 0x2F SWAP1 DUP3 ADD MSTORE PUSH32 0x4B696E646C792066696C6C20616C6C20746865206D616E6461746F7279206665 PUSH1 0x40 DUP3 ADD MSTORE PUSH15 0x696C64732070726F7065726C792121 PUSH1 0x88 SHL PUSH1 0x60 DUP3 ADD MSTORE PUSH1 0x80 ADD SWAP1 JUMP JUMPDEST PUSH1 0x20 DUP1 DUP3 MSTORE PUSH1 0x6C SWAP1 DUP3 ADD MSTORE PUSH32 0x496E636F727265637420446F63746F7227732077616C6C657420616464726573 PUSH1 0x40 DUP3 ADD MSTORE PUSH32 0x73206F722054686520446F63746F722064657461696C20666F72207468652061 PUSH1 0x60 DUP3 ADD MSTORE PUSH32 0x6464726573732070726F7669646564206E6F7420617661696C61626C6520696E PUSH1 0x80 DUP3 ADD MSTORE PUSH12 0x2074686520636861696E2121 PUSH1 0xA0 SHL PUSH1 0xA0 DUP3 ADD MSTORE PUSH1 0xC0 ADD SWAP1 JUMP JUMPDEST PUSH0 PUSH1 0x1 DUP3 ADD PUSH2 0x4E9F JUMPI PUSH2 0x4E9F PUSH2 0x4D6D JUMP JUMPDEST POP PUSH1 0x1 ADD SWAP1 JUMP JUMPDEST PUSH0 DUP3 PUSH2 0x4EC0 JUMPI PUSH4 0x4E487B71 PUSH1 0xE0 SHL PUSH0 MSTORE PUSH1 0x12 PUSH1 0x4 MSTORE PUSH1 0x24 PUSH0 REVERT JUMPDEST POP DIV SWAP1 JUMP JUMPDEST PUSH1 0x20 DUP1 DUP3 MSTORE PUSH1 0x1E SWAP1 DUP3 ADD MSTORE PUSH32 0x57616C6C657420416464726573732063616E6E6F7420626520656D7074790000 PUSH1 0x40 DUP3 ADD MSTORE PUSH1 0x60 ADD SWAP1 JUMP JUMPDEST PUSH1 0x20 DUP1 DUP3 MSTORE PUSH1 0x78 SWAP1 DUP3 ADD MSTORE PUSH32 0x496E636F727265637420446F63746F722077616C6C6574206164647265737320 PUSH1 0x40 DUP3 ADD MSTORE PUSH32 0x6F722054686520446F63746F722064657461696C20666F722074686520616464 PUSH1 0x60 DUP3 ADD MSTORE PUSH32 0x726573732070726F7669646564206973206E6F7420636F6D706C6574656C7920 PUSH1 0x80 DUP3 ADD MSTORE PUSH32 0x617661696C61626C6520696E2074686520636861696E21210000000000000000 PUSH1 0xA0 DUP3 ADD MSTORE PUSH1 0xC0 ADD SWAP1 JUMP JUMPDEST PUSH1 0x20 DUP1 DUP3 MSTORE PUSH1 0x27 SWAP1 DUP3 ADD MSTORE PUSH32 0x596F752068617665206E6F2061636365737320746F2066657463682074686520 PUSH1 0x40 DUP3 ADD MSTORE PUSH7 0x64657461696C73 PUSH1 0xC8 SHL PUSH1 0x60 DUP3 ADD MSTORE PUSH1 0x80 ADD SWAP1 JUMP INVALID LOG2 PUSH5 0x6970667358 0x22 SLT KECCAK256 0xCD SWAP8 STATICCALL DELEGATECALL GASLIMIT 0x29 0x4F 0xC SHL PUSH9 0xD5CD74EC2E78FF8016 PUSH4 0xE4737E86 0x5D 0x4B 0xEE PUSH9 0x94523B9E64736F6C63 NUMBER STOP ADDMOD ISZERO STOP CALLER "},"methodIdentifiers":{"AddDoctorAccess(address)":"686e1f1b","AddDoctorPersonalInfo(string,address,string,uint256,uint256,string)":"a49b1725","AddDoctorProfessionalInfo(address,string,string,uint256,string)":"92b3141d","AddPatientsMedicalDetails(string,address,bool,bool,bool,string,string,string)":"66adec56","AddPatientsPersonalDetails(string,string,address,string,string,string,uint256,uint256)":"a980702c","DeleteDoctorAccess(address)":"04028017","DoctorAccess(address)":"bb7d6b67","DoctorsPersonalInfo(address)":"75c6a96c","Doctors_ProfessionalDetails(address)":"bbcaa637","EditDoctorPersonalDetails(string,address,string,uint256,uint256,string)":"1a757712","EditDoctorProfessionalDetails(address,string,string,uint256,string)":"48e64d80","EditPatientPersonalDetails(string,string,address,string,string,string,uint256,uint256)":"0b103ee1","EditPatinetMedicalDetails(string,address,bool,bool,bool,string,string,string)":"34a9e6eb","HealthCondition(address,uint256)":"fe0c2a31","PatientsMedicalDetails(address)":"f243cc6a","PatientsPersonalDetails(address)":"1f650cc9","StorePatientData(string,address)":"ac46b5b7","addOwner(address)":"7065cb48","addPatientHealthDetails(string,address,address,string,string,string,string,string)":"d1f2f0e5","getAge(uint256)":"0e37008a","getDoctorPersonalDetails(address)":"a96a6b21","getDoctorProfessionalDetails(address)":"f7e901d3","getPatientDetails(address)":"efe2ccc1","getPatientHealthDetails(address)":"b5f63ec5","getPatientStored(address)":"55d2df12","getYear(uint256)":"92d66313","isDoctor(address)":"996440c6","isOwner(address)":"2f54bf6e","isPatient(address)":"8f9c79ed","owner(address)":"666e1b39","patientsStoredData(address,uint256)":"6e2c0ffe","removeOwner(address)":"173825d9","superOwner()":"87dcd2b6","totalAdmin()":"64319e33","totalDoctors()":"65b44d7e","totalPatient()":"92c2808f"}}}}}