{"src/contracts/Patient.sol":{"PatientDetails":{"abi":[{"inputs":[],"stateMutability":"nonpayable","type":"constructor"},{"inputs":[{"internalType":"address","name":"_walletAddress","type":"address"}],"name":"AddDoctorAccess","outputs":[],"stateMutability":"nonpayable","type":"function"},{"inputs":[{"internalType":"string","name":"_name","type":"string"},{"internalType":"address","name":"_walletAddress","type":"address"},{"internalType":"string","name":"_dateOfBirth","type":"string"},{"internalType":"uint256","name":"_age","type":"uint256"},{"internalType":"uint256","name":"_phoneNumber","type":"uint256"},{"internalType":"string","name":"_email","type":"string"}],"name":"AddDoctorPersonalInfo","outputs":[],"stateMutability":"nonpayable","type":"function"},{"inputs":[{"internalType":"address","name":"_walletAddress","type":"address"},{"internalType":"string","name":"_MedicalLicenseNumber","type":"string"},{"internalType":"string","name":"_Specialization","type":"string"},{"internalType":"uint256","name":"_ExperienceInYear","type":"uint256"},{"internalType":"string","name":"_MedicalSchoolAttended","type":"string"}],"name":"AddDoctorProfessionalInfo","outputs":[],"stateMutability":"nonpayable","type":"function"},{"inputs":[{"internalType":"string","name":"_date","type":"string"},{"internalType":"address","name":"_walletAddress","type":"address"},{"internalType":"bool","name":"_isAlcoholic","type":"bool"},{"internalType":"bool","name":"_isSmoker","type":"bool"},{"internalType":"bool","name":"_isSmokelessTobaccoUser","type":"bool"},{"internalType":"string","name":"_surgicalHistory_ifAny","type":"string"},{"internalType":"string","name":"_physicalActivityLevel","type":"string"},{"internalType":"string","name":"_pastMedicationDetails_IfAny","type":"string"}],"name":"AddPatientsMedicalDetails","outputs":[],"stateMutability":"nonpayable","type":"function"},{"inputs":[{"internalType":"string","name":"date","type":"string"},{"internalType":"string","name":"_name","type":"string"},{"internalType":"address","name":"_walletAddress","type":"address"},{"internalType":"string","name":"_gender","type":"string"},{"internalType":"string","name":"_Occupation","type":"string"},{"internalType":"string","name":"_dateOfBirth","type":"string"},{"internalType":"uint256","name":"_age","type":"uint256"},{"internalType":"uint256","name":"number","type":"uint256"},{"internalType":"string","name":"_bloodGrp","type":"string"},{"internalType":"uint256","name":"_height","type":"uint256"},{"internalType":"uint256","name":"_weight","type":"uint256"}],"name":"AddPatientsPersonalDetails","outputs":[],"stateMutability":"nonpayable","type":"function"},{"inputs":[{"internalType":"address","name":"_walletAddress","type":"address"}],"name":"DeleteDoctorAccess","outputs":[],"stateMutability":"nonpayable","type":"function"},{"inputs":[{"internalType":"address","name":"","type":"address"}],"name":"DoctorAccess","outputs":[{"internalType":"bool","name":"","type":"bool"}],"stateMutability":"view","type":"function"},{"inputs":[{"internalType":"address","name":"","type":"address"}],"name":"DoctorsPersonalInfo","outputs":[{"internalType":"string","name":"name","type":"string"},{"internalType":"address","name":"walletAddress","type":"address"},{"internalType":"string","name":"dateOfBirth","type":"string"},{"internalType":"uint256","name":"age","type":"uint256"},{"internalType":"uint256","name":"phoneNumber","type":"uint256"},{"internalType":"string","name":"email","type":"string"}],"stateMutability":"view","type":"function"},{"inputs":[{"internalType":"address","name":"","type":"address"}],"name":"Doctors_ProfessionalDetails","outputs":[{"internalType":"address","name":"walletAddress","type":"address"},{"internalType":"string","name":"MedicalSchoolAttended","type":"string"},{"internalType":"string","name":"MedicalLicenseNumber","type":"string"},{"internalType":"string","name":"Specialization","type":"string"},{"internalType":"uint256","name":"ExperienceInYear","type":"uint256"}],"stateMutability":"view","type":"function"},{"inputs":[{"internalType":"string","name":"_name","type":"string"},{"internalType":"address","name":"_walletAddress","type":"address"},{"internalType":"string","name":"_dateOfBirth","type":"string"},{"internalType":"uint256","name":"_age","type":"uint256"},{"internalType":"uint256","name":"_phoneNumber","type":"uint256"},{"internalType":"string","name":"_email","type":"string"}],"name":"EditDoctorPersonalDetails","outputs":[],"stateMutability":"nonpayable","type":"function"},{"inputs":[{"internalType":"address","name":"_walletAddress","type":"address"},{"internalType":"string","name":"_MedicalLicenseNumber","type":"string"},{"internalType":"string","name":"_Specialization","type":"string"},{"internalType":"uint256","name":"_ExperienceInYear","type":"uint256"},{"internalType":"string","name":"_MedicalSchoolAttended","type":"string"}],"name":"EditDoctorProfessionalDetails","outputs":[],"stateMutability":"nonpayable","type":"function"},{"inputs":[{"internalType":"string","name":"_date","type":"string"},{"internalType":"string","name":"_name","type":"string"},{"internalType":"address","name":"_walletAddress","type":"address"},{"internalType":"string","name":"_gender","type":"string"},{"internalType":"string","name":"_Occupation","type":"string"},{"internalType":"string","name":"_dateOfBirth","type":"string"},{"internalType":"uint256","name":"_age","type":"uint256"},{"internalType":"uint256","name":"number","type":"uint256"},{"internalType":"string","name":"_bloodGrp","type":"string"},{"internalType":"uint256","name":"_height","type":"uint256"},{"internalType":"uint256","name":"_weight","type":"uint256"}],"name":"EditPatientPersonalDetails","outputs":[],"stateMutability":"nonpayable","type":"function"},{"inputs":[{"internalType":"string","name":"_date","type":"string"},{"internalType":"address","name":"_walletAddress","type":"address"},{"internalType":"bool","name":"_isAlcoholic","type":"bool"},{"internalType":"bool","name":"_isSmoker","type":"bool"},{"internalType":"bool","name":"_isSmokelessTobaccoUser","type":"bool"},{"internalType":"string","name":"_surgicalHistory_ifAny","type":"string"},{"internalType":"string","name":"_physicalActivityLevel","type":"string"},{"internalType":"string","name":"_pastMedicationDetails_IfAny","type":"string"}],"name":"EditPatinetMedicalDetails","outputs":[],"stateMutability":"nonpayable","type":"function"},{"inputs":[{"internalType":"address","name":"","type":"address"},{"internalType":"uint256","name":"","type":"uint256"}],"name":"HealthCondition","outputs":[{"internalType":"string","name":"healthIssue","type":"string"},{"internalType":"string","name":"date","type":"string"},{"internalType":"address","name":"walletAddress","type":"address"},{"internalType":"address","name":"physician","type":"address"},{"internalType":"string","name":"Department_uint","type":"string"},{"internalType":"string","name":"BloodPressure","type":"string"},{"internalType":"string","name":"HeartRate","type":"string"},{"internalType":"string","name":"GlucoseLevel","type":"string"},{"internalType":"string","name":"bodyTemperature","type":"string"},{"internalType":"string","name":"checkupDescription","type":"string"},{"internalType":"string","name":"medicinesPrescribed","type":"string"}],"stateMutability":"view","type":"function"},{"inputs":[{"internalType":"address","name":"","type":"address"}],"name":"PatientsMedicalDetails","outputs":[{"internalType":"string","name":"date","type":"string"},{"internalType":"address","name":"walletAddress","type":"address"},{"internalType":"bool","name":"isAlcoholic","type":"bool"},{"internalType":"bool","name":"isSmoker","type":"bool"},{"internalType":"bool","name":"isSmokelessTobaccoUser","type":"bool"},{"internalType":"string","name":"surgicalHistory_ifAny","type":"string"},{"internalType":"string","name":"physicalActivityLevel","type":"string"},{"internalType":"string","name":"pastMedicationDetails_IfAny","type":"string"}],"stateMutability":"view","type":"function"},{"inputs":[{"internalType":"address","name":"","type":"address"}],"name":"PatientsPersonalDetails","outputs":[{"internalType":"string","name":"date","type":"string"},{"internalType":"string","name":"name","type":"string"},{"internalType":"address","name":"walletAddress","type":"address"},{"internalType":"string","name":"gender","type":"string"},{"internalType":"string","name":"Occupation","type":"string"},{"internalType":"string","name":"dateOfBirth","type":"string"},{"internalType":"uint256","name":"age","type":"uint256"},{"internalType":"uint256","name":"phoneNumber","type":"uint256"},{"internalType":"string","name":"bloodGroup","type":"string"},{"internalType":"uint256","name":"height","type":"uint256"},{"internalType":"uint256","name":"weight","type":"uint256"}],"stateMutability":"view","type":"function"},{"inputs":[{"internalType":"string","name":"_dataURL","type":"string"},{"internalType":"address","name":"user","type":"address"}],"name":"StorePatientData","outputs":[],"stateMutability":"nonpayable","type":"function"},{"inputs":[{"internalType":"address","name":"_address","type":"address"}],"name":"addOwner","outputs":[],"stateMutability":"nonpayable","type":"function"},{"inputs":[{"internalType":"string","name":"_healthIssue","type":"string"},{"internalType":"string","name":"_date","type":"string"},{"internalType":"address","name":"_walletAddress","type":"address"},{"internalType":"address","name":"_physician","type":"address"},{"internalType":"string","name":"_Department_uint","type":"string"},{"internalType":"string","name":"_BloodPressure","type":"string"},{"internalType":"string","name":"_HeartRate","type":"string"},{"internalType":"string","name":"_glucoseLevel","type":"string"},{"internalType":"string","name":"_bodyTemperature","type":"string"},{"internalType":"string","name":"_checkupDescription","type":"string"},{"internalType":"string","name":"_medicinesPrescribed","type":"string"}],"name":"addPatientHealthDetails","outputs":[],"stateMutability":"nonpayable","type":"function"},{"inputs":[{"internalType":"uint256","name":"_yearOfBirth","type":"uint256"}],"name":"getAge","outputs":[{"internalType":"uint256","name":"","type":"uint256"}],"stateMutability":"view","type":"function"},{"inputs":[{"internalType":"address","name":"_walletAddress","type":"address"}],"name":"getDoctorPersonalDetails","outputs":[{"components":[{"internalType":"string","name":"name","type":"string"},{"internalType":"address","name":"walletAddress","type":"address"},{"internalType":"string","name":"dateOfBirth","type":"string"},{"internalType":"uint256","name":"age","type":"uint256"},{"internalType":"uint256","name":"phoneNumber","type":"uint256"},{"internalType":"string","name":"email","type":"string"}],"internalType":"struct PatientDetails.DoctorPersonalInfo","name":"","type":"tuple"}],"stateMutability":"view","type":"function"},{"inputs":[{"internalType":"address","name":"_walletAddress","type":"address"}],"name":"getDoctorProfessionalDetails","outputs":[{"components":[{"internalType":"address","name":"walletAddress","type":"address"},{"internalType":"string","name":"MedicalSchoolAttended","type":"string"},{"internalType":"string","name":"MedicalLicenseNumber","type":"string"},{"internalType":"string","name":"Specialization","type":"string"},{"internalType":"uint256","name":"ExperienceInYear","type":"uint256"}],"internalType":"struct PatientDetails.DoctorProfessionalDetails","name":"","type":"tuple"}],"stateMutability":"view","type":"function"},{"inputs":[{"internalType":"address","name":"_walletAddress","type":"address"}],"name":"getPatientDetails","outputs":[{"components":[{"internalType":"string","name":"date","type":"string"},{"internalType":"string","name":"name","type":"string"},{"internalType":"address","name":"walletAddress","type":"address"},{"internalType":"string","name":"gender","type":"string"},{"internalType":"string","name":"Occupation","type":"string"},{"internalType":"string","name":"dateOfBirth","type":"string"},{"internalType":"uint256","name":"age","type":"uint256"},{"internalType":"uint256","name":"phoneNumber","type":"uint256"},{"internalType":"string","name":"bloodGroup","type":"string"},{"internalType":"uint256","name":"height","type":"uint256"},{"internalType":"uint256","name":"weight","type":"uint256"}],"internalType":"struct PatientDetails.PatientPersonalDetails","name":"","type":"tuple"},{"components":[{"internalType":"string","name":"date","type":"string"},{"internalType":"address","name":"walletAddress","type":"address"},{"internalType":"bool","name":"isAlcoholic","type":"bool"},{"internalType":"bool","name":"isSmoker","type":"bool"},{"internalType":"bool","name":"isSmokelessTobaccoUser","type":"bool"},{"internalType":"string","name":"surgicalHistory_ifAny","type":"string"},{"internalType":"string","name":"physicalActivityLevel","type":"string"},{"internalType":"string","name":"pastMedicationDetails_IfAny","type":"string"}],"internalType":"struct PatientDetails.PatientMedicalDetails","name":"","type":"tuple"}],"stateMutability":"view","type":"function"},{"inputs":[{"internalType":"address","name":"_walletAddress","type":"address"}],"name":"getPatientHealthDetails","outputs":[{"components":[{"internalType":"string","name":"healthIssue","type":"string"},{"internalType":"string","name":"date","type":"string"},{"internalType":"address","name":"walletAddress","type":"address"},{"internalType":"address","name":"physician","type":"address"},{"internalType":"string","name":"Department_uint","type":"string"},{"internalType":"string","name":"BloodPressure","type":"string"},{"internalType":"string","name":"HeartRate","type":"string"},{"internalType":"string","name":"GlucoseLevel","type":"string"},{"internalType":"string","name":"bodyTemperature","type":"string"},{"internalType":"string","name":"checkupDescription","type":"string"},{"internalType":"string","name":"medicinesPrescribed","type":"string"}],"internalType":"struct PatientDetails.PatientHealthCondition[]","name":"","type":"tuple[]"}],"stateMutability":"view","type":"function"},{"inputs":[{"internalType":"address","name":"_address","type":"address"}],"name":"getPatientStored","outputs":[{"components":[{"internalType":"uint256","name":"timestamp","type":"uint256"},{"internalType":"string","name":"cid","type":"string"}],"internalType":"struct PatientDetails.HealthData[]","name":"","type":"tuple[]"}],"stateMutability":"view","type":"function"},{"inputs":[{"internalType":"uint256","name":"timestamp","type":"uint256"}],"name":"getYear","outputs":[{"internalType":"uint256","name":"","type":"uint256"}],"stateMutability":"pure","type":"function"},{"inputs":[{"internalType":"address","name":"_address","type":"address"}],"name":"isDoctor","outputs":[{"internalType":"bool","name":"val","type":"bool"}],"stateMutability":"view","type":"function"},{"inputs":[{"internalType":"address","name":"_address","type":"address"}],"name":"isOwner","outputs":[{"internalType":"bool","name":"val","type":"bool"}],"stateMutability":"view","type":"function"},{"inputs":[{"internalType":"address","name":"_address","type":"address"}],"name":"isPatient","outputs":[{"internalType":"bool","name":"","type":"bool"}],"stateMutability":"view","type":"function"},{"inputs":[{"internalType":"address","name":"","type":"address"}],"name":"owner","outputs":[{"internalType":"bool","name":"","type":"bool"}],"stateMutability":"view","type":"function"},{"inputs":[{"internalType":"address","name":"","type":"address"},{"internalType":"uint256","name":"","type":"uint256"}],"name":"patientsStoredData","outputs":[{"internalType":"uint256","name":"timestamp","type":"uint256"},{"internalType":"string","name":"cid","type":"string"}],"stateMutability":"view","type":"function"},{"inputs":[{"internalType":"address","name":"_address","type":"address"}],"name":"removeOwner","outputs":[],"stateMutability":"nonpayable","type":"function"},{"inputs":[],"name":"superOwner","outputs":[{"internalType":"address","name":"","type":"address"}],"stateMutability":"view","type":"function"},{"inputs":[],"name":"totalAdmin","outputs":[{"internalType":"uint256","name":"","type":"uint256"}],"stateMutability":"view","type":"function"},{"inputs":[],"name":"totalDoctors","outputs":[{"internalType":"uint256","name":"","type":"uint256"}],"stateMutability":"view","type":"function"},{"inputs":[],"name":"totalPatient","outputs":[{"internalType":"uint256","name":"","type":"uint256"}],"stateMutability":"view","type":"function"}],"evm":{"bytecode":{"linkReferences":{},"object":"608060405234801561000f575f80fd5b50335f818152602081905260409020805460ff1916600190811790915580546001600160a01b03191690911790556158e9806200004b5f395ff3fe608060405234801561000f575f80fd5b5060043610610213575f3560e01c806387dcd2b61161011f578063ac46b5b7116100a9578063ccf0c1b511610079578063ccf0c1b514610510578063efe2ccc114610523578063f243cc6a14610544578063f7e901d31461056b578063fe0c2a311461058b575f80fd5b8063ac46b5b714610497578063b5f63ec5146104aa578063bb7d6b67146104ca578063bbcaa637146104ec575f80fd5b806392d66313116100ef57806392d663131461042b578063996440c61461043e5780639cd3f9a414610451578063a49b172514610464578063a96a6b2114610477575f80fd5b806387dcd2b6146103d15780638f9c79ed146103fc57806392b3141d1461040f57806392c2808f14610422575f80fd5b806355d2df12116101a057806366adec561161017057806366adec5614610352578063686e1f1b146103655780636e2c0ffe146103785780637065cb481461039957806375c6a96c146103ac575f80fd5b806355d2df12146102fe57806364319e331461031e57806365b44d7e14610327578063666e1b3914610330575f80fd5b80631a757712116101e65780631a757712146102785780631f650cc91461028b5780632f54bf6e146102b557806334a9e6eb146102d857806348e64d80146102eb575f80fd5b806304028017146102175780630e37008a1461022c578063163972a314610252578063173825d914610265575b5f80fd5b61022a61022536600461455b565b6105b5565b005b61023f61023a366004614574565b61071e565b6040519081526020015b60405180910390f35b61022a610260366004614628565b61079b565b61022a61027336600461455b565b610b93565b61022a6102863660046147ab565b610c0d565b61029e61029936600461455b565b610d94565b6040516102499b9a99989796959493929190614892565b6102c86102c336600461455b565b611118565b6040519015158152602001610249565b61022a6102e6366004614951565b611145565b61022a6102f9366004614a38565b611313565b61031161030c36600461455b565b6114ac565b6040516102499190614ad4565b61023f600a5481565b61023f60095481565b6102c861033e36600461455b565b5f6020819052908152604090205460ff1681565b61022a610360366004614951565b6115b7565b61022a61037336600461455b565b611827565b61038b610386366004614b46565b6119c7565b604051610249929190614b6e565b61022a6103a736600461455b565b611a87565b6103bf6103ba36600461455b565b611b04565b60405161024996959493929190614b8e565b6001546103e4906001600160a01b031681565b6040516001600160a01b039091168152602001610249565b6102c861040a36600461455b565b611cd8565b61022a61041d366004614a38565b611d25565b61023f600b5481565b61023f610439366004614574565b611f59565b6102c861044c36600461455b565b611f68565b61022a61045f366004614bee565b611f90565b61022a6104723660046147ab565b612255565b61048a61048536600461455b565b612468565b6040516102499190614d17565b61022a6104a5366004614d9d565b61274f565b6104bd6104b836600461455b565b6127ae565b6040516102499190614de8565b6102c86104d836600461455b565b60066020525f908152604090205460ff1681565b6104ff6104fa36600461455b565b612dec565b604051610249959493929190614f4e565b61022a61051e366004614bee565b612fb6565b61053661053136600461455b565b6131d7565b604051610249929190615064565b61055761055236600461455b565b613acf565b60405161024998979695949392919061517b565b61057e61057936600461455b565b613d3f565b6040516102499190615200565b61059e610599366004614b46565b61400d565b6040516102499b9a99989796959493929190615280565b335f9081526020819052604090205460ff16806105dc57506001546001600160a01b031633145b6106015760405162461bcd60e51b81526004016105f890615366565b60405180910390fd5b335f908152602081905260409020805460ff191660011790556001600160a01b0381166106625760405162461bcd60e51b815260206004820152600f60248201526e496e76616c6964204164647265737360881b60448201526064016105f8565b6001600160a01b0381165f9081526006602052604090205460ff166106fe5760405162461bcd60e51b815260206004820152604660248201527f50726f76696465642061646472657373206d75737420626520616e2041646d6960448201527f6e4163636573734164647265737320746f2072656d6f76652041646d696e416360648201526563657373212160d01b608482015260a4016105f8565b6001600160a01b03165f908152600660205260409020805460ff19169055565b5f8061072942611f59565b90505f83610739836107b26153c4565b61074391906153d7565b90505f81116107945760405162461bcd60e51b815260206004820152601860248201527f456e74657220636f72726563742062697274682079656172000000000000000060448201526064016105f8565b9392505050565b335f9081526006602052604081205460ff16156107b6575060015b335f9081526006602052604090205460ff166107e45760405162461bcd60e51b81526004016105f8906153ea565b6001600160a01b03808b165f818152600260208190526040909120015490911614801561082d57506001600160a01b03808b165f81815260036020526040902060010154909116145b6109115760405162461bcd60e51b815260206004820152609960248201527f496e636f72726563742050617469656e742077616c6c6574206164647265737360448201527f206f72205468652050617469656e742064657461696c2073706563696669632060648201527f746f20706572736f6e616c206f722070617374206d65646963616c206869737460848201527f6f7279206f662074686520616464726573732070726f7669646564206e6f742060a48201527f617661696c61626c6520696e2074686520636861696e2121200000000000000060c482015260e4016105f8565b6001600160a01b03808a165f81815260076020526040902060010154909116146109e35760405162461bcd60e51b815260206004820152607160248201527f496e636f72726563742050687973696369616e2077616c6c657420616464726560448201527f7373206f72205468652050687973696369616e2064657461696c20666f72207460648201527f686520616464726573732070726f7669646564206e6f7420617661696c61626c6084820152700329034b7103a34329031b430b4b710909607d1b60a482015260c4016105f8565b60045f8b6001600160a01b03166001600160a01b031681526020019081526020015f206040518061016001604052808e81526020018d81526020018c6001600160a01b031681526020018b6001600160a01b031681526020018a815260200189815260200188815260200187815260200186815260200185815260200184815250908060018154018082558091505060019003905f5260205f2090600b02015f909190919091505f820151815f019081610a9d91906154d4565b5060208201516001820190610ab290826154d4565b5060408201516002820180546001600160a01b039283166001600160a01b031991821617909155606084015160038401805491909316911617905560808201516004820190610b0190826154d4565b5060a08201516005820190610b1690826154d4565b5060c08201516006820190610b2b90826154d4565b5060e08201516007820190610b4090826154d4565b506101008201516008820190610b5690826154d4565b506101208201516009820190610b6c90826154d4565b50610140820151600a820190610b8290826154d4565b505050505050505050505050505050565b6001546001600160a01b03163314610bed5760405162461bcd60e51b815260206004820152601f60248201527f41636365737365626c65206f6e6c7920666f722053757065724f776e6572730060448201526064016105f8565b6001600160a01b03165f908152602081905260409020805460ff19169055565b335f9081526020819052604090205460ff1680610c3457506001546001600160a01b031633145b610c505760405162461bcd60e51b81526004016105f890615366565b6001600160a01b03851615801590610c6857505f8151115b8015610c7457505f8651115b610c905760405162461bcd60e51b81526004016105f890615590565b6001600160a01b038086165f8181526007602052604090206001015490911614610ccc5760405162461bcd60e51b81526004016105f8906155df565b6040805160c0810182528781526001600160a01b0387166020808301829052828401889052606083018790526080830186905260a083018590525f91825260079052919091208151859291908190610d2490826154d4565b5060208201516001820180546001600160a01b0319166001600160a01b0390921691909117905560408201516002820190610d5f90826154d4565b50606082015160038201556080820151600482015560a08201516005820190610d8890826154d4565b50505050505050505050565b60026020525f9081526040902080548190610dae90615452565b80601f0160208091040260200160405190810160405280929190818152602001828054610dda90615452565b8015610e255780601f10610dfc57610100808354040283529160200191610e25565b820191905f5260205f20905b815481529060010190602001808311610e0857829003601f168201915b505050505090806001018054610e3a90615452565b80601f0160208091040260200160405190810160405280929190818152602001828054610e6690615452565b8015610eb15780601f10610e8857610100808354040283529160200191610eb1565b820191905f5260205f20905b815481529060010190602001808311610e9457829003601f168201915b505050600284015460038501805494956001600160a01b03909216949193509150610edb90615452565b80601f0160208091040260200160405190810160405280929190818152602001828054610f0790615452565b8015610f525780601f10610f2957610100808354040283529160200191610f52565b820191905f5260205f20905b815481529060010190602001808311610f3557829003601f168201915b505050505090806004018054610f6790615452565b80601f0160208091040260200160405190810160405280929190818152602001828054610f9390615452565b8015610fde5780601f10610fb557610100808354040283529160200191610fde565b820191905f5260205f20905b815481529060010190602001808311610fc157829003601f168201915b505050505090806005018054610ff390615452565b80601f016020809104026020016040519081016040528092919081815260200182805461101f90615452565b801561106a5780601f106110415761010080835404028352916020019161106a565b820191905f5260205f20905b81548152906001019060200180831161104d57829003601f168201915b50505050509080600601549080600701549080600801805461108b90615452565b80601f01602080910402602001604051908101604052809291908181526020018280546110b790615452565b80156111025780601f106110d957610100808354040283529160200191611102565b820191905f5260205f20905b8154815290600101906020018083116110e557829003601f168201915b50505050509080600901549080600a015490508b565b6001600160a01b0381165f9081526020819052604081205460ff161561114057506001919050565b919050565b335f9081526006602052604081205460ff1615611160575060015b335f9081526006602052604090205460ff1661118e5760405162461bcd60e51b81526004016105f8906153ea565b6001600160a01b0388166111b45760405162461bcd60e51b81526004016105f890615677565b6001600160a01b038089165f8181526002602081905260409091200154909116146111f15760405162461bcd60e51b81526004016105f8906156bd565b60408051610100810182528a81526001600160a01b038a1660208083018290528a1515838501528915156060840152881515608084015260a0830188905260c0830187905260e083018690525f91825260039052919091208151819061125790826154d4565b5060208201516001820180546040850151606086015160808701511515600160b01b0260ff60b01b19911515600160a81b029190911661ffff60a81b19921515600160a01b026001600160a81b03199094166001600160a01b039096169590951792909217169290921791909117905560a082015160028201906112db90826154d4565b5060c082015160038201906112f090826154d4565b5060e0820151600482019061130590826154d4565b505050505050505050505050565b335f9081526020819052604090205460ff168061133a57506001546001600160a01b031633145b6113565760405162461bcd60e51b81526004016105f890615366565b6001600160a01b0385161580159061136e57505f8151115b801561137a57505f8451115b801561138657505f8351115b6113ca5760405162461bcd60e51b8152602060048201526015602482015274656e74657220636f72726563742064657461696c7360581b60448201526064016105f8565b6001600160a01b038086165f81815260086020526040902054909116146114035760405162461bcd60e51b81526004016105f8906155df565b6040805160a0810182526001600160a01b0387811680835260208084018681528486018a905260608501899052608085018890525f9283526008909152939020825181546001600160a01b03191692169190911781559151909190600182019061146d90826154d4565b506040820151600282019061148290826154d4565b506060820151600382019061149790826154d4565b50608082015181600401559050505050505050565b6001600160a01b0381165f908152600560209081526040808320805482518185028101850190935280835260609492939192909184015b828210156115ac578382905f5260205f2090600202016040518060400160405290815f820154815260200160018201805461151d90615452565b80601f016020809104026020016040519081016040528092919081815260200182805461154990615452565b80156115945780601f1061156b57610100808354040283529160200191611594565b820191905f5260205f20905b81548152906001019060200180831161157757829003601f168201915b505050505081525050815260200190600101906114e3565b505050509050919050565b335f9081526006602052604081205460ff16156115d2575060015b335f9081526006602052604090205460ff166116005760405162461bcd60e51b81526004016105f8906153ea565b6001600160a01b038089165f81815260036020526040902060010154909116036116a55760405162461bcd60e51b815260206004820152604a60248201527f50617469656e74206d65646963616c2064657461696c7320616c72656164792060448201527f657869737421212e204b696e646c792065646974207468652064657461696c73606482015269081a59881b995959195960b21b608482015260a4016105f8565b6001600160a01b0388166116cb5760405162461bcd60e51b81526004016105f890615677565b60408051610100810182528a81526001600160a01b038a1660208083018290528a1515838501528915156060840152881515608084015260a0830188905260c0830187905260e083018690525f91825260039052919091208151819061173190826154d4565b5060208201516001820180546040850151606086015160808701511515600160b01b0260ff60b01b19911515600160a81b029190911661ffff60a81b19921515600160a01b026001600160a81b03199094166001600160a01b039096169590951792909217169290921791909117905560a082015160028201906117b590826154d4565b5060c082015160038201906117ca90826154d4565b5060e082015160048201906117df90826154d4565b5050506001600160a01b038089165f81815260026020819052604090912001549091160361181c57600b8054905f61181683615755565b91905055505b505050505050505050565b335f9081526020819052604090205460ff168061184e57506001546001600160a01b031633145b61186a5760405162461bcd60e51b81526004016105f890615366565b335f9081526020819052604090205460ff166118df5760405162461bcd60e51b815260206004820152602e60248201527f4f6e6c79206f776e6572206861732070726976696c65676520746f206164642060448201526d6f776e657220616363657373212160901b60648201526084016105f8565b6001600160a01b0381165f9081526006602052604090205460ff16156119475760405162461bcd60e51b815260206004820181905260248201527f4164647265737320616c7265616479206861732061646d696e2061636365737360448201526064016105f8565b6001600160a01b03811661198f5760405162461bcd60e51b815260206004820152600f60248201526e496e76616c6964204164647265737360881b60448201526064016105f8565b6001600160a01b0381165f908152600660205260408120805460ff19166001179055600a8054916119bf83615755565b919050555050565b6005602052815f5260405f2081815481106119e0575f80fd5b905f5260205f2090600202015f9150915050805f015490806001018054611a0690615452565b80601f0160208091040260200160405190810160405280929190818152602001828054611a3290615452565b8015611a7d5780601f10611a5457610100808354040283529160200191611a7d565b820191905f5260205f20905b815481529060010190602001808311611a6057829003601f168201915b5050505050905082565b6001546001600160a01b03163314611ae15760405162461bcd60e51b815260206004820152601f60248201527f41636365737365626c65206f6e6c7920666f722053757065724f776e6572730060448201526064016105f8565b6001600160a01b03165f908152602081905260409020805460ff19166001179055565b60076020525f9081526040902080548190611b1e90615452565b80601f0160208091040260200160405190810160405280929190818152602001828054611b4a90615452565b8015611b955780601f10611b6c57610100808354040283529160200191611b95565b820191905f5260205f20905b815481529060010190602001808311611b7857829003601f168201915b505050600184015460028501805494956001600160a01b03909216949193509150611bbf90615452565b80601f0160208091040260200160405190810160405280929190818152602001828054611beb90615452565b8015611c365780601f10611c0d57610100808354040283529160200191611c36565b820191905f5260205f20905b815481529060010190602001808311611c1957829003601f168201915b505050505090806003015490806004015490806005018054611c5790615452565b80601f0160208091040260200160405190810160405280929190818152602001828054611c8390615452565b8015611cce5780601f10611ca557610100808354040283529160200191611cce565b820191905f5260205f20905b815481529060010190602001808311611cb157829003601f168201915b5050505050905086565b6001600160a01b038082165f818152600260208190526040822001549092161480611d1f57506001600160a01b038083165f81815260036020526040902060010154909116145b92915050565b335f9081526020819052604090205460ff1680611d4c57506001546001600160a01b031633145b611d685760405162461bcd60e51b81526004016105f890615366565b6001600160a01b038086165f8181526008602052604090205490911603611de85760405162461bcd60e51b815260206004820152602e60248201527f50687973696369616e2050726f66657373696f6e616c2064657461696c73206160448201526d6c7265616479206578697374212160901b60648201526084016105f8565b6001600160a01b038086165f8181526008602052604090205490911614801590611e1257505f8151115b8015611e1e57505f8451115b8015611e2a57505f8351115b611e6e5760405162461bcd60e51b8152602060048201526015602482015274456e74657220436f72726563742064657461696c7360581b60448201526064016105f8565b6040805160a0810182526001600160a01b0387811680835260208084018681528486018a905260608501899052608085018890525f9283526008909152939020825181546001600160a01b031916921691909117815591519091906001820190611ed890826154d4565b5060408201516002820190611eed90826154d4565b5060608201516003820190611f0290826154d4565b50608091909101516004909101556001600160a01b038086165f8181526007602052604090206001015490911603611f5257611f3d85611827565b60098054905f611f4c83615755565b91905055505b5050505050565b5f611d1f6301e133808361576d565b6001600160a01b0381165f9081526006602052604081205460ff161561114057506001919050565b335f9081526006602052604081205460ff1615611fab575060015b335f9081526006602052604090205460ff16611fd95760405162461bcd60e51b81526004016105f8906153ea565b6001600160a01b03808b165f8181526002602081905260409091200154909116036120815760405162461bcd60e51b815260206004820152604c60248201527f50617469656e742773204d65646963616c2064657461696c7320616c7265616460448201527f7920657869737421212e204b696e646c7920656469742074686520646574616960648201526b1b1cc81a59881b995959195960a21b608482015260a4016105f8565b6001600160a01b038a161580159061209957505f8951115b80156120a557505f8851115b6120c15760405162461bcd60e51b81526004016105f890615677565b5f8690506040518061016001604052808e81526020018d81526020018c6001600160a01b031681526020018b81526020018a81526020018981526020018281526020018781526020018681526020018581526020018481525060025f8d6001600160a01b03166001600160a01b031681526020019081526020015f205f820151815f01908161215091906154d4565b506020820151600182019061216590826154d4565b5060408201516002820180546001600160a01b0319166001600160a01b03909216919091179055606082015160038201906121a090826154d4565b50608082015160048201906121b590826154d4565b5060a082015160058201906121ca90826154d4565b5060c0820151600682015560e0820151600782015561010082015160088201906121f490826154d4565b50610120820151600982015561014090910151600a909101556001600160a01b03808c165f818152600360205260409020600101549091160361224657600b8054905f61224083615755565b91905055505b50505050505050505050505050565b335f9081526020819052604090205460ff168061227c57506001546001600160a01b031633145b6122985760405162461bcd60e51b81526004016105f890615366565b6001600160a01b038086165f81815260076020526040902060010154909116036123165760405162461bcd60e51b815260206004820152602960248201527f50687973696369616e20706572736f6e616c2064657461696c20616c7265616460448201526879206578697374212160b81b60648201526084016105f8565b6001600160a01b0385161580159061232d57505f82115b801561233957505f8151115b801561234557505f8651115b6123615760405162461bcd60e51b81526004016105f890615590565b6040805160c0810182528781526001600160a01b0387166020808301829052828401889052606083018790526080830186905260a083018590525f918252600790529190912081518592919081906123b990826154d4565b5060208201516001820180546001600160a01b0319166001600160a01b03909216919091179055604082015160028201906123f490826154d4565b50606082015160038201556080820151600482015560a0820151600582019061241d90826154d4565b5050506001600160a01b038087165f818152600860205260409020549091160361245f5761244a86611827565b60098054905f61245983615755565b91905055505b50505050505050565b6124a76040518060c00160405280606081526020015f6001600160a01b03168152602001606081526020015f81526020015f8152602001606081525090565b335f9081526020819052604090205460ff16806124ce57506001546001600160a01b031633145b6124ea5760405162461bcd60e51b81526004016105f890615366565b6001600160a01b0382166125105760405162461bcd60e51b81526004016105f89061578c565b6001600160a01b038083165f818152600760205260409020600101549091161461254c5760405162461bcd60e51b81526004016105f8906157c3565b6001600160a01b0382165f9081526007602052604090819020815160c0810190925280548290829061257d90615452565b80601f01602080910402602001604051908101604052809291908181526020018280546125a990615452565b80156125f45780601f106125cb576101008083540402835291602001916125f4565b820191905f5260205f20905b8154815290600101906020018083116125d757829003601f168201915b505050918352505060018201546001600160a01b0316602082015260028201805460409092019161262490615452565b80601f016020809104026020016040519081016040528092919081815260200182805461265090615452565b801561269b5780601f106126725761010080835404028352916020019161269b565b820191905f5260205f20905b81548152906001019060200180831161267e57829003601f168201915b5050505050815260200160038201548152602001600482015481526020016005820180546126c890615452565b80601f01602080910402602001604051908101604052809291908181526020018280546126f490615452565b801561273f5780601f106127165761010080835404028352916020019161273f565b820191905f5260205f20905b81548152906001019060200180831161272257829003601f168201915b5050505050815250509050919050565b60408051808201825242815260208082018581526001600160a01b0385165f908152600583529384208054600181810183559186529290942083516002909302019182555191928392908201906127a690826154d4565b505050505050565b335f81815260026020819052604090912001546060916001600160a01b0390911614806127f35750335f818152600360205260409020600101546001600160a01b0316145b8061280c5750335f9081526006602052604090205460ff165b806128255750335f9081526020819052604090205460ff165b8061283a57506001546001600160a01b031633145b6128565760405162461bcd60e51b81526004016105f89061586c565b6001600160a01b0382165f90815260046020908152604080832080548251818502810185019093528083529193909284015b828210156115ac578382905f5260205f2090600b0201604051806101600160405290815f820180546128b990615452565b80601f01602080910402602001604051908101604052809291908181526020018280546128e590615452565b80156129305780601f1061290757610100808354040283529160200191612930565b820191905f5260205f20905b81548152906001019060200180831161291357829003601f168201915b5050505050815260200160018201805461294990615452565b80601f016020809104026020016040519081016040528092919081815260200182805461297590615452565b80156129c05780601f10612997576101008083540402835291602001916129c0565b820191905f5260205f20905b8154815290600101906020018083116129a357829003601f168201915b505050918352505060028201546001600160a01b03908116602083015260038301541660408201526004820180546060909201916129fd90615452565b80601f0160208091040260200160405190810160405280929190818152602001828054612a2990615452565b8015612a745780601f10612a4b57610100808354040283529160200191612a74565b820191905f5260205f20905b815481529060010190602001808311612a5757829003601f168201915b50505050508152602001600582018054612a8d90615452565b80601f0160208091040260200160405190810160405280929190818152602001828054612ab990615452565b8015612b045780601f10612adb57610100808354040283529160200191612b04565b820191905f5260205f20905b815481529060010190602001808311612ae757829003601f168201915b50505050508152602001600682018054612b1d90615452565b80601f0160208091040260200160405190810160405280929190818152602001828054612b4990615452565b8015612b945780601f10612b6b57610100808354040283529160200191612b94565b820191905f5260205f20905b815481529060010190602001808311612b7757829003601f168201915b50505050508152602001600782018054612bad90615452565b80601f0160208091040260200160405190810160405280929190818152602001828054612bd990615452565b8015612c245780601f10612bfb57610100808354040283529160200191612c24565b820191905f5260205f20905b815481529060010190602001808311612c0757829003601f168201915b50505050508152602001600882018054612c3d90615452565b80601f0160208091040260200160405190810160405280929190818152602001828054612c6990615452565b8015612cb45780601f10612c8b57610100808354040283529160200191612cb4565b820191905f5260205f20905b815481529060010190602001808311612c9757829003601f168201915b50505050508152602001600982018054612ccd90615452565b80601f0160208091040260200160405190810160405280929190818152602001828054612cf990615452565b8015612d445780601f10612d1b57610100808354040283529160200191612d44565b820191905f5260205f20905b815481529060010190602001808311612d2757829003601f168201915b50505050508152602001600a82018054612d5d90615452565b80601f0160208091040260200160405190810160405280929190818152602001828054612d8990615452565b8015612dd45780601f10612dab57610100808354040283529160200191612dd4565b820191905f5260205f20905b815481529060010190602001808311612db757829003601f168201915b50505050508152505081526020019060010190612888565b60086020525f9081526040902080546001820180546001600160a01b039092169291612e1790615452565b80601f0160208091040260200160405190810160405280929190818152602001828054612e4390615452565b8015612e8e5780601f10612e6557610100808354040283529160200191612e8e565b820191905f5260205f20905b815481529060010190602001808311612e7157829003601f168201915b505050505090806002018054612ea390615452565b80601f0160208091040260200160405190810160405280929190818152602001828054612ecf90615452565b8015612f1a5780601f10612ef157610100808354040283529160200191612f1a565b820191905f5260205f20905b815481529060010190602001808311612efd57829003601f168201915b505050505090806003018054612f2f90615452565b80601f0160208091040260200160405190810160405280929190818152602001828054612f5b90615452565b8015612fa65780601f10612f7d57610100808354040283529160200191612fa6565b820191905f5260205f20905b815481529060010190602001808311612f8957829003601f168201915b5050505050908060040154905085565b335f9081526006602052604081205460ff1615612fd1575060015b335f9081526006602052604090205460ff16612fff5760405162461bcd60e51b81526004016105f8906153ea565b6001600160a01b038a161580159061301757505f8951115b801561302357505f8851115b61303f5760405162461bcd60e51b81526004016105f890615677565b6001600160a01b03808b165f81815260026020819052604090912001549091161461307c5760405162461bcd60e51b81526004016105f8906156bd565b5f8690506040518061016001604052808e81526020018d81526020018c6001600160a01b031681526020018b81526020018a81526020018981526020018281526020018781526020018681526020018581526020018481525060025f8d6001600160a01b03166001600160a01b031681526020019081526020015f205f820151815f01908161310b91906154d4565b506020820151600182019061312090826154d4565b5060408201516002820180546001600160a01b0319166001600160a01b039092169190911790556060820151600382019061315b90826154d4565b506080820151600482019061317090826154d4565b5060a0820151600582019061318590826154d4565b5060c0820151600682015560e0820151600782015561010082015160088201906131af90826154d4565b50610120820151600982015561014090910151600a9091015550505050505050505050505050565b61323860405180610160016040528060608152602001606081526020015f6001600160a01b031681526020016060815260200160608152602001606081526020015f81526020015f8152602001606081526020015f81526020015f81525090565b61328b604051806101000160405280606081526020015f6001600160a01b031681526020015f151581526020015f151581526020015f151581526020016060815260200160608152602001606081525090565b335f81815260026020819052604090912001546001600160a01b031614806132cb5750335f818152600360205260409020600101546001600160a01b0316145b806132e45750335f9081526006602052604090205460ff165b806132fd5750335f9081526020819052604090205460ff165b8061331257506001546001600160a01b031633145b61332e5760405162461bcd60e51b81526004016105f89061586c565b6001600160a01b0383166133545760405162461bcd60e51b81526004016105f89061578c565b6001600160a01b038084165f818152600260208190526040909120015490911614801561339d57506001600160a01b038084165f81815260036020526040902060010154909116145b61345b5760405162461bcd60e51b815260206004820152607960248201527f496e636f72726563742050617469656e742077616c6c6574206164647265737360448201527f206f72205468652050617469656e742064657461696c20666f7220746865206160648201527f6464726573732070726f7669646564206973206e6f7420636f6d706c65746c7960848201527f20617661696c61626c6520696e2074686520636861696e21210000000000000060a482015260c4016105f8565b6001600160a01b0383165f9081526002602090815260408083206003909252918290208251610160810190935281549192909183908290829061349d90615452565b80601f01602080910402602001604051908101604052809291908181526020018280546134c990615452565b80156135145780601f106134eb57610100808354040283529160200191613514565b820191905f5260205f20905b8154815290600101906020018083116134f757829003601f168201915b5050505050815260200160018201805461352d90615452565b80601f016020809104026020016040519081016040528092919081815260200182805461355990615452565b80156135a45780601f1061357b576101008083540402835291602001916135a4565b820191905f5260205f20905b81548152906001019060200180831161358757829003601f168201915b505050918352505060028201546001600160a01b031660208201526003820180546040909201916135d490615452565b80601f016020809104026020016040519081016040528092919081815260200182805461360090615452565b801561364b5780601f106136225761010080835404028352916020019161364b565b820191905f5260205f20905b81548152906001019060200180831161362e57829003601f168201915b5050505050815260200160048201805461366490615452565b80601f016020809104026020016040519081016040528092919081815260200182805461369090615452565b80156136db5780601f106136b2576101008083540402835291602001916136db565b820191905f5260205f20905b8154815290600101906020018083116136be57829003601f168201915b505050505081526020016005820180546136f490615452565b80601f016020809104026020016040519081016040528092919081815260200182805461372090615452565b801561376b5780601f106137425761010080835404028352916020019161376b565b820191905f5260205f20905b81548152906001019060200180831161374e57829003601f168201915b50505050508152602001600682015481526020016007820154815260200160088201805461379890615452565b80601f01602080910402602001604051908101604052809291908181526020018280546137c490615452565b801561380f5780601f106137e65761010080835404028352916020019161380f565b820191905f5260205f20905b8154815290600101906020018083116137f257829003601f168201915b5050505050815260200160098201548152602001600a82015481525050915080604051806101000160405290815f8201805461384a90615452565b80601f016020809104026020016040519081016040528092919081815260200182805461387690615452565b80156138c15780601f10613898576101008083540402835291602001916138c1565b820191905f5260205f20905b8154815290600101906020018083116138a457829003601f168201915b505050918352505060018201546001600160a01b038116602083015260ff600160a01b8204811615156040840152600160a81b8204811615156060840152600160b01b909104161515608082015260028201805460a09092019161392490615452565b80601f016020809104026020016040519081016040528092919081815260200182805461395090615452565b801561399b5780601f106139725761010080835404028352916020019161399b565b820191905f5260205f20905b81548152906001019060200180831161397e57829003601f168201915b505050505081526020016003820180546139b490615452565b80601f01602080910402602001604051908101604052809291908181526020018280546139e090615452565b8015613a2b5780601f10613a0257610100808354040283529160200191613a2b565b820191905f5260205f20905b815481529060010190602001808311613a0e57829003601f168201915b50505050508152602001600482018054613a4490615452565b80601f0160208091040260200160405190810160405280929190818152602001828054613a7090615452565b8015613abb5780601f10613a9257610100808354040283529160200191613abb565b820191905f5260205f20905b815481529060010190602001808311613a9e57829003601f168201915b505050505081525050905091509150915091565b60036020525f9081526040902080548190613ae990615452565b80601f0160208091040260200160405190810160405280929190818152602001828054613b1590615452565b8015613b605780601f10613b3757610100808354040283529160200191613b60565b820191905f5260205f20905b815481529060010190602001808311613b4357829003601f168201915b50505050600183015460028401805493946001600160a01b0383169460ff600160a01b850481169550600160a81b8504811694600160b01b9004169290613ba690615452565b80601f0160208091040260200160405190810160405280929190818152602001828054613bd290615452565b8015613c1d5780601f10613bf457610100808354040283529160200191613c1d565b820191905f5260205f20905b815481529060010190602001808311613c0057829003601f168201915b505050505090806003018054613c3290615452565b80601f0160208091040260200160405190810160405280929190818152602001828054613c5e90615452565b8015613ca95780601f10613c8057610100808354040283529160200191613ca9565b820191905f5260205f20905b815481529060010190602001808311613c8c57829003601f168201915b505050505090806004018054613cbe90615452565b80601f0160208091040260200160405190810160405280929190818152602001828054613cea90615452565b8015613d355780601f10613d0c57610100808354040283529160200191613d35565b820191905f5260205f20905b815481529060010190602001808311613d1857829003601f168201915b5050505050905088565b613d786040518060a001604052805f6001600160a01b031681526020016060815260200160608152602001606081526020015f81525090565b335f9081526020819052604090205460ff1680613d9f57506001546001600160a01b031633145b613dbb5760405162461bcd60e51b81526004016105f890615366565b6001600160a01b038216613de15760405162461bcd60e51b81526004016105f89061578c565b6001600160a01b038083165f8181526008602052604090205490911614613e1a5760405162461bcd60e51b81526004016105f8906157c3565b6001600160a01b038083165f90815260086020908152604091829020825160a081019093528054909316825260018301805492939291840191613e5c90615452565b80601f0160208091040260200160405190810160405280929190818152602001828054613e8890615452565b8015613ed35780601f10613eaa57610100808354040283529160200191613ed3565b820191905f5260205f20905b815481529060010190602001808311613eb657829003601f168201915b50505050508152602001600282018054613eec90615452565b80601f0160208091040260200160405190810160405280929190818152602001828054613f1890615452565b8015613f635780601f10613f3a57610100808354040283529160200191613f63565b820191905f5260205f20905b815481529060010190602001808311613f4657829003601f168201915b50505050508152602001600382018054613f7c90615452565b80601f0160208091040260200160405190810160405280929190818152602001828054613fa890615452565b8015613ff35780601f10613fca57610100808354040283529160200191613ff3565b820191905f5260205f20905b815481529060010190602001808311613fd657829003601f168201915b505050505081526020016004820154815250509050919050565b6004602052815f5260405f208181548110614026575f80fd5b905f5260205f2090600b02015f9150915050805f01805461404690615452565b80601f016020809104026020016040519081016040528092919081815260200182805461407290615452565b80156140bd5780601f10614094576101008083540402835291602001916140bd565b820191905f5260205f20905b8154815290600101906020018083116140a057829003601f168201915b5050505050908060010180546140d290615452565b80601f01602080910402602001604051908101604052809291908181526020018280546140fe90615452565b80156141495780601f1061412057610100808354040283529160200191614149565b820191905f5260205f20905b81548152906001019060200180831161412c57829003601f168201915b5050506002840154600385015460048601805495966001600160a01b039384169692909316945091925061417c90615452565b80601f01602080910402602001604051908101604052809291908181526020018280546141a890615452565b80156141f35780601f106141ca576101008083540402835291602001916141f3565b820191905f5260205f20905b8154815290600101906020018083116141d657829003601f168201915b50505050509080600501805461420890615452565b80601f016020809104026020016040519081016040528092919081815260200182805461423490615452565b801561427f5780601f106142565761010080835404028352916020019161427f565b820191905f5260205f20905b81548152906001019060200180831161426257829003601f168201915b50505050509080600601805461429490615452565b80601f01602080910402602001604051908101604052809291908181526020018280546142c090615452565b801561430b5780601f106142e25761010080835404028352916020019161430b565b820191905f5260205f20905b8154815290600101906020018083116142ee57829003601f168201915b50505050509080600701805461432090615452565b80601f016020809104026020016040519081016040528092919081815260200182805461434c90615452565b80156143975780601f1061436e57610100808354040283529160200191614397565b820191905f5260205f20905b81548152906001019060200180831161437a57829003601f168201915b5050505050908060080180546143ac90615452565b80601f01602080910402602001604051908101604052809291908181526020018280546143d890615452565b80156144235780601f106143fa57610100808354040283529160200191614423565b820191905f5260205f20905b81548152906001019060200180831161440657829003601f168201915b50505050509080600901805461443890615452565b80601f016020809104026020016040519081016040528092919081815260200182805461446490615452565b80156144af5780601f10614486576101008083540402835291602001916144af565b820191905f5260205f20905b81548152906001019060200180831161449257829003601f168201915b50505050509080600a0180546144c490615452565b80601f01602080910402602001604051908101604052809291908181526020018280546144f090615452565b801561453b5780601f106145125761010080835404028352916020019161453b565b820191905f5260205f20905b81548152906001019060200180831161451e57829003601f168201915b505050505090508b565b80356001600160a01b0381168114611140575f80fd5b5f6020828403121561456b575f80fd5b61079482614545565b5f60208284031215614584575f80fd5b5035919050565b634e487b7160e01b5f52604160045260245ffd5b5f82601f8301126145ae575f80fd5b813567ffffffffffffffff808211156145c9576145c961458b565b604051601f8301601f19908116603f011681019082821181831017156145f1576145f161458b565b81604052838152866020858801011115614609575f80fd5b836020870160208301375f602085830101528094505050505092915050565b5f805f805f805f805f805f6101608c8e031215614643575f80fd5b67ffffffffffffffff808d351115614659575f80fd5b6146668e8e358f0161459f565b9b508060208e01351115614678575f80fd5b6146888e60208f01358f0161459f565b9a5061469660408e01614545565b99506146a460608e01614545565b98508060808e013511156146b6575f80fd5b6146c68e60808f01358f0161459f565b97508060a08e013511156146d8575f80fd5b6146e88e60a08f01358f0161459f565b96508060c08e013511156146fa575f80fd5b61470a8e60c08f01358f0161459f565b95508060e08e0135111561471c575f80fd5b61472c8e60e08f01358f0161459f565b9450806101008e0135111561473f575f80fd5b6147508e6101008f01358f0161459f565b9350806101208e01351115614763575f80fd5b6147748e6101208f01358f0161459f565b9250806101408e01351115614787575f80fd5b506147998d6101408e01358e0161459f565b90509295989b509295989b9093969950565b5f805f805f8060c087890312156147c0575f80fd5b863567ffffffffffffffff808211156147d7575f80fd5b6147e38a838b0161459f565b97506147f160208a01614545565b96506040890135915080821115614806575f80fd5b6148128a838b0161459f565b9550606089013594506080890135935060a0890135915080821115614835575f80fd5b5061484289828a0161459f565b9150509295509295509295565b5f81518084525f5b8181101561487357602081850181015186830182015201614857565b505f602082860101526020601f19601f83011685010191505092915050565b5f6101608083526148a58184018f61484f565b905082810360208401526148b9818e61484f565b6001600160a01b038d166040850152838103606085015290506148dc818c61484f565b905082810360808401526148f0818b61484f565b905082810360a0840152614904818a61484f565b90508760c08401528660e0840152828103610100840152614925818761484f565b610120840195909552505061014001529998505050505050505050565b80358015158114611140575f80fd5b5f805f805f805f80610100898b031215614969575f80fd5b883567ffffffffffffffff80821115614980575f80fd5b61498c8c838d0161459f565b995061499a60208c01614545565b98506149a860408c01614942565b97506149b660608c01614942565b96506149c460808c01614942565b955060a08b01359150808211156149d9575f80fd5b6149e58c838d0161459f565b945060c08b01359150808211156149fa575f80fd5b614a068c838d0161459f565b935060e08b0135915080821115614a1b575f80fd5b50614a288b828c0161459f565b9150509295985092959890939650565b5f805f805f60a08688031215614a4c575f80fd5b614a5586614545565b9450602086013567ffffffffffffffff80821115614a71575f80fd5b614a7d89838a0161459f565b95506040880135915080821115614a92575f80fd5b614a9e89838a0161459f565b9450606088013593506080880135915080821115614aba575f80fd5b50614ac78882890161459f565b9150509295509295909350565b5f6020808301818452808551808352604092508286019150828160051b8701018488015f5b83811015614b3857888303603f19018552815180518452870151878401879052614b258785018261484f565b9588019593505090860190600101614af9565b509098975050505050505050565b5f8060408385031215614b57575f80fd5b614b6083614545565b946020939093013593505050565b828152604060208201525f614b86604083018461484f565b949350505050565b60c081525f614ba060c083018961484f565b6001600160a01b03881660208401528281036040840152614bc1818861484f565b905085606084015284608084015282810360a0840152614be1818561484f565b9998505050505050505050565b5f805f805f805f805f805f6101608c8e031215614c09575f80fd5b67ffffffffffffffff808d351115614c1f575f80fd5b614c2c8e8e358f0161459f565b9b508060208e01351115614c3e575f80fd5b614c4e8e60208f01358f0161459f565b9a50614c5c60408e01614545565b99508060608e01351115614c6e575f80fd5b614c7e8e60608f01358f0161459f565b98508060808e01351115614c90575f80fd5b614ca08e60808f01358f0161459f565b97508060a08e01351115614cb2575f80fd5b614cc28e60a08f01358f0161459f565b965060c08d0135955060e08d01359450806101008e01351115614ce3575f80fd5b50614cf58d6101008e01358e0161459f565b92506101208c013591506101408c013590509295989b509295989b9093969950565b602081525f825160c06020840152614d3260e084018261484f565b905060018060a01b0360208501511660408401526040840151601f1980858403016060860152614d62838361484f565b925060608601516080860152608086015160a086015260a08601519150808584030160c086015250614d94828261484f565b95945050505050565b5f8060408385031215614dae575f80fd5b823567ffffffffffffffff811115614dc4575f80fd5b614dd08582860161459f565b925050614ddf60208401614545565b90509250929050565b5f6020808301818452808551808352604092508286019150828160051b8701018488015f5b83811015614b3857603f1989840301855281516101608151818652614e348287018261484f565b915050888201518582038a870152614e4c828261484f565b91505087820151614e67898701826001600160a01b03169052565b506060828101516001600160a01b03169086015260808083015186830382880152614e92838261484f565b9250505060a08083015186830382880152614ead838261484f565b9250505060c08083015186830382880152614ec8838261484f565b9250505060e08083015186830382880152614ee3838261484f565b925050506101008083015186830382880152614eff838261484f565b925050506101208083015186830382880152614f1b838261484f565b925050506101408083015192508582038187015250614f3a818361484f565b968901969450505090860190600101614e0d565b6001600160a01b038616815260a0602082018190525f90614f719083018761484f565b8281036040840152614f83818761484f565b90508281036060840152614f97818661484f565b9150508260808301529695505050505050565b5f6101008251818552614fbf8286018261484f565b9150506020830151614fdc60208601826001600160a01b03169052565b506040830151614ff0604086018215159052565b506060830151615004606086018215159052565b506080830151615018608086018215159052565b5060a083015184820360a0860152615030828261484f565b91505060c083015184820360c086015261504a828261484f565b91505060e083015184820360e0860152614d94828261484f565b604081525f83516101608060408501526150826101a085018361484f565b91506020860151603f19808685030160608701526150a0848361484f565b9350604088015191506150be60808701836001600160a01b03169052565b60608801519150808685030160a08701526150d9848361484f565b935060808801519150808685030160c08701526150f6848361484f565b935060a08801519150808685030160e0870152615113848361484f565b935060c08801519150610100828188015260e089015192506101208381890152818a015193506101409150828887030182890152615151868561484f565b908a015194880194909452880151610180870152505083810360208501529050614d948185614faa565b5f61010080835261518e8184018c61484f565b6001600160a01b038b16602085015289151560408501528815156060850152871515608085015283810360a085015290506151c9818761484f565b905082810360c08401526151dd818661484f565b905082810360e08401526151f1818561484f565b9b9a5050505050505050505050565b602080825282516001600160a01b03168282015282015160a060408301525f9061522d60c084018261484f565b90506040840151601f198085840301606086015261524b838361484f565b9250606086015191508085840301608086015250615269828261484f565b915050608084015160a08401528091505092915050565b5f6101608083526152938184018f61484f565b905082810360208401526152a7818e61484f565b6001600160a01b038d16604085015290506001600160a01b038b16606084015282810360808401526152d9818b61484f565b905082810360a08401526152ed818a61484f565b905082810360c0840152615301818961484f565b905082810360e0840152615315818861484f565b905082810361010084015261532a818761484f565b905082810361012084015261533f818661484f565b9050828103610140840152615354818561484f565b9e9d5050505050505050505050505050565b6020808252602a908201527f41636365737365626c65206f6e6c7920666f72204f776e65727320616e642053604082015269757065724f776e65727360b01b606082015260800190565b634e487b7160e01b5f52601160045260245ffd5b80820180821115611d1f57611d1f6153b0565b81810381811115611d1f57611d1f6153b0565b60208082526042908201527f4f6e6c792074686520446f63746f72732063616e2063616c6c2074686973206660408201527f756e6374696f6e2064756520746f20736563757269747920726561736f6e7321606082015261212160f01b608082015260a00190565b600181811c9082168061546657607f821691505b60208210810361548457634e487b7160e01b5f52602260045260245ffd5b50919050565b601f8211156154cf575f81815260208120601f850160051c810160208610156154b05750805b601f850160051c820191505b818110156127a6578281556001016154bc565b505050565b815167ffffffffffffffff8111156154ee576154ee61458b565b615502816154fc8454615452565b8461548a565b602080601f831160018114615535575f841561551e5750858301515b5f19600386901b1c1916600185901b1785556127a6565b5f85815260208120601f198616915b8281101561556357888601518255948401946001909101908401615544565b508582101561558057878501515f19600388901b60f8161c191681555b5050505050600190811b01905550565b6020808252602f908201527f4b696e646c792066696c6c20616c6c20746865206d616e6461746f727920666560408201526e696c64732070726f7065726c79212160881b606082015260800190565b6020808252606c908201527f496e636f727265637420446f63746f7227732077616c6c65742061646472657360408201527f73206f722054686520446f63746f722064657461696c20666f7220746865206160608201527f6464726573732070726f7669646564206e6f7420617661696c61626c6520696e60808201526b2074686520636861696e212160a01b60a082015260c00190565b60208082526026908201527f4b696e646c792066696c6c20616c6c20746865206d616e6461746f7279206665604082015265696c6473212160d01b606082015260800190565b6020808252606c908201527f496e636f72726563742050617469656e742077616c6c6574206164647265737360408201527f206f72205468652050617469656e742064657461696c20666f7220746865206160608201527f6464726573732070726f7669646564206e6f7420617661696c61626c6520696e60808201526b2074686520636861696e212160a01b60a082015260c00190565b5f60018201615766576157666153b0565b5060010190565b5f8261578757634e487b7160e01b5f52601260045260245ffd5b500490565b6020808252601e908201527f57616c6c657420416464726573732063616e6e6f7420626520656d7074790000604082015260600190565b60208082526078908201527f496e636f727265637420446f63746f722077616c6c657420616464726573732060408201527f6f722054686520446f63746f722064657461696c20666f72207468652061646460608201527f726573732070726f7669646564206973206e6f7420636f6d706c6574656c792060808201527f617661696c61626c6520696e2074686520636861696e2121000000000000000060a082015260c00190565b60208082526027908201527f596f752068617665206e6f2061636365737320746f206665746368207468652060408201526664657461696c7360c81b60608201526080019056fea2646970667358221220a9af4bf5db750839904b22724fbebc73d3653aa4d77bd23b9c69d8a9244a5a9164736f6c63430008150033","opcodes":"PUSH1 0x80 PUSH1 0x40 MSTORE CALLVALUE DUP1 ISZERO PUSH2 0xF JUMPI PUSH0 DUP1 REVERT JUMPDEST POP CALLER PUSH0 DUP2 DUP2 MSTORE PUSH1 0x20 DUP2 SWAP1 MSTORE PUSH1 0x40 SWAP1 KECCAK256 DUP1 SLOAD PUSH1 0xFF NOT AND PUSH1 0x1 SWAP1 DUP2 OR SWAP1 SWAP2 SSTORE DUP1 SLOAD PUSH1 0x1 PUSH1 0x1 PUSH1 0xA0 SHL SUB NOT AND SWAP1 SWAP2 OR SWAP1 SSTORE PUSH2 0x58E9 DUP1 PUSH3 0x4B PUSH0 CODECOPY PUSH0 RETURN INVALID PUSH1 0x80 PUSH1 0x40 MSTORE CALLVALUE DUP1 ISZERO PUSH2 0xF JUMPI PUSH0 DUP1 REVERT JUMPDEST POP PUSH1 0x4 CALLDATASIZE LT PUSH2 0x213 JUMPI PUSH0 CALLDATALOAD PUSH1 0xE0 SHR DUP1 PUSH4 0x87DCD2B6 GT PUSH2 0x11F JUMPI DUP1 PUSH4 0xAC46B5B7 GT PUSH2 0xA9 JUMPI DUP1 PUSH4 0xCCF0C1B5 GT PUSH2 0x79 JUMPI DUP1 PUSH4 0xCCF0C1B5 EQ PUSH2 0x510 JUMPI DUP1 PUSH4 0xEFE2CCC1 EQ PUSH2 0x523 JUMPI DUP1 PUSH4 0xF243CC6A EQ PUSH2 0x544 JUMPI DUP1 PUSH4 0xF7E901D3 EQ PUSH2 0x56B JUMPI DUP1 PUSH4 0xFE0C2A31 EQ PUSH2 0x58B JUMPI PUSH0 DUP1 REVERT JUMPDEST DUP1 PUSH4 0xAC46B5B7 EQ PUSH2 0x497 JUMPI DUP1 PUSH4 0xB5F63EC5 EQ PUSH2 0x4AA JUMPI DUP1 PUSH4 0xBB7D6B67 EQ PUSH2 0x4CA JUMPI DUP1 PUSH4 0xBBCAA637 EQ PUSH2 0x4EC JUMPI PUSH0 DUP1 REVERT JUMPDEST DUP1 PUSH4 0x92D66313 GT PUSH2 0xEF JUMPI DUP1 PUSH4 0x92D66313 EQ PUSH2 0x42B JUMPI DUP1 PUSH4 0x996440C6 EQ PUSH2 0x43E JUMPI DUP1 PUSH4 0x9CD3F9A4 EQ PUSH2 0x451 JUMPI DUP1 PUSH4 0xA49B1725 EQ PUSH2 0x464 JUMPI DUP1 PUSH4 0xA96A6B21 EQ PUSH2 0x477 JUMPI PUSH0 DUP1 REVERT JUMPDEST DUP1 PUSH4 0x87DCD2B6 EQ PUSH2 0x3D1 JUMPI DUP1 PUSH4 0x8F9C79ED EQ PUSH2 0x3FC JUMPI DUP1 PUSH4 0x92B3141D EQ PUSH2 0x40F JUMPI DUP1 PUSH4 0x92C2808F EQ PUSH2 0x422 JUMPI PUSH0 DUP1 REVERT JUMPDEST DUP1 PUSH4 0x55D2DF12 GT PUSH2 0x1A0 JUMPI DUP1 PUSH4 0x66ADEC56 GT PUSH2 0x170 JUMPI DUP1 PUSH4 0x66ADEC56 EQ PUSH2 0x352 JUMPI DUP1 PUSH4 0x686E1F1B EQ PUSH2 0x365 JUMPI DUP1 PUSH4 0x6E2C0FFE EQ PUSH2 0x378 JUMPI DUP1 PUSH4 0x7065CB48 EQ PUSH2 0x399 JUMPI DUP1 PUSH4 0x75C6A96C EQ PUSH2 0x3AC JUMPI PUSH0 DUP1 REVERT JUMPDEST DUP1 PUSH4 0x55D2DF12 EQ PUSH2 0x2FE JUMPI DUP1 PUSH4 0x64319E33 EQ PUSH2 0x31E JUMPI DUP1 PUSH4 0x65B44D7E EQ PUSH2 0x327 JUMPI DUP1 PUSH4 0x666E1B39 EQ PUSH2 0x330 JUMPI PUSH0 DUP1 REVERT JUMPDEST DUP1 PUSH4 0x1A757712 GT PUSH2 0x1E6 JUMPI DUP1 PUSH4 0x1A757712 EQ PUSH2 0x278 JUMPI DUP1 PUSH4 0x1F650CC9 EQ PUSH2 0x28B JUMPI DUP1 PUSH4 0x2F54BF6E EQ PUSH2 0x2B5 JUMPI DUP1 PUSH4 0x34A9E6EB EQ PUSH2 0x2D8 JUMPI DUP1 PUSH4 0x48E64D80 EQ PUSH2 0x2EB JUMPI PUSH0 DUP1 REVERT JUMPDEST DUP1 PUSH4 0x4028017 EQ PUSH2 0x217 JUMPI DUP1 PUSH4 0xE37008A EQ PUSH2 0x22C JUMPI DUP1 PUSH4 0x163972A3 EQ PUSH2 0x252 JUMPI DUP1 PUSH4 0x173825D9 EQ PUSH2 0x265 JUMPI JUMPDEST PUSH0 DUP1 REVERT JUMPDEST PUSH2 0x22A PUSH2 0x225 CALLDATASIZE PUSH1 0x4 PUSH2 0x455B JUMP JUMPDEST PUSH2 0x5B5 JUMP JUMPDEST STOP JUMPDEST PUSH2 0x23F PUSH2 0x23A CALLDATASIZE PUSH1 0x4 PUSH2 0x4574 JUMP JUMPDEST PUSH2 0x71E JUMP JUMPDEST PUSH1 0x40 MLOAD SWAP1 DUP2 MSTORE PUSH1 0x20 ADD JUMPDEST PUSH1 0x40 MLOAD DUP1 SWAP2 SUB SWAP1 RETURN JUMPDEST PUSH2 0x22A PUSH2 0x260 CALLDATASIZE PUSH1 0x4 PUSH2 0x4628 JUMP JUMPDEST PUSH2 0x79B JUMP JUMPDEST PUSH2 0x22A PUSH2 0x273 CALLDATASIZE PUSH1 0x4 PUSH2 0x455B JUMP JUMPDEST PUSH2 0xB93 JUMP JUMPDEST PUSH2 0x22A PUSH2 0x286 CALLDATASIZE PUSH1 0x4 PUSH2 0x47AB JUMP JUMPDEST PUSH2 0xC0D JUMP JUMPDEST PUSH2 0x29E PUSH2 0x299 CALLDATASIZE PUSH1 0x4 PUSH2 0x455B JUMP JUMPDEST PUSH2 0xD94 JUMP JUMPDEST PUSH1 0x40 MLOAD PUSH2 0x249 SWAP12 SWAP11 SWAP10 SWAP9 SWAP8 SWAP7 SWAP6 SWAP5 SWAP4 SWAP3 SWAP2 SWAP1 PUSH2 0x4892 JUMP JUMPDEST PUSH2 0x2C8 PUSH2 0x2C3 CALLDATASIZE PUSH1 0x4 PUSH2 0x455B JUMP JUMPDEST PUSH2 0x1118 JUMP JUMPDEST PUSH1 0x40 MLOAD SWAP1 ISZERO ISZERO DUP2 MSTORE PUSH1 0x20 ADD PUSH2 0x249 JUMP JUMPDEST PUSH2 0x22A PUSH2 0x2E6 CALLDATASIZE PUSH1 0x4 PUSH2 0x4951 JUMP JUMPDEST PUSH2 0x1145 JUMP JUMPDEST PUSH2 0x22A PUSH2 0x2F9 CALLDATASIZE PUSH1 0x4 PUSH2 0x4A38 JUMP JUMPDEST PUSH2 0x1313 JUMP JUMPDEST PUSH2 0x311 PUSH2 0x30C CALLDATASIZE PUSH1 0x4 PUSH2 0x455B JUMP JUMPDEST PUSH2 0x14AC JUMP JUMPDEST PUSH1 0x40 MLOAD PUSH2 0x249 SWAP2 SWAP1 PUSH2 0x4AD4 JUMP JUMPDEST PUSH2 0x23F PUSH1 0xA SLOAD DUP2 JUMP JUMPDEST PUSH2 0x23F PUSH1 0x9 SLOAD DUP2 JUMP JUMPDEST PUSH2 0x2C8 PUSH2 0x33E CALLDATASIZE PUSH1 0x4 PUSH2 0x455B JUMP JUMPDEST PUSH0 PUSH1 0x20 DUP2 SWAP1 MSTORE SWAP1 DUP2 MSTORE PUSH1 0x40 SWAP1 KECCAK256 SLOAD PUSH1 0xFF AND DUP2 JUMP JUMPDEST PUSH2 0x22A PUSH2 0x360 CALLDATASIZE PUSH1 0x4 PUSH2 0x4951 JUMP JUMPDEST PUSH2 0x15B7 JUMP JUMPDEST PUSH2 0x22A PUSH2 0x373 CALLDATASIZE PUSH1 0x4 PUSH2 0x455B JUMP JUMPDEST PUSH2 0x1827 JUMP JUMPDEST PUSH2 0x38B PUSH2 0x386 CALLDATASIZE PUSH1 0x4 PUSH2 0x4B46 JUMP JUMPDEST PUSH2 0x19C7 JUMP JUMPDEST PUSH1 0x40 MLOAD PUSH2 0x249 SWAP3 SWAP2 SWAP1 PUSH2 0x4B6E JUMP JUMPDEST PUSH2 0x22A PUSH2 0x3A7 CALLDATASIZE PUSH1 0x4 PUSH2 0x455B JUMP JUMPDEST PUSH2 0x1A87 JUMP JUMPDEST PUSH2 0x3BF PUSH2 0x3BA CALLDATASIZE PUSH1 0x4 PUSH2 0x455B JUMP JUMPDEST PUSH2 0x1B04 JUMP JUMPDEST PUSH1 0x40 MLOAD PUSH2 0x249 SWAP7 SWAP6 SWAP5 SWAP4 SWAP3 SWAP2 SWAP1 PUSH2 0x4B8E JUMP JUMPDEST PUSH1 0x1 SLOAD PUSH2 0x3E4 SWAP1 PUSH1 0x1 PUSH1 0x1 PUSH1 0xA0 SHL SUB AND DUP2 JUMP JUMPDEST PUSH1 0x40 MLOAD PUSH1 0x1 PUSH1 0x1 PUSH1 0xA0 SHL SUB SWAP1 SWAP2 AND DUP2 MSTORE PUSH1 0x20 ADD PUSH2 0x249 JUMP JUMPDEST PUSH2 0x2C8 PUSH2 0x40A CALLDATASIZE PUSH1 0x4 PUSH2 0x455B JUMP JUMPDEST PUSH2 0x1CD8 JUMP JUMPDEST PUSH2 0x22A PUSH2 0x41D CALLDATASIZE PUSH1 0x4 PUSH2 0x4A38 JUMP JUMPDEST PUSH2 0x1D25 JUMP JUMPDEST PUSH2 0x23F PUSH1 0xB SLOAD DUP2 JUMP JUMPDEST PUSH2 0x23F PUSH2 0x439 CALLDATASIZE PUSH1 0x4 PUSH2 0x4574 JUMP JUMPDEST PUSH2 0x1F59 JUMP JUMPDEST PUSH2 0x2C8 PUSH2 0x44C CALLDATASIZE PUSH1 0x4 PUSH2 0x455B JUMP JUMPDEST PUSH2 0x1F68 JUMP JUMPDEST PUSH2 0x22A PUSH2 0x45F CALLDATASIZE PUSH1 0x4 PUSH2 0x4BEE JUMP JUMPDEST PUSH2 0x1F90 JUMP JUMPDEST PUSH2 0x22A PUSH2 0x472 CALLDATASIZE PUSH1 0x4 PUSH2 0x47AB JUMP JUMPDEST PUSH2 0x2255 JUMP JUMPDEST PUSH2 0x48A PUSH2 0x485 CALLDATASIZE PUSH1 0x4 PUSH2 0x455B JUMP JUMPDEST PUSH2 0x2468 JUMP JUMPDEST PUSH1 0x40 MLOAD PUSH2 0x249 SWAP2 SWAP1 PUSH2 0x4D17 JUMP JUMPDEST PUSH2 0x22A PUSH2 0x4A5 CALLDATASIZE PUSH1 0x4 PUSH2 0x4D9D JUMP JUMPDEST PUSH2 0x274F JUMP JUMPDEST PUSH2 0x4BD PUSH2 0x4B8 CALLDATASIZE PUSH1 0x4 PUSH2 0x455B JUMP JUMPDEST PUSH2 0x27AE JUMP JUMPDEST PUSH1 0x40 MLOAD PUSH2 0x249 SWAP2 SWAP1 PUSH2 0x4DE8 JUMP JUMPDEST PUSH2 0x2C8 PUSH2 0x4D8 CALLDATASIZE PUSH1 0x4 PUSH2 0x455B JUMP JUMPDEST PUSH1 0x6 PUSH1 0x20 MSTORE PUSH0 SWAP1 DUP2 MSTORE PUSH1 0x40 SWAP1 KECCAK256 SLOAD PUSH1 0xFF AND DUP2 JUMP JUMPDEST PUSH2 0x4FF PUSH2 0x4FA CALLDATASIZE PUSH1 0x4 PUSH2 0x455B JUMP JUMPDEST PUSH2 0x2DEC JUMP JUMPDEST PUSH1 0x40 MLOAD PUSH2 0x249 SWAP6 SWAP5 SWAP4 SWAP3 SWAP2 SWAP1 PUSH2 0x4F4E JUMP JUMPDEST PUSH2 0x22A PUSH2 0x51E CALLDATASIZE PUSH1 0x4 PUSH2 0x4BEE JUMP JUMPDEST PUSH2 0x2FB6 JUMP JUMPDEST PUSH2 0x536 PUSH2 0x531 CALLDATASIZE PUSH1 0x4 PUSH2 0x455B JUMP JUMPDEST PUSH2 0x31D7 JUMP JUMPDEST PUSH1 0x40 MLOAD PUSH2 0x249 SWAP3 SWAP2 SWAP1 PUSH2 0x5064 JUMP JUMPDEST PUSH2 0x557 PUSH2 0x552 CALLDATASIZE PUSH1 0x4 PUSH2 0x455B JUMP JUMPDEST PUSH2 0x3ACF JUMP JUMPDEST PUSH1 0x40 MLOAD PUSH2 0x249 SWAP9 SWAP8 SWAP7 SWAP6 SWAP5 SWAP4 SWAP3 SWAP2 SWAP1 PUSH2 0x517B JUMP JUMPDEST PUSH2 0x57E PUSH2 0x579 CALLDATASIZE PUSH1 0x4 PUSH2 0x455B JUMP JUMPDEST PUSH2 0x3D3F JUMP JUMPDEST PUSH1 0x40 MLOAD PUSH2 0x249 SWAP2 SWAP1 PUSH2 0x5200 JUMP JUMPDEST PUSH2 0x59E PUSH2 0x599 CALLDATASIZE PUSH1 0x4 PUSH2 0x4B46 JUMP JUMPDEST PUSH2 0x400D JUMP JUMPDEST PUSH1 0x40 MLOAD PUSH2 0x249 SWAP12 SWAP11 SWAP10 SWAP9 SWAP8 SWAP7 SWAP6 SWAP5 SWAP4 SWAP3 SWAP2 SWAP1 PUSH2 0x5280 JUMP JUMPDEST CALLER PUSH0 SWAP1 DUP2 MSTORE PUSH1 0x20 DUP2 SWAP1 MSTORE PUSH1 0x40 SWAP1 KECCAK256 SLOAD PUSH1 0xFF AND DUP1 PUSH2 0x5DC JUMPI POP PUSH1 0x1 SLOAD PUSH1 0x1 PUSH1 0x1 PUSH1 0xA0 SHL SUB AND CALLER EQ JUMPDEST PUSH2 0x601 JUMPI PUSH1 0x40 MLOAD PUSH3 0x461BCD PUSH1 0xE5 SHL DUP2 MSTORE PUSH1 0x4 ADD PUSH2 0x5F8 SWAP1 PUSH2 0x5366 JUMP JUMPDEST PUSH1 0x40 MLOAD DUP1 SWAP2 SUB SWAP1 REVERT JUMPDEST CALLER PUSH0 SWAP1 DUP2 MSTORE PUSH1 0x20 DUP2 SWAP1 MSTORE PUSH1 0x40 SWAP1 KECCAK256 DUP1 SLOAD PUSH1 0xFF NOT AND PUSH1 0x1 OR SWAP1 SSTORE PUSH1 0x1 PUSH1 0x1 PUSH1 0xA0 SHL SUB DUP2 AND PUSH2 0x662 JUMPI PUSH1 0x40 MLOAD PUSH3 0x461BCD PUSH1 0xE5 SHL DUP2 MSTORE PUSH1 0x20 PUSH1 0x4 DUP3 ADD MSTORE PUSH1 0xF PUSH1 0x24 DUP3 ADD MSTORE PUSH15 0x496E76616C69642041646472657373 PUSH1 0x88 SHL PUSH1 0x44 DUP3 ADD MSTORE PUSH1 0x64 ADD PUSH2 0x5F8 JUMP JUMPDEST PUSH1 0x1 PUSH1 0x1 PUSH1 0xA0 SHL SUB DUP2 AND PUSH0 SWAP1 DUP2 MSTORE PUSH1 0x6 PUSH1 0x20 MSTORE PUSH1 0x40 SWAP1 KECCAK256 SLOAD PUSH1 0xFF AND PUSH2 0x6FE JUMPI PUSH1 0x40 MLOAD PUSH3 0x461BCD PUSH1 0xE5 SHL DUP2 MSTORE PUSH1 0x20 PUSH1 0x4 DUP3 ADD MSTORE PUSH1 0x46 PUSH1 0x24 DUP3 ADD MSTORE PUSH32 0x50726F76696465642061646472657373206D75737420626520616E2041646D69 PUSH1 0x44 DUP3 ADD MSTORE PUSH32 0x6E4163636573734164647265737320746F2072656D6F76652041646D696E4163 PUSH1 0x64 DUP3 ADD MSTORE PUSH6 0x636573732121 PUSH1 0xD0 SHL PUSH1 0x84 DUP3 ADD MSTORE PUSH1 0xA4 ADD PUSH2 0x5F8 JUMP JUMPDEST PUSH1 0x1 PUSH1 0x1 PUSH1 0xA0 SHL SUB AND PUSH0 SWAP1 DUP2 MSTORE PUSH1 0x6 PUSH1 0x20 MSTORE PUSH1 0x40 SWAP1 KECCAK256 DUP1 SLOAD PUSH1 0xFF NOT AND SWAP1 SSTORE JUMP JUMPDEST PUSH0 DUP1 PUSH2 0x729 TIMESTAMP PUSH2 0x1F59 JUMP JUMPDEST SWAP1 POP PUSH0 DUP4 PUSH2 0x739 DUP4 PUSH2 0x7B2 PUSH2 0x53C4 JUMP JUMPDEST PUSH2 0x743 SWAP2 SWAP1 PUSH2 0x53D7 JUMP JUMPDEST SWAP1 POP PUSH0 DUP2 GT PUSH2 0x794 JUMPI PUSH1 0x40 MLOAD PUSH3 0x461BCD PUSH1 0xE5 SHL DUP2 MSTORE PUSH1 0x20 PUSH1 0x4 DUP3 ADD MSTORE PUSH1 0x18 PUSH1 0x24 DUP3 ADD MSTORE PUSH32 0x456E74657220636F727265637420626972746820796561720000000000000000 PUSH1 0x44 DUP3 ADD MSTORE PUSH1 0x64 ADD PUSH2 0x5F8 JUMP JUMPDEST SWAP4 SWAP3 POP POP POP JUMP JUMPDEST CALLER PUSH0 SWAP1 DUP2 MSTORE PUSH1 0x6 PUSH1 0x20 MSTORE PUSH1 0x40 DUP2 KECCAK256 SLOAD PUSH1 0xFF AND ISZERO PUSH2 0x7B6 JUMPI POP PUSH1 0x1 JUMPDEST CALLER PUSH0 SWAP1 DUP2 MSTORE PUSH1 0x6 PUSH1 0x20 MSTORE PUSH1 0x40 SWAP1 KECCAK256 SLOAD PUSH1 0xFF AND PUSH2 0x7E4 JUMPI PUSH1 0x40 MLOAD PUSH3 0x461BCD PUSH1 0xE5 SHL DUP2 MSTORE PUSH1 0x4 ADD PUSH2 0x5F8 SWAP1 PUSH2 0x53EA JUMP JUMPDEST PUSH1 0x1 PUSH1 0x1 PUSH1 0xA0 SHL SUB DUP1 DUP12 AND PUSH0 DUP2 DUP2 MSTORE PUSH1 0x2 PUSH1 0x20 DUP2 SWAP1 MSTORE PUSH1 0x40 SWAP1 SWAP2 KECCAK256 ADD SLOAD SWAP1 SWAP2 AND EQ DUP1 ISZERO PUSH2 0x82D JUMPI POP PUSH1 0x1 PUSH1 0x1 PUSH1 0xA0 SHL SUB DUP1 DUP12 AND PUSH0 DUP2 DUP2 MSTORE PUSH1 0x3 PUSH1 0x20 MSTORE PUSH1 0x40 SWAP1 KECCAK256 PUSH1 0x1 ADD SLOAD SWAP1 SWAP2 AND EQ JUMPDEST PUSH2 0x911 JUMPI PUSH1 0x40 MLOAD PUSH3 0x461BCD PUSH1 0xE5 SHL DUP2 MSTORE PUSH1 0x20 PUSH1 0x4 DUP3 ADD MSTORE PUSH1 0x99 PUSH1 0x24 DUP3 ADD MSTORE PUSH32 0x496E636F72726563742050617469656E742077616C6C65742061646472657373 PUSH1 0x44 DUP3 ADD MSTORE PUSH32 0x206F72205468652050617469656E742064657461696C20737065636966696320 PUSH1 0x64 DUP3 ADD MSTORE PUSH32 0x746F20706572736F6E616C206F722070617374206D65646963616C2068697374 PUSH1 0x84 DUP3 ADD MSTORE PUSH32 0x6F7279206F662074686520616464726573732070726F7669646564206E6F7420 PUSH1 0xA4 DUP3 ADD MSTORE PUSH32 0x617661696C61626C6520696E2074686520636861696E21212000000000000000 PUSH1 0xC4 DUP3 ADD MSTORE PUSH1 0xE4 ADD PUSH2 0x5F8 JUMP JUMPDEST PUSH1 0x1 PUSH1 0x1 PUSH1 0xA0 SHL SUB DUP1 DUP11 AND PUSH0 DUP2 DUP2 MSTORE PUSH1 0x7 PUSH1 0x20 MSTORE PUSH1 0x40 SWAP1 KECCAK256 PUSH1 0x1 ADD SLOAD SWAP1 SWAP2 AND EQ PUSH2 0x9E3 JUMPI PUSH1 0x40 MLOAD PUSH3 0x461BCD PUSH1 0xE5 SHL DUP2 MSTORE PUSH1 0x20 PUSH1 0x4 DUP3 ADD MSTORE PUSH1 0x71 PUSH1 0x24 DUP3 ADD MSTORE PUSH32 0x496E636F72726563742050687973696369616E2077616C6C6574206164647265 PUSH1 0x44 DUP3 ADD MSTORE PUSH32 0x7373206F72205468652050687973696369616E2064657461696C20666F722074 PUSH1 0x64 DUP3 ADD MSTORE PUSH32 0x686520616464726573732070726F7669646564206E6F7420617661696C61626C PUSH1 0x84 DUP3 ADD MSTORE PUSH17 0x329034B7103A34329031B430B4B710909 PUSH1 0x7D SHL PUSH1 0xA4 DUP3 ADD MSTORE PUSH1 0xC4 ADD PUSH2 0x5F8 JUMP JUMPDEST PUSH1 0x4 PUSH0 DUP12 PUSH1 0x1 PUSH1 0x1 PUSH1 0xA0 SHL SUB AND PUSH1 0x1 PUSH1 0x1 PUSH1 0xA0 SHL SUB AND DUP2 MSTORE PUSH1 0x20 ADD SWAP1 DUP2 MSTORE PUSH1 0x20 ADD PUSH0 KECCAK256 PUSH1 0x40 MLOAD DUP1 PUSH2 0x160 ADD PUSH1 0x40 MSTORE DUP1 DUP15 DUP2 MSTORE PUSH1 0x20 ADD DUP14 DUP2 MSTORE PUSH1 0x20 ADD DUP13 PUSH1 0x1 PUSH1 0x1 PUSH1 0xA0 SHL SUB AND DUP2 MSTORE PUSH1 0x20 ADD DUP12 PUSH1 0x1 PUSH1 0x1 PUSH1 0xA0 SHL SUB AND DUP2 MSTORE PUSH1 0x20 ADD DUP11 DUP2 MSTORE PUSH1 0x20 ADD DUP10 DUP2 MSTORE PUSH1 0x20 ADD DUP9 DUP2 MSTORE PUSH1 0x20 ADD DUP8 DUP2 MSTORE PUSH1 0x20 ADD DUP7 DUP2 MSTORE PUSH1 0x20 ADD DUP6 DUP2 MSTORE PUSH1 0x20 ADD DUP5 DUP2 MSTORE POP SWAP1 DUP1 PUSH1 0x1 DUP2 SLOAD ADD DUP1 DUP3 SSTORE DUP1 SWAP2 POP POP PUSH1 0x1 SWAP1 SUB SWAP1 PUSH0 MSTORE PUSH1 0x20 PUSH0 KECCAK256 SWAP1 PUSH1 0xB MUL ADD PUSH0 SWAP1 SWAP2 SWAP1 SWAP2 SWAP1 SWAP2 POP PUSH0 DUP3 ADD MLOAD DUP2 PUSH0 ADD SWAP1 DUP2 PUSH2 0xA9D SWAP2 SWAP1 PUSH2 0x54D4 JUMP JUMPDEST POP PUSH1 0x20 DUP3 ADD MLOAD PUSH1 0x1 DUP3 ADD SWAP1 PUSH2 0xAB2 SWAP1 DUP3 PUSH2 0x54D4 JUMP JUMPDEST POP PUSH1 0x40 DUP3 ADD MLOAD PUSH1 0x2 DUP3 ADD DUP1 SLOAD PUSH1 0x1 PUSH1 0x1 PUSH1 0xA0 SHL SUB SWAP3 DUP4 AND PUSH1 0x1 PUSH1 0x1 PUSH1 0xA0 SHL SUB NOT SWAP2 DUP3 AND OR SWAP1 SWAP2 SSTORE PUSH1 0x60 DUP5 ADD MLOAD PUSH1 0x3 DUP5 ADD DUP1 SLOAD SWAP2 SWAP1 SWAP4 AND SWAP2 AND OR SWAP1 SSTORE PUSH1 0x80 DUP3 ADD MLOAD PUSH1 0x4 DUP3 ADD SWAP1 PUSH2 0xB01 SWAP1 DUP3 PUSH2 0x54D4 JUMP JUMPDEST POP PUSH1 0xA0 DUP3 ADD MLOAD PUSH1 0x5 DUP3 ADD SWAP1 PUSH2 0xB16 SWAP1 DUP3 PUSH2 0x54D4 JUMP JUMPDEST POP PUSH1 0xC0 DUP3 ADD MLOAD PUSH1 0x6 DUP3 ADD SWAP1 PUSH2 0xB2B SWAP1 DUP3 PUSH2 0x54D4 JUMP JUMPDEST POP PUSH1 0xE0 DUP3 ADD MLOAD PUSH1 0x7 DUP3 ADD SWAP1 PUSH2 0xB40 SWAP1 DUP3 PUSH2 0x54D4 JUMP JUMPDEST POP PUSH2 0x100 DUP3 ADD MLOAD PUSH1 0x8 DUP3 ADD SWAP1 PUSH2 0xB56 SWAP1 DUP3 PUSH2 0x54D4 JUMP JUMPDEST POP PUSH2 0x120 DUP3 ADD MLOAD PUSH1 0x9 DUP3 ADD SWAP1 PUSH2 0xB6C SWAP1 DUP3 PUSH2 0x54D4 JUMP JUMPDEST POP PUSH2 0x140 DUP3 ADD MLOAD PUSH1 0xA DUP3 ADD SWAP1 PUSH2 0xB82 SWAP1 DUP3 PUSH2 0x54D4 JUMP JUMPDEST POP POP POP POP POP POP POP POP POP POP POP POP POP POP POP JUMP JUMPDEST PUSH1 0x1 SLOAD PUSH1 0x1 PUSH1 0x1 PUSH1 0xA0 SHL SUB AND CALLER EQ PUSH2 0xBED JUMPI PUSH1 0x40 MLOAD PUSH3 0x461BCD PUSH1 0xE5 SHL DUP2 MSTORE PUSH1 0x20 PUSH1 0x4 DUP3 ADD MSTORE PUSH1 0x1F PUSH1 0x24 DUP3 ADD MSTORE PUSH32 0x41636365737365626C65206F6E6C7920666F722053757065724F776E65727300 PUSH1 0x44 DUP3 ADD MSTORE PUSH1 0x64 ADD PUSH2 0x5F8 JUMP JUMPDEST PUSH1 0x1 PUSH1 0x1 PUSH1 0xA0 SHL SUB AND PUSH0 SWAP1 DUP2 MSTORE PUSH1 0x20 DUP2 SWAP1 MSTORE PUSH1 0x40 SWAP1 KECCAK256 DUP1 SLOAD PUSH1 0xFF NOT AND SWAP1 SSTORE JUMP JUMPDEST CALLER PUSH0 SWAP1 DUP2 MSTORE PUSH1 0x20 DUP2 SWAP1 MSTORE PUSH1 0x40 SWAP1 KECCAK256 SLOAD PUSH1 0xFF AND DUP1 PUSH2 0xC34 JUMPI POP PUSH1 0x1 SLOAD PUSH1 0x1 PUSH1 0x1 PUSH1 0xA0 SHL SUB AND CALLER EQ JUMPDEST PUSH2 0xC50 JUMPI PUSH1 0x40 MLOAD PUSH3 0x461BCD PUSH1 0xE5 SHL DUP2 MSTORE PUSH1 0x4 ADD PUSH2 0x5F8 SWAP1 PUSH2 0x5366 JUMP JUMPDEST PUSH1 0x1 PUSH1 0x1 PUSH1 0xA0 SHL SUB DUP6 AND ISZERO DUP1 ISZERO SWAP1 PUSH2 0xC68 JUMPI POP PUSH0 DUP2 MLOAD GT JUMPDEST DUP1 ISZERO PUSH2 0xC74 JUMPI POP PUSH0 DUP7 MLOAD GT JUMPDEST PUSH2 0xC90 JUMPI PUSH1 0x40 MLOAD PUSH3 0x461BCD PUSH1 0xE5 SHL DUP2 MSTORE PUSH1 0x4 ADD PUSH2 0x5F8 SWAP1 PUSH2 0x5590 JUMP JUMPDEST PUSH1 0x1 PUSH1 0x1 PUSH1 0xA0 SHL SUB DUP1 DUP7 AND PUSH0 DUP2 DUP2 MSTORE PUSH1 0x7 PUSH1 0x20 MSTORE PUSH1 0x40 SWAP1 KECCAK256 PUSH1 0x1 ADD SLOAD SWAP1 SWAP2 AND EQ PUSH2 0xCCC JUMPI PUSH1 0x40 MLOAD PUSH3 0x461BCD PUSH1 0xE5 SHL DUP2 MSTORE PUSH1 0x4 ADD PUSH2 0x5F8 SWAP1 PUSH2 0x55DF JUMP JUMPDEST PUSH1 0x40 DUP1 MLOAD PUSH1 0xC0 DUP2 ADD DUP3 MSTORE DUP8 DUP2 MSTORE PUSH1 0x1 PUSH1 0x1 PUSH1 0xA0 SHL SUB DUP8 AND PUSH1 0x20 DUP1 DUP4 ADD DUP3 SWAP1 MSTORE DUP3 DUP5 ADD DUP9 SWAP1 MSTORE PUSH1 0x60 DUP4 ADD DUP8 SWAP1 MSTORE PUSH1 0x80 DUP4 ADD DUP7 SWAP1 MSTORE PUSH1 0xA0 DUP4 ADD DUP6 SWAP1 MSTORE PUSH0 SWAP2 DUP3 MSTORE PUSH1 0x7 SWAP1 MSTORE SWAP2 SWAP1 SWAP2 KECCAK256 DUP2 MLOAD DUP6 SWAP3 SWAP2 SWAP1 DUP2 SWAP1 PUSH2 0xD24 SWAP1 DUP3 PUSH2 0x54D4 JUMP JUMPDEST POP PUSH1 0x20 DUP3 ADD MLOAD PUSH1 0x1 DUP3 ADD DUP1 SLOAD PUSH1 0x1 PUSH1 0x1 PUSH1 0xA0 SHL SUB NOT AND PUSH1 0x1 PUSH1 0x1 PUSH1 0xA0 SHL SUB SWAP1 SWAP3 AND SWAP2 SWAP1 SWAP2 OR SWAP1 SSTORE PUSH1 0x40 DUP3 ADD MLOAD PUSH1 0x2 DUP3 ADD SWAP1 PUSH2 0xD5F SWAP1 DUP3 PUSH2 0x54D4 JUMP JUMPDEST POP PUSH1 0x60 DUP3 ADD MLOAD PUSH1 0x3 DUP3 ADD SSTORE PUSH1 0x80 DUP3 ADD MLOAD PUSH1 0x4 DUP3 ADD SSTORE PUSH1 0xA0 DUP3 ADD MLOAD PUSH1 0x5 DUP3 ADD SWAP1 PUSH2 0xD88 SWAP1 DUP3 PUSH2 0x54D4 JUMP JUMPDEST POP POP POP POP POP POP POP POP POP POP JUMP JUMPDEST PUSH1 0x2 PUSH1 0x20 MSTORE PUSH0 SWAP1 DUP2 MSTORE PUSH1 0x40 SWAP1 KECCAK256 DUP1 SLOAD DUP2 SWAP1 PUSH2 0xDAE SWAP1 PUSH2 0x5452 JUMP JUMPDEST DUP1 PUSH1 0x1F ADD PUSH1 0x20 DUP1 SWAP2 DIV MUL PUSH1 0x20 ADD PUSH1 0x40 MLOAD SWAP1 DUP2 ADD PUSH1 0x40 MSTORE DUP1 SWAP3 SWAP2 SWAP1 DUP2 DUP2 MSTORE PUSH1 0x20 ADD DUP3 DUP1 SLOAD PUSH2 0xDDA SWAP1 PUSH2 0x5452 JUMP JUMPDEST DUP1 ISZERO PUSH2 0xE25 JUMPI DUP1 PUSH1 0x1F LT PUSH2 0xDFC JUMPI PUSH2 0x100 DUP1 DUP4 SLOAD DIV MUL DUP4 MSTORE SWAP2 PUSH1 0x20 ADD SWAP2 PUSH2 0xE25 JUMP JUMPDEST DUP3 ADD SWAP2 SWAP1 PUSH0 MSTORE PUSH1 0x20 PUSH0 KECCAK256 SWAP1 JUMPDEST DUP2 SLOAD DUP2 MSTORE SWAP1 PUSH1 0x1 ADD SWAP1 PUSH1 0x20 ADD DUP1 DUP4 GT PUSH2 0xE08 JUMPI DUP3 SWAP1 SUB PUSH1 0x1F AND DUP3 ADD SWAP2 JUMPDEST POP POP POP POP POP SWAP1 DUP1 PUSH1 0x1 ADD DUP1 SLOAD PUSH2 0xE3A SWAP1 PUSH2 0x5452 JUMP JUMPDEST DUP1 PUSH1 0x1F ADD PUSH1 0x20 DUP1 SWAP2 DIV MUL PUSH1 0x20 ADD PUSH1 0x40 MLOAD SWAP1 DUP2 ADD PUSH1 0x40 MSTORE DUP1 SWAP3 SWAP2 SWAP1 DUP2 DUP2 MSTORE PUSH1 0x20 ADD DUP3 DUP1 SLOAD PUSH2 0xE66 SWAP1 PUSH2 0x5452 JUMP JUMPDEST DUP1 ISZERO PUSH2 0xEB1 JUMPI DUP1 PUSH1 0x1F LT PUSH2 0xE88 JUMPI PUSH2 0x100 DUP1 DUP4 SLOAD DIV MUL DUP4 MSTORE SWAP2 PUSH1 0x20 ADD SWAP2 PUSH2 0xEB1 JUMP JUMPDEST DUP3 ADD SWAP2 SWAP1 PUSH0 MSTORE PUSH1 0x20 PUSH0 KECCAK256 SWAP1 JUMPDEST DUP2 SLOAD DUP2 MSTORE SWAP1 PUSH1 0x1 ADD SWAP1 PUSH1 0x20 ADD DUP1 DUP4 GT PUSH2 0xE94 JUMPI DUP3 SWAP1 SUB PUSH1 0x1F AND DUP3 ADD SWAP2 JUMPDEST POP POP POP PUSH1 0x2 DUP5 ADD SLOAD PUSH1 0x3 DUP6 ADD DUP1 SLOAD SWAP5 SWAP6 PUSH1 0x1 PUSH1 0x1 PUSH1 0xA0 SHL SUB SWAP1 SWAP3 AND SWAP5 SWAP2 SWAP4 POP SWAP2 POP PUSH2 0xEDB SWAP1 PUSH2 0x5452 JUMP JUMPDEST DUP1 PUSH1 0x1F ADD PUSH1 0x20 DUP1 SWAP2 DIV MUL PUSH1 0x20 ADD PUSH1 0x40 MLOAD SWAP1 DUP2 ADD PUSH1 0x40 MSTORE DUP1 SWAP3 SWAP2 SWAP1 DUP2 DUP2 MSTORE PUSH1 0x20 ADD DUP3 DUP1 SLOAD PUSH2 0xF07 SWAP1 PUSH2 0x5452 JUMP JUMPDEST DUP1 ISZERO PUSH2 0xF52 JUMPI DUP1 PUSH1 0x1F LT PUSH2 0xF29 JUMPI PUSH2 0x100 DUP1 DUP4 SLOAD DIV MUL DUP4 MSTORE SWAP2 PUSH1 0x20 ADD SWAP2 PUSH2 0xF52 JUMP JUMPDEST DUP3 ADD SWAP2 SWAP1 PUSH0 MSTORE PUSH1 0x20 PUSH0 KECCAK256 SWAP1 JUMPDEST DUP2 SLOAD DUP2 MSTORE SWAP1 PUSH1 0x1 ADD SWAP1 PUSH1 0x20 ADD DUP1 DUP4 GT PUSH2 0xF35 JUMPI DUP3 SWAP1 SUB PUSH1 0x1F AND DUP3 ADD SWAP2 JUMPDEST POP POP POP POP POP SWAP1 DUP1 PUSH1 0x4 ADD DUP1 SLOAD PUSH2 0xF67 SWAP1 PUSH2 0x5452 JUMP JUMPDEST DUP1 PUSH1 0x1F ADD PUSH1 0x20 DUP1 SWAP2 DIV MUL PUSH1 0x20 ADD PUSH1 0x40 MLOAD SWAP1 DUP2 ADD PUSH1 0x40 MSTORE DUP1 SWAP3 SWAP2 SWAP1 DUP2 DUP2 MSTORE PUSH1 0x20 ADD DUP3 DUP1 SLOAD PUSH2 0xF93 SWAP1 PUSH2 0x5452 JUMP JUMPDEST DUP1 ISZERO PUSH2 0xFDE JUMPI DUP1 PUSH1 0x1F LT PUSH2 0xFB5 JUMPI PUSH2 0x100 DUP1 DUP4 SLOAD DIV MUL DUP4 MSTORE SWAP2 PUSH1 0x20 ADD SWAP2 PUSH2 0xFDE JUMP JUMPDEST DUP3 ADD SWAP2 SWAP1 PUSH0 MSTORE PUSH1 0x20 PUSH0 KECCAK256 SWAP1 JUMPDEST DUP2 SLOAD DUP2 MSTORE SWAP1 PUSH1 0x1 ADD SWAP1 PUSH1 0x20 ADD DUP1 DUP4 GT PUSH2 0xFC1 JUMPI DUP3 SWAP1 SUB PUSH1 0x1F AND DUP3 ADD SWAP2 JUMPDEST POP POP POP POP POP SWAP1 DUP1 PUSH1 0x5 ADD DUP1 SLOAD PUSH2 0xFF3 SWAP1 PUSH2 0x5452 JUMP JUMPDEST DUP1 PUSH1 0x1F ADD PUSH1 0x20 DUP1 SWAP2 DIV MUL PUSH1 0x20 ADD PUSH1 0x40 MLOAD SWAP1 DUP2 ADD PUSH1 0x40 MSTORE DUP1 SWAP3 SWAP2 SWAP1 DUP2 DUP2 MSTORE PUSH1 0x20 ADD DUP3 DUP1 SLOAD PUSH2 0x101F SWAP1 PUSH2 0x5452 JUMP JUMPDEST DUP1 ISZERO PUSH2 0x106A JUMPI DUP1 PUSH1 0x1F LT PUSH2 0x1041 JUMPI PUSH2 0x100 DUP1 DUP4 SLOAD DIV MUL DUP4 MSTORE SWAP2 PUSH1 0x20 ADD SWAP2 PUSH2 0x106A JUMP JUMPDEST DUP3 ADD SWAP2 SWAP1 PUSH0 MSTORE PUSH1 0x20 PUSH0 KECCAK256 SWAP1 JUMPDEST DUP2 SLOAD DUP2 MSTORE SWAP1 PUSH1 0x1 ADD SWAP1 PUSH1 0x20 ADD DUP1 DUP4 GT PUSH2 0x104D JUMPI DUP3 SWAP1 SUB PUSH1 0x1F AND DUP3 ADD SWAP2 JUMPDEST POP POP POP POP POP SWAP1 DUP1 PUSH1 0x6 ADD SLOAD SWAP1 DUP1 PUSH1 0x7 ADD SLOAD SWAP1 DUP1 PUSH1 0x8 ADD DUP1 SLOAD PUSH2 0x108B SWAP1 PUSH2 0x5452 JUMP JUMPDEST DUP1 PUSH1 0x1F ADD PUSH1 0x20 DUP1 SWAP2 DIV MUL PUSH1 0x20 ADD PUSH1 0x40 MLOAD SWAP1 DUP2 ADD PUSH1 0x40 MSTORE DUP1 SWAP3 SWAP2 SWAP1 DUP2 DUP2 MSTORE PUSH1 0x20 ADD DUP3 DUP1 SLOAD PUSH2 0x10B7 SWAP1 PUSH2 0x5452 JUMP JUMPDEST DUP1 ISZERO PUSH2 0x1102 JUMPI DUP1 PUSH1 0x1F LT PUSH2 0x10D9 JUMPI PUSH2 0x100 DUP1 DUP4 SLOAD DIV MUL DUP4 MSTORE SWAP2 PUSH1 0x20 ADD SWAP2 PUSH2 0x1102 JUMP JUMPDEST DUP3 ADD SWAP2 SWAP1 PUSH0 MSTORE PUSH1 0x20 PUSH0 KECCAK256 SWAP1 JUMPDEST DUP2 SLOAD DUP2 MSTORE SWAP1 PUSH1 0x1 ADD SWAP1 PUSH1 0x20 ADD DUP1 DUP4 GT PUSH2 0x10E5 JUMPI DUP3 SWAP1 SUB PUSH1 0x1F AND DUP3 ADD SWAP2 JUMPDEST POP POP POP POP POP SWAP1 DUP1 PUSH1 0x9 ADD SLOAD SWAP1 DUP1 PUSH1 0xA ADD SLOAD SWAP1 POP DUP12 JUMP JUMPDEST PUSH1 0x1 PUSH1 0x1 PUSH1 0xA0 SHL SUB DUP2 AND PUSH0 SWAP1 DUP2 MSTORE PUSH1 0x20 DUP2 SWAP1 MSTORE PUSH1 0x40 DUP2 KECCAK256 SLOAD PUSH1 0xFF AND ISZERO PUSH2 0x1140 JUMPI POP PUSH1 0x1 SWAP2 SWAP1 POP JUMP JUMPDEST SWAP2 SWAP1 POP JUMP JUMPDEST CALLER PUSH0 SWAP1 DUP2 MSTORE PUSH1 0x6 PUSH1 0x20 MSTORE PUSH1 0x40 DUP2 KECCAK256 SLOAD PUSH1 0xFF AND ISZERO PUSH2 0x1160 JUMPI POP PUSH1 0x1 JUMPDEST CALLER PUSH0 SWAP1 DUP2 MSTORE PUSH1 0x6 PUSH1 0x20 MSTORE PUSH1 0x40 SWAP1 KECCAK256 SLOAD PUSH1 0xFF AND PUSH2 0x118E JUMPI PUSH1 0x40 MLOAD PUSH3 0x461BCD PUSH1 0xE5 SHL DUP2 MSTORE PUSH1 0x4 ADD PUSH2 0x5F8 SWAP1 PUSH2 0x53EA JUMP JUMPDEST PUSH1 0x1 PUSH1 0x1 PUSH1 0xA0 SHL SUB DUP9 AND PUSH2 0x11B4 JUMPI PUSH1 0x40 MLOAD PUSH3 0x461BCD PUSH1 0xE5 SHL DUP2 MSTORE PUSH1 0x4 ADD PUSH2 0x5F8 SWAP1 PUSH2 0x5677 JUMP JUMPDEST PUSH1 0x1 PUSH1 0x1 PUSH1 0xA0 SHL SUB DUP1 DUP10 AND PUSH0 DUP2 DUP2 MSTORE PUSH1 0x2 PUSH1 0x20 DUP2 SWAP1 MSTORE PUSH1 0x40 SWAP1 SWAP2 KECCAK256 ADD SLOAD SWAP1 SWAP2 AND EQ PUSH2 0x11F1 JUMPI PUSH1 0x40 MLOAD PUSH3 0x461BCD PUSH1 0xE5 SHL DUP2 MSTORE PUSH1 0x4 ADD PUSH2 0x5F8 SWAP1 PUSH2 0x56BD JUMP JUMPDEST PUSH1 0x40 DUP1 MLOAD PUSH2 0x100 DUP2 ADD DUP3 MSTORE DUP11 DUP2 MSTORE PUSH1 0x1 PUSH1 0x1 PUSH1 0xA0 SHL SUB DUP11 AND PUSH1 0x20 DUP1 DUP4 ADD DUP3 SWAP1 MSTORE DUP11 ISZERO ISZERO DUP4 DUP6 ADD MSTORE DUP10 ISZERO ISZERO PUSH1 0x60 DUP5 ADD MSTORE DUP9 ISZERO ISZERO PUSH1 0x80 DUP5 ADD MSTORE PUSH1 0xA0 DUP4 ADD DUP9 SWAP1 MSTORE PUSH1 0xC0 DUP4 ADD DUP8 SWAP1 MSTORE PUSH1 0xE0 DUP4 ADD DUP7 SWAP1 MSTORE PUSH0 SWAP2 DUP3 MSTORE PUSH1 0x3 SWAP1 MSTORE SWAP2 SWAP1 SWAP2 KECCAK256 DUP2 MLOAD DUP2 SWAP1 PUSH2 0x1257 SWAP1 DUP3 PUSH2 0x54D4 JUMP JUMPDEST POP PUSH1 0x20 DUP3 ADD MLOAD PUSH1 0x1 DUP3 ADD DUP1 SLOAD PUSH1 0x40 DUP6 ADD MLOAD PUSH1 0x60 DUP7 ADD MLOAD PUSH1 0x80 DUP8 ADD MLOAD ISZERO ISZERO PUSH1 0x1 PUSH1 0xB0 SHL MUL PUSH1 0xFF PUSH1 0xB0 SHL NOT SWAP2 ISZERO ISZERO PUSH1 0x1 PUSH1 0xA8 SHL MUL SWAP2 SWAP1 SWAP2 AND PUSH2 0xFFFF PUSH1 0xA8 SHL NOT SWAP3 ISZERO ISZERO PUSH1 0x1 PUSH1 0xA0 SHL MUL PUSH1 0x1 PUSH1 0x1 PUSH1 0xA8 SHL SUB NOT SWAP1 SWAP5 AND PUSH1 0x1 PUSH1 0x1 PUSH1 0xA0 SHL SUB SWAP1 SWAP7 AND SWAP6 SWAP1 SWAP6 OR SWAP3 SWAP1 SWAP3 OR AND SWAP3 SWAP1 SWAP3 OR SWAP2 SWAP1 SWAP2 OR SWAP1 SSTORE PUSH1 0xA0 DUP3 ADD MLOAD PUSH1 0x2 DUP3 ADD SWAP1 PUSH2 0x12DB SWAP1 DUP3 PUSH2 0x54D4 JUMP JUMPDEST POP PUSH1 0xC0 DUP3 ADD MLOAD PUSH1 0x3 DUP3 ADD SWAP1 PUSH2 0x12F0 SWAP1 DUP3 PUSH2 0x54D4 JUMP JUMPDEST POP PUSH1 0xE0 DUP3 ADD MLOAD PUSH1 0x4 DUP3 ADD SWAP1 PUSH2 0x1305 SWAP1 DUP3 PUSH2 0x54D4 JUMP JUMPDEST POP POP POP POP POP POP POP POP POP POP POP POP JUMP JUMPDEST CALLER PUSH0 SWAP1 DUP2 MSTORE PUSH1 0x20 DUP2 SWAP1 MSTORE PUSH1 0x40 SWAP1 KECCAK256 SLOAD PUSH1 0xFF AND DUP1 PUSH2 0x133A JUMPI POP PUSH1 0x1 SLOAD PUSH1 0x1 PUSH1 0x1 PUSH1 0xA0 SHL SUB AND CALLER EQ JUMPDEST PUSH2 0x1356 JUMPI PUSH1 0x40 MLOAD PUSH3 0x461BCD PUSH1 0xE5 SHL DUP2 MSTORE PUSH1 0x4 ADD PUSH2 0x5F8 SWAP1 PUSH2 0x5366 JUMP JUMPDEST PUSH1 0x1 PUSH1 0x1 PUSH1 0xA0 SHL SUB DUP6 AND ISZERO DUP1 ISZERO SWAP1 PUSH2 0x136E JUMPI POP PUSH0 DUP2 MLOAD GT JUMPDEST DUP1 ISZERO PUSH2 0x137A JUMPI POP PUSH0 DUP5 MLOAD GT JUMPDEST DUP1 ISZERO PUSH2 0x1386 JUMPI POP PUSH0 DUP4 MLOAD GT JUMPDEST PUSH2 0x13CA JUMPI PUSH1 0x40 MLOAD PUSH3 0x461BCD PUSH1 0xE5 SHL DUP2 MSTORE PUSH1 0x20 PUSH1 0x4 DUP3 ADD MSTORE PUSH1 0x15 PUSH1 0x24 DUP3 ADD MSTORE PUSH21 0x656E74657220636F72726563742064657461696C73 PUSH1 0x58 SHL PUSH1 0x44 DUP3 ADD MSTORE PUSH1 0x64 ADD PUSH2 0x5F8 JUMP JUMPDEST PUSH1 0x1 PUSH1 0x1 PUSH1 0xA0 SHL SUB DUP1 DUP7 AND PUSH0 DUP2 DUP2 MSTORE PUSH1 0x8 PUSH1 0x20 MSTORE PUSH1 0x40 SWAP1 KECCAK256 SLOAD SWAP1 SWAP2 AND EQ PUSH2 0x1403 JUMPI PUSH1 0x40 MLOAD PUSH3 0x461BCD PUSH1 0xE5 SHL DUP2 MSTORE PUSH1 0x4 ADD PUSH2 0x5F8 SWAP1 PUSH2 0x55DF JUMP JUMPDEST PUSH1 0x40 DUP1 MLOAD PUSH1 0xA0 DUP2 ADD DUP3 MSTORE PUSH1 0x1 PUSH1 0x1 PUSH1 0xA0 SHL SUB DUP8 DUP2 AND DUP1 DUP4 MSTORE PUSH1 0x20 DUP1 DUP5 ADD DUP7 DUP2 MSTORE DUP5 DUP7 ADD DUP11 SWAP1 MSTORE PUSH1 0x60 DUP6 ADD DUP10 SWAP1 MSTORE PUSH1 0x80 DUP6 ADD DUP9 SWAP1 MSTORE PUSH0 SWAP3 DUP4 MSTORE PUSH1 0x8 SWAP1 SWAP2 MSTORE SWAP4 SWAP1 KECCAK256 DUP3 MLOAD DUP2 SLOAD PUSH1 0x1 PUSH1 0x1 PUSH1 0xA0 SHL SUB NOT AND SWAP3 AND SWAP2 SWAP1 SWAP2 OR DUP2 SSTORE SWAP2 MLOAD SWAP1 SWAP2 SWAP1 PUSH1 0x1 DUP3 ADD SWAP1 PUSH2 0x146D SWAP1 DUP3 PUSH2 0x54D4 JUMP JUMPDEST POP PUSH1 0x40 DUP3 ADD MLOAD PUSH1 0x2 DUP3 ADD SWAP1 PUSH2 0x1482 SWAP1 DUP3 PUSH2 0x54D4 JUMP JUMPDEST POP PUSH1 0x60 DUP3 ADD MLOAD PUSH1 0x3 DUP3 ADD SWAP1 PUSH2 0x1497 SWAP1 DUP3 PUSH2 0x54D4 JUMP JUMPDEST POP PUSH1 0x80 DUP3 ADD MLOAD DUP2 PUSH1 0x4 ADD SSTORE SWAP1 POP POP POP POP POP POP POP JUMP JUMPDEST PUSH1 0x1 PUSH1 0x1 PUSH1 0xA0 SHL SUB DUP2 AND PUSH0 SWAP1 DUP2 MSTORE PUSH1 0x5 PUSH1 0x20 SWAP1 DUP2 MSTORE PUSH1 0x40 DUP1 DUP4 KECCAK256 DUP1 SLOAD DUP3 MLOAD DUP2 DUP6 MUL DUP2 ADD DUP6 ADD SWAP1 SWAP4 MSTORE DUP1 DUP4 MSTORE PUSH1 0x60 SWAP5 SWAP3 SWAP4 SWAP2 SWAP3 SWAP1 SWAP2 DUP5 ADD JUMPDEST DUP3 DUP3 LT ISZERO PUSH2 0x15AC JUMPI DUP4 DUP3 SWAP1 PUSH0 MSTORE PUSH1 0x20 PUSH0 KECCAK256 SWAP1 PUSH1 0x2 MUL ADD PUSH1 0x40 MLOAD DUP1 PUSH1 0x40 ADD PUSH1 0x40 MSTORE SWAP1 DUP2 PUSH0 DUP3 ADD SLOAD DUP2 MSTORE PUSH1 0x20 ADD PUSH1 0x1 DUP3 ADD DUP1 SLOAD PUSH2 0x151D SWAP1 PUSH2 0x5452 JUMP JUMPDEST DUP1 PUSH1 0x1F ADD PUSH1 0x20 DUP1 SWAP2 DIV MUL PUSH1 0x20 ADD PUSH1 0x40 MLOAD SWAP1 DUP2 ADD PUSH1 0x40 MSTORE DUP1 SWAP3 SWAP2 SWAP1 DUP2 DUP2 MSTORE PUSH1 0x20 ADD DUP3 DUP1 SLOAD PUSH2 0x1549 SWAP1 PUSH2 0x5452 JUMP JUMPDEST DUP1 ISZERO PUSH2 0x1594 JUMPI DUP1 PUSH1 0x1F LT PUSH2 0x156B JUMPI PUSH2 0x100 DUP1 DUP4 SLOAD DIV MUL DUP4 MSTORE SWAP2 PUSH1 0x20 ADD SWAP2 PUSH2 0x1594 JUMP JUMPDEST DUP3 ADD SWAP2 SWAP1 PUSH0 MSTORE PUSH1 0x20 PUSH0 KECCAK256 SWAP1 JUMPDEST DUP2 SLOAD DUP2 MSTORE SWAP1 PUSH1 0x1 ADD SWAP1 PUSH1 0x20 ADD DUP1 DUP4 GT PUSH2 0x1577 JUMPI DUP3 SWAP1 SUB PUSH1 0x1F AND DUP3 ADD SWAP2 JUMPDEST POP POP POP POP POP DUP2 MSTORE POP POP DUP2 MSTORE PUSH1 0x20 ADD SWAP1 PUSH1 0x1 ADD SWAP1 PUSH2 0x14E3 JUMP JUMPDEST POP POP POP POP SWAP1 POP SWAP2 SWAP1 POP JUMP JUMPDEST CALLER PUSH0 SWAP1 DUP2 MSTORE PUSH1 0x6 PUSH1 0x20 MSTORE PUSH1 0x40 DUP2 KECCAK256 SLOAD PUSH1 0xFF AND ISZERO PUSH2 0x15D2 JUMPI POP PUSH1 0x1 JUMPDEST CALLER PUSH0 SWAP1 DUP2 MSTORE PUSH1 0x6 PUSH1 0x20 MSTORE PUSH1 0x40 SWAP1 KECCAK256 SLOAD PUSH1 0xFF AND PUSH2 0x1600 JUMPI PUSH1 0x40 MLOAD PUSH3 0x461BCD PUSH1 0xE5 SHL DUP2 MSTORE PUSH1 0x4 ADD PUSH2 0x5F8 SWAP1 PUSH2 0x53EA JUMP JUMPDEST PUSH1 0x1 PUSH1 0x1 PUSH1 0xA0 SHL SUB DUP1 DUP10 AND PUSH0 DUP2 DUP2 MSTORE PUSH1 0x3 PUSH1 0x20 MSTORE PUSH1 0x40 SWAP1 KECCAK256 PUSH1 0x1 ADD SLOAD SWAP1 SWAP2 AND SUB PUSH2 0x16A5 JUMPI PUSH1 0x40 MLOAD PUSH3 0x461BCD PUSH1 0xE5 SHL DUP2 MSTORE PUSH1 0x20 PUSH1 0x4 DUP3 ADD MSTORE PUSH1 0x4A PUSH1 0x24 DUP3 ADD MSTORE PUSH32 0x50617469656E74206D65646963616C2064657461696C7320616C726561647920 PUSH1 0x44 DUP3 ADD MSTORE PUSH32 0x657869737421212E204B696E646C792065646974207468652064657461696C73 PUSH1 0x64 DUP3 ADD MSTORE PUSH10 0x81A59881B9959591959 PUSH1 0xB2 SHL PUSH1 0x84 DUP3 ADD MSTORE PUSH1 0xA4 ADD PUSH2 0x5F8 JUMP JUMPDEST PUSH1 0x1 PUSH1 0x1 PUSH1 0xA0 SHL SUB DUP9 AND PUSH2 0x16CB JUMPI PUSH1 0x40 MLOAD PUSH3 0x461BCD PUSH1 0xE5 SHL DUP2 MSTORE PUSH1 0x4 ADD PUSH2 0x5F8 SWAP1 PUSH2 0x5677 JUMP JUMPDEST PUSH1 0x40 DUP1 MLOAD PUSH2 0x100 DUP2 ADD DUP3 MSTORE DUP11 DUP2 MSTORE PUSH1 0x1 PUSH1 0x1 PUSH1 0xA0 SHL SUB DUP11 AND PUSH1 0x20 DUP1 DUP4 ADD DUP3 SWAP1 MSTORE DUP11 ISZERO ISZERO DUP4 DUP6 ADD MSTORE DUP10 ISZERO ISZERO PUSH1 0x60 DUP5 ADD MSTORE DUP9 ISZERO ISZERO PUSH1 0x80 DUP5 ADD MSTORE PUSH1 0xA0 DUP4 ADD DUP9 SWAP1 MSTORE PUSH1 0xC0 DUP4 ADD DUP8 SWAP1 MSTORE PUSH1 0xE0 DUP4 ADD DUP7 SWAP1 MSTORE PUSH0 SWAP2 DUP3 MSTORE PUSH1 0x3 SWAP1 MSTORE SWAP2 SWAP1 SWAP2 KECCAK256 DUP2 MLOAD DUP2 SWAP1 PUSH2 0x1731 SWAP1 DUP3 PUSH2 0x54D4 JUMP JUMPDEST POP PUSH1 0x20 DUP3 ADD MLOAD PUSH1 0x1 DUP3 ADD DUP1 SLOAD PUSH1 0x40 DUP6 ADD MLOAD PUSH1 0x60 DUP7 ADD MLOAD PUSH1 0x80 DUP8 ADD MLOAD ISZERO ISZERO PUSH1 0x1 PUSH1 0xB0 SHL MUL PUSH1 0xFF PUSH1 0xB0 SHL NOT SWAP2 ISZERO ISZERO PUSH1 0x1 PUSH1 0xA8 SHL MUL SWAP2 SWAP1 SWAP2 AND PUSH2 0xFFFF PUSH1 0xA8 SHL NOT SWAP3 ISZERO ISZERO PUSH1 0x1 PUSH1 0xA0 SHL MUL PUSH1 0x1 PUSH1 0x1 PUSH1 0xA8 SHL SUB NOT SWAP1 SWAP5 AND PUSH1 0x1 PUSH1 0x1 PUSH1 0xA0 SHL SUB SWAP1 SWAP7 AND SWAP6 SWAP1 SWAP6 OR SWAP3 SWAP1 SWAP3 OR AND SWAP3 SWAP1 SWAP3 OR SWAP2 SWAP1 SWAP2 OR SWAP1 SSTORE PUSH1 0xA0 DUP3 ADD MLOAD PUSH1 0x2 DUP3 ADD SWAP1 PUSH2 0x17B5 SWAP1 DUP3 PUSH2 0x54D4 JUMP JUMPDEST POP PUSH1 0xC0 DUP3 ADD MLOAD PUSH1 0x3 DUP3 ADD SWAP1 PUSH2 0x17CA SWAP1 DUP3 PUSH2 0x54D4 JUMP JUMPDEST POP PUSH1 0xE0 DUP3 ADD MLOAD PUSH1 0x4 DUP3 ADD SWAP1 PUSH2 0x17DF SWAP1 DUP3 PUSH2 0x54D4 JUMP JUMPDEST POP POP POP PUSH1 0x1 PUSH1 0x1 PUSH1 0xA0 SHL SUB DUP1 DUP10 AND PUSH0 DUP2 DUP2 MSTORE PUSH1 0x2 PUSH1 0x20 DUP2 SWAP1 MSTORE PUSH1 0x40 SWAP1 SWAP2 KECCAK256 ADD SLOAD SWAP1 SWAP2 AND SUB PUSH2 0x181C JUMPI PUSH1 0xB DUP1 SLOAD SWAP1 PUSH0 PUSH2 0x1816 DUP4 PUSH2 0x5755 JUMP JUMPDEST SWAP2 SWAP1 POP SSTORE POP JUMPDEST POP POP POP POP POP POP POP POP POP JUMP JUMPDEST CALLER PUSH0 SWAP1 DUP2 MSTORE PUSH1 0x20 DUP2 SWAP1 MSTORE PUSH1 0x40 SWAP1 KECCAK256 SLOAD PUSH1 0xFF AND DUP1 PUSH2 0x184E JUMPI POP PUSH1 0x1 SLOAD PUSH1 0x1 PUSH1 0x1 PUSH1 0xA0 SHL SUB AND CALLER EQ JUMPDEST PUSH2 0x186A JUMPI PUSH1 0x40 MLOAD PUSH3 0x461BCD PUSH1 0xE5 SHL DUP2 MSTORE PUSH1 0x4 ADD PUSH2 0x5F8 SWAP1 PUSH2 0x5366 JUMP JUMPDEST CALLER PUSH0 SWAP1 DUP2 MSTORE PUSH1 0x20 DUP2 SWAP1 MSTORE PUSH1 0x40 SWAP1 KECCAK256 SLOAD PUSH1 0xFF AND PUSH2 0x18DF JUMPI PUSH1 0x40 MLOAD PUSH3 0x461BCD PUSH1 0xE5 SHL DUP2 MSTORE PUSH1 0x20 PUSH1 0x4 DUP3 ADD MSTORE PUSH1 0x2E PUSH1 0x24 DUP3 ADD MSTORE PUSH32 0x4F6E6C79206F776E6572206861732070726976696C65676520746F2061646420 PUSH1 0x44 DUP3 ADD MSTORE PUSH14 0x6F776E6572206163636573732121 PUSH1 0x90 SHL PUSH1 0x64 DUP3 ADD MSTORE PUSH1 0x84 ADD PUSH2 0x5F8 JUMP JUMPDEST PUSH1 0x1 PUSH1 0x1 PUSH1 0xA0 SHL SUB DUP2 AND PUSH0 SWAP1 DUP2 MSTORE PUSH1 0x6 PUSH1 0x20 MSTORE PUSH1 0x40 SWAP1 KECCAK256 SLOAD PUSH1 0xFF AND ISZERO PUSH2 0x1947 JUMPI PUSH1 0x40 MLOAD PUSH3 0x461BCD PUSH1 0xE5 SHL DUP2 MSTORE PUSH1 0x20 PUSH1 0x4 DUP3 ADD DUP2 SWAP1 MSTORE PUSH1 0x24 DUP3 ADD MSTORE PUSH32 0x4164647265737320616C7265616479206861732061646D696E20616363657373 PUSH1 0x44 DUP3 ADD MSTORE PUSH1 0x64 ADD PUSH2 0x5F8 JUMP JUMPDEST PUSH1 0x1 PUSH1 0x1 PUSH1 0xA0 SHL SUB DUP2 AND PUSH2 0x198F JUMPI PUSH1 0x40 MLOAD PUSH3 0x461BCD PUSH1 0xE5 SHL DUP2 MSTORE PUSH1 0x20 PUSH1 0x4 DUP3 ADD MSTORE PUSH1 0xF PUSH1 0x24 DUP3 ADD MSTORE PUSH15 0x496E76616C69642041646472657373 PUSH1 0x88 SHL PUSH1 0x44 DUP3 ADD MSTORE PUSH1 0x64 ADD PUSH2 0x5F8 JUMP JUMPDEST PUSH1 0x1 PUSH1 0x1 PUSH1 0xA0 SHL SUB DUP2 AND PUSH0 SWAP1 DUP2 MSTORE PUSH1 0x6 PUSH1 0x20 MSTORE PUSH1 0x40 DUP2 KECCAK256 DUP1 SLOAD PUSH1 0xFF NOT AND PUSH1 0x1 OR SWAP1 SSTORE PUSH1 0xA DUP1 SLOAD SWAP2 PUSH2 0x19BF DUP4 PUSH2 0x5755 JUMP JUMPDEST SWAP2 SWAP1 POP SSTORE POP POP JUMP JUMPDEST PUSH1 0x5 PUSH1 0x20 MSTORE DUP2 PUSH0 MSTORE PUSH1 0x40 PUSH0 KECCAK256 DUP2 DUP2 SLOAD DUP2 LT PUSH2 0x19E0 JUMPI PUSH0 DUP1 REVERT JUMPDEST SWAP1 PUSH0 MSTORE PUSH1 0x20 PUSH0 KECCAK256 SWAP1 PUSH1 0x2 MUL ADD PUSH0 SWAP2 POP SWAP2 POP POP DUP1 PUSH0 ADD SLOAD SWAP1 DUP1 PUSH1 0x1 ADD DUP1 SLOAD PUSH2 0x1A06 SWAP1 PUSH2 0x5452 JUMP JUMPDEST DUP1 PUSH1 0x1F ADD PUSH1 0x20 DUP1 SWAP2 DIV MUL PUSH1 0x20 ADD PUSH1 0x40 MLOAD SWAP1 DUP2 ADD PUSH1 0x40 MSTORE DUP1 SWAP3 SWAP2 SWAP1 DUP2 DUP2 MSTORE PUSH1 0x20 ADD DUP3 DUP1 SLOAD PUSH2 0x1A32 SWAP1 PUSH2 0x5452 JUMP JUMPDEST DUP1 ISZERO PUSH2 0x1A7D JUMPI DUP1 PUSH1 0x1F LT PUSH2 0x1A54 JUMPI PUSH2 0x100 DUP1 DUP4 SLOAD DIV MUL DUP4 MSTORE SWAP2 PUSH1 0x20 ADD SWAP2 PUSH2 0x1A7D JUMP JUMPDEST DUP3 ADD SWAP2 SWAP1 PUSH0 MSTORE PUSH1 0x20 PUSH0 KECCAK256 SWAP1 JUMPDEST DUP2 SLOAD DUP2 MSTORE SWAP1 PUSH1 0x1 ADD SWAP1 PUSH1 0x20 ADD DUP1 DUP4 GT PUSH2 0x1A60 JUMPI DUP3 SWAP1 SUB PUSH1 0x1F AND DUP3 ADD SWAP2 JUMPDEST POP POP POP POP POP SWAP1 POP DUP3 JUMP JUMPDEST PUSH1 0x1 SLOAD PUSH1 0x1 PUSH1 0x1 PUSH1 0xA0 SHL SUB AND CALLER EQ PUSH2 0x1AE1 JUMPI PUSH1 0x40 MLOAD PUSH3 0x461BCD PUSH1 0xE5 SHL DUP2 MSTORE PUSH1 0x20 PUSH1 0x4 DUP3 ADD MSTORE PUSH1 0x1F PUSH1 0x24 DUP3 ADD MSTORE PUSH32 0x41636365737365626C65206F6E6C7920666F722053757065724F776E65727300 PUSH1 0x44 DUP3 ADD MSTORE PUSH1 0x64 ADD PUSH2 0x5F8 JUMP JUMPDEST PUSH1 0x1 PUSH1 0x1 PUSH1 0xA0 SHL SUB AND PUSH0 SWAP1 DUP2 MSTORE PUSH1 0x20 DUP2 SWAP1 MSTORE PUSH1 0x40 SWAP1 KECCAK256 DUP1 SLOAD PUSH1 0xFF NOT AND PUSH1 0x1 OR SWAP1 SSTORE JUMP JUMPDEST PUSH1 0x7 PUSH1 0x20 MSTORE PUSH0 SWAP1 DUP2 MSTORE PUSH1 0x40 SWAP1 KECCAK256 DUP1 SLOAD DUP2 SWAP1 PUSH2 0x1B1E SWAP1 PUSH2 0x5452 JUMP JUMPDEST DUP1 PUSH1 0x1F ADD PUSH1 0x20 DUP1 SWAP2 DIV MUL PUSH1 0x20 ADD PUSH1 0x40 MLOAD SWAP1 DUP2 ADD PUSH1 0x40 MSTORE DUP1 SWAP3 SWAP2 SWAP1 DUP2 DUP2 MSTORE PUSH1 0x20 ADD DUP3 DUP1 SLOAD PUSH2 0x1B4A SWAP1 PUSH2 0x5452 JUMP JUMPDEST DUP1 ISZERO PUSH2 0x1B95 JUMPI DUP1 PUSH1 0x1F LT PUSH2 0x1B6C JUMPI PUSH2 0x100 DUP1 DUP4 SLOAD DIV MUL DUP4 MSTORE SWAP2 PUSH1 0x20 ADD SWAP2 PUSH2 0x1B95 JUMP JUMPDEST DUP3 ADD SWAP2 SWAP1 PUSH0 MSTORE PUSH1 0x20 PUSH0 KECCAK256 SWAP1 JUMPDEST DUP2 SLOAD DUP2 MSTORE SWAP1 PUSH1 0x1 ADD SWAP1 PUSH1 0x20 ADD DUP1 DUP4 GT PUSH2 0x1B78 JUMPI DUP3 SWAP1 SUB PUSH1 0x1F AND DUP3 ADD SWAP2 JUMPDEST POP POP POP PUSH1 0x1 DUP5 ADD SLOAD PUSH1 0x2 DUP6 ADD DUP1 SLOAD SWAP5 SWAP6 PUSH1 0x1 PUSH1 0x1 PUSH1 0xA0 SHL SUB SWAP1 SWAP3 AND SWAP5 SWAP2 SWAP4 POP SWAP2 POP PUSH2 0x1BBF SWAP1 PUSH2 0x5452 JUMP JUMPDEST DUP1 PUSH1 0x1F ADD PUSH1 0x20 DUP1 SWAP2 DIV MUL PUSH1 0x20 ADD PUSH1 0x40 MLOAD SWAP1 DUP2 ADD PUSH1 0x40 MSTORE DUP1 SWAP3 SWAP2 SWAP1 DUP2 DUP2 MSTORE PUSH1 0x20 ADD DUP3 DUP1 SLOAD PUSH2 0x1BEB SWAP1 PUSH2 0x5452 JUMP JUMPDEST DUP1 ISZERO PUSH2 0x1C36 JUMPI DUP1 PUSH1 0x1F LT PUSH2 0x1C0D JUMPI PUSH2 0x100 DUP1 DUP4 SLOAD DIV MUL DUP4 MSTORE SWAP2 PUSH1 0x20 ADD SWAP2 PUSH2 0x1C36 JUMP JUMPDEST DUP3 ADD SWAP2 SWAP1 PUSH0 MSTORE PUSH1 0x20 PUSH0 KECCAK256 SWAP1 JUMPDEST DUP2 SLOAD DUP2 MSTORE SWAP1 PUSH1 0x1 ADD SWAP1 PUSH1 0x20 ADD DUP1 DUP4 GT PUSH2 0x1C19 JUMPI DUP3 SWAP1 SUB PUSH1 0x1F AND DUP3 ADD SWAP2 JUMPDEST POP POP POP POP POP SWAP1 DUP1 PUSH1 0x3 ADD SLOAD SWAP1 DUP1 PUSH1 0x4 ADD SLOAD SWAP1 DUP1 PUSH1 0x5 ADD DUP1 SLOAD PUSH2 0x1C57 SWAP1 PUSH2 0x5452 JUMP JUMPDEST DUP1 PUSH1 0x1F ADD PUSH1 0x20 DUP1 SWAP2 DIV MUL PUSH1 0x20 ADD PUSH1 0x40 MLOAD SWAP1 DUP2 ADD PUSH1 0x40 MSTORE DUP1 SWAP3 SWAP2 SWAP1 DUP2 DUP2 MSTORE PUSH1 0x20 ADD DUP3 DUP1 SLOAD PUSH2 0x1C83 SWAP1 PUSH2 0x5452 JUMP JUMPDEST DUP1 ISZERO PUSH2 0x1CCE JUMPI DUP1 PUSH1 0x1F LT PUSH2 0x1CA5 JUMPI PUSH2 0x100 DUP1 DUP4 SLOAD DIV MUL DUP4 MSTORE SWAP2 PUSH1 0x20 ADD SWAP2 PUSH2 0x1CCE JUMP JUMPDEST DUP3 ADD SWAP2 SWAP1 PUSH0 MSTORE PUSH1 0x20 PUSH0 KECCAK256 SWAP1 JUMPDEST DUP2 SLOAD DUP2 MSTORE SWAP1 PUSH1 0x1 ADD SWAP1 PUSH1 0x20 ADD DUP1 DUP4 GT PUSH2 0x1CB1 JUMPI DUP3 SWAP1 SUB PUSH1 0x1F AND DUP3 ADD SWAP2 JUMPDEST POP POP POP POP POP SWAP1 POP DUP7 JUMP JUMPDEST PUSH1 0x1 PUSH1 0x1 PUSH1 0xA0 SHL SUB DUP1 DUP3 AND PUSH0 DUP2 DUP2 MSTORE PUSH1 0x2 PUSH1 0x20 DUP2 SWAP1 MSTORE PUSH1 0x40 DUP3 KECCAK256 ADD SLOAD SWAP1 SWAP3 AND EQ DUP1 PUSH2 0x1D1F JUMPI POP PUSH1 0x1 PUSH1 0x1 PUSH1 0xA0 SHL SUB DUP1 DUP4 AND PUSH0 DUP2 DUP2 MSTORE PUSH1 0x3 PUSH1 0x20 MSTORE PUSH1 0x40 SWAP1 KECCAK256 PUSH1 0x1 ADD SLOAD SWAP1 SWAP2 AND EQ JUMPDEST SWAP3 SWAP2 POP POP JUMP JUMPDEST CALLER PUSH0 SWAP1 DUP2 MSTORE PUSH1 0x20 DUP2 SWAP1 MSTORE PUSH1 0x40 SWAP1 KECCAK256 SLOAD PUSH1 0xFF AND DUP1 PUSH2 0x1D4C JUMPI POP PUSH1 0x1 SLOAD PUSH1 0x1 PUSH1 0x1 PUSH1 0xA0 SHL SUB AND CALLER EQ JUMPDEST PUSH2 0x1D68 JUMPI PUSH1 0x40 MLOAD PUSH3 0x461BCD PUSH1 0xE5 SHL DUP2 MSTORE PUSH1 0x4 ADD PUSH2 0x5F8 SWAP1 PUSH2 0x5366 JUMP JUMPDEST PUSH1 0x1 PUSH1 0x1 PUSH1 0xA0 SHL SUB DUP1 DUP7 AND PUSH0 DUP2 DUP2 MSTORE PUSH1 0x8 PUSH1 0x20 MSTORE PUSH1 0x40 SWAP1 KECCAK256 SLOAD SWAP1 SWAP2 AND SUB PUSH2 0x1DE8 JUMPI PUSH1 0x40 MLOAD PUSH3 0x461BCD PUSH1 0xE5 SHL DUP2 MSTORE PUSH1 0x20 PUSH1 0x4 DUP3 ADD MSTORE PUSH1 0x2E PUSH1 0x24 DUP3 ADD MSTORE PUSH32 0x50687973696369616E2050726F66657373696F6E616C2064657461696C732061 PUSH1 0x44 DUP3 ADD MSTORE PUSH14 0x6C72656164792065786973742121 PUSH1 0x90 SHL PUSH1 0x64 DUP3 ADD MSTORE PUSH1 0x84 ADD PUSH2 0x5F8 JUMP JUMPDEST PUSH1 0x1 PUSH1 0x1 PUSH1 0xA0 SHL SUB DUP1 DUP7 AND PUSH0 DUP2 DUP2 MSTORE PUSH1 0x8 PUSH1 0x20 MSTORE PUSH1 0x40 SWAP1 KECCAK256 SLOAD SWAP1 SWAP2 AND EQ DUP1 ISZERO SWAP1 PUSH2 0x1E12 JUMPI POP PUSH0 DUP2 MLOAD GT JUMPDEST DUP1 ISZERO PUSH2 0x1E1E JUMPI POP PUSH0 DUP5 MLOAD GT JUMPDEST DUP1 ISZERO PUSH2 0x1E2A JUMPI POP PUSH0 DUP4 MLOAD GT JUMPDEST PUSH2 0x1E6E JUMPI PUSH1 0x40 MLOAD PUSH3 0x461BCD PUSH1 0xE5 SHL DUP2 MSTORE PUSH1 0x20 PUSH1 0x4 DUP3 ADD MSTORE PUSH1 0x15 PUSH1 0x24 DUP3 ADD MSTORE PUSH21 0x456E74657220436F72726563742064657461696C73 PUSH1 0x58 SHL PUSH1 0x44 DUP3 ADD MSTORE PUSH1 0x64 ADD PUSH2 0x5F8 JUMP JUMPDEST PUSH1 0x40 DUP1 MLOAD PUSH1 0xA0 DUP2 ADD DUP3 MSTORE PUSH1 0x1 PUSH1 0x1 PUSH1 0xA0 SHL SUB DUP8 DUP2 AND DUP1 DUP4 MSTORE PUSH1 0x20 DUP1 DUP5 ADD DUP7 DUP2 MSTORE DUP5 DUP7 ADD DUP11 SWAP1 MSTORE PUSH1 0x60 DUP6 ADD DUP10 SWAP1 MSTORE PUSH1 0x80 DUP6 ADD DUP9 SWAP1 MSTORE PUSH0 SWAP3 DUP4 MSTORE PUSH1 0x8 SWAP1 SWAP2 MSTORE SWAP4 SWAP1 KECCAK256 DUP3 MLOAD DUP2 SLOAD PUSH1 0x1 PUSH1 0x1 PUSH1 0xA0 SHL SUB NOT AND SWAP3 AND SWAP2 SWAP1 SWAP2 OR DUP2 SSTORE SWAP2 MLOAD SWAP1 SWAP2 SWAP1 PUSH1 0x1 DUP3 ADD SWAP1 PUSH2 0x1ED8 SWAP1 DUP3 PUSH2 0x54D4 JUMP JUMPDEST POP PUSH1 0x40 DUP3 ADD MLOAD PUSH1 0x2 DUP3 ADD SWAP1 PUSH2 0x1EED SWAP1 DUP3 PUSH2 0x54D4 JUMP JUMPDEST POP PUSH1 0x60 DUP3 ADD MLOAD PUSH1 0x3 DUP3 ADD SWAP1 PUSH2 0x1F02 SWAP1 DUP3 PUSH2 0x54D4 JUMP JUMPDEST POP PUSH1 0x80 SWAP2 SWAP1 SWAP2 ADD MLOAD PUSH1 0x4 SWAP1 SWAP2 ADD SSTORE PUSH1 0x1 PUSH1 0x1 PUSH1 0xA0 SHL SUB DUP1 DUP7 AND PUSH0 DUP2 DUP2 MSTORE PUSH1 0x7 PUSH1 0x20 MSTORE PUSH1 0x40 SWAP1 KECCAK256 PUSH1 0x1 ADD SLOAD SWAP1 SWAP2 AND SUB PUSH2 0x1F52 JUMPI PUSH2 0x1F3D DUP6 PUSH2 0x1827 JUMP JUMPDEST PUSH1 0x9 DUP1 SLOAD SWAP1 PUSH0 PUSH2 0x1F4C DUP4 PUSH2 0x5755 JUMP JUMPDEST SWAP2 SWAP1 POP SSTORE POP JUMPDEST POP POP POP POP POP JUMP JUMPDEST PUSH0 PUSH2 0x1D1F PUSH4 0x1E13380 DUP4 PUSH2 0x576D JUMP JUMPDEST PUSH1 0x1 PUSH1 0x1 PUSH1 0xA0 SHL SUB DUP2 AND PUSH0 SWAP1 DUP2 MSTORE PUSH1 0x6 PUSH1 0x20 MSTORE PUSH1 0x40 DUP2 KECCAK256 SLOAD PUSH1 0xFF AND ISZERO PUSH2 0x1140 JUMPI POP PUSH1 0x1 SWAP2 SWAP1 POP JUMP JUMPDEST CALLER PUSH0 SWAP1 DUP2 MSTORE PUSH1 0x6 PUSH1 0x20 MSTORE PUSH1 0x40 DUP2 KECCAK256 SLOAD PUSH1 0xFF AND ISZERO PUSH2 0x1FAB JUMPI POP PUSH1 0x1 JUMPDEST CALLER PUSH0 SWAP1 DUP2 MSTORE PUSH1 0x6 PUSH1 0x20 MSTORE PUSH1 0x40 SWAP1 KECCAK256 SLOAD PUSH1 0xFF AND PUSH2 0x1FD9 JUMPI PUSH1 0x40 MLOAD PUSH3 0x461BCD PUSH1 0xE5 SHL DUP2 MSTORE PUSH1 0x4 ADD PUSH2 0x5F8 SWAP1 PUSH2 0x53EA JUMP JUMPDEST PUSH1 0x1 PUSH1 0x1 PUSH1 0xA0 SHL SUB DUP1 DUP12 AND PUSH0 DUP2 DUP2 MSTORE PUSH1 0x2 PUSH1 0x20 DUP2 SWAP1 MSTORE PUSH1 0x40 SWAP1 SWAP2 KECCAK256 ADD SLOAD SWAP1 SWAP2 AND SUB PUSH2 0x2081 JUMPI PUSH1 0x40 MLOAD PUSH3 0x461BCD PUSH1 0xE5 SHL DUP2 MSTORE PUSH1 0x20 PUSH1 0x4 DUP3 ADD MSTORE PUSH1 0x4C PUSH1 0x24 DUP3 ADD MSTORE PUSH32 0x50617469656E742773204D65646963616C2064657461696C7320616C72656164 PUSH1 0x44 DUP3 ADD MSTORE PUSH32 0x7920657869737421212E204B696E646C79206564697420746865206465746169 PUSH1 0x64 DUP3 ADD MSTORE PUSH12 0x1B1CC81A59881B9959591959 PUSH1 0xA2 SHL PUSH1 0x84 DUP3 ADD MSTORE PUSH1 0xA4 ADD PUSH2 0x5F8 JUMP JUMPDEST PUSH1 0x1 PUSH1 0x1 PUSH1 0xA0 SHL SUB DUP11 AND ISZERO DUP1 ISZERO SWAP1 PUSH2 0x2099 JUMPI POP PUSH0 DUP10 MLOAD GT JUMPDEST DUP1 ISZERO PUSH2 0x20A5 JUMPI POP PUSH0 DUP9 MLOAD GT JUMPDEST PUSH2 0x20C1 JUMPI PUSH1 0x40 MLOAD PUSH3 0x461BCD PUSH1 0xE5 SHL DUP2 MSTORE PUSH1 0x4 ADD PUSH2 0x5F8 SWAP1 PUSH2 0x5677 JUMP JUMPDEST PUSH0 DUP7 SWAP1 POP PUSH1 0x40 MLOAD DUP1 PUSH2 0x160 ADD PUSH1 0x40 MSTORE DUP1 DUP15 DUP2 MSTORE PUSH1 0x20 ADD DUP14 DUP2 MSTORE PUSH1 0x20 ADD DUP13 PUSH1 0x1 PUSH1 0x1 PUSH1 0xA0 SHL SUB AND DUP2 MSTORE PUSH1 0x20 ADD DUP12 DUP2 MSTORE PUSH1 0x20 ADD DUP11 DUP2 MSTORE PUSH1 0x20 ADD DUP10 DUP2 MSTORE PUSH1 0x20 ADD DUP3 DUP2 MSTORE PUSH1 0x20 ADD DUP8 DUP2 MSTORE PUSH1 0x20 ADD DUP7 DUP2 MSTORE PUSH1 0x20 ADD DUP6 DUP2 MSTORE PUSH1 0x20 ADD DUP5 DUP2 MSTORE POP PUSH1 0x2 PUSH0 DUP14 PUSH1 0x1 PUSH1 0x1 PUSH1 0xA0 SHL SUB AND PUSH1 0x1 PUSH1 0x1 PUSH1 0xA0 SHL SUB AND DUP2 MSTORE PUSH1 0x20 ADD SWAP1 DUP2 MSTORE PUSH1 0x20 ADD PUSH0 KECCAK256 PUSH0 DUP3 ADD MLOAD DUP2 PUSH0 ADD SWAP1 DUP2 PUSH2 0x2150 SWAP2 SWAP1 PUSH2 0x54D4 JUMP JUMPDEST POP PUSH1 0x20 DUP3 ADD MLOAD PUSH1 0x1 DUP3 ADD SWAP1 PUSH2 0x2165 SWAP1 DUP3 PUSH2 0x54D4 JUMP JUMPDEST POP PUSH1 0x40 DUP3 ADD MLOAD PUSH1 0x2 DUP3 ADD DUP1 SLOAD PUSH1 0x1 PUSH1 0x1 PUSH1 0xA0 SHL SUB NOT AND PUSH1 0x1 PUSH1 0x1 PUSH1 0xA0 SHL SUB SWAP1 SWAP3 AND SWAP2 SWAP1 SWAP2 OR SWAP1 SSTORE PUSH1 0x60 DUP3 ADD MLOAD PUSH1 0x3 DUP3 ADD SWAP1 PUSH2 0x21A0 SWAP1 DUP3 PUSH2 0x54D4 JUMP JUMPDEST POP PUSH1 0x80 DUP3 ADD MLOAD PUSH1 0x4 DUP3 ADD SWAP1 PUSH2 0x21B5 SWAP1 DUP3 PUSH2 0x54D4 JUMP JUMPDEST POP PUSH1 0xA0 DUP3 ADD MLOAD PUSH1 0x5 DUP3 ADD SWAP1 PUSH2 0x21CA SWAP1 DUP3 PUSH2 0x54D4 JUMP JUMPDEST POP PUSH1 0xC0 DUP3 ADD MLOAD PUSH1 0x6 DUP3 ADD SSTORE PUSH1 0xE0 DUP3 ADD MLOAD PUSH1 0x7 DUP3 ADD SSTORE PUSH2 0x100 DUP3 ADD MLOAD PUSH1 0x8 DUP3 ADD SWAP1 PUSH2 0x21F4 SWAP1 DUP3 PUSH2 0x54D4 JUMP JUMPDEST POP PUSH2 0x120 DUP3 ADD MLOAD PUSH1 0x9 DUP3 ADD SSTORE PUSH2 0x140 SWAP1 SWAP2 ADD MLOAD PUSH1 0xA SWAP1 SWAP2 ADD SSTORE PUSH1 0x1 PUSH1 0x1 PUSH1 0xA0 SHL SUB DUP1 DUP13 AND PUSH0 DUP2 DUP2 MSTORE PUSH1 0x3 PUSH1 0x20 MSTORE PUSH1 0x40 SWAP1 KECCAK256 PUSH1 0x1 ADD SLOAD SWAP1 SWAP2 AND SUB PUSH2 0x2246 JUMPI PUSH1 0xB DUP1 SLOAD SWAP1 PUSH0 PUSH2 0x2240 DUP4 PUSH2 0x5755 JUMP JUMPDEST SWAP2 SWAP1 POP SSTORE POP JUMPDEST POP POP POP POP POP POP POP POP POP POP POP POP POP JUMP JUMPDEST CALLER PUSH0 SWAP1 DUP2 MSTORE PUSH1 0x20 DUP2 SWAP1 MSTORE PUSH1 0x40 SWAP1 KECCAK256 SLOAD PUSH1 0xFF AND DUP1 PUSH2 0x227C JUMPI POP PUSH1 0x1 SLOAD PUSH1 0x1 PUSH1 0x1 PUSH1 0xA0 SHL SUB AND CALLER EQ JUMPDEST PUSH2 0x2298 JUMPI PUSH1 0x40 MLOAD PUSH3 0x461BCD PUSH1 0xE5 SHL DUP2 MSTORE PUSH1 0x4 ADD PUSH2 0x5F8 SWAP1 PUSH2 0x5366 JUMP JUMPDEST PUSH1 0x1 PUSH1 0x1 PUSH1 0xA0 SHL SUB DUP1 DUP7 AND PUSH0 DUP2 DUP2 MSTORE PUSH1 0x7 PUSH1 0x20 MSTORE PUSH1 0x40 SWAP1 KECCAK256 PUSH1 0x1 ADD SLOAD SWAP1 SWAP2 AND SUB PUSH2 0x2316 JUMPI PUSH1 0x40 MLOAD PUSH3 0x461BCD PUSH1 0xE5 SHL DUP2 MSTORE PUSH1 0x20 PUSH1 0x4 DUP3 ADD MSTORE PUSH1 0x29 PUSH1 0x24 DUP3 ADD MSTORE PUSH32 0x50687973696369616E20706572736F6E616C2064657461696C20616C72656164 PUSH1 0x44 DUP3 ADD MSTORE PUSH9 0x792065786973742121 PUSH1 0xB8 SHL PUSH1 0x64 DUP3 ADD MSTORE PUSH1 0x84 ADD PUSH2 0x5F8 JUMP JUMPDEST PUSH1 0x1 PUSH1 0x1 PUSH1 0xA0 SHL SUB DUP6 AND ISZERO DUP1 ISZERO SWAP1 PUSH2 0x232D JUMPI POP PUSH0 DUP3 GT JUMPDEST DUP1 ISZERO PUSH2 0x2339 JUMPI POP PUSH0 DUP2 MLOAD GT JUMPDEST DUP1 ISZERO PUSH2 0x2345 JUMPI POP PUSH0 DUP7 MLOAD GT JUMPDEST PUSH2 0x2361 JUMPI PUSH1 0x40 MLOAD PUSH3 0x461BCD PUSH1 0xE5 SHL DUP2 MSTORE PUSH1 0x4 ADD PUSH2 0x5F8 SWAP1 PUSH2 0x5590 JUMP JUMPDEST PUSH1 0x40 DUP1 MLOAD PUSH1 0xC0 DUP2 ADD DUP3 MSTORE DUP8 DUP2 MSTORE PUSH1 0x1 PUSH1 0x1 PUSH1 0xA0 SHL SUB DUP8 AND PUSH1 0x20 DUP1 DUP4 ADD DUP3 SWAP1 MSTORE DUP3 DUP5 ADD DUP9 SWAP1 MSTORE PUSH1 0x60 DUP4 ADD DUP8 SWAP1 MSTORE PUSH1 0x80 DUP4 ADD DUP7 SWAP1 MSTORE PUSH1 0xA0 DUP4 ADD DUP6 SWAP1 MSTORE PUSH0 SWAP2 DUP3 MSTORE PUSH1 0x7 SWAP1 MSTORE SWAP2 SWAP1 SWAP2 KECCAK256 DUP2 MLOAD DUP6 SWAP3 SWAP2 SWAP1 DUP2 SWAP1 PUSH2 0x23B9 SWAP1 DUP3 PUSH2 0x54D4 JUMP JUMPDEST POP PUSH1 0x20 DUP3 ADD MLOAD PUSH1 0x1 DUP3 ADD DUP1 SLOAD PUSH1 0x1 PUSH1 0x1 PUSH1 0xA0 SHL SUB NOT AND PUSH1 0x1 PUSH1 0x1 PUSH1 0xA0 SHL SUB SWAP1 SWAP3 AND SWAP2 SWAP1 SWAP2 OR SWAP1 SSTORE PUSH1 0x40 DUP3 ADD MLOAD PUSH1 0x2 DUP3 ADD SWAP1 PUSH2 0x23F4 SWAP1 DUP3 PUSH2 0x54D4 JUMP JUMPDEST POP PUSH1 0x60 DUP3 ADD MLOAD PUSH1 0x3 DUP3 ADD SSTORE PUSH1 0x80 DUP3 ADD MLOAD PUSH1 0x4 DUP3 ADD SSTORE PUSH1 0xA0 DUP3 ADD MLOAD PUSH1 0x5 DUP3 ADD SWAP1 PUSH2 0x241D SWAP1 DUP3 PUSH2 0x54D4 JUMP JUMPDEST POP POP POP PUSH1 0x1 PUSH1 0x1 PUSH1 0xA0 SHL SUB DUP1 DUP8 AND PUSH0 DUP2 DUP2 MSTORE PUSH1 0x8 PUSH1 0x20 MSTORE PUSH1 0x40 SWAP1 KECCAK256 SLOAD SWAP1 SWAP2 AND SUB PUSH2 0x245F JUMPI PUSH2 0x244A DUP7 PUSH2 0x1827 JUMP JUMPDEST PUSH1 0x9 DUP1 SLOAD SWAP1 PUSH0 PUSH2 0x2459 DUP4 PUSH2 0x5755 JUMP JUMPDEST SWAP2 SWAP1 POP SSTORE POP JUMPDEST POP POP POP POP POP POP POP JUMP JUMPDEST PUSH2 0x24A7 PUSH1 0x40 MLOAD DUP1 PUSH1 0xC0 ADD PUSH1 0x40 MSTORE DUP1 PUSH1 0x60 DUP2 MSTORE PUSH1 0x20 ADD PUSH0 PUSH1 0x1 PUSH1 0x1 PUSH1 0xA0 SHL SUB AND DUP2 MSTORE PUSH1 0x20 ADD PUSH1 0x60 DUP2 MSTORE PUSH1 0x20 ADD PUSH0 DUP2 MSTORE PUSH1 0x20 ADD PUSH0 DUP2 MSTORE PUSH1 0x20 ADD PUSH1 0x60 DUP2 MSTORE POP SWAP1 JUMP JUMPDEST CALLER PUSH0 SWAP1 DUP2 MSTORE PUSH1 0x20 DUP2 SWAP1 MSTORE PUSH1 0x40 SWAP1 KECCAK256 SLOAD PUSH1 0xFF AND DUP1 PUSH2 0x24CE JUMPI POP PUSH1 0x1 SLOAD PUSH1 0x1 PUSH1 0x1 PUSH1 0xA0 SHL SUB AND CALLER EQ JUMPDEST PUSH2 0x24EA JUMPI PUSH1 0x40 MLOAD PUSH3 0x461BCD PUSH1 0xE5 SHL DUP2 MSTORE PUSH1 0x4 ADD PUSH2 0x5F8 SWAP1 PUSH2 0x5366 JUMP JUMPDEST PUSH1 0x1 PUSH1 0x1 PUSH1 0xA0 SHL SUB DUP3 AND PUSH2 0x2510 JUMPI PUSH1 0x40 MLOAD PUSH3 0x461BCD PUSH1 0xE5 SHL DUP2 MSTORE PUSH1 0x4 ADD PUSH2 0x5F8 SWAP1 PUSH2 0x578C JUMP JUMPDEST PUSH1 0x1 PUSH1 0x1 PUSH1 0xA0 SHL SUB DUP1 DUP4 AND PUSH0 DUP2 DUP2 MSTORE PUSH1 0x7 PUSH1 0x20 MSTORE PUSH1 0x40 SWAP1 KECCAK256 PUSH1 0x1 ADD SLOAD SWAP1 SWAP2 AND EQ PUSH2 0x254C JUMPI PUSH1 0x40 MLOAD PUSH3 0x461BCD PUSH1 0xE5 SHL DUP2 MSTORE PUSH1 0x4 ADD PUSH2 0x5F8 SWAP1 PUSH2 0x57C3 JUMP JUMPDEST PUSH1 0x1 PUSH1 0x1 PUSH1 0xA0 SHL SUB DUP3 AND PUSH0 SWAP1 DUP2 MSTORE PUSH1 0x7 PUSH1 0x20 MSTORE PUSH1 0x40 SWAP1 DUP2 SWAP1 KECCAK256 DUP2 MLOAD PUSH1 0xC0 DUP2 ADD SWAP1 SWAP3 MSTORE DUP1 SLOAD DUP3 SWAP1 DUP3 SWAP1 PUSH2 0x257D SWAP1 PUSH2 0x5452 JUMP JUMPDEST DUP1 PUSH1 0x1F ADD PUSH1 0x20 DUP1 SWAP2 DIV MUL PUSH1 0x20 ADD PUSH1 0x40 MLOAD SWAP1 DUP2 ADD PUSH1 0x40 MSTORE DUP1 SWAP3 SWAP2 SWAP1 DUP2 DUP2 MSTORE PUSH1 0x20 ADD DUP3 DUP1 SLOAD PUSH2 0x25A9 SWAP1 PUSH2 0x5452 JUMP JUMPDEST DUP1 ISZERO PUSH2 0x25F4 JUMPI DUP1 PUSH1 0x1F LT PUSH2 0x25CB JUMPI PUSH2 0x100 DUP1 DUP4 SLOAD DIV MUL DUP4 MSTORE SWAP2 PUSH1 0x20 ADD SWAP2 PUSH2 0x25F4 JUMP JUMPDEST DUP3 ADD SWAP2 SWAP1 PUSH0 MSTORE PUSH1 0x20 PUSH0 KECCAK256 SWAP1 JUMPDEST DUP2 SLOAD DUP2 MSTORE SWAP1 PUSH1 0x1 ADD SWAP1 PUSH1 0x20 ADD DUP1 DUP4 GT PUSH2 0x25D7 JUMPI DUP3 SWAP1 SUB PUSH1 0x1F AND DUP3 ADD SWAP2 JUMPDEST POP POP POP SWAP2 DUP4 MSTORE POP POP PUSH1 0x1 DUP3 ADD SLOAD PUSH1 0x1 PUSH1 0x1 PUSH1 0xA0 SHL SUB AND PUSH1 0x20 DUP3 ADD MSTORE PUSH1 0x2 DUP3 ADD DUP1 SLOAD PUSH1 0x40 SWAP1 SWAP3 ADD SWAP2 PUSH2 0x2624 SWAP1 PUSH2 0x5452 JUMP JUMPDEST DUP1 PUSH1 0x1F ADD PUSH1 0x20 DUP1 SWAP2 DIV MUL PUSH1 0x20 ADD PUSH1 0x40 MLOAD SWAP1 DUP2 ADD PUSH1 0x40 MSTORE DUP1 SWAP3 SWAP2 SWAP1 DUP2 DUP2 MSTORE PUSH1 0x20 ADD DUP3 DUP1 SLOAD PUSH2 0x2650 SWAP1 PUSH2 0x5452 JUMP JUMPDEST DUP1 ISZERO PUSH2 0x269B JUMPI DUP1 PUSH1 0x1F LT PUSH2 0x2672 JUMPI PUSH2 0x100 DUP1 DUP4 SLOAD DIV MUL DUP4 MSTORE SWAP2 PUSH1 0x20 ADD SWAP2 PUSH2 0x269B JUMP JUMPDEST DUP3 ADD SWAP2 SWAP1 PUSH0 MSTORE PUSH1 0x20 PUSH0 KECCAK256 SWAP1 JUMPDEST DUP2 SLOAD DUP2 MSTORE SWAP1 PUSH1 0x1 ADD SWAP1 PUSH1 0x20 ADD DUP1 DUP4 GT PUSH2 0x267E JUMPI DUP3 SWAP1 SUB PUSH1 0x1F AND DUP3 ADD SWAP2 JUMPDEST POP POP POP POP POP DUP2 MSTORE PUSH1 0x20 ADD PUSH1 0x3 DUP3 ADD SLOAD DUP2 MSTORE PUSH1 0x20 ADD PUSH1 0x4 DUP3 ADD SLOAD DUP2 MSTORE PUSH1 0x20 ADD PUSH1 0x5 DUP3 ADD DUP1 SLOAD PUSH2 0x26C8 SWAP1 PUSH2 0x5452 JUMP JUMPDEST DUP1 PUSH1 0x1F ADD PUSH1 0x20 DUP1 SWAP2 DIV MUL PUSH1 0x20 ADD PUSH1 0x40 MLOAD SWAP1 DUP2 ADD PUSH1 0x40 MSTORE DUP1 SWAP3 SWAP2 SWAP1 DUP2 DUP2 MSTORE PUSH1 0x20 ADD DUP3 DUP1 SLOAD PUSH2 0x26F4 SWAP1 PUSH2 0x5452 JUMP JUMPDEST DUP1 ISZERO PUSH2 0x273F JUMPI DUP1 PUSH1 0x1F LT PUSH2 0x2716 JUMPI PUSH2 0x100 DUP1 DUP4 SLOAD DIV MUL DUP4 MSTORE SWAP2 PUSH1 0x20 ADD SWAP2 PUSH2 0x273F JUMP JUMPDEST DUP3 ADD SWAP2 SWAP1 PUSH0 MSTORE PUSH1 0x20 PUSH0 KECCAK256 SWAP1 JUMPDEST DUP2 SLOAD DUP2 MSTORE SWAP1 PUSH1 0x1 ADD SWAP1 PUSH1 0x20 ADD DUP1 DUP4 GT PUSH2 0x2722 JUMPI DUP3 SWAP1 SUB PUSH1 0x1F AND DUP3 ADD SWAP2 JUMPDEST POP POP POP POP POP DUP2 MSTORE POP POP SWAP1 POP SWAP2 SWAP1 POP JUMP JUMPDEST PUSH1 0x40 DUP1 MLOAD DUP1 DUP3 ADD DUP3 MSTORE TIMESTAMP DUP2 MSTORE PUSH1 0x20 DUP1 DUP3 ADD DUP6 DUP2 MSTORE PUSH1 0x1 PUSH1 0x1 PUSH1 0xA0 SHL SUB DUP6 AND PUSH0 SWAP1 DUP2 MSTORE PUSH1 0x5 DUP4 MSTORE SWAP4 DUP5 KECCAK256 DUP1 SLOAD PUSH1 0x1 DUP2 DUP2 ADD DUP4 SSTORE SWAP2 DUP7 MSTORE SWAP3 SWAP1 SWAP5 KECCAK256 DUP4 MLOAD PUSH1 0x2 SWAP1 SWAP4 MUL ADD SWAP2 DUP3 SSTORE MLOAD SWAP2 SWAP3 DUP4 SWAP3 SWAP1 DUP3 ADD SWAP1 PUSH2 0x27A6 SWAP1 DUP3 PUSH2 0x54D4 JUMP JUMPDEST POP POP POP POP POP POP JUMP JUMPDEST CALLER PUSH0 DUP2 DUP2 MSTORE PUSH1 0x2 PUSH1 0x20 DUP2 SWAP1 MSTORE PUSH1 0x40 SWAP1 SWAP2 KECCAK256 ADD SLOAD PUSH1 0x60 SWAP2 PUSH1 0x1 PUSH1 0x1 PUSH1 0xA0 SHL SUB SWAP1 SWAP2 AND EQ DUP1 PUSH2 0x27F3 JUMPI POP CALLER PUSH0 DUP2 DUP2 MSTORE PUSH1 0x3 PUSH1 0x20 MSTORE PUSH1 0x40 SWAP1 KECCAK256 PUSH1 0x1 ADD SLOAD PUSH1 0x1 PUSH1 0x1 PUSH1 0xA0 SHL SUB AND EQ JUMPDEST DUP1 PUSH2 0x280C JUMPI POP CALLER PUSH0 SWAP1 DUP2 MSTORE PUSH1 0x6 PUSH1 0x20 MSTORE PUSH1 0x40 SWAP1 KECCAK256 SLOAD PUSH1 0xFF AND JUMPDEST DUP1 PUSH2 0x2825 JUMPI POP CALLER PUSH0 SWAP1 DUP2 MSTORE PUSH1 0x20 DUP2 SWAP1 MSTORE PUSH1 0x40 SWAP1 KECCAK256 SLOAD PUSH1 0xFF AND JUMPDEST DUP1 PUSH2 0x283A JUMPI POP PUSH1 0x1 SLOAD PUSH1 0x1 PUSH1 0x1 PUSH1 0xA0 SHL SUB AND CALLER EQ JUMPDEST PUSH2 0x2856 JUMPI PUSH1 0x40 MLOAD PUSH3 0x461BCD PUSH1 0xE5 SHL DUP2 MSTORE PUSH1 0x4 ADD PUSH2 0x5F8 SWAP1 PUSH2 0x586C JUMP JUMPDEST PUSH1 0x1 PUSH1 0x1 PUSH1 0xA0 SHL SUB DUP3 AND PUSH0 SWAP1 DUP2 MSTORE PUSH1 0x4 PUSH1 0x20 SWAP1 DUP2 MSTORE PUSH1 0x40 DUP1 DUP4 KECCAK256 DUP1 SLOAD DUP3 MLOAD DUP2 DUP6 MUL DUP2 ADD DUP6 ADD SWAP1 SWAP4 MSTORE DUP1 DUP4 MSTORE SWAP2 SWAP4 SWAP1 SWAP3 DUP5 ADD JUMPDEST DUP3 DUP3 LT ISZERO PUSH2 0x15AC JUMPI DUP4 DUP3 SWAP1 PUSH0 MSTORE PUSH1 0x20 PUSH0 KECCAK256 SWAP1 PUSH1 0xB MUL ADD PUSH1 0x40 MLOAD DUP1 PUSH2 0x160 ADD PUSH1 0x40 MSTORE SWAP1 DUP2 PUSH0 DUP3 ADD DUP1 SLOAD PUSH2 0x28B9 SWAP1 PUSH2 0x5452 JUMP JUMPDEST DUP1 PUSH1 0x1F ADD PUSH1 0x20 DUP1 SWAP2 DIV MUL PUSH1 0x20 ADD PUSH1 0x40 MLOAD SWAP1 DUP2 ADD PUSH1 0x40 MSTORE DUP1 SWAP3 SWAP2 SWAP1 DUP2 DUP2 MSTORE PUSH1 0x20 ADD DUP3 DUP1 SLOAD PUSH2 0x28E5 SWAP1 PUSH2 0x5452 JUMP JUMPDEST DUP1 ISZERO PUSH2 0x2930 JUMPI DUP1 PUSH1 0x1F LT PUSH2 0x2907 JUMPI PUSH2 0x100 DUP1 DUP4 SLOAD DIV MUL DUP4 MSTORE SWAP2 PUSH1 0x20 ADD SWAP2 PUSH2 0x2930 JUMP JUMPDEST DUP3 ADD SWAP2 SWAP1 PUSH0 MSTORE PUSH1 0x20 PUSH0 KECCAK256 SWAP1 JUMPDEST DUP2 SLOAD DUP2 MSTORE SWAP1 PUSH1 0x1 ADD SWAP1 PUSH1 0x20 ADD DUP1 DUP4 GT PUSH2 0x2913 JUMPI DUP3 SWAP1 SUB PUSH1 0x1F AND DUP3 ADD SWAP2 JUMPDEST POP POP POP POP POP DUP2 MSTORE PUSH1 0x20 ADD PUSH1 0x1 DUP3 ADD DUP1 SLOAD PUSH2 0x2949 SWAP1 PUSH2 0x5452 JUMP JUMPDEST DUP1 PUSH1 0x1F ADD PUSH1 0x20 DUP1 SWAP2 DIV MUL PUSH1 0x20 ADD PUSH1 0x40 MLOAD SWAP1 DUP2 ADD PUSH1 0x40 MSTORE DUP1 SWAP3 SWAP2 SWAP1 DUP2 DUP2 MSTORE PUSH1 0x20 ADD DUP3 DUP1 SLOAD PUSH2 0x2975 SWAP1 PUSH2 0x5452 JUMP JUMPDEST DUP1 ISZERO PUSH2 0x29C0 JUMPI DUP1 PUSH1 0x1F LT PUSH2 0x2997 JUMPI PUSH2 0x100 DUP1 DUP4 SLOAD DIV MUL DUP4 MSTORE SWAP2 PUSH1 0x20 ADD SWAP2 PUSH2 0x29C0 JUMP JUMPDEST DUP3 ADD SWAP2 SWAP1 PUSH0 MSTORE PUSH1 0x20 PUSH0 KECCAK256 SWAP1 JUMPDEST DUP2 SLOAD DUP2 MSTORE SWAP1 PUSH1 0x1 ADD SWAP1 PUSH1 0x20 ADD DUP1 DUP4 GT PUSH2 0x29A3 JUMPI DUP3 SWAP1 SUB PUSH1 0x1F AND DUP3 ADD SWAP2 JUMPDEST POP POP POP SWAP2 DUP4 MSTORE POP POP PUSH1 0x2 DUP3 ADD SLOAD PUSH1 0x1 PUSH1 0x1 PUSH1 0xA0 SHL SUB SWAP1 DUP2 AND PUSH1 0x20 DUP4 ADD MSTORE PUSH1 0x3 DUP4 ADD SLOAD AND PUSH1 0x40 DUP3 ADD MSTORE PUSH1 0x4 DUP3 ADD DUP1 SLOAD PUSH1 0x60 SWAP1 SWAP3 ADD SWAP2 PUSH2 0x29FD SWAP1 PUSH2 0x5452 JUMP JUMPDEST DUP1 PUSH1 0x1F ADD PUSH1 0x20 DUP1 SWAP2 DIV MUL PUSH1 0x20 ADD PUSH1 0x40 MLOAD SWAP1 DUP2 ADD PUSH1 0x40 MSTORE DUP1 SWAP3 SWAP2 SWAP1 DUP2 DUP2 MSTORE PUSH1 0x20 ADD DUP3 DUP1 SLOAD PUSH2 0x2A29 SWAP1 PUSH2 0x5452 JUMP JUMPDEST DUP1 ISZERO PUSH2 0x2A74 JUMPI DUP1 PUSH1 0x1F LT PUSH2 0x2A4B JUMPI PUSH2 0x100 DUP1 DUP4 SLOAD DIV MUL DUP4 MSTORE SWAP2 PUSH1 0x20 ADD SWAP2 PUSH2 0x2A74 JUMP JUMPDEST DUP3 ADD SWAP2 SWAP1 PUSH0 MSTORE PUSH1 0x20 PUSH0 KECCAK256 SWAP1 JUMPDEST DUP2 SLOAD DUP2 MSTORE SWAP1 PUSH1 0x1 ADD SWAP1 PUSH1 0x20 ADD DUP1 DUP4 GT PUSH2 0x2A57 JUMPI DUP3 SWAP1 SUB PUSH1 0x1F AND DUP3 ADD SWAP2 JUMPDEST POP POP POP POP POP DUP2 MSTORE PUSH1 0x20 ADD PUSH1 0x5 DUP3 ADD DUP1 SLOAD PUSH2 0x2A8D SWAP1 PUSH2 0x5452 JUMP JUMPDEST DUP1 PUSH1 0x1F ADD PUSH1 0x20 DUP1 SWAP2 DIV MUL PUSH1 0x20 ADD PUSH1 0x40 MLOAD SWAP1 DUP2 ADD PUSH1 0x40 MSTORE DUP1 SWAP3 SWAP2 SWAP1 DUP2 DUP2 MSTORE PUSH1 0x20 ADD DUP3 DUP1 SLOAD PUSH2 0x2AB9 SWAP1 PUSH2 0x5452 JUMP JUMPDEST DUP1 ISZERO PUSH2 0x2B04 JUMPI DUP1 PUSH1 0x1F LT PUSH2 0x2ADB JUMPI PUSH2 0x100 DUP1 DUP4 SLOAD DIV MUL DUP4 MSTORE SWAP2 PUSH1 0x20 ADD SWAP2 PUSH2 0x2B04 JUMP JUMPDEST DUP3 ADD SWAP2 SWAP1 PUSH0 MSTORE PUSH1 0x20 PUSH0 KECCAK256 SWAP1 JUMPDEST DUP2 SLOAD DUP2 MSTORE SWAP1 PUSH1 0x1 ADD SWAP1 PUSH1 0x20 ADD DUP1 DUP4 GT PUSH2 0x2AE7 JUMPI DUP3 SWAP1 SUB PUSH1 0x1F AND DUP3 ADD SWAP2 JUMPDEST POP POP POP POP POP DUP2 MSTORE PUSH1 0x20 ADD PUSH1 0x6 DUP3 ADD DUP1 SLOAD PUSH2 0x2B1D SWAP1 PUSH2 0x5452 JUMP JUMPDEST DUP1 PUSH1 0x1F ADD PUSH1 0x20 DUP1 SWAP2 DIV MUL PUSH1 0x20 ADD PUSH1 0x40 MLOAD SWAP1 DUP2 ADD PUSH1 0x40 MSTORE DUP1 SWAP3 SWAP2 SWAP1 DUP2 DUP2 MSTORE PUSH1 0x20 ADD DUP3 DUP1 SLOAD PUSH2 0x2B49 SWAP1 PUSH2 0x5452 JUMP JUMPDEST DUP1 ISZERO PUSH2 0x2B94 JUMPI DUP1 PUSH1 0x1F LT PUSH2 0x2B6B JUMPI PUSH2 0x100 DUP1 DUP4 SLOAD DIV MUL DUP4 MSTORE SWAP2 PUSH1 0x20 ADD SWAP2 PUSH2 0x2B94 JUMP JUMPDEST DUP3 ADD SWAP2 SWAP1 PUSH0 MSTORE PUSH1 0x20 PUSH0 KECCAK256 SWAP1 JUMPDEST DUP2 SLOAD DUP2 MSTORE SWAP1 PUSH1 0x1 ADD SWAP1 PUSH1 0x20 ADD DUP1 DUP4 GT PUSH2 0x2B77 JUMPI DUP3 SWAP1 SUB PUSH1 0x1F AND DUP3 ADD SWAP2 JUMPDEST POP POP POP POP POP DUP2 MSTORE PUSH1 0x20 ADD PUSH1 0x7 DUP3 ADD DUP1 SLOAD PUSH2 0x2BAD SWAP1 PUSH2 0x5452 JUMP JUMPDEST DUP1 PUSH1 0x1F ADD PUSH1 0x20 DUP1 SWAP2 DIV MUL PUSH1 0x20 ADD PUSH1 0x40 MLOAD SWAP1 DUP2 ADD PUSH1 0x40 MSTORE DUP1 SWAP3 SWAP2 SWAP1 DUP2 DUP2 MSTORE PUSH1 0x20 ADD DUP3 DUP1 SLOAD PUSH2 0x2BD9 SWAP1 PUSH2 0x5452 JUMP JUMPDEST DUP1 ISZERO PUSH2 0x2C24 JUMPI DUP1 PUSH1 0x1F LT PUSH2 0x2BFB JUMPI PUSH2 0x100 DUP1 DUP4 SLOAD DIV MUL DUP4 MSTORE SWAP2 PUSH1 0x20 ADD SWAP2 PUSH2 0x2C24 JUMP JUMPDEST DUP3 ADD SWAP2 SWAP1 PUSH0 MSTORE PUSH1 0x20 PUSH0 KECCAK256 SWAP1 JUMPDEST DUP2 SLOAD DUP2 MSTORE SWAP1 PUSH1 0x1 ADD SWAP1 PUSH1 0x20 ADD DUP1 DUP4 GT PUSH2 0x2C07 JUMPI DUP3 SWAP1 SUB PUSH1 0x1F AND DUP3 ADD SWAP2 JUMPDEST POP POP POP POP POP DUP2 MSTORE PUSH1 0x20 ADD PUSH1 0x8 DUP3 ADD DUP1 SLOAD PUSH2 0x2C3D SWAP1 PUSH2 0x5452 JUMP JUMPDEST DUP1 PUSH1 0x1F ADD PUSH1 0x20 DUP1 SWAP2 DIV MUL PUSH1 0x20 ADD PUSH1 0x40 MLOAD SWAP1 DUP2 ADD PUSH1 0x40 MSTORE DUP1 SWAP3 SWAP2 SWAP1 DUP2 DUP2 MSTORE PUSH1 0x20 ADD DUP3 DUP1 SLOAD PUSH2 0x2C69 SWAP1 PUSH2 0x5452 JUMP JUMPDEST DUP1 ISZERO PUSH2 0x2CB4 JUMPI DUP1 PUSH1 0x1F LT PUSH2 0x2C8B JUMPI PUSH2 0x100 DUP1 DUP4 SLOAD DIV MUL DUP4 MSTORE SWAP2 PUSH1 0x20 ADD SWAP2 PUSH2 0x2CB4 JUMP JUMPDEST DUP3 ADD SWAP2 SWAP1 PUSH0 MSTORE PUSH1 0x20 PUSH0 KECCAK256 SWAP1 JUMPDEST DUP2 SLOAD DUP2 MSTORE SWAP1 PUSH1 0x1 ADD SWAP1 PUSH1 0x20 ADD DUP1 DUP4 GT PUSH2 0x2C97 JUMPI DUP3 SWAP1 SUB PUSH1 0x1F AND DUP3 ADD SWAP2 JUMPDEST POP POP POP POP POP DUP2 MSTORE PUSH1 0x20 ADD PUSH1 0x9 DUP3 ADD DUP1 SLOAD PUSH2 0x2CCD SWAP1 PUSH2 0x5452 JUMP JUMPDEST DUP1 PUSH1 0x1F ADD PUSH1 0x20 DUP1 SWAP2 DIV MUL PUSH1 0x20 ADD PUSH1 0x40 MLOAD SWAP1 DUP2 ADD PUSH1 0x40 MSTORE DUP1 SWAP3 SWAP2 SWAP1 DUP2 DUP2 MSTORE PUSH1 0x20 ADD DUP3 DUP1 SLOAD PUSH2 0x2CF9 SWAP1 PUSH2 0x5452 JUMP JUMPDEST DUP1 ISZERO PUSH2 0x2D44 JUMPI DUP1 PUSH1 0x1F LT PUSH2 0x2D1B JUMPI PUSH2 0x100 DUP1 DUP4 SLOAD DIV MUL DUP4 MSTORE SWAP2 PUSH1 0x20 ADD SWAP2 PUSH2 0x2D44 JUMP JUMPDEST DUP3 ADD SWAP2 SWAP1 PUSH0 MSTORE PUSH1 0x20 PUSH0 KECCAK256 SWAP1 JUMPDEST DUP2 SLOAD DUP2 MSTORE SWAP1 PUSH1 0x1 ADD SWAP1 PUSH1 0x20 ADD DUP1 DUP4 GT PUSH2 0x2D27 JUMPI DUP3 SWAP1 SUB PUSH1 0x1F AND DUP3 ADD SWAP2 JUMPDEST POP POP POP POP POP DUP2 MSTORE PUSH1 0x20 ADD PUSH1 0xA DUP3 ADD DUP1 SLOAD PUSH2 0x2D5D SWAP1 PUSH2 0x5452 JUMP JUMPDEST DUP1 PUSH1 0x1F ADD PUSH1 0x20 DUP1 SWAP2 DIV MUL PUSH1 0x20 ADD PUSH1 0x40 MLOAD SWAP1 DUP2 ADD PUSH1 0x40 MSTORE DUP1 SWAP3 SWAP2 SWAP1 DUP2 DUP2 MSTORE PUSH1 0x20 ADD DUP3 DUP1 SLOAD PUSH2 0x2D89 SWAP1 PUSH2 0x5452 JUMP JUMPDEST DUP1 ISZERO PUSH2 0x2DD4 JUMPI DUP1 PUSH1 0x1F LT PUSH2 0x2DAB JUMPI PUSH2 0x100 DUP1 DUP4 SLOAD DIV MUL DUP4 MSTORE SWAP2 PUSH1 0x20 ADD SWAP2 PUSH2 0x2DD4 JUMP JUMPDEST DUP3 ADD SWAP2 SWAP1 PUSH0 MSTORE PUSH1 0x20 PUSH0 KECCAK256 SWAP1 JUMPDEST DUP2 SLOAD DUP2 MSTORE SWAP1 PUSH1 0x1 ADD SWAP1 PUSH1 0x20 ADD DUP1 DUP4 GT PUSH2 0x2DB7 JUMPI DUP3 SWAP1 SUB PUSH1 0x1F AND DUP3 ADD SWAP2 JUMPDEST POP POP POP POP POP DUP2 MSTORE POP POP DUP2 MSTORE PUSH1 0x20 ADD SWAP1 PUSH1 0x1 ADD SWAP1 PUSH2 0x2888 JUMP JUMPDEST PUSH1 0x8 PUSH1 0x20 MSTORE PUSH0 SWAP1 DUP2 MSTORE PUSH1 0x40 SWAP1 KECCAK256 DUP1 SLOAD PUSH1 0x1 DUP3 ADD DUP1 SLOAD PUSH1 0x1 PUSH1 0x1 PUSH1 0xA0 SHL SUB SWAP1 SWAP3 AND SWAP3 SWAP2 PUSH2 0x2E17 SWAP1 PUSH2 0x5452 JUMP JUMPDEST DUP1 PUSH1 0x1F ADD PUSH1 0x20 DUP1 SWAP2 DIV MUL PUSH1 0x20 ADD PUSH1 0x40 MLOAD SWAP1 DUP2 ADD PUSH1 0x40 MSTORE DUP1 SWAP3 SWAP2 SWAP1 DUP2 DUP2 MSTORE PUSH1 0x20 ADD DUP3 DUP1 SLOAD PUSH2 0x2E43 SWAP1 PUSH2 0x5452 JUMP JUMPDEST DUP1 ISZERO PUSH2 0x2E8E JUMPI DUP1 PUSH1 0x1F LT PUSH2 0x2E65 JUMPI PUSH2 0x100 DUP1 DUP4 SLOAD DIV MUL DUP4 MSTORE SWAP2 PUSH1 0x20 ADD SWAP2 PUSH2 0x2E8E JUMP JUMPDEST DUP3 ADD SWAP2 SWAP1 PUSH0 MSTORE PUSH1 0x20 PUSH0 KECCAK256 SWAP1 JUMPDEST DUP2 SLOAD DUP2 MSTORE SWAP1 PUSH1 0x1 ADD SWAP1 PUSH1 0x20 ADD DUP1 DUP4 GT PUSH2 0x2E71 JUMPI DUP3 SWAP1 SUB PUSH1 0x1F AND DUP3 ADD SWAP2 JUMPDEST POP POP POP POP POP SWAP1 DUP1 PUSH1 0x2 ADD DUP1 SLOAD PUSH2 0x2EA3 SWAP1 PUSH2 0x5452 JUMP JUMPDEST DUP1 PUSH1 0x1F ADD PUSH1 0x20 DUP1 SWAP2 DIV MUL PUSH1 0x20 ADD PUSH1 0x40 MLOAD SWAP1 DUP2 ADD PUSH1 0x40 MSTORE DUP1 SWAP3 SWAP2 SWAP1 DUP2 DUP2 MSTORE PUSH1 0x20 ADD DUP3 DUP1 SLOAD PUSH2 0x2ECF SWAP1 PUSH2 0x5452 JUMP JUMPDEST DUP1 ISZERO PUSH2 0x2F1A JUMPI DUP1 PUSH1 0x1F LT PUSH2 0x2EF1 JUMPI PUSH2 0x100 DUP1 DUP4 SLOAD DIV MUL DUP4 MSTORE SWAP2 PUSH1 0x20 ADD SWAP2 PUSH2 0x2F1A JUMP JUMPDEST DUP3 ADD SWAP2 SWAP1 PUSH0 MSTORE PUSH1 0x20 PUSH0 KECCAK256 SWAP1 JUMPDEST DUP2 SLOAD DUP2 MSTORE SWAP1 PUSH1 0x1 ADD SWAP1 PUSH1 0x20 ADD DUP1 DUP4 GT PUSH2 0x2EFD JUMPI DUP3 SWAP1 SUB PUSH1 0x1F AND DUP3 ADD SWAP2 JUMPDEST POP POP POP POP POP SWAP1 DUP1 PUSH1 0x3 ADD DUP1 SLOAD PUSH2 0x2F2F SWAP1 PUSH2 0x5452 JUMP JUMPDEST DUP1 PUSH1 0x1F ADD PUSH1 0x20 DUP1 SWAP2 DIV MUL PUSH1 0x20 ADD PUSH1 0x40 MLOAD SWAP1 DUP2 ADD PUSH1 0x40 MSTORE DUP1 SWAP3 SWAP2 SWAP1 DUP2 DUP2 MSTORE PUSH1 0x20 ADD DUP3 DUP1 SLOAD PUSH2 0x2F5B SWAP1 PUSH2 0x5452 JUMP JUMPDEST DUP1 ISZERO PUSH2 0x2FA6 JUMPI DUP1 PUSH1 0x1F LT PUSH2 0x2F7D JUMPI PUSH2 0x100 DUP1 DUP4 SLOAD DIV MUL DUP4 MSTORE SWAP2 PUSH1 0x20 ADD SWAP2 PUSH2 0x2FA6 JUMP JUMPDEST DUP3 ADD SWAP2 SWAP1 PUSH0 MSTORE PUSH1 0x20 PUSH0 KECCAK256 SWAP1 JUMPDEST DUP2 SLOAD DUP2 MSTORE SWAP1 PUSH1 0x1 ADD SWAP1 PUSH1 0x20 ADD DUP1 DUP4 GT PUSH2 0x2F89 JUMPI DUP3 SWAP1 SUB PUSH1 0x1F AND DUP3 ADD SWAP2 JUMPDEST POP POP POP POP POP SWAP1 DUP1 PUSH1 0x4 ADD SLOAD SWAP1 POP DUP6 JUMP JUMPDEST CALLER PUSH0 SWAP1 DUP2 MSTORE PUSH1 0x6 PUSH1 0x20 MSTORE PUSH1 0x40 DUP2 KECCAK256 SLOAD PUSH1 0xFF AND ISZERO PUSH2 0x2FD1 JUMPI POP PUSH1 0x1 JUMPDEST CALLER PUSH0 SWAP1 DUP2 MSTORE PUSH1 0x6 PUSH1 0x20 MSTORE PUSH1 0x40 SWAP1 KECCAK256 SLOAD PUSH1 0xFF AND PUSH2 0x2FFF JUMPI PUSH1 0x40 MLOAD PUSH3 0x461BCD PUSH1 0xE5 SHL DUP2 MSTORE PUSH1 0x4 ADD PUSH2 0x5F8 SWAP1 PUSH2 0x53EA JUMP JUMPDEST PUSH1 0x1 PUSH1 0x1 PUSH1 0xA0 SHL SUB DUP11 AND ISZERO DUP1 ISZERO SWAP1 PUSH2 0x3017 JUMPI POP PUSH0 DUP10 MLOAD GT JUMPDEST DUP1 ISZERO PUSH2 0x3023 JUMPI POP PUSH0 DUP9 MLOAD GT JUMPDEST PUSH2 0x303F JUMPI PUSH1 0x40 MLOAD PUSH3 0x461BCD PUSH1 0xE5 SHL DUP2 MSTORE PUSH1 0x4 ADD PUSH2 0x5F8 SWAP1 PUSH2 0x5677 JUMP JUMPDEST PUSH1 0x1 PUSH1 0x1 PUSH1 0xA0 SHL SUB DUP1 DUP12 AND PUSH0 DUP2 DUP2 MSTORE PUSH1 0x2 PUSH1 0x20 DUP2 SWAP1 MSTORE PUSH1 0x40 SWAP1 SWAP2 KECCAK256 ADD SLOAD SWAP1 SWAP2 AND EQ PUSH2 0x307C JUMPI PUSH1 0x40 MLOAD PUSH3 0x461BCD PUSH1 0xE5 SHL DUP2 MSTORE PUSH1 0x4 ADD PUSH2 0x5F8 SWAP1 PUSH2 0x56BD JUMP JUMPDEST PUSH0 DUP7 SWAP1 POP PUSH1 0x40 MLOAD DUP1 PUSH2 0x160 ADD PUSH1 0x40 MSTORE DUP1 DUP15 DUP2 MSTORE PUSH1 0x20 ADD DUP14 DUP2 MSTORE PUSH1 0x20 ADD DUP13 PUSH1 0x1 PUSH1 0x1 PUSH1 0xA0 SHL SUB AND DUP2 MSTORE PUSH1 0x20 ADD DUP12 DUP2 MSTORE PUSH1 0x20 ADD DUP11 DUP2 MSTORE PUSH1 0x20 ADD DUP10 DUP2 MSTORE PUSH1 0x20 ADD DUP3 DUP2 MSTORE PUSH1 0x20 ADD DUP8 DUP2 MSTORE PUSH1 0x20 ADD DUP7 DUP2 MSTORE PUSH1 0x20 ADD DUP6 DUP2 MSTORE PUSH1 0x20 ADD DUP5 DUP2 MSTORE POP PUSH1 0x2 PUSH0 DUP14 PUSH1 0x1 PUSH1 0x1 PUSH1 0xA0 SHL SUB AND PUSH1 0x1 PUSH1 0x1 PUSH1 0xA0 SHL SUB AND DUP2 MSTORE PUSH1 0x20 ADD SWAP1 DUP2 MSTORE PUSH1 0x20 ADD PUSH0 KECCAK256 PUSH0 DUP3 ADD MLOAD DUP2 PUSH0 ADD SWAP1 DUP2 PUSH2 0x310B SWAP2 SWAP1 PUSH2 0x54D4 JUMP JUMPDEST POP PUSH1 0x20 DUP3 ADD MLOAD PUSH1 0x1 DUP3 ADD SWAP1 PUSH2 0x3120 SWAP1 DUP3 PUSH2 0x54D4 JUMP JUMPDEST POP PUSH1 0x40 DUP3 ADD MLOAD PUSH1 0x2 DUP3 ADD DUP1 SLOAD PUSH1 0x1 PUSH1 0x1 PUSH1 0xA0 SHL SUB NOT AND PUSH1 0x1 PUSH1 0x1 PUSH1 0xA0 SHL SUB SWAP1 SWAP3 AND SWAP2 SWAP1 SWAP2 OR SWAP1 SSTORE PUSH1 0x60 DUP3 ADD MLOAD PUSH1 0x3 DUP3 ADD SWAP1 PUSH2 0x315B SWAP1 DUP3 PUSH2 0x54D4 JUMP JUMPDEST POP PUSH1 0x80 DUP3 ADD MLOAD PUSH1 0x4 DUP3 ADD SWAP1 PUSH2 0x3170 SWAP1 DUP3 PUSH2 0x54D4 JUMP JUMPDEST POP PUSH1 0xA0 DUP3 ADD MLOAD PUSH1 0x5 DUP3 ADD SWAP1 PUSH2 0x3185 SWAP1 DUP3 PUSH2 0x54D4 JUMP JUMPDEST POP PUSH1 0xC0 DUP3 ADD MLOAD PUSH1 0x6 DUP3 ADD SSTORE PUSH1 0xE0 DUP3 ADD MLOAD PUSH1 0x7 DUP3 ADD SSTORE PUSH2 0x100 DUP3 ADD MLOAD PUSH1 0x8 DUP3 ADD SWAP1 PUSH2 0x31AF SWAP1 DUP3 PUSH2 0x54D4 JUMP JUMPDEST POP PUSH2 0x120 DUP3 ADD MLOAD PUSH1 0x9 DUP3 ADD SSTORE PUSH2 0x140 SWAP1 SWAP2 ADD MLOAD PUSH1 0xA SWAP1 SWAP2 ADD SSTORE POP POP POP POP POP POP POP POP POP POP POP POP POP JUMP JUMPDEST PUSH2 0x3238 PUSH1 0x40 MLOAD DUP1 PUSH2 0x160 ADD PUSH1 0x40 MSTORE DUP1 PUSH1 0x60 DUP2 MSTORE PUSH1 0x20 ADD PUSH1 0x60 DUP2 MSTORE PUSH1 0x20 ADD PUSH0 PUSH1 0x1 PUSH1 0x1 PUSH1 0xA0 SHL SUB AND DUP2 MSTORE PUSH1 0x20 ADD PUSH1 0x60 DUP2 MSTORE PUSH1 0x20 ADD PUSH1 0x60 DUP2 MSTORE PUSH1 0x20 ADD PUSH1 0x60 DUP2 MSTORE PUSH1 0x20 ADD PUSH0 DUP2 MSTORE PUSH1 0x20 ADD PUSH0 DUP2 MSTORE PUSH1 0x20 ADD PUSH1 0x60 DUP2 MSTORE PUSH1 0x20 ADD PUSH0 DUP2 MSTORE PUSH1 0x20 ADD PUSH0 DUP2 MSTORE POP SWAP1 JUMP JUMPDEST PUSH2 0x328B PUSH1 0x40 MLOAD DUP1 PUSH2 0x100 ADD PUSH1 0x40 MSTORE DUP1 PUSH1 0x60 DUP2 MSTORE PUSH1 0x20 ADD PUSH0 PUSH1 0x1 PUSH1 0x1 PUSH1 0xA0 SHL SUB AND DUP2 MSTORE PUSH1 0x20 ADD PUSH0 ISZERO ISZERO DUP2 MSTORE PUSH1 0x20 ADD PUSH0 ISZERO ISZERO DUP2 MSTORE PUSH1 0x20 ADD PUSH0 ISZERO ISZERO DUP2 MSTORE PUSH1 0x20 ADD PUSH1 0x60 DUP2 MSTORE PUSH1 0x20 ADD PUSH1 0x60 DUP2 MSTORE PUSH1 0x20 ADD PUSH1 0x60 DUP2 MSTORE POP SWAP1 JUMP JUMPDEST CALLER PUSH0 DUP2 DUP2 MSTORE PUSH1 0x2 PUSH1 0x20 DUP2 SWAP1 MSTORE PUSH1 0x40 SWAP1 SWAP2 KECCAK256 ADD SLOAD PUSH1 0x1 PUSH1 0x1 PUSH1 0xA0 SHL SUB AND EQ DUP1 PUSH2 0x32CB JUMPI POP CALLER PUSH0 DUP2 DUP2 MSTORE PUSH1 0x3 PUSH1 0x20 MSTORE PUSH1 0x40 SWAP1 KECCAK256 PUSH1 0x1 ADD SLOAD PUSH1 0x1 PUSH1 0x1 PUSH1 0xA0 SHL SUB AND EQ JUMPDEST DUP1 PUSH2 0x32E4 JUMPI POP CALLER PUSH0 SWAP1 DUP2 MSTORE PUSH1 0x6 PUSH1 0x20 MSTORE PUSH1 0x40 SWAP1 KECCAK256 SLOAD PUSH1 0xFF AND JUMPDEST DUP1 PUSH2 0x32FD JUMPI POP CALLER PUSH0 SWAP1 DUP2 MSTORE PUSH1 0x20 DUP2 SWAP1 MSTORE PUSH1 0x40 SWAP1 KECCAK256 SLOAD PUSH1 0xFF AND JUMPDEST DUP1 PUSH2 0x3312 JUMPI POP PUSH1 0x1 SLOAD PUSH1 0x1 PUSH1 0x1 PUSH1 0xA0 SHL SUB AND CALLER EQ JUMPDEST PUSH2 0x332E JUMPI PUSH1 0x40 MLOAD PUSH3 0x461BCD PUSH1 0xE5 SHL DUP2 MSTORE PUSH1 0x4 ADD PUSH2 0x5F8 SWAP1 PUSH2 0x586C JUMP JUMPDEST PUSH1 0x1 PUSH1 0x1 PUSH1 0xA0 SHL SUB DUP4 AND PUSH2 0x3354 JUMPI PUSH1 0x40 MLOAD PUSH3 0x461BCD PUSH1 0xE5 SHL DUP2 MSTORE PUSH1 0x4 ADD PUSH2 0x5F8 SWAP1 PUSH2 0x578C JUMP JUMPDEST PUSH1 0x1 PUSH1 0x1 PUSH1 0xA0 SHL SUB DUP1 DUP5 AND PUSH0 DUP2 DUP2 MSTORE PUSH1 0x2 PUSH1 0x20 DUP2 SWAP1 MSTORE PUSH1 0x40 SWAP1 SWAP2 KECCAK256 ADD SLOAD SWAP1 SWAP2 AND EQ DUP1 ISZERO PUSH2 0x339D JUMPI POP PUSH1 0x1 PUSH1 0x1 PUSH1 0xA0 SHL SUB DUP1 DUP5 AND PUSH0 DUP2 DUP2 MSTORE PUSH1 0x3 PUSH1 0x20 MSTORE PUSH1 0x40 SWAP1 KECCAK256 PUSH1 0x1 ADD SLOAD SWAP1 SWAP2 AND EQ JUMPDEST PUSH2 0x345B JUMPI PUSH1 0x40 MLOAD PUSH3 0x461BCD PUSH1 0xE5 SHL DUP2 MSTORE PUSH1 0x20 PUSH1 0x4 DUP3 ADD MSTORE PUSH1 0x79 PUSH1 0x24 DUP3 ADD MSTORE PUSH32 0x496E636F72726563742050617469656E742077616C6C65742061646472657373 PUSH1 0x44 DUP3 ADD MSTORE PUSH32 0x206F72205468652050617469656E742064657461696C20666F72207468652061 PUSH1 0x64 DUP3 ADD MSTORE PUSH32 0x6464726573732070726F7669646564206973206E6F7420636F6D706C65746C79 PUSH1 0x84 DUP3 ADD MSTORE PUSH32 0x20617661696C61626C6520696E2074686520636861696E212100000000000000 PUSH1 0xA4 DUP3 ADD MSTORE PUSH1 0xC4 ADD PUSH2 0x5F8 JUMP JUMPDEST PUSH1 0x1 PUSH1 0x1 PUSH1 0xA0 SHL SUB DUP4 AND PUSH0 SWAP1 DUP2 MSTORE PUSH1 0x2 PUSH1 0x20 SWAP1 DUP2 MSTORE PUSH1 0x40 DUP1 DUP4 KECCAK256 PUSH1 0x3 SWAP1 SWAP3 MSTORE SWAP2 DUP3 SWAP1 KECCAK256 DUP3 MLOAD PUSH2 0x160 DUP2 ADD SWAP1 SWAP4 MSTORE DUP2 SLOAD SWAP2 SWAP3 SWAP1 SWAP2 DUP4 SWAP1 DUP3 SWAP1 DUP3 SWAP1 PUSH2 0x349D SWAP1 PUSH2 0x5452 JUMP JUMPDEST DUP1 PUSH1 0x1F ADD PUSH1 0x20 DUP1 SWAP2 DIV MUL PUSH1 0x20 ADD PUSH1 0x40 MLOAD SWAP1 DUP2 ADD PUSH1 0x40 MSTORE DUP1 SWAP3 SWAP2 SWAP1 DUP2 DUP2 MSTORE PUSH1 0x20 ADD DUP3 DUP1 SLOAD PUSH2 0x34C9 SWAP1 PUSH2 0x5452 JUMP JUMPDEST DUP1 ISZERO PUSH2 0x3514 JUMPI DUP1 PUSH1 0x1F LT PUSH2 0x34EB JUMPI PUSH2 0x100 DUP1 DUP4 SLOAD DIV MUL DUP4 MSTORE SWAP2 PUSH1 0x20 ADD SWAP2 PUSH2 0x3514 JUMP JUMPDEST DUP3 ADD SWAP2 SWAP1 PUSH0 MSTORE PUSH1 0x20 PUSH0 KECCAK256 SWAP1 JUMPDEST DUP2 SLOAD DUP2 MSTORE SWAP1 PUSH1 0x1 ADD SWAP1 PUSH1 0x20 ADD DUP1 DUP4 GT PUSH2 0x34F7 JUMPI DUP3 SWAP1 SUB PUSH1 0x1F AND DUP3 ADD SWAP2 JUMPDEST POP POP POP POP POP DUP2 MSTORE PUSH1 0x20 ADD PUSH1 0x1 DUP3 ADD DUP1 SLOAD PUSH2 0x352D SWAP1 PUSH2 0x5452 JUMP JUMPDEST DUP1 PUSH1 0x1F ADD PUSH1 0x20 DUP1 SWAP2 DIV MUL PUSH1 0x20 ADD PUSH1 0x40 MLOAD SWAP1 DUP2 ADD PUSH1 0x40 MSTORE DUP1 SWAP3 SWAP2 SWAP1 DUP2 DUP2 MSTORE PUSH1 0x20 ADD DUP3 DUP1 SLOAD PUSH2 0x3559 SWAP1 PUSH2 0x5452 JUMP JUMPDEST DUP1 ISZERO PUSH2 0x35A4 JUMPI DUP1 PUSH1 0x1F LT PUSH2 0x357B JUMPI PUSH2 0x100 DUP1 DUP4 SLOAD DIV MUL DUP4 MSTORE SWAP2 PUSH1 0x20 ADD SWAP2 PUSH2 0x35A4 JUMP JUMPDEST DUP3 ADD SWAP2 SWAP1 PUSH0 MSTORE PUSH1 0x20 PUSH0 KECCAK256 SWAP1 JUMPDEST DUP2 SLOAD DUP2 MSTORE SWAP1 PUSH1 0x1 ADD SWAP1 PUSH1 0x20 ADD DUP1 DUP4 GT PUSH2 0x3587 JUMPI DUP3 SWAP1 SUB PUSH1 0x1F AND DUP3 ADD SWAP2 JUMPDEST POP POP POP SWAP2 DUP4 MSTORE POP POP PUSH1 0x2 DUP3 ADD SLOAD PUSH1 0x1 PUSH1 0x1 PUSH1 0xA0 SHL SUB AND PUSH1 0x20 DUP3 ADD MSTORE PUSH1 0x3 DUP3 ADD DUP1 SLOAD PUSH1 0x40 SWAP1 SWAP3 ADD SWAP2 PUSH2 0x35D4 SWAP1 PUSH2 0x5452 JUMP JUMPDEST DUP1 PUSH1 0x1F ADD PUSH1 0x20 DUP1 SWAP2 DIV MUL PUSH1 0x20 ADD PUSH1 0x40 MLOAD SWAP1 DUP2 ADD PUSH1 0x40 MSTORE DUP1 SWAP3 SWAP2 SWAP1 DUP2 DUP2 MSTORE PUSH1 0x20 ADD DUP3 DUP1 SLOAD PUSH2 0x3600 SWAP1 PUSH2 0x5452 JUMP JUMPDEST DUP1 ISZERO PUSH2 0x364B JUMPI DUP1 PUSH1 0x1F LT PUSH2 0x3622 JUMPI PUSH2 0x100 DUP1 DUP4 SLOAD DIV MUL DUP4 MSTORE SWAP2 PUSH1 0x20 ADD SWAP2 PUSH2 0x364B JUMP JUMPDEST DUP3 ADD SWAP2 SWAP1 PUSH0 MSTORE PUSH1 0x20 PUSH0 KECCAK256 SWAP1 JUMPDEST DUP2 SLOAD DUP2 MSTORE SWAP1 PUSH1 0x1 ADD SWAP1 PUSH1 0x20 ADD DUP1 DUP4 GT PUSH2 0x362E JUMPI DUP3 SWAP1 SUB PUSH1 0x1F AND DUP3 ADD SWAP2 JUMPDEST POP POP POP POP POP DUP2 MSTORE PUSH1 0x20 ADD PUSH1 0x4 DUP3 ADD DUP1 SLOAD PUSH2 0x3664 SWAP1 PUSH2 0x5452 JUMP JUMPDEST DUP1 PUSH1 0x1F ADD PUSH1 0x20 DUP1 SWAP2 DIV MUL PUSH1 0x20 ADD PUSH1 0x40 MLOAD SWAP1 DUP2 ADD PUSH1 0x40 MSTORE DUP1 SWAP3 SWAP2 SWAP1 DUP2 DUP2 MSTORE PUSH1 0x20 ADD DUP3 DUP1 SLOAD PUSH2 0x3690 SWAP1 PUSH2 0x5452 JUMP JUMPDEST DUP1 ISZERO PUSH2 0x36DB JUMPI DUP1 PUSH1 0x1F LT PUSH2 0x36B2 JUMPI PUSH2 0x100 DUP1 DUP4 SLOAD DIV MUL DUP4 MSTORE SWAP2 PUSH1 0x20 ADD SWAP2 PUSH2 0x36DB JUMP JUMPDEST DUP3 ADD SWAP2 SWAP1 PUSH0 MSTORE PUSH1 0x20 PUSH0 KECCAK256 SWAP1 JUMPDEST DUP2 SLOAD DUP2 MSTORE SWAP1 PUSH1 0x1 ADD SWAP1 PUSH1 0x20 ADD DUP1 DUP4 GT PUSH2 0x36BE JUMPI DUP3 SWAP1 SUB PUSH1 0x1F AND DUP3 ADD SWAP2 JUMPDEST POP POP POP POP POP DUP2 MSTORE PUSH1 0x20 ADD PUSH1 0x5 DUP3 ADD DUP1 SLOAD PUSH2 0x36F4 SWAP1 PUSH2 0x5452 JUMP JUMPDEST DUP1 PUSH1 0x1F ADD PUSH1 0x20 DUP1 SWAP2 DIV MUL PUSH1 0x20 ADD PUSH1 0x40 MLOAD SWAP1 DUP2 ADD PUSH1 0x40 MSTORE DUP1 SWAP3 SWAP2 SWAP1 DUP2 DUP2 MSTORE PUSH1 0x20 ADD DUP3 DUP1 SLOAD PUSH2 0x3720 SWAP1 PUSH2 0x5452 JUMP JUMPDEST DUP1 ISZERO PUSH2 0x376B JUMPI DUP1 PUSH1 0x1F LT PUSH2 0x3742 JUMPI PUSH2 0x100 DUP1 DUP4 SLOAD DIV MUL DUP4 MSTORE SWAP2 PUSH1 0x20 ADD SWAP2 PUSH2 0x376B JUMP JUMPDEST DUP3 ADD SWAP2 SWAP1 PUSH0 MSTORE PUSH1 0x20 PUSH0 KECCAK256 SWAP1 JUMPDEST DUP2 SLOAD DUP2 MSTORE SWAP1 PUSH1 0x1 ADD SWAP1 PUSH1 0x20 ADD DUP1 DUP4 GT PUSH2 0x374E JUMPI DUP3 SWAP1 SUB PUSH1 0x1F AND DUP3 ADD SWAP2 JUMPDEST POP POP POP POP POP DUP2 MSTORE PUSH1 0x20 ADD PUSH1 0x6 DUP3 ADD SLOAD DUP2 MSTORE PUSH1 0x20 ADD PUSH1 0x7 DUP3 ADD SLOAD DUP2 MSTORE PUSH1 0x20 ADD PUSH1 0x8 DUP3 ADD DUP1 SLOAD PUSH2 0x3798 SWAP1 PUSH2 0x5452 JUMP JUMPDEST DUP1 PUSH1 0x1F ADD PUSH1 0x20 DUP1 SWAP2 DIV MUL PUSH1 0x20 ADD PUSH1 0x40 MLOAD SWAP1 DUP2 ADD PUSH1 0x40 MSTORE DUP1 SWAP3 SWAP2 SWAP1 DUP2 DUP2 MSTORE PUSH1 0x20 ADD DUP3 DUP1 SLOAD PUSH2 0x37C4 SWAP1 PUSH2 0x5452 JUMP JUMPDEST DUP1 ISZERO PUSH2 0x380F JUMPI DUP1 PUSH1 0x1F LT PUSH2 0x37E6 JUMPI PUSH2 0x100 DUP1 DUP4 SLOAD DIV MUL DUP4 MSTORE SWAP2 PUSH1 0x20 ADD SWAP2 PUSH2 0x380F JUMP JUMPDEST DUP3 ADD SWAP2 SWAP1 PUSH0 MSTORE PUSH1 0x20 PUSH0 KECCAK256 SWAP1 JUMPDEST DUP2 SLOAD DUP2 MSTORE SWAP1 PUSH1 0x1 ADD SWAP1 PUSH1 0x20 ADD DUP1 DUP4 GT PUSH2 0x37F2 JUMPI DUP3 SWAP1 SUB PUSH1 0x1F AND DUP3 ADD SWAP2 JUMPDEST POP POP POP POP POP DUP2 MSTORE PUSH1 0x20 ADD PUSH1 0x9 DUP3 ADD SLOAD DUP2 MSTORE PUSH1 0x20 ADD PUSH1 0xA DUP3 ADD SLOAD DUP2 MSTORE POP POP SWAP2 POP DUP1 PUSH1 0x40 MLOAD DUP1 PUSH2 0x100 ADD PUSH1 0x40 MSTORE SWAP1 DUP2 PUSH0 DUP3 ADD DUP1 SLOAD PUSH2 0x384A SWAP1 PUSH2 0x5452 JUMP JUMPDEST DUP1 PUSH1 0x1F ADD PUSH1 0x20 DUP1 SWAP2 DIV MUL PUSH1 0x20 ADD PUSH1 0x40 MLOAD SWAP1 DUP2 ADD PUSH1 0x40 MSTORE DUP1 SWAP3 SWAP2 SWAP1 DUP2 DUP2 MSTORE PUSH1 0x20 ADD DUP3 DUP1 SLOAD PUSH2 0x3876 SWAP1 PUSH2 0x5452 JUMP JUMPDEST DUP1 ISZERO PUSH2 0x38C1 JUMPI DUP1 PUSH1 0x1F LT PUSH2 0x3898 JUMPI PUSH2 0x100 DUP1 DUP4 SLOAD DIV MUL DUP4 MSTORE SWAP2 PUSH1 0x20 ADD SWAP2 PUSH2 0x38C1 JUMP JUMPDEST DUP3 ADD SWAP2 SWAP1 PUSH0 MSTORE PUSH1 0x20 PUSH0 KECCAK256 SWAP1 JUMPDEST DUP2 SLOAD DUP2 MSTORE SWAP1 PUSH1 0x1 ADD SWAP1 PUSH1 0x20 ADD DUP1 DUP4 GT PUSH2 0x38A4 JUMPI DUP3 SWAP1 SUB PUSH1 0x1F AND DUP3 ADD SWAP2 JUMPDEST POP POP POP SWAP2 DUP4 MSTORE POP POP PUSH1 0x1 DUP3 ADD SLOAD PUSH1 0x1 PUSH1 0x1 PUSH1 0xA0 SHL SUB DUP2 AND PUSH1 0x20 DUP4 ADD MSTORE PUSH1 0xFF PUSH1 0x1 PUSH1 0xA0 SHL DUP3 DIV DUP2 AND ISZERO ISZERO PUSH1 0x40 DUP5 ADD MSTORE PUSH1 0x1 PUSH1 0xA8 SHL DUP3 DIV DUP2 AND ISZERO ISZERO PUSH1 0x60 DUP5 ADD MSTORE PUSH1 0x1 PUSH1 0xB0 SHL SWAP1 SWAP2 DIV AND ISZERO ISZERO PUSH1 0x80 DUP3 ADD MSTORE PUSH1 0x2 DUP3 ADD DUP1 SLOAD PUSH1 0xA0 SWAP1 SWAP3 ADD SWAP2 PUSH2 0x3924 SWAP1 PUSH2 0x5452 JUMP JUMPDEST DUP1 PUSH1 0x1F ADD PUSH1 0x20 DUP1 SWAP2 DIV MUL PUSH1 0x20 ADD PUSH1 0x40 MLOAD SWAP1 DUP2 ADD PUSH1 0x40 MSTORE DUP1 SWAP3 SWAP2 SWAP1 DUP2 DUP2 MSTORE PUSH1 0x20 ADD DUP3 DUP1 SLOAD PUSH2 0x3950 SWAP1 PUSH2 0x5452 JUMP JUMPDEST DUP1 ISZERO PUSH2 0x399B JUMPI DUP1 PUSH1 0x1F LT PUSH2 0x3972 JUMPI PUSH2 0x100 DUP1 DUP4 SLOAD DIV MUL DUP4 MSTORE SWAP2 PUSH1 0x20 ADD SWAP2 PUSH2 0x399B JUMP JUMPDEST DUP3 ADD SWAP2 SWAP1 PUSH0 MSTORE PUSH1 0x20 PUSH0 KECCAK256 SWAP1 JUMPDEST DUP2 SLOAD DUP2 MSTORE SWAP1 PUSH1 0x1 ADD SWAP1 PUSH1 0x20 ADD DUP1 DUP4 GT PUSH2 0x397E JUMPI DUP3 SWAP1 SUB PUSH1 0x1F AND DUP3 ADD SWAP2 JUMPDEST POP POP POP POP POP DUP2 MSTORE PUSH1 0x20 ADD PUSH1 0x3 DUP3 ADD DUP1 SLOAD PUSH2 0x39B4 SWAP1 PUSH2 0x5452 JUMP JUMPDEST DUP1 PUSH1 0x1F ADD PUSH1 0x20 DUP1 SWAP2 DIV MUL PUSH1 0x20 ADD PUSH1 0x40 MLOAD SWAP1 DUP2 ADD PUSH1 0x40 MSTORE DUP1 SWAP3 SWAP2 SWAP1 DUP2 DUP2 MSTORE PUSH1 0x20 ADD DUP3 DUP1 SLOAD PUSH2 0x39E0 SWAP1 PUSH2 0x5452 JUMP JUMPDEST DUP1 ISZERO PUSH2 0x3A2B JUMPI DUP1 PUSH1 0x1F LT PUSH2 0x3A02 JUMPI PUSH2 0x100 DUP1 DUP4 SLOAD DIV MUL DUP4 MSTORE SWAP2 PUSH1 0x20 ADD SWAP2 PUSH2 0x3A2B JUMP JUMPDEST DUP3 ADD SWAP2 SWAP1 PUSH0 MSTORE PUSH1 0x20 PUSH0 KECCAK256 SWAP1 JUMPDEST DUP2 SLOAD DUP2 MSTORE SWAP1 PUSH1 0x1 ADD SWAP1 PUSH1 0x20 ADD DUP1 DUP4 GT PUSH2 0x3A0E JUMPI DUP3 SWAP1 SUB PUSH1 0x1F AND DUP3 ADD SWAP2 JUMPDEST POP POP POP POP POP DUP2 MSTORE PUSH1 0x20 ADD PUSH1 0x4 DUP3 ADD DUP1 SLOAD PUSH2 0x3A44 SWAP1 PUSH2 0x5452 JUMP JUMPDEST DUP1 PUSH1 0x1F ADD PUSH1 0x20 DUP1 SWAP2 DIV MUL PUSH1 0x20 ADD PUSH1 0x40 MLOAD SWAP1 DUP2 ADD PUSH1 0x40 MSTORE DUP1 SWAP3 SWAP2 SWAP1 DUP2 DUP2 MSTORE PUSH1 0x20 ADD DUP3 DUP1 SLOAD PUSH2 0x3A70 SWAP1 PUSH2 0x5452 JUMP JUMPDEST DUP1 ISZERO PUSH2 0x3ABB JUMPI DUP1 PUSH1 0x1F LT PUSH2 0x3A92 JUMPI PUSH2 0x100 DUP1 DUP4 SLOAD DIV MUL DUP4 MSTORE SWAP2 PUSH1 0x20 ADD SWAP2 PUSH2 0x3ABB JUMP JUMPDEST DUP3 ADD SWAP2 SWAP1 PUSH0 MSTORE PUSH1 0x20 PUSH0 KECCAK256 SWAP1 JUMPDEST DUP2 SLOAD DUP2 MSTORE SWAP1 PUSH1 0x1 ADD SWAP1 PUSH1 0x20 ADD DUP1 DUP4 GT PUSH2 0x3A9E JUMPI DUP3 SWAP1 SUB PUSH1 0x1F AND DUP3 ADD SWAP2 JUMPDEST POP POP POP POP POP DUP2 MSTORE POP POP SWAP1 POP SWAP2 POP SWAP2 POP SWAP2 POP SWAP2 JUMP JUMPDEST PUSH1 0x3 PUSH1 0x20 MSTORE PUSH0 SWAP1 DUP2 MSTORE PUSH1 0x40 SWAP1 KECCAK256 DUP1 SLOAD DUP2 SWAP1 PUSH2 0x3AE9 SWAP1 PUSH2 0x5452 JUMP JUMPDEST DUP1 PUSH1 0x1F ADD PUSH1 0x20 DUP1 SWAP2 DIV MUL PUSH1 0x20 ADD PUSH1 0x40 MLOAD SWAP1 DUP2 ADD PUSH1 0x40 MSTORE DUP1 SWAP3 SWAP2 SWAP1 DUP2 DUP2 MSTORE PUSH1 0x20 ADD DUP3 DUP1 SLOAD PUSH2 0x3B15 SWAP1 PUSH2 0x5452 JUMP JUMPDEST DUP1 ISZERO PUSH2 0x3B60 JUMPI DUP1 PUSH1 0x1F LT PUSH2 0x3B37 JUMPI PUSH2 0x100 DUP1 DUP4 SLOAD DIV MUL DUP4 MSTORE SWAP2 PUSH1 0x20 ADD SWAP2 PUSH2 0x3B60 JUMP JUMPDEST DUP3 ADD SWAP2 SWAP1 PUSH0 MSTORE PUSH1 0x20 PUSH0 KECCAK256 SWAP1 JUMPDEST DUP2 SLOAD DUP2 MSTORE SWAP1 PUSH1 0x1 ADD SWAP1 PUSH1 0x20 ADD DUP1 DUP4 GT PUSH2 0x3B43 JUMPI DUP3 SWAP1 SUB PUSH1 0x1F AND DUP3 ADD SWAP2 JUMPDEST POP POP POP POP PUSH1 0x1 DUP4 ADD SLOAD PUSH1 0x2 DUP5 ADD DUP1 SLOAD SWAP4 SWAP5 PUSH1 0x1 PUSH1 0x1 PUSH1 0xA0 SHL SUB DUP4 AND SWAP5 PUSH1 0xFF PUSH1 0x1 PUSH1 0xA0 SHL DUP6 DIV DUP2 AND SWAP6 POP PUSH1 0x1 PUSH1 0xA8 SHL DUP6 DIV DUP2 AND SWAP5 PUSH1 0x1 PUSH1 0xB0 SHL SWAP1 DIV AND SWAP3 SWAP1 PUSH2 0x3BA6 SWAP1 PUSH2 0x5452 JUMP JUMPDEST DUP1 PUSH1 0x1F ADD PUSH1 0x20 DUP1 SWAP2 DIV MUL PUSH1 0x20 ADD PUSH1 0x40 MLOAD SWAP1 DUP2 ADD PUSH1 0x40 MSTORE DUP1 SWAP3 SWAP2 SWAP1 DUP2 DUP2 MSTORE PUSH1 0x20 ADD DUP3 DUP1 SLOAD PUSH2 0x3BD2 SWAP1 PUSH2 0x5452 JUMP JUMPDEST DUP1 ISZERO PUSH2 0x3C1D JUMPI DUP1 PUSH1 0x1F LT PUSH2 0x3BF4 JUMPI PUSH2 0x100 DUP1 DUP4 SLOAD DIV MUL DUP4 MSTORE SWAP2 PUSH1 0x20 ADD SWAP2 PUSH2 0x3C1D JUMP JUMPDEST DUP3 ADD SWAP2 SWAP1 PUSH0 MSTORE PUSH1 0x20 PUSH0 KECCAK256 SWAP1 JUMPDEST DUP2 SLOAD DUP2 MSTORE SWAP1 PUSH1 0x1 ADD SWAP1 PUSH1 0x20 ADD DUP1 DUP4 GT PUSH2 0x3C00 JUMPI DUP3 SWAP1 SUB PUSH1 0x1F AND DUP3 ADD SWAP2 JUMPDEST POP POP POP POP POP SWAP1 DUP1 PUSH1 0x3 ADD DUP1 SLOAD PUSH2 0x3C32 SWAP1 PUSH2 0x5452 JUMP JUMPDEST DUP1 PUSH1 0x1F ADD PUSH1 0x20 DUP1 SWAP2 DIV MUL PUSH1 0x20 ADD PUSH1 0x40 MLOAD SWAP1 DUP2 ADD PUSH1 0x40 MSTORE DUP1 SWAP3 SWAP2 SWAP1 DUP2 DUP2 MSTORE PUSH1 0x20 ADD DUP3 DUP1 SLOAD PUSH2 0x3C5E SWAP1 PUSH2 0x5452 JUMP JUMPDEST DUP1 ISZERO PUSH2 0x3CA9 JUMPI DUP1 PUSH1 0x1F LT PUSH2 0x3C80 JUMPI PUSH2 0x100 DUP1 DUP4 SLOAD DIV MUL DUP4 MSTORE SWAP2 PUSH1 0x20 ADD SWAP2 PUSH2 0x3CA9 JUMP JUMPDEST DUP3 ADD SWAP2 SWAP1 PUSH0 MSTORE PUSH1 0x20 PUSH0 KECCAK256 SWAP1 JUMPDEST DUP2 SLOAD DUP2 MSTORE SWAP1 PUSH1 0x1 ADD SWAP1 PUSH1 0x20 ADD DUP1 DUP4 GT PUSH2 0x3C8C JUMPI DUP3 SWAP1 SUB PUSH1 0x1F AND DUP3 ADD SWAP2 JUMPDEST POP POP POP POP POP SWAP1 DUP1 PUSH1 0x4 ADD DUP1 SLOAD PUSH2 0x3CBE SWAP1 PUSH2 0x5452 JUMP JUMPDEST DUP1 PUSH1 0x1F ADD PUSH1 0x20 DUP1 SWAP2 DIV MUL PUSH1 0x20 ADD PUSH1 0x40 MLOAD SWAP1 DUP2 ADD PUSH1 0x40 MSTORE DUP1 SWAP3 SWAP2 SWAP1 DUP2 DUP2 MSTORE PUSH1 0x20 ADD DUP3 DUP1 SLOAD PUSH2 0x3CEA SWAP1 PUSH2 0x5452 JUMP JUMPDEST DUP1 ISZERO PUSH2 0x3D35 JUMPI DUP1 PUSH1 0x1F LT PUSH2 0x3D0C JUMPI PUSH2 0x100 DUP1 DUP4 SLOAD DIV MUL DUP4 MSTORE SWAP2 PUSH1 0x20 ADD SWAP2 PUSH2 0x3D35 JUMP JUMPDEST DUP3 ADD SWAP2 SWAP1 PUSH0 MSTORE PUSH1 0x20 PUSH0 KECCAK256 SWAP1 JUMPDEST DUP2 SLOAD DUP2 MSTORE SWAP1 PUSH1 0x1 ADD SWAP1 PUSH1 0x20 ADD DUP1 DUP4 GT PUSH2 0x3D18 JUMPI DUP3 SWAP1 SUB PUSH1 0x1F AND DUP3 ADD SWAP2 JUMPDEST POP POP POP POP POP SWAP1 POP DUP9 JUMP JUMPDEST PUSH2 0x3D78 PUSH1 0x40 MLOAD DUP1 PUSH1 0xA0 ADD PUSH1 0x40 MSTORE DUP1 PUSH0 PUSH1 0x1 PUSH1 0x1 PUSH1 0xA0 SHL SUB AND DUP2 MSTORE PUSH1 0x20 ADD PUSH1 0x60 DUP2 MSTORE PUSH1 0x20 ADD PUSH1 0x60 DUP2 MSTORE PUSH1 0x20 ADD PUSH1 0x60 DUP2 MSTORE PUSH1 0x20 ADD PUSH0 DUP2 MSTORE POP SWAP1 JUMP JUMPDEST CALLER PUSH0 SWAP1 DUP2 MSTORE PUSH1 0x20 DUP2 SWAP1 MSTORE PUSH1 0x40 SWAP1 KECCAK256 SLOAD PUSH1 0xFF AND DUP1 PUSH2 0x3D9F JUMPI POP PUSH1 0x1 SLOAD PUSH1 0x1 PUSH1 0x1 PUSH1 0xA0 SHL SUB AND CALLER EQ JUMPDEST PUSH2 0x3DBB JUMPI PUSH1 0x40 MLOAD PUSH3 0x461BCD PUSH1 0xE5 SHL DUP2 MSTORE PUSH1 0x4 ADD PUSH2 0x5F8 SWAP1 PUSH2 0x5366 JUMP JUMPDEST PUSH1 0x1 PUSH1 0x1 PUSH1 0xA0 SHL SUB DUP3 AND PUSH2 0x3DE1 JUMPI PUSH1 0x40 MLOAD PUSH3 0x461BCD PUSH1 0xE5 SHL DUP2 MSTORE PUSH1 0x4 ADD PUSH2 0x5F8 SWAP1 PUSH2 0x578C JUMP JUMPDEST PUSH1 0x1 PUSH1 0x1 PUSH1 0xA0 SHL SUB DUP1 DUP4 AND PUSH0 DUP2 DUP2 MSTORE PUSH1 0x8 PUSH1 0x20 MSTORE PUSH1 0x40 SWAP1 KECCAK256 SLOAD SWAP1 SWAP2 AND EQ PUSH2 0x3E1A JUMPI PUSH1 0x40 MLOAD PUSH3 0x461BCD PUSH1 0xE5 SHL DUP2 MSTORE PUSH1 0x4 ADD PUSH2 0x5F8 SWAP1 PUSH2 0x57C3 JUMP JUMPDEST PUSH1 0x1 PUSH1 0x1 PUSH1 0xA0 SHL SUB DUP1 DUP4 AND PUSH0 SWAP1 DUP2 MSTORE PUSH1 0x8 PUSH1 0x20 SWAP1 DUP2 MSTORE PUSH1 0x40 SWAP2 DUP3 SWAP1 KECCAK256 DUP3 MLOAD PUSH1 0xA0 DUP2 ADD SWAP1 SWAP4 MSTORE DUP1 SLOAD SWAP1 SWAP4 AND DUP3 MSTORE PUSH1 0x1 DUP4 ADD DUP1 SLOAD SWAP3 SWAP4 SWAP3 SWAP2 DUP5 ADD SWAP2 PUSH2 0x3E5C SWAP1 PUSH2 0x5452 JUMP JUMPDEST DUP1 PUSH1 0x1F ADD PUSH1 0x20 DUP1 SWAP2 DIV MUL PUSH1 0x20 ADD PUSH1 0x40 MLOAD SWAP1 DUP2 ADD PUSH1 0x40 MSTORE DUP1 SWAP3 SWAP2 SWAP1 DUP2 DUP2 MSTORE PUSH1 0x20 ADD DUP3 DUP1 SLOAD PUSH2 0x3E88 SWAP1 PUSH2 0x5452 JUMP JUMPDEST DUP1 ISZERO PUSH2 0x3ED3 JUMPI DUP1 PUSH1 0x1F LT PUSH2 0x3EAA JUMPI PUSH2 0x100 DUP1 DUP4 SLOAD DIV MUL DUP4 MSTORE SWAP2 PUSH1 0x20 ADD SWAP2 PUSH2 0x3ED3 JUMP JUMPDEST DUP3 ADD SWAP2 SWAP1 PUSH0 MSTORE PUSH1 0x20 PUSH0 KECCAK256 SWAP1 JUMPDEST DUP2 SLOAD DUP2 MSTORE SWAP1 PUSH1 0x1 ADD SWAP1 PUSH1 0x20 ADD DUP1 DUP4 GT PUSH2 0x3EB6 JUMPI DUP3 SWAP1 SUB PUSH1 0x1F AND DUP3 ADD SWAP2 JUMPDEST POP POP POP POP POP DUP2 MSTORE PUSH1 0x20 ADD PUSH1 0x2 DUP3 ADD DUP1 SLOAD PUSH2 0x3EEC SWAP1 PUSH2 0x5452 JUMP JUMPDEST DUP1 PUSH1 0x1F ADD PUSH1 0x20 DUP1 SWAP2 DIV MUL PUSH1 0x20 ADD PUSH1 0x40 MLOAD SWAP1 DUP2 ADD PUSH1 0x40 MSTORE DUP1 SWAP3 SWAP2 SWAP1 DUP2 DUP2 MSTORE PUSH1 0x20 ADD DUP3 DUP1 SLOAD PUSH2 0x3F18 SWAP1 PUSH2 0x5452 JUMP JUMPDEST DUP1 ISZERO PUSH2 0x3F63 JUMPI DUP1 PUSH1 0x1F LT PUSH2 0x3F3A JUMPI PUSH2 0x100 DUP1 DUP4 SLOAD DIV MUL DUP4 MSTORE SWAP2 PUSH1 0x20 ADD SWAP2 PUSH2 0x3F63 JUMP JUMPDEST DUP3 ADD SWAP2 SWAP1 PUSH0 MSTORE PUSH1 0x20 PUSH0 KECCAK256 SWAP1 JUMPDEST DUP2 SLOAD DUP2 MSTORE SWAP1 PUSH1 0x1 ADD SWAP1 PUSH1 0x20 ADD DUP1 DUP4 GT PUSH2 0x3F46 JUMPI DUP3 SWAP1 SUB PUSH1 0x1F AND DUP3 ADD SWAP2 JUMPDEST POP POP POP POP POP DUP2 MSTORE PUSH1 0x20 ADD PUSH1 0x3 DUP3 ADD DUP1 SLOAD PUSH2 0x3F7C SWAP1 PUSH2 0x5452 JUMP JUMPDEST DUP1 PUSH1 0x1F ADD PUSH1 0x20 DUP1 SWAP2 DIV MUL PUSH1 0x20 ADD PUSH1 0x40 MLOAD SWAP1 DUP2 ADD PUSH1 0x40 MSTORE DUP1 SWAP3 SWAP2 SWAP1 DUP2 DUP2 MSTORE PUSH1 0x20 ADD DUP3 DUP1 SLOAD PUSH2 0x3FA8 SWAP1 PUSH2 0x5452 JUMP JUMPDEST DUP1 ISZERO PUSH2 0x3FF3 JUMPI DUP1 PUSH1 0x1F LT PUSH2 0x3FCA JUMPI PUSH2 0x100 DUP1 DUP4 SLOAD DIV MUL DUP4 MSTORE SWAP2 PUSH1 0x20 ADD SWAP2 PUSH2 0x3FF3 JUMP JUMPDEST DUP3 ADD SWAP2 SWAP1 PUSH0 MSTORE PUSH1 0x20 PUSH0 KECCAK256 SWAP1 JUMPDEST DUP2 SLOAD DUP2 MSTORE SWAP1 PUSH1 0x1 ADD SWAP1 PUSH1 0x20 ADD DUP1 DUP4 GT PUSH2 0x3FD6 JUMPI DUP3 SWAP1 SUB PUSH1 0x1F AND DUP3 ADD SWAP2 JUMPDEST POP POP POP POP POP DUP2 MSTORE PUSH1 0x20 ADD PUSH1 0x4 DUP3 ADD SLOAD DUP2 MSTORE POP POP SWAP1 POP SWAP2 SWAP1 POP JUMP JUMPDEST PUSH1 0x4 PUSH1 0x20 MSTORE DUP2 PUSH0 MSTORE PUSH1 0x40 PUSH0 KECCAK256 DUP2 DUP2 SLOAD DUP2 LT PUSH2 0x4026 JUMPI PUSH0 DUP1 REVERT JUMPDEST SWAP1 PUSH0 MSTORE PUSH1 0x20 PUSH0 KECCAK256 SWAP1 PUSH1 0xB MUL ADD PUSH0 SWAP2 POP SWAP2 POP POP DUP1 PUSH0 ADD DUP1 SLOAD PUSH2 0x4046 SWAP1 PUSH2 0x5452 JUMP JUMPDEST DUP1 PUSH1 0x1F ADD PUSH1 0x20 DUP1 SWAP2 DIV MUL PUSH1 0x20 ADD PUSH1 0x40 MLOAD SWAP1 DUP2 ADD PUSH1 0x40 MSTORE DUP1 SWAP3 SWAP2 SWAP1 DUP2 DUP2 MSTORE PUSH1 0x20 ADD DUP3 DUP1 SLOAD PUSH2 0x4072 SWAP1 PUSH2 0x5452 JUMP JUMPDEST DUP1 ISZERO PUSH2 0x40BD JUMPI DUP1 PUSH1 0x1F LT PUSH2 0x4094 JUMPI PUSH2 0x100 DUP1 DUP4 SLOAD DIV MUL DUP4 MSTORE SWAP2 PUSH1 0x20 ADD SWAP2 PUSH2 0x40BD JUMP JUMPDEST DUP3 ADD SWAP2 SWAP1 PUSH0 MSTORE PUSH1 0x20 PUSH0 KECCAK256 SWAP1 JUMPDEST DUP2 SLOAD DUP2 MSTORE SWAP1 PUSH1 0x1 ADD SWAP1 PUSH1 0x20 ADD DUP1 DUP4 GT PUSH2 0x40A0 JUMPI DUP3 SWAP1 SUB PUSH1 0x1F AND DUP3 ADD SWAP2 JUMPDEST POP POP POP POP POP SWAP1 DUP1 PUSH1 0x1 ADD DUP1 SLOAD PUSH2 0x40D2 SWAP1 PUSH2 0x5452 JUMP JUMPDEST DUP1 PUSH1 0x1F ADD PUSH1 0x20 DUP1 SWAP2 DIV MUL PUSH1 0x20 ADD PUSH1 0x40 MLOAD SWAP1 DUP2 ADD PUSH1 0x40 MSTORE DUP1 SWAP3 SWAP2 SWAP1 DUP2 DUP2 MSTORE PUSH1 0x20 ADD DUP3 DUP1 SLOAD PUSH2 0x40FE SWAP1 PUSH2 0x5452 JUMP JUMPDEST DUP1 ISZERO PUSH2 0x4149 JUMPI DUP1 PUSH1 0x1F LT PUSH2 0x4120 JUMPI PUSH2 0x100 DUP1 DUP4 SLOAD DIV MUL DUP4 MSTORE SWAP2 PUSH1 0x20 ADD SWAP2 PUSH2 0x4149 JUMP JUMPDEST DUP3 ADD SWAP2 SWAP1 PUSH0 MSTORE PUSH1 0x20 PUSH0 KECCAK256 SWAP1 JUMPDEST DUP2 SLOAD DUP2 MSTORE SWAP1 PUSH1 0x1 ADD SWAP1 PUSH1 0x20 ADD DUP1 DUP4 GT PUSH2 0x412C JUMPI DUP3 SWAP1 SUB PUSH1 0x1F AND DUP3 ADD SWAP2 JUMPDEST POP POP POP PUSH1 0x2 DUP5 ADD SLOAD PUSH1 0x3 DUP6 ADD SLOAD PUSH1 0x4 DUP7 ADD DUP1 SLOAD SWAP6 SWAP7 PUSH1 0x1 PUSH1 0x1 PUSH1 0xA0 SHL SUB SWAP4 DUP5 AND SWAP7 SWAP3 SWAP1 SWAP4 AND SWAP5 POP SWAP2 SWAP3 POP PUSH2 0x417C SWAP1 PUSH2 0x5452 JUMP JUMPDEST DUP1 PUSH1 0x1F ADD PUSH1 0x20 DUP1 SWAP2 DIV MUL PUSH1 0x20 ADD PUSH1 0x40 MLOAD SWAP1 DUP2 ADD PUSH1 0x40 MSTORE DUP1 SWAP3 SWAP2 SWAP1 DUP2 DUP2 MSTORE PUSH1 0x20 ADD DUP3 DUP1 SLOAD PUSH2 0x41A8 SWAP1 PUSH2 0x5452 JUMP JUMPDEST DUP1 ISZERO PUSH2 0x41F3 JUMPI DUP1 PUSH1 0x1F LT PUSH2 0x41CA JUMPI PUSH2 0x100 DUP1 DUP4 SLOAD DIV MUL DUP4 MSTORE SWAP2 PUSH1 0x20 ADD SWAP2 PUSH2 0x41F3 JUMP JUMPDEST DUP3 ADD SWAP2 SWAP1 PUSH0 MSTORE PUSH1 0x20 PUSH0 KECCAK256 SWAP1 JUMPDEST DUP2 SLOAD DUP2 MSTORE SWAP1 PUSH1 0x1 ADD SWAP1 PUSH1 0x20 ADD DUP1 DUP4 GT PUSH2 0x41D6 JUMPI DUP3 SWAP1 SUB PUSH1 0x1F AND DUP3 ADD SWAP2 JUMPDEST POP POP POP POP POP SWAP1 DUP1 PUSH1 0x5 ADD DUP1 SLOAD PUSH2 0x4208 SWAP1 PUSH2 0x5452 JUMP JUMPDEST DUP1 PUSH1 0x1F ADD PUSH1 0x20 DUP1 SWAP2 DIV MUL PUSH1 0x20 ADD PUSH1 0x40 MLOAD SWAP1 DUP2 ADD PUSH1 0x40 MSTORE DUP1 SWAP3 SWAP2 SWAP1 DUP2 DUP2 MSTORE PUSH1 0x20 ADD DUP3 DUP1 SLOAD PUSH2 0x4234 SWAP1 PUSH2 0x5452 JUMP JUMPDEST DUP1 ISZERO PUSH2 0x427F JUMPI DUP1 PUSH1 0x1F LT PUSH2 0x4256 JUMPI PUSH2 0x100 DUP1 DUP4 SLOAD DIV MUL DUP4 MSTORE SWAP2 PUSH1 0x20 ADD SWAP2 PUSH2 0x427F JUMP JUMPDEST DUP3 ADD SWAP2 SWAP1 PUSH0 MSTORE PUSH1 0x20 PUSH0 KECCAK256 SWAP1 JUMPDEST DUP2 SLOAD DUP2 MSTORE SWAP1 PUSH1 0x1 ADD SWAP1 PUSH1 0x20 ADD DUP1 DUP4 GT PUSH2 0x4262 JUMPI DUP3 SWAP1 SUB PUSH1 0x1F AND DUP3 ADD SWAP2 JUMPDEST POP POP POP POP POP SWAP1 DUP1 PUSH1 0x6 ADD DUP1 SLOAD PUSH2 0x4294 SWAP1 PUSH2 0x5452 JUMP JUMPDEST DUP1 PUSH1 0x1F ADD PUSH1 0x20 DUP1 SWAP2 DIV MUL PUSH1 0x20 ADD PUSH1 0x40 MLOAD SWAP1 DUP2 ADD PUSH1 0x40 MSTORE DUP1 SWAP3 SWAP2 SWAP1 DUP2 DUP2 MSTORE PUSH1 0x20 ADD DUP3 DUP1 SLOAD PUSH2 0x42C0 SWAP1 PUSH2 0x5452 JUMP JUMPDEST DUP1 ISZERO PUSH2 0x430B JUMPI DUP1 PUSH1 0x1F LT PUSH2 0x42E2 JUMPI PUSH2 0x100 DUP1 DUP4 SLOAD DIV MUL DUP4 MSTORE SWAP2 PUSH1 0x20 ADD SWAP2 PUSH2 0x430B JUMP JUMPDEST DUP3 ADD SWAP2 SWAP1 PUSH0 MSTORE PUSH1 0x20 PUSH0 KECCAK256 SWAP1 JUMPDEST DUP2 SLOAD DUP2 MSTORE SWAP1 PUSH1 0x1 ADD SWAP1 PUSH1 0x20 ADD DUP1 DUP4 GT PUSH2 0x42EE JUMPI DUP3 SWAP1 SUB PUSH1 0x1F AND DUP3 ADD SWAP2 JUMPDEST POP POP POP POP POP SWAP1 DUP1 PUSH1 0x7 ADD DUP1 SLOAD PUSH2 0x4320 SWAP1 PUSH2 0x5452 JUMP JUMPDEST DUP1 PUSH1 0x1F ADD PUSH1 0x20 DUP1 SWAP2 DIV MUL PUSH1 0x20 ADD PUSH1 0x40 MLOAD SWAP1 DUP2 ADD PUSH1 0x40 MSTORE DUP1 SWAP3 SWAP2 SWAP1 DUP2 DUP2 MSTORE PUSH1 0x20 ADD DUP3 DUP1 SLOAD PUSH2 0x434C SWAP1 PUSH2 0x5452 JUMP JUMPDEST DUP1 ISZERO PUSH2 0x4397 JUMPI DUP1 PUSH1 0x1F LT PUSH2 0x436E JUMPI PUSH2 0x100 DUP1 DUP4 SLOAD DIV MUL DUP4 MSTORE SWAP2 PUSH1 0x20 ADD SWAP2 PUSH2 0x4397 JUMP JUMPDEST DUP3 ADD SWAP2 SWAP1 PUSH0 MSTORE PUSH1 0x20 PUSH0 KECCAK256 SWAP1 JUMPDEST DUP2 SLOAD DUP2 MSTORE SWAP1 PUSH1 0x1 ADD SWAP1 PUSH1 0x20 ADD DUP1 DUP4 GT PUSH2 0x437A JUMPI DUP3 SWAP1 SUB PUSH1 0x1F AND DUP3 ADD SWAP2 JUMPDEST POP POP POP POP POP SWAP1 DUP1 PUSH1 0x8 ADD DUP1 SLOAD PUSH2 0x43AC SWAP1 PUSH2 0x5452 JUMP JUMPDEST DUP1 PUSH1 0x1F ADD PUSH1 0x20 DUP1 SWAP2 DIV MUL PUSH1 0x20 ADD PUSH1 0x40 MLOAD SWAP1 DUP2 ADD PUSH1 0x40 MSTORE DUP1 SWAP3 SWAP2 SWAP1 DUP2 DUP2 MSTORE PUSH1 0x20 ADD DUP3 DUP1 SLOAD PUSH2 0x43D8 SWAP1 PUSH2 0x5452 JUMP JUMPDEST DUP1 ISZERO PUSH2 0x4423 JUMPI DUP1 PUSH1 0x1F LT PUSH2 0x43FA JUMPI PUSH2 0x100 DUP1 DUP4 SLOAD DIV MUL DUP4 MSTORE SWAP2 PUSH1 0x20 ADD SWAP2 PUSH2 0x4423 JUMP JUMPDEST DUP3 ADD SWAP2 SWAP1 PUSH0 MSTORE PUSH1 0x20 PUSH0 KECCAK256 SWAP1 JUMPDEST DUP2 SLOAD DUP2 MSTORE SWAP1 PUSH1 0x1 ADD SWAP1 PUSH1 0x20 ADD DUP1 DUP4 GT PUSH2 0x4406 JUMPI DUP3 SWAP1 SUB PUSH1 0x1F AND DUP3 ADD SWAP2 JUMPDEST POP POP POP POP POP SWAP1 DUP1 PUSH1 0x9 ADD DUP1 SLOAD PUSH2 0x4438 SWAP1 PUSH2 0x5452 JUMP JUMPDEST DUP1 PUSH1 0x1F ADD PUSH1 0x20 DUP1 SWAP2 DIV MUL PUSH1 0x20 ADD PUSH1 0x40 MLOAD SWAP1 DUP2 ADD PUSH1 0x40 MSTORE DUP1 SWAP3 SWAP2 SWAP1 DUP2 DUP2 MSTORE PUSH1 0x20 ADD DUP3 DUP1 SLOAD PUSH2 0x4464 SWAP1 PUSH2 0x5452 JUMP JUMPDEST DUP1 ISZERO PUSH2 0x44AF JUMPI DUP1 PUSH1 0x1F LT PUSH2 0x4486 JUMPI PUSH2 0x100 DUP1 DUP4 SLOAD DIV MUL DUP4 MSTORE SWAP2 PUSH1 0x20 ADD SWAP2 PUSH2 0x44AF JUMP JUMPDEST DUP3 ADD SWAP2 SWAP1 PUSH0 MSTORE PUSH1 0x20 PUSH0 KECCAK256 SWAP1 JUMPDEST DUP2 SLOAD DUP2 MSTORE SWAP1 PUSH1 0x1 ADD SWAP1 PUSH1 0x20 ADD DUP1 DUP4 GT PUSH2 0x4492 JUMPI DUP3 SWAP1 SUB PUSH1 0x1F AND DUP3 ADD SWAP2 JUMPDEST POP POP POP POP POP SWAP1 DUP1 PUSH1 0xA ADD DUP1 SLOAD PUSH2 0x44C4 SWAP1 PUSH2 0x5452 JUMP JUMPDEST DUP1 PUSH1 0x1F ADD PUSH1 0x20 DUP1 SWAP2 DIV MUL PUSH1 0x20 ADD PUSH1 0x40 MLOAD SWAP1 DUP2 ADD PUSH1 0x40 MSTORE DUP1 SWAP3 SWAP2 SWAP1 DUP2 DUP2 MSTORE PUSH1 0x20 ADD DUP3 DUP1 SLOAD PUSH2 0x44F0 SWAP1 PUSH2 0x5452 JUMP JUMPDEST DUP1 ISZERO PUSH2 0x453B JUMPI DUP1 PUSH1 0x1F LT PUSH2 0x4512 JUMPI PUSH2 0x100 DUP1 DUP4 SLOAD DIV MUL DUP4 MSTORE SWAP2 PUSH1 0x20 ADD SWAP2 PUSH2 0x453B JUMP JUMPDEST DUP3 ADD SWAP2 SWAP1 PUSH0 MSTORE PUSH1 0x20 PUSH0 KECCAK256 SWAP1 JUMPDEST DUP2 SLOAD DUP2 MSTORE SWAP1 PUSH1 0x1 ADD SWAP1 PUSH1 0x20 ADD DUP1 DUP4 GT PUSH2 0x451E JUMPI DUP3 SWAP1 SUB PUSH1 0x1F AND DUP3 ADD SWAP2 JUMPDEST POP POP POP POP POP SWAP1 POP DUP12 JUMP JUMPDEST DUP1 CALLDATALOAD PUSH1 0x1 PUSH1 0x1 PUSH1 0xA0 SHL SUB DUP2 AND DUP2 EQ PUSH2 0x1140 JUMPI PUSH0 DUP1 REVERT JUMPDEST PUSH0 PUSH1 0x20 DUP3 DUP5 SUB SLT ISZERO PUSH2 0x456B JUMPI PUSH0 DUP1 REVERT JUMPDEST PUSH2 0x794 DUP3 PUSH2 0x4545 JUMP JUMPDEST PUSH0 PUSH1 0x20 DUP3 DUP5 SUB SLT ISZERO PUSH2 0x4584 JUMPI PUSH0 DUP1 REVERT JUMPDEST POP CALLDATALOAD SWAP2 SWAP1 POP JUMP JUMPDEST PUSH4 0x4E487B71 PUSH1 0xE0 SHL PUSH0 MSTORE PUSH1 0x41 PUSH1 0x4 MSTORE PUSH1 0x24 PUSH0 REVERT JUMPDEST PUSH0 DUP3 PUSH1 0x1F DUP4 ADD SLT PUSH2 0x45AE JUMPI PUSH0 DUP1 REVERT JUMPDEST DUP2 CALLDATALOAD PUSH8 0xFFFFFFFFFFFFFFFF DUP1 DUP3 GT ISZERO PUSH2 0x45C9 JUMPI PUSH2 0x45C9 PUSH2 0x458B JUMP JUMPDEST PUSH1 0x40 MLOAD PUSH1 0x1F DUP4 ADD PUSH1 0x1F NOT SWAP1 DUP2 AND PUSH1 0x3F ADD AND DUP2 ADD SWAP1 DUP3 DUP3 GT DUP2 DUP4 LT OR ISZERO PUSH2 0x45F1 JUMPI PUSH2 0x45F1 PUSH2 0x458B JUMP JUMPDEST DUP2 PUSH1 0x40 MSTORE DUP4 DUP2 MSTORE DUP7 PUSH1 0x20 DUP6 DUP9 ADD ADD GT ISZERO PUSH2 0x4609 JUMPI PUSH0 DUP1 REVERT JUMPDEST DUP4 PUSH1 0x20 DUP8 ADD PUSH1 0x20 DUP4 ADD CALLDATACOPY PUSH0 PUSH1 0x20 DUP6 DUP4 ADD ADD MSTORE DUP1 SWAP5 POP POP POP POP POP SWAP3 SWAP2 POP POP JUMP JUMPDEST PUSH0 DUP1 PUSH0 DUP1 PUSH0 DUP1 PUSH0 DUP1 PUSH0 DUP1 PUSH0 PUSH2 0x160 DUP13 DUP15 SUB SLT ISZERO PUSH2 0x4643 JUMPI PUSH0 DUP1 REVERT JUMPDEST PUSH8 0xFFFFFFFFFFFFFFFF DUP1 DUP14 CALLDATALOAD GT ISZERO PUSH2 0x4659 JUMPI PUSH0 DUP1 REVERT JUMPDEST PUSH2 0x4666 DUP15 DUP15 CALLDATALOAD DUP16 ADD PUSH2 0x459F JUMP JUMPDEST SWAP12 POP DUP1 PUSH1 0x20 DUP15 ADD CALLDATALOAD GT ISZERO PUSH2 0x4678 JUMPI PUSH0 DUP1 REVERT JUMPDEST PUSH2 0x4688 DUP15 PUSH1 0x20 DUP16 ADD CALLDATALOAD DUP16 ADD PUSH2 0x459F JUMP JUMPDEST SWAP11 POP PUSH2 0x4696 PUSH1 0x40 DUP15 ADD PUSH2 0x4545 JUMP JUMPDEST SWAP10 POP PUSH2 0x46A4 PUSH1 0x60 DUP15 ADD PUSH2 0x4545 JUMP JUMPDEST SWAP9 POP DUP1 PUSH1 0x80 DUP15 ADD CALLDATALOAD GT ISZERO PUSH2 0x46B6 JUMPI PUSH0 DUP1 REVERT JUMPDEST PUSH2 0x46C6 DUP15 PUSH1 0x80 DUP16 ADD CALLDATALOAD DUP16 ADD PUSH2 0x459F JUMP JUMPDEST SWAP8 POP DUP1 PUSH1 0xA0 DUP15 ADD CALLDATALOAD GT ISZERO PUSH2 0x46D8 JUMPI PUSH0 DUP1 REVERT JUMPDEST PUSH2 0x46E8 DUP15 PUSH1 0xA0 DUP16 ADD CALLDATALOAD DUP16 ADD PUSH2 0x459F JUMP JUMPDEST SWAP7 POP DUP1 PUSH1 0xC0 DUP15 ADD CALLDATALOAD GT ISZERO PUSH2 0x46FA JUMPI PUSH0 DUP1 REVERT JUMPDEST PUSH2 0x470A DUP15 PUSH1 0xC0 DUP16 ADD CALLDATALOAD DUP16 ADD PUSH2 0x459F JUMP JUMPDEST SWAP6 POP DUP1 PUSH1 0xE0 DUP15 ADD CALLDATALOAD GT ISZERO PUSH2 0x471C JUMPI PUSH0 DUP1 REVERT JUMPDEST PUSH2 0x472C DUP15 PUSH1 0xE0 DUP16 ADD CALLDATALOAD DUP16 ADD PUSH2 0x459F JUMP JUMPDEST SWAP5 POP DUP1 PUSH2 0x100 DUP15 ADD CALLDATALOAD GT ISZERO PUSH2 0x473F JUMPI PUSH0 DUP1 REVERT JUMPDEST PUSH2 0x4750 DUP15 PUSH2 0x100 DUP16 ADD CALLDATALOAD DUP16 ADD PUSH2 0x459F JUMP JUMPDEST SWAP4 POP DUP1 PUSH2 0x120 DUP15 ADD CALLDATALOAD GT ISZERO PUSH2 0x4763 JUMPI PUSH0 DUP1 REVERT JUMPDEST PUSH2 0x4774 DUP15 PUSH2 0x120 DUP16 ADD CALLDATALOAD DUP16 ADD PUSH2 0x459F JUMP JUMPDEST SWAP3 POP DUP1 PUSH2 0x140 DUP15 ADD CALLDATALOAD GT ISZERO PUSH2 0x4787 JUMPI PUSH0 DUP1 REVERT JUMPDEST POP PUSH2 0x4799 DUP14 PUSH2 0x140 DUP15 ADD CALLDATALOAD DUP15 ADD PUSH2 0x459F JUMP JUMPDEST SWAP1 POP SWAP3 SWAP6 SWAP9 SWAP12 POP SWAP3 SWAP6 SWAP9 SWAP12 SWAP1 SWAP4 SWAP7 SWAP10 POP JUMP JUMPDEST PUSH0 DUP1 PUSH0 DUP1 PUSH0 DUP1 PUSH1 0xC0 DUP8 DUP10 SUB SLT ISZERO PUSH2 0x47C0 JUMPI PUSH0 DUP1 REVERT JUMPDEST DUP7 CALLDATALOAD PUSH8 0xFFFFFFFFFFFFFFFF DUP1 DUP3 GT ISZERO PUSH2 0x47D7 JUMPI PUSH0 DUP1 REVERT JUMPDEST PUSH2 0x47E3 DUP11 DUP4 DUP12 ADD PUSH2 0x459F JUMP JUMPDEST SWAP8 POP PUSH2 0x47F1 PUSH1 0x20 DUP11 ADD PUSH2 0x4545 JUMP JUMPDEST SWAP7 POP PUSH1 0x40 DUP10 ADD CALLDATALOAD SWAP2 POP DUP1 DUP3 GT ISZERO PUSH2 0x4806 JUMPI PUSH0 DUP1 REVERT JUMPDEST PUSH2 0x4812 DUP11 DUP4 DUP12 ADD PUSH2 0x459F JUMP JUMPDEST SWAP6 POP PUSH1 0x60 DUP10 ADD CALLDATALOAD SWAP5 POP PUSH1 0x80 DUP10 ADD CALLDATALOAD SWAP4 POP PUSH1 0xA0 DUP10 ADD CALLDATALOAD SWAP2 POP DUP1 DUP3 GT ISZERO PUSH2 0x4835 JUMPI PUSH0 DUP1 REVERT JUMPDEST POP PUSH2 0x4842 DUP10 DUP3 DUP11 ADD PUSH2 0x459F JUMP JUMPDEST SWAP2 POP POP SWAP3 SWAP6 POP SWAP3 SWAP6 POP SWAP3 SWAP6 JUMP JUMPDEST PUSH0 DUP2 MLOAD DUP1 DUP5 MSTORE PUSH0 JUMPDEST DUP2 DUP2 LT ISZERO PUSH2 0x4873 JUMPI PUSH1 0x20 DUP2 DUP6 ADD DUP2 ADD MLOAD DUP7 DUP4 ADD DUP3 ADD MSTORE ADD PUSH2 0x4857 JUMP JUMPDEST POP PUSH0 PUSH1 0x20 DUP3 DUP7 ADD ADD MSTORE PUSH1 0x20 PUSH1 0x1F NOT PUSH1 0x1F DUP4 ADD AND DUP6 ADD ADD SWAP2 POP POP SWAP3 SWAP2 POP POP JUMP JUMPDEST PUSH0 PUSH2 0x160 DUP1 DUP4 MSTORE PUSH2 0x48A5 DUP2 DUP5 ADD DUP16 PUSH2 0x484F JUMP JUMPDEST SWAP1 POP DUP3 DUP2 SUB PUSH1 0x20 DUP5 ADD MSTORE PUSH2 0x48B9 DUP2 DUP15 PUSH2 0x484F JUMP JUMPDEST PUSH1 0x1 PUSH1 0x1 PUSH1 0xA0 SHL SUB DUP14 AND PUSH1 0x40 DUP6 ADD MSTORE DUP4 DUP2 SUB PUSH1 0x60 DUP6 ADD MSTORE SWAP1 POP PUSH2 0x48DC DUP2 DUP13 PUSH2 0x484F JUMP JUMPDEST SWAP1 POP DUP3 DUP2 SUB PUSH1 0x80 DUP5 ADD MSTORE PUSH2 0x48F0 DUP2 DUP12 PUSH2 0x484F JUMP JUMPDEST SWAP1 POP DUP3 DUP2 SUB PUSH1 0xA0 DUP5 ADD MSTORE PUSH2 0x4904 DUP2 DUP11 PUSH2 0x484F JUMP JUMPDEST SWAP1 POP DUP8 PUSH1 0xC0 DUP5 ADD MSTORE DUP7 PUSH1 0xE0 DUP5 ADD MSTORE DUP3 DUP2 SUB PUSH2 0x100 DUP5 ADD MSTORE PUSH2 0x4925 DUP2 DUP8 PUSH2 0x484F JUMP JUMPDEST PUSH2 0x120 DUP5 ADD SWAP6 SWAP1 SWAP6 MSTORE POP POP PUSH2 0x140 ADD MSTORE SWAP10 SWAP9 POP POP POP POP POP POP POP POP POP JUMP JUMPDEST DUP1 CALLDATALOAD DUP1 ISZERO ISZERO DUP2 EQ PUSH2 0x1140 JUMPI PUSH0 DUP1 REVERT JUMPDEST PUSH0 DUP1 PUSH0 DUP1 PUSH0 DUP1 PUSH0 DUP1 PUSH2 0x100 DUP10 DUP12 SUB SLT ISZERO PUSH2 0x4969 JUMPI PUSH0 DUP1 REVERT JUMPDEST DUP9 CALLDATALOAD PUSH8 0xFFFFFFFFFFFFFFFF DUP1 DUP3 GT ISZERO PUSH2 0x4980 JUMPI PUSH0 DUP1 REVERT JUMPDEST PUSH2 0x498C DUP13 DUP4 DUP14 ADD PUSH2 0x459F JUMP JUMPDEST SWAP10 POP PUSH2 0x499A PUSH1 0x20 DUP13 ADD PUSH2 0x4545 JUMP JUMPDEST SWAP9 POP PUSH2 0x49A8 PUSH1 0x40 DUP13 ADD PUSH2 0x4942 JUMP JUMPDEST SWAP8 POP PUSH2 0x49B6 PUSH1 0x60 DUP13 ADD PUSH2 0x4942 JUMP JUMPDEST SWAP7 POP PUSH2 0x49C4 PUSH1 0x80 DUP13 ADD PUSH2 0x4942 JUMP JUMPDEST SWAP6 POP PUSH1 0xA0 DUP12 ADD CALLDATALOAD SWAP2 POP DUP1 DUP3 GT ISZERO PUSH2 0x49D9 JUMPI PUSH0 DUP1 REVERT JUMPDEST PUSH2 0x49E5 DUP13 DUP4 DUP14 ADD PUSH2 0x459F JUMP JUMPDEST SWAP5 POP PUSH1 0xC0 DUP12 ADD CALLDATALOAD SWAP2 POP DUP1 DUP3 GT ISZERO PUSH2 0x49FA JUMPI PUSH0 DUP1 REVERT JUMPDEST PUSH2 0x4A06 DUP13 DUP4 DUP14 ADD PUSH2 0x459F JUMP JUMPDEST SWAP4 POP PUSH1 0xE0 DUP12 ADD CALLDATALOAD SWAP2 POP DUP1 DUP3 GT ISZERO PUSH2 0x4A1B JUMPI PUSH0 DUP1 REVERT JUMPDEST POP PUSH2 0x4A28 DUP12 DUP3 DUP13 ADD PUSH2 0x459F JUMP JUMPDEST SWAP2 POP POP SWAP3 SWAP6 SWAP9 POP SWAP3 SWAP6 SWAP9 SWAP1 SWAP4 SWAP7 POP JUMP JUMPDEST PUSH0 DUP1 PUSH0 DUP1 PUSH0 PUSH1 0xA0 DUP7 DUP9 SUB SLT ISZERO PUSH2 0x4A4C JUMPI PUSH0 DUP1 REVERT JUMPDEST PUSH2 0x4A55 DUP7 PUSH2 0x4545 JUMP JUMPDEST SWAP5 POP PUSH1 0x20 DUP7 ADD CALLDATALOAD PUSH8 0xFFFFFFFFFFFFFFFF DUP1 DUP3 GT ISZERO PUSH2 0x4A71 JUMPI PUSH0 DUP1 REVERT JUMPDEST PUSH2 0x4A7D DUP10 DUP4 DUP11 ADD PUSH2 0x459F JUMP JUMPDEST SWAP6 POP PUSH1 0x40 DUP9 ADD CALLDATALOAD SWAP2 POP DUP1 DUP3 GT ISZERO PUSH2 0x4A92 JUMPI PUSH0 DUP1 REVERT JUMPDEST PUSH2 0x4A9E DUP10 DUP4 DUP11 ADD PUSH2 0x459F JUMP JUMPDEST SWAP5 POP PUSH1 0x60 DUP9 ADD CALLDATALOAD SWAP4 POP PUSH1 0x80 DUP9 ADD CALLDATALOAD SWAP2 POP DUP1 DUP3 GT ISZERO PUSH2 0x4ABA JUMPI PUSH0 DUP1 REVERT JUMPDEST POP PUSH2 0x4AC7 DUP9 DUP3 DUP10 ADD PUSH2 0x459F JUMP JUMPDEST SWAP2 POP POP SWAP3 SWAP6 POP SWAP3 SWAP6 SWAP1 SWAP4 POP JUMP JUMPDEST PUSH0 PUSH1 0x20 DUP1 DUP4 ADD DUP2 DUP5 MSTORE DUP1 DUP6 MLOAD DUP1 DUP4 MSTORE PUSH1 0x40 SWAP3 POP DUP3 DUP7 ADD SWAP2 POP DUP3 DUP2 PUSH1 0x5 SHL DUP8 ADD ADD DUP5 DUP9 ADD PUSH0 JUMPDEST DUP4 DUP2 LT ISZERO PUSH2 0x4B38 JUMPI DUP9 DUP4 SUB PUSH1 0x3F NOT ADD DUP6 MSTORE DUP2 MLOAD DUP1 MLOAD DUP5 MSTORE DUP8 ADD MLOAD DUP8 DUP5 ADD DUP8 SWAP1 MSTORE PUSH2 0x4B25 DUP8 DUP6 ADD DUP3 PUSH2 0x484F JUMP JUMPDEST SWAP6 DUP9 ADD SWAP6 SWAP4 POP POP SWAP1 DUP7 ADD SWAP1 PUSH1 0x1 ADD PUSH2 0x4AF9 JUMP JUMPDEST POP SWAP1 SWAP9 SWAP8 POP POP POP POP POP POP POP POP JUMP JUMPDEST PUSH0 DUP1 PUSH1 0x40 DUP4 DUP6 SUB SLT ISZERO PUSH2 0x4B57 JUMPI PUSH0 DUP1 REVERT JUMPDEST PUSH2 0x4B60 DUP4 PUSH2 0x4545 JUMP JUMPDEST SWAP5 PUSH1 0x20 SWAP4 SWAP1 SWAP4 ADD CALLDATALOAD SWAP4 POP POP POP JUMP JUMPDEST DUP3 DUP2 MSTORE PUSH1 0x40 PUSH1 0x20 DUP3 ADD MSTORE PUSH0 PUSH2 0x4B86 PUSH1 0x40 DUP4 ADD DUP5 PUSH2 0x484F JUMP JUMPDEST SWAP5 SWAP4 POP POP POP POP JUMP JUMPDEST PUSH1 0xC0 DUP2 MSTORE PUSH0 PUSH2 0x4BA0 PUSH1 0xC0 DUP4 ADD DUP10 PUSH2 0x484F JUMP JUMPDEST PUSH1 0x1 PUSH1 0x1 PUSH1 0xA0 SHL SUB DUP9 AND PUSH1 0x20 DUP5 ADD MSTORE DUP3 DUP2 SUB PUSH1 0x40 DUP5 ADD MSTORE PUSH2 0x4BC1 DUP2 DUP9 PUSH2 0x484F JUMP JUMPDEST SWAP1 POP DUP6 PUSH1 0x60 DUP5 ADD MSTORE DUP5 PUSH1 0x80 DUP5 ADD MSTORE DUP3 DUP2 SUB PUSH1 0xA0 DUP5 ADD MSTORE PUSH2 0x4BE1 DUP2 DUP6 PUSH2 0x484F JUMP JUMPDEST SWAP10 SWAP9 POP POP POP POP POP POP POP POP POP JUMP JUMPDEST PUSH0 DUP1 PUSH0 DUP1 PUSH0 DUP1 PUSH0 DUP1 PUSH0 DUP1 PUSH0 PUSH2 0x160 DUP13 DUP15 SUB SLT ISZERO PUSH2 0x4C09 JUMPI PUSH0 DUP1 REVERT JUMPDEST PUSH8 0xFFFFFFFFFFFFFFFF DUP1 DUP14 CALLDATALOAD GT ISZERO PUSH2 0x4C1F JUMPI PUSH0 DUP1 REVERT JUMPDEST PUSH2 0x4C2C DUP15 DUP15 CALLDATALOAD DUP16 ADD PUSH2 0x459F JUMP JUMPDEST SWAP12 POP DUP1 PUSH1 0x20 DUP15 ADD CALLDATALOAD GT ISZERO PUSH2 0x4C3E JUMPI PUSH0 DUP1 REVERT JUMPDEST PUSH2 0x4C4E DUP15 PUSH1 0x20 DUP16 ADD CALLDATALOAD DUP16 ADD PUSH2 0x459F JUMP JUMPDEST SWAP11 POP PUSH2 0x4C5C PUSH1 0x40 DUP15 ADD PUSH2 0x4545 JUMP JUMPDEST SWAP10 POP DUP1 PUSH1 0x60 DUP15 ADD CALLDATALOAD GT ISZERO PUSH2 0x4C6E JUMPI PUSH0 DUP1 REVERT JUMPDEST PUSH2 0x4C7E DUP15 PUSH1 0x60 DUP16 ADD CALLDATALOAD DUP16 ADD PUSH2 0x459F JUMP JUMPDEST SWAP9 POP DUP1 PUSH1 0x80 DUP15 ADD CALLDATALOAD GT ISZERO PUSH2 0x4C90 JUMPI PUSH0 DUP1 REVERT JUMPDEST PUSH2 0x4CA0 DUP15 PUSH1 0x80 DUP16 ADD CALLDATALOAD DUP16 ADD PUSH2 0x459F JUMP JUMPDEST SWAP8 POP DUP1 PUSH1 0xA0 DUP15 ADD CALLDATALOAD GT ISZERO PUSH2 0x4CB2 JUMPI PUSH0 DUP1 REVERT JUMPDEST PUSH2 0x4CC2 DUP15 PUSH1 0xA0 DUP16 ADD CALLDATALOAD DUP16 ADD PUSH2 0x459F JUMP JUMPDEST SWAP7 POP PUSH1 0xC0 DUP14 ADD CALLDATALOAD SWAP6 POP PUSH1 0xE0 DUP14 ADD CALLDATALOAD SWAP5 POP DUP1 PUSH2 0x100 DUP15 ADD CALLDATALOAD GT ISZERO PUSH2 0x4CE3 JUMPI PUSH0 DUP1 REVERT JUMPDEST POP PUSH2 0x4CF5 DUP14 PUSH2 0x100 DUP15 ADD CALLDATALOAD DUP15 ADD PUSH2 0x459F JUMP JUMPDEST SWAP3 POP PUSH2 0x120 DUP13 ADD CALLDATALOAD SWAP2 POP PUSH2 0x140 DUP13 ADD CALLDATALOAD SWAP1 POP SWAP3 SWAP6 SWAP9 SWAP12 POP SWAP3 SWAP6 SWAP9 SWAP12 SWAP1 SWAP4 SWAP7 SWAP10 POP JUMP JUMPDEST PUSH1 0x20 DUP2 MSTORE PUSH0 DUP3 MLOAD PUSH1 0xC0 PUSH1 0x20 DUP5 ADD MSTORE PUSH2 0x4D32 PUSH1 0xE0 DUP5 ADD DUP3 PUSH2 0x484F JUMP JUMPDEST SWAP1 POP PUSH1 0x1 DUP1 PUSH1 0xA0 SHL SUB PUSH1 0x20 DUP6 ADD MLOAD AND PUSH1 0x40 DUP5 ADD MSTORE PUSH1 0x40 DUP5 ADD MLOAD PUSH1 0x1F NOT DUP1 DUP6 DUP5 SUB ADD PUSH1 0x60 DUP7 ADD MSTORE PUSH2 0x4D62 DUP4 DUP4 PUSH2 0x484F JUMP JUMPDEST SWAP3 POP PUSH1 0x60 DUP7 ADD MLOAD PUSH1 0x80 DUP7 ADD MSTORE PUSH1 0x80 DUP7 ADD MLOAD PUSH1 0xA0 DUP7 ADD MSTORE PUSH1 0xA0 DUP7 ADD MLOAD SWAP2 POP DUP1 DUP6 DUP5 SUB ADD PUSH1 0xC0 DUP7 ADD MSTORE POP PUSH2 0x4D94 DUP3 DUP3 PUSH2 0x484F JUMP JUMPDEST SWAP6 SWAP5 POP POP POP POP POP JUMP JUMPDEST PUSH0 DUP1 PUSH1 0x40 DUP4 DUP6 SUB SLT ISZERO PUSH2 0x4DAE JUMPI PUSH0 DUP1 REVERT JUMPDEST DUP3 CALLDATALOAD PUSH8 0xFFFFFFFFFFFFFFFF DUP2 GT ISZERO PUSH2 0x4DC4 JUMPI PUSH0 DUP1 REVERT JUMPDEST PUSH2 0x4DD0 DUP6 DUP3 DUP7 ADD PUSH2 0x459F JUMP JUMPDEST SWAP3 POP POP PUSH2 0x4DDF PUSH1 0x20 DUP5 ADD PUSH2 0x4545 JUMP JUMPDEST SWAP1 POP SWAP3 POP SWAP3 SWAP1 POP JUMP JUMPDEST PUSH0 PUSH1 0x20 DUP1 DUP4 ADD DUP2 DUP5 MSTORE DUP1 DUP6 MLOAD DUP1 DUP4 MSTORE PUSH1 0x40 SWAP3 POP DUP3 DUP7 ADD SWAP2 POP DUP3 DUP2 PUSH1 0x5 SHL DUP8 ADD ADD DUP5 DUP9 ADD PUSH0 JUMPDEST DUP4 DUP2 LT ISZERO PUSH2 0x4B38 JUMPI PUSH1 0x3F NOT DUP10 DUP5 SUB ADD DUP6 MSTORE DUP2 MLOAD PUSH2 0x160 DUP2 MLOAD DUP2 DUP7 MSTORE PUSH2 0x4E34 DUP3 DUP8 ADD DUP3 PUSH2 0x484F JUMP JUMPDEST SWAP2 POP POP DUP9 DUP3 ADD MLOAD DUP6 DUP3 SUB DUP11 DUP8 ADD MSTORE PUSH2 0x4E4C DUP3 DUP3 PUSH2 0x484F JUMP JUMPDEST SWAP2 POP POP DUP8 DUP3 ADD MLOAD PUSH2 0x4E67 DUP10 DUP8 ADD DUP3 PUSH1 0x1 PUSH1 0x1 PUSH1 0xA0 SHL SUB AND SWAP1 MSTORE JUMP JUMPDEST POP PUSH1 0x60 DUP3 DUP2 ADD MLOAD PUSH1 0x1 PUSH1 0x1 PUSH1 0xA0 SHL SUB AND SWAP1 DUP7 ADD MSTORE PUSH1 0x80 DUP1 DUP4 ADD MLOAD DUP7 DUP4 SUB DUP3 DUP9 ADD MSTORE PUSH2 0x4E92 DUP4 DUP3 PUSH2 0x484F JUMP JUMPDEST SWAP3 POP POP POP PUSH1 0xA0 DUP1 DUP4 ADD MLOAD DUP7 DUP4 SUB DUP3 DUP9 ADD MSTORE PUSH2 0x4EAD DUP4 DUP3 PUSH2 0x484F JUMP JUMPDEST SWAP3 POP POP POP PUSH1 0xC0 DUP1 DUP4 ADD MLOAD DUP7 DUP4 SUB DUP3 DUP9 ADD MSTORE PUSH2 0x4EC8 DUP4 DUP3 PUSH2 0x484F JUMP JUMPDEST SWAP3 POP POP POP PUSH1 0xE0 DUP1 DUP4 ADD MLOAD DUP7 DUP4 SUB DUP3 DUP9 ADD MSTORE PUSH2 0x4EE3 DUP4 DUP3 PUSH2 0x484F JUMP JUMPDEST SWAP3 POP POP POP PUSH2 0x100 DUP1 DUP4 ADD MLOAD DUP7 DUP4 SUB DUP3 DUP9 ADD MSTORE PUSH2 0x4EFF DUP4 DUP3 PUSH2 0x484F JUMP JUMPDEST SWAP3 POP POP POP PUSH2 0x120 DUP1 DUP4 ADD MLOAD DUP7 DUP4 SUB DUP3 DUP9 ADD MSTORE PUSH2 0x4F1B DUP4 DUP3 PUSH2 0x484F JUMP JUMPDEST SWAP3 POP POP POP PUSH2 0x140 DUP1 DUP4 ADD MLOAD SWAP3 POP DUP6 DUP3 SUB DUP2 DUP8 ADD MSTORE POP PUSH2 0x4F3A DUP2 DUP4 PUSH2 0x484F JUMP JUMPDEST SWAP7 DUP10 ADD SWAP7 SWAP5 POP POP POP SWAP1 DUP7 ADD SWAP1 PUSH1 0x1 ADD PUSH2 0x4E0D JUMP JUMPDEST PUSH1 0x1 PUSH1 0x1 PUSH1 0xA0 SHL SUB DUP7 AND DUP2 MSTORE PUSH1 0xA0 PUSH1 0x20 DUP3 ADD DUP2 SWAP1 MSTORE PUSH0 SWAP1 PUSH2 0x4F71 SWAP1 DUP4 ADD DUP8 PUSH2 0x484F JUMP JUMPDEST DUP3 DUP2 SUB PUSH1 0x40 DUP5 ADD MSTORE PUSH2 0x4F83 DUP2 DUP8 PUSH2 0x484F JUMP JUMPDEST SWAP1 POP DUP3 DUP2 SUB PUSH1 0x60 DUP5 ADD MSTORE PUSH2 0x4F97 DUP2 DUP7 PUSH2 0x484F JUMP JUMPDEST SWAP2 POP POP DUP3 PUSH1 0x80 DUP4 ADD MSTORE SWAP7 SWAP6 POP POP POP POP POP POP JUMP JUMPDEST PUSH0 PUSH2 0x100 DUP3 MLOAD DUP2 DUP6 MSTORE PUSH2 0x4FBF DUP3 DUP7 ADD DUP3 PUSH2 0x484F JUMP JUMPDEST SWAP2 POP POP PUSH1 0x20 DUP4 ADD MLOAD PUSH2 0x4FDC PUSH1 0x20 DUP7 ADD DUP3 PUSH1 0x1 PUSH1 0x1 PUSH1 0xA0 SHL SUB AND SWAP1 MSTORE JUMP JUMPDEST POP PUSH1 0x40 DUP4 ADD MLOAD PUSH2 0x4FF0 PUSH1 0x40 DUP7 ADD DUP3 ISZERO ISZERO SWAP1 MSTORE JUMP JUMPDEST POP PUSH1 0x60 DUP4 ADD MLOAD PUSH2 0x5004 PUSH1 0x60 DUP7 ADD DUP3 ISZERO ISZERO SWAP1 MSTORE JUMP JUMPDEST POP PUSH1 0x80 DUP4 ADD MLOAD PUSH2 0x5018 PUSH1 0x80 DUP7 ADD DUP3 ISZERO ISZERO SWAP1 MSTORE JUMP JUMPDEST POP PUSH1 0xA0 DUP4 ADD MLOAD DUP5 DUP3 SUB PUSH1 0xA0 DUP7 ADD MSTORE PUSH2 0x5030 DUP3 DUP3 PUSH2 0x484F JUMP JUMPDEST SWAP2 POP POP PUSH1 0xC0 DUP4 ADD MLOAD DUP5 DUP3 SUB PUSH1 0xC0 DUP7 ADD MSTORE PUSH2 0x504A DUP3 DUP3 PUSH2 0x484F JUMP JUMPDEST SWAP2 POP POP PUSH1 0xE0 DUP4 ADD MLOAD DUP5 DUP3 SUB PUSH1 0xE0 DUP7 ADD MSTORE PUSH2 0x4D94 DUP3 DUP3 PUSH2 0x484F JUMP JUMPDEST PUSH1 0x40 DUP2 MSTORE PUSH0 DUP4 MLOAD PUSH2 0x160 DUP1 PUSH1 0x40 DUP6 ADD MSTORE PUSH2 0x5082 PUSH2 0x1A0 DUP6 ADD DUP4 PUSH2 0x484F JUMP JUMPDEST SWAP2 POP PUSH1 0x20 DUP7 ADD MLOAD PUSH1 0x3F NOT DUP1 DUP7 DUP6 SUB ADD PUSH1 0x60 DUP8 ADD MSTORE PUSH2 0x50A0 DUP5 DUP4 PUSH2 0x484F JUMP JUMPDEST SWAP4 POP PUSH1 0x40 DUP9 ADD MLOAD SWAP2 POP PUSH2 0x50BE PUSH1 0x80 DUP8 ADD DUP4 PUSH1 0x1 PUSH1 0x1 PUSH1 0xA0 SHL SUB AND SWAP1 MSTORE JUMP JUMPDEST PUSH1 0x60 DUP9 ADD MLOAD SWAP2 POP DUP1 DUP7 DUP6 SUB ADD PUSH1 0xA0 DUP8 ADD MSTORE PUSH2 0x50D9 DUP5 DUP4 PUSH2 0x484F JUMP JUMPDEST SWAP4 POP PUSH1 0x80 DUP9 ADD MLOAD SWAP2 POP DUP1 DUP7 DUP6 SUB ADD PUSH1 0xC0 DUP8 ADD MSTORE PUSH2 0x50F6 DUP5 DUP4 PUSH2 0x484F JUMP JUMPDEST SWAP4 POP PUSH1 0xA0 DUP9 ADD MLOAD SWAP2 POP DUP1 DUP7 DUP6 SUB ADD PUSH1 0xE0 DUP8 ADD MSTORE PUSH2 0x5113 DUP5 DUP4 PUSH2 0x484F JUMP JUMPDEST SWAP4 POP PUSH1 0xC0 DUP9 ADD MLOAD SWAP2 POP PUSH2 0x100 DUP3 DUP2 DUP9 ADD MSTORE PUSH1 0xE0 DUP10 ADD MLOAD SWAP3 POP PUSH2 0x120 DUP4 DUP2 DUP10 ADD MSTORE DUP2 DUP11 ADD MLOAD SWAP4 POP PUSH2 0x140 SWAP2 POP DUP3 DUP9 DUP8 SUB ADD DUP3 DUP10 ADD MSTORE PUSH2 0x5151 DUP7 DUP6 PUSH2 0x484F JUMP JUMPDEST SWAP1 DUP11 ADD MLOAD SWAP5 DUP9 ADD SWAP5 SWAP1 SWAP5 MSTORE DUP9 ADD MLOAD PUSH2 0x180 DUP8 ADD MSTORE POP POP DUP4 DUP2 SUB PUSH1 0x20 DUP6 ADD MSTORE SWAP1 POP PUSH2 0x4D94 DUP2 DUP6 PUSH2 0x4FAA JUMP JUMPDEST PUSH0 PUSH2 0x100 DUP1 DUP4 MSTORE PUSH2 0x518E DUP2 DUP5 ADD DUP13 PUSH2 0x484F JUMP JUMPDEST PUSH1 0x1 PUSH1 0x1 PUSH1 0xA0 SHL SUB DUP12 AND PUSH1 0x20 DUP6 ADD MSTORE DUP10 ISZERO ISZERO PUSH1 0x40 DUP6 ADD MSTORE DUP9 ISZERO ISZERO PUSH1 0x60 DUP6 ADD MSTORE DUP8 ISZERO ISZERO PUSH1 0x80 DUP6 ADD MSTORE DUP4 DUP2 SUB PUSH1 0xA0 DUP6 ADD MSTORE SWAP1 POP PUSH2 0x51C9 DUP2 DUP8 PUSH2 0x484F JUMP JUMPDEST SWAP1 POP DUP3 DUP2 SUB PUSH1 0xC0 DUP5 ADD MSTORE PUSH2 0x51DD DUP2 DUP7 PUSH2 0x484F JUMP JUMPDEST SWAP1 POP DUP3 DUP2 SUB PUSH1 0xE0 DUP5 ADD MSTORE PUSH2 0x51F1 DUP2 DUP6 PUSH2 0x484F JUMP JUMPDEST SWAP12 SWAP11 POP POP POP POP POP POP POP POP POP POP POP JUMP JUMPDEST PUSH1 0x20 DUP1 DUP3 MSTORE DUP3 MLOAD PUSH1 0x1 PUSH1 0x1 PUSH1 0xA0 SHL SUB AND DUP3 DUP3 ADD MSTORE DUP3 ADD MLOAD PUSH1 0xA0 PUSH1 0x40 DUP4 ADD MSTORE PUSH0 SWAP1 PUSH2 0x522D PUSH1 0xC0 DUP5 ADD DUP3 PUSH2 0x484F JUMP JUMPDEST SWAP1 POP PUSH1 0x40 DUP5 ADD MLOAD PUSH1 0x1F NOT DUP1 DUP6 DUP5 SUB ADD PUSH1 0x60 DUP7 ADD MSTORE PUSH2 0x524B DUP4 DUP4 PUSH2 0x484F JUMP JUMPDEST SWAP3 POP PUSH1 0x60 DUP7 ADD MLOAD SWAP2 POP DUP1 DUP6 DUP5 SUB ADD PUSH1 0x80 DUP7 ADD MSTORE POP PUSH2 0x5269 DUP3 DUP3 PUSH2 0x484F JUMP JUMPDEST SWAP2 POP POP PUSH1 0x80 DUP5 ADD MLOAD PUSH1 0xA0 DUP5 ADD MSTORE DUP1 SWAP2 POP POP SWAP3 SWAP2 POP POP JUMP JUMPDEST PUSH0 PUSH2 0x160 DUP1 DUP4 MSTORE PUSH2 0x5293 DUP2 DUP5 ADD DUP16 PUSH2 0x484F JUMP JUMPDEST SWAP1 POP DUP3 DUP2 SUB PUSH1 0x20 DUP5 ADD MSTORE PUSH2 0x52A7 DUP2 DUP15 PUSH2 0x484F JUMP JUMPDEST PUSH1 0x1 PUSH1 0x1 PUSH1 0xA0 SHL SUB DUP14 AND PUSH1 0x40 DUP6 ADD MSTORE SWAP1 POP PUSH1 0x1 PUSH1 0x1 PUSH1 0xA0 SHL SUB DUP12 AND PUSH1 0x60 DUP5 ADD MSTORE DUP3 DUP2 SUB PUSH1 0x80 DUP5 ADD MSTORE PUSH2 0x52D9 DUP2 DUP12 PUSH2 0x484F JUMP JUMPDEST SWAP1 POP DUP3 DUP2 SUB PUSH1 0xA0 DUP5 ADD MSTORE PUSH2 0x52ED DUP2 DUP11 PUSH2 0x484F JUMP JUMPDEST SWAP1 POP DUP3 DUP2 SUB PUSH1 0xC0 DUP5 ADD MSTORE PUSH2 0x5301 DUP2 DUP10 PUSH2 0x484F JUMP JUMPDEST SWAP1 POP DUP3 DUP2 SUB PUSH1 0xE0 DUP5 ADD MSTORE PUSH2 0x5315 DUP2 DUP9 PUSH2 0x484F JUMP JUMPDEST SWAP1 POP DUP3 DUP2 SUB PUSH2 0x100 DUP5 ADD MSTORE PUSH2 0x532A DUP2 DUP8 PUSH2 0x484F JUMP JUMPDEST SWAP1 POP DUP3 DUP2 SUB PUSH2 0x120 DUP5 ADD MSTORE PUSH2 0x533F DUP2 DUP7 PUSH2 0x484F JUMP JUMPDEST SWAP1 POP DUP3 DUP2 SUB PUSH2 0x140 DUP5 ADD MSTORE PUSH2 0x5354 DUP2 DUP6 PUSH2 0x484F JUMP JUMPDEST SWAP15 SWAP14 POP POP POP POP POP POP POP POP POP POP POP POP POP POP JUMP JUMPDEST PUSH1 0x20 DUP1 DUP3 MSTORE PUSH1 0x2A SWAP1 DUP3 ADD MSTORE PUSH32 0x41636365737365626C65206F6E6C7920666F72204F776E65727320616E642053 PUSH1 0x40 DUP3 ADD MSTORE PUSH10 0x757065724F776E657273 PUSH1 0xB0 SHL PUSH1 0x60 DUP3 ADD MSTORE PUSH1 0x80 ADD SWAP1 JUMP JUMPDEST PUSH4 0x4E487B71 PUSH1 0xE0 SHL PUSH0 MSTORE PUSH1 0x11 PUSH1 0x4 MSTORE PUSH1 0x24 PUSH0 REVERT JUMPDEST DUP1 DUP3 ADD DUP1 DUP3 GT ISZERO PUSH2 0x1D1F JUMPI PUSH2 0x1D1F PUSH2 0x53B0 JUMP JUMPDEST DUP2 DUP2 SUB DUP2 DUP2 GT ISZERO PUSH2 0x1D1F JUMPI PUSH2 0x1D1F PUSH2 0x53B0 JUMP JUMPDEST PUSH1 0x20 DUP1 DUP3 MSTORE PUSH1 0x42 SWAP1 DUP3 ADD MSTORE PUSH32 0x4F6E6C792074686520446F63746F72732063616E2063616C6C20746869732066 PUSH1 0x40 DUP3 ADD MSTORE PUSH32 0x756E6374696F6E2064756520746F20736563757269747920726561736F6E7321 PUSH1 0x60 DUP3 ADD MSTORE PUSH2 0x2121 PUSH1 0xF0 SHL PUSH1 0x80 DUP3 ADD MSTORE PUSH1 0xA0 ADD SWAP1 JUMP JUMPDEST PUSH1 0x1 DUP2 DUP2 SHR SWAP1 DUP3 AND DUP1 PUSH2 0x5466 JUMPI PUSH1 0x7F DUP3 AND SWAP2 POP JUMPDEST PUSH1 0x20 DUP3 LT DUP2 SUB PUSH2 0x5484 JUMPI PUSH4 0x4E487B71 PUSH1 0xE0 SHL PUSH0 MSTORE PUSH1 0x22 PUSH1 0x4 MSTORE PUSH1 0x24 PUSH0 REVERT JUMPDEST POP SWAP2 SWAP1 POP JUMP JUMPDEST PUSH1 0x1F DUP3 GT ISZERO PUSH2 0x54CF JUMPI PUSH0 DUP2 DUP2 MSTORE PUSH1 0x20 DUP2 KECCAK256 PUSH1 0x1F DUP6 ADD PUSH1 0x5 SHR DUP2 ADD PUSH1 0x20 DUP7 LT ISZERO PUSH2 0x54B0 JUMPI POP DUP1 JUMPDEST PUSH1 0x1F DUP6 ADD PUSH1 0x5 SHR DUP3 ADD SWAP2 POP JUMPDEST DUP2 DUP2 LT ISZERO PUSH2 0x27A6 JUMPI DUP3 DUP2 SSTORE PUSH1 0x1 ADD PUSH2 0x54BC JUMP JUMPDEST POP POP POP JUMP JUMPDEST DUP2 MLOAD PUSH8 0xFFFFFFFFFFFFFFFF DUP2 GT ISZERO PUSH2 0x54EE JUMPI PUSH2 0x54EE PUSH2 0x458B JUMP JUMPDEST PUSH2 0x5502 DUP2 PUSH2 0x54FC DUP5 SLOAD PUSH2 0x5452 JUMP JUMPDEST DUP5 PUSH2 0x548A JUMP JUMPDEST PUSH1 0x20 DUP1 PUSH1 0x1F DUP4 GT PUSH1 0x1 DUP2 EQ PUSH2 0x5535 JUMPI PUSH0 DUP5 ISZERO PUSH2 0x551E JUMPI POP DUP6 DUP4 ADD MLOAD JUMPDEST PUSH0 NOT PUSH1 0x3 DUP7 SWAP1 SHL SHR NOT AND PUSH1 0x1 DUP6 SWAP1 SHL OR DUP6 SSTORE PUSH2 0x27A6 JUMP JUMPDEST PUSH0 DUP6 DUP2 MSTORE PUSH1 0x20 DUP2 KECCAK256 PUSH1 0x1F NOT DUP7 AND SWAP2 JUMPDEST DUP3 DUP2 LT ISZERO PUSH2 0x5563 JUMPI DUP9 DUP7 ADD MLOAD DUP3 SSTORE SWAP5 DUP5 ADD SWAP5 PUSH1 0x1 SWAP1 SWAP2 ADD SWAP1 DUP5 ADD PUSH2 0x5544 JUMP JUMPDEST POP DUP6 DUP3 LT ISZERO PUSH2 0x5580 JUMPI DUP8 DUP6 ADD MLOAD PUSH0 NOT PUSH1 0x3 DUP9 SWAP1 SHL PUSH1 0xF8 AND SHR NOT AND DUP2 SSTORE JUMPDEST POP POP POP POP POP PUSH1 0x1 SWAP1 DUP2 SHL ADD SWAP1 SSTORE POP JUMP JUMPDEST PUSH1 0x20 DUP1 DUP3 MSTORE PUSH1 0x2F SWAP1 DUP3 ADD MSTORE PUSH32 0x4B696E646C792066696C6C20616C6C20746865206D616E6461746F7279206665 PUSH1 0x40 DUP3 ADD MSTORE PUSH15 0x696C64732070726F7065726C792121 PUSH1 0x88 SHL PUSH1 0x60 DUP3 ADD MSTORE PUSH1 0x80 ADD SWAP1 JUMP JUMPDEST PUSH1 0x20 DUP1 DUP3 MSTORE PUSH1 0x6C SWAP1 DUP3 ADD MSTORE PUSH32 0x496E636F727265637420446F63746F7227732077616C6C657420616464726573 PUSH1 0x40 DUP3 ADD MSTORE PUSH32 0x73206F722054686520446F63746F722064657461696C20666F72207468652061 PUSH1 0x60 DUP3 ADD MSTORE PUSH32 0x6464726573732070726F7669646564206E6F7420617661696C61626C6520696E PUSH1 0x80 DUP3 ADD MSTORE PUSH12 0x2074686520636861696E2121 PUSH1 0xA0 SHL PUSH1 0xA0 DUP3 ADD MSTORE PUSH1 0xC0 ADD SWAP1 JUMP JUMPDEST PUSH1 0x20 DUP1 DUP3 MSTORE PUSH1 0x26 SWAP1 DUP3 ADD MSTORE PUSH32 0x4B696E646C792066696C6C20616C6C20746865206D616E6461746F7279206665 PUSH1 0x40 DUP3 ADD MSTORE PUSH6 0x696C64732121 PUSH1 0xD0 SHL PUSH1 0x60 DUP3 ADD MSTORE PUSH1 0x80 ADD SWAP1 JUMP JUMPDEST PUSH1 0x20 DUP1 DUP3 MSTORE PUSH1 0x6C SWAP1 DUP3 ADD MSTORE PUSH32 0x496E636F72726563742050617469656E742077616C6C65742061646472657373 PUSH1 0x40 DUP3 ADD MSTORE PUSH32 0x206F72205468652050617469656E742064657461696C20666F72207468652061 PUSH1 0x60 DUP3 ADD MSTORE PUSH32 0x6464726573732070726F7669646564206E6F7420617661696C61626C6520696E PUSH1 0x80 DUP3 ADD MSTORE PUSH12 0x2074686520636861696E2121 PUSH1 0xA0 SHL PUSH1 0xA0 DUP3 ADD MSTORE PUSH1 0xC0 ADD SWAP1 JUMP JUMPDEST PUSH0 PUSH1 0x1 DUP3 ADD PUSH2 0x5766 JUMPI PUSH2 0x5766 PUSH2 0x53B0 JUMP JUMPDEST POP PUSH1 0x1 ADD SWAP1 JUMP JUMPDEST PUSH0 DUP3 PUSH2 0x5787 JUMPI PUSH4 0x4E487B71 PUSH1 0xE0 SHL PUSH0 MSTORE PUSH1 0x12 PUSH1 0x4 MSTORE PUSH1 0x24 PUSH0 REVERT JUMPDEST POP DIV SWAP1 JUMP JUMPDEST PUSH1 0x20 DUP1 DUP3 MSTORE PUSH1 0x1E SWAP1 DUP3 ADD MSTORE PUSH32 0x57616C6C657420416464726573732063616E6E6F7420626520656D7074790000 PUSH1 0x40 DUP3 ADD MSTORE PUSH1 0x60 ADD SWAP1 JUMP JUMPDEST PUSH1 0x20 DUP1 DUP3 MSTORE PUSH1 0x78 SWAP1 DUP3 ADD MSTORE PUSH32 0x496E636F727265637420446F63746F722077616C6C6574206164647265737320 PUSH1 0x40 DUP3 ADD MSTORE PUSH32 0x6F722054686520446F63746F722064657461696C20666F722074686520616464 PUSH1 0x60 DUP3 ADD MSTORE PUSH32 0x726573732070726F7669646564206973206E6F7420636F6D706C6574656C7920 PUSH1 0x80 DUP3 ADD MSTORE PUSH32 0x617661696C61626C6520696E2074686520636861696E21210000000000000000 PUSH1 0xA0 DUP3 ADD MSTORE PUSH1 0xC0 ADD SWAP1 JUMP JUMPDEST PUSH1 0x20 DUP1 DUP3 MSTORE PUSH1 0x27 SWAP1 DUP3 ADD MSTORE PUSH32 0x596F752068617665206E6F2061636365737320746F2066657463682074686520 PUSH1 0x40 DUP3 ADD MSTORE PUSH7 0x64657461696C73 PUSH1 0xC8 SHL PUSH1 0x60 DUP3 ADD MSTORE PUSH1 0x80 ADD SWAP1 JUMP INVALID LOG2 PUSH5 0x6970667358 0x22 SLT KECCAK256 0xA9 0xAF 0x4B CREATE2 0xDB PUSH22 0x839904B22724FBEBC73D3653AA4D77BD23B9C69D8A9 0x24 0x4A GAS SWAP2 PUSH5 0x736F6C6343 STOP ADDMOD ISZERO STOP CALLER "},"methodIdentifiers":{"AddDoctorAccess(address)":"686e1f1b","AddDoctorPersonalInfo(string,address,string,uint256,uint256,string)":"a49b1725","AddDoctorProfessionalInfo(address,string,string,uint256,string)":"92b3141d","AddPatientsMedicalDetails(string,address,bool,bool,bool,string,string,string)":"66adec56","AddPatientsPersonalDetails(string,string,address,string,string,string,uint256,uint256,string,uint256,uint256)":"9cd3f9a4","DeleteDoctorAccess(address)":"04028017","DoctorAccess(address)":"bb7d6b67","DoctorsPersonalInfo(address)":"75c6a96c","Doctors_ProfessionalDetails(address)":"bbcaa637","EditDoctorPersonalDetails(string,address,string,uint256,uint256,string)":"1a757712","EditDoctorProfessionalDetails(address,string,string,uint256,string)":"48e64d80","EditPatientPersonalDetails(string,string,address,string,string,string,uint256,uint256,string,uint256,uint256)":"ccf0c1b5","EditPatinetMedicalDetails(string,address,bool,bool,bool,string,string,string)":"34a9e6eb","HealthCondition(address,uint256)":"fe0c2a31","PatientsMedicalDetails(address)":"f243cc6a","PatientsPersonalDetails(address)":"1f650cc9","StorePatientData(string,address)":"ac46b5b7","addOwner(address)":"7065cb48","addPatientHealthDetails(string,string,address,address,string,string,string,string,string,string,string)":"163972a3","getAge(uint256)":"0e37008a","getDoctorPersonalDetails(address)":"a96a6b21","getDoctorProfessionalDetails(address)":"f7e901d3","getPatientDetails(address)":"efe2ccc1","getPatientHealthDetails(address)":"b5f63ec5","getPatientStored(address)":"55d2df12","getYear(uint256)":"92d66313","isDoctor(address)":"996440c6","isOwner(address)":"2f54bf6e","isPatient(address)":"8f9c79ed","owner(address)":"666e1b39","patientsStoredData(address,uint256)":"6e2c0ffe","removeOwner(address)":"173825d9","superOwner()":"87dcd2b6","totalAdmin()":"64319e33","totalDoctors()":"65b44d7e","totalPatient()":"92c2808f"}}}}}