{"src/contracts/Patient.sol":{"PatientDetails":{"abi":[{"inputs":[],"stateMutability":"nonpayable","type":"constructor"},{"inputs":[{"internalType":"address","name":"_walletAddress","type":"address"}],"name":"AddDoctorAccess","outputs":[],"stateMutability":"nonpayable","type":"function"},{"inputs":[{"internalType":"string","name":"_name","type":"string"},{"internalType":"address","name":"_walletAddress","type":"address"},{"internalType":"string","name":"_dateOfBirth","type":"string"},{"internalType":"uint256","name":"_age","type":"uint256"},{"internalType":"uint256","name":"_phoneNumber","type":"uint256"},{"internalType":"string","name":"_email","type":"string"}],"name":"AddDoctorPersonalInfo","outputs":[],"stateMutability":"nonpayable","type":"function"},{"inputs":[{"internalType":"address","name":"_walletAddress","type":"address"},{"internalType":"string","name":"_MedicalLicenseNumber","type":"string"},{"internalType":"string","name":"_Specialization","type":"string"},{"internalType":"uint256","name":"_ExperienceInYear","type":"uint256"},{"internalType":"string","name":"_MedicalSchoolAttended","type":"string"}],"name":"AddDoctorProfessionalInfo","outputs":[],"stateMutability":"nonpayable","type":"function"},{"inputs":[{"internalType":"string","name":"_date","type":"string"},{"internalType":"address","name":"_walletAddress","type":"address"},{"internalType":"bool","name":"_isAlcoholic","type":"bool"},{"internalType":"bool","name":"_isSmoker","type":"bool"},{"internalType":"bool","name":"_isSmokelessTobaccoUser","type":"bool"},{"internalType":"string","name":"_surgicalHistory_ifAny","type":"string"},{"internalType":"string","name":"_physicalActivityLevel","type":"string"},{"internalType":"string","name":"_pastMedicationDetails_IfAny","type":"string"}],"name":"AddPatientsMedicalDetails","outputs":[],"stateMutability":"nonpayable","type":"function"},{"inputs":[{"internalType":"string","name":"date","type":"string"},{"internalType":"string","name":"_name","type":"string"},{"internalType":"address","name":"_walletAddress","type":"address"},{"internalType":"string","name":"_gender","type":"string"},{"internalType":"string","name":"_Occupation","type":"string"},{"internalType":"string","name":"_dateOfBirth","type":"string"},{"internalType":"uint256","name":"_age","type":"uint256"},{"internalType":"uint256","name":"number","type":"uint256"},{"internalType":"string","name":"_bloodGrp","type":"string"},{"internalType":"uint256","name":"_height","type":"uint256"},{"internalType":"uint256","name":"_weight","type":"uint256"}],"name":"AddPatientsPersonalDetails","outputs":[],"stateMutability":"nonpayable","type":"function"},{"inputs":[{"internalType":"address","name":"_walletAddress","type":"address"}],"name":"DeleteDoctorAccess","outputs":[],"stateMutability":"nonpayable","type":"function"},{"inputs":[{"internalType":"address","name":"","type":"address"}],"name":"DoctorAccess","outputs":[{"internalType":"bool","name":"","type":"bool"}],"stateMutability":"view","type":"function"},{"inputs":[{"internalType":"address","name":"","type":"address"}],"name":"DoctorsPersonalInfo","outputs":[{"internalType":"string","name":"name","type":"string"},{"internalType":"address","name":"walletAddress","type":"address"},{"internalType":"string","name":"dateOfBirth","type":"string"},{"internalType":"uint256","name":"age","type":"uint256"},{"internalType":"uint256","name":"phoneNumber","type":"uint256"},{"internalType":"string","name":"email","type":"string"}],"stateMutability":"view","type":"function"},{"inputs":[{"internalType":"address","name":"","type":"address"}],"name":"Doctors_ProfessionalDetails","outputs":[{"internalType":"address","name":"walletAddress","type":"address"},{"internalType":"string","name":"MedicalSchoolAttended","type":"string"},{"internalType":"string","name":"MedicalLicenseNumber","type":"string"},{"internalType":"string","name":"Specialization","type":"string"},{"internalType":"uint256","name":"ExperienceInYear","type":"uint256"}],"stateMutability":"view","type":"function"},{"inputs":[{"internalType":"string","name":"_name","type":"string"},{"internalType":"address","name":"_walletAddress","type":"address"},{"internalType":"string","name":"_dateOfBirth","type":"string"},{"internalType":"uint256","name":"_age","type":"uint256"},{"internalType":"uint256","name":"_phoneNumber","type":"uint256"},{"internalType":"string","name":"_email","type":"string"}],"name":"EditDoctorPersonalDetails","outputs":[],"stateMutability":"nonpayable","type":"function"},{"inputs":[{"internalType":"address","name":"_walletAddress","type":"address"},{"internalType":"string","name":"_MedicalLicenseNumber","type":"string"},{"internalType":"string","name":"_Specialization","type":"string"},{"internalType":"uint256","name":"_ExperienceInYear","type":"uint256"},{"internalType":"string","name":"_MedicalSchoolAttended","type":"string"}],"name":"EditDoctorProfessionalDetails","outputs":[],"stateMutability":"nonpayable","type":"function"},{"inputs":[{"internalType":"string","name":"_date","type":"string"},{"internalType":"string","name":"_name","type":"string"},{"internalType":"address","name":"_walletAddress","type":"address"},{"internalType":"string","name":"_gender","type":"string"},{"internalType":"string","name":"_Occupation","type":"string"},{"internalType":"string","name":"_dateOfBirth","type":"string"},{"internalType":"uint256","name":"_age","type":"uint256"},{"internalType":"uint256","name":"number","type":"uint256"},{"internalType":"string","name":"_bloodGrp","type":"string"},{"internalType":"uint256","name":"_height","type":"uint256"},{"internalType":"uint256","name":"_weight","type":"uint256"}],"name":"EditPatientPersonalDetails","outputs":[],"stateMutability":"nonpayable","type":"function"},{"inputs":[{"internalType":"string","name":"_date","type":"string"},{"internalType":"address","name":"_walletAddress","type":"address"},{"internalType":"bool","name":"_isAlcoholic","type":"bool"},{"internalType":"bool","name":"_isSmoker","type":"bool"},{"internalType":"bool","name":"_isSmokelessTobaccoUser","type":"bool"},{"internalType":"string","name":"_surgicalHistory_ifAny","type":"string"},{"internalType":"string","name":"_physicalActivityLevel","type":"string"},{"internalType":"string","name":"_pastMedicationDetails_IfAny","type":"string"}],"name":"EditPatinetMedicalDetails","outputs":[],"stateMutability":"nonpayable","type":"function"},{"inputs":[{"internalType":"address","name":"","type":"address"},{"internalType":"uint256","name":"","type":"uint256"}],"name":"HealthCondition","outputs":[{"internalType":"string","name":"healthIssue","type":"string"},{"internalType":"string","name":"date","type":"string"},{"internalType":"address","name":"walletAddress","type":"address"},{"internalType":"address","name":"physician","type":"address"},{"internalType":"string","name":"Department_uint","type":"string"},{"internalType":"string","name":"BloodPressure","type":"string"},{"internalType":"string","name":"HeartRate","type":"string"},{"internalType":"string","name":"GlucoseLevel","type":"string"},{"internalType":"string","name":"bodyTemperature","type":"string"},{"internalType":"string","name":"checkupDescription","type":"string"},{"internalType":"string","name":"medicinesPrescribed","type":"string"}],"stateMutability":"view","type":"function"},{"inputs":[{"internalType":"address","name":"","type":"address"}],"name":"PatientsMedicalDetails","outputs":[{"internalType":"string","name":"date","type":"string"},{"internalType":"address","name":"walletAddress","type":"address"},{"internalType":"bool","name":"isAlcoholic","type":"bool"},{"internalType":"bool","name":"isSmoker","type":"bool"},{"internalType":"bool","name":"isSmokelessTobaccoUser","type":"bool"},{"internalType":"string","name":"surgicalHistory_ifAny","type":"string"},{"internalType":"string","name":"physicalActivityLevel","type":"string"},{"internalType":"string","name":"pastMedicationDetails_IfAny","type":"string"}],"stateMutability":"view","type":"function"},{"inputs":[{"internalType":"address","name":"","type":"address"}],"name":"PatientsPersonalDetails","outputs":[{"internalType":"string","name":"date","type":"string"},{"internalType":"string","name":"name","type":"string"},{"internalType":"address","name":"walletAddress","type":"address"},{"internalType":"string","name":"gender","type":"string"},{"internalType":"string","name":"Occupation","type":"string"},{"internalType":"string","name":"dateOfBirth","type":"string"},{"internalType":"uint256","name":"age","type":"uint256"},{"internalType":"uint256","name":"phoneNumber","type":"uint256"},{"internalType":"string","name":"bloodGroup","type":"string"},{"internalType":"uint256","name":"height","type":"uint256"},{"internalType":"uint256","name":"weight","type":"uint256"}],"stateMutability":"view","type":"function"},{"inputs":[{"internalType":"string","name":"_dataURL","type":"string"},{"internalType":"address","name":"user","type":"address"},{"internalType":"string","name":"_fileName","type":"string"}],"name":"StorePatientData","outputs":[],"stateMutability":"nonpayable","type":"function"},{"inputs":[{"internalType":"address","name":"_address","type":"address"}],"name":"addOwner","outputs":[],"stateMutability":"nonpayable","type":"function"},{"inputs":[{"internalType":"string","name":"_healthIssue","type":"string"},{"internalType":"string","name":"_date","type":"string"},{"internalType":"address","name":"_walletAddress","type":"address"},{"internalType":"address","name":"_physician","type":"address"},{"internalType":"string","name":"_Department_uint","type":"string"},{"internalType":"string","name":"_BloodPressure","type":"string"},{"internalType":"string","name":"_HeartRate","type":"string"},{"internalType":"string","name":"_glucoseLevel","type":"string"},{"internalType":"string","name":"_bodyTemperature","type":"string"},{"internalType":"string","name":"_checkupDescription","type":"string"},{"internalType":"string","name":"_medicinesPrescribed","type":"string"}],"name":"addPatientHealthDetails","outputs":[],"stateMutability":"nonpayable","type":"function"},{"inputs":[{"internalType":"uint256","name":"_yearOfBirth","type":"uint256"}],"name":"getAge","outputs":[{"internalType":"uint256","name":"","type":"uint256"}],"stateMutability":"view","type":"function"},{"inputs":[{"internalType":"address","name":"_walletAddress","type":"address"}],"name":"getDoctorPersonalDetails","outputs":[{"components":[{"internalType":"string","name":"name","type":"string"},{"internalType":"address","name":"walletAddress","type":"address"},{"internalType":"string","name":"dateOfBirth","type":"string"},{"internalType":"uint256","name":"age","type":"uint256"},{"internalType":"uint256","name":"phoneNumber","type":"uint256"},{"internalType":"string","name":"email","type":"string"}],"internalType":"struct PatientDetails.DoctorPersonalInfo","name":"","type":"tuple"}],"stateMutability":"view","type":"function"},{"inputs":[{"internalType":"address","name":"_walletAddress","type":"address"}],"name":"getDoctorProfessionalDetails","outputs":[{"components":[{"internalType":"address","name":"walletAddress","type":"address"},{"internalType":"string","name":"MedicalSchoolAttended","type":"string"},{"internalType":"string","name":"MedicalLicenseNumber","type":"string"},{"internalType":"string","name":"Specialization","type":"string"},{"internalType":"uint256","name":"ExperienceInYear","type":"uint256"}],"internalType":"struct PatientDetails.DoctorProfessionalDetails","name":"","type":"tuple"}],"stateMutability":"view","type":"function"},{"inputs":[{"internalType":"address","name":"_walletAddress","type":"address"}],"name":"getPatientDetails","outputs":[{"components":[{"internalType":"string","name":"date","type":"string"},{"internalType":"string","name":"name","type":"string"},{"internalType":"address","name":"walletAddress","type":"address"},{"internalType":"string","name":"gender","type":"string"},{"internalType":"string","name":"Occupation","type":"string"},{"internalType":"string","name":"dateOfBirth","type":"string"},{"internalType":"uint256","name":"age","type":"uint256"},{"internalType":"uint256","name":"phoneNumber","type":"uint256"},{"internalType":"string","name":"bloodGroup","type":"string"},{"internalType":"uint256","name":"height","type":"uint256"},{"internalType":"uint256","name":"weight","type":"uint256"}],"internalType":"struct PatientDetails.PatientPersonalDetails","name":"","type":"tuple"},{"components":[{"internalType":"string","name":"date","type":"string"},{"internalType":"address","name":"walletAddress","type":"address"},{"internalType":"bool","name":"isAlcoholic","type":"bool"},{"internalType":"bool","name":"isSmoker","type":"bool"},{"internalType":"bool","name":"isSmokelessTobaccoUser","type":"bool"},{"internalType":"string","name":"surgicalHistory_ifAny","type":"string"},{"internalType":"string","name":"physicalActivityLevel","type":"string"},{"internalType":"string","name":"pastMedicationDetails_IfAny","type":"string"}],"internalType":"struct PatientDetails.PatientMedicalDetails","name":"","type":"tuple"}],"stateMutability":"view","type":"function"},{"inputs":[{"internalType":"address","name":"_walletAddress","type":"address"}],"name":"getPatientHealthDetails","outputs":[{"components":[{"internalType":"string","name":"healthIssue","type":"string"},{"internalType":"string","name":"date","type":"string"},{"internalType":"address","name":"walletAddress","type":"address"},{"internalType":"address","name":"physician","type":"address"},{"internalType":"string","name":"Department_uint","type":"string"},{"internalType":"string","name":"BloodPressure","type":"string"},{"internalType":"string","name":"HeartRate","type":"string"},{"internalType":"string","name":"GlucoseLevel","type":"string"},{"internalType":"string","name":"bodyTemperature","type":"string"},{"internalType":"string","name":"checkupDescription","type":"string"},{"internalType":"string","name":"medicinesPrescribed","type":"string"}],"internalType":"struct PatientDetails.PatientHealthCondition[]","name":"","type":"tuple[]"}],"stateMutability":"view","type":"function"},{"inputs":[{"internalType":"address","name":"_address","type":"address"}],"name":"getPatientStored","outputs":[{"components":[{"internalType":"uint256","name":"timestamp","type":"uint256"},{"internalType":"string","name":"cid","type":"string"},{"internalType":"string","name":"fileName","type":"string"}],"internalType":"struct PatientDetails.HealthData[]","name":"","type":"tuple[]"}],"stateMutability":"view","type":"function"},{"inputs":[{"internalType":"uint256","name":"timestamp","type":"uint256"}],"name":"getYear","outputs":[{"internalType":"uint256","name":"","type":"uint256"}],"stateMutability":"pure","type":"function"},{"inputs":[{"internalType":"address","name":"_address","type":"address"}],"name":"isDoctor","outputs":[{"internalType":"bool","name":"val","type":"bool"}],"stateMutability":"view","type":"function"},{"inputs":[{"internalType":"address","name":"_address","type":"address"}],"name":"isOwner","outputs":[{"internalType":"bool","name":"val","type":"bool"}],"stateMutability":"view","type":"function"},{"inputs":[{"internalType":"address","name":"_address","type":"address"}],"name":"isPatient","outputs":[{"internalType":"bool","name":"","type":"bool"}],"stateMutability":"view","type":"function"},{"inputs":[{"internalType":"address","name":"","type":"address"}],"name":"owner","outputs":[{"internalType":"bool","name":"","type":"bool"}],"stateMutability":"view","type":"function"},{"inputs":[{"internalType":"address","name":"","type":"address"},{"internalType":"uint256","name":"","type":"uint256"}],"name":"patientsStoredData","outputs":[{"internalType":"uint256","name":"timestamp","type":"uint256"},{"internalType":"string","name":"cid","type":"string"},{"internalType":"string","name":"fileName","type":"string"}],"stateMutability":"view","type":"function"},{"inputs":[{"internalType":"address","name":"_address","type":"address"}],"name":"removeOwner","outputs":[],"stateMutability":"nonpayable","type":"function"},{"inputs":[],"name":"superOwner","outputs":[{"internalType":"address","name":"","type":"address"}],"stateMutability":"view","type":"function"},{"inputs":[],"name":"totalAdmin","outputs":[{"internalType":"uint256","name":"","type":"uint256"}],"stateMutability":"view","type":"function"},{"inputs":[],"name":"totalDoctors","outputs":[{"internalType":"uint256","name":"","type":"uint256"}],"stateMutability":"view","type":"function"},{"inputs":[],"name":"totalPatient","outputs":[{"internalType":"uint256","name":"","type":"uint256"}],"stateMutability":"view","type":"function"}],"evm":{"bytecode":{"linkReferences":{},"object":"608060405234801561000f575f80fd5b50335f818152602081905260409020805460ff1916600190811790915580546001600160a01b0319169091179055615a7b806200004b5f395ff3fe608060405234801561000f575f80fd5b5060043610610213575f3560e01c806375c6a96c1161011f578063a96a6b21116100a9578063ccf0c1b511610079578063ccf0c1b514610511578063efe2ccc114610524578063f243cc6a14610545578063f7e901d31461056c578063fe0c2a311461058c575f80fd5b8063a96a6b211461048b578063b5f63ec5146104ab578063bb7d6b67146104cb578063bbcaa637146104ed575f80fd5b806392c2808f116100ef57806392c2808f1461043657806392d663131461043f578063996440c6146104525780639cd3f9a414610465578063a49b172514610478575f80fd5b806375c6a96c146103c057806387dcd2b6146103e55780638f9c79ed1461041057806392b3141d14610423575f80fd5b806348e64d80116101a0578063666e1b3911610170578063666e1b391461034357806366adec5614610365578063686e1f1b146103785780636e2c0ffe1461038b5780637065cb48146103ad575f80fd5b806348e64d80146102fe57806355d2df121461031157806364319e331461033157806365b44d7e1461033a575f80fd5b80631a757712116101e65780631a757712146102785780631f650cc91461028b5780631f6d15fc146102b55780632f54bf6e146102c857806334a9e6eb146102eb575f80fd5b806304028017146102175780630e37008a1461022c578063163972a314610252578063173825d914610265575b5f80fd5b61022a610225366004614694565b6105b6565b005b61023f61023a3660046146ad565b61071f565b6040519081526020015b60405180910390f35b61022a610260366004614761565b61079c565b61022a610273366004614694565b610b94565b61022a6102863660046148e4565b610c0e565b61029e610299366004614694565b610d95565b6040516102499b9a999897969594939291906149cb565b61022a6102c3366004614a7b565b611119565b6102db6102d6366004614694565b611195565b6040519015158152602001610249565b61022a6102f9366004614af9565b6111c2565b61022a61030c366004614be0565b611390565b61032461031f366004614694565b611529565b6040516102499190614c7c565b61023f600a5481565b61023f60095481565b6102db610351366004614694565b5f6020819052908152604090205460ff1681565b61022a610373366004614af9565b6116c4565b61022a610386366004614694565b611934565b61039e610399366004614d0b565b611ad4565b60405161024993929190614d33565b61022a6103bb366004614694565b611c20565b6103d36103ce366004614694565b611c9d565b60405161024996959493929190614d67565b6001546103f8906001600160a01b031681565b6040516001600160a01b039091168152602001610249565b6102db61041e366004614694565b611e71565b61022a610431366004614be0565b611ebe565b61023f600b5481565b61023f61044d3660046146ad565b6120f2565b6102db610460366004614694565b612101565b61022a610473366004614dc7565b612129565b61022a6104863660046148e4565b6123ee565b61049e610499366004614694565b612600565b6040516102499190614ef0565b6104be6104b9366004614694565b6128e7565b6040516102499190614f76565b6102db6104d9366004614694565b60066020525f908152604090205460ff1681565b6105006104fb366004614694565b612f25565b6040516102499594939291906150dc565b61022a61051f366004614dc7565b6130ef565b610537610532366004614694565b613310565b6040516102499291906151f2565b610558610553366004614694565b613c08565b604051610249989796959493929190615309565b61057f61057a366004614694565b613e78565b604051610249919061538e565b61059f61059a366004614d0b565b614146565b6040516102499b9a9998979695949392919061540e565b335f9081526020819052604090205460ff16806105dd57506001546001600160a01b031633145b6106025760405162461bcd60e51b81526004016105f9906154f4565b60405180910390fd5b335f908152602081905260409020805460ff191660011790556001600160a01b0381166106635760405162461bcd60e51b815260206004820152600f60248201526e496e76616c6964204164647265737360881b60448201526064016105f9565b6001600160a01b0381165f9081526006602052604090205460ff166106ff5760405162461bcd60e51b815260206004820152604660248201527f50726f76696465642061646472657373206d75737420626520616e2041646d6960448201527f6e4163636573734164647265737320746f2072656d6f76652041646d696e416360648201526563657373212160d01b608482015260a4016105f9565b6001600160a01b03165f908152600660205260409020805460ff19169055565b5f8061072a426120f2565b90505f8361073a836107b2615552565b6107449190615565565b90505f81116107955760405162461bcd60e51b815260206004820152601860248201527f456e74657220636f72726563742062697274682079656172000000000000000060448201526064016105f9565b9392505050565b335f9081526006602052604081205460ff16156107b7575060015b335f9081526006602052604090205460ff166107e55760405162461bcd60e51b81526004016105f990615578565b6001600160a01b03808b165f818152600260208190526040909120015490911614801561082e57506001600160a01b03808b165f81815260036020526040902060010154909116145b6109125760405162461bcd60e51b815260206004820152609960248201527f496e636f72726563742050617469656e742077616c6c6574206164647265737360448201527f206f72205468652050617469656e742064657461696c2073706563696669632060648201527f746f20706572736f6e616c206f722070617374206d65646963616c206869737460848201527f6f7279206f662074686520616464726573732070726f7669646564206e6f742060a48201527f617661696c61626c6520696e2074686520636861696e2121200000000000000060c482015260e4016105f9565b6001600160a01b03808a165f81815260076020526040902060010154909116146109e45760405162461bcd60e51b815260206004820152607160248201527f496e636f72726563742050687973696369616e2077616c6c657420616464726560448201527f7373206f72205468652050687973696369616e2064657461696c20666f72207460648201527f686520616464726573732070726f7669646564206e6f7420617661696c61626c6084820152700329034b7103a34329031b430b4b710909607d1b60a482015260c4016105f9565b60045f8b6001600160a01b03166001600160a01b031681526020019081526020015f206040518061016001604052808e81526020018d81526020018c6001600160a01b031681526020018b6001600160a01b031681526020018a815260200189815260200188815260200187815260200186815260200185815260200184815250908060018154018082558091505060019003905f5260205f2090600b02015f909190919091505f820151815f019081610a9e9190615666565b5060208201516001820190610ab39082615666565b5060408201516002820180546001600160a01b039283166001600160a01b031991821617909155606084015160038401805491909316911617905560808201516004820190610b029082615666565b5060a08201516005820190610b179082615666565b5060c08201516006820190610b2c9082615666565b5060e08201516007820190610b419082615666565b506101008201516008820190610b579082615666565b506101208201516009820190610b6d9082615666565b50610140820151600a820190610b839082615666565b505050505050505050505050505050565b6001546001600160a01b03163314610bee5760405162461bcd60e51b815260206004820152601f60248201527f41636365737365626c65206f6e6c7920666f722053757065724f776e6572730060448201526064016105f9565b6001600160a01b03165f908152602081905260409020805460ff19169055565b335f9081526020819052604090205460ff1680610c3557506001546001600160a01b031633145b610c515760405162461bcd60e51b81526004016105f9906154f4565b6001600160a01b03851615801590610c6957505f8151115b8015610c7557505f8651115b610c915760405162461bcd60e51b81526004016105f990615722565b6001600160a01b038086165f8181526007602052604090206001015490911614610ccd5760405162461bcd60e51b81526004016105f990615771565b6040805160c0810182528781526001600160a01b0387166020808301829052828401889052606083018790526080830186905260a083018590525f91825260079052919091208151859291908190610d259082615666565b5060208201516001820180546001600160a01b0319166001600160a01b0390921691909117905560408201516002820190610d609082615666565b50606082015160038201556080820151600482015560a08201516005820190610d899082615666565b50505050505050505050565b60026020525f9081526040902080548190610daf906155e0565b80601f0160208091040260200160405190810160405280929190818152602001828054610ddb906155e0565b8015610e265780601f10610dfd57610100808354040283529160200191610e26565b820191905f5260205f20905b815481529060010190602001808311610e0957829003601f168201915b505050505090806001018054610e3b906155e0565b80601f0160208091040260200160405190810160405280929190818152602001828054610e67906155e0565b8015610eb25780601f10610e8957610100808354040283529160200191610eb2565b820191905f5260205f20905b815481529060010190602001808311610e9557829003601f168201915b505050600284015460038501805494956001600160a01b03909216949193509150610edc906155e0565b80601f0160208091040260200160405190810160405280929190818152602001828054610f08906155e0565b8015610f535780601f10610f2a57610100808354040283529160200191610f53565b820191905f5260205f20905b815481529060010190602001808311610f3657829003601f168201915b505050505090806004018054610f68906155e0565b80601f0160208091040260200160405190810160405280929190818152602001828054610f94906155e0565b8015610fdf5780601f10610fb657610100808354040283529160200191610fdf565b820191905f5260205f20905b815481529060010190602001808311610fc257829003601f168201915b505050505090806005018054610ff4906155e0565b80601f0160208091040260200160405190810160405280929190818152602001828054611020906155e0565b801561106b5780601f106110425761010080835404028352916020019161106b565b820191905f5260205f20905b81548152906001019060200180831161104e57829003601f168201915b50505050509080600601549080600701549080600801805461108c906155e0565b80601f01602080910402602001604051908101604052809291908181526020018280546110b8906155e0565b80156111035780601f106110da57610100808354040283529160200191611103565b820191905f5260205f20905b8154815290600101906020018083116110e657829003601f168201915b50505050509080600901549080600a015490508b565b6040805160608101825242815260208082018681528284018590526001600160a01b0386165f908152600583529384208054600181810183559186529290942083516003909302019182555191928392908201906111779082615666565b506040820151600282019061118c9082615666565b50505050505050565b6001600160a01b0381165f9081526020819052604081205460ff16156111bd57506001919050565b919050565b335f9081526006602052604081205460ff16156111dd575060015b335f9081526006602052604090205460ff1661120b5760405162461bcd60e51b81526004016105f990615578565b6001600160a01b0388166112315760405162461bcd60e51b81526004016105f990615809565b6001600160a01b038089165f81815260026020819052604090912001549091161461126e5760405162461bcd60e51b81526004016105f99061584f565b60408051610100810182528a81526001600160a01b038a1660208083018290528a1515838501528915156060840152881515608084015260a0830188905260c0830187905260e083018690525f9182526003905291909120815181906112d49082615666565b5060208201516001820180546040850151606086015160808701511515600160b01b0260ff60b01b19911515600160a81b029190911661ffff60a81b19921515600160a01b026001600160a81b03199094166001600160a01b039096169590951792909217169290921791909117905560a082015160028201906113589082615666565b5060c0820151600382019061136d9082615666565b5060e082015160048201906113829082615666565b505050505050505050505050565b335f9081526020819052604090205460ff16806113b757506001546001600160a01b031633145b6113d35760405162461bcd60e51b81526004016105f9906154f4565b6001600160a01b038516158015906113eb57505f8151115b80156113f757505f8451115b801561140357505f8351115b6114475760405162461bcd60e51b8152602060048201526015602482015274656e74657220636f72726563742064657461696c7360581b60448201526064016105f9565b6001600160a01b038086165f81815260086020526040902054909116146114805760405162461bcd60e51b81526004016105f990615771565b6040805160a0810182526001600160a01b0387811680835260208084018681528486018a905260608501899052608085018890525f9283526008909152939020825181546001600160a01b0319169216919091178155915190919060018201906114ea9082615666565b50604082015160028201906114ff9082615666565b50606082015160038201906115149082615666565b50608082015181600401559050505050505050565b6001600160a01b0381165f908152600560209081526040808320805482518185028101850190935280835260609492939192909184015b828210156116b9578382905f5260205f2090600302016040518060600160405290815f820154815260200160018201805461159a906155e0565b80601f01602080910402602001604051908101604052809291908181526020018280546115c6906155e0565b80156116115780601f106115e857610100808354040283529160200191611611565b820191905f5260205f20905b8154815290600101906020018083116115f457829003601f168201915b5050505050815260200160028201805461162a906155e0565b80601f0160208091040260200160405190810160405280929190818152602001828054611656906155e0565b80156116a15780601f10611678576101008083540402835291602001916116a1565b820191905f5260205f20905b81548152906001019060200180831161168457829003601f168201915b50505050508152505081526020019060010190611560565b505050509050919050565b335f9081526006602052604081205460ff16156116df575060015b335f9081526006602052604090205460ff1661170d5760405162461bcd60e51b81526004016105f990615578565b6001600160a01b038089165f81815260036020526040902060010154909116036117b25760405162461bcd60e51b815260206004820152604a60248201527f50617469656e74206d65646963616c2064657461696c7320616c72656164792060448201527f657869737421212e204b696e646c792065646974207468652064657461696c73606482015269081a59881b995959195960b21b608482015260a4016105f9565b6001600160a01b0388166117d85760405162461bcd60e51b81526004016105f990615809565b60408051610100810182528a81526001600160a01b038a1660208083018290528a1515838501528915156060840152881515608084015260a0830188905260c0830187905260e083018690525f91825260039052919091208151819061183e9082615666565b5060208201516001820180546040850151606086015160808701511515600160b01b0260ff60b01b19911515600160a81b029190911661ffff60a81b19921515600160a01b026001600160a81b03199094166001600160a01b039096169590951792909217169290921791909117905560a082015160028201906118c29082615666565b5060c082015160038201906118d79082615666565b5060e082015160048201906118ec9082615666565b5050506001600160a01b038089165f81815260026020819052604090912001549091160361192957600b8054905f611923836158e7565b91905055505b505050505050505050565b335f9081526020819052604090205460ff168061195b57506001546001600160a01b031633145b6119775760405162461bcd60e51b81526004016105f9906154f4565b335f9081526020819052604090205460ff166119ec5760405162461bcd60e51b815260206004820152602e60248201527f4f6e6c79206f776e6572206861732070726976696c65676520746f206164642060448201526d6f776e657220616363657373212160901b60648201526084016105f9565b6001600160a01b0381165f9081526006602052604090205460ff1615611a545760405162461bcd60e51b815260206004820181905260248201527f4164647265737320616c7265616479206861732061646d696e2061636365737360448201526064016105f9565b6001600160a01b038116611a9c5760405162461bcd60e51b815260206004820152600f60248201526e496e76616c6964204164647265737360881b60448201526064016105f9565b6001600160a01b0381165f908152600660205260408120805460ff19166001179055600a805491611acc836158e7565b919050555050565b6005602052815f5260405f208181548110611aed575f80fd5b905f5260205f2090600302015f9150915050805f015490806001018054611b13906155e0565b80601f0160208091040260200160405190810160405280929190818152602001828054611b3f906155e0565b8015611b8a5780601f10611b6157610100808354040283529160200191611b8a565b820191905f5260205f20905b815481529060010190602001808311611b6d57829003601f168201915b505050505090806002018054611b9f906155e0565b80601f0160208091040260200160405190810160405280929190818152602001828054611bcb906155e0565b8015611c165780601f10611bed57610100808354040283529160200191611c16565b820191905f5260205f20905b815481529060010190602001808311611bf957829003601f168201915b5050505050905083565b6001546001600160a01b03163314611c7a5760405162461bcd60e51b815260206004820152601f60248201527f41636365737365626c65206f6e6c7920666f722053757065724f776e6572730060448201526064016105f9565b6001600160a01b03165f908152602081905260409020805460ff19166001179055565b60076020525f9081526040902080548190611cb7906155e0565b80601f0160208091040260200160405190810160405280929190818152602001828054611ce3906155e0565b8015611d2e5780601f10611d0557610100808354040283529160200191611d2e565b820191905f5260205f20905b815481529060010190602001808311611d1157829003601f168201915b505050600184015460028501805494956001600160a01b03909216949193509150611d58906155e0565b80601f0160208091040260200160405190810160405280929190818152602001828054611d84906155e0565b8015611dcf5780601f10611da657610100808354040283529160200191611dcf565b820191905f5260205f20905b815481529060010190602001808311611db257829003601f168201915b505050505090806003015490806004015490806005018054611df0906155e0565b80601f0160208091040260200160405190810160405280929190818152602001828054611e1c906155e0565b8015611e675780601f10611e3e57610100808354040283529160200191611e67565b820191905f5260205f20905b815481529060010190602001808311611e4a57829003601f168201915b5050505050905086565b6001600160a01b038082165f818152600260208190526040822001549092161480611eb857506001600160a01b038083165f81815260036020526040902060010154909116145b92915050565b335f9081526020819052604090205460ff1680611ee557506001546001600160a01b031633145b611f015760405162461bcd60e51b81526004016105f9906154f4565b6001600160a01b038086165f8181526008602052604090205490911603611f815760405162461bcd60e51b815260206004820152602e60248201527f50687973696369616e2050726f66657373696f6e616c2064657461696c73206160448201526d6c7265616479206578697374212160901b60648201526084016105f9565b6001600160a01b038086165f8181526008602052604090205490911614801590611fab57505f8151115b8015611fb757505f8451115b8015611fc357505f8351115b6120075760405162461bcd60e51b8152602060048201526015602482015274456e74657220436f72726563742064657461696c7360581b60448201526064016105f9565b6040805160a0810182526001600160a01b0387811680835260208084018681528486018a905260608501899052608085018890525f9283526008909152939020825181546001600160a01b0319169216919091178155915190919060018201906120719082615666565b50604082015160028201906120869082615666565b506060820151600382019061209b9082615666565b50608091909101516004909101556001600160a01b038086165f81815260076020526040902060010154909116036120eb576120d685611934565b60098054905f6120e5836158e7565b91905055505b5050505050565b5f611eb86301e13380836158ff565b6001600160a01b0381165f9081526006602052604081205460ff16156111bd57506001919050565b335f9081526006602052604081205460ff1615612144575060015b335f9081526006602052604090205460ff166121725760405162461bcd60e51b81526004016105f990615578565b6001600160a01b03808b165f81815260026020819052604090912001549091160361221a5760405162461bcd60e51b815260206004820152604c60248201527f50617469656e742773204d65646963616c2064657461696c7320616c7265616460448201527f7920657869737421212e204b696e646c7920656469742074686520646574616960648201526b1b1cc81a59881b995959195960a21b608482015260a4016105f9565b6001600160a01b038a161580159061223257505f8951115b801561223e57505f8851115b61225a5760405162461bcd60e51b81526004016105f990615809565b5f8690506040518061016001604052808e81526020018d81526020018c6001600160a01b031681526020018b81526020018a81526020018981526020018281526020018781526020018681526020018581526020018481525060025f8d6001600160a01b03166001600160a01b031681526020019081526020015f205f820151815f0190816122e99190615666565b50602082015160018201906122fe9082615666565b5060408201516002820180546001600160a01b0319166001600160a01b03909216919091179055606082015160038201906123399082615666565b506080820151600482019061234e9082615666565b5060a082015160058201906123639082615666565b5060c0820151600682015560e08201516007820155610100820151600882019061238d9082615666565b50610120820151600982015561014090910151600a909101556001600160a01b03808c165f81815260036020526040902060010154909116036123df57600b8054905f6123d9836158e7565b91905055505b50505050505050505050505050565b335f9081526020819052604090205460ff168061241557506001546001600160a01b031633145b6124315760405162461bcd60e51b81526004016105f9906154f4565b6001600160a01b038086165f81815260076020526040902060010154909116036124af5760405162461bcd60e51b815260206004820152602960248201527f50687973696369616e20706572736f6e616c2064657461696c20616c7265616460448201526879206578697374212160b81b60648201526084016105f9565b6001600160a01b038516158015906124c657505f82115b80156124d257505f8151115b80156124de57505f8651115b6124fa5760405162461bcd60e51b81526004016105f990615722565b6040805160c0810182528781526001600160a01b0387166020808301829052828401889052606083018790526080830186905260a083018590525f918252600790529190912081518592919081906125529082615666565b5060208201516001820180546001600160a01b0319166001600160a01b039092169190911790556040820151600282019061258d9082615666565b50606082015160038201556080820151600482015560a082015160058201906125b69082615666565b5050506001600160a01b038087165f818152600860205260409020549091160361118c576125e386611934565b60098054905f6125f2836158e7565b919050555050505050505050565b61263f6040518060c00160405280606081526020015f6001600160a01b03168152602001606081526020015f81526020015f8152602001606081525090565b335f9081526020819052604090205460ff168061266657506001546001600160a01b031633145b6126825760405162461bcd60e51b81526004016105f9906154f4565b6001600160a01b0382166126a85760405162461bcd60e51b81526004016105f99061591e565b6001600160a01b038083165f81815260076020526040902060010154909116146126e45760405162461bcd60e51b81526004016105f990615955565b6001600160a01b0382165f9081526007602052604090819020815160c08101909252805482908290612715906155e0565b80601f0160208091040260200160405190810160405280929190818152602001828054612741906155e0565b801561278c5780601f106127635761010080835404028352916020019161278c565b820191905f5260205f20905b81548152906001019060200180831161276f57829003601f168201915b505050918352505060018201546001600160a01b031660208201526002820180546040909201916127bc906155e0565b80601f01602080910402602001604051908101604052809291908181526020018280546127e8906155e0565b80156128335780601f1061280a57610100808354040283529160200191612833565b820191905f5260205f20905b81548152906001019060200180831161281657829003601f168201915b505050505081526020016003820154815260200160048201548152602001600582018054612860906155e0565b80601f016020809104026020016040519081016040528092919081815260200182805461288c906155e0565b80156128d75780601f106128ae576101008083540402835291602001916128d7565b820191905f5260205f20905b8154815290600101906020018083116128ba57829003601f168201915b5050505050815250509050919050565b335f81815260026020819052604090912001546060916001600160a01b03909116148061292c5750335f818152600360205260409020600101546001600160a01b0316145b806129455750335f9081526006602052604090205460ff165b8061295e5750335f9081526020819052604090205460ff165b8061297357506001546001600160a01b031633145b61298f5760405162461bcd60e51b81526004016105f9906159fe565b6001600160a01b0382165f90815260046020908152604080832080548251818502810185019093528083529193909284015b828210156116b9578382905f5260205f2090600b0201604051806101600160405290815f820180546129f2906155e0565b80601f0160208091040260200160405190810160405280929190818152602001828054612a1e906155e0565b8015612a695780601f10612a4057610100808354040283529160200191612a69565b820191905f5260205f20905b815481529060010190602001808311612a4c57829003601f168201915b50505050508152602001600182018054612a82906155e0565b80601f0160208091040260200160405190810160405280929190818152602001828054612aae906155e0565b8015612af95780601f10612ad057610100808354040283529160200191612af9565b820191905f5260205f20905b815481529060010190602001808311612adc57829003601f168201915b505050918352505060028201546001600160a01b0390811660208301526003830154166040820152600482018054606090920191612b36906155e0565b80601f0160208091040260200160405190810160405280929190818152602001828054612b62906155e0565b8015612bad5780601f10612b8457610100808354040283529160200191612bad565b820191905f5260205f20905b815481529060010190602001808311612b9057829003601f168201915b50505050508152602001600582018054612bc6906155e0565b80601f0160208091040260200160405190810160405280929190818152602001828054612bf2906155e0565b8015612c3d5780601f10612c1457610100808354040283529160200191612c3d565b820191905f5260205f20905b815481529060010190602001808311612c2057829003601f168201915b50505050508152602001600682018054612c56906155e0565b80601f0160208091040260200160405190810160405280929190818152602001828054612c82906155e0565b8015612ccd5780601f10612ca457610100808354040283529160200191612ccd565b820191905f5260205f20905b815481529060010190602001808311612cb057829003601f168201915b50505050508152602001600782018054612ce6906155e0565b80601f0160208091040260200160405190810160405280929190818152602001828054612d12906155e0565b8015612d5d5780601f10612d3457610100808354040283529160200191612d5d565b820191905f5260205f20905b815481529060010190602001808311612d4057829003601f168201915b50505050508152602001600882018054612d76906155e0565b80601f0160208091040260200160405190810160405280929190818152602001828054612da2906155e0565b8015612ded5780601f10612dc457610100808354040283529160200191612ded565b820191905f5260205f20905b815481529060010190602001808311612dd057829003601f168201915b50505050508152602001600982018054612e06906155e0565b80601f0160208091040260200160405190810160405280929190818152602001828054612e32906155e0565b8015612e7d5780601f10612e5457610100808354040283529160200191612e7d565b820191905f5260205f20905b815481529060010190602001808311612e6057829003601f168201915b50505050508152602001600a82018054612e96906155e0565b80601f0160208091040260200160405190810160405280929190818152602001828054612ec2906155e0565b8015612f0d5780601f10612ee457610100808354040283529160200191612f0d565b820191905f5260205f20905b815481529060010190602001808311612ef057829003601f168201915b505050505081525050815260200190600101906129c1565b60086020525f9081526040902080546001820180546001600160a01b039092169291612f50906155e0565b80601f0160208091040260200160405190810160405280929190818152602001828054612f7c906155e0565b8015612fc75780601f10612f9e57610100808354040283529160200191612fc7565b820191905f5260205f20905b815481529060010190602001808311612faa57829003601f168201915b505050505090806002018054612fdc906155e0565b80601f0160208091040260200160405190810160405280929190818152602001828054613008906155e0565b80156130535780601f1061302a57610100808354040283529160200191613053565b820191905f5260205f20905b81548152906001019060200180831161303657829003601f168201915b505050505090806003018054613068906155e0565b80601f0160208091040260200160405190810160405280929190818152602001828054613094906155e0565b80156130df5780601f106130b6576101008083540402835291602001916130df565b820191905f5260205f20905b8154815290600101906020018083116130c257829003601f168201915b5050505050908060040154905085565b335f9081526006602052604081205460ff161561310a575060015b335f9081526006602052604090205460ff166131385760405162461bcd60e51b81526004016105f990615578565b6001600160a01b038a161580159061315057505f8951115b801561315c57505f8851115b6131785760405162461bcd60e51b81526004016105f990615809565b6001600160a01b03808b165f8181526002602081905260409091200154909116146131b55760405162461bcd60e51b81526004016105f99061584f565b5f8690506040518061016001604052808e81526020018d81526020018c6001600160a01b031681526020018b81526020018a81526020018981526020018281526020018781526020018681526020018581526020018481525060025f8d6001600160a01b03166001600160a01b031681526020019081526020015f205f820151815f0190816132449190615666565b50602082015160018201906132599082615666565b5060408201516002820180546001600160a01b0319166001600160a01b03909216919091179055606082015160038201906132949082615666565b50608082015160048201906132a99082615666565b5060a082015160058201906132be9082615666565b5060c0820151600682015560e0820151600782015561010082015160088201906132e89082615666565b50610120820151600982015561014090910151600a9091015550505050505050505050505050565b61337160405180610160016040528060608152602001606081526020015f6001600160a01b031681526020016060815260200160608152602001606081526020015f81526020015f8152602001606081526020015f81526020015f81525090565b6133c4604051806101000160405280606081526020015f6001600160a01b031681526020015f151581526020015f151581526020015f151581526020016060815260200160608152602001606081525090565b335f81815260026020819052604090912001546001600160a01b031614806134045750335f818152600360205260409020600101546001600160a01b0316145b8061341d5750335f9081526006602052604090205460ff165b806134365750335f9081526020819052604090205460ff165b8061344b57506001546001600160a01b031633145b6134675760405162461bcd60e51b81526004016105f9906159fe565b6001600160a01b03831661348d5760405162461bcd60e51b81526004016105f99061591e565b6001600160a01b038084165f81815260026020819052604090912001549091161480156134d657506001600160a01b038084165f81815260036020526040902060010154909116145b6135945760405162461bcd60e51b815260206004820152607960248201527f496e636f72726563742050617469656e742077616c6c6574206164647265737360448201527f206f72205468652050617469656e742064657461696c20666f7220746865206160648201527f6464726573732070726f7669646564206973206e6f7420636f6d706c65746c7960848201527f20617661696c61626c6520696e2074686520636861696e21210000000000000060a482015260c4016105f9565b6001600160a01b0383165f908152600260209081526040808320600390925291829020825161016081019093528154919290918390829082906135d6906155e0565b80601f0160208091040260200160405190810160405280929190818152602001828054613602906155e0565b801561364d5780601f106136245761010080835404028352916020019161364d565b820191905f5260205f20905b81548152906001019060200180831161363057829003601f168201915b50505050508152602001600182018054613666906155e0565b80601f0160208091040260200160405190810160405280929190818152602001828054613692906155e0565b80156136dd5780601f106136b4576101008083540402835291602001916136dd565b820191905f5260205f20905b8154815290600101906020018083116136c057829003601f168201915b505050918352505060028201546001600160a01b0316602082015260038201805460409092019161370d906155e0565b80601f0160208091040260200160405190810160405280929190818152602001828054613739906155e0565b80156137845780601f1061375b57610100808354040283529160200191613784565b820191905f5260205f20905b81548152906001019060200180831161376757829003601f168201915b5050505050815260200160048201805461379d906155e0565b80601f01602080910402602001604051908101604052809291908181526020018280546137c9906155e0565b80156138145780601f106137eb57610100808354040283529160200191613814565b820191905f5260205f20905b8154815290600101906020018083116137f757829003601f168201915b5050505050815260200160058201805461382d906155e0565b80601f0160208091040260200160405190810160405280929190818152602001828054613859906155e0565b80156138a45780601f1061387b576101008083540402835291602001916138a4565b820191905f5260205f20905b81548152906001019060200180831161388757829003601f168201915b5050505050815260200160068201548152602001600782015481526020016008820180546138d1906155e0565b80601f01602080910402602001604051908101604052809291908181526020018280546138fd906155e0565b80156139485780601f1061391f57610100808354040283529160200191613948565b820191905f5260205f20905b81548152906001019060200180831161392b57829003601f168201915b5050505050815260200160098201548152602001600a82015481525050915080604051806101000160405290815f82018054613983906155e0565b80601f01602080910402602001604051908101604052809291908181526020018280546139af906155e0565b80156139fa5780601f106139d1576101008083540402835291602001916139fa565b820191905f5260205f20905b8154815290600101906020018083116139dd57829003601f168201915b505050918352505060018201546001600160a01b038116602083015260ff600160a01b8204811615156040840152600160a81b8204811615156060840152600160b01b909104161515608082015260028201805460a090920191613a5d906155e0565b80601f0160208091040260200160405190810160405280929190818152602001828054613a89906155e0565b8015613ad45780601f10613aab57610100808354040283529160200191613ad4565b820191905f5260205f20905b815481529060010190602001808311613ab757829003601f168201915b50505050508152602001600382018054613aed906155e0565b80601f0160208091040260200160405190810160405280929190818152602001828054613b19906155e0565b8015613b645780601f10613b3b57610100808354040283529160200191613b64565b820191905f5260205f20905b815481529060010190602001808311613b4757829003601f168201915b50505050508152602001600482018054613b7d906155e0565b80601f0160208091040260200160405190810160405280929190818152602001828054613ba9906155e0565b8015613bf45780601f10613bcb57610100808354040283529160200191613bf4565b820191905f5260205f20905b815481529060010190602001808311613bd757829003601f168201915b505050505081525050905091509150915091565b60036020525f9081526040902080548190613c22906155e0565b80601f0160208091040260200160405190810160405280929190818152602001828054613c4e906155e0565b8015613c995780601f10613c7057610100808354040283529160200191613c99565b820191905f5260205f20905b815481529060010190602001808311613c7c57829003601f168201915b50505050600183015460028401805493946001600160a01b0383169460ff600160a01b850481169550600160a81b8504811694600160b01b9004169290613cdf906155e0565b80601f0160208091040260200160405190810160405280929190818152602001828054613d0b906155e0565b8015613d565780601f10613d2d57610100808354040283529160200191613d56565b820191905f5260205f20905b815481529060010190602001808311613d3957829003601f168201915b505050505090806003018054613d6b906155e0565b80601f0160208091040260200160405190810160405280929190818152602001828054613d97906155e0565b8015613de25780601f10613db957610100808354040283529160200191613de2565b820191905f5260205f20905b815481529060010190602001808311613dc557829003601f168201915b505050505090806004018054613df7906155e0565b80601f0160208091040260200160405190810160405280929190818152602001828054613e23906155e0565b8015613e6e5780601f10613e4557610100808354040283529160200191613e6e565b820191905f5260205f20905b815481529060010190602001808311613e5157829003601f168201915b5050505050905088565b613eb16040518060a001604052805f6001600160a01b031681526020016060815260200160608152602001606081526020015f81525090565b335f9081526020819052604090205460ff1680613ed857506001546001600160a01b031633145b613ef45760405162461bcd60e51b81526004016105f9906154f4565b6001600160a01b038216613f1a5760405162461bcd60e51b81526004016105f99061591e565b6001600160a01b038083165f8181526008602052604090205490911614613f535760405162461bcd60e51b81526004016105f990615955565b6001600160a01b038083165f90815260086020908152604091829020825160a081019093528054909316825260018301805492939291840191613f95906155e0565b80601f0160208091040260200160405190810160405280929190818152602001828054613fc1906155e0565b801561400c5780601f10613fe35761010080835404028352916020019161400c565b820191905f5260205f20905b815481529060010190602001808311613fef57829003601f168201915b50505050508152602001600282018054614025906155e0565b80601f0160208091040260200160405190810160405280929190818152602001828054614051906155e0565b801561409c5780601f106140735761010080835404028352916020019161409c565b820191905f5260205f20905b81548152906001019060200180831161407f57829003601f168201915b505050505081526020016003820180546140b5906155e0565b80601f01602080910402602001604051908101604052809291908181526020018280546140e1906155e0565b801561412c5780601f106141035761010080835404028352916020019161412c565b820191905f5260205f20905b81548152906001019060200180831161410f57829003601f168201915b505050505081526020016004820154815250509050919050565b6004602052815f5260405f20818154811061415f575f80fd5b905f5260205f2090600b02015f9150915050805f01805461417f906155e0565b80601f01602080910402602001604051908101604052809291908181526020018280546141ab906155e0565b80156141f65780601f106141cd576101008083540402835291602001916141f6565b820191905f5260205f20905b8154815290600101906020018083116141d957829003601f168201915b50505050509080600101805461420b906155e0565b80601f0160208091040260200160405190810160405280929190818152602001828054614237906155e0565b80156142825780601f1061425957610100808354040283529160200191614282565b820191905f5260205f20905b81548152906001019060200180831161426557829003601f168201915b5050506002840154600385015460048601805495966001600160a01b03938416969290931694509192506142b5906155e0565b80601f01602080910402602001604051908101604052809291908181526020018280546142e1906155e0565b801561432c5780601f106143035761010080835404028352916020019161432c565b820191905f5260205f20905b81548152906001019060200180831161430f57829003601f168201915b505050505090806005018054614341906155e0565b80601f016020809104026020016040519081016040528092919081815260200182805461436d906155e0565b80156143b85780601f1061438f576101008083540402835291602001916143b8565b820191905f5260205f20905b81548152906001019060200180831161439b57829003601f168201915b5050505050908060060180546143cd906155e0565b80601f01602080910402602001604051908101604052809291908181526020018280546143f9906155e0565b80156144445780601f1061441b57610100808354040283529160200191614444565b820191905f5260205f20905b81548152906001019060200180831161442757829003601f168201915b505050505090806007018054614459906155e0565b80601f0160208091040260200160405190810160405280929190818152602001828054614485906155e0565b80156144d05780601f106144a7576101008083540402835291602001916144d0565b820191905f5260205f20905b8154815290600101906020018083116144b357829003601f168201915b5050505050908060080180546144e5906155e0565b80601f0160208091040260200160405190810160405280929190818152602001828054614511906155e0565b801561455c5780601f106145335761010080835404028352916020019161455c565b820191905f5260205f20905b81548152906001019060200180831161453f57829003601f168201915b505050505090806009018054614571906155e0565b80601f016020809104026020016040519081016040528092919081815260200182805461459d906155e0565b80156145e85780601f106145bf576101008083540402835291602001916145e8565b820191905f5260205f20905b8154815290600101906020018083116145cb57829003601f168201915b50505050509080600a0180546145fd906155e0565b80601f0160208091040260200160405190810160405280929190818152602001828054614629906155e0565b80156146745780601f1061464b57610100808354040283529160200191614674565b820191905f5260205f20905b81548152906001019060200180831161465757829003601f168201915b505050505090508b565b80356001600160a01b03811681146111bd575f80fd5b5f602082840312156146a4575f80fd5b6107958261467e565b5f602082840312156146bd575f80fd5b5035919050565b634e487b7160e01b5f52604160045260245ffd5b5f82601f8301126146e7575f80fd5b813567ffffffffffffffff80821115614702576147026146c4565b604051601f8301601f19908116603f0116810190828211818310171561472a5761472a6146c4565b81604052838152866020858801011115614742575f80fd5b836020870160208301375f602085830101528094505050505092915050565b5f805f805f805f805f805f6101608c8e03121561477c575f80fd5b67ffffffffffffffff808d351115614792575f80fd5b61479f8e8e358f016146d8565b9b508060208e013511156147b1575f80fd5b6147c18e60208f01358f016146d8565b9a506147cf60408e0161467e565b99506147dd60608e0161467e565b98508060808e013511156147ef575f80fd5b6147ff8e60808f01358f016146d8565b97508060a08e01351115614811575f80fd5b6148218e60a08f01358f016146d8565b96508060c08e01351115614833575f80fd5b6148438e60c08f01358f016146d8565b95508060e08e01351115614855575f80fd5b6148658e60e08f01358f016146d8565b9450806101008e01351115614878575f80fd5b6148898e6101008f01358f016146d8565b9350806101208e0135111561489c575f80fd5b6148ad8e6101208f01358f016146d8565b9250806101408e013511156148c0575f80fd5b506148d28d6101408e01358e016146d8565b90509295989b509295989b9093969950565b5f805f805f8060c087890312156148f9575f80fd5b863567ffffffffffffffff80821115614910575f80fd5b61491c8a838b016146d8565b975061492a60208a0161467e565b9650604089013591508082111561493f575f80fd5b61494b8a838b016146d8565b9550606089013594506080890135935060a089013591508082111561496e575f80fd5b5061497b89828a016146d8565b9150509295509295509295565b5f81518084525f5b818110156149ac57602081850181015186830182015201614990565b505f602082860101526020601f19601f83011685010191505092915050565b5f6101608083526149de8184018f614988565b905082810360208401526149f2818e614988565b6001600160a01b038d16604085015283810360608501529050614a15818c614988565b90508281036080840152614a29818b614988565b905082810360a0840152614a3d818a614988565b90508760c08401528660e0840152828103610100840152614a5e8187614988565b610120840195909552505061014001529998505050505050505050565b5f805f60608486031215614a8d575f80fd5b833567ffffffffffffffff80821115614aa4575f80fd5b614ab0878388016146d8565b9450614abe6020870161467e565b93506040860135915080821115614ad3575f80fd5b50614ae0868287016146d8565b9150509250925092565b803580151581146111bd575f80fd5b5f805f805f805f80610100898b031215614b11575f80fd5b883567ffffffffffffffff80821115614b28575f80fd5b614b348c838d016146d8565b9950614b4260208c0161467e565b9850614b5060408c01614aea565b9750614b5e60608c01614aea565b9650614b6c60808c01614aea565b955060a08b0135915080821115614b81575f80fd5b614b8d8c838d016146d8565b945060c08b0135915080821115614ba2575f80fd5b614bae8c838d016146d8565b935060e08b0135915080821115614bc3575f80fd5b50614bd08b828c016146d8565b9150509295985092959890939650565b5f805f805f60a08688031215614bf4575f80fd5b614bfd8661467e565b9450602086013567ffffffffffffffff80821115614c19575f80fd5b614c2589838a016146d8565b95506040880135915080821115614c3a575f80fd5b614c4689838a016146d8565b9450606088013593506080880135915080821115614c62575f80fd5b50614c6f888289016146d8565b9150509295509295909350565b5f6020808301818452808551808352604092508286019150828160051b8701018488015f5b83811015614cfd57603f19898403018552815160608151855288820151818a870152614ccf82870182614988565b91505087820151915084810388860152614ce98183614988565b968901969450505090860190600101614ca1565b509098975050505050505050565b5f8060408385031215614d1c575f80fd5b614d258361467e565b946020939093013593505050565b838152606060208201525f614d4b6060830185614988565b8281036040840152614d5d8185614988565b9695505050505050565b60c081525f614d7960c0830189614988565b6001600160a01b03881660208401528281036040840152614d9a8188614988565b905085606084015284608084015282810360a0840152614dba8185614988565b9998505050505050505050565b5f805f805f805f805f805f6101608c8e031215614de2575f80fd5b67ffffffffffffffff808d351115614df8575f80fd5b614e058e8e358f016146d8565b9b508060208e01351115614e17575f80fd5b614e278e60208f01358f016146d8565b9a50614e3560408e0161467e565b99508060608e01351115614e47575f80fd5b614e578e60608f01358f016146d8565b98508060808e01351115614e69575f80fd5b614e798e60808f01358f016146d8565b97508060a08e01351115614e8b575f80fd5b614e9b8e60a08f01358f016146d8565b965060c08d0135955060e08d01359450806101008e01351115614ebc575f80fd5b50614ece8d6101008e01358e016146d8565b92506101208c013591506101408c013590509295989b509295989b9093969950565b602081525f825160c06020840152614f0b60e0840182614988565b905060018060a01b0360208501511660408401526040840151601f1980858403016060860152614f3b8383614988565b925060608601516080860152608086015160a086015260a08601519150808584030160c086015250614f6d8282614988565b95945050505050565b5f6020808301818452808551808352604092508286019150828160051b8701018488015f5b83811015614cfd57603f1989840301855281516101608151818652614fc282870182614988565b915050888201518582038a870152614fda8282614988565b91505087820151614ff5898701826001600160a01b03169052565b506060828101516001600160a01b031690860152608080830151868303828801526150208382614988565b9250505060a0808301518683038288015261503b8382614988565b9250505060c080830151868303828801526150568382614988565b9250505060e080830151868303828801526150718382614988565b92505050610100808301518683038288015261508d8382614988565b9250505061012080830151868303828801526150a98382614988565b9250505061014080830151925085820381870152506150c88183614988565b968901969450505090860190600101614f9b565b6001600160a01b038616815260a0602082018190525f906150ff90830187614988565b82810360408401526151118187614988565b905082810360608401526151258186614988565b9150508260808301529695505050505050565b5f610100825181855261514d82860182614988565b915050602083015161516a60208601826001600160a01b03169052565b50604083015161517e604086018215159052565b506060830151615192606086018215159052565b5060808301516151a6608086018215159052565b5060a083015184820360a08601526151be8282614988565b91505060c083015184820360c08601526151d88282614988565b91505060e083015184820360e0860152614f6d8282614988565b604081525f83516101608060408501526152106101a0850183614988565b91506020860151603f198086850301606087015261522e8483614988565b93506040880151915061524c60808701836001600160a01b03169052565b60608801519150808685030160a08701526152678483614988565b935060808801519150808685030160c08701526152848483614988565b935060a08801519150808685030160e08701526152a18483614988565b935060c08801519150610100828188015260e089015192506101208381890152818a0151935061014091508288870301828901526152df8685614988565b908a015194880194909452880151610180870152505083810360208501529050614f6d8185615138565b5f61010080835261531c8184018c614988565b6001600160a01b038b16602085015289151560408501528815156060850152871515608085015283810360a085015290506153578187614988565b905082810360c084015261536b8186614988565b905082810360e084015261537f8185614988565b9b9a5050505050505050505050565b602080825282516001600160a01b03168282015282015160a060408301525f906153bb60c0840182614988565b90506040840151601f19808584030160608601526153d98383614988565b92506060860151915080858403016080860152506153f78282614988565b915050608084015160a08401528091505092915050565b5f6101608083526154218184018f614988565b90508281036020840152615435818e614988565b6001600160a01b038d16604085015290506001600160a01b038b1660608401528281036080840152615467818b614988565b905082810360a084015261547b818a614988565b905082810360c084015261548f8189614988565b905082810360e08401526154a38188614988565b90508281036101008401526154b88187614988565b90508281036101208401526154cd8186614988565b90508281036101408401526154e28185614988565b9e9d5050505050505050505050505050565b6020808252602a908201527f41636365737365626c65206f6e6c7920666f72204f776e65727320616e642053604082015269757065724f776e65727360b01b606082015260800190565b634e487b7160e01b5f52601160045260245ffd5b80820180821115611eb857611eb861553e565b81810381811115611eb857611eb861553e565b60208082526042908201527f4f6e6c792074686520446f63746f72732063616e2063616c6c2074686973206660408201527f756e6374696f6e2064756520746f20736563757269747920726561736f6e7321606082015261212160f01b608082015260a00190565b600181811c908216806155f457607f821691505b60208210810361561257634e487b7160e01b5f52602260045260245ffd5b50919050565b601f821115615661575f81815260208120601f850160051c8101602086101561563e5750805b601f850160051c820191505b8181101561565d5782815560010161564a565b5050505b505050565b815167ffffffffffffffff811115615680576156806146c4565b6156948161568e84546155e0565b84615618565b602080601f8311600181146156c7575f84156156b05750858301515b5f19600386901b1c1916600185901b17855561565d565b5f85815260208120601f198616915b828110156156f5578886015182559484019460019091019084016156d6565b508582101561571257878501515f19600388901b60f8161c191681555b5050505050600190811b01905550565b6020808252602f908201527f4b696e646c792066696c6c20616c6c20746865206d616e6461746f727920666560408201526e696c64732070726f7065726c79212160881b606082015260800190565b6020808252606c908201527f496e636f727265637420446f63746f7227732077616c6c65742061646472657360408201527f73206f722054686520446f63746f722064657461696c20666f7220746865206160608201527f6464726573732070726f7669646564206e6f7420617661696c61626c6520696e60808201526b2074686520636861696e212160a01b60a082015260c00190565b60208082526026908201527f4b696e646c792066696c6c20616c6c20746865206d616e6461746f7279206665604082015265696c6473212160d01b606082015260800190565b6020808252606c908201527f496e636f72726563742050617469656e742077616c6c6574206164647265737360408201527f206f72205468652050617469656e742064657461696c20666f7220746865206160608201527f6464726573732070726f7669646564206e6f7420617661696c61626c6520696e60808201526b2074686520636861696e212160a01b60a082015260c00190565b5f600182016158f8576158f861553e565b5060010190565b5f8261591957634e487b7160e01b5f52601260045260245ffd5b500490565b6020808252601e908201527f57616c6c657420416464726573732063616e6e6f7420626520656d7074790000604082015260600190565b60208082526078908201527f496e636f727265637420446f63746f722077616c6c657420616464726573732060408201527f6f722054686520446f63746f722064657461696c20666f72207468652061646460608201527f726573732070726f7669646564206973206e6f7420636f6d706c6574656c792060808201527f617661696c61626c6520696e2074686520636861696e2121000000000000000060a082015260c00190565b60208082526027908201527f596f752068617665206e6f2061636365737320746f206665746368207468652060408201526664657461696c7360c81b60608201526080019056fea264697066735822122009a213b5a0579feace29d88b29cdd166e31155dc8ba032a9fa6e8d91bd6d1d7e64736f6c63430008150033","opcodes":"PUSH1 0x80 PUSH1 0x40 MSTORE CALLVALUE DUP1 ISZERO PUSH2 0xF JUMPI PUSH0 DUP1 REVERT JUMPDEST POP CALLER PUSH0 DUP2 DUP2 MSTORE PUSH1 0x20 DUP2 SWAP1 MSTORE PUSH1 0x40 SWAP1 KECCAK256 DUP1 SLOAD PUSH1 0xFF NOT AND PUSH1 0x1 SWAP1 DUP2 OR SWAP1 SWAP2 SSTORE DUP1 SLOAD PUSH1 0x1 PUSH1 0x1 PUSH1 0xA0 SHL SUB NOT AND SWAP1 SWAP2 OR SWAP1 SSTORE PUSH2 0x5A7B DUP1 PUSH3 0x4B PUSH0 CODECOPY PUSH0 RETURN INVALID PUSH1 0x80 PUSH1 0x40 MSTORE CALLVALUE DUP1 ISZERO PUSH2 0xF JUMPI PUSH0 DUP1 REVERT JUMPDEST POP PUSH1 0x4 CALLDATASIZE LT PUSH2 0x213 JUMPI PUSH0 CALLDATALOAD PUSH1 0xE0 SHR DUP1 PUSH4 0x75C6A96C GT PUSH2 0x11F JUMPI DUP1 PUSH4 0xA96A6B21 GT PUSH2 0xA9 JUMPI DUP1 PUSH4 0xCCF0C1B5 GT PUSH2 0x79 JUMPI DUP1 PUSH4 0xCCF0C1B5 EQ PUSH2 0x511 JUMPI DUP1 PUSH4 0xEFE2CCC1 EQ PUSH2 0x524 JUMPI DUP1 PUSH4 0xF243CC6A EQ PUSH2 0x545 JUMPI DUP1 PUSH4 0xF7E901D3 EQ PUSH2 0x56C JUMPI DUP1 PUSH4 0xFE0C2A31 EQ PUSH2 0x58C JUMPI PUSH0 DUP1 REVERT JUMPDEST DUP1 PUSH4 0xA96A6B21 EQ PUSH2 0x48B JUMPI DUP1 PUSH4 0xB5F63EC5 EQ PUSH2 0x4AB JUMPI DUP1 PUSH4 0xBB7D6B67 EQ PUSH2 0x4CB JUMPI DUP1 PUSH4 0xBBCAA637 EQ PUSH2 0x4ED JUMPI PUSH0 DUP1 REVERT JUMPDEST DUP1 PUSH4 0x92C2808F GT PUSH2 0xEF JUMPI DUP1 PUSH4 0x92C2808F EQ PUSH2 0x436 JUMPI DUP1 PUSH4 0x92D66313 EQ PUSH2 0x43F JUMPI DUP1 PUSH4 0x996440C6 EQ PUSH2 0x452 JUMPI DUP1 PUSH4 0x9CD3F9A4 EQ PUSH2 0x465 JUMPI DUP1 PUSH4 0xA49B1725 EQ PUSH2 0x478 JUMPI PUSH0 DUP1 REVERT JUMPDEST DUP1 PUSH4 0x75C6A96C EQ PUSH2 0x3C0 JUMPI DUP1 PUSH4 0x87DCD2B6 EQ PUSH2 0x3E5 JUMPI DUP1 PUSH4 0x8F9C79ED EQ PUSH2 0x410 JUMPI DUP1 PUSH4 0x92B3141D EQ PUSH2 0x423 JUMPI PUSH0 DUP1 REVERT JUMPDEST DUP1 PUSH4 0x48E64D80 GT PUSH2 0x1A0 JUMPI DUP1 PUSH4 0x666E1B39 GT PUSH2 0x170 JUMPI DUP1 PUSH4 0x666E1B39 EQ PUSH2 0x343 JUMPI DUP1 PUSH4 0x66ADEC56 EQ PUSH2 0x365 JUMPI DUP1 PUSH4 0x686E1F1B EQ PUSH2 0x378 JUMPI DUP1 PUSH4 0x6E2C0FFE EQ PUSH2 0x38B JUMPI DUP1 PUSH4 0x7065CB48 EQ PUSH2 0x3AD JUMPI PUSH0 DUP1 REVERT JUMPDEST DUP1 PUSH4 0x48E64D80 EQ PUSH2 0x2FE JUMPI DUP1 PUSH4 0x55D2DF12 EQ PUSH2 0x311 JUMPI DUP1 PUSH4 0x64319E33 EQ PUSH2 0x331 JUMPI DUP1 PUSH4 0x65B44D7E EQ PUSH2 0x33A JUMPI PUSH0 DUP1 REVERT JUMPDEST DUP1 PUSH4 0x1A757712 GT PUSH2 0x1E6 JUMPI DUP1 PUSH4 0x1A757712 EQ PUSH2 0x278 JUMPI DUP1 PUSH4 0x1F650CC9 EQ PUSH2 0x28B JUMPI DUP1 PUSH4 0x1F6D15FC EQ PUSH2 0x2B5 JUMPI DUP1 PUSH4 0x2F54BF6E EQ PUSH2 0x2C8 JUMPI DUP1 PUSH4 0x34A9E6EB EQ PUSH2 0x2EB JUMPI PUSH0 DUP1 REVERT JUMPDEST DUP1 PUSH4 0x4028017 EQ PUSH2 0x217 JUMPI DUP1 PUSH4 0xE37008A EQ PUSH2 0x22C JUMPI DUP1 PUSH4 0x163972A3 EQ PUSH2 0x252 JUMPI DUP1 PUSH4 0x173825D9 EQ PUSH2 0x265 JUMPI JUMPDEST PUSH0 DUP1 REVERT JUMPDEST PUSH2 0x22A PUSH2 0x225 CALLDATASIZE PUSH1 0x4 PUSH2 0x4694 JUMP JUMPDEST PUSH2 0x5B6 JUMP JUMPDEST STOP JUMPDEST PUSH2 0x23F PUSH2 0x23A CALLDATASIZE PUSH1 0x4 PUSH2 0x46AD JUMP JUMPDEST PUSH2 0x71F JUMP JUMPDEST PUSH1 0x40 MLOAD SWAP1 DUP2 MSTORE PUSH1 0x20 ADD JUMPDEST PUSH1 0x40 MLOAD DUP1 SWAP2 SUB SWAP1 RETURN JUMPDEST PUSH2 0x22A PUSH2 0x260 CALLDATASIZE PUSH1 0x4 PUSH2 0x4761 JUMP JUMPDEST PUSH2 0x79C JUMP JUMPDEST PUSH2 0x22A PUSH2 0x273 CALLDATASIZE PUSH1 0x4 PUSH2 0x4694 JUMP JUMPDEST PUSH2 0xB94 JUMP JUMPDEST PUSH2 0x22A PUSH2 0x286 CALLDATASIZE PUSH1 0x4 PUSH2 0x48E4 JUMP JUMPDEST PUSH2 0xC0E JUMP JUMPDEST PUSH2 0x29E PUSH2 0x299 CALLDATASIZE PUSH1 0x4 PUSH2 0x4694 JUMP JUMPDEST PUSH2 0xD95 JUMP JUMPDEST PUSH1 0x40 MLOAD PUSH2 0x249 SWAP12 SWAP11 SWAP10 SWAP9 SWAP8 SWAP7 SWAP6 SWAP5 SWAP4 SWAP3 SWAP2 SWAP1 PUSH2 0x49CB JUMP JUMPDEST PUSH2 0x22A PUSH2 0x2C3 CALLDATASIZE PUSH1 0x4 PUSH2 0x4A7B JUMP JUMPDEST PUSH2 0x1119 JUMP JUMPDEST PUSH2 0x2DB PUSH2 0x2D6 CALLDATASIZE PUSH1 0x4 PUSH2 0x4694 JUMP JUMPDEST PUSH2 0x1195 JUMP JUMPDEST PUSH1 0x40 MLOAD SWAP1 ISZERO ISZERO DUP2 MSTORE PUSH1 0x20 ADD PUSH2 0x249 JUMP JUMPDEST PUSH2 0x22A PUSH2 0x2F9 CALLDATASIZE PUSH1 0x4 PUSH2 0x4AF9 JUMP JUMPDEST PUSH2 0x11C2 JUMP JUMPDEST PUSH2 0x22A PUSH2 0x30C CALLDATASIZE PUSH1 0x4 PUSH2 0x4BE0 JUMP JUMPDEST PUSH2 0x1390 JUMP JUMPDEST PUSH2 0x324 PUSH2 0x31F CALLDATASIZE PUSH1 0x4 PUSH2 0x4694 JUMP JUMPDEST PUSH2 0x1529 JUMP JUMPDEST PUSH1 0x40 MLOAD PUSH2 0x249 SWAP2 SWAP1 PUSH2 0x4C7C JUMP JUMPDEST PUSH2 0x23F PUSH1 0xA SLOAD DUP2 JUMP JUMPDEST PUSH2 0x23F PUSH1 0x9 SLOAD DUP2 JUMP JUMPDEST PUSH2 0x2DB PUSH2 0x351 CALLDATASIZE PUSH1 0x4 PUSH2 0x4694 JUMP JUMPDEST PUSH0 PUSH1 0x20 DUP2 SWAP1 MSTORE SWAP1 DUP2 MSTORE PUSH1 0x40 SWAP1 KECCAK256 SLOAD PUSH1 0xFF AND DUP2 JUMP JUMPDEST PUSH2 0x22A PUSH2 0x373 CALLDATASIZE PUSH1 0x4 PUSH2 0x4AF9 JUMP JUMPDEST PUSH2 0x16C4 JUMP JUMPDEST PUSH2 0x22A PUSH2 0x386 CALLDATASIZE PUSH1 0x4 PUSH2 0x4694 JUMP JUMPDEST PUSH2 0x1934 JUMP JUMPDEST PUSH2 0x39E PUSH2 0x399 CALLDATASIZE PUSH1 0x4 PUSH2 0x4D0B JUMP JUMPDEST PUSH2 0x1AD4 JUMP JUMPDEST PUSH1 0x40 MLOAD PUSH2 0x249 SWAP4 SWAP3 SWAP2 SWAP1 PUSH2 0x4D33 JUMP JUMPDEST PUSH2 0x22A PUSH2 0x3BB CALLDATASIZE PUSH1 0x4 PUSH2 0x4694 JUMP JUMPDEST PUSH2 0x1C20 JUMP JUMPDEST PUSH2 0x3D3 PUSH2 0x3CE CALLDATASIZE PUSH1 0x4 PUSH2 0x4694 JUMP JUMPDEST PUSH2 0x1C9D JUMP JUMPDEST PUSH1 0x40 MLOAD PUSH2 0x249 SWAP7 SWAP6 SWAP5 SWAP4 SWAP3 SWAP2 SWAP1 PUSH2 0x4D67 JUMP JUMPDEST PUSH1 0x1 SLOAD PUSH2 0x3F8 SWAP1 PUSH1 0x1 PUSH1 0x1 PUSH1 0xA0 SHL SUB AND DUP2 JUMP JUMPDEST PUSH1 0x40 MLOAD PUSH1 0x1 PUSH1 0x1 PUSH1 0xA0 SHL SUB SWAP1 SWAP2 AND DUP2 MSTORE PUSH1 0x20 ADD PUSH2 0x249 JUMP JUMPDEST PUSH2 0x2DB PUSH2 0x41E CALLDATASIZE PUSH1 0x4 PUSH2 0x4694 JUMP JUMPDEST PUSH2 0x1E71 JUMP JUMPDEST PUSH2 0x22A PUSH2 0x431 CALLDATASIZE PUSH1 0x4 PUSH2 0x4BE0 JUMP JUMPDEST PUSH2 0x1EBE JUMP JUMPDEST PUSH2 0x23F PUSH1 0xB SLOAD DUP2 JUMP JUMPDEST PUSH2 0x23F PUSH2 0x44D CALLDATASIZE PUSH1 0x4 PUSH2 0x46AD JUMP JUMPDEST PUSH2 0x20F2 JUMP JUMPDEST PUSH2 0x2DB PUSH2 0x460 CALLDATASIZE PUSH1 0x4 PUSH2 0x4694 JUMP JUMPDEST PUSH2 0x2101 JUMP JUMPDEST PUSH2 0x22A PUSH2 0x473 CALLDATASIZE PUSH1 0x4 PUSH2 0x4DC7 JUMP JUMPDEST PUSH2 0x2129 JUMP JUMPDEST PUSH2 0x22A PUSH2 0x486 CALLDATASIZE PUSH1 0x4 PUSH2 0x48E4 JUMP JUMPDEST PUSH2 0x23EE JUMP JUMPDEST PUSH2 0x49E PUSH2 0x499 CALLDATASIZE PUSH1 0x4 PUSH2 0x4694 JUMP JUMPDEST PUSH2 0x2600 JUMP JUMPDEST PUSH1 0x40 MLOAD PUSH2 0x249 SWAP2 SWAP1 PUSH2 0x4EF0 JUMP JUMPDEST PUSH2 0x4BE PUSH2 0x4B9 CALLDATASIZE PUSH1 0x4 PUSH2 0x4694 JUMP JUMPDEST PUSH2 0x28E7 JUMP JUMPDEST PUSH1 0x40 MLOAD PUSH2 0x249 SWAP2 SWAP1 PUSH2 0x4F76 JUMP JUMPDEST PUSH2 0x2DB PUSH2 0x4D9 CALLDATASIZE PUSH1 0x4 PUSH2 0x4694 JUMP JUMPDEST PUSH1 0x6 PUSH1 0x20 MSTORE PUSH0 SWAP1 DUP2 MSTORE PUSH1 0x40 SWAP1 KECCAK256 SLOAD PUSH1 0xFF AND DUP2 JUMP JUMPDEST PUSH2 0x500 PUSH2 0x4FB CALLDATASIZE PUSH1 0x4 PUSH2 0x4694 JUMP JUMPDEST PUSH2 0x2F25 JUMP JUMPDEST PUSH1 0x40 MLOAD PUSH2 0x249 SWAP6 SWAP5 SWAP4 SWAP3 SWAP2 SWAP1 PUSH2 0x50DC JUMP JUMPDEST PUSH2 0x22A PUSH2 0x51F CALLDATASIZE PUSH1 0x4 PUSH2 0x4DC7 JUMP JUMPDEST PUSH2 0x30EF JUMP JUMPDEST PUSH2 0x537 PUSH2 0x532 CALLDATASIZE PUSH1 0x4 PUSH2 0x4694 JUMP JUMPDEST PUSH2 0x3310 JUMP JUMPDEST PUSH1 0x40 MLOAD PUSH2 0x249 SWAP3 SWAP2 SWAP1 PUSH2 0x51F2 JUMP JUMPDEST PUSH2 0x558 PUSH2 0x553 CALLDATASIZE PUSH1 0x4 PUSH2 0x4694 JUMP JUMPDEST PUSH2 0x3C08 JUMP JUMPDEST PUSH1 0x40 MLOAD PUSH2 0x249 SWAP9 SWAP8 SWAP7 SWAP6 SWAP5 SWAP4 SWAP3 SWAP2 SWAP1 PUSH2 0x5309 JUMP JUMPDEST PUSH2 0x57F PUSH2 0x57A CALLDATASIZE PUSH1 0x4 PUSH2 0x4694 JUMP JUMPDEST PUSH2 0x3E78 JUMP JUMPDEST PUSH1 0x40 MLOAD PUSH2 0x249 SWAP2 SWAP1 PUSH2 0x538E JUMP JUMPDEST PUSH2 0x59F PUSH2 0x59A CALLDATASIZE PUSH1 0x4 PUSH2 0x4D0B JUMP JUMPDEST PUSH2 0x4146 JUMP JUMPDEST PUSH1 0x40 MLOAD PUSH2 0x249 SWAP12 SWAP11 SWAP10 SWAP9 SWAP8 SWAP7 SWAP6 SWAP5 SWAP4 SWAP3 SWAP2 SWAP1 PUSH2 0x540E JUMP JUMPDEST CALLER PUSH0 SWAP1 DUP2 MSTORE PUSH1 0x20 DUP2 SWAP1 MSTORE PUSH1 0x40 SWAP1 KECCAK256 SLOAD PUSH1 0xFF AND DUP1 PUSH2 0x5DD JUMPI POP PUSH1 0x1 SLOAD PUSH1 0x1 PUSH1 0x1 PUSH1 0xA0 SHL SUB AND CALLER EQ JUMPDEST PUSH2 0x602 JUMPI PUSH1 0x40 MLOAD PUSH3 0x461BCD PUSH1 0xE5 SHL DUP2 MSTORE PUSH1 0x4 ADD PUSH2 0x5F9 SWAP1 PUSH2 0x54F4 JUMP JUMPDEST PUSH1 0x40 MLOAD DUP1 SWAP2 SUB SWAP1 REVERT JUMPDEST CALLER PUSH0 SWAP1 DUP2 MSTORE PUSH1 0x20 DUP2 SWAP1 MSTORE PUSH1 0x40 SWAP1 KECCAK256 DUP1 SLOAD PUSH1 0xFF NOT AND PUSH1 0x1 OR SWAP1 SSTORE PUSH1 0x1 PUSH1 0x1 PUSH1 0xA0 SHL SUB DUP2 AND PUSH2 0x663 JUMPI PUSH1 0x40 MLOAD PUSH3 0x461BCD PUSH1 0xE5 SHL DUP2 MSTORE PUSH1 0x20 PUSH1 0x4 DUP3 ADD MSTORE PUSH1 0xF PUSH1 0x24 DUP3 ADD MSTORE PUSH15 0x496E76616C69642041646472657373 PUSH1 0x88 SHL PUSH1 0x44 DUP3 ADD MSTORE PUSH1 0x64 ADD PUSH2 0x5F9 JUMP JUMPDEST PUSH1 0x1 PUSH1 0x1 PUSH1 0xA0 SHL SUB DUP2 AND PUSH0 SWAP1 DUP2 MSTORE PUSH1 0x6 PUSH1 0x20 MSTORE PUSH1 0x40 SWAP1 KECCAK256 SLOAD PUSH1 0xFF AND PUSH2 0x6FF JUMPI PUSH1 0x40 MLOAD PUSH3 0x461BCD PUSH1 0xE5 SHL DUP2 MSTORE PUSH1 0x20 PUSH1 0x4 DUP3 ADD MSTORE PUSH1 0x46 PUSH1 0x24 DUP3 ADD MSTORE PUSH32 0x50726F76696465642061646472657373206D75737420626520616E2041646D69 PUSH1 0x44 DUP3 ADD MSTORE PUSH32 0x6E4163636573734164647265737320746F2072656D6F76652041646D696E4163 PUSH1 0x64 DUP3 ADD MSTORE PUSH6 0x636573732121 PUSH1 0xD0 SHL PUSH1 0x84 DUP3 ADD MSTORE PUSH1 0xA4 ADD PUSH2 0x5F9 JUMP JUMPDEST PUSH1 0x1 PUSH1 0x1 PUSH1 0xA0 SHL SUB AND PUSH0 SWAP1 DUP2 MSTORE PUSH1 0x6 PUSH1 0x20 MSTORE PUSH1 0x40 SWAP1 KECCAK256 DUP1 SLOAD PUSH1 0xFF NOT AND SWAP1 SSTORE JUMP JUMPDEST PUSH0 DUP1 PUSH2 0x72A TIMESTAMP PUSH2 0x20F2 JUMP JUMPDEST SWAP1 POP PUSH0 DUP4 PUSH2 0x73A DUP4 PUSH2 0x7B2 PUSH2 0x5552 JUMP JUMPDEST PUSH2 0x744 SWAP2 SWAP1 PUSH2 0x5565 JUMP JUMPDEST SWAP1 POP PUSH0 DUP2 GT PUSH2 0x795 JUMPI PUSH1 0x40 MLOAD PUSH3 0x461BCD PUSH1 0xE5 SHL DUP2 MSTORE PUSH1 0x20 PUSH1 0x4 DUP3 ADD MSTORE PUSH1 0x18 PUSH1 0x24 DUP3 ADD MSTORE PUSH32 0x456E74657220636F727265637420626972746820796561720000000000000000 PUSH1 0x44 DUP3 ADD MSTORE PUSH1 0x64 ADD PUSH2 0x5F9 JUMP JUMPDEST SWAP4 SWAP3 POP POP POP JUMP JUMPDEST CALLER PUSH0 SWAP1 DUP2 MSTORE PUSH1 0x6 PUSH1 0x20 MSTORE PUSH1 0x40 DUP2 KECCAK256 SLOAD PUSH1 0xFF AND ISZERO PUSH2 0x7B7 JUMPI POP PUSH1 0x1 JUMPDEST CALLER PUSH0 SWAP1 DUP2 MSTORE PUSH1 0x6 PUSH1 0x20 MSTORE PUSH1 0x40 SWAP1 KECCAK256 SLOAD PUSH1 0xFF AND PUSH2 0x7E5 JUMPI PUSH1 0x40 MLOAD PUSH3 0x461BCD PUSH1 0xE5 SHL DUP2 MSTORE PUSH1 0x4 ADD PUSH2 0x5F9 SWAP1 PUSH2 0x5578 JUMP JUMPDEST PUSH1 0x1 PUSH1 0x1 PUSH1 0xA0 SHL SUB DUP1 DUP12 AND PUSH0 DUP2 DUP2 MSTORE PUSH1 0x2 PUSH1 0x20 DUP2 SWAP1 MSTORE PUSH1 0x40 SWAP1 SWAP2 KECCAK256 ADD SLOAD SWAP1 SWAP2 AND EQ DUP1 ISZERO PUSH2 0x82E JUMPI POP PUSH1 0x1 PUSH1 0x1 PUSH1 0xA0 SHL SUB DUP1 DUP12 AND PUSH0 DUP2 DUP2 MSTORE PUSH1 0x3 PUSH1 0x20 MSTORE PUSH1 0x40 SWAP1 KECCAK256 PUSH1 0x1 ADD SLOAD SWAP1 SWAP2 AND EQ JUMPDEST PUSH2 0x912 JUMPI PUSH1 0x40 MLOAD PUSH3 0x461BCD PUSH1 0xE5 SHL DUP2 MSTORE PUSH1 0x20 PUSH1 0x4 DUP3 ADD MSTORE PUSH1 0x99 PUSH1 0x24 DUP3 ADD MSTORE PUSH32 0x496E636F72726563742050617469656E742077616C6C65742061646472657373 PUSH1 0x44 DUP3 ADD MSTORE PUSH32 0x206F72205468652050617469656E742064657461696C20737065636966696320 PUSH1 0x64 DUP3 ADD MSTORE PUSH32 0x746F20706572736F6E616C206F722070617374206D65646963616C2068697374 PUSH1 0x84 DUP3 ADD MSTORE PUSH32 0x6F7279206F662074686520616464726573732070726F7669646564206E6F7420 PUSH1 0xA4 DUP3 ADD MSTORE PUSH32 0x617661696C61626C6520696E2074686520636861696E21212000000000000000 PUSH1 0xC4 DUP3 ADD MSTORE PUSH1 0xE4 ADD PUSH2 0x5F9 JUMP JUMPDEST PUSH1 0x1 PUSH1 0x1 PUSH1 0xA0 SHL SUB DUP1 DUP11 AND PUSH0 DUP2 DUP2 MSTORE PUSH1 0x7 PUSH1 0x20 MSTORE PUSH1 0x40 SWAP1 KECCAK256 PUSH1 0x1 ADD SLOAD SWAP1 SWAP2 AND EQ PUSH2 0x9E4 JUMPI PUSH1 0x40 MLOAD PUSH3 0x461BCD PUSH1 0xE5 SHL DUP2 MSTORE PUSH1 0x20 PUSH1 0x4 DUP3 ADD MSTORE PUSH1 0x71 PUSH1 0x24 DUP3 ADD MSTORE PUSH32 0x496E636F72726563742050687973696369616E2077616C6C6574206164647265 PUSH1 0x44 DUP3 ADD MSTORE PUSH32 0x7373206F72205468652050687973696369616E2064657461696C20666F722074 PUSH1 0x64 DUP3 ADD MSTORE PUSH32 0x686520616464726573732070726F7669646564206E6F7420617661696C61626C PUSH1 0x84 DUP3 ADD MSTORE PUSH17 0x329034B7103A34329031B430B4B710909 PUSH1 0x7D SHL PUSH1 0xA4 DUP3 ADD MSTORE PUSH1 0xC4 ADD PUSH2 0x5F9 JUMP JUMPDEST PUSH1 0x4 PUSH0 DUP12 PUSH1 0x1 PUSH1 0x1 PUSH1 0xA0 SHL SUB AND PUSH1 0x1 PUSH1 0x1 PUSH1 0xA0 SHL SUB AND DUP2 MSTORE PUSH1 0x20 ADD SWAP1 DUP2 MSTORE PUSH1 0x20 ADD PUSH0 KECCAK256 PUSH1 0x40 MLOAD DUP1 PUSH2 0x160 ADD PUSH1 0x40 MSTORE DUP1 DUP15 DUP2 MSTORE PUSH1 0x20 ADD DUP14 DUP2 MSTORE PUSH1 0x20 ADD DUP13 PUSH1 0x1 PUSH1 0x1 PUSH1 0xA0 SHL SUB AND DUP2 MSTORE PUSH1 0x20 ADD DUP12 PUSH1 0x1 PUSH1 0x1 PUSH1 0xA0 SHL SUB AND DUP2 MSTORE PUSH1 0x20 ADD DUP11 DUP2 MSTORE PUSH1 0x20 ADD DUP10 DUP2 MSTORE PUSH1 0x20 ADD DUP9 DUP2 MSTORE PUSH1 0x20 ADD DUP8 DUP2 MSTORE PUSH1 0x20 ADD DUP7 DUP2 MSTORE PUSH1 0x20 ADD DUP6 DUP2 MSTORE PUSH1 0x20 ADD DUP5 DUP2 MSTORE POP SWAP1 DUP1 PUSH1 0x1 DUP2 SLOAD ADD DUP1 DUP3 SSTORE DUP1 SWAP2 POP POP PUSH1 0x1 SWAP1 SUB SWAP1 PUSH0 MSTORE PUSH1 0x20 PUSH0 KECCAK256 SWAP1 PUSH1 0xB MUL ADD PUSH0 SWAP1 SWAP2 SWAP1 SWAP2 SWAP1 SWAP2 POP PUSH0 DUP3 ADD MLOAD DUP2 PUSH0 ADD SWAP1 DUP2 PUSH2 0xA9E SWAP2 SWAP1 PUSH2 0x5666 JUMP JUMPDEST POP PUSH1 0x20 DUP3 ADD MLOAD PUSH1 0x1 DUP3 ADD SWAP1 PUSH2 0xAB3 SWAP1 DUP3 PUSH2 0x5666 JUMP JUMPDEST POP PUSH1 0x40 DUP3 ADD MLOAD PUSH1 0x2 DUP3 ADD DUP1 SLOAD PUSH1 0x1 PUSH1 0x1 PUSH1 0xA0 SHL SUB SWAP3 DUP4 AND PUSH1 0x1 PUSH1 0x1 PUSH1 0xA0 SHL SUB NOT SWAP2 DUP3 AND OR SWAP1 SWAP2 SSTORE PUSH1 0x60 DUP5 ADD MLOAD PUSH1 0x3 DUP5 ADD DUP1 SLOAD SWAP2 SWAP1 SWAP4 AND SWAP2 AND OR SWAP1 SSTORE PUSH1 0x80 DUP3 ADD MLOAD PUSH1 0x4 DUP3 ADD SWAP1 PUSH2 0xB02 SWAP1 DUP3 PUSH2 0x5666 JUMP JUMPDEST POP PUSH1 0xA0 DUP3 ADD MLOAD PUSH1 0x5 DUP3 ADD SWAP1 PUSH2 0xB17 SWAP1 DUP3 PUSH2 0x5666 JUMP JUMPDEST POP PUSH1 0xC0 DUP3 ADD MLOAD PUSH1 0x6 DUP3 ADD SWAP1 PUSH2 0xB2C SWAP1 DUP3 PUSH2 0x5666 JUMP JUMPDEST POP PUSH1 0xE0 DUP3 ADD MLOAD PUSH1 0x7 DUP3 ADD SWAP1 PUSH2 0xB41 SWAP1 DUP3 PUSH2 0x5666 JUMP JUMPDEST POP PUSH2 0x100 DUP3 ADD MLOAD PUSH1 0x8 DUP3 ADD SWAP1 PUSH2 0xB57 SWAP1 DUP3 PUSH2 0x5666 JUMP JUMPDEST POP PUSH2 0x120 DUP3 ADD MLOAD PUSH1 0x9 DUP3 ADD SWAP1 PUSH2 0xB6D SWAP1 DUP3 PUSH2 0x5666 JUMP JUMPDEST POP PUSH2 0x140 DUP3 ADD MLOAD PUSH1 0xA DUP3 ADD SWAP1 PUSH2 0xB83 SWAP1 DUP3 PUSH2 0x5666 JUMP JUMPDEST POP POP POP POP POP POP POP POP POP POP POP POP POP POP POP JUMP JUMPDEST PUSH1 0x1 SLOAD PUSH1 0x1 PUSH1 0x1 PUSH1 0xA0 SHL SUB AND CALLER EQ PUSH2 0xBEE JUMPI PUSH1 0x40 MLOAD PUSH3 0x461BCD PUSH1 0xE5 SHL DUP2 MSTORE PUSH1 0x20 PUSH1 0x4 DUP3 ADD MSTORE PUSH1 0x1F PUSH1 0x24 DUP3 ADD MSTORE PUSH32 0x41636365737365626C65206F6E6C7920666F722053757065724F776E65727300 PUSH1 0x44 DUP3 ADD MSTORE PUSH1 0x64 ADD PUSH2 0x5F9 JUMP JUMPDEST PUSH1 0x1 PUSH1 0x1 PUSH1 0xA0 SHL SUB AND PUSH0 SWAP1 DUP2 MSTORE PUSH1 0x20 DUP2 SWAP1 MSTORE PUSH1 0x40 SWAP1 KECCAK256 DUP1 SLOAD PUSH1 0xFF NOT AND SWAP1 SSTORE JUMP JUMPDEST CALLER PUSH0 SWAP1 DUP2 MSTORE PUSH1 0x20 DUP2 SWAP1 MSTORE PUSH1 0x40 SWAP1 KECCAK256 SLOAD PUSH1 0xFF AND DUP1 PUSH2 0xC35 JUMPI POP PUSH1 0x1 SLOAD PUSH1 0x1 PUSH1 0x1 PUSH1 0xA0 SHL SUB AND CALLER EQ JUMPDEST PUSH2 0xC51 JUMPI PUSH1 0x40 MLOAD PUSH3 0x461BCD PUSH1 0xE5 SHL DUP2 MSTORE PUSH1 0x4 ADD PUSH2 0x5F9 SWAP1 PUSH2 0x54F4 JUMP JUMPDEST PUSH1 0x1 PUSH1 0x1 PUSH1 0xA0 SHL SUB DUP6 AND ISZERO DUP1 ISZERO SWAP1 PUSH2 0xC69 JUMPI POP PUSH0 DUP2 MLOAD GT JUMPDEST DUP1 ISZERO PUSH2 0xC75 JUMPI POP PUSH0 DUP7 MLOAD GT JUMPDEST PUSH2 0xC91 JUMPI PUSH1 0x40 MLOAD PUSH3 0x461BCD PUSH1 0xE5 SHL DUP2 MSTORE PUSH1 0x4 ADD PUSH2 0x5F9 SWAP1 PUSH2 0x5722 JUMP JUMPDEST PUSH1 0x1 PUSH1 0x1 PUSH1 0xA0 SHL SUB DUP1 DUP7 AND PUSH0 DUP2 DUP2 MSTORE PUSH1 0x7 PUSH1 0x20 MSTORE PUSH1 0x40 SWAP1 KECCAK256 PUSH1 0x1 ADD SLOAD SWAP1 SWAP2 AND EQ PUSH2 0xCCD JUMPI PUSH1 0x40 MLOAD PUSH3 0x461BCD PUSH1 0xE5 SHL DUP2 MSTORE PUSH1 0x4 ADD PUSH2 0x5F9 SWAP1 PUSH2 0x5771 JUMP JUMPDEST PUSH1 0x40 DUP1 MLOAD PUSH1 0xC0 DUP2 ADD DUP3 MSTORE DUP8 DUP2 MSTORE PUSH1 0x1 PUSH1 0x1 PUSH1 0xA0 SHL SUB DUP8 AND PUSH1 0x20 DUP1 DUP4 ADD DUP3 SWAP1 MSTORE DUP3 DUP5 ADD DUP9 SWAP1 MSTORE PUSH1 0x60 DUP4 ADD DUP8 SWAP1 MSTORE PUSH1 0x80 DUP4 ADD DUP7 SWAP1 MSTORE PUSH1 0xA0 DUP4 ADD DUP6 SWAP1 MSTORE PUSH0 SWAP2 DUP3 MSTORE PUSH1 0x7 SWAP1 MSTORE SWAP2 SWAP1 SWAP2 KECCAK256 DUP2 MLOAD DUP6 SWAP3 SWAP2 SWAP1 DUP2 SWAP1 PUSH2 0xD25 SWAP1 DUP3 PUSH2 0x5666 JUMP JUMPDEST POP PUSH1 0x20 DUP3 ADD MLOAD PUSH1 0x1 DUP3 ADD DUP1 SLOAD PUSH1 0x1 PUSH1 0x1 PUSH1 0xA0 SHL SUB NOT AND PUSH1 0x1 PUSH1 0x1 PUSH1 0xA0 SHL SUB SWAP1 SWAP3 AND SWAP2 SWAP1 SWAP2 OR SWAP1 SSTORE PUSH1 0x40 DUP3 ADD MLOAD PUSH1 0x2 DUP3 ADD SWAP1 PUSH2 0xD60 SWAP1 DUP3 PUSH2 0x5666 JUMP JUMPDEST POP PUSH1 0x60 DUP3 ADD MLOAD PUSH1 0x3 DUP3 ADD SSTORE PUSH1 0x80 DUP3 ADD MLOAD PUSH1 0x4 DUP3 ADD SSTORE PUSH1 0xA0 DUP3 ADD MLOAD PUSH1 0x5 DUP3 ADD SWAP1 PUSH2 0xD89 SWAP1 DUP3 PUSH2 0x5666 JUMP JUMPDEST POP POP POP POP POP POP POP POP POP POP JUMP JUMPDEST PUSH1 0x2 PUSH1 0x20 MSTORE PUSH0 SWAP1 DUP2 MSTORE PUSH1 0x40 SWAP1 KECCAK256 DUP1 SLOAD DUP2 SWAP1 PUSH2 0xDAF SWAP1 PUSH2 0x55E0 JUMP JUMPDEST DUP1 PUSH1 0x1F ADD PUSH1 0x20 DUP1 SWAP2 DIV MUL PUSH1 0x20 ADD PUSH1 0x40 MLOAD SWAP1 DUP2 ADD PUSH1 0x40 MSTORE DUP1 SWAP3 SWAP2 SWAP1 DUP2 DUP2 MSTORE PUSH1 0x20 ADD DUP3 DUP1 SLOAD PUSH2 0xDDB SWAP1 PUSH2 0x55E0 JUMP JUMPDEST DUP1 ISZERO PUSH2 0xE26 JUMPI DUP1 PUSH1 0x1F LT PUSH2 0xDFD JUMPI PUSH2 0x100 DUP1 DUP4 SLOAD DIV MUL DUP4 MSTORE SWAP2 PUSH1 0x20 ADD SWAP2 PUSH2 0xE26 JUMP JUMPDEST DUP3 ADD SWAP2 SWAP1 PUSH0 MSTORE PUSH1 0x20 PUSH0 KECCAK256 SWAP1 JUMPDEST DUP2 SLOAD DUP2 MSTORE SWAP1 PUSH1 0x1 ADD SWAP1 PUSH1 0x20 ADD DUP1 DUP4 GT PUSH2 0xE09 JUMPI DUP3 SWAP1 SUB PUSH1 0x1F AND DUP3 ADD SWAP2 JUMPDEST POP POP POP POP POP SWAP1 DUP1 PUSH1 0x1 ADD DUP1 SLOAD PUSH2 0xE3B SWAP1 PUSH2 0x55E0 JUMP JUMPDEST DUP1 PUSH1 0x1F ADD PUSH1 0x20 DUP1 SWAP2 DIV MUL PUSH1 0x20 ADD PUSH1 0x40 MLOAD SWAP1 DUP2 ADD PUSH1 0x40 MSTORE DUP1 SWAP3 SWAP2 SWAP1 DUP2 DUP2 MSTORE PUSH1 0x20 ADD DUP3 DUP1 SLOAD PUSH2 0xE67 SWAP1 PUSH2 0x55E0 JUMP JUMPDEST DUP1 ISZERO PUSH2 0xEB2 JUMPI DUP1 PUSH1 0x1F LT PUSH2 0xE89 JUMPI PUSH2 0x100 DUP1 DUP4 SLOAD DIV MUL DUP4 MSTORE SWAP2 PUSH1 0x20 ADD SWAP2 PUSH2 0xEB2 JUMP JUMPDEST DUP3 ADD SWAP2 SWAP1 PUSH0 MSTORE PUSH1 0x20 PUSH0 KECCAK256 SWAP1 JUMPDEST DUP2 SLOAD DUP2 MSTORE SWAP1 PUSH1 0x1 ADD SWAP1 PUSH1 0x20 ADD DUP1 DUP4 GT PUSH2 0xE95 JUMPI DUP3 SWAP1 SUB PUSH1 0x1F AND DUP3 ADD SWAP2 JUMPDEST POP POP POP PUSH1 0x2 DUP5 ADD SLOAD PUSH1 0x3 DUP6 ADD DUP1 SLOAD SWAP5 SWAP6 PUSH1 0x1 PUSH1 0x1 PUSH1 0xA0 SHL SUB SWAP1 SWAP3 AND SWAP5 SWAP2 SWAP4 POP SWAP2 POP PUSH2 0xEDC SWAP1 PUSH2 0x55E0 JUMP JUMPDEST DUP1 PUSH1 0x1F ADD PUSH1 0x20 DUP1 SWAP2 DIV MUL PUSH1 0x20 ADD PUSH1 0x40 MLOAD SWAP1 DUP2 ADD PUSH1 0x40 MSTORE DUP1 SWAP3 SWAP2 SWAP1 DUP2 DUP2 MSTORE PUSH1 0x20 ADD DUP3 DUP1 SLOAD PUSH2 0xF08 SWAP1 PUSH2 0x55E0 JUMP JUMPDEST DUP1 ISZERO PUSH2 0xF53 JUMPI DUP1 PUSH1 0x1F LT PUSH2 0xF2A JUMPI PUSH2 0x100 DUP1 DUP4 SLOAD DIV MUL DUP4 MSTORE SWAP2 PUSH1 0x20 ADD SWAP2 PUSH2 0xF53 JUMP JUMPDEST DUP3 ADD SWAP2 SWAP1 PUSH0 MSTORE PUSH1 0x20 PUSH0 KECCAK256 SWAP1 JUMPDEST DUP2 SLOAD DUP2 MSTORE SWAP1 PUSH1 0x1 ADD SWAP1 PUSH1 0x20 ADD DUP1 DUP4 GT PUSH2 0xF36 JUMPI DUP3 SWAP1 SUB PUSH1 0x1F AND DUP3 ADD SWAP2 JUMPDEST POP POP POP POP POP SWAP1 DUP1 PUSH1 0x4 ADD DUP1 SLOAD PUSH2 0xF68 SWAP1 PUSH2 0x55E0 JUMP JUMPDEST DUP1 PUSH1 0x1F ADD PUSH1 0x20 DUP1 SWAP2 DIV MUL PUSH1 0x20 ADD PUSH1 0x40 MLOAD SWAP1 DUP2 ADD PUSH1 0x40 MSTORE DUP1 SWAP3 SWAP2 SWAP1 DUP2 DUP2 MSTORE PUSH1 0x20 ADD DUP3 DUP1 SLOAD PUSH2 0xF94 SWAP1 PUSH2 0x55E0 JUMP JUMPDEST DUP1 ISZERO PUSH2 0xFDF JUMPI DUP1 PUSH1 0x1F LT PUSH2 0xFB6 JUMPI PUSH2 0x100 DUP1 DUP4 SLOAD DIV MUL DUP4 MSTORE SWAP2 PUSH1 0x20 ADD SWAP2 PUSH2 0xFDF JUMP JUMPDEST DUP3 ADD SWAP2 SWAP1 PUSH0 MSTORE PUSH1 0x20 PUSH0 KECCAK256 SWAP1 JUMPDEST DUP2 SLOAD DUP2 MSTORE SWAP1 PUSH1 0x1 ADD SWAP1 PUSH1 0x20 ADD DUP1 DUP4 GT PUSH2 0xFC2 JUMPI DUP3 SWAP1 SUB PUSH1 0x1F AND DUP3 ADD SWAP2 JUMPDEST POP POP POP POP POP SWAP1 DUP1 PUSH1 0x5 ADD DUP1 SLOAD PUSH2 0xFF4 SWAP1 PUSH2 0x55E0 JUMP JUMPDEST DUP1 PUSH1 0x1F ADD PUSH1 0x20 DUP1 SWAP2 DIV MUL PUSH1 0x20 ADD PUSH1 0x40 MLOAD SWAP1 DUP2 ADD PUSH1 0x40 MSTORE DUP1 SWAP3 SWAP2 SWAP1 DUP2 DUP2 MSTORE PUSH1 0x20 ADD DUP3 DUP1 SLOAD PUSH2 0x1020 SWAP1 PUSH2 0x55E0 JUMP JUMPDEST DUP1 ISZERO PUSH2 0x106B JUMPI DUP1 PUSH1 0x1F LT PUSH2 0x1042 JUMPI PUSH2 0x100 DUP1 DUP4 SLOAD DIV MUL DUP4 MSTORE SWAP2 PUSH1 0x20 ADD SWAP2 PUSH2 0x106B JUMP JUMPDEST DUP3 ADD SWAP2 SWAP1 PUSH0 MSTORE PUSH1 0x20 PUSH0 KECCAK256 SWAP1 JUMPDEST DUP2 SLOAD DUP2 MSTORE SWAP1 PUSH1 0x1 ADD SWAP1 PUSH1 0x20 ADD DUP1 DUP4 GT PUSH2 0x104E JUMPI DUP3 SWAP1 SUB PUSH1 0x1F AND DUP3 ADD SWAP2 JUMPDEST POP POP POP POP POP SWAP1 DUP1 PUSH1 0x6 ADD SLOAD SWAP1 DUP1 PUSH1 0x7 ADD SLOAD SWAP1 DUP1 PUSH1 0x8 ADD DUP1 SLOAD PUSH2 0x108C SWAP1 PUSH2 0x55E0 JUMP JUMPDEST DUP1 PUSH1 0x1F ADD PUSH1 0x20 DUP1 SWAP2 DIV MUL PUSH1 0x20 ADD PUSH1 0x40 MLOAD SWAP1 DUP2 ADD PUSH1 0x40 MSTORE DUP1 SWAP3 SWAP2 SWAP1 DUP2 DUP2 MSTORE PUSH1 0x20 ADD DUP3 DUP1 SLOAD PUSH2 0x10B8 SWAP1 PUSH2 0x55E0 JUMP JUMPDEST DUP1 ISZERO PUSH2 0x1103 JUMPI DUP1 PUSH1 0x1F LT PUSH2 0x10DA JUMPI PUSH2 0x100 DUP1 DUP4 SLOAD DIV MUL DUP4 MSTORE SWAP2 PUSH1 0x20 ADD SWAP2 PUSH2 0x1103 JUMP JUMPDEST DUP3 ADD SWAP2 SWAP1 PUSH0 MSTORE PUSH1 0x20 PUSH0 KECCAK256 SWAP1 JUMPDEST DUP2 SLOAD DUP2 MSTORE SWAP1 PUSH1 0x1 ADD SWAP1 PUSH1 0x20 ADD DUP1 DUP4 GT PUSH2 0x10E6 JUMPI DUP3 SWAP1 SUB PUSH1 0x1F AND DUP3 ADD SWAP2 JUMPDEST POP POP POP POP POP SWAP1 DUP1 PUSH1 0x9 ADD SLOAD SWAP1 DUP1 PUSH1 0xA ADD SLOAD SWAP1 POP DUP12 JUMP JUMPDEST PUSH1 0x40 DUP1 MLOAD PUSH1 0x60 DUP2 ADD DUP3 MSTORE TIMESTAMP DUP2 MSTORE PUSH1 0x20 DUP1 DUP3 ADD DUP7 DUP2 MSTORE DUP3 DUP5 ADD DUP6 SWAP1 MSTORE PUSH1 0x1 PUSH1 0x1 PUSH1 0xA0 SHL SUB DUP7 AND PUSH0 SWAP1 DUP2 MSTORE PUSH1 0x5 DUP4 MSTORE SWAP4 DUP5 KECCAK256 DUP1 SLOAD PUSH1 0x1 DUP2 DUP2 ADD DUP4 SSTORE SWAP2 DUP7 MSTORE SWAP3 SWAP1 SWAP5 KECCAK256 DUP4 MLOAD PUSH1 0x3 SWAP1 SWAP4 MUL ADD SWAP2 DUP3 SSTORE MLOAD SWAP2 SWAP3 DUP4 SWAP3 SWAP1 DUP3 ADD SWAP1 PUSH2 0x1177 SWAP1 DUP3 PUSH2 0x5666 JUMP JUMPDEST POP PUSH1 0x40 DUP3 ADD MLOAD PUSH1 0x2 DUP3 ADD SWAP1 PUSH2 0x118C SWAP1 DUP3 PUSH2 0x5666 JUMP JUMPDEST POP POP POP POP POP POP POP JUMP JUMPDEST PUSH1 0x1 PUSH1 0x1 PUSH1 0xA0 SHL SUB DUP2 AND PUSH0 SWAP1 DUP2 MSTORE PUSH1 0x20 DUP2 SWAP1 MSTORE PUSH1 0x40 DUP2 KECCAK256 SLOAD PUSH1 0xFF AND ISZERO PUSH2 0x11BD JUMPI POP PUSH1 0x1 SWAP2 SWAP1 POP JUMP JUMPDEST SWAP2 SWAP1 POP JUMP JUMPDEST CALLER PUSH0 SWAP1 DUP2 MSTORE PUSH1 0x6 PUSH1 0x20 MSTORE PUSH1 0x40 DUP2 KECCAK256 SLOAD PUSH1 0xFF AND ISZERO PUSH2 0x11DD JUMPI POP PUSH1 0x1 JUMPDEST CALLER PUSH0 SWAP1 DUP2 MSTORE PUSH1 0x6 PUSH1 0x20 MSTORE PUSH1 0x40 SWAP1 KECCAK256 SLOAD PUSH1 0xFF AND PUSH2 0x120B JUMPI PUSH1 0x40 MLOAD PUSH3 0x461BCD PUSH1 0xE5 SHL DUP2 MSTORE PUSH1 0x4 ADD PUSH2 0x5F9 SWAP1 PUSH2 0x5578 JUMP JUMPDEST PUSH1 0x1 PUSH1 0x1 PUSH1 0xA0 SHL SUB DUP9 AND PUSH2 0x1231 JUMPI PUSH1 0x40 MLOAD PUSH3 0x461BCD PUSH1 0xE5 SHL DUP2 MSTORE PUSH1 0x4 ADD PUSH2 0x5F9 SWAP1 PUSH2 0x5809 JUMP JUMPDEST PUSH1 0x1 PUSH1 0x1 PUSH1 0xA0 SHL SUB DUP1 DUP10 AND PUSH0 DUP2 DUP2 MSTORE PUSH1 0x2 PUSH1 0x20 DUP2 SWAP1 MSTORE PUSH1 0x40 SWAP1 SWAP2 KECCAK256 ADD SLOAD SWAP1 SWAP2 AND EQ PUSH2 0x126E JUMPI PUSH1 0x40 MLOAD PUSH3 0x461BCD PUSH1 0xE5 SHL DUP2 MSTORE PUSH1 0x4 ADD PUSH2 0x5F9 SWAP1 PUSH2 0x584F JUMP JUMPDEST PUSH1 0x40 DUP1 MLOAD PUSH2 0x100 DUP2 ADD DUP3 MSTORE DUP11 DUP2 MSTORE PUSH1 0x1 PUSH1 0x1 PUSH1 0xA0 SHL SUB DUP11 AND PUSH1 0x20 DUP1 DUP4 ADD DUP3 SWAP1 MSTORE DUP11 ISZERO ISZERO DUP4 DUP6 ADD MSTORE DUP10 ISZERO ISZERO PUSH1 0x60 DUP5 ADD MSTORE DUP9 ISZERO ISZERO PUSH1 0x80 DUP5 ADD MSTORE PUSH1 0xA0 DUP4 ADD DUP9 SWAP1 MSTORE PUSH1 0xC0 DUP4 ADD DUP8 SWAP1 MSTORE PUSH1 0xE0 DUP4 ADD DUP7 SWAP1 MSTORE PUSH0 SWAP2 DUP3 MSTORE PUSH1 0x3 SWAP1 MSTORE SWAP2 SWAP1 SWAP2 KECCAK256 DUP2 MLOAD DUP2 SWAP1 PUSH2 0x12D4 SWAP1 DUP3 PUSH2 0x5666 JUMP JUMPDEST POP PUSH1 0x20 DUP3 ADD MLOAD PUSH1 0x1 DUP3 ADD DUP1 SLOAD PUSH1 0x40 DUP6 ADD MLOAD PUSH1 0x60 DUP7 ADD MLOAD PUSH1 0x80 DUP8 ADD MLOAD ISZERO ISZERO PUSH1 0x1 PUSH1 0xB0 SHL MUL PUSH1 0xFF PUSH1 0xB0 SHL NOT SWAP2 ISZERO ISZERO PUSH1 0x1 PUSH1 0xA8 SHL MUL SWAP2 SWAP1 SWAP2 AND PUSH2 0xFFFF PUSH1 0xA8 SHL NOT SWAP3 ISZERO ISZERO PUSH1 0x1 PUSH1 0xA0 SHL MUL PUSH1 0x1 PUSH1 0x1 PUSH1 0xA8 SHL SUB NOT SWAP1 SWAP5 AND PUSH1 0x1 PUSH1 0x1 PUSH1 0xA0 SHL SUB SWAP1 SWAP7 AND SWAP6 SWAP1 SWAP6 OR SWAP3 SWAP1 SWAP3 OR AND SWAP3 SWAP1 SWAP3 OR SWAP2 SWAP1 SWAP2 OR SWAP1 SSTORE PUSH1 0xA0 DUP3 ADD MLOAD PUSH1 0x2 DUP3 ADD SWAP1 PUSH2 0x1358 SWAP1 DUP3 PUSH2 0x5666 JUMP JUMPDEST POP PUSH1 0xC0 DUP3 ADD MLOAD PUSH1 0x3 DUP3 ADD SWAP1 PUSH2 0x136D SWAP1 DUP3 PUSH2 0x5666 JUMP JUMPDEST POP PUSH1 0xE0 DUP3 ADD MLOAD PUSH1 0x4 DUP3 ADD SWAP1 PUSH2 0x1382 SWAP1 DUP3 PUSH2 0x5666 JUMP JUMPDEST POP POP POP POP POP POP POP POP POP POP POP POP JUMP JUMPDEST CALLER PUSH0 SWAP1 DUP2 MSTORE PUSH1 0x20 DUP2 SWAP1 MSTORE PUSH1 0x40 SWAP1 KECCAK256 SLOAD PUSH1 0xFF AND DUP1 PUSH2 0x13B7 JUMPI POP PUSH1 0x1 SLOAD PUSH1 0x1 PUSH1 0x1 PUSH1 0xA0 SHL SUB AND CALLER EQ JUMPDEST PUSH2 0x13D3 JUMPI PUSH1 0x40 MLOAD PUSH3 0x461BCD PUSH1 0xE5 SHL DUP2 MSTORE PUSH1 0x4 ADD PUSH2 0x5F9 SWAP1 PUSH2 0x54F4 JUMP JUMPDEST PUSH1 0x1 PUSH1 0x1 PUSH1 0xA0 SHL SUB DUP6 AND ISZERO DUP1 ISZERO SWAP1 PUSH2 0x13EB JUMPI POP PUSH0 DUP2 MLOAD GT JUMPDEST DUP1 ISZERO PUSH2 0x13F7 JUMPI POP PUSH0 DUP5 MLOAD GT JUMPDEST DUP1 ISZERO PUSH2 0x1403 JUMPI POP PUSH0 DUP4 MLOAD GT JUMPDEST PUSH2 0x1447 JUMPI PUSH1 0x40 MLOAD PUSH3 0x461BCD PUSH1 0xE5 SHL DUP2 MSTORE PUSH1 0x20 PUSH1 0x4 DUP3 ADD MSTORE PUSH1 0x15 PUSH1 0x24 DUP3 ADD MSTORE PUSH21 0x656E74657220636F72726563742064657461696C73 PUSH1 0x58 SHL PUSH1 0x44 DUP3 ADD MSTORE PUSH1 0x64 ADD PUSH2 0x5F9 JUMP JUMPDEST PUSH1 0x1 PUSH1 0x1 PUSH1 0xA0 SHL SUB DUP1 DUP7 AND PUSH0 DUP2 DUP2 MSTORE PUSH1 0x8 PUSH1 0x20 MSTORE PUSH1 0x40 SWAP1 KECCAK256 SLOAD SWAP1 SWAP2 AND EQ PUSH2 0x1480 JUMPI PUSH1 0x40 MLOAD PUSH3 0x461BCD PUSH1 0xE5 SHL DUP2 MSTORE PUSH1 0x4 ADD PUSH2 0x5F9 SWAP1 PUSH2 0x5771 JUMP JUMPDEST PUSH1 0x40 DUP1 MLOAD PUSH1 0xA0 DUP2 ADD DUP3 MSTORE PUSH1 0x1 PUSH1 0x1 PUSH1 0xA0 SHL SUB DUP8 DUP2 AND DUP1 DUP4 MSTORE PUSH1 0x20 DUP1 DUP5 ADD DUP7 DUP2 MSTORE DUP5 DUP7 ADD DUP11 SWAP1 MSTORE PUSH1 0x60 DUP6 ADD DUP10 SWAP1 MSTORE PUSH1 0x80 DUP6 ADD DUP9 SWAP1 MSTORE PUSH0 SWAP3 DUP4 MSTORE PUSH1 0x8 SWAP1 SWAP2 MSTORE SWAP4 SWAP1 KECCAK256 DUP3 MLOAD DUP2 SLOAD PUSH1 0x1 PUSH1 0x1 PUSH1 0xA0 SHL SUB NOT AND SWAP3 AND SWAP2 SWAP1 SWAP2 OR DUP2 SSTORE SWAP2 MLOAD SWAP1 SWAP2 SWAP1 PUSH1 0x1 DUP3 ADD SWAP1 PUSH2 0x14EA SWAP1 DUP3 PUSH2 0x5666 JUMP JUMPDEST POP PUSH1 0x40 DUP3 ADD MLOAD PUSH1 0x2 DUP3 ADD SWAP1 PUSH2 0x14FF SWAP1 DUP3 PUSH2 0x5666 JUMP JUMPDEST POP PUSH1 0x60 DUP3 ADD MLOAD PUSH1 0x3 DUP3 ADD SWAP1 PUSH2 0x1514 SWAP1 DUP3 PUSH2 0x5666 JUMP JUMPDEST POP PUSH1 0x80 DUP3 ADD MLOAD DUP2 PUSH1 0x4 ADD SSTORE SWAP1 POP POP POP POP POP POP POP JUMP JUMPDEST PUSH1 0x1 PUSH1 0x1 PUSH1 0xA0 SHL SUB DUP2 AND PUSH0 SWAP1 DUP2 MSTORE PUSH1 0x5 PUSH1 0x20 SWAP1 DUP2 MSTORE PUSH1 0x40 DUP1 DUP4 KECCAK256 DUP1 SLOAD DUP3 MLOAD DUP2 DUP6 MUL DUP2 ADD DUP6 ADD SWAP1 SWAP4 MSTORE DUP1 DUP4 MSTORE PUSH1 0x60 SWAP5 SWAP3 SWAP4 SWAP2 SWAP3 SWAP1 SWAP2 DUP5 ADD JUMPDEST DUP3 DUP3 LT ISZERO PUSH2 0x16B9 JUMPI DUP4 DUP3 SWAP1 PUSH0 MSTORE PUSH1 0x20 PUSH0 KECCAK256 SWAP1 PUSH1 0x3 MUL ADD PUSH1 0x40 MLOAD DUP1 PUSH1 0x60 ADD PUSH1 0x40 MSTORE SWAP1 DUP2 PUSH0 DUP3 ADD SLOAD DUP2 MSTORE PUSH1 0x20 ADD PUSH1 0x1 DUP3 ADD DUP1 SLOAD PUSH2 0x159A SWAP1 PUSH2 0x55E0 JUMP JUMPDEST DUP1 PUSH1 0x1F ADD PUSH1 0x20 DUP1 SWAP2 DIV MUL PUSH1 0x20 ADD PUSH1 0x40 MLOAD SWAP1 DUP2 ADD PUSH1 0x40 MSTORE DUP1 SWAP3 SWAP2 SWAP1 DUP2 DUP2 MSTORE PUSH1 0x20 ADD DUP3 DUP1 SLOAD PUSH2 0x15C6 SWAP1 PUSH2 0x55E0 JUMP JUMPDEST DUP1 ISZERO PUSH2 0x1611 JUMPI DUP1 PUSH1 0x1F LT PUSH2 0x15E8 JUMPI PUSH2 0x100 DUP1 DUP4 SLOAD DIV MUL DUP4 MSTORE SWAP2 PUSH1 0x20 ADD SWAP2 PUSH2 0x1611 JUMP JUMPDEST DUP3 ADD SWAP2 SWAP1 PUSH0 MSTORE PUSH1 0x20 PUSH0 KECCAK256 SWAP1 JUMPDEST DUP2 SLOAD DUP2 MSTORE SWAP1 PUSH1 0x1 ADD SWAP1 PUSH1 0x20 ADD DUP1 DUP4 GT PUSH2 0x15F4 JUMPI DUP3 SWAP1 SUB PUSH1 0x1F AND DUP3 ADD SWAP2 JUMPDEST POP POP POP POP POP DUP2 MSTORE PUSH1 0x20 ADD PUSH1 0x2 DUP3 ADD DUP1 SLOAD PUSH2 0x162A SWAP1 PUSH2 0x55E0 JUMP JUMPDEST DUP1 PUSH1 0x1F ADD PUSH1 0x20 DUP1 SWAP2 DIV MUL PUSH1 0x20 ADD PUSH1 0x40 MLOAD SWAP1 DUP2 ADD PUSH1 0x40 MSTORE DUP1 SWAP3 SWAP2 SWAP1 DUP2 DUP2 MSTORE PUSH1 0x20 ADD DUP3 DUP1 SLOAD PUSH2 0x1656 SWAP1 PUSH2 0x55E0 JUMP JUMPDEST DUP1 ISZERO PUSH2 0x16A1 JUMPI DUP1 PUSH1 0x1F LT PUSH2 0x1678 JUMPI PUSH2 0x100 DUP1 DUP4 SLOAD DIV MUL DUP4 MSTORE SWAP2 PUSH1 0x20 ADD SWAP2 PUSH2 0x16A1 JUMP JUMPDEST DUP3 ADD SWAP2 SWAP1 PUSH0 MSTORE PUSH1 0x20 PUSH0 KECCAK256 SWAP1 JUMPDEST DUP2 SLOAD DUP2 MSTORE SWAP1 PUSH1 0x1 ADD SWAP1 PUSH1 0x20 ADD DUP1 DUP4 GT PUSH2 0x1684 JUMPI DUP3 SWAP1 SUB PUSH1 0x1F AND DUP3 ADD SWAP2 JUMPDEST POP POP POP POP POP DUP2 MSTORE POP POP DUP2 MSTORE PUSH1 0x20 ADD SWAP1 PUSH1 0x1 ADD SWAP1 PUSH2 0x1560 JUMP JUMPDEST POP POP POP POP SWAP1 POP SWAP2 SWAP1 POP JUMP JUMPDEST CALLER PUSH0 SWAP1 DUP2 MSTORE PUSH1 0x6 PUSH1 0x20 MSTORE PUSH1 0x40 DUP2 KECCAK256 SLOAD PUSH1 0xFF AND ISZERO PUSH2 0x16DF JUMPI POP PUSH1 0x1 JUMPDEST CALLER PUSH0 SWAP1 DUP2 MSTORE PUSH1 0x6 PUSH1 0x20 MSTORE PUSH1 0x40 SWAP1 KECCAK256 SLOAD PUSH1 0xFF AND PUSH2 0x170D JUMPI PUSH1 0x40 MLOAD PUSH3 0x461BCD PUSH1 0xE5 SHL DUP2 MSTORE PUSH1 0x4 ADD PUSH2 0x5F9 SWAP1 PUSH2 0x5578 JUMP JUMPDEST PUSH1 0x1 PUSH1 0x1 PUSH1 0xA0 SHL SUB DUP1 DUP10 AND PUSH0 DUP2 DUP2 MSTORE PUSH1 0x3 PUSH1 0x20 MSTORE PUSH1 0x40 SWAP1 KECCAK256 PUSH1 0x1 ADD SLOAD SWAP1 SWAP2 AND SUB PUSH2 0x17B2 JUMPI PUSH1 0x40 MLOAD PUSH3 0x461BCD PUSH1 0xE5 SHL DUP2 MSTORE PUSH1 0x20 PUSH1 0x4 DUP3 ADD MSTORE PUSH1 0x4A PUSH1 0x24 DUP3 ADD MSTORE PUSH32 0x50617469656E74206D65646963616C2064657461696C7320616C726561647920 PUSH1 0x44 DUP3 ADD MSTORE PUSH32 0x657869737421212E204B696E646C792065646974207468652064657461696C73 PUSH1 0x64 DUP3 ADD MSTORE PUSH10 0x81A59881B9959591959 PUSH1 0xB2 SHL PUSH1 0x84 DUP3 ADD MSTORE PUSH1 0xA4 ADD PUSH2 0x5F9 JUMP JUMPDEST PUSH1 0x1 PUSH1 0x1 PUSH1 0xA0 SHL SUB DUP9 AND PUSH2 0x17D8 JUMPI PUSH1 0x40 MLOAD PUSH3 0x461BCD PUSH1 0xE5 SHL DUP2 MSTORE PUSH1 0x4 ADD PUSH2 0x5F9 SWAP1 PUSH2 0x5809 JUMP JUMPDEST PUSH1 0x40 DUP1 MLOAD PUSH2 0x100 DUP2 ADD DUP3 MSTORE DUP11 DUP2 MSTORE PUSH1 0x1 PUSH1 0x1 PUSH1 0xA0 SHL SUB DUP11 AND PUSH1 0x20 DUP1 DUP4 ADD DUP3 SWAP1 MSTORE DUP11 ISZERO ISZERO DUP4 DUP6 ADD MSTORE DUP10 ISZERO ISZERO PUSH1 0x60 DUP5 ADD MSTORE DUP9 ISZERO ISZERO PUSH1 0x80 DUP5 ADD MSTORE PUSH1 0xA0 DUP4 ADD DUP9 SWAP1 MSTORE PUSH1 0xC0 DUP4 ADD DUP8 SWAP1 MSTORE PUSH1 0xE0 DUP4 ADD DUP7 SWAP1 MSTORE PUSH0 SWAP2 DUP3 MSTORE PUSH1 0x3 SWAP1 MSTORE SWAP2 SWAP1 SWAP2 KECCAK256 DUP2 MLOAD DUP2 SWAP1 PUSH2 0x183E SWAP1 DUP3 PUSH2 0x5666 JUMP JUMPDEST POP PUSH1 0x20 DUP3 ADD MLOAD PUSH1 0x1 DUP3 ADD DUP1 SLOAD PUSH1 0x40 DUP6 ADD MLOAD PUSH1 0x60 DUP7 ADD MLOAD PUSH1 0x80 DUP8 ADD MLOAD ISZERO ISZERO PUSH1 0x1 PUSH1 0xB0 SHL MUL PUSH1 0xFF PUSH1 0xB0 SHL NOT SWAP2 ISZERO ISZERO PUSH1 0x1 PUSH1 0xA8 SHL MUL SWAP2 SWAP1 SWAP2 AND PUSH2 0xFFFF PUSH1 0xA8 SHL NOT SWAP3 ISZERO ISZERO PUSH1 0x1 PUSH1 0xA0 SHL MUL PUSH1 0x1 PUSH1 0x1 PUSH1 0xA8 SHL SUB NOT SWAP1 SWAP5 AND PUSH1 0x1 PUSH1 0x1 PUSH1 0xA0 SHL SUB SWAP1 SWAP7 AND SWAP6 SWAP1 SWAP6 OR SWAP3 SWAP1 SWAP3 OR AND SWAP3 SWAP1 SWAP3 OR SWAP2 SWAP1 SWAP2 OR SWAP1 SSTORE PUSH1 0xA0 DUP3 ADD MLOAD PUSH1 0x2 DUP3 ADD SWAP1 PUSH2 0x18C2 SWAP1 DUP3 PUSH2 0x5666 JUMP JUMPDEST POP PUSH1 0xC0 DUP3 ADD MLOAD PUSH1 0x3 DUP3 ADD SWAP1 PUSH2 0x18D7 SWAP1 DUP3 PUSH2 0x5666 JUMP JUMPDEST POP PUSH1 0xE0 DUP3 ADD MLOAD PUSH1 0x4 DUP3 ADD SWAP1 PUSH2 0x18EC SWAP1 DUP3 PUSH2 0x5666 JUMP JUMPDEST POP POP POP PUSH1 0x1 PUSH1 0x1 PUSH1 0xA0 SHL SUB DUP1 DUP10 AND PUSH0 DUP2 DUP2 MSTORE PUSH1 0x2 PUSH1 0x20 DUP2 SWAP1 MSTORE PUSH1 0x40 SWAP1 SWAP2 KECCAK256 ADD SLOAD SWAP1 SWAP2 AND SUB PUSH2 0x1929 JUMPI PUSH1 0xB DUP1 SLOAD SWAP1 PUSH0 PUSH2 0x1923 DUP4 PUSH2 0x58E7 JUMP JUMPDEST SWAP2 SWAP1 POP SSTORE POP JUMPDEST POP POP POP POP POP POP POP POP POP JUMP JUMPDEST CALLER PUSH0 SWAP1 DUP2 MSTORE PUSH1 0x20 DUP2 SWAP1 MSTORE PUSH1 0x40 SWAP1 KECCAK256 SLOAD PUSH1 0xFF AND DUP1 PUSH2 0x195B JUMPI POP PUSH1 0x1 SLOAD PUSH1 0x1 PUSH1 0x1 PUSH1 0xA0 SHL SUB AND CALLER EQ JUMPDEST PUSH2 0x1977 JUMPI PUSH1 0x40 MLOAD PUSH3 0x461BCD PUSH1 0xE5 SHL DUP2 MSTORE PUSH1 0x4 ADD PUSH2 0x5F9 SWAP1 PUSH2 0x54F4 JUMP JUMPDEST CALLER PUSH0 SWAP1 DUP2 MSTORE PUSH1 0x20 DUP2 SWAP1 MSTORE PUSH1 0x40 SWAP1 KECCAK256 SLOAD PUSH1 0xFF AND PUSH2 0x19EC JUMPI PUSH1 0x40 MLOAD PUSH3 0x461BCD PUSH1 0xE5 SHL DUP2 MSTORE PUSH1 0x20 PUSH1 0x4 DUP3 ADD MSTORE PUSH1 0x2E PUSH1 0x24 DUP3 ADD MSTORE PUSH32 0x4F6E6C79206F776E6572206861732070726976696C65676520746F2061646420 PUSH1 0x44 DUP3 ADD MSTORE PUSH14 0x6F776E6572206163636573732121 PUSH1 0x90 SHL PUSH1 0x64 DUP3 ADD MSTORE PUSH1 0x84 ADD PUSH2 0x5F9 JUMP JUMPDEST PUSH1 0x1 PUSH1 0x1 PUSH1 0xA0 SHL SUB DUP2 AND PUSH0 SWAP1 DUP2 MSTORE PUSH1 0x6 PUSH1 0x20 MSTORE PUSH1 0x40 SWAP1 KECCAK256 SLOAD PUSH1 0xFF AND ISZERO PUSH2 0x1A54 JUMPI PUSH1 0x40 MLOAD PUSH3 0x461BCD PUSH1 0xE5 SHL DUP2 MSTORE PUSH1 0x20 PUSH1 0x4 DUP3 ADD DUP2 SWAP1 MSTORE PUSH1 0x24 DUP3 ADD MSTORE PUSH32 0x4164647265737320616C7265616479206861732061646D696E20616363657373 PUSH1 0x44 DUP3 ADD MSTORE PUSH1 0x64 ADD PUSH2 0x5F9 JUMP JUMPDEST PUSH1 0x1 PUSH1 0x1 PUSH1 0xA0 SHL SUB DUP2 AND PUSH2 0x1A9C JUMPI PUSH1 0x40 MLOAD PUSH3 0x461BCD PUSH1 0xE5 SHL DUP2 MSTORE PUSH1 0x20 PUSH1 0x4 DUP3 ADD MSTORE PUSH1 0xF PUSH1 0x24 DUP3 ADD MSTORE PUSH15 0x496E76616C69642041646472657373 PUSH1 0x88 SHL PUSH1 0x44 DUP3 ADD MSTORE PUSH1 0x64 ADD PUSH2 0x5F9 JUMP JUMPDEST PUSH1 0x1 PUSH1 0x1 PUSH1 0xA0 SHL SUB DUP2 AND PUSH0 SWAP1 DUP2 MSTORE PUSH1 0x6 PUSH1 0x20 MSTORE PUSH1 0x40 DUP2 KECCAK256 DUP1 SLOAD PUSH1 0xFF NOT AND PUSH1 0x1 OR SWAP1 SSTORE PUSH1 0xA DUP1 SLOAD SWAP2 PUSH2 0x1ACC DUP4 PUSH2 0x58E7 JUMP JUMPDEST SWAP2 SWAP1 POP SSTORE POP POP JUMP JUMPDEST PUSH1 0x5 PUSH1 0x20 MSTORE DUP2 PUSH0 MSTORE PUSH1 0x40 PUSH0 KECCAK256 DUP2 DUP2 SLOAD DUP2 LT PUSH2 0x1AED JUMPI PUSH0 DUP1 REVERT JUMPDEST SWAP1 PUSH0 MSTORE PUSH1 0x20 PUSH0 KECCAK256 SWAP1 PUSH1 0x3 MUL ADD PUSH0 SWAP2 POP SWAP2 POP POP DUP1 PUSH0 ADD SLOAD SWAP1 DUP1 PUSH1 0x1 ADD DUP1 SLOAD PUSH2 0x1B13 SWAP1 PUSH2 0x55E0 JUMP JUMPDEST DUP1 PUSH1 0x1F ADD PUSH1 0x20 DUP1 SWAP2 DIV MUL PUSH1 0x20 ADD PUSH1 0x40 MLOAD SWAP1 DUP2 ADD PUSH1 0x40 MSTORE DUP1 SWAP3 SWAP2 SWAP1 DUP2 DUP2 MSTORE PUSH1 0x20 ADD DUP3 DUP1 SLOAD PUSH2 0x1B3F SWAP1 PUSH2 0x55E0 JUMP JUMPDEST DUP1 ISZERO PUSH2 0x1B8A JUMPI DUP1 PUSH1 0x1F LT PUSH2 0x1B61 JUMPI PUSH2 0x100 DUP1 DUP4 SLOAD DIV MUL DUP4 MSTORE SWAP2 PUSH1 0x20 ADD SWAP2 PUSH2 0x1B8A JUMP JUMPDEST DUP3 ADD SWAP2 SWAP1 PUSH0 MSTORE PUSH1 0x20 PUSH0 KECCAK256 SWAP1 JUMPDEST DUP2 SLOAD DUP2 MSTORE SWAP1 PUSH1 0x1 ADD SWAP1 PUSH1 0x20 ADD DUP1 DUP4 GT PUSH2 0x1B6D JUMPI DUP3 SWAP1 SUB PUSH1 0x1F AND DUP3 ADD SWAP2 JUMPDEST POP POP POP POP POP SWAP1 DUP1 PUSH1 0x2 ADD DUP1 SLOAD PUSH2 0x1B9F SWAP1 PUSH2 0x55E0 JUMP JUMPDEST DUP1 PUSH1 0x1F ADD PUSH1 0x20 DUP1 SWAP2 DIV MUL PUSH1 0x20 ADD PUSH1 0x40 MLOAD SWAP1 DUP2 ADD PUSH1 0x40 MSTORE DUP1 SWAP3 SWAP2 SWAP1 DUP2 DUP2 MSTORE PUSH1 0x20 ADD DUP3 DUP1 SLOAD PUSH2 0x1BCB SWAP1 PUSH2 0x55E0 JUMP JUMPDEST DUP1 ISZERO PUSH2 0x1C16 JUMPI DUP1 PUSH1 0x1F LT PUSH2 0x1BED JUMPI PUSH2 0x100 DUP1 DUP4 SLOAD DIV MUL DUP4 MSTORE SWAP2 PUSH1 0x20 ADD SWAP2 PUSH2 0x1C16 JUMP JUMPDEST DUP3 ADD SWAP2 SWAP1 PUSH0 MSTORE PUSH1 0x20 PUSH0 KECCAK256 SWAP1 JUMPDEST DUP2 SLOAD DUP2 MSTORE SWAP1 PUSH1 0x1 ADD SWAP1 PUSH1 0x20 ADD DUP1 DUP4 GT PUSH2 0x1BF9 JUMPI DUP3 SWAP1 SUB PUSH1 0x1F AND DUP3 ADD SWAP2 JUMPDEST POP POP POP POP POP SWAP1 POP DUP4 JUMP JUMPDEST PUSH1 0x1 SLOAD PUSH1 0x1 PUSH1 0x1 PUSH1 0xA0 SHL SUB AND CALLER EQ PUSH2 0x1C7A JUMPI PUSH1 0x40 MLOAD PUSH3 0x461BCD PUSH1 0xE5 SHL DUP2 MSTORE PUSH1 0x20 PUSH1 0x4 DUP3 ADD MSTORE PUSH1 0x1F PUSH1 0x24 DUP3 ADD MSTORE PUSH32 0x41636365737365626C65206F6E6C7920666F722053757065724F776E65727300 PUSH1 0x44 DUP3 ADD MSTORE PUSH1 0x64 ADD PUSH2 0x5F9 JUMP JUMPDEST PUSH1 0x1 PUSH1 0x1 PUSH1 0xA0 SHL SUB AND PUSH0 SWAP1 DUP2 MSTORE PUSH1 0x20 DUP2 SWAP1 MSTORE PUSH1 0x40 SWAP1 KECCAK256 DUP1 SLOAD PUSH1 0xFF NOT AND PUSH1 0x1 OR SWAP1 SSTORE JUMP JUMPDEST PUSH1 0x7 PUSH1 0x20 MSTORE PUSH0 SWAP1 DUP2 MSTORE PUSH1 0x40 SWAP1 KECCAK256 DUP1 SLOAD DUP2 SWAP1 PUSH2 0x1CB7 SWAP1 PUSH2 0x55E0 JUMP JUMPDEST DUP1 PUSH1 0x1F ADD PUSH1 0x20 DUP1 SWAP2 DIV MUL PUSH1 0x20 ADD PUSH1 0x40 MLOAD SWAP1 DUP2 ADD PUSH1 0x40 MSTORE DUP1 SWAP3 SWAP2 SWAP1 DUP2 DUP2 MSTORE PUSH1 0x20 ADD DUP3 DUP1 SLOAD PUSH2 0x1CE3 SWAP1 PUSH2 0x55E0 JUMP JUMPDEST DUP1 ISZERO PUSH2 0x1D2E JUMPI DUP1 PUSH1 0x1F LT PUSH2 0x1D05 JUMPI PUSH2 0x100 DUP1 DUP4 SLOAD DIV MUL DUP4 MSTORE SWAP2 PUSH1 0x20 ADD SWAP2 PUSH2 0x1D2E JUMP JUMPDEST DUP3 ADD SWAP2 SWAP1 PUSH0 MSTORE PUSH1 0x20 PUSH0 KECCAK256 SWAP1 JUMPDEST DUP2 SLOAD DUP2 MSTORE SWAP1 PUSH1 0x1 ADD SWAP1 PUSH1 0x20 ADD DUP1 DUP4 GT PUSH2 0x1D11 JUMPI DUP3 SWAP1 SUB PUSH1 0x1F AND DUP3 ADD SWAP2 JUMPDEST POP POP POP PUSH1 0x1 DUP5 ADD SLOAD PUSH1 0x2 DUP6 ADD DUP1 SLOAD SWAP5 SWAP6 PUSH1 0x1 PUSH1 0x1 PUSH1 0xA0 SHL SUB SWAP1 SWAP3 AND SWAP5 SWAP2 SWAP4 POP SWAP2 POP PUSH2 0x1D58 SWAP1 PUSH2 0x55E0 JUMP JUMPDEST DUP1 PUSH1 0x1F ADD PUSH1 0x20 DUP1 SWAP2 DIV MUL PUSH1 0x20 ADD PUSH1 0x40 MLOAD SWAP1 DUP2 ADD PUSH1 0x40 MSTORE DUP1 SWAP3 SWAP2 SWAP1 DUP2 DUP2 MSTORE PUSH1 0x20 ADD DUP3 DUP1 SLOAD PUSH2 0x1D84 SWAP1 PUSH2 0x55E0 JUMP JUMPDEST DUP1 ISZERO PUSH2 0x1DCF JUMPI DUP1 PUSH1 0x1F LT PUSH2 0x1DA6 JUMPI PUSH2 0x100 DUP1 DUP4 SLOAD DIV MUL DUP4 MSTORE SWAP2 PUSH1 0x20 ADD SWAP2 PUSH2 0x1DCF JUMP JUMPDEST DUP3 ADD SWAP2 SWAP1 PUSH0 MSTORE PUSH1 0x20 PUSH0 KECCAK256 SWAP1 JUMPDEST DUP2 SLOAD DUP2 MSTORE SWAP1 PUSH1 0x1 ADD SWAP1 PUSH1 0x20 ADD DUP1 DUP4 GT PUSH2 0x1DB2 JUMPI DUP3 SWAP1 SUB PUSH1 0x1F AND DUP3 ADD SWAP2 JUMPDEST POP POP POP POP POP SWAP1 DUP1 PUSH1 0x3 ADD SLOAD SWAP1 DUP1 PUSH1 0x4 ADD SLOAD SWAP1 DUP1 PUSH1 0x5 ADD DUP1 SLOAD PUSH2 0x1DF0 SWAP1 PUSH2 0x55E0 JUMP JUMPDEST DUP1 PUSH1 0x1F ADD PUSH1 0x20 DUP1 SWAP2 DIV MUL PUSH1 0x20 ADD PUSH1 0x40 MLOAD SWAP1 DUP2 ADD PUSH1 0x40 MSTORE DUP1 SWAP3 SWAP2 SWAP1 DUP2 DUP2 MSTORE PUSH1 0x20 ADD DUP3 DUP1 SLOAD PUSH2 0x1E1C SWAP1 PUSH2 0x55E0 JUMP JUMPDEST DUP1 ISZERO PUSH2 0x1E67 JUMPI DUP1 PUSH1 0x1F LT PUSH2 0x1E3E JUMPI PUSH2 0x100 DUP1 DUP4 SLOAD DIV MUL DUP4 MSTORE SWAP2 PUSH1 0x20 ADD SWAP2 PUSH2 0x1E67 JUMP JUMPDEST DUP3 ADD SWAP2 SWAP1 PUSH0 MSTORE PUSH1 0x20 PUSH0 KECCAK256 SWAP1 JUMPDEST DUP2 SLOAD DUP2 MSTORE SWAP1 PUSH1 0x1 ADD SWAP1 PUSH1 0x20 ADD DUP1 DUP4 GT PUSH2 0x1E4A JUMPI DUP3 SWAP1 SUB PUSH1 0x1F AND DUP3 ADD SWAP2 JUMPDEST POP POP POP POP POP SWAP1 POP DUP7 JUMP JUMPDEST PUSH1 0x1 PUSH1 0x1 PUSH1 0xA0 SHL SUB DUP1 DUP3 AND PUSH0 DUP2 DUP2 MSTORE PUSH1 0x2 PUSH1 0x20 DUP2 SWAP1 MSTORE PUSH1 0x40 DUP3 KECCAK256 ADD SLOAD SWAP1 SWAP3 AND EQ DUP1 PUSH2 0x1EB8 JUMPI POP PUSH1 0x1 PUSH1 0x1 PUSH1 0xA0 SHL SUB DUP1 DUP4 AND PUSH0 DUP2 DUP2 MSTORE PUSH1 0x3 PUSH1 0x20 MSTORE PUSH1 0x40 SWAP1 KECCAK256 PUSH1 0x1 ADD SLOAD SWAP1 SWAP2 AND EQ JUMPDEST SWAP3 SWAP2 POP POP JUMP JUMPDEST CALLER PUSH0 SWAP1 DUP2 MSTORE PUSH1 0x20 DUP2 SWAP1 MSTORE PUSH1 0x40 SWAP1 KECCAK256 SLOAD PUSH1 0xFF AND DUP1 PUSH2 0x1EE5 JUMPI POP PUSH1 0x1 SLOAD PUSH1 0x1 PUSH1 0x1 PUSH1 0xA0 SHL SUB AND CALLER EQ JUMPDEST PUSH2 0x1F01 JUMPI PUSH1 0x40 MLOAD PUSH3 0x461BCD PUSH1 0xE5 SHL DUP2 MSTORE PUSH1 0x4 ADD PUSH2 0x5F9 SWAP1 PUSH2 0x54F4 JUMP JUMPDEST PUSH1 0x1 PUSH1 0x1 PUSH1 0xA0 SHL SUB DUP1 DUP7 AND PUSH0 DUP2 DUP2 MSTORE PUSH1 0x8 PUSH1 0x20 MSTORE PUSH1 0x40 SWAP1 KECCAK256 SLOAD SWAP1 SWAP2 AND SUB PUSH2 0x1F81 JUMPI PUSH1 0x40 MLOAD PUSH3 0x461BCD PUSH1 0xE5 SHL DUP2 MSTORE PUSH1 0x20 PUSH1 0x4 DUP3 ADD MSTORE PUSH1 0x2E PUSH1 0x24 DUP3 ADD MSTORE PUSH32 0x50687973696369616E2050726F66657373696F6E616C2064657461696C732061 PUSH1 0x44 DUP3 ADD MSTORE PUSH14 0x6C72656164792065786973742121 PUSH1 0x90 SHL PUSH1 0x64 DUP3 ADD MSTORE PUSH1 0x84 ADD PUSH2 0x5F9 JUMP JUMPDEST PUSH1 0x1 PUSH1 0x1 PUSH1 0xA0 SHL SUB DUP1 DUP7 AND PUSH0 DUP2 DUP2 MSTORE PUSH1 0x8 PUSH1 0x20 MSTORE PUSH1 0x40 SWAP1 KECCAK256 SLOAD SWAP1 SWAP2 AND EQ DUP1 ISZERO SWAP1 PUSH2 0x1FAB JUMPI POP PUSH0 DUP2 MLOAD GT JUMPDEST DUP1 ISZERO PUSH2 0x1FB7 JUMPI POP PUSH0 DUP5 MLOAD GT JUMPDEST DUP1 ISZERO PUSH2 0x1FC3 JUMPI POP PUSH0 DUP4 MLOAD GT JUMPDEST PUSH2 0x2007 JUMPI PUSH1 0x40 MLOAD PUSH3 0x461BCD PUSH1 0xE5 SHL DUP2 MSTORE PUSH1 0x20 PUSH1 0x4 DUP3 ADD MSTORE PUSH1 0x15 PUSH1 0x24 DUP3 ADD MSTORE PUSH21 0x456E74657220436F72726563742064657461696C73 PUSH1 0x58 SHL PUSH1 0x44 DUP3 ADD MSTORE PUSH1 0x64 ADD PUSH2 0x5F9 JUMP JUMPDEST PUSH1 0x40 DUP1 MLOAD PUSH1 0xA0 DUP2 ADD DUP3 MSTORE PUSH1 0x1 PUSH1 0x1 PUSH1 0xA0 SHL SUB DUP8 DUP2 AND DUP1 DUP4 MSTORE PUSH1 0x20 DUP1 DUP5 ADD DUP7 DUP2 MSTORE DUP5 DUP7 ADD DUP11 SWAP1 MSTORE PUSH1 0x60 DUP6 ADD DUP10 SWAP1 MSTORE PUSH1 0x80 DUP6 ADD DUP9 SWAP1 MSTORE PUSH0 SWAP3 DUP4 MSTORE PUSH1 0x8 SWAP1 SWAP2 MSTORE SWAP4 SWAP1 KECCAK256 DUP3 MLOAD DUP2 SLOAD PUSH1 0x1 PUSH1 0x1 PUSH1 0xA0 SHL SUB NOT AND SWAP3 AND SWAP2 SWAP1 SWAP2 OR DUP2 SSTORE SWAP2 MLOAD SWAP1 SWAP2 SWAP1 PUSH1 0x1 DUP3 ADD SWAP1 PUSH2 0x2071 SWAP1 DUP3 PUSH2 0x5666 JUMP JUMPDEST POP PUSH1 0x40 DUP3 ADD MLOAD PUSH1 0x2 DUP3 ADD SWAP1 PUSH2 0x2086 SWAP1 DUP3 PUSH2 0x5666 JUMP JUMPDEST POP PUSH1 0x60 DUP3 ADD MLOAD PUSH1 0x3 DUP3 ADD SWAP1 PUSH2 0x209B SWAP1 DUP3 PUSH2 0x5666 JUMP JUMPDEST POP PUSH1 0x80 SWAP2 SWAP1 SWAP2 ADD MLOAD PUSH1 0x4 SWAP1 SWAP2 ADD SSTORE PUSH1 0x1 PUSH1 0x1 PUSH1 0xA0 SHL SUB DUP1 DUP7 AND PUSH0 DUP2 DUP2 MSTORE PUSH1 0x7 PUSH1 0x20 MSTORE PUSH1 0x40 SWAP1 KECCAK256 PUSH1 0x1 ADD SLOAD SWAP1 SWAP2 AND SUB PUSH2 0x20EB JUMPI PUSH2 0x20D6 DUP6 PUSH2 0x1934 JUMP JUMPDEST PUSH1 0x9 DUP1 SLOAD SWAP1 PUSH0 PUSH2 0x20E5 DUP4 PUSH2 0x58E7 JUMP JUMPDEST SWAP2 SWAP1 POP SSTORE POP JUMPDEST POP POP POP POP POP JUMP JUMPDEST PUSH0 PUSH2 0x1EB8 PUSH4 0x1E13380 DUP4 PUSH2 0x58FF JUMP JUMPDEST PUSH1 0x1 PUSH1 0x1 PUSH1 0xA0 SHL SUB DUP2 AND PUSH0 SWAP1 DUP2 MSTORE PUSH1 0x6 PUSH1 0x20 MSTORE PUSH1 0x40 DUP2 KECCAK256 SLOAD PUSH1 0xFF AND ISZERO PUSH2 0x11BD JUMPI POP PUSH1 0x1 SWAP2 SWAP1 POP JUMP JUMPDEST CALLER PUSH0 SWAP1 DUP2 MSTORE PUSH1 0x6 PUSH1 0x20 MSTORE PUSH1 0x40 DUP2 KECCAK256 SLOAD PUSH1 0xFF AND ISZERO PUSH2 0x2144 JUMPI POP PUSH1 0x1 JUMPDEST CALLER PUSH0 SWAP1 DUP2 MSTORE PUSH1 0x6 PUSH1 0x20 MSTORE PUSH1 0x40 SWAP1 KECCAK256 SLOAD PUSH1 0xFF AND PUSH2 0x2172 JUMPI PUSH1 0x40 MLOAD PUSH3 0x461BCD PUSH1 0xE5 SHL DUP2 MSTORE PUSH1 0x4 ADD PUSH2 0x5F9 SWAP1 PUSH2 0x5578 JUMP JUMPDEST PUSH1 0x1 PUSH1 0x1 PUSH1 0xA0 SHL SUB DUP1 DUP12 AND PUSH0 DUP2 DUP2 MSTORE PUSH1 0x2 PUSH1 0x20 DUP2 SWAP1 MSTORE PUSH1 0x40 SWAP1 SWAP2 KECCAK256 ADD SLOAD SWAP1 SWAP2 AND SUB PUSH2 0x221A JUMPI PUSH1 0x40 MLOAD PUSH3 0x461BCD PUSH1 0xE5 SHL DUP2 MSTORE PUSH1 0x20 PUSH1 0x4 DUP3 ADD MSTORE PUSH1 0x4C PUSH1 0x24 DUP3 ADD MSTORE PUSH32 0x50617469656E742773204D65646963616C2064657461696C7320616C72656164 PUSH1 0x44 DUP3 ADD MSTORE PUSH32 0x7920657869737421212E204B696E646C79206564697420746865206465746169 PUSH1 0x64 DUP3 ADD MSTORE PUSH12 0x1B1CC81A59881B9959591959 PUSH1 0xA2 SHL PUSH1 0x84 DUP3 ADD MSTORE PUSH1 0xA4 ADD PUSH2 0x5F9 JUMP JUMPDEST PUSH1 0x1 PUSH1 0x1 PUSH1 0xA0 SHL SUB DUP11 AND ISZERO DUP1 ISZERO SWAP1 PUSH2 0x2232 JUMPI POP PUSH0 DUP10 MLOAD GT JUMPDEST DUP1 ISZERO PUSH2 0x223E JUMPI POP PUSH0 DUP9 MLOAD GT JUMPDEST PUSH2 0x225A JUMPI PUSH1 0x40 MLOAD PUSH3 0x461BCD PUSH1 0xE5 SHL DUP2 MSTORE PUSH1 0x4 ADD PUSH2 0x5F9 SWAP1 PUSH2 0x5809 JUMP JUMPDEST PUSH0 DUP7 SWAP1 POP PUSH1 0x40 MLOAD DUP1 PUSH2 0x160 ADD PUSH1 0x40 MSTORE DUP1 DUP15 DUP2 MSTORE PUSH1 0x20 ADD DUP14 DUP2 MSTORE PUSH1 0x20 ADD DUP13 PUSH1 0x1 PUSH1 0x1 PUSH1 0xA0 SHL SUB AND DUP2 MSTORE PUSH1 0x20 ADD DUP12 DUP2 MSTORE PUSH1 0x20 ADD DUP11 DUP2 MSTORE PUSH1 0x20 ADD DUP10 DUP2 MSTORE PUSH1 0x20 ADD DUP3 DUP2 MSTORE PUSH1 0x20 ADD DUP8 DUP2 MSTORE PUSH1 0x20 ADD DUP7 DUP2 MSTORE PUSH1 0x20 ADD DUP6 DUP2 MSTORE PUSH1 0x20 ADD DUP5 DUP2 MSTORE POP PUSH1 0x2 PUSH0 DUP14 PUSH1 0x1 PUSH1 0x1 PUSH1 0xA0 SHL SUB AND PUSH1 0x1 PUSH1 0x1 PUSH1 0xA0 SHL SUB AND DUP2 MSTORE PUSH1 0x20 ADD SWAP1 DUP2 MSTORE PUSH1 0x20 ADD PUSH0 KECCAK256 PUSH0 DUP3 ADD MLOAD DUP2 PUSH0 ADD SWAP1 DUP2 PUSH2 0x22E9 SWAP2 SWAP1 PUSH2 0x5666 JUMP JUMPDEST POP PUSH1 0x20 DUP3 ADD MLOAD PUSH1 0x1 DUP3 ADD SWAP1 PUSH2 0x22FE SWAP1 DUP3 PUSH2 0x5666 JUMP JUMPDEST POP PUSH1 0x40 DUP3 ADD MLOAD PUSH1 0x2 DUP3 ADD DUP1 SLOAD PUSH1 0x1 PUSH1 0x1 PUSH1 0xA0 SHL SUB NOT AND PUSH1 0x1 PUSH1 0x1 PUSH1 0xA0 SHL SUB SWAP1 SWAP3 AND SWAP2 SWAP1 SWAP2 OR SWAP1 SSTORE PUSH1 0x60 DUP3 ADD MLOAD PUSH1 0x3 DUP3 ADD SWAP1 PUSH2 0x2339 SWAP1 DUP3 PUSH2 0x5666 JUMP JUMPDEST POP PUSH1 0x80 DUP3 ADD MLOAD PUSH1 0x4 DUP3 ADD SWAP1 PUSH2 0x234E SWAP1 DUP3 PUSH2 0x5666 JUMP JUMPDEST POP PUSH1 0xA0 DUP3 ADD MLOAD PUSH1 0x5 DUP3 ADD SWAP1 PUSH2 0x2363 SWAP1 DUP3 PUSH2 0x5666 JUMP JUMPDEST POP PUSH1 0xC0 DUP3 ADD MLOAD PUSH1 0x6 DUP3 ADD SSTORE PUSH1 0xE0 DUP3 ADD MLOAD PUSH1 0x7 DUP3 ADD SSTORE PUSH2 0x100 DUP3 ADD MLOAD PUSH1 0x8 DUP3 ADD SWAP1 PUSH2 0x238D SWAP1 DUP3 PUSH2 0x5666 JUMP JUMPDEST POP PUSH2 0x120 DUP3 ADD MLOAD PUSH1 0x9 DUP3 ADD SSTORE PUSH2 0x140 SWAP1 SWAP2 ADD MLOAD PUSH1 0xA SWAP1 SWAP2 ADD SSTORE PUSH1 0x1 PUSH1 0x1 PUSH1 0xA0 SHL SUB DUP1 DUP13 AND PUSH0 DUP2 DUP2 MSTORE PUSH1 0x3 PUSH1 0x20 MSTORE PUSH1 0x40 SWAP1 KECCAK256 PUSH1 0x1 ADD SLOAD SWAP1 SWAP2 AND SUB PUSH2 0x23DF JUMPI PUSH1 0xB DUP1 SLOAD SWAP1 PUSH0 PUSH2 0x23D9 DUP4 PUSH2 0x58E7 JUMP JUMPDEST SWAP2 SWAP1 POP SSTORE POP JUMPDEST POP POP POP POP POP POP POP POP POP POP POP POP POP JUMP JUMPDEST CALLER PUSH0 SWAP1 DUP2 MSTORE PUSH1 0x20 DUP2 SWAP1 MSTORE PUSH1 0x40 SWAP1 KECCAK256 SLOAD PUSH1 0xFF AND DUP1 PUSH2 0x2415 JUMPI POP PUSH1 0x1 SLOAD PUSH1 0x1 PUSH1 0x1 PUSH1 0xA0 SHL SUB AND CALLER EQ JUMPDEST PUSH2 0x2431 JUMPI PUSH1 0x40 MLOAD PUSH3 0x461BCD PUSH1 0xE5 SHL DUP2 MSTORE PUSH1 0x4 ADD PUSH2 0x5F9 SWAP1 PUSH2 0x54F4 JUMP JUMPDEST PUSH1 0x1 PUSH1 0x1 PUSH1 0xA0 SHL SUB DUP1 DUP7 AND PUSH0 DUP2 DUP2 MSTORE PUSH1 0x7 PUSH1 0x20 MSTORE PUSH1 0x40 SWAP1 KECCAK256 PUSH1 0x1 ADD SLOAD SWAP1 SWAP2 AND SUB PUSH2 0x24AF JUMPI PUSH1 0x40 MLOAD PUSH3 0x461BCD PUSH1 0xE5 SHL DUP2 MSTORE PUSH1 0x20 PUSH1 0x4 DUP3 ADD MSTORE PUSH1 0x29 PUSH1 0x24 DUP3 ADD MSTORE PUSH32 0x50687973696369616E20706572736F6E616C2064657461696C20616C72656164 PUSH1 0x44 DUP3 ADD MSTORE PUSH9 0x792065786973742121 PUSH1 0xB8 SHL PUSH1 0x64 DUP3 ADD MSTORE PUSH1 0x84 ADD PUSH2 0x5F9 JUMP JUMPDEST PUSH1 0x1 PUSH1 0x1 PUSH1 0xA0 SHL SUB DUP6 AND ISZERO DUP1 ISZERO SWAP1 PUSH2 0x24C6 JUMPI POP PUSH0 DUP3 GT JUMPDEST DUP1 ISZERO PUSH2 0x24D2 JUMPI POP PUSH0 DUP2 MLOAD GT JUMPDEST DUP1 ISZERO PUSH2 0x24DE JUMPI POP PUSH0 DUP7 MLOAD GT JUMPDEST PUSH2 0x24FA JUMPI PUSH1 0x40 MLOAD PUSH3 0x461BCD PUSH1 0xE5 SHL DUP2 MSTORE PUSH1 0x4 ADD PUSH2 0x5F9 SWAP1 PUSH2 0x5722 JUMP JUMPDEST PUSH1 0x40 DUP1 MLOAD PUSH1 0xC0 DUP2 ADD DUP3 MSTORE DUP8 DUP2 MSTORE PUSH1 0x1 PUSH1 0x1 PUSH1 0xA0 SHL SUB DUP8 AND PUSH1 0x20 DUP1 DUP4 ADD DUP3 SWAP1 MSTORE DUP3 DUP5 ADD DUP9 SWAP1 MSTORE PUSH1 0x60 DUP4 ADD DUP8 SWAP1 MSTORE PUSH1 0x80 DUP4 ADD DUP7 SWAP1 MSTORE PUSH1 0xA0 DUP4 ADD DUP6 SWAP1 MSTORE PUSH0 SWAP2 DUP3 MSTORE PUSH1 0x7 SWAP1 MSTORE SWAP2 SWAP1 SWAP2 KECCAK256 DUP2 MLOAD DUP6 SWAP3 SWAP2 SWAP1 DUP2 SWAP1 PUSH2 0x2552 SWAP1 DUP3 PUSH2 0x5666 JUMP JUMPDEST POP PUSH1 0x20 DUP3 ADD MLOAD PUSH1 0x1 DUP3 ADD DUP1 SLOAD PUSH1 0x1 PUSH1 0x1 PUSH1 0xA0 SHL SUB NOT AND PUSH1 0x1 PUSH1 0x1 PUSH1 0xA0 SHL SUB SWAP1 SWAP3 AND SWAP2 SWAP1 SWAP2 OR SWAP1 SSTORE PUSH1 0x40 DUP3 ADD MLOAD PUSH1 0x2 DUP3 ADD SWAP1 PUSH2 0x258D SWAP1 DUP3 PUSH2 0x5666 JUMP JUMPDEST POP PUSH1 0x60 DUP3 ADD MLOAD PUSH1 0x3 DUP3 ADD SSTORE PUSH1 0x80 DUP3 ADD MLOAD PUSH1 0x4 DUP3 ADD SSTORE PUSH1 0xA0 DUP3 ADD MLOAD PUSH1 0x5 DUP3 ADD SWAP1 PUSH2 0x25B6 SWAP1 DUP3 PUSH2 0x5666 JUMP JUMPDEST POP POP POP PUSH1 0x1 PUSH1 0x1 PUSH1 0xA0 SHL SUB DUP1 DUP8 AND PUSH0 DUP2 DUP2 MSTORE PUSH1 0x8 PUSH1 0x20 MSTORE PUSH1 0x40 SWAP1 KECCAK256 SLOAD SWAP1 SWAP2 AND SUB PUSH2 0x118C JUMPI PUSH2 0x25E3 DUP7 PUSH2 0x1934 JUMP JUMPDEST PUSH1 0x9 DUP1 SLOAD SWAP1 PUSH0 PUSH2 0x25F2 DUP4 PUSH2 0x58E7 JUMP JUMPDEST SWAP2 SWAP1 POP SSTORE POP POP POP POP POP POP POP POP JUMP JUMPDEST PUSH2 0x263F PUSH1 0x40 MLOAD DUP1 PUSH1 0xC0 ADD PUSH1 0x40 MSTORE DUP1 PUSH1 0x60 DUP2 MSTORE PUSH1 0x20 ADD PUSH0 PUSH1 0x1 PUSH1 0x1 PUSH1 0xA0 SHL SUB AND DUP2 MSTORE PUSH1 0x20 ADD PUSH1 0x60 DUP2 MSTORE PUSH1 0x20 ADD PUSH0 DUP2 MSTORE PUSH1 0x20 ADD PUSH0 DUP2 MSTORE PUSH1 0x20 ADD PUSH1 0x60 DUP2 MSTORE POP SWAP1 JUMP JUMPDEST CALLER PUSH0 SWAP1 DUP2 MSTORE PUSH1 0x20 DUP2 SWAP1 MSTORE PUSH1 0x40 SWAP1 KECCAK256 SLOAD PUSH1 0xFF AND DUP1 PUSH2 0x2666 JUMPI POP PUSH1 0x1 SLOAD PUSH1 0x1 PUSH1 0x1 PUSH1 0xA0 SHL SUB AND CALLER EQ JUMPDEST PUSH2 0x2682 JUMPI PUSH1 0x40 MLOAD PUSH3 0x461BCD PUSH1 0xE5 SHL DUP2 MSTORE PUSH1 0x4 ADD PUSH2 0x5F9 SWAP1 PUSH2 0x54F4 JUMP JUMPDEST PUSH1 0x1 PUSH1 0x1 PUSH1 0xA0 SHL SUB DUP3 AND PUSH2 0x26A8 JUMPI PUSH1 0x40 MLOAD PUSH3 0x461BCD PUSH1 0xE5 SHL DUP2 MSTORE PUSH1 0x4 ADD PUSH2 0x5F9 SWAP1 PUSH2 0x591E JUMP JUMPDEST PUSH1 0x1 PUSH1 0x1 PUSH1 0xA0 SHL SUB DUP1 DUP4 AND PUSH0 DUP2 DUP2 MSTORE PUSH1 0x7 PUSH1 0x20 MSTORE PUSH1 0x40 SWAP1 KECCAK256 PUSH1 0x1 ADD SLOAD SWAP1 SWAP2 AND EQ PUSH2 0x26E4 JUMPI PUSH1 0x40 MLOAD PUSH3 0x461BCD PUSH1 0xE5 SHL DUP2 MSTORE PUSH1 0x4 ADD PUSH2 0x5F9 SWAP1 PUSH2 0x5955 JUMP JUMPDEST PUSH1 0x1 PUSH1 0x1 PUSH1 0xA0 SHL SUB DUP3 AND PUSH0 SWAP1 DUP2 MSTORE PUSH1 0x7 PUSH1 0x20 MSTORE PUSH1 0x40 SWAP1 DUP2 SWAP1 KECCAK256 DUP2 MLOAD PUSH1 0xC0 DUP2 ADD SWAP1 SWAP3 MSTORE DUP1 SLOAD DUP3 SWAP1 DUP3 SWAP1 PUSH2 0x2715 SWAP1 PUSH2 0x55E0 JUMP JUMPDEST DUP1 PUSH1 0x1F ADD PUSH1 0x20 DUP1 SWAP2 DIV MUL PUSH1 0x20 ADD PUSH1 0x40 MLOAD SWAP1 DUP2 ADD PUSH1 0x40 MSTORE DUP1 SWAP3 SWAP2 SWAP1 DUP2 DUP2 MSTORE PUSH1 0x20 ADD DUP3 DUP1 SLOAD PUSH2 0x2741 SWAP1 PUSH2 0x55E0 JUMP JUMPDEST DUP1 ISZERO PUSH2 0x278C JUMPI DUP1 PUSH1 0x1F LT PUSH2 0x2763 JUMPI PUSH2 0x100 DUP1 DUP4 SLOAD DIV MUL DUP4 MSTORE SWAP2 PUSH1 0x20 ADD SWAP2 PUSH2 0x278C JUMP JUMPDEST DUP3 ADD SWAP2 SWAP1 PUSH0 MSTORE PUSH1 0x20 PUSH0 KECCAK256 SWAP1 JUMPDEST DUP2 SLOAD DUP2 MSTORE SWAP1 PUSH1 0x1 ADD SWAP1 PUSH1 0x20 ADD DUP1 DUP4 GT PUSH2 0x276F JUMPI DUP3 SWAP1 SUB PUSH1 0x1F AND DUP3 ADD SWAP2 JUMPDEST POP POP POP SWAP2 DUP4 MSTORE POP POP PUSH1 0x1 DUP3 ADD SLOAD PUSH1 0x1 PUSH1 0x1 PUSH1 0xA0 SHL SUB AND PUSH1 0x20 DUP3 ADD MSTORE PUSH1 0x2 DUP3 ADD DUP1 SLOAD PUSH1 0x40 SWAP1 SWAP3 ADD SWAP2 PUSH2 0x27BC SWAP1 PUSH2 0x55E0 JUMP JUMPDEST DUP1 PUSH1 0x1F ADD PUSH1 0x20 DUP1 SWAP2 DIV MUL PUSH1 0x20 ADD PUSH1 0x40 MLOAD SWAP1 DUP2 ADD PUSH1 0x40 MSTORE DUP1 SWAP3 SWAP2 SWAP1 DUP2 DUP2 MSTORE PUSH1 0x20 ADD DUP3 DUP1 SLOAD PUSH2 0x27E8 SWAP1 PUSH2 0x55E0 JUMP JUMPDEST DUP1 ISZERO PUSH2 0x2833 JUMPI DUP1 PUSH1 0x1F LT PUSH2 0x280A JUMPI PUSH2 0x100 DUP1 DUP4 SLOAD DIV MUL DUP4 MSTORE SWAP2 PUSH1 0x20 ADD SWAP2 PUSH2 0x2833 JUMP JUMPDEST DUP3 ADD SWAP2 SWAP1 PUSH0 MSTORE PUSH1 0x20 PUSH0 KECCAK256 SWAP1 JUMPDEST DUP2 SLOAD DUP2 MSTORE SWAP1 PUSH1 0x1 ADD SWAP1 PUSH1 0x20 ADD DUP1 DUP4 GT PUSH2 0x2816 JUMPI DUP3 SWAP1 SUB PUSH1 0x1F AND DUP3 ADD SWAP2 JUMPDEST POP POP POP POP POP DUP2 MSTORE PUSH1 0x20 ADD PUSH1 0x3 DUP3 ADD SLOAD DUP2 MSTORE PUSH1 0x20 ADD PUSH1 0x4 DUP3 ADD SLOAD DUP2 MSTORE PUSH1 0x20 ADD PUSH1 0x5 DUP3 ADD DUP1 SLOAD PUSH2 0x2860 SWAP1 PUSH2 0x55E0 JUMP JUMPDEST DUP1 PUSH1 0x1F ADD PUSH1 0x20 DUP1 SWAP2 DIV MUL PUSH1 0x20 ADD PUSH1 0x40 MLOAD SWAP1 DUP2 ADD PUSH1 0x40 MSTORE DUP1 SWAP3 SWAP2 SWAP1 DUP2 DUP2 MSTORE PUSH1 0x20 ADD DUP3 DUP1 SLOAD PUSH2 0x288C SWAP1 PUSH2 0x55E0 JUMP JUMPDEST DUP1 ISZERO PUSH2 0x28D7 JUMPI DUP1 PUSH1 0x1F LT PUSH2 0x28AE JUMPI PUSH2 0x100 DUP1 DUP4 SLOAD DIV MUL DUP4 MSTORE SWAP2 PUSH1 0x20 ADD SWAP2 PUSH2 0x28D7 JUMP JUMPDEST DUP3 ADD SWAP2 SWAP1 PUSH0 MSTORE PUSH1 0x20 PUSH0 KECCAK256 SWAP1 JUMPDEST DUP2 SLOAD DUP2 MSTORE SWAP1 PUSH1 0x1 ADD SWAP1 PUSH1 0x20 ADD DUP1 DUP4 GT PUSH2 0x28BA JUMPI DUP3 SWAP1 SUB PUSH1 0x1F AND DUP3 ADD SWAP2 JUMPDEST POP POP POP POP POP DUP2 MSTORE POP POP SWAP1 POP SWAP2 SWAP1 POP JUMP JUMPDEST CALLER PUSH0 DUP2 DUP2 MSTORE PUSH1 0x2 PUSH1 0x20 DUP2 SWAP1 MSTORE PUSH1 0x40 SWAP1 SWAP2 KECCAK256 ADD SLOAD PUSH1 0x60 SWAP2 PUSH1 0x1 PUSH1 0x1 PUSH1 0xA0 SHL SUB SWAP1 SWAP2 AND EQ DUP1 PUSH2 0x292C JUMPI POP CALLER PUSH0 DUP2 DUP2 MSTORE PUSH1 0x3 PUSH1 0x20 MSTORE PUSH1 0x40 SWAP1 KECCAK256 PUSH1 0x1 ADD SLOAD PUSH1 0x1 PUSH1 0x1 PUSH1 0xA0 SHL SUB AND EQ JUMPDEST DUP1 PUSH2 0x2945 JUMPI POP CALLER PUSH0 SWAP1 DUP2 MSTORE PUSH1 0x6 PUSH1 0x20 MSTORE PUSH1 0x40 SWAP1 KECCAK256 SLOAD PUSH1 0xFF AND JUMPDEST DUP1 PUSH2 0x295E JUMPI POP CALLER PUSH0 SWAP1 DUP2 MSTORE PUSH1 0x20 DUP2 SWAP1 MSTORE PUSH1 0x40 SWAP1 KECCAK256 SLOAD PUSH1 0xFF AND JUMPDEST DUP1 PUSH2 0x2973 JUMPI POP PUSH1 0x1 SLOAD PUSH1 0x1 PUSH1 0x1 PUSH1 0xA0 SHL SUB AND CALLER EQ JUMPDEST PUSH2 0x298F JUMPI PUSH1 0x40 MLOAD PUSH3 0x461BCD PUSH1 0xE5 SHL DUP2 MSTORE PUSH1 0x4 ADD PUSH2 0x5F9 SWAP1 PUSH2 0x59FE JUMP JUMPDEST PUSH1 0x1 PUSH1 0x1 PUSH1 0xA0 SHL SUB DUP3 AND PUSH0 SWAP1 DUP2 MSTORE PUSH1 0x4 PUSH1 0x20 SWAP1 DUP2 MSTORE PUSH1 0x40 DUP1 DUP4 KECCAK256 DUP1 SLOAD DUP3 MLOAD DUP2 DUP6 MUL DUP2 ADD DUP6 ADD SWAP1 SWAP4 MSTORE DUP1 DUP4 MSTORE SWAP2 SWAP4 SWAP1 SWAP3 DUP5 ADD JUMPDEST DUP3 DUP3 LT ISZERO PUSH2 0x16B9 JUMPI DUP4 DUP3 SWAP1 PUSH0 MSTORE PUSH1 0x20 PUSH0 KECCAK256 SWAP1 PUSH1 0xB MUL ADD PUSH1 0x40 MLOAD DUP1 PUSH2 0x160 ADD PUSH1 0x40 MSTORE SWAP1 DUP2 PUSH0 DUP3 ADD DUP1 SLOAD PUSH2 0x29F2 SWAP1 PUSH2 0x55E0 JUMP JUMPDEST DUP1 PUSH1 0x1F ADD PUSH1 0x20 DUP1 SWAP2 DIV MUL PUSH1 0x20 ADD PUSH1 0x40 MLOAD SWAP1 DUP2 ADD PUSH1 0x40 MSTORE DUP1 SWAP3 SWAP2 SWAP1 DUP2 DUP2 MSTORE PUSH1 0x20 ADD DUP3 DUP1 SLOAD PUSH2 0x2A1E SWAP1 PUSH2 0x55E0 JUMP JUMPDEST DUP1 ISZERO PUSH2 0x2A69 JUMPI DUP1 PUSH1 0x1F LT PUSH2 0x2A40 JUMPI PUSH2 0x100 DUP1 DUP4 SLOAD DIV MUL DUP4 MSTORE SWAP2 PUSH1 0x20 ADD SWAP2 PUSH2 0x2A69 JUMP JUMPDEST DUP3 ADD SWAP2 SWAP1 PUSH0 MSTORE PUSH1 0x20 PUSH0 KECCAK256 SWAP1 JUMPDEST DUP2 SLOAD DUP2 MSTORE SWAP1 PUSH1 0x1 ADD SWAP1 PUSH1 0x20 ADD DUP1 DUP4 GT PUSH2 0x2A4C JUMPI DUP3 SWAP1 SUB PUSH1 0x1F AND DUP3 ADD SWAP2 JUMPDEST POP POP POP POP POP DUP2 MSTORE PUSH1 0x20 ADD PUSH1 0x1 DUP3 ADD DUP1 SLOAD PUSH2 0x2A82 SWAP1 PUSH2 0x55E0 JUMP JUMPDEST DUP1 PUSH1 0x1F ADD PUSH1 0x20 DUP1 SWAP2 DIV MUL PUSH1 0x20 ADD PUSH1 0x40 MLOAD SWAP1 DUP2 ADD PUSH1 0x40 MSTORE DUP1 SWAP3 SWAP2 SWAP1 DUP2 DUP2 MSTORE PUSH1 0x20 ADD DUP3 DUP1 SLOAD PUSH2 0x2AAE SWAP1 PUSH2 0x55E0 JUMP JUMPDEST DUP1 ISZERO PUSH2 0x2AF9 JUMPI DUP1 PUSH1 0x1F LT PUSH2 0x2AD0 JUMPI PUSH2 0x100 DUP1 DUP4 SLOAD DIV MUL DUP4 MSTORE SWAP2 PUSH1 0x20 ADD SWAP2 PUSH2 0x2AF9 JUMP JUMPDEST DUP3 ADD SWAP2 SWAP1 PUSH0 MSTORE PUSH1 0x20 PUSH0 KECCAK256 SWAP1 JUMPDEST DUP2 SLOAD DUP2 MSTORE SWAP1 PUSH1 0x1 ADD SWAP1 PUSH1 0x20 ADD DUP1 DUP4 GT PUSH2 0x2ADC JUMPI DUP3 SWAP1 SUB PUSH1 0x1F AND DUP3 ADD SWAP2 JUMPDEST POP POP POP SWAP2 DUP4 MSTORE POP POP PUSH1 0x2 DUP3 ADD SLOAD PUSH1 0x1 PUSH1 0x1 PUSH1 0xA0 SHL SUB SWAP1 DUP2 AND PUSH1 0x20 DUP4 ADD MSTORE PUSH1 0x3 DUP4 ADD SLOAD AND PUSH1 0x40 DUP3 ADD MSTORE PUSH1 0x4 DUP3 ADD DUP1 SLOAD PUSH1 0x60 SWAP1 SWAP3 ADD SWAP2 PUSH2 0x2B36 SWAP1 PUSH2 0x55E0 JUMP JUMPDEST DUP1 PUSH1 0x1F ADD PUSH1 0x20 DUP1 SWAP2 DIV MUL PUSH1 0x20 ADD PUSH1 0x40 MLOAD SWAP1 DUP2 ADD PUSH1 0x40 MSTORE DUP1 SWAP3 SWAP2 SWAP1 DUP2 DUP2 MSTORE PUSH1 0x20 ADD DUP3 DUP1 SLOAD PUSH2 0x2B62 SWAP1 PUSH2 0x55E0 JUMP JUMPDEST DUP1 ISZERO PUSH2 0x2BAD JUMPI DUP1 PUSH1 0x1F LT PUSH2 0x2B84 JUMPI PUSH2 0x100 DUP1 DUP4 SLOAD DIV MUL DUP4 MSTORE SWAP2 PUSH1 0x20 ADD SWAP2 PUSH2 0x2BAD JUMP JUMPDEST DUP3 ADD SWAP2 SWAP1 PUSH0 MSTORE PUSH1 0x20 PUSH0 KECCAK256 SWAP1 JUMPDEST DUP2 SLOAD DUP2 MSTORE SWAP1 PUSH1 0x1 ADD SWAP1 PUSH1 0x20 ADD DUP1 DUP4 GT PUSH2 0x2B90 JUMPI DUP3 SWAP1 SUB PUSH1 0x1F AND DUP3 ADD SWAP2 JUMPDEST POP POP POP POP POP DUP2 MSTORE PUSH1 0x20 ADD PUSH1 0x5 DUP3 ADD DUP1 SLOAD PUSH2 0x2BC6 SWAP1 PUSH2 0x55E0 JUMP JUMPDEST DUP1 PUSH1 0x1F ADD PUSH1 0x20 DUP1 SWAP2 DIV MUL PUSH1 0x20 ADD PUSH1 0x40 MLOAD SWAP1 DUP2 ADD PUSH1 0x40 MSTORE DUP1 SWAP3 SWAP2 SWAP1 DUP2 DUP2 MSTORE PUSH1 0x20 ADD DUP3 DUP1 SLOAD PUSH2 0x2BF2 SWAP1 PUSH2 0x55E0 JUMP JUMPDEST DUP1 ISZERO PUSH2 0x2C3D JUMPI DUP1 PUSH1 0x1F LT PUSH2 0x2C14 JUMPI PUSH2 0x100 DUP1 DUP4 SLOAD DIV MUL DUP4 MSTORE SWAP2 PUSH1 0x20 ADD SWAP2 PUSH2 0x2C3D JUMP JUMPDEST DUP3 ADD SWAP2 SWAP1 PUSH0 MSTORE PUSH1 0x20 PUSH0 KECCAK256 SWAP1 JUMPDEST DUP2 SLOAD DUP2 MSTORE SWAP1 PUSH1 0x1 ADD SWAP1 PUSH1 0x20 ADD DUP1 DUP4 GT PUSH2 0x2C20 JUMPI DUP3 SWAP1 SUB PUSH1 0x1F AND DUP3 ADD SWAP2 JUMPDEST POP POP POP POP POP DUP2 MSTORE PUSH1 0x20 ADD PUSH1 0x6 DUP3 ADD DUP1 SLOAD PUSH2 0x2C56 SWAP1 PUSH2 0x55E0 JUMP JUMPDEST DUP1 PUSH1 0x1F ADD PUSH1 0x20 DUP1 SWAP2 DIV MUL PUSH1 0x20 ADD PUSH1 0x40 MLOAD SWAP1 DUP2 ADD PUSH1 0x40 MSTORE DUP1 SWAP3 SWAP2 SWAP1 DUP2 DUP2 MSTORE PUSH1 0x20 ADD DUP3 DUP1 SLOAD PUSH2 0x2C82 SWAP1 PUSH2 0x55E0 JUMP JUMPDEST DUP1 ISZERO PUSH2 0x2CCD JUMPI DUP1 PUSH1 0x1F LT PUSH2 0x2CA4 JUMPI PUSH2 0x100 DUP1 DUP4 SLOAD DIV MUL DUP4 MSTORE SWAP2 PUSH1 0x20 ADD SWAP2 PUSH2 0x2CCD JUMP JUMPDEST DUP3 ADD SWAP2 SWAP1 PUSH0 MSTORE PUSH1 0x20 PUSH0 KECCAK256 SWAP1 JUMPDEST DUP2 SLOAD DUP2 MSTORE SWAP1 PUSH1 0x1 ADD SWAP1 PUSH1 0x20 ADD DUP1 DUP4 GT PUSH2 0x2CB0 JUMPI DUP3 SWAP1 SUB PUSH1 0x1F AND DUP3 ADD SWAP2 JUMPDEST POP POP POP POP POP DUP2 MSTORE PUSH1 0x20 ADD PUSH1 0x7 DUP3 ADD DUP1 SLOAD PUSH2 0x2CE6 SWAP1 PUSH2 0x55E0 JUMP JUMPDEST DUP1 PUSH1 0x1F ADD PUSH1 0x20 DUP1 SWAP2 DIV MUL PUSH1 0x20 ADD PUSH1 0x40 MLOAD SWAP1 DUP2 ADD PUSH1 0x40 MSTORE DUP1 SWAP3 SWAP2 SWAP1 DUP2 DUP2 MSTORE PUSH1 0x20 ADD DUP3 DUP1 SLOAD PUSH2 0x2D12 SWAP1 PUSH2 0x55E0 JUMP JUMPDEST DUP1 ISZERO PUSH2 0x2D5D JUMPI DUP1 PUSH1 0x1F LT PUSH2 0x2D34 JUMPI PUSH2 0x100 DUP1 DUP4 SLOAD DIV MUL DUP4 MSTORE SWAP2 PUSH1 0x20 ADD SWAP2 PUSH2 0x2D5D JUMP JUMPDEST DUP3 ADD SWAP2 SWAP1 PUSH0 MSTORE PUSH1 0x20 PUSH0 KECCAK256 SWAP1 JUMPDEST DUP2 SLOAD DUP2 MSTORE SWAP1 PUSH1 0x1 ADD SWAP1 PUSH1 0x20 ADD DUP1 DUP4 GT PUSH2 0x2D40 JUMPI DUP3 SWAP1 SUB PUSH1 0x1F AND DUP3 ADD SWAP2 JUMPDEST POP POP POP POP POP DUP2 MSTORE PUSH1 0x20 ADD PUSH1 0x8 DUP3 ADD DUP1 SLOAD PUSH2 0x2D76 SWAP1 PUSH2 0x55E0 JUMP JUMPDEST DUP1 PUSH1 0x1F ADD PUSH1 0x20 DUP1 SWAP2 DIV MUL PUSH1 0x20 ADD PUSH1 0x40 MLOAD SWAP1 DUP2 ADD PUSH1 0x40 MSTORE DUP1 SWAP3 SWAP2 SWAP1 DUP2 DUP2 MSTORE PUSH1 0x20 ADD DUP3 DUP1 SLOAD PUSH2 0x2DA2 SWAP1 PUSH2 0x55E0 JUMP JUMPDEST DUP1 ISZERO PUSH2 0x2DED JUMPI DUP1 PUSH1 0x1F LT PUSH2 0x2DC4 JUMPI PUSH2 0x100 DUP1 DUP4 SLOAD DIV MUL DUP4 MSTORE SWAP2 PUSH1 0x20 ADD SWAP2 PUSH2 0x2DED JUMP JUMPDEST DUP3 ADD SWAP2 SWAP1 PUSH0 MSTORE PUSH1 0x20 PUSH0 KECCAK256 SWAP1 JUMPDEST DUP2 SLOAD DUP2 MSTORE SWAP1 PUSH1 0x1 ADD SWAP1 PUSH1 0x20 ADD DUP1 DUP4 GT PUSH2 0x2DD0 JUMPI DUP3 SWAP1 SUB PUSH1 0x1F AND DUP3 ADD SWAP2 JUMPDEST POP POP POP POP POP DUP2 MSTORE PUSH1 0x20 ADD PUSH1 0x9 DUP3 ADD DUP1 SLOAD PUSH2 0x2E06 SWAP1 PUSH2 0x55E0 JUMP JUMPDEST DUP1 PUSH1 0x1F ADD PUSH1 0x20 DUP1 SWAP2 DIV MUL PUSH1 0x20 ADD PUSH1 0x40 MLOAD SWAP1 DUP2 ADD PUSH1 0x40 MSTORE DUP1 SWAP3 SWAP2 SWAP1 DUP2 DUP2 MSTORE PUSH1 0x20 ADD DUP3 DUP1 SLOAD PUSH2 0x2E32 SWAP1 PUSH2 0x55E0 JUMP JUMPDEST DUP1 ISZERO PUSH2 0x2E7D JUMPI DUP1 PUSH1 0x1F LT PUSH2 0x2E54 JUMPI PUSH2 0x100 DUP1 DUP4 SLOAD DIV MUL DUP4 MSTORE SWAP2 PUSH1 0x20 ADD SWAP2 PUSH2 0x2E7D JUMP JUMPDEST DUP3 ADD SWAP2 SWAP1 PUSH0 MSTORE PUSH1 0x20 PUSH0 KECCAK256 SWAP1 JUMPDEST DUP2 SLOAD DUP2 MSTORE SWAP1 PUSH1 0x1 ADD SWAP1 PUSH1 0x20 ADD DUP1 DUP4 GT PUSH2 0x2E60 JUMPI DUP3 SWAP1 SUB PUSH1 0x1F AND DUP3 ADD SWAP2 JUMPDEST POP POP POP POP POP DUP2 MSTORE PUSH1 0x20 ADD PUSH1 0xA DUP3 ADD DUP1 SLOAD PUSH2 0x2E96 SWAP1 PUSH2 0x55E0 JUMP JUMPDEST DUP1 PUSH1 0x1F ADD PUSH1 0x20 DUP1 SWAP2 DIV MUL PUSH1 0x20 ADD PUSH1 0x40 MLOAD SWAP1 DUP2 ADD PUSH1 0x40 MSTORE DUP1 SWAP3 SWAP2 SWAP1 DUP2 DUP2 MSTORE PUSH1 0x20 ADD DUP3 DUP1 SLOAD PUSH2 0x2EC2 SWAP1 PUSH2 0x55E0 JUMP JUMPDEST DUP1 ISZERO PUSH2 0x2F0D JUMPI DUP1 PUSH1 0x1F LT PUSH2 0x2EE4 JUMPI PUSH2 0x100 DUP1 DUP4 SLOAD DIV MUL DUP4 MSTORE SWAP2 PUSH1 0x20 ADD SWAP2 PUSH2 0x2F0D JUMP JUMPDEST DUP3 ADD SWAP2 SWAP1 PUSH0 MSTORE PUSH1 0x20 PUSH0 KECCAK256 SWAP1 JUMPDEST DUP2 SLOAD DUP2 MSTORE SWAP1 PUSH1 0x1 ADD SWAP1 PUSH1 0x20 ADD DUP1 DUP4 GT PUSH2 0x2EF0 JUMPI DUP3 SWAP1 SUB PUSH1 0x1F AND DUP3 ADD SWAP2 JUMPDEST POP POP POP POP POP DUP2 MSTORE POP POP DUP2 MSTORE PUSH1 0x20 ADD SWAP1 PUSH1 0x1 ADD SWAP1 PUSH2 0x29C1 JUMP JUMPDEST PUSH1 0x8 PUSH1 0x20 MSTORE PUSH0 SWAP1 DUP2 MSTORE PUSH1 0x40 SWAP1 KECCAK256 DUP1 SLOAD PUSH1 0x1 DUP3 ADD DUP1 SLOAD PUSH1 0x1 PUSH1 0x1 PUSH1 0xA0 SHL SUB SWAP1 SWAP3 AND SWAP3 SWAP2 PUSH2 0x2F50 SWAP1 PUSH2 0x55E0 JUMP JUMPDEST DUP1 PUSH1 0x1F ADD PUSH1 0x20 DUP1 SWAP2 DIV MUL PUSH1 0x20 ADD PUSH1 0x40 MLOAD SWAP1 DUP2 ADD PUSH1 0x40 MSTORE DUP1 SWAP3 SWAP2 SWAP1 DUP2 DUP2 MSTORE PUSH1 0x20 ADD DUP3 DUP1 SLOAD PUSH2 0x2F7C SWAP1 PUSH2 0x55E0 JUMP JUMPDEST DUP1 ISZERO PUSH2 0x2FC7 JUMPI DUP1 PUSH1 0x1F LT PUSH2 0x2F9E JUMPI PUSH2 0x100 DUP1 DUP4 SLOAD DIV MUL DUP4 MSTORE SWAP2 PUSH1 0x20 ADD SWAP2 PUSH2 0x2FC7 JUMP JUMPDEST DUP3 ADD SWAP2 SWAP1 PUSH0 MSTORE PUSH1 0x20 PUSH0 KECCAK256 SWAP1 JUMPDEST DUP2 SLOAD DUP2 MSTORE SWAP1 PUSH1 0x1 ADD SWAP1 PUSH1 0x20 ADD DUP1 DUP4 GT PUSH2 0x2FAA JUMPI DUP3 SWAP1 SUB PUSH1 0x1F AND DUP3 ADD SWAP2 JUMPDEST POP POP POP POP POP SWAP1 DUP1 PUSH1 0x2 ADD DUP1 SLOAD PUSH2 0x2FDC SWAP1 PUSH2 0x55E0 JUMP JUMPDEST DUP1 PUSH1 0x1F ADD PUSH1 0x20 DUP1 SWAP2 DIV MUL PUSH1 0x20 ADD PUSH1 0x40 MLOAD SWAP1 DUP2 ADD PUSH1 0x40 MSTORE DUP1 SWAP3 SWAP2 SWAP1 DUP2 DUP2 MSTORE PUSH1 0x20 ADD DUP3 DUP1 SLOAD PUSH2 0x3008 SWAP1 PUSH2 0x55E0 JUMP JUMPDEST DUP1 ISZERO PUSH2 0x3053 JUMPI DUP1 PUSH1 0x1F LT PUSH2 0x302A JUMPI PUSH2 0x100 DUP1 DUP4 SLOAD DIV MUL DUP4 MSTORE SWAP2 PUSH1 0x20 ADD SWAP2 PUSH2 0x3053 JUMP JUMPDEST DUP3 ADD SWAP2 SWAP1 PUSH0 MSTORE PUSH1 0x20 PUSH0 KECCAK256 SWAP1 JUMPDEST DUP2 SLOAD DUP2 MSTORE SWAP1 PUSH1 0x1 ADD SWAP1 PUSH1 0x20 ADD DUP1 DUP4 GT PUSH2 0x3036 JUMPI DUP3 SWAP1 SUB PUSH1 0x1F AND DUP3 ADD SWAP2 JUMPDEST POP POP POP POP POP SWAP1 DUP1 PUSH1 0x3 ADD DUP1 SLOAD PUSH2 0x3068 SWAP1 PUSH2 0x55E0 JUMP JUMPDEST DUP1 PUSH1 0x1F ADD PUSH1 0x20 DUP1 SWAP2 DIV MUL PUSH1 0x20 ADD PUSH1 0x40 MLOAD SWAP1 DUP2 ADD PUSH1 0x40 MSTORE DUP1 SWAP3 SWAP2 SWAP1 DUP2 DUP2 MSTORE PUSH1 0x20 ADD DUP3 DUP1 SLOAD PUSH2 0x3094 SWAP1 PUSH2 0x55E0 JUMP JUMPDEST DUP1 ISZERO PUSH2 0x30DF JUMPI DUP1 PUSH1 0x1F LT PUSH2 0x30B6 JUMPI PUSH2 0x100 DUP1 DUP4 SLOAD DIV MUL DUP4 MSTORE SWAP2 PUSH1 0x20 ADD SWAP2 PUSH2 0x30DF JUMP JUMPDEST DUP3 ADD SWAP2 SWAP1 PUSH0 MSTORE PUSH1 0x20 PUSH0 KECCAK256 SWAP1 JUMPDEST DUP2 SLOAD DUP2 MSTORE SWAP1 PUSH1 0x1 ADD SWAP1 PUSH1 0x20 ADD DUP1 DUP4 GT PUSH2 0x30C2 JUMPI DUP3 SWAP1 SUB PUSH1 0x1F AND DUP3 ADD SWAP2 JUMPDEST POP POP POP POP POP SWAP1 DUP1 PUSH1 0x4 ADD SLOAD SWAP1 POP DUP6 JUMP JUMPDEST CALLER PUSH0 SWAP1 DUP2 MSTORE PUSH1 0x6 PUSH1 0x20 MSTORE PUSH1 0x40 DUP2 KECCAK256 SLOAD PUSH1 0xFF AND ISZERO PUSH2 0x310A JUMPI POP PUSH1 0x1 JUMPDEST CALLER PUSH0 SWAP1 DUP2 MSTORE PUSH1 0x6 PUSH1 0x20 MSTORE PUSH1 0x40 SWAP1 KECCAK256 SLOAD PUSH1 0xFF AND PUSH2 0x3138 JUMPI PUSH1 0x40 MLOAD PUSH3 0x461BCD PUSH1 0xE5 SHL DUP2 MSTORE PUSH1 0x4 ADD PUSH2 0x5F9 SWAP1 PUSH2 0x5578 JUMP JUMPDEST PUSH1 0x1 PUSH1 0x1 PUSH1 0xA0 SHL SUB DUP11 AND ISZERO DUP1 ISZERO SWAP1 PUSH2 0x3150 JUMPI POP PUSH0 DUP10 MLOAD GT JUMPDEST DUP1 ISZERO PUSH2 0x315C JUMPI POP PUSH0 DUP9 MLOAD GT JUMPDEST PUSH2 0x3178 JUMPI PUSH1 0x40 MLOAD PUSH3 0x461BCD PUSH1 0xE5 SHL DUP2 MSTORE PUSH1 0x4 ADD PUSH2 0x5F9 SWAP1 PUSH2 0x5809 JUMP JUMPDEST PUSH1 0x1 PUSH1 0x1 PUSH1 0xA0 SHL SUB DUP1 DUP12 AND PUSH0 DUP2 DUP2 MSTORE PUSH1 0x2 PUSH1 0x20 DUP2 SWAP1 MSTORE PUSH1 0x40 SWAP1 SWAP2 KECCAK256 ADD SLOAD SWAP1 SWAP2 AND EQ PUSH2 0x31B5 JUMPI PUSH1 0x40 MLOAD PUSH3 0x461BCD PUSH1 0xE5 SHL DUP2 MSTORE PUSH1 0x4 ADD PUSH2 0x5F9 SWAP1 PUSH2 0x584F JUMP JUMPDEST PUSH0 DUP7 SWAP1 POP PUSH1 0x40 MLOAD DUP1 PUSH2 0x160 ADD PUSH1 0x40 MSTORE DUP1 DUP15 DUP2 MSTORE PUSH1 0x20 ADD DUP14 DUP2 MSTORE PUSH1 0x20 ADD DUP13 PUSH1 0x1 PUSH1 0x1 PUSH1 0xA0 SHL SUB AND DUP2 MSTORE PUSH1 0x20 ADD DUP12 DUP2 MSTORE PUSH1 0x20 ADD DUP11 DUP2 MSTORE PUSH1 0x20 ADD DUP10 DUP2 MSTORE PUSH1 0x20 ADD DUP3 DUP2 MSTORE PUSH1 0x20 ADD DUP8 DUP2 MSTORE PUSH1 0x20 ADD DUP7 DUP2 MSTORE PUSH1 0x20 ADD DUP6 DUP2 MSTORE PUSH1 0x20 ADD DUP5 DUP2 MSTORE POP PUSH1 0x2 PUSH0 DUP14 PUSH1 0x1 PUSH1 0x1 PUSH1 0xA0 SHL SUB AND PUSH1 0x1 PUSH1 0x1 PUSH1 0xA0 SHL SUB AND DUP2 MSTORE PUSH1 0x20 ADD SWAP1 DUP2 MSTORE PUSH1 0x20 ADD PUSH0 KECCAK256 PUSH0 DUP3 ADD MLOAD DUP2 PUSH0 ADD SWAP1 DUP2 PUSH2 0x3244 SWAP2 SWAP1 PUSH2 0x5666 JUMP JUMPDEST POP PUSH1 0x20 DUP3 ADD MLOAD PUSH1 0x1 DUP3 ADD SWAP1 PUSH2 0x3259 SWAP1 DUP3 PUSH2 0x5666 JUMP JUMPDEST POP PUSH1 0x40 DUP3 ADD MLOAD PUSH1 0x2 DUP3 ADD DUP1 SLOAD PUSH1 0x1 PUSH1 0x1 PUSH1 0xA0 SHL SUB NOT AND PUSH1 0x1 PUSH1 0x1 PUSH1 0xA0 SHL SUB SWAP1 SWAP3 AND SWAP2 SWAP1 SWAP2 OR SWAP1 SSTORE PUSH1 0x60 DUP3 ADD MLOAD PUSH1 0x3 DUP3 ADD SWAP1 PUSH2 0x3294 SWAP1 DUP3 PUSH2 0x5666 JUMP JUMPDEST POP PUSH1 0x80 DUP3 ADD MLOAD PUSH1 0x4 DUP3 ADD SWAP1 PUSH2 0x32A9 SWAP1 DUP3 PUSH2 0x5666 JUMP JUMPDEST POP PUSH1 0xA0 DUP3 ADD MLOAD PUSH1 0x5 DUP3 ADD SWAP1 PUSH2 0x32BE SWAP1 DUP3 PUSH2 0x5666 JUMP JUMPDEST POP PUSH1 0xC0 DUP3 ADD MLOAD PUSH1 0x6 DUP3 ADD SSTORE PUSH1 0xE0 DUP3 ADD MLOAD PUSH1 0x7 DUP3 ADD SSTORE PUSH2 0x100 DUP3 ADD MLOAD PUSH1 0x8 DUP3 ADD SWAP1 PUSH2 0x32E8 SWAP1 DUP3 PUSH2 0x5666 JUMP JUMPDEST POP PUSH2 0x120 DUP3 ADD MLOAD PUSH1 0x9 DUP3 ADD SSTORE PUSH2 0x140 SWAP1 SWAP2 ADD MLOAD PUSH1 0xA SWAP1 SWAP2 ADD SSTORE POP POP POP POP POP POP POP POP POP POP POP POP POP JUMP JUMPDEST PUSH2 0x3371 PUSH1 0x40 MLOAD DUP1 PUSH2 0x160 ADD PUSH1 0x40 MSTORE DUP1 PUSH1 0x60 DUP2 MSTORE PUSH1 0x20 ADD PUSH1 0x60 DUP2 MSTORE PUSH1 0x20 ADD PUSH0 PUSH1 0x1 PUSH1 0x1 PUSH1 0xA0 SHL SUB AND DUP2 MSTORE PUSH1 0x20 ADD PUSH1 0x60 DUP2 MSTORE PUSH1 0x20 ADD PUSH1 0x60 DUP2 MSTORE PUSH1 0x20 ADD PUSH1 0x60 DUP2 MSTORE PUSH1 0x20 ADD PUSH0 DUP2 MSTORE PUSH1 0x20 ADD PUSH0 DUP2 MSTORE PUSH1 0x20 ADD PUSH1 0x60 DUP2 MSTORE PUSH1 0x20 ADD PUSH0 DUP2 MSTORE PUSH1 0x20 ADD PUSH0 DUP2 MSTORE POP SWAP1 JUMP JUMPDEST PUSH2 0x33C4 PUSH1 0x40 MLOAD DUP1 PUSH2 0x100 ADD PUSH1 0x40 MSTORE DUP1 PUSH1 0x60 DUP2 MSTORE PUSH1 0x20 ADD PUSH0 PUSH1 0x1 PUSH1 0x1 PUSH1 0xA0 SHL SUB AND DUP2 MSTORE PUSH1 0x20 ADD PUSH0 ISZERO ISZERO DUP2 MSTORE PUSH1 0x20 ADD PUSH0 ISZERO ISZERO DUP2 MSTORE PUSH1 0x20 ADD PUSH0 ISZERO ISZERO DUP2 MSTORE PUSH1 0x20 ADD PUSH1 0x60 DUP2 MSTORE PUSH1 0x20 ADD PUSH1 0x60 DUP2 MSTORE PUSH1 0x20 ADD PUSH1 0x60 DUP2 MSTORE POP SWAP1 JUMP JUMPDEST CALLER PUSH0 DUP2 DUP2 MSTORE PUSH1 0x2 PUSH1 0x20 DUP2 SWAP1 MSTORE PUSH1 0x40 SWAP1 SWAP2 KECCAK256 ADD SLOAD PUSH1 0x1 PUSH1 0x1 PUSH1 0xA0 SHL SUB AND EQ DUP1 PUSH2 0x3404 JUMPI POP CALLER PUSH0 DUP2 DUP2 MSTORE PUSH1 0x3 PUSH1 0x20 MSTORE PUSH1 0x40 SWAP1 KECCAK256 PUSH1 0x1 ADD SLOAD PUSH1 0x1 PUSH1 0x1 PUSH1 0xA0 SHL SUB AND EQ JUMPDEST DUP1 PUSH2 0x341D JUMPI POP CALLER PUSH0 SWAP1 DUP2 MSTORE PUSH1 0x6 PUSH1 0x20 MSTORE PUSH1 0x40 SWAP1 KECCAK256 SLOAD PUSH1 0xFF AND JUMPDEST DUP1 PUSH2 0x3436 JUMPI POP CALLER PUSH0 SWAP1 DUP2 MSTORE PUSH1 0x20 DUP2 SWAP1 MSTORE PUSH1 0x40 SWAP1 KECCAK256 SLOAD PUSH1 0xFF AND JUMPDEST DUP1 PUSH2 0x344B JUMPI POP PUSH1 0x1 SLOAD PUSH1 0x1 PUSH1 0x1 PUSH1 0xA0 SHL SUB AND CALLER EQ JUMPDEST PUSH2 0x3467 JUMPI PUSH1 0x40 MLOAD PUSH3 0x461BCD PUSH1 0xE5 SHL DUP2 MSTORE PUSH1 0x4 ADD PUSH2 0x5F9 SWAP1 PUSH2 0x59FE JUMP JUMPDEST PUSH1 0x1 PUSH1 0x1 PUSH1 0xA0 SHL SUB DUP4 AND PUSH2 0x348D JUMPI PUSH1 0x40 MLOAD PUSH3 0x461BCD PUSH1 0xE5 SHL DUP2 MSTORE PUSH1 0x4 ADD PUSH2 0x5F9 SWAP1 PUSH2 0x591E JUMP JUMPDEST PUSH1 0x1 PUSH1 0x1 PUSH1 0xA0 SHL SUB DUP1 DUP5 AND PUSH0 DUP2 DUP2 MSTORE PUSH1 0x2 PUSH1 0x20 DUP2 SWAP1 MSTORE PUSH1 0x40 SWAP1 SWAP2 KECCAK256 ADD SLOAD SWAP1 SWAP2 AND EQ DUP1 ISZERO PUSH2 0x34D6 JUMPI POP PUSH1 0x1 PUSH1 0x1 PUSH1 0xA0 SHL SUB DUP1 DUP5 AND PUSH0 DUP2 DUP2 MSTORE PUSH1 0x3 PUSH1 0x20 MSTORE PUSH1 0x40 SWAP1 KECCAK256 PUSH1 0x1 ADD SLOAD SWAP1 SWAP2 AND EQ JUMPDEST PUSH2 0x3594 JUMPI PUSH1 0x40 MLOAD PUSH3 0x461BCD PUSH1 0xE5 SHL DUP2 MSTORE PUSH1 0x20 PUSH1 0x4 DUP3 ADD MSTORE PUSH1 0x79 PUSH1 0x24 DUP3 ADD MSTORE PUSH32 0x496E636F72726563742050617469656E742077616C6C65742061646472657373 PUSH1 0x44 DUP3 ADD MSTORE PUSH32 0x206F72205468652050617469656E742064657461696C20666F72207468652061 PUSH1 0x64 DUP3 ADD MSTORE PUSH32 0x6464726573732070726F7669646564206973206E6F7420636F6D706C65746C79 PUSH1 0x84 DUP3 ADD MSTORE PUSH32 0x20617661696C61626C6520696E2074686520636861696E212100000000000000 PUSH1 0xA4 DUP3 ADD MSTORE PUSH1 0xC4 ADD PUSH2 0x5F9 JUMP JUMPDEST PUSH1 0x1 PUSH1 0x1 PUSH1 0xA0 SHL SUB DUP4 AND PUSH0 SWAP1 DUP2 MSTORE PUSH1 0x2 PUSH1 0x20 SWAP1 DUP2 MSTORE PUSH1 0x40 DUP1 DUP4 KECCAK256 PUSH1 0x3 SWAP1 SWAP3 MSTORE SWAP2 DUP3 SWAP1 KECCAK256 DUP3 MLOAD PUSH2 0x160 DUP2 ADD SWAP1 SWAP4 MSTORE DUP2 SLOAD SWAP2 SWAP3 SWAP1 SWAP2 DUP4 SWAP1 DUP3 SWAP1 DUP3 SWAP1 PUSH2 0x35D6 SWAP1 PUSH2 0x55E0 JUMP JUMPDEST DUP1 PUSH1 0x1F ADD PUSH1 0x20 DUP1 SWAP2 DIV MUL PUSH1 0x20 ADD PUSH1 0x40 MLOAD SWAP1 DUP2 ADD PUSH1 0x40 MSTORE DUP1 SWAP3 SWAP2 SWAP1 DUP2 DUP2 MSTORE PUSH1 0x20 ADD DUP3 DUP1 SLOAD PUSH2 0x3602 SWAP1 PUSH2 0x55E0 JUMP JUMPDEST DUP1 ISZERO PUSH2 0x364D JUMPI DUP1 PUSH1 0x1F LT PUSH2 0x3624 JUMPI PUSH2 0x100 DUP1 DUP4 SLOAD DIV MUL DUP4 MSTORE SWAP2 PUSH1 0x20 ADD SWAP2 PUSH2 0x364D JUMP JUMPDEST DUP3 ADD SWAP2 SWAP1 PUSH0 MSTORE PUSH1 0x20 PUSH0 KECCAK256 SWAP1 JUMPDEST DUP2 SLOAD DUP2 MSTORE SWAP1 PUSH1 0x1 ADD SWAP1 PUSH1 0x20 ADD DUP1 DUP4 GT PUSH2 0x3630 JUMPI DUP3 SWAP1 SUB PUSH1 0x1F AND DUP3 ADD SWAP2 JUMPDEST POP POP POP POP POP DUP2 MSTORE PUSH1 0x20 ADD PUSH1 0x1 DUP3 ADD DUP1 SLOAD PUSH2 0x3666 SWAP1 PUSH2 0x55E0 JUMP JUMPDEST DUP1 PUSH1 0x1F ADD PUSH1 0x20 DUP1 SWAP2 DIV MUL PUSH1 0x20 ADD PUSH1 0x40 MLOAD SWAP1 DUP2 ADD PUSH1 0x40 MSTORE DUP1 SWAP3 SWAP2 SWAP1 DUP2 DUP2 MSTORE PUSH1 0x20 ADD DUP3 DUP1 SLOAD PUSH2 0x3692 SWAP1 PUSH2 0x55E0 JUMP JUMPDEST DUP1 ISZERO PUSH2 0x36DD JUMPI DUP1 PUSH1 0x1F LT PUSH2 0x36B4 JUMPI PUSH2 0x100 DUP1 DUP4 SLOAD DIV MUL DUP4 MSTORE SWAP2 PUSH1 0x20 ADD SWAP2 PUSH2 0x36DD JUMP JUMPDEST DUP3 ADD SWAP2 SWAP1 PUSH0 MSTORE PUSH1 0x20 PUSH0 KECCAK256 SWAP1 JUMPDEST DUP2 SLOAD DUP2 MSTORE SWAP1 PUSH1 0x1 ADD SWAP1 PUSH1 0x20 ADD DUP1 DUP4 GT PUSH2 0x36C0 JUMPI DUP3 SWAP1 SUB PUSH1 0x1F AND DUP3 ADD SWAP2 JUMPDEST POP POP POP SWAP2 DUP4 MSTORE POP POP PUSH1 0x2 DUP3 ADD SLOAD PUSH1 0x1 PUSH1 0x1 PUSH1 0xA0 SHL SUB AND PUSH1 0x20 DUP3 ADD MSTORE PUSH1 0x3 DUP3 ADD DUP1 SLOAD PUSH1 0x40 SWAP1 SWAP3 ADD SWAP2 PUSH2 0x370D SWAP1 PUSH2 0x55E0 JUMP JUMPDEST DUP1 PUSH1 0x1F ADD PUSH1 0x20 DUP1 SWAP2 DIV MUL PUSH1 0x20 ADD PUSH1 0x40 MLOAD SWAP1 DUP2 ADD PUSH1 0x40 MSTORE DUP1 SWAP3 SWAP2 SWAP1 DUP2 DUP2 MSTORE PUSH1 0x20 ADD DUP3 DUP1 SLOAD PUSH2 0x3739 SWAP1 PUSH2 0x55E0 JUMP JUMPDEST DUP1 ISZERO PUSH2 0x3784 JUMPI DUP1 PUSH1 0x1F LT PUSH2 0x375B JUMPI PUSH2 0x100 DUP1 DUP4 SLOAD DIV MUL DUP4 MSTORE SWAP2 PUSH1 0x20 ADD SWAP2 PUSH2 0x3784 JUMP JUMPDEST DUP3 ADD SWAP2 SWAP1 PUSH0 MSTORE PUSH1 0x20 PUSH0 KECCAK256 SWAP1 JUMPDEST DUP2 SLOAD DUP2 MSTORE SWAP1 PUSH1 0x1 ADD SWAP1 PUSH1 0x20 ADD DUP1 DUP4 GT PUSH2 0x3767 JUMPI DUP3 SWAP1 SUB PUSH1 0x1F AND DUP3 ADD SWAP2 JUMPDEST POP POP POP POP POP DUP2 MSTORE PUSH1 0x20 ADD PUSH1 0x4 DUP3 ADD DUP1 SLOAD PUSH2 0x379D SWAP1 PUSH2 0x55E0 JUMP JUMPDEST DUP1 PUSH1 0x1F ADD PUSH1 0x20 DUP1 SWAP2 DIV MUL PUSH1 0x20 ADD PUSH1 0x40 MLOAD SWAP1 DUP2 ADD PUSH1 0x40 MSTORE DUP1 SWAP3 SWAP2 SWAP1 DUP2 DUP2 MSTORE PUSH1 0x20 ADD DUP3 DUP1 SLOAD PUSH2 0x37C9 SWAP1 PUSH2 0x55E0 JUMP JUMPDEST DUP1 ISZERO PUSH2 0x3814 JUMPI DUP1 PUSH1 0x1F LT PUSH2 0x37EB JUMPI PUSH2 0x100 DUP1 DUP4 SLOAD DIV MUL DUP4 MSTORE SWAP2 PUSH1 0x20 ADD SWAP2 PUSH2 0x3814 JUMP JUMPDEST DUP3 ADD SWAP2 SWAP1 PUSH0 MSTORE PUSH1 0x20 PUSH0 KECCAK256 SWAP1 JUMPDEST DUP2 SLOAD DUP2 MSTORE SWAP1 PUSH1 0x1 ADD SWAP1 PUSH1 0x20 ADD DUP1 DUP4 GT PUSH2 0x37F7 JUMPI DUP3 SWAP1 SUB PUSH1 0x1F AND DUP3 ADD SWAP2 JUMPDEST POP POP POP POP POP DUP2 MSTORE PUSH1 0x20 ADD PUSH1 0x5 DUP3 ADD DUP1 SLOAD PUSH2 0x382D SWAP1 PUSH2 0x55E0 JUMP JUMPDEST DUP1 PUSH1 0x1F ADD PUSH1 0x20 DUP1 SWAP2 DIV MUL PUSH1 0x20 ADD PUSH1 0x40 MLOAD SWAP1 DUP2 ADD PUSH1 0x40 MSTORE DUP1 SWAP3 SWAP2 SWAP1 DUP2 DUP2 MSTORE PUSH1 0x20 ADD DUP3 DUP1 SLOAD PUSH2 0x3859 SWAP1 PUSH2 0x55E0 JUMP JUMPDEST DUP1 ISZERO PUSH2 0x38A4 JUMPI DUP1 PUSH1 0x1F LT PUSH2 0x387B JUMPI PUSH2 0x100 DUP1 DUP4 SLOAD DIV MUL DUP4 MSTORE SWAP2 PUSH1 0x20 ADD SWAP2 PUSH2 0x38A4 JUMP JUMPDEST DUP3 ADD SWAP2 SWAP1 PUSH0 MSTORE PUSH1 0x20 PUSH0 KECCAK256 SWAP1 JUMPDEST DUP2 SLOAD DUP2 MSTORE SWAP1 PUSH1 0x1 ADD SWAP1 PUSH1 0x20 ADD DUP1 DUP4 GT PUSH2 0x3887 JUMPI DUP3 SWAP1 SUB PUSH1 0x1F AND DUP3 ADD SWAP2 JUMPDEST POP POP POP POP POP DUP2 MSTORE PUSH1 0x20 ADD PUSH1 0x6 DUP3 ADD SLOAD DUP2 MSTORE PUSH1 0x20 ADD PUSH1 0x7 DUP3 ADD SLOAD DUP2 MSTORE PUSH1 0x20 ADD PUSH1 0x8 DUP3 ADD DUP1 SLOAD PUSH2 0x38D1 SWAP1 PUSH2 0x55E0 JUMP JUMPDEST DUP1 PUSH1 0x1F ADD PUSH1 0x20 DUP1 SWAP2 DIV MUL PUSH1 0x20 ADD PUSH1 0x40 MLOAD SWAP1 DUP2 ADD PUSH1 0x40 MSTORE DUP1 SWAP3 SWAP2 SWAP1 DUP2 DUP2 MSTORE PUSH1 0x20 ADD DUP3 DUP1 SLOAD PUSH2 0x38FD SWAP1 PUSH2 0x55E0 JUMP JUMPDEST DUP1 ISZERO PUSH2 0x3948 JUMPI DUP1 PUSH1 0x1F LT PUSH2 0x391F JUMPI PUSH2 0x100 DUP1 DUP4 SLOAD DIV MUL DUP4 MSTORE SWAP2 PUSH1 0x20 ADD SWAP2 PUSH2 0x3948 JUMP JUMPDEST DUP3 ADD SWAP2 SWAP1 PUSH0 MSTORE PUSH1 0x20 PUSH0 KECCAK256 SWAP1 JUMPDEST DUP2 SLOAD DUP2 MSTORE SWAP1 PUSH1 0x1 ADD SWAP1 PUSH1 0x20 ADD DUP1 DUP4 GT PUSH2 0x392B JUMPI DUP3 SWAP1 SUB PUSH1 0x1F AND DUP3 ADD SWAP2 JUMPDEST POP POP POP POP POP DUP2 MSTORE PUSH1 0x20 ADD PUSH1 0x9 DUP3 ADD SLOAD DUP2 MSTORE PUSH1 0x20 ADD PUSH1 0xA DUP3 ADD SLOAD DUP2 MSTORE POP POP SWAP2 POP DUP1 PUSH1 0x40 MLOAD DUP1 PUSH2 0x100 ADD PUSH1 0x40 MSTORE SWAP1 DUP2 PUSH0 DUP3 ADD DUP1 SLOAD PUSH2 0x3983 SWAP1 PUSH2 0x55E0 JUMP JUMPDEST DUP1 PUSH1 0x1F ADD PUSH1 0x20 DUP1 SWAP2 DIV MUL PUSH1 0x20 ADD PUSH1 0x40 MLOAD SWAP1 DUP2 ADD PUSH1 0x40 MSTORE DUP1 SWAP3 SWAP2 SWAP1 DUP2 DUP2 MSTORE PUSH1 0x20 ADD DUP3 DUP1 SLOAD PUSH2 0x39AF SWAP1 PUSH2 0x55E0 JUMP JUMPDEST DUP1 ISZERO PUSH2 0x39FA JUMPI DUP1 PUSH1 0x1F LT PUSH2 0x39D1 JUMPI PUSH2 0x100 DUP1 DUP4 SLOAD DIV MUL DUP4 MSTORE SWAP2 PUSH1 0x20 ADD SWAP2 PUSH2 0x39FA JUMP JUMPDEST DUP3 ADD SWAP2 SWAP1 PUSH0 MSTORE PUSH1 0x20 PUSH0 KECCAK256 SWAP1 JUMPDEST DUP2 SLOAD DUP2 MSTORE SWAP1 PUSH1 0x1 ADD SWAP1 PUSH1 0x20 ADD DUP1 DUP4 GT PUSH2 0x39DD JUMPI DUP3 SWAP1 SUB PUSH1 0x1F AND DUP3 ADD SWAP2 JUMPDEST POP POP POP SWAP2 DUP4 MSTORE POP POP PUSH1 0x1 DUP3 ADD SLOAD PUSH1 0x1 PUSH1 0x1 PUSH1 0xA0 SHL SUB DUP2 AND PUSH1 0x20 DUP4 ADD MSTORE PUSH1 0xFF PUSH1 0x1 PUSH1 0xA0 SHL DUP3 DIV DUP2 AND ISZERO ISZERO PUSH1 0x40 DUP5 ADD MSTORE PUSH1 0x1 PUSH1 0xA8 SHL DUP3 DIV DUP2 AND ISZERO ISZERO PUSH1 0x60 DUP5 ADD MSTORE PUSH1 0x1 PUSH1 0xB0 SHL SWAP1 SWAP2 DIV AND ISZERO ISZERO PUSH1 0x80 DUP3 ADD MSTORE PUSH1 0x2 DUP3 ADD DUP1 SLOAD PUSH1 0xA0 SWAP1 SWAP3 ADD SWAP2 PUSH2 0x3A5D SWAP1 PUSH2 0x55E0 JUMP JUMPDEST DUP1 PUSH1 0x1F ADD PUSH1 0x20 DUP1 SWAP2 DIV MUL PUSH1 0x20 ADD PUSH1 0x40 MLOAD SWAP1 DUP2 ADD PUSH1 0x40 MSTORE DUP1 SWAP3 SWAP2 SWAP1 DUP2 DUP2 MSTORE PUSH1 0x20 ADD DUP3 DUP1 SLOAD PUSH2 0x3A89 SWAP1 PUSH2 0x55E0 JUMP JUMPDEST DUP1 ISZERO PUSH2 0x3AD4 JUMPI DUP1 PUSH1 0x1F LT PUSH2 0x3AAB JUMPI PUSH2 0x100 DUP1 DUP4 SLOAD DIV MUL DUP4 MSTORE SWAP2 PUSH1 0x20 ADD SWAP2 PUSH2 0x3AD4 JUMP JUMPDEST DUP3 ADD SWAP2 SWAP1 PUSH0 MSTORE PUSH1 0x20 PUSH0 KECCAK256 SWAP1 JUMPDEST DUP2 SLOAD DUP2 MSTORE SWAP1 PUSH1 0x1 ADD SWAP1 PUSH1 0x20 ADD DUP1 DUP4 GT PUSH2 0x3AB7 JUMPI DUP3 SWAP1 SUB PUSH1 0x1F AND DUP3 ADD SWAP2 JUMPDEST POP POP POP POP POP DUP2 MSTORE PUSH1 0x20 ADD PUSH1 0x3 DUP3 ADD DUP1 SLOAD PUSH2 0x3AED SWAP1 PUSH2 0x55E0 JUMP JUMPDEST DUP1 PUSH1 0x1F ADD PUSH1 0x20 DUP1 SWAP2 DIV MUL PUSH1 0x20 ADD PUSH1 0x40 MLOAD SWAP1 DUP2 ADD PUSH1 0x40 MSTORE DUP1 SWAP3 SWAP2 SWAP1 DUP2 DUP2 MSTORE PUSH1 0x20 ADD DUP3 DUP1 SLOAD PUSH2 0x3B19 SWAP1 PUSH2 0x55E0 JUMP JUMPDEST DUP1 ISZERO PUSH2 0x3B64 JUMPI DUP1 PUSH1 0x1F LT PUSH2 0x3B3B JUMPI PUSH2 0x100 DUP1 DUP4 SLOAD DIV MUL DUP4 MSTORE SWAP2 PUSH1 0x20 ADD SWAP2 PUSH2 0x3B64 JUMP JUMPDEST DUP3 ADD SWAP2 SWAP1 PUSH0 MSTORE PUSH1 0x20 PUSH0 KECCAK256 SWAP1 JUMPDEST DUP2 SLOAD DUP2 MSTORE SWAP1 PUSH1 0x1 ADD SWAP1 PUSH1 0x20 ADD DUP1 DUP4 GT PUSH2 0x3B47 JUMPI DUP3 SWAP1 SUB PUSH1 0x1F AND DUP3 ADD SWAP2 JUMPDEST POP POP POP POP POP DUP2 MSTORE PUSH1 0x20 ADD PUSH1 0x4 DUP3 ADD DUP1 SLOAD PUSH2 0x3B7D SWAP1 PUSH2 0x55E0 JUMP JUMPDEST DUP1 PUSH1 0x1F ADD PUSH1 0x20 DUP1 SWAP2 DIV MUL PUSH1 0x20 ADD PUSH1 0x40 MLOAD SWAP1 DUP2 ADD PUSH1 0x40 MSTORE DUP1 SWAP3 SWAP2 SWAP1 DUP2 DUP2 MSTORE PUSH1 0x20 ADD DUP3 DUP1 SLOAD PUSH2 0x3BA9 SWAP1 PUSH2 0x55E0 JUMP JUMPDEST DUP1 ISZERO PUSH2 0x3BF4 JUMPI DUP1 PUSH1 0x1F LT PUSH2 0x3BCB JUMPI PUSH2 0x100 DUP1 DUP4 SLOAD DIV MUL DUP4 MSTORE SWAP2 PUSH1 0x20 ADD SWAP2 PUSH2 0x3BF4 JUMP JUMPDEST DUP3 ADD SWAP2 SWAP1 PUSH0 MSTORE PUSH1 0x20 PUSH0 KECCAK256 SWAP1 JUMPDEST DUP2 SLOAD DUP2 MSTORE SWAP1 PUSH1 0x1 ADD SWAP1 PUSH1 0x20 ADD DUP1 DUP4 GT PUSH2 0x3BD7 JUMPI DUP3 SWAP1 SUB PUSH1 0x1F AND DUP3 ADD SWAP2 JUMPDEST POP POP POP POP POP DUP2 MSTORE POP POP SWAP1 POP SWAP2 POP SWAP2 POP SWAP2 POP SWAP2 JUMP JUMPDEST PUSH1 0x3 PUSH1 0x20 MSTORE PUSH0 SWAP1 DUP2 MSTORE PUSH1 0x40 SWAP1 KECCAK256 DUP1 SLOAD DUP2 SWAP1 PUSH2 0x3C22 SWAP1 PUSH2 0x55E0 JUMP JUMPDEST DUP1 PUSH1 0x1F ADD PUSH1 0x20 DUP1 SWAP2 DIV MUL PUSH1 0x20 ADD PUSH1 0x40 MLOAD SWAP1 DUP2 ADD PUSH1 0x40 MSTORE DUP1 SWAP3 SWAP2 SWAP1 DUP2 DUP2 MSTORE PUSH1 0x20 ADD DUP3 DUP1 SLOAD PUSH2 0x3C4E SWAP1 PUSH2 0x55E0 JUMP JUMPDEST DUP1 ISZERO PUSH2 0x3C99 JUMPI DUP1 PUSH1 0x1F LT PUSH2 0x3C70 JUMPI PUSH2 0x100 DUP1 DUP4 SLOAD DIV MUL DUP4 MSTORE SWAP2 PUSH1 0x20 ADD SWAP2 PUSH2 0x3C99 JUMP JUMPDEST DUP3 ADD SWAP2 SWAP1 PUSH0 MSTORE PUSH1 0x20 PUSH0 KECCAK256 SWAP1 JUMPDEST DUP2 SLOAD DUP2 MSTORE SWAP1 PUSH1 0x1 ADD SWAP1 PUSH1 0x20 ADD DUP1 DUP4 GT PUSH2 0x3C7C JUMPI DUP3 SWAP1 SUB PUSH1 0x1F AND DUP3 ADD SWAP2 JUMPDEST POP POP POP POP PUSH1 0x1 DUP4 ADD SLOAD PUSH1 0x2 DUP5 ADD DUP1 SLOAD SWAP4 SWAP5 PUSH1 0x1 PUSH1 0x1 PUSH1 0xA0 SHL SUB DUP4 AND SWAP5 PUSH1 0xFF PUSH1 0x1 PUSH1 0xA0 SHL DUP6 DIV DUP2 AND SWAP6 POP PUSH1 0x1 PUSH1 0xA8 SHL DUP6 DIV DUP2 AND SWAP5 PUSH1 0x1 PUSH1 0xB0 SHL SWAP1 DIV AND SWAP3 SWAP1 PUSH2 0x3CDF SWAP1 PUSH2 0x55E0 JUMP JUMPDEST DUP1 PUSH1 0x1F ADD PUSH1 0x20 DUP1 SWAP2 DIV MUL PUSH1 0x20 ADD PUSH1 0x40 MLOAD SWAP1 DUP2 ADD PUSH1 0x40 MSTORE DUP1 SWAP3 SWAP2 SWAP1 DUP2 DUP2 MSTORE PUSH1 0x20 ADD DUP3 DUP1 SLOAD PUSH2 0x3D0B SWAP1 PUSH2 0x55E0 JUMP JUMPDEST DUP1 ISZERO PUSH2 0x3D56 JUMPI DUP1 PUSH1 0x1F LT PUSH2 0x3D2D JUMPI PUSH2 0x100 DUP1 DUP4 SLOAD DIV MUL DUP4 MSTORE SWAP2 PUSH1 0x20 ADD SWAP2 PUSH2 0x3D56 JUMP JUMPDEST DUP3 ADD SWAP2 SWAP1 PUSH0 MSTORE PUSH1 0x20 PUSH0 KECCAK256 SWAP1 JUMPDEST DUP2 SLOAD DUP2 MSTORE SWAP1 PUSH1 0x1 ADD SWAP1 PUSH1 0x20 ADD DUP1 DUP4 GT PUSH2 0x3D39 JUMPI DUP3 SWAP1 SUB PUSH1 0x1F AND DUP3 ADD SWAP2 JUMPDEST POP POP POP POP POP SWAP1 DUP1 PUSH1 0x3 ADD DUP1 SLOAD PUSH2 0x3D6B SWAP1 PUSH2 0x55E0 JUMP JUMPDEST DUP1 PUSH1 0x1F ADD PUSH1 0x20 DUP1 SWAP2 DIV MUL PUSH1 0x20 ADD PUSH1 0x40 MLOAD SWAP1 DUP2 ADD PUSH1 0x40 MSTORE DUP1 SWAP3 SWAP2 SWAP1 DUP2 DUP2 MSTORE PUSH1 0x20 ADD DUP3 DUP1 SLOAD PUSH2 0x3D97 SWAP1 PUSH2 0x55E0 JUMP JUMPDEST DUP1 ISZERO PUSH2 0x3DE2 JUMPI DUP1 PUSH1 0x1F LT PUSH2 0x3DB9 JUMPI PUSH2 0x100 DUP1 DUP4 SLOAD DIV MUL DUP4 MSTORE SWAP2 PUSH1 0x20 ADD SWAP2 PUSH2 0x3DE2 JUMP JUMPDEST DUP3 ADD SWAP2 SWAP1 PUSH0 MSTORE PUSH1 0x20 PUSH0 KECCAK256 SWAP1 JUMPDEST DUP2 SLOAD DUP2 MSTORE SWAP1 PUSH1 0x1 ADD SWAP1 PUSH1 0x20 ADD DUP1 DUP4 GT PUSH2 0x3DC5 JUMPI DUP3 SWAP1 SUB PUSH1 0x1F AND DUP3 ADD SWAP2 JUMPDEST POP POP POP POP POP SWAP1 DUP1 PUSH1 0x4 ADD DUP1 SLOAD PUSH2 0x3DF7 SWAP1 PUSH2 0x55E0 JUMP JUMPDEST DUP1 PUSH1 0x1F ADD PUSH1 0x20 DUP1 SWAP2 DIV MUL PUSH1 0x20 ADD PUSH1 0x40 MLOAD SWAP1 DUP2 ADD PUSH1 0x40 MSTORE DUP1 SWAP3 SWAP2 SWAP1 DUP2 DUP2 MSTORE PUSH1 0x20 ADD DUP3 DUP1 SLOAD PUSH2 0x3E23 SWAP1 PUSH2 0x55E0 JUMP JUMPDEST DUP1 ISZERO PUSH2 0x3E6E JUMPI DUP1 PUSH1 0x1F LT PUSH2 0x3E45 JUMPI PUSH2 0x100 DUP1 DUP4 SLOAD DIV MUL DUP4 MSTORE SWAP2 PUSH1 0x20 ADD SWAP2 PUSH2 0x3E6E JUMP JUMPDEST DUP3 ADD SWAP2 SWAP1 PUSH0 MSTORE PUSH1 0x20 PUSH0 KECCAK256 SWAP1 JUMPDEST DUP2 SLOAD DUP2 MSTORE SWAP1 PUSH1 0x1 ADD SWAP1 PUSH1 0x20 ADD DUP1 DUP4 GT PUSH2 0x3E51 JUMPI DUP3 SWAP1 SUB PUSH1 0x1F AND DUP3 ADD SWAP2 JUMPDEST POP POP POP POP POP SWAP1 POP DUP9 JUMP JUMPDEST PUSH2 0x3EB1 PUSH1 0x40 MLOAD DUP1 PUSH1 0xA0 ADD PUSH1 0x40 MSTORE DUP1 PUSH0 PUSH1 0x1 PUSH1 0x1 PUSH1 0xA0 SHL SUB AND DUP2 MSTORE PUSH1 0x20 ADD PUSH1 0x60 DUP2 MSTORE PUSH1 0x20 ADD PUSH1 0x60 DUP2 MSTORE PUSH1 0x20 ADD PUSH1 0x60 DUP2 MSTORE PUSH1 0x20 ADD PUSH0 DUP2 MSTORE POP SWAP1 JUMP JUMPDEST CALLER PUSH0 SWAP1 DUP2 MSTORE PUSH1 0x20 DUP2 SWAP1 MSTORE PUSH1 0x40 SWAP1 KECCAK256 SLOAD PUSH1 0xFF AND DUP1 PUSH2 0x3ED8 JUMPI POP PUSH1 0x1 SLOAD PUSH1 0x1 PUSH1 0x1 PUSH1 0xA0 SHL SUB AND CALLER EQ JUMPDEST PUSH2 0x3EF4 JUMPI PUSH1 0x40 MLOAD PUSH3 0x461BCD PUSH1 0xE5 SHL DUP2 MSTORE PUSH1 0x4 ADD PUSH2 0x5F9 SWAP1 PUSH2 0x54F4 JUMP JUMPDEST PUSH1 0x1 PUSH1 0x1 PUSH1 0xA0 SHL SUB DUP3 AND PUSH2 0x3F1A JUMPI PUSH1 0x40 MLOAD PUSH3 0x461BCD PUSH1 0xE5 SHL DUP2 MSTORE PUSH1 0x4 ADD PUSH2 0x5F9 SWAP1 PUSH2 0x591E JUMP JUMPDEST PUSH1 0x1 PUSH1 0x1 PUSH1 0xA0 SHL SUB DUP1 DUP4 AND PUSH0 DUP2 DUP2 MSTORE PUSH1 0x8 PUSH1 0x20 MSTORE PUSH1 0x40 SWAP1 KECCAK256 SLOAD SWAP1 SWAP2 AND EQ PUSH2 0x3F53 JUMPI PUSH1 0x40 MLOAD PUSH3 0x461BCD PUSH1 0xE5 SHL DUP2 MSTORE PUSH1 0x4 ADD PUSH2 0x5F9 SWAP1 PUSH2 0x5955 JUMP JUMPDEST PUSH1 0x1 PUSH1 0x1 PUSH1 0xA0 SHL SUB DUP1 DUP4 AND PUSH0 SWAP1 DUP2 MSTORE PUSH1 0x8 PUSH1 0x20 SWAP1 DUP2 MSTORE PUSH1 0x40 SWAP2 DUP3 SWAP1 KECCAK256 DUP3 MLOAD PUSH1 0xA0 DUP2 ADD SWAP1 SWAP4 MSTORE DUP1 SLOAD SWAP1 SWAP4 AND DUP3 MSTORE PUSH1 0x1 DUP4 ADD DUP1 SLOAD SWAP3 SWAP4 SWAP3 SWAP2 DUP5 ADD SWAP2 PUSH2 0x3F95 SWAP1 PUSH2 0x55E0 JUMP JUMPDEST DUP1 PUSH1 0x1F ADD PUSH1 0x20 DUP1 SWAP2 DIV MUL PUSH1 0x20 ADD PUSH1 0x40 MLOAD SWAP1 DUP2 ADD PUSH1 0x40 MSTORE DUP1 SWAP3 SWAP2 SWAP1 DUP2 DUP2 MSTORE PUSH1 0x20 ADD DUP3 DUP1 SLOAD PUSH2 0x3FC1 SWAP1 PUSH2 0x55E0 JUMP JUMPDEST DUP1 ISZERO PUSH2 0x400C JUMPI DUP1 PUSH1 0x1F LT PUSH2 0x3FE3 JUMPI PUSH2 0x100 DUP1 DUP4 SLOAD DIV MUL DUP4 MSTORE SWAP2 PUSH1 0x20 ADD SWAP2 PUSH2 0x400C JUMP JUMPDEST DUP3 ADD SWAP2 SWAP1 PUSH0 MSTORE PUSH1 0x20 PUSH0 KECCAK256 SWAP1 JUMPDEST DUP2 SLOAD DUP2 MSTORE SWAP1 PUSH1 0x1 ADD SWAP1 PUSH1 0x20 ADD DUP1 DUP4 GT PUSH2 0x3FEF JUMPI DUP3 SWAP1 SUB PUSH1 0x1F AND DUP3 ADD SWAP2 JUMPDEST POP POP POP POP POP DUP2 MSTORE PUSH1 0x20 ADD PUSH1 0x2 DUP3 ADD DUP1 SLOAD PUSH2 0x4025 SWAP1 PUSH2 0x55E0 JUMP JUMPDEST DUP1 PUSH1 0x1F ADD PUSH1 0x20 DUP1 SWAP2 DIV MUL PUSH1 0x20 ADD PUSH1 0x40 MLOAD SWAP1 DUP2 ADD PUSH1 0x40 MSTORE DUP1 SWAP3 SWAP2 SWAP1 DUP2 DUP2 MSTORE PUSH1 0x20 ADD DUP3 DUP1 SLOAD PUSH2 0x4051 SWAP1 PUSH2 0x55E0 JUMP JUMPDEST DUP1 ISZERO PUSH2 0x409C JUMPI DUP1 PUSH1 0x1F LT PUSH2 0x4073 JUMPI PUSH2 0x100 DUP1 DUP4 SLOAD DIV MUL DUP4 MSTORE SWAP2 PUSH1 0x20 ADD SWAP2 PUSH2 0x409C JUMP JUMPDEST DUP3 ADD SWAP2 SWAP1 PUSH0 MSTORE PUSH1 0x20 PUSH0 KECCAK256 SWAP1 JUMPDEST DUP2 SLOAD DUP2 MSTORE SWAP1 PUSH1 0x1 ADD SWAP1 PUSH1 0x20 ADD DUP1 DUP4 GT PUSH2 0x407F JUMPI DUP3 SWAP1 SUB PUSH1 0x1F AND DUP3 ADD SWAP2 JUMPDEST POP POP POP POP POP DUP2 MSTORE PUSH1 0x20 ADD PUSH1 0x3 DUP3 ADD DUP1 SLOAD PUSH2 0x40B5 SWAP1 PUSH2 0x55E0 JUMP JUMPDEST DUP1 PUSH1 0x1F ADD PUSH1 0x20 DUP1 SWAP2 DIV MUL PUSH1 0x20 ADD PUSH1 0x40 MLOAD SWAP1 DUP2 ADD PUSH1 0x40 MSTORE DUP1 SWAP3 SWAP2 SWAP1 DUP2 DUP2 MSTORE PUSH1 0x20 ADD DUP3 DUP1 SLOAD PUSH2 0x40E1 SWAP1 PUSH2 0x55E0 JUMP JUMPDEST DUP1 ISZERO PUSH2 0x412C JUMPI DUP1 PUSH1 0x1F LT PUSH2 0x4103 JUMPI PUSH2 0x100 DUP1 DUP4 SLOAD DIV MUL DUP4 MSTORE SWAP2 PUSH1 0x20 ADD SWAP2 PUSH2 0x412C JUMP JUMPDEST DUP3 ADD SWAP2 SWAP1 PUSH0 MSTORE PUSH1 0x20 PUSH0 KECCAK256 SWAP1 JUMPDEST DUP2 SLOAD DUP2 MSTORE SWAP1 PUSH1 0x1 ADD SWAP1 PUSH1 0x20 ADD DUP1 DUP4 GT PUSH2 0x410F JUMPI DUP3 SWAP1 SUB PUSH1 0x1F AND DUP3 ADD SWAP2 JUMPDEST POP POP POP POP POP DUP2 MSTORE PUSH1 0x20 ADD PUSH1 0x4 DUP3 ADD SLOAD DUP2 MSTORE POP POP SWAP1 POP SWAP2 SWAP1 POP JUMP JUMPDEST PUSH1 0x4 PUSH1 0x20 MSTORE DUP2 PUSH0 MSTORE PUSH1 0x40 PUSH0 KECCAK256 DUP2 DUP2 SLOAD DUP2 LT PUSH2 0x415F JUMPI PUSH0 DUP1 REVERT JUMPDEST SWAP1 PUSH0 MSTORE PUSH1 0x20 PUSH0 KECCAK256 SWAP1 PUSH1 0xB MUL ADD PUSH0 SWAP2 POP SWAP2 POP POP DUP1 PUSH0 ADD DUP1 SLOAD PUSH2 0x417F SWAP1 PUSH2 0x55E0 JUMP JUMPDEST DUP1 PUSH1 0x1F ADD PUSH1 0x20 DUP1 SWAP2 DIV MUL PUSH1 0x20 ADD PUSH1 0x40 MLOAD SWAP1 DUP2 ADD PUSH1 0x40 MSTORE DUP1 SWAP3 SWAP2 SWAP1 DUP2 DUP2 MSTORE PUSH1 0x20 ADD DUP3 DUP1 SLOAD PUSH2 0x41AB SWAP1 PUSH2 0x55E0 JUMP JUMPDEST DUP1 ISZERO PUSH2 0x41F6 JUMPI DUP1 PUSH1 0x1F LT PUSH2 0x41CD JUMPI PUSH2 0x100 DUP1 DUP4 SLOAD DIV MUL DUP4 MSTORE SWAP2 PUSH1 0x20 ADD SWAP2 PUSH2 0x41F6 JUMP JUMPDEST DUP3 ADD SWAP2 SWAP1 PUSH0 MSTORE PUSH1 0x20 PUSH0 KECCAK256 SWAP1 JUMPDEST DUP2 SLOAD DUP2 MSTORE SWAP1 PUSH1 0x1 ADD SWAP1 PUSH1 0x20 ADD DUP1 DUP4 GT PUSH2 0x41D9 JUMPI DUP3 SWAP1 SUB PUSH1 0x1F AND DUP3 ADD SWAP2 JUMPDEST POP POP POP POP POP SWAP1 DUP1 PUSH1 0x1 ADD DUP1 SLOAD PUSH2 0x420B SWAP1 PUSH2 0x55E0 JUMP JUMPDEST DUP1 PUSH1 0x1F ADD PUSH1 0x20 DUP1 SWAP2 DIV MUL PUSH1 0x20 ADD PUSH1 0x40 MLOAD SWAP1 DUP2 ADD PUSH1 0x40 MSTORE DUP1 SWAP3 SWAP2 SWAP1 DUP2 DUP2 MSTORE PUSH1 0x20 ADD DUP3 DUP1 SLOAD PUSH2 0x4237 SWAP1 PUSH2 0x55E0 JUMP JUMPDEST DUP1 ISZERO PUSH2 0x4282 JUMPI DUP1 PUSH1 0x1F LT PUSH2 0x4259 JUMPI PUSH2 0x100 DUP1 DUP4 SLOAD DIV MUL DUP4 MSTORE SWAP2 PUSH1 0x20 ADD SWAP2 PUSH2 0x4282 JUMP JUMPDEST DUP3 ADD SWAP2 SWAP1 PUSH0 MSTORE PUSH1 0x20 PUSH0 KECCAK256 SWAP1 JUMPDEST DUP2 SLOAD DUP2 MSTORE SWAP1 PUSH1 0x1 ADD SWAP1 PUSH1 0x20 ADD DUP1 DUP4 GT PUSH2 0x4265 JUMPI DUP3 SWAP1 SUB PUSH1 0x1F AND DUP3 ADD SWAP2 JUMPDEST POP POP POP PUSH1 0x2 DUP5 ADD SLOAD PUSH1 0x3 DUP6 ADD SLOAD PUSH1 0x4 DUP7 ADD DUP1 SLOAD SWAP6 SWAP7 PUSH1 0x1 PUSH1 0x1 PUSH1 0xA0 SHL SUB SWAP4 DUP5 AND SWAP7 SWAP3 SWAP1 SWAP4 AND SWAP5 POP SWAP2 SWAP3 POP PUSH2 0x42B5 SWAP1 PUSH2 0x55E0 JUMP JUMPDEST DUP1 PUSH1 0x1F ADD PUSH1 0x20 DUP1 SWAP2 DIV MUL PUSH1 0x20 ADD PUSH1 0x40 MLOAD SWAP1 DUP2 ADD PUSH1 0x40 MSTORE DUP1 SWAP3 SWAP2 SWAP1 DUP2 DUP2 MSTORE PUSH1 0x20 ADD DUP3 DUP1 SLOAD PUSH2 0x42E1 SWAP1 PUSH2 0x55E0 JUMP JUMPDEST DUP1 ISZERO PUSH2 0x432C JUMPI DUP1 PUSH1 0x1F LT PUSH2 0x4303 JUMPI PUSH2 0x100 DUP1 DUP4 SLOAD DIV MUL DUP4 MSTORE SWAP2 PUSH1 0x20 ADD SWAP2 PUSH2 0x432C JUMP JUMPDEST DUP3 ADD SWAP2 SWAP1 PUSH0 MSTORE PUSH1 0x20 PUSH0 KECCAK256 SWAP1 JUMPDEST DUP2 SLOAD DUP2 MSTORE SWAP1 PUSH1 0x1 ADD SWAP1 PUSH1 0x20 ADD DUP1 DUP4 GT PUSH2 0x430F JUMPI DUP3 SWAP1 SUB PUSH1 0x1F AND DUP3 ADD SWAP2 JUMPDEST POP POP POP POP POP SWAP1 DUP1 PUSH1 0x5 ADD DUP1 SLOAD PUSH2 0x4341 SWAP1 PUSH2 0x55E0 JUMP JUMPDEST DUP1 PUSH1 0x1F ADD PUSH1 0x20 DUP1 SWAP2 DIV MUL PUSH1 0x20 ADD PUSH1 0x40 MLOAD SWAP1 DUP2 ADD PUSH1 0x40 MSTORE DUP1 SWAP3 SWAP2 SWAP1 DUP2 DUP2 MSTORE PUSH1 0x20 ADD DUP3 DUP1 SLOAD PUSH2 0x436D SWAP1 PUSH2 0x55E0 JUMP JUMPDEST DUP1 ISZERO PUSH2 0x43B8 JUMPI DUP1 PUSH1 0x1F LT PUSH2 0x438F JUMPI PUSH2 0x100 DUP1 DUP4 SLOAD DIV MUL DUP4 MSTORE SWAP2 PUSH1 0x20 ADD SWAP2 PUSH2 0x43B8 JUMP JUMPDEST DUP3 ADD SWAP2 SWAP1 PUSH0 MSTORE PUSH1 0x20 PUSH0 KECCAK256 SWAP1 JUMPDEST DUP2 SLOAD DUP2 MSTORE SWAP1 PUSH1 0x1 ADD SWAP1 PUSH1 0x20 ADD DUP1 DUP4 GT PUSH2 0x439B JUMPI DUP3 SWAP1 SUB PUSH1 0x1F AND DUP3 ADD SWAP2 JUMPDEST POP POP POP POP POP SWAP1 DUP1 PUSH1 0x6 ADD DUP1 SLOAD PUSH2 0x43CD SWAP1 PUSH2 0x55E0 JUMP JUMPDEST DUP1 PUSH1 0x1F ADD PUSH1 0x20 DUP1 SWAP2 DIV MUL PUSH1 0x20 ADD PUSH1 0x40 MLOAD SWAP1 DUP2 ADD PUSH1 0x40 MSTORE DUP1 SWAP3 SWAP2 SWAP1 DUP2 DUP2 MSTORE PUSH1 0x20 ADD DUP3 DUP1 SLOAD PUSH2 0x43F9 SWAP1 PUSH2 0x55E0 JUMP JUMPDEST DUP1 ISZERO PUSH2 0x4444 JUMPI DUP1 PUSH1 0x1F LT PUSH2 0x441B JUMPI PUSH2 0x100 DUP1 DUP4 SLOAD DIV MUL DUP4 MSTORE SWAP2 PUSH1 0x20 ADD SWAP2 PUSH2 0x4444 JUMP JUMPDEST DUP3 ADD SWAP2 SWAP1 PUSH0 MSTORE PUSH1 0x20 PUSH0 KECCAK256 SWAP1 JUMPDEST DUP2 SLOAD DUP2 MSTORE SWAP1 PUSH1 0x1 ADD SWAP1 PUSH1 0x20 ADD DUP1 DUP4 GT PUSH2 0x4427 JUMPI DUP3 SWAP1 SUB PUSH1 0x1F AND DUP3 ADD SWAP2 JUMPDEST POP POP POP POP POP SWAP1 DUP1 PUSH1 0x7 ADD DUP1 SLOAD PUSH2 0x4459 SWAP1 PUSH2 0x55E0 JUMP JUMPDEST DUP1 PUSH1 0x1F ADD PUSH1 0x20 DUP1 SWAP2 DIV MUL PUSH1 0x20 ADD PUSH1 0x40 MLOAD SWAP1 DUP2 ADD PUSH1 0x40 MSTORE DUP1 SWAP3 SWAP2 SWAP1 DUP2 DUP2 MSTORE PUSH1 0x20 ADD DUP3 DUP1 SLOAD PUSH2 0x4485 SWAP1 PUSH2 0x55E0 JUMP JUMPDEST DUP1 ISZERO PUSH2 0x44D0 JUMPI DUP1 PUSH1 0x1F LT PUSH2 0x44A7 JUMPI PUSH2 0x100 DUP1 DUP4 SLOAD DIV MUL DUP4 MSTORE SWAP2 PUSH1 0x20 ADD SWAP2 PUSH2 0x44D0 JUMP JUMPDEST DUP3 ADD SWAP2 SWAP1 PUSH0 MSTORE PUSH1 0x20 PUSH0 KECCAK256 SWAP1 JUMPDEST DUP2 SLOAD DUP2 MSTORE SWAP1 PUSH1 0x1 ADD SWAP1 PUSH1 0x20 ADD DUP1 DUP4 GT PUSH2 0x44B3 JUMPI DUP3 SWAP1 SUB PUSH1 0x1F AND DUP3 ADD SWAP2 JUMPDEST POP POP POP POP POP SWAP1 DUP1 PUSH1 0x8 ADD DUP1 SLOAD PUSH2 0x44E5 SWAP1 PUSH2 0x55E0 JUMP JUMPDEST DUP1 PUSH1 0x1F ADD PUSH1 0x20 DUP1 SWAP2 DIV MUL PUSH1 0x20 ADD PUSH1 0x40 MLOAD SWAP1 DUP2 ADD PUSH1 0x40 MSTORE DUP1 SWAP3 SWAP2 SWAP1 DUP2 DUP2 MSTORE PUSH1 0x20 ADD DUP3 DUP1 SLOAD PUSH2 0x4511 SWAP1 PUSH2 0x55E0 JUMP JUMPDEST DUP1 ISZERO PUSH2 0x455C JUMPI DUP1 PUSH1 0x1F LT PUSH2 0x4533 JUMPI PUSH2 0x100 DUP1 DUP4 SLOAD DIV MUL DUP4 MSTORE SWAP2 PUSH1 0x20 ADD SWAP2 PUSH2 0x455C JUMP JUMPDEST DUP3 ADD SWAP2 SWAP1 PUSH0 MSTORE PUSH1 0x20 PUSH0 KECCAK256 SWAP1 JUMPDEST DUP2 SLOAD DUP2 MSTORE SWAP1 PUSH1 0x1 ADD SWAP1 PUSH1 0x20 ADD DUP1 DUP4 GT PUSH2 0x453F JUMPI DUP3 SWAP1 SUB PUSH1 0x1F AND DUP3 ADD SWAP2 JUMPDEST POP POP POP POP POP SWAP1 DUP1 PUSH1 0x9 ADD DUP1 SLOAD PUSH2 0x4571 SWAP1 PUSH2 0x55E0 JUMP JUMPDEST DUP1 PUSH1 0x1F ADD PUSH1 0x20 DUP1 SWAP2 DIV MUL PUSH1 0x20 ADD PUSH1 0x40 MLOAD SWAP1 DUP2 ADD PUSH1 0x40 MSTORE DUP1 SWAP3 SWAP2 SWAP1 DUP2 DUP2 MSTORE PUSH1 0x20 ADD DUP3 DUP1 SLOAD PUSH2 0x459D SWAP1 PUSH2 0x55E0 JUMP JUMPDEST DUP1 ISZERO PUSH2 0x45E8 JUMPI DUP1 PUSH1 0x1F LT PUSH2 0x45BF JUMPI PUSH2 0x100 DUP1 DUP4 SLOAD DIV MUL DUP4 MSTORE SWAP2 PUSH1 0x20 ADD SWAP2 PUSH2 0x45E8 JUMP JUMPDEST DUP3 ADD SWAP2 SWAP1 PUSH0 MSTORE PUSH1 0x20 PUSH0 KECCAK256 SWAP1 JUMPDEST DUP2 SLOAD DUP2 MSTORE SWAP1 PUSH1 0x1 ADD SWAP1 PUSH1 0x20 ADD DUP1 DUP4 GT PUSH2 0x45CB JUMPI DUP3 SWAP1 SUB PUSH1 0x1F AND DUP3 ADD SWAP2 JUMPDEST POP POP POP POP POP SWAP1 DUP1 PUSH1 0xA ADD DUP1 SLOAD PUSH2 0x45FD SWAP1 PUSH2 0x55E0 JUMP JUMPDEST DUP1 PUSH1 0x1F ADD PUSH1 0x20 DUP1 SWAP2 DIV MUL PUSH1 0x20 ADD PUSH1 0x40 MLOAD SWAP1 DUP2 ADD PUSH1 0x40 MSTORE DUP1 SWAP3 SWAP2 SWAP1 DUP2 DUP2 MSTORE PUSH1 0x20 ADD DUP3 DUP1 SLOAD PUSH2 0x4629 SWAP1 PUSH2 0x55E0 JUMP JUMPDEST DUP1 ISZERO PUSH2 0x4674 JUMPI DUP1 PUSH1 0x1F LT PUSH2 0x464B JUMPI PUSH2 0x100 DUP1 DUP4 SLOAD DIV MUL DUP4 MSTORE SWAP2 PUSH1 0x20 ADD SWAP2 PUSH2 0x4674 JUMP JUMPDEST DUP3 ADD SWAP2 SWAP1 PUSH0 MSTORE PUSH1 0x20 PUSH0 KECCAK256 SWAP1 JUMPDEST DUP2 SLOAD DUP2 MSTORE SWAP1 PUSH1 0x1 ADD SWAP1 PUSH1 0x20 ADD DUP1 DUP4 GT PUSH2 0x4657 JUMPI DUP3 SWAP1 SUB PUSH1 0x1F AND DUP3 ADD SWAP2 JUMPDEST POP POP POP POP POP SWAP1 POP DUP12 JUMP JUMPDEST DUP1 CALLDATALOAD PUSH1 0x1 PUSH1 0x1 PUSH1 0xA0 SHL SUB DUP2 AND DUP2 EQ PUSH2 0x11BD JUMPI PUSH0 DUP1 REVERT JUMPDEST PUSH0 PUSH1 0x20 DUP3 DUP5 SUB SLT ISZERO PUSH2 0x46A4 JUMPI PUSH0 DUP1 REVERT JUMPDEST PUSH2 0x795 DUP3 PUSH2 0x467E JUMP JUMPDEST PUSH0 PUSH1 0x20 DUP3 DUP5 SUB SLT ISZERO PUSH2 0x46BD JUMPI PUSH0 DUP1 REVERT JUMPDEST POP CALLDATALOAD SWAP2 SWAP1 POP JUMP JUMPDEST PUSH4 0x4E487B71 PUSH1 0xE0 SHL PUSH0 MSTORE PUSH1 0x41 PUSH1 0x4 MSTORE PUSH1 0x24 PUSH0 REVERT JUMPDEST PUSH0 DUP3 PUSH1 0x1F DUP4 ADD SLT PUSH2 0x46E7 JUMPI PUSH0 DUP1 REVERT JUMPDEST DUP2 CALLDATALOAD PUSH8 0xFFFFFFFFFFFFFFFF DUP1 DUP3 GT ISZERO PUSH2 0x4702 JUMPI PUSH2 0x4702 PUSH2 0x46C4 JUMP JUMPDEST PUSH1 0x40 MLOAD PUSH1 0x1F DUP4 ADD PUSH1 0x1F NOT SWAP1 DUP2 AND PUSH1 0x3F ADD AND DUP2 ADD SWAP1 DUP3 DUP3 GT DUP2 DUP4 LT OR ISZERO PUSH2 0x472A JUMPI PUSH2 0x472A PUSH2 0x46C4 JUMP JUMPDEST DUP2 PUSH1 0x40 MSTORE DUP4 DUP2 MSTORE DUP7 PUSH1 0x20 DUP6 DUP9 ADD ADD GT ISZERO PUSH2 0x4742 JUMPI PUSH0 DUP1 REVERT JUMPDEST DUP4 PUSH1 0x20 DUP8 ADD PUSH1 0x20 DUP4 ADD CALLDATACOPY PUSH0 PUSH1 0x20 DUP6 DUP4 ADD ADD MSTORE DUP1 SWAP5 POP POP POP POP POP SWAP3 SWAP2 POP POP JUMP JUMPDEST PUSH0 DUP1 PUSH0 DUP1 PUSH0 DUP1 PUSH0 DUP1 PUSH0 DUP1 PUSH0 PUSH2 0x160 DUP13 DUP15 SUB SLT ISZERO PUSH2 0x477C JUMPI PUSH0 DUP1 REVERT JUMPDEST PUSH8 0xFFFFFFFFFFFFFFFF DUP1 DUP14 CALLDATALOAD GT ISZERO PUSH2 0x4792 JUMPI PUSH0 DUP1 REVERT JUMPDEST PUSH2 0x479F DUP15 DUP15 CALLDATALOAD DUP16 ADD PUSH2 0x46D8 JUMP JUMPDEST SWAP12 POP DUP1 PUSH1 0x20 DUP15 ADD CALLDATALOAD GT ISZERO PUSH2 0x47B1 JUMPI PUSH0 DUP1 REVERT JUMPDEST PUSH2 0x47C1 DUP15 PUSH1 0x20 DUP16 ADD CALLDATALOAD DUP16 ADD PUSH2 0x46D8 JUMP JUMPDEST SWAP11 POP PUSH2 0x47CF PUSH1 0x40 DUP15 ADD PUSH2 0x467E JUMP JUMPDEST SWAP10 POP PUSH2 0x47DD PUSH1 0x60 DUP15 ADD PUSH2 0x467E JUMP JUMPDEST SWAP9 POP DUP1 PUSH1 0x80 DUP15 ADD CALLDATALOAD GT ISZERO PUSH2 0x47EF JUMPI PUSH0 DUP1 REVERT JUMPDEST PUSH2 0x47FF DUP15 PUSH1 0x80 DUP16 ADD CALLDATALOAD DUP16 ADD PUSH2 0x46D8 JUMP JUMPDEST SWAP8 POP DUP1 PUSH1 0xA0 DUP15 ADD CALLDATALOAD GT ISZERO PUSH2 0x4811 JUMPI PUSH0 DUP1 REVERT JUMPDEST PUSH2 0x4821 DUP15 PUSH1 0xA0 DUP16 ADD CALLDATALOAD DUP16 ADD PUSH2 0x46D8 JUMP JUMPDEST SWAP7 POP DUP1 PUSH1 0xC0 DUP15 ADD CALLDATALOAD GT ISZERO PUSH2 0x4833 JUMPI PUSH0 DUP1 REVERT JUMPDEST PUSH2 0x4843 DUP15 PUSH1 0xC0 DUP16 ADD CALLDATALOAD DUP16 ADD PUSH2 0x46D8 JUMP JUMPDEST SWAP6 POP DUP1 PUSH1 0xE0 DUP15 ADD CALLDATALOAD GT ISZERO PUSH2 0x4855 JUMPI PUSH0 DUP1 REVERT JUMPDEST PUSH2 0x4865 DUP15 PUSH1 0xE0 DUP16 ADD CALLDATALOAD DUP16 ADD PUSH2 0x46D8 JUMP JUMPDEST SWAP5 POP DUP1 PUSH2 0x100 DUP15 ADD CALLDATALOAD GT ISZERO PUSH2 0x4878 JUMPI PUSH0 DUP1 REVERT JUMPDEST PUSH2 0x4889 DUP15 PUSH2 0x100 DUP16 ADD CALLDATALOAD DUP16 ADD PUSH2 0x46D8 JUMP JUMPDEST SWAP4 POP DUP1 PUSH2 0x120 DUP15 ADD CALLDATALOAD GT ISZERO PUSH2 0x489C JUMPI PUSH0 DUP1 REVERT JUMPDEST PUSH2 0x48AD DUP15 PUSH2 0x120 DUP16 ADD CALLDATALOAD DUP16 ADD PUSH2 0x46D8 JUMP JUMPDEST SWAP3 POP DUP1 PUSH2 0x140 DUP15 ADD CALLDATALOAD GT ISZERO PUSH2 0x48C0 JUMPI PUSH0 DUP1 REVERT JUMPDEST POP PUSH2 0x48D2 DUP14 PUSH2 0x140 DUP15 ADD CALLDATALOAD DUP15 ADD PUSH2 0x46D8 JUMP JUMPDEST SWAP1 POP SWAP3 SWAP6 SWAP9 SWAP12 POP SWAP3 SWAP6 SWAP9 SWAP12 SWAP1 SWAP4 SWAP7 SWAP10 POP JUMP JUMPDEST PUSH0 DUP1 PUSH0 DUP1 PUSH0 DUP1 PUSH1 0xC0 DUP8 DUP10 SUB SLT ISZERO PUSH2 0x48F9 JUMPI PUSH0 DUP1 REVERT JUMPDEST DUP7 CALLDATALOAD PUSH8 0xFFFFFFFFFFFFFFFF DUP1 DUP3 GT ISZERO PUSH2 0x4910 JUMPI PUSH0 DUP1 REVERT JUMPDEST PUSH2 0x491C DUP11 DUP4 DUP12 ADD PUSH2 0x46D8 JUMP JUMPDEST SWAP8 POP PUSH2 0x492A PUSH1 0x20 DUP11 ADD PUSH2 0x467E JUMP JUMPDEST SWAP7 POP PUSH1 0x40 DUP10 ADD CALLDATALOAD SWAP2 POP DUP1 DUP3 GT ISZERO PUSH2 0x493F JUMPI PUSH0 DUP1 REVERT JUMPDEST PUSH2 0x494B DUP11 DUP4 DUP12 ADD PUSH2 0x46D8 JUMP JUMPDEST SWAP6 POP PUSH1 0x60 DUP10 ADD CALLDATALOAD SWAP5 POP PUSH1 0x80 DUP10 ADD CALLDATALOAD SWAP4 POP PUSH1 0xA0 DUP10 ADD CALLDATALOAD SWAP2 POP DUP1 DUP3 GT ISZERO PUSH2 0x496E JUMPI PUSH0 DUP1 REVERT JUMPDEST POP PUSH2 0x497B DUP10 DUP3 DUP11 ADD PUSH2 0x46D8 JUMP JUMPDEST SWAP2 POP POP SWAP3 SWAP6 POP SWAP3 SWAP6 POP SWAP3 SWAP6 JUMP JUMPDEST PUSH0 DUP2 MLOAD DUP1 DUP5 MSTORE PUSH0 JUMPDEST DUP2 DUP2 LT ISZERO PUSH2 0x49AC JUMPI PUSH1 0x20 DUP2 DUP6 ADD DUP2 ADD MLOAD DUP7 DUP4 ADD DUP3 ADD MSTORE ADD PUSH2 0x4990 JUMP JUMPDEST POP PUSH0 PUSH1 0x20 DUP3 DUP7 ADD ADD MSTORE PUSH1 0x20 PUSH1 0x1F NOT PUSH1 0x1F DUP4 ADD AND DUP6 ADD ADD SWAP2 POP POP SWAP3 SWAP2 POP POP JUMP JUMPDEST PUSH0 PUSH2 0x160 DUP1 DUP4 MSTORE PUSH2 0x49DE DUP2 DUP5 ADD DUP16 PUSH2 0x4988 JUMP JUMPDEST SWAP1 POP DUP3 DUP2 SUB PUSH1 0x20 DUP5 ADD MSTORE PUSH2 0x49F2 DUP2 DUP15 PUSH2 0x4988 JUMP JUMPDEST PUSH1 0x1 PUSH1 0x1 PUSH1 0xA0 SHL SUB DUP14 AND PUSH1 0x40 DUP6 ADD MSTORE DUP4 DUP2 SUB PUSH1 0x60 DUP6 ADD MSTORE SWAP1 POP PUSH2 0x4A15 DUP2 DUP13 PUSH2 0x4988 JUMP JUMPDEST SWAP1 POP DUP3 DUP2 SUB PUSH1 0x80 DUP5 ADD MSTORE PUSH2 0x4A29 DUP2 DUP12 PUSH2 0x4988 JUMP JUMPDEST SWAP1 POP DUP3 DUP2 SUB PUSH1 0xA0 DUP5 ADD MSTORE PUSH2 0x4A3D DUP2 DUP11 PUSH2 0x4988 JUMP JUMPDEST SWAP1 POP DUP8 PUSH1 0xC0 DUP5 ADD MSTORE DUP7 PUSH1 0xE0 DUP5 ADD MSTORE DUP3 DUP2 SUB PUSH2 0x100 DUP5 ADD MSTORE PUSH2 0x4A5E DUP2 DUP8 PUSH2 0x4988 JUMP JUMPDEST PUSH2 0x120 DUP5 ADD SWAP6 SWAP1 SWAP6 MSTORE POP POP PUSH2 0x140 ADD MSTORE SWAP10 SWAP9 POP POP POP POP POP POP POP POP POP JUMP JUMPDEST PUSH0 DUP1 PUSH0 PUSH1 0x60 DUP5 DUP7 SUB SLT ISZERO PUSH2 0x4A8D JUMPI PUSH0 DUP1 REVERT JUMPDEST DUP4 CALLDATALOAD PUSH8 0xFFFFFFFFFFFFFFFF DUP1 DUP3 GT ISZERO PUSH2 0x4AA4 JUMPI PUSH0 DUP1 REVERT JUMPDEST PUSH2 0x4AB0 DUP8 DUP4 DUP9 ADD PUSH2 0x46D8 JUMP JUMPDEST SWAP5 POP PUSH2 0x4ABE PUSH1 0x20 DUP8 ADD PUSH2 0x467E JUMP JUMPDEST SWAP4 POP PUSH1 0x40 DUP7 ADD CALLDATALOAD SWAP2 POP DUP1 DUP3 GT ISZERO PUSH2 0x4AD3 JUMPI PUSH0 DUP1 REVERT JUMPDEST POP PUSH2 0x4AE0 DUP7 DUP3 DUP8 ADD PUSH2 0x46D8 JUMP JUMPDEST SWAP2 POP POP SWAP3 POP SWAP3 POP SWAP3 JUMP JUMPDEST DUP1 CALLDATALOAD DUP1 ISZERO ISZERO DUP2 EQ PUSH2 0x11BD JUMPI PUSH0 DUP1 REVERT JUMPDEST PUSH0 DUP1 PUSH0 DUP1 PUSH0 DUP1 PUSH0 DUP1 PUSH2 0x100 DUP10 DUP12 SUB SLT ISZERO PUSH2 0x4B11 JUMPI PUSH0 DUP1 REVERT JUMPDEST DUP9 CALLDATALOAD PUSH8 0xFFFFFFFFFFFFFFFF DUP1 DUP3 GT ISZERO PUSH2 0x4B28 JUMPI PUSH0 DUP1 REVERT JUMPDEST PUSH2 0x4B34 DUP13 DUP4 DUP14 ADD PUSH2 0x46D8 JUMP JUMPDEST SWAP10 POP PUSH2 0x4B42 PUSH1 0x20 DUP13 ADD PUSH2 0x467E JUMP JUMPDEST SWAP9 POP PUSH2 0x4B50 PUSH1 0x40 DUP13 ADD PUSH2 0x4AEA JUMP JUMPDEST SWAP8 POP PUSH2 0x4B5E PUSH1 0x60 DUP13 ADD PUSH2 0x4AEA JUMP JUMPDEST SWAP7 POP PUSH2 0x4B6C PUSH1 0x80 DUP13 ADD PUSH2 0x4AEA JUMP JUMPDEST SWAP6 POP PUSH1 0xA0 DUP12 ADD CALLDATALOAD SWAP2 POP DUP1 DUP3 GT ISZERO PUSH2 0x4B81 JUMPI PUSH0 DUP1 REVERT JUMPDEST PUSH2 0x4B8D DUP13 DUP4 DUP14 ADD PUSH2 0x46D8 JUMP JUMPDEST SWAP5 POP PUSH1 0xC0 DUP12 ADD CALLDATALOAD SWAP2 POP DUP1 DUP3 GT ISZERO PUSH2 0x4BA2 JUMPI PUSH0 DUP1 REVERT JUMPDEST PUSH2 0x4BAE DUP13 DUP4 DUP14 ADD PUSH2 0x46D8 JUMP JUMPDEST SWAP4 POP PUSH1 0xE0 DUP12 ADD CALLDATALOAD SWAP2 POP DUP1 DUP3 GT ISZERO PUSH2 0x4BC3 JUMPI PUSH0 DUP1 REVERT JUMPDEST POP PUSH2 0x4BD0 DUP12 DUP3 DUP13 ADD PUSH2 0x46D8 JUMP JUMPDEST SWAP2 POP POP SWAP3 SWAP6 SWAP9 POP SWAP3 SWAP6 SWAP9 SWAP1 SWAP4 SWAP7 POP JUMP JUMPDEST PUSH0 DUP1 PUSH0 DUP1 PUSH0 PUSH1 0xA0 DUP7 DUP9 SUB SLT ISZERO PUSH2 0x4BF4 JUMPI PUSH0 DUP1 REVERT JUMPDEST PUSH2 0x4BFD DUP7 PUSH2 0x467E JUMP JUMPDEST SWAP5 POP PUSH1 0x20 DUP7 ADD CALLDATALOAD PUSH8 0xFFFFFFFFFFFFFFFF DUP1 DUP3 GT ISZERO PUSH2 0x4C19 JUMPI PUSH0 DUP1 REVERT JUMPDEST PUSH2 0x4C25 DUP10 DUP4 DUP11 ADD PUSH2 0x46D8 JUMP JUMPDEST SWAP6 POP PUSH1 0x40 DUP9 ADD CALLDATALOAD SWAP2 POP DUP1 DUP3 GT ISZERO PUSH2 0x4C3A JUMPI PUSH0 DUP1 REVERT JUMPDEST PUSH2 0x4C46 DUP10 DUP4 DUP11 ADD PUSH2 0x46D8 JUMP JUMPDEST SWAP5 POP PUSH1 0x60 DUP9 ADD CALLDATALOAD SWAP4 POP PUSH1 0x80 DUP9 ADD CALLDATALOAD SWAP2 POP DUP1 DUP3 GT ISZERO PUSH2 0x4C62 JUMPI PUSH0 DUP1 REVERT JUMPDEST POP PUSH2 0x4C6F DUP9 DUP3 DUP10 ADD PUSH2 0x46D8 JUMP JUMPDEST SWAP2 POP POP SWAP3 SWAP6 POP SWAP3 SWAP6 SWAP1 SWAP4 POP JUMP JUMPDEST PUSH0 PUSH1 0x20 DUP1 DUP4 ADD DUP2 DUP5 MSTORE DUP1 DUP6 MLOAD DUP1 DUP4 MSTORE PUSH1 0x40 SWAP3 POP DUP3 DUP7 ADD SWAP2 POP DUP3 DUP2 PUSH1 0x5 SHL DUP8 ADD ADD DUP5 DUP9 ADD PUSH0 JUMPDEST DUP4 DUP2 LT ISZERO PUSH2 0x4CFD JUMPI PUSH1 0x3F NOT DUP10 DUP5 SUB ADD DUP6 MSTORE DUP2 MLOAD PUSH1 0x60 DUP2 MLOAD DUP6 MSTORE DUP9 DUP3 ADD MLOAD DUP2 DUP11 DUP8 ADD MSTORE PUSH2 0x4CCF DUP3 DUP8 ADD DUP3 PUSH2 0x4988 JUMP JUMPDEST SWAP2 POP POP DUP8 DUP3 ADD MLOAD SWAP2 POP DUP5 DUP2 SUB DUP9 DUP7 ADD MSTORE PUSH2 0x4CE9 DUP2 DUP4 PUSH2 0x4988 JUMP JUMPDEST SWAP7 DUP10 ADD SWAP7 SWAP5 POP POP POP SWAP1 DUP7 ADD SWAP1 PUSH1 0x1 ADD PUSH2 0x4CA1 JUMP JUMPDEST POP SWAP1 SWAP9 SWAP8 POP POP POP POP POP POP POP POP JUMP JUMPDEST PUSH0 DUP1 PUSH1 0x40 DUP4 DUP6 SUB SLT ISZERO PUSH2 0x4D1C JUMPI PUSH0 DUP1 REVERT JUMPDEST PUSH2 0x4D25 DUP4 PUSH2 0x467E JUMP JUMPDEST SWAP5 PUSH1 0x20 SWAP4 SWAP1 SWAP4 ADD CALLDATALOAD SWAP4 POP POP POP JUMP JUMPDEST DUP4 DUP2 MSTORE PUSH1 0x60 PUSH1 0x20 DUP3 ADD MSTORE PUSH0 PUSH2 0x4D4B PUSH1 0x60 DUP4 ADD DUP6 PUSH2 0x4988 JUMP JUMPDEST DUP3 DUP2 SUB PUSH1 0x40 DUP5 ADD MSTORE PUSH2 0x4D5D DUP2 DUP6 PUSH2 0x4988 JUMP JUMPDEST SWAP7 SWAP6 POP POP POP POP POP POP JUMP JUMPDEST PUSH1 0xC0 DUP2 MSTORE PUSH0 PUSH2 0x4D79 PUSH1 0xC0 DUP4 ADD DUP10 PUSH2 0x4988 JUMP JUMPDEST PUSH1 0x1 PUSH1 0x1 PUSH1 0xA0 SHL SUB DUP9 AND PUSH1 0x20 DUP5 ADD MSTORE DUP3 DUP2 SUB PUSH1 0x40 DUP5 ADD MSTORE PUSH2 0x4D9A DUP2 DUP9 PUSH2 0x4988 JUMP JUMPDEST SWAP1 POP DUP6 PUSH1 0x60 DUP5 ADD MSTORE DUP5 PUSH1 0x80 DUP5 ADD MSTORE DUP3 DUP2 SUB PUSH1 0xA0 DUP5 ADD MSTORE PUSH2 0x4DBA DUP2 DUP6 PUSH2 0x4988 JUMP JUMPDEST SWAP10 SWAP9 POP POP POP POP POP POP POP POP POP JUMP JUMPDEST PUSH0 DUP1 PUSH0 DUP1 PUSH0 DUP1 PUSH0 DUP1 PUSH0 DUP1 PUSH0 PUSH2 0x160 DUP13 DUP15 SUB SLT ISZERO PUSH2 0x4DE2 JUMPI PUSH0 DUP1 REVERT JUMPDEST PUSH8 0xFFFFFFFFFFFFFFFF DUP1 DUP14 CALLDATALOAD GT ISZERO PUSH2 0x4DF8 JUMPI PUSH0 DUP1 REVERT JUMPDEST PUSH2 0x4E05 DUP15 DUP15 CALLDATALOAD DUP16 ADD PUSH2 0x46D8 JUMP JUMPDEST SWAP12 POP DUP1 PUSH1 0x20 DUP15 ADD CALLDATALOAD GT ISZERO PUSH2 0x4E17 JUMPI PUSH0 DUP1 REVERT JUMPDEST PUSH2 0x4E27 DUP15 PUSH1 0x20 DUP16 ADD CALLDATALOAD DUP16 ADD PUSH2 0x46D8 JUMP JUMPDEST SWAP11 POP PUSH2 0x4E35 PUSH1 0x40 DUP15 ADD PUSH2 0x467E JUMP JUMPDEST SWAP10 POP DUP1 PUSH1 0x60 DUP15 ADD CALLDATALOAD GT ISZERO PUSH2 0x4E47 JUMPI PUSH0 DUP1 REVERT JUMPDEST PUSH2 0x4E57 DUP15 PUSH1 0x60 DUP16 ADD CALLDATALOAD DUP16 ADD PUSH2 0x46D8 JUMP JUMPDEST SWAP9 POP DUP1 PUSH1 0x80 DUP15 ADD CALLDATALOAD GT ISZERO PUSH2 0x4E69 JUMPI PUSH0 DUP1 REVERT JUMPDEST PUSH2 0x4E79 DUP15 PUSH1 0x80 DUP16 ADD CALLDATALOAD DUP16 ADD PUSH2 0x46D8 JUMP JUMPDEST SWAP8 POP DUP1 PUSH1 0xA0 DUP15 ADD CALLDATALOAD GT ISZERO PUSH2 0x4E8B JUMPI PUSH0 DUP1 REVERT JUMPDEST PUSH2 0x4E9B DUP15 PUSH1 0xA0 DUP16 ADD CALLDATALOAD DUP16 ADD PUSH2 0x46D8 JUMP JUMPDEST SWAP7 POP PUSH1 0xC0 DUP14 ADD CALLDATALOAD SWAP6 POP PUSH1 0xE0 DUP14 ADD CALLDATALOAD SWAP5 POP DUP1 PUSH2 0x100 DUP15 ADD CALLDATALOAD GT ISZERO PUSH2 0x4EBC JUMPI PUSH0 DUP1 REVERT JUMPDEST POP PUSH2 0x4ECE DUP14 PUSH2 0x100 DUP15 ADD CALLDATALOAD DUP15 ADD PUSH2 0x46D8 JUMP JUMPDEST SWAP3 POP PUSH2 0x120 DUP13 ADD CALLDATALOAD SWAP2 POP PUSH2 0x140 DUP13 ADD CALLDATALOAD SWAP1 POP SWAP3 SWAP6 SWAP9 SWAP12 POP SWAP3 SWAP6 SWAP9 SWAP12 SWAP1 SWAP4 SWAP7 SWAP10 POP JUMP JUMPDEST PUSH1 0x20 DUP2 MSTORE PUSH0 DUP3 MLOAD PUSH1 0xC0 PUSH1 0x20 DUP5 ADD MSTORE PUSH2 0x4F0B PUSH1 0xE0 DUP5 ADD DUP3 PUSH2 0x4988 JUMP JUMPDEST SWAP1 POP PUSH1 0x1 DUP1 PUSH1 0xA0 SHL SUB PUSH1 0x20 DUP6 ADD MLOAD AND PUSH1 0x40 DUP5 ADD MSTORE PUSH1 0x40 DUP5 ADD MLOAD PUSH1 0x1F NOT DUP1 DUP6 DUP5 SUB ADD PUSH1 0x60 DUP7 ADD MSTORE PUSH2 0x4F3B DUP4 DUP4 PUSH2 0x4988 JUMP JUMPDEST SWAP3 POP PUSH1 0x60 DUP7 ADD MLOAD PUSH1 0x80 DUP7 ADD MSTORE PUSH1 0x80 DUP7 ADD MLOAD PUSH1 0xA0 DUP7 ADD MSTORE PUSH1 0xA0 DUP7 ADD MLOAD SWAP2 POP DUP1 DUP6 DUP5 SUB ADD PUSH1 0xC0 DUP7 ADD MSTORE POP PUSH2 0x4F6D DUP3 DUP3 PUSH2 0x4988 JUMP JUMPDEST SWAP6 SWAP5 POP POP POP POP POP JUMP JUMPDEST PUSH0 PUSH1 0x20 DUP1 DUP4 ADD DUP2 DUP5 MSTORE DUP1 DUP6 MLOAD DUP1 DUP4 MSTORE PUSH1 0x40 SWAP3 POP DUP3 DUP7 ADD SWAP2 POP DUP3 DUP2 PUSH1 0x5 SHL DUP8 ADD ADD DUP5 DUP9 ADD PUSH0 JUMPDEST DUP4 DUP2 LT ISZERO PUSH2 0x4CFD JUMPI PUSH1 0x3F NOT DUP10 DUP5 SUB ADD DUP6 MSTORE DUP2 MLOAD PUSH2 0x160 DUP2 MLOAD DUP2 DUP7 MSTORE PUSH2 0x4FC2 DUP3 DUP8 ADD DUP3 PUSH2 0x4988 JUMP JUMPDEST SWAP2 POP POP DUP9 DUP3 ADD MLOAD DUP6 DUP3 SUB DUP11 DUP8 ADD MSTORE PUSH2 0x4FDA DUP3 DUP3 PUSH2 0x4988 JUMP JUMPDEST SWAP2 POP POP DUP8 DUP3 ADD MLOAD PUSH2 0x4FF5 DUP10 DUP8 ADD DUP3 PUSH1 0x1 PUSH1 0x1 PUSH1 0xA0 SHL SUB AND SWAP1 MSTORE JUMP JUMPDEST POP PUSH1 0x60 DUP3 DUP2 ADD MLOAD PUSH1 0x1 PUSH1 0x1 PUSH1 0xA0 SHL SUB AND SWAP1 DUP7 ADD MSTORE PUSH1 0x80 DUP1 DUP4 ADD MLOAD DUP7 DUP4 SUB DUP3 DUP9 ADD MSTORE PUSH2 0x5020 DUP4 DUP3 PUSH2 0x4988 JUMP JUMPDEST SWAP3 POP POP POP PUSH1 0xA0 DUP1 DUP4 ADD MLOAD DUP7 DUP4 SUB DUP3 DUP9 ADD MSTORE PUSH2 0x503B DUP4 DUP3 PUSH2 0x4988 JUMP JUMPDEST SWAP3 POP POP POP PUSH1 0xC0 DUP1 DUP4 ADD MLOAD DUP7 DUP4 SUB DUP3 DUP9 ADD MSTORE PUSH2 0x5056 DUP4 DUP3 PUSH2 0x4988 JUMP JUMPDEST SWAP3 POP POP POP PUSH1 0xE0 DUP1 DUP4 ADD MLOAD DUP7 DUP4 SUB DUP3 DUP9 ADD MSTORE PUSH2 0x5071 DUP4 DUP3 PUSH2 0x4988 JUMP JUMPDEST SWAP3 POP POP POP PUSH2 0x100 DUP1 DUP4 ADD MLOAD DUP7 DUP4 SUB DUP3 DUP9 ADD MSTORE PUSH2 0x508D DUP4 DUP3 PUSH2 0x4988 JUMP JUMPDEST SWAP3 POP POP POP PUSH2 0x120 DUP1 DUP4 ADD MLOAD DUP7 DUP4 SUB DUP3 DUP9 ADD MSTORE PUSH2 0x50A9 DUP4 DUP3 PUSH2 0x4988 JUMP JUMPDEST SWAP3 POP POP POP PUSH2 0x140 DUP1 DUP4 ADD MLOAD SWAP3 POP DUP6 DUP3 SUB DUP2 DUP8 ADD MSTORE POP PUSH2 0x50C8 DUP2 DUP4 PUSH2 0x4988 JUMP JUMPDEST SWAP7 DUP10 ADD SWAP7 SWAP5 POP POP POP SWAP1 DUP7 ADD SWAP1 PUSH1 0x1 ADD PUSH2 0x4F9B JUMP JUMPDEST PUSH1 0x1 PUSH1 0x1 PUSH1 0xA0 SHL SUB DUP7 AND DUP2 MSTORE PUSH1 0xA0 PUSH1 0x20 DUP3 ADD DUP2 SWAP1 MSTORE PUSH0 SWAP1 PUSH2 0x50FF SWAP1 DUP4 ADD DUP8 PUSH2 0x4988 JUMP JUMPDEST DUP3 DUP2 SUB PUSH1 0x40 DUP5 ADD MSTORE PUSH2 0x5111 DUP2 DUP8 PUSH2 0x4988 JUMP JUMPDEST SWAP1 POP DUP3 DUP2 SUB PUSH1 0x60 DUP5 ADD MSTORE PUSH2 0x5125 DUP2 DUP7 PUSH2 0x4988 JUMP JUMPDEST SWAP2 POP POP DUP3 PUSH1 0x80 DUP4 ADD MSTORE SWAP7 SWAP6 POP POP POP POP POP POP JUMP JUMPDEST PUSH0 PUSH2 0x100 DUP3 MLOAD DUP2 DUP6 MSTORE PUSH2 0x514D DUP3 DUP7 ADD DUP3 PUSH2 0x4988 JUMP JUMPDEST SWAP2 POP POP PUSH1 0x20 DUP4 ADD MLOAD PUSH2 0x516A PUSH1 0x20 DUP7 ADD DUP3 PUSH1 0x1 PUSH1 0x1 PUSH1 0xA0 SHL SUB AND SWAP1 MSTORE JUMP JUMPDEST POP PUSH1 0x40 DUP4 ADD MLOAD PUSH2 0x517E PUSH1 0x40 DUP7 ADD DUP3 ISZERO ISZERO SWAP1 MSTORE JUMP JUMPDEST POP PUSH1 0x60 DUP4 ADD MLOAD PUSH2 0x5192 PUSH1 0x60 DUP7 ADD DUP3 ISZERO ISZERO SWAP1 MSTORE JUMP JUMPDEST POP PUSH1 0x80 DUP4 ADD MLOAD PUSH2 0x51A6 PUSH1 0x80 DUP7 ADD DUP3 ISZERO ISZERO SWAP1 MSTORE JUMP JUMPDEST POP PUSH1 0xA0 DUP4 ADD MLOAD DUP5 DUP3 SUB PUSH1 0xA0 DUP7 ADD MSTORE PUSH2 0x51BE DUP3 DUP3 PUSH2 0x4988 JUMP JUMPDEST SWAP2 POP POP PUSH1 0xC0 DUP4 ADD MLOAD DUP5 DUP3 SUB PUSH1 0xC0 DUP7 ADD MSTORE PUSH2 0x51D8 DUP3 DUP3 PUSH2 0x4988 JUMP JUMPDEST SWAP2 POP POP PUSH1 0xE0 DUP4 ADD MLOAD DUP5 DUP3 SUB PUSH1 0xE0 DUP7 ADD MSTORE PUSH2 0x4F6D DUP3 DUP3 PUSH2 0x4988 JUMP JUMPDEST PUSH1 0x40 DUP2 MSTORE PUSH0 DUP4 MLOAD PUSH2 0x160 DUP1 PUSH1 0x40 DUP6 ADD MSTORE PUSH2 0x5210 PUSH2 0x1A0 DUP6 ADD DUP4 PUSH2 0x4988 JUMP JUMPDEST SWAP2 POP PUSH1 0x20 DUP7 ADD MLOAD PUSH1 0x3F NOT DUP1 DUP7 DUP6 SUB ADD PUSH1 0x60 DUP8 ADD MSTORE PUSH2 0x522E DUP5 DUP4 PUSH2 0x4988 JUMP JUMPDEST SWAP4 POP PUSH1 0x40 DUP9 ADD MLOAD SWAP2 POP PUSH2 0x524C PUSH1 0x80 DUP8 ADD DUP4 PUSH1 0x1 PUSH1 0x1 PUSH1 0xA0 SHL SUB AND SWAP1 MSTORE JUMP JUMPDEST PUSH1 0x60 DUP9 ADD MLOAD SWAP2 POP DUP1 DUP7 DUP6 SUB ADD PUSH1 0xA0 DUP8 ADD MSTORE PUSH2 0x5267 DUP5 DUP4 PUSH2 0x4988 JUMP JUMPDEST SWAP4 POP PUSH1 0x80 DUP9 ADD MLOAD SWAP2 POP DUP1 DUP7 DUP6 SUB ADD PUSH1 0xC0 DUP8 ADD MSTORE PUSH2 0x5284 DUP5 DUP4 PUSH2 0x4988 JUMP JUMPDEST SWAP4 POP PUSH1 0xA0 DUP9 ADD MLOAD SWAP2 POP DUP1 DUP7 DUP6 SUB ADD PUSH1 0xE0 DUP8 ADD MSTORE PUSH2 0x52A1 DUP5 DUP4 PUSH2 0x4988 JUMP JUMPDEST SWAP4 POP PUSH1 0xC0 DUP9 ADD MLOAD SWAP2 POP PUSH2 0x100 DUP3 DUP2 DUP9 ADD MSTORE PUSH1 0xE0 DUP10 ADD MLOAD SWAP3 POP PUSH2 0x120 DUP4 DUP2 DUP10 ADD MSTORE DUP2 DUP11 ADD MLOAD SWAP4 POP PUSH2 0x140 SWAP2 POP DUP3 DUP9 DUP8 SUB ADD DUP3 DUP10 ADD MSTORE PUSH2 0x52DF DUP7 DUP6 PUSH2 0x4988 JUMP JUMPDEST SWAP1 DUP11 ADD MLOAD SWAP5 DUP9 ADD SWAP5 SWAP1 SWAP5 MSTORE DUP9 ADD MLOAD PUSH2 0x180 DUP8 ADD MSTORE POP POP DUP4 DUP2 SUB PUSH1 0x20 DUP6 ADD MSTORE SWAP1 POP PUSH2 0x4F6D DUP2 DUP6 PUSH2 0x5138 JUMP JUMPDEST PUSH0 PUSH2 0x100 DUP1 DUP4 MSTORE PUSH2 0x531C DUP2 DUP5 ADD DUP13 PUSH2 0x4988 JUMP JUMPDEST PUSH1 0x1 PUSH1 0x1 PUSH1 0xA0 SHL SUB DUP12 AND PUSH1 0x20 DUP6 ADD MSTORE DUP10 ISZERO ISZERO PUSH1 0x40 DUP6 ADD MSTORE DUP9 ISZERO ISZERO PUSH1 0x60 DUP6 ADD MSTORE DUP8 ISZERO ISZERO PUSH1 0x80 DUP6 ADD MSTORE DUP4 DUP2 SUB PUSH1 0xA0 DUP6 ADD MSTORE SWAP1 POP PUSH2 0x5357 DUP2 DUP8 PUSH2 0x4988 JUMP JUMPDEST SWAP1 POP DUP3 DUP2 SUB PUSH1 0xC0 DUP5 ADD MSTORE PUSH2 0x536B DUP2 DUP7 PUSH2 0x4988 JUMP JUMPDEST SWAP1 POP DUP3 DUP2 SUB PUSH1 0xE0 DUP5 ADD MSTORE PUSH2 0x537F DUP2 DUP6 PUSH2 0x4988 JUMP JUMPDEST SWAP12 SWAP11 POP POP POP POP POP POP POP POP POP POP POP JUMP JUMPDEST PUSH1 0x20 DUP1 DUP3 MSTORE DUP3 MLOAD PUSH1 0x1 PUSH1 0x1 PUSH1 0xA0 SHL SUB AND DUP3 DUP3 ADD MSTORE DUP3 ADD MLOAD PUSH1 0xA0 PUSH1 0x40 DUP4 ADD MSTORE PUSH0 SWAP1 PUSH2 0x53BB PUSH1 0xC0 DUP5 ADD DUP3 PUSH2 0x4988 JUMP JUMPDEST SWAP1 POP PUSH1 0x40 DUP5 ADD MLOAD PUSH1 0x1F NOT DUP1 DUP6 DUP5 SUB ADD PUSH1 0x60 DUP7 ADD MSTORE PUSH2 0x53D9 DUP4 DUP4 PUSH2 0x4988 JUMP JUMPDEST SWAP3 POP PUSH1 0x60 DUP7 ADD MLOAD SWAP2 POP DUP1 DUP6 DUP5 SUB ADD PUSH1 0x80 DUP7 ADD MSTORE POP PUSH2 0x53F7 DUP3 DUP3 PUSH2 0x4988 JUMP JUMPDEST SWAP2 POP POP PUSH1 0x80 DUP5 ADD MLOAD PUSH1 0xA0 DUP5 ADD MSTORE DUP1 SWAP2 POP POP SWAP3 SWAP2 POP POP JUMP JUMPDEST PUSH0 PUSH2 0x160 DUP1 DUP4 MSTORE PUSH2 0x5421 DUP2 DUP5 ADD DUP16 PUSH2 0x4988 JUMP JUMPDEST SWAP1 POP DUP3 DUP2 SUB PUSH1 0x20 DUP5 ADD MSTORE PUSH2 0x5435 DUP2 DUP15 PUSH2 0x4988 JUMP JUMPDEST PUSH1 0x1 PUSH1 0x1 PUSH1 0xA0 SHL SUB DUP14 AND PUSH1 0x40 DUP6 ADD MSTORE SWAP1 POP PUSH1 0x1 PUSH1 0x1 PUSH1 0xA0 SHL SUB DUP12 AND PUSH1 0x60 DUP5 ADD MSTORE DUP3 DUP2 SUB PUSH1 0x80 DUP5 ADD MSTORE PUSH2 0x5467 DUP2 DUP12 PUSH2 0x4988 JUMP JUMPDEST SWAP1 POP DUP3 DUP2 SUB PUSH1 0xA0 DUP5 ADD MSTORE PUSH2 0x547B DUP2 DUP11 PUSH2 0x4988 JUMP JUMPDEST SWAP1 POP DUP3 DUP2 SUB PUSH1 0xC0 DUP5 ADD MSTORE PUSH2 0x548F DUP2 DUP10 PUSH2 0x4988 JUMP JUMPDEST SWAP1 POP DUP3 DUP2 SUB PUSH1 0xE0 DUP5 ADD MSTORE PUSH2 0x54A3 DUP2 DUP9 PUSH2 0x4988 JUMP JUMPDEST SWAP1 POP DUP3 DUP2 SUB PUSH2 0x100 DUP5 ADD MSTORE PUSH2 0x54B8 DUP2 DUP8 PUSH2 0x4988 JUMP JUMPDEST SWAP1 POP DUP3 DUP2 SUB PUSH2 0x120 DUP5 ADD MSTORE PUSH2 0x54CD DUP2 DUP7 PUSH2 0x4988 JUMP JUMPDEST SWAP1 POP DUP3 DUP2 SUB PUSH2 0x140 DUP5 ADD MSTORE PUSH2 0x54E2 DUP2 DUP6 PUSH2 0x4988 JUMP JUMPDEST SWAP15 SWAP14 POP POP POP POP POP POP POP POP POP POP POP POP POP POP JUMP JUMPDEST PUSH1 0x20 DUP1 DUP3 MSTORE PUSH1 0x2A SWAP1 DUP3 ADD MSTORE PUSH32 0x41636365737365626C65206F6E6C7920666F72204F776E65727320616E642053 PUSH1 0x40 DUP3 ADD MSTORE PUSH10 0x757065724F776E657273 PUSH1 0xB0 SHL PUSH1 0x60 DUP3 ADD MSTORE PUSH1 0x80 ADD SWAP1 JUMP JUMPDEST PUSH4 0x4E487B71 PUSH1 0xE0 SHL PUSH0 MSTORE PUSH1 0x11 PUSH1 0x4 MSTORE PUSH1 0x24 PUSH0 REVERT JUMPDEST DUP1 DUP3 ADD DUP1 DUP3 GT ISZERO PUSH2 0x1EB8 JUMPI PUSH2 0x1EB8 PUSH2 0x553E JUMP JUMPDEST DUP2 DUP2 SUB DUP2 DUP2 GT ISZERO PUSH2 0x1EB8 JUMPI PUSH2 0x1EB8 PUSH2 0x553E JUMP JUMPDEST PUSH1 0x20 DUP1 DUP3 MSTORE PUSH1 0x42 SWAP1 DUP3 ADD MSTORE PUSH32 0x4F6E6C792074686520446F63746F72732063616E2063616C6C20746869732066 PUSH1 0x40 DUP3 ADD MSTORE PUSH32 0x756E6374696F6E2064756520746F20736563757269747920726561736F6E7321 PUSH1 0x60 DUP3 ADD MSTORE PUSH2 0x2121 PUSH1 0xF0 SHL PUSH1 0x80 DUP3 ADD MSTORE PUSH1 0xA0 ADD SWAP1 JUMP JUMPDEST PUSH1 0x1 DUP2 DUP2 SHR SWAP1 DUP3 AND DUP1 PUSH2 0x55F4 JUMPI PUSH1 0x7F DUP3 AND SWAP2 POP JUMPDEST PUSH1 0x20 DUP3 LT DUP2 SUB PUSH2 0x5612 JUMPI PUSH4 0x4E487B71 PUSH1 0xE0 SHL PUSH0 MSTORE PUSH1 0x22 PUSH1 0x4 MSTORE PUSH1 0x24 PUSH0 REVERT JUMPDEST POP SWAP2 SWAP1 POP JUMP JUMPDEST PUSH1 0x1F DUP3 GT ISZERO PUSH2 0x5661 JUMPI PUSH0 DUP2 DUP2 MSTORE PUSH1 0x20 DUP2 KECCAK256 PUSH1 0x1F DUP6 ADD PUSH1 0x5 SHR DUP2 ADD PUSH1 0x20 DUP7 LT ISZERO PUSH2 0x563E JUMPI POP DUP1 JUMPDEST PUSH1 0x1F DUP6 ADD PUSH1 0x5 SHR DUP3 ADD SWAP2 POP JUMPDEST DUP2 DUP2 LT ISZERO PUSH2 0x565D JUMPI DUP3 DUP2 SSTORE PUSH1 0x1 ADD PUSH2 0x564A JUMP JUMPDEST POP POP POP JUMPDEST POP POP POP JUMP JUMPDEST DUP2 MLOAD PUSH8 0xFFFFFFFFFFFFFFFF DUP2 GT ISZERO PUSH2 0x5680 JUMPI PUSH2 0x5680 PUSH2 0x46C4 JUMP JUMPDEST PUSH2 0x5694 DUP2 PUSH2 0x568E DUP5 SLOAD PUSH2 0x55E0 JUMP JUMPDEST DUP5 PUSH2 0x5618 JUMP JUMPDEST PUSH1 0x20 DUP1 PUSH1 0x1F DUP4 GT PUSH1 0x1 DUP2 EQ PUSH2 0x56C7 JUMPI PUSH0 DUP5 ISZERO PUSH2 0x56B0 JUMPI POP DUP6 DUP4 ADD MLOAD JUMPDEST PUSH0 NOT PUSH1 0x3 DUP7 SWAP1 SHL SHR NOT AND PUSH1 0x1 DUP6 SWAP1 SHL OR DUP6 SSTORE PUSH2 0x565D JUMP JUMPDEST PUSH0 DUP6 DUP2 MSTORE PUSH1 0x20 DUP2 KECCAK256 PUSH1 0x1F NOT DUP7 AND SWAP2 JUMPDEST DUP3 DUP2 LT ISZERO PUSH2 0x56F5 JUMPI DUP9 DUP7 ADD MLOAD DUP3 SSTORE SWAP5 DUP5 ADD SWAP5 PUSH1 0x1 SWAP1 SWAP2 ADD SWAP1 DUP5 ADD PUSH2 0x56D6 JUMP JUMPDEST POP DUP6 DUP3 LT ISZERO PUSH2 0x5712 JUMPI DUP8 DUP6 ADD MLOAD PUSH0 NOT PUSH1 0x3 DUP9 SWAP1 SHL PUSH1 0xF8 AND SHR NOT AND DUP2 SSTORE JUMPDEST POP POP POP POP POP PUSH1 0x1 SWAP1 DUP2 SHL ADD SWAP1 SSTORE POP JUMP JUMPDEST PUSH1 0x20 DUP1 DUP3 MSTORE PUSH1 0x2F SWAP1 DUP3 ADD MSTORE PUSH32 0x4B696E646C792066696C6C20616C6C20746865206D616E6461746F7279206665 PUSH1 0x40 DUP3 ADD MSTORE PUSH15 0x696C64732070726F7065726C792121 PUSH1 0x88 SHL PUSH1 0x60 DUP3 ADD MSTORE PUSH1 0x80 ADD SWAP1 JUMP JUMPDEST PUSH1 0x20 DUP1 DUP3 MSTORE PUSH1 0x6C SWAP1 DUP3 ADD MSTORE PUSH32 0x496E636F727265637420446F63746F7227732077616C6C657420616464726573 PUSH1 0x40 DUP3 ADD MSTORE PUSH32 0x73206F722054686520446F63746F722064657461696C20666F72207468652061 PUSH1 0x60 DUP3 ADD MSTORE PUSH32 0x6464726573732070726F7669646564206E6F7420617661696C61626C6520696E PUSH1 0x80 DUP3 ADD MSTORE PUSH12 0x2074686520636861696E2121 PUSH1 0xA0 SHL PUSH1 0xA0 DUP3 ADD MSTORE PUSH1 0xC0 ADD SWAP1 JUMP JUMPDEST PUSH1 0x20 DUP1 DUP3 MSTORE PUSH1 0x26 SWAP1 DUP3 ADD MSTORE PUSH32 0x4B696E646C792066696C6C20616C6C20746865206D616E6461746F7279206665 PUSH1 0x40 DUP3 ADD MSTORE PUSH6 0x696C64732121 PUSH1 0xD0 SHL PUSH1 0x60 DUP3 ADD MSTORE PUSH1 0x80 ADD SWAP1 JUMP JUMPDEST PUSH1 0x20 DUP1 DUP3 MSTORE PUSH1 0x6C SWAP1 DUP3 ADD MSTORE PUSH32 0x496E636F72726563742050617469656E742077616C6C65742061646472657373 PUSH1 0x40 DUP3 ADD MSTORE PUSH32 0x206F72205468652050617469656E742064657461696C20666F72207468652061 PUSH1 0x60 DUP3 ADD MSTORE PUSH32 0x6464726573732070726F7669646564206E6F7420617661696C61626C6520696E PUSH1 0x80 DUP3 ADD MSTORE PUSH12 0x2074686520636861696E2121 PUSH1 0xA0 SHL PUSH1 0xA0 DUP3 ADD MSTORE PUSH1 0xC0 ADD SWAP1 JUMP JUMPDEST PUSH0 PUSH1 0x1 DUP3 ADD PUSH2 0x58F8 JUMPI PUSH2 0x58F8 PUSH2 0x553E JUMP JUMPDEST POP PUSH1 0x1 ADD SWAP1 JUMP JUMPDEST PUSH0 DUP3 PUSH2 0x5919 JUMPI PUSH4 0x4E487B71 PUSH1 0xE0 SHL PUSH0 MSTORE PUSH1 0x12 PUSH1 0x4 MSTORE PUSH1 0x24 PUSH0 REVERT JUMPDEST POP DIV SWAP1 JUMP JUMPDEST PUSH1 0x20 DUP1 DUP3 MSTORE PUSH1 0x1E SWAP1 DUP3 ADD MSTORE PUSH32 0x57616C6C657420416464726573732063616E6E6F7420626520656D7074790000 PUSH1 0x40 DUP3 ADD MSTORE PUSH1 0x60 ADD SWAP1 JUMP JUMPDEST PUSH1 0x20 DUP1 DUP3 MSTORE PUSH1 0x78 SWAP1 DUP3 ADD MSTORE PUSH32 0x496E636F727265637420446F63746F722077616C6C6574206164647265737320 PUSH1 0x40 DUP3 ADD MSTORE PUSH32 0x6F722054686520446F63746F722064657461696C20666F722074686520616464 PUSH1 0x60 DUP3 ADD MSTORE PUSH32 0x726573732070726F7669646564206973206E6F7420636F6D706C6574656C7920 PUSH1 0x80 DUP3 ADD MSTORE PUSH32 0x617661696C61626C6520696E2074686520636861696E21210000000000000000 PUSH1 0xA0 DUP3 ADD MSTORE PUSH1 0xC0 ADD SWAP1 JUMP JUMPDEST PUSH1 0x20 DUP1 DUP3 MSTORE PUSH1 0x27 SWAP1 DUP3 ADD MSTORE PUSH32 0x596F752068617665206E6F2061636365737320746F2066657463682074686520 PUSH1 0x40 DUP3 ADD MSTORE PUSH7 0x64657461696C73 PUSH1 0xC8 SHL PUSH1 0x60 DUP3 ADD MSTORE PUSH1 0x80 ADD SWAP1 JUMP INVALID LOG2 PUSH5 0x6970667358 0x22 SLT KECCAK256 MULMOD LOG2 SGT 0xB5 LOG0 JUMPI SWAP16 0xEA 0xCE 0x29 0xD8 DUP12 0x29 0xCD 0xD1 PUSH7 0xE31155DC8BA032 0xA9 STATICCALL PUSH15 0x8D91BD6D1D7E64736F6C6343000815 STOP CALLER "},"methodIdentifiers":{"AddDoctorAccess(address)":"686e1f1b","AddDoctorPersonalInfo(string,address,string,uint256,uint256,string)":"a49b1725","AddDoctorProfessionalInfo(address,string,string,uint256,string)":"92b3141d","AddPatientsMedicalDetails(string,address,bool,bool,bool,string,string,string)":"66adec56","AddPatientsPersonalDetails(string,string,address,string,string,string,uint256,uint256,string,uint256,uint256)":"9cd3f9a4","DeleteDoctorAccess(address)":"04028017","DoctorAccess(address)":"bb7d6b67","DoctorsPersonalInfo(address)":"75c6a96c","Doctors_ProfessionalDetails(address)":"bbcaa637","EditDoctorPersonalDetails(string,address,string,uint256,uint256,string)":"1a757712","EditDoctorProfessionalDetails(address,string,string,uint256,string)":"48e64d80","EditPatientPersonalDetails(string,string,address,string,string,string,uint256,uint256,string,uint256,uint256)":"ccf0c1b5","EditPatinetMedicalDetails(string,address,bool,bool,bool,string,string,string)":"34a9e6eb","HealthCondition(address,uint256)":"fe0c2a31","PatientsMedicalDetails(address)":"f243cc6a","PatientsPersonalDetails(address)":"1f650cc9","StorePatientData(string,address,string)":"1f6d15fc","addOwner(address)":"7065cb48","addPatientHealthDetails(string,string,address,address,string,string,string,string,string,string,string)":"163972a3","getAge(uint256)":"0e37008a","getDoctorPersonalDetails(address)":"a96a6b21","getDoctorProfessionalDetails(address)":"f7e901d3","getPatientDetails(address)":"efe2ccc1","getPatientHealthDetails(address)":"b5f63ec5","getPatientStored(address)":"55d2df12","getYear(uint256)":"92d66313","isDoctor(address)":"996440c6","isOwner(address)":"2f54bf6e","isPatient(address)":"8f9c79ed","owner(address)":"666e1b39","patientsStoredData(address,uint256)":"6e2c0ffe","removeOwner(address)":"173825d9","superOwner()":"87dcd2b6","totalAdmin()":"64319e33","totalDoctors()":"65b44d7e","totalPatient()":"92c2808f"}}}}}