{
  "_format": "hh-sol-artifact-1",
  "contractName": "PatientDetails",
  "sourceName": "src/contracts/Patient.sol",
  "abi": [
    {
      "inputs": [],
      "stateMutability": "nonpayable",
      "type": "constructor"
    },
    {
      "inputs": [
        {
          "internalType": "address",
          "name": "_walletAddress",
          "type": "address"
        }
      ],
      "name": "AddDoctorAccess",
      "outputs": [],
      "stateMutability": "nonpayable",
      "type": "function"
    },
    {
      "inputs": [
        {
          "internalType": "string",
          "name": "_name",
          "type": "string"
        },
        {
          "internalType": "address",
          "name": "_walletAddress",
          "type": "address"
        },
        {
          "internalType": "string",
          "name": "_dateOfBirth",
          "type": "string"
        },
        {
          "internalType": "uint256",
          "name": "_age",
          "type": "uint256"
        },
        {
          "internalType": "uint256",
          "name": "_phoneNumber",
          "type": "uint256"
        },
        {
          "internalType": "string",
          "name": "_email",
          "type": "string"
        }
      ],
      "name": "AddDoctorPersonalInfo",
      "outputs": [],
      "stateMutability": "nonpayable",
      "type": "function"
    },
    {
      "inputs": [
        {
          "internalType": "address",
          "name": "_walletAddress",
          "type": "address"
        },
        {
          "internalType": "string",
          "name": "_MedicalLicenseNumber",
          "type": "string"
        },
        {
          "internalType": "string",
          "name": "_Specialization",
          "type": "string"
        },
        {
          "internalType": "uint256",
          "name": "_ExperienceInYear",
          "type": "uint256"
        },
        {
          "internalType": "string",
          "name": "_MedicalSchoolAttended",
          "type": "string"
        }
      ],
      "name": "AddDoctorProfessionalInfo",
      "outputs": [],
      "stateMutability": "nonpayable",
      "type": "function"
    },
    {
      "inputs": [
        {
          "internalType": "string",
          "name": "_date",
          "type": "string"
        },
        {
          "internalType": "address",
          "name": "_walletAddress",
          "type": "address"
        },
        {
          "internalType": "bool",
          "name": "_isAlcoholic",
          "type": "bool"
        },
        {
          "internalType": "bool",
          "name": "_isSmoker",
          "type": "bool"
        },
        {
          "internalType": "bool",
          "name": "_isSmokelessTobaccoUser",
          "type": "bool"
        },
        {
          "internalType": "string",
          "name": "_surgicalHistory_ifAny",
          "type": "string"
        },
        {
          "internalType": "string",
          "name": "_physicalActivityLevel",
          "type": "string"
        },
        {
          "internalType": "string",
          "name": "_pastMedicationDetails_IfAny",
          "type": "string"
        }
      ],
      "name": "AddPatientsMedicalDetails",
      "outputs": [],
      "stateMutability": "nonpayable",
      "type": "function"
    },
    {
      "inputs": [
        {
          "internalType": "string",
          "name": "date",
          "type": "string"
        },
        {
          "internalType": "string",
          "name": "_name",
          "type": "string"
        },
        {
          "internalType": "address",
          "name": "_walletAddress",
          "type": "address"
        },
        {
          "internalType": "string",
          "name": "_gender",
          "type": "string"
        },
        {
          "internalType": "string",
          "name": "_Occupation",
          "type": "string"
        },
        {
          "internalType": "string",
          "name": "_dateOfBirth",
          "type": "string"
        },
        {
          "internalType": "uint256",
          "name": "_age",
          "type": "uint256"
        },
        {
          "internalType": "uint256",
          "name": "number",
          "type": "uint256"
        },
        {
          "internalType": "string",
          "name": "_bloodGrp",
          "type": "string"
        },
        {
          "internalType": "uint256",
          "name": "_height",
          "type": "uint256"
        },
        {
          "internalType": "uint256",
          "name": "_weight",
          "type": "uint256"
        }
      ],
      "name": "AddPatientsPersonalDetails",
      "outputs": [],
      "stateMutability": "nonpayable",
      "type": "function"
    },
    {
      "inputs": [
        {
          "internalType": "address",
          "name": "_walletAddress",
          "type": "address"
        }
      ],
      "name": "DeleteDoctorAccess",
      "outputs": [],
      "stateMutability": "nonpayable",
      "type": "function"
    },
    {
      "inputs": [
        {
          "internalType": "address",
          "name": "",
          "type": "address"
        }
      ],
      "name": "DoctorAccess",
      "outputs": [
        {
          "internalType": "bool",
          "name": "",
          "type": "bool"
        }
      ],
      "stateMutability": "view",
      "type": "function"
    },
    {
      "inputs": [
        {
          "internalType": "address",
          "name": "",
          "type": "address"
        }
      ],
      "name": "DoctorsPersonalInfo",
      "outputs": [
        {
          "internalType": "string",
          "name": "name",
          "type": "string"
        },
        {
          "internalType": "address",
          "name": "walletAddress",
          "type": "address"
        },
        {
          "internalType": "string",
          "name": "dateOfBirth",
          "type": "string"
        },
        {
          "internalType": "uint256",
          "name": "age",
          "type": "uint256"
        },
        {
          "internalType": "uint256",
          "name": "phoneNumber",
          "type": "uint256"
        },
        {
          "internalType": "string",
          "name": "email",
          "type": "string"
        }
      ],
      "stateMutability": "view",
      "type": "function"
    },
    {
      "inputs": [
        {
          "internalType": "address",
          "name": "",
          "type": "address"
        }
      ],
      "name": "Doctors_ProfessionalDetails",
      "outputs": [
        {
          "internalType": "address",
          "name": "walletAddress",
          "type": "address"
        },
        {
          "internalType": "string",
          "name": "MedicalSchoolAttended",
          "type": "string"
        },
        {
          "internalType": "string",
          "name": "MedicalLicenseNumber",
          "type": "string"
        },
        {
          "internalType": "string",
          "name": "Specialization",
          "type": "string"
        },
        {
          "internalType": "uint256",
          "name": "ExperienceInYear",
          "type": "uint256"
        }
      ],
      "stateMutability": "view",
      "type": "function"
    },
    {
      "inputs": [
        {
          "internalType": "string",
          "name": "_name",
          "type": "string"
        },
        {
          "internalType": "address",
          "name": "_walletAddress",
          "type": "address"
        },
        {
          "internalType": "string",
          "name": "_dateOfBirth",
          "type": "string"
        },
        {
          "internalType": "uint256",
          "name": "_age",
          "type": "uint256"
        },
        {
          "internalType": "uint256",
          "name": "_phoneNumber",
          "type": "uint256"
        },
        {
          "internalType": "string",
          "name": "_email",
          "type": "string"
        }
      ],
      "name": "EditDoctorPersonalDetails",
      "outputs": [],
      "stateMutability": "nonpayable",
      "type": "function"
    },
    {
      "inputs": [
        {
          "internalType": "address",
          "name": "_walletAddress",
          "type": "address"
        },
        {
          "internalType": "string",
          "name": "_MedicalLicenseNumber",
          "type": "string"
        },
        {
          "internalType": "string",
          "name": "_Specialization",
          "type": "string"
        },
        {
          "internalType": "uint256",
          "name": "_ExperienceInYear",
          "type": "uint256"
        },
        {
          "internalType": "string",
          "name": "_MedicalSchoolAttended",
          "type": "string"
        }
      ],
      "name": "EditDoctorProfessionalDetails",
      "outputs": [],
      "stateMutability": "nonpayable",
      "type": "function"
    },
    {
      "inputs": [
        {
          "internalType": "string",
          "name": "_date",
          "type": "string"
        },
        {
          "internalType": "string",
          "name": "_name",
          "type": "string"
        },
        {
          "internalType": "address",
          "name": "_walletAddress",
          "type": "address"
        },
        {
          "internalType": "string",
          "name": "_gender",
          "type": "string"
        },
        {
          "internalType": "string",
          "name": "_Occupation",
          "type": "string"
        },
        {
          "internalType": "string",
          "name": "_dateOfBirth",
          "type": "string"
        },
        {
          "internalType": "uint256",
          "name": "_age",
          "type": "uint256"
        },
        {
          "internalType": "uint256",
          "name": "number",
          "type": "uint256"
        },
        {
          "internalType": "string",
          "name": "_bloodGrp",
          "type": "string"
        },
        {
          "internalType": "uint256",
          "name": "_height",
          "type": "uint256"
        },
        {
          "internalType": "uint256",
          "name": "_weight",
          "type": "uint256"
        }
      ],
      "name": "EditPatientPersonalDetails",
      "outputs": [],
      "stateMutability": "nonpayable",
      "type": "function"
    },
    {
      "inputs": [
        {
          "internalType": "string",
          "name": "_date",
          "type": "string"
        },
        {
          "internalType": "address",
          "name": "_walletAddress",
          "type": "address"
        },
        {
          "internalType": "bool",
          "name": "_isAlcoholic",
          "type": "bool"
        },
        {
          "internalType": "bool",
          "name": "_isSmoker",
          "type": "bool"
        },
        {
          "internalType": "bool",
          "name": "_isSmokelessTobaccoUser",
          "type": "bool"
        },
        {
          "internalType": "string",
          "name": "_surgicalHistory_ifAny",
          "type": "string"
        },
        {
          "internalType": "string",
          "name": "_physicalActivityLevel",
          "type": "string"
        },
        {
          "internalType": "string",
          "name": "_pastMedicationDetails_IfAny",
          "type": "string"
        }
      ],
      "name": "EditPatinetMedicalDetails",
      "outputs": [],
      "stateMutability": "nonpayable",
      "type": "function"
    },
    {
      "inputs": [
        {
          "internalType": "address",
          "name": "",
          "type": "address"
        },
        {
          "internalType": "uint256",
          "name": "",
          "type": "uint256"
        }
      ],
      "name": "HealthCondition",
      "outputs": [
        {
          "internalType": "string",
          "name": "healthIssue",
          "type": "string"
        },
        {
          "internalType": "string",
          "name": "date",
          "type": "string"
        },
        {
          "internalType": "address",
          "name": "walletAddress",
          "type": "address"
        },
        {
          "internalType": "address",
          "name": "physician",
          "type": "address"
        },
        {
          "internalType": "string",
          "name": "Department_uint",
          "type": "string"
        },
        {
          "internalType": "string",
          "name": "BloodPressure",
          "type": "string"
        },
        {
          "internalType": "string",
          "name": "HeartRate",
          "type": "string"
        },
        {
          "internalType": "string",
          "name": "GlucoseLevel",
          "type": "string"
        },
        {
          "internalType": "string",
          "name": "bodyTemperature",
          "type": "string"
        },
        {
          "internalType": "string",
          "name": "checkupDescription",
          "type": "string"
        },
        {
          "internalType": "string",
          "name": "medicinesPrescribed",
          "type": "string"
        }
      ],
      "stateMutability": "view",
      "type": "function"
    },
    {
      "inputs": [
        {
          "internalType": "address",
          "name": "",
          "type": "address"
        }
      ],
      "name": "PatientsMedicalDetails",
      "outputs": [
        {
          "internalType": "string",
          "name": "date",
          "type": "string"
        },
        {
          "internalType": "address",
          "name": "walletAddress",
          "type": "address"
        },
        {
          "internalType": "bool",
          "name": "isAlcoholic",
          "type": "bool"
        },
        {
          "internalType": "bool",
          "name": "isSmoker",
          "type": "bool"
        },
        {
          "internalType": "bool",
          "name": "isSmokelessTobaccoUser",
          "type": "bool"
        },
        {
          "internalType": "string",
          "name": "surgicalHistory_ifAny",
          "type": "string"
        },
        {
          "internalType": "string",
          "name": "physicalActivityLevel",
          "type": "string"
        },
        {
          "internalType": "string",
          "name": "pastMedicationDetails_IfAny",
          "type": "string"
        }
      ],
      "stateMutability": "view",
      "type": "function"
    },
    {
      "inputs": [
        {
          "internalType": "address",
          "name": "",
          "type": "address"
        }
      ],
      "name": "PatientsPersonalDetails",
      "outputs": [
        {
          "internalType": "string",
          "name": "date",
          "type": "string"
        },
        {
          "internalType": "string",
          "name": "name",
          "type": "string"
        },
        {
          "internalType": "address",
          "name": "walletAddress",
          "type": "address"
        },
        {
          "internalType": "string",
          "name": "gender",
          "type": "string"
        },
        {
          "internalType": "string",
          "name": "Occupation",
          "type": "string"
        },
        {
          "internalType": "string",
          "name": "dateOfBirth",
          "type": "string"
        },
        {
          "internalType": "uint256",
          "name": "age",
          "type": "uint256"
        },
        {
          "internalType": "uint256",
          "name": "phoneNumber",
          "type": "uint256"
        },
        {
          "internalType": "string",
          "name": "bloodGroup",
          "type": "string"
        },
        {
          "internalType": "uint256",
          "name": "height",
          "type": "uint256"
        },
        {
          "internalType": "uint256",
          "name": "weight",
          "type": "uint256"
        }
      ],
      "stateMutability": "view",
      "type": "function"
    },
    {
      "inputs": [
        {
          "internalType": "string",
          "name": "_dataURL",
          "type": "string"
        },
        {
          "internalType": "address",
          "name": "user",
          "type": "address"
        }
      ],
      "name": "StorePatientData",
      "outputs": [],
      "stateMutability": "nonpayable",
      "type": "function"
    },
    {
      "inputs": [
        {
          "internalType": "address",
          "name": "_address",
          "type": "address"
        }
      ],
      "name": "addOwner",
      "outputs": [],
      "stateMutability": "nonpayable",
      "type": "function"
    },
    {
      "inputs": [
        {
          "internalType": "string",
          "name": "_healthIssue",
          "type": "string"
        },
        {
          "internalType": "string",
          "name": "_date",
          "type": "string"
        },
        {
          "internalType": "address",
          "name": "_walletAddress",
          "type": "address"
        },
        {
          "internalType": "address",
          "name": "_physician",
          "type": "address"
        },
        {
          "internalType": "string",
          "name": "_Department_uint",
          "type": "string"
        },
        {
          "internalType": "string",
          "name": "_BloodPressure",
          "type": "string"
        },
        {
          "internalType": "string",
          "name": "_HeartRate",
          "type": "string"
        },
        {
          "internalType": "string",
          "name": "_glucoseLevel",
          "type": "string"
        },
        {
          "internalType": "string",
          "name": "_bodyTemperature",
          "type": "string"
        },
        {
          "internalType": "string",
          "name": "_checkupDescription",
          "type": "string"
        },
        {
          "internalType": "string",
          "name": "_medicinesPrescribed",
          "type": "string"
        }
      ],
      "name": "addPatientHealthDetails",
      "outputs": [],
      "stateMutability": "nonpayable",
      "type": "function"
    },
    {
      "inputs": [
        {
          "internalType": "uint256",
          "name": "_yearOfBirth",
          "type": "uint256"
        }
      ],
      "name": "getAge",
      "outputs": [
        {
          "internalType": "uint256",
          "name": "",
          "type": "uint256"
        }
      ],
      "stateMutability": "view",
      "type": "function"
    },
    {
      "inputs": [
        {
          "internalType": "address",
          "name": "_walletAddress",
          "type": "address"
        }
      ],
      "name": "getDoctorPersonalDetails",
      "outputs": [
        {
          "components": [
            {
              "internalType": "string",
              "name": "name",
              "type": "string"
            },
            {
              "internalType": "address",
              "name": "walletAddress",
              "type": "address"
            },
            {
              "internalType": "string",
              "name": "dateOfBirth",
              "type": "string"
            },
            {
              "internalType": "uint256",
              "name": "age",
              "type": "uint256"
            },
            {
              "internalType": "uint256",
              "name": "phoneNumber",
              "type": "uint256"
            },
            {
              "internalType": "string",
              "name": "email",
              "type": "string"
            }
          ],
          "internalType": "struct PatientDetails.DoctorPersonalInfo",
          "name": "",
          "type": "tuple"
        }
      ],
      "stateMutability": "view",
      "type": "function"
    },
    {
      "inputs": [
        {
          "internalType": "address",
          "name": "_walletAddress",
          "type": "address"
        }
      ],
      "name": "getDoctorProfessionalDetails",
      "outputs": [
        {
          "components": [
            {
              "internalType": "address",
              "name": "walletAddress",
              "type": "address"
            },
            {
              "internalType": "string",
              "name": "MedicalSchoolAttended",
              "type": "string"
            },
            {
              "internalType": "string",
              "name": "MedicalLicenseNumber",
              "type": "string"
            },
            {
              "internalType": "string",
              "name": "Specialization",
              "type": "string"
            },
            {
              "internalType": "uint256",
              "name": "ExperienceInYear",
              "type": "uint256"
            }
          ],
          "internalType": "struct PatientDetails.DoctorProfessionalDetails",
          "name": "",
          "type": "tuple"
        }
      ],
      "stateMutability": "view",
      "type": "function"
    },
    {
      "inputs": [
        {
          "internalType": "address",
          "name": "_walletAddress",
          "type": "address"
        }
      ],
      "name": "getPatientDetails",
      "outputs": [
        {
          "components": [
            {
              "internalType": "string",
              "name": "date",
              "type": "string"
            },
            {
              "internalType": "string",
              "name": "name",
              "type": "string"
            },
            {
              "internalType": "address",
              "name": "walletAddress",
              "type": "address"
            },
            {
              "internalType": "string",
              "name": "gender",
              "type": "string"
            },
            {
              "internalType": "string",
              "name": "Occupation",
              "type": "string"
            },
            {
              "internalType": "string",
              "name": "dateOfBirth",
              "type": "string"
            },
            {
              "internalType": "uint256",
              "name": "age",
              "type": "uint256"
            },
            {
              "internalType": "uint256",
              "name": "phoneNumber",
              "type": "uint256"
            },
            {
              "internalType": "string",
              "name": "bloodGroup",
              "type": "string"
            },
            {
              "internalType": "uint256",
              "name": "height",
              "type": "uint256"
            },
            {
              "internalType": "uint256",
              "name": "weight",
              "type": "uint256"
            }
          ],
          "internalType": "struct PatientDetails.PatientPersonalDetails",
          "name": "",
          "type": "tuple"
        },
        {
          "components": [
            {
              "internalType": "string",
              "name": "date",
              "type": "string"
            },
            {
              "internalType": "address",
              "name": "walletAddress",
              "type": "address"
            },
            {
              "internalType": "bool",
              "name": "isAlcoholic",
              "type": "bool"
            },
            {
              "internalType": "bool",
              "name": "isSmoker",
              "type": "bool"
            },
            {
              "internalType": "bool",
              "name": "isSmokelessTobaccoUser",
              "type": "bool"
            },
            {
              "internalType": "string",
              "name": "surgicalHistory_ifAny",
              "type": "string"
            },
            {
              "internalType": "string",
              "name": "physicalActivityLevel",
              "type": "string"
            },
            {
              "internalType": "string",
              "name": "pastMedicationDetails_IfAny",
              "type": "string"
            }
          ],
          "internalType": "struct PatientDetails.PatientMedicalDetails",
          "name": "",
          "type": "tuple"
        }
      ],
      "stateMutability": "view",
      "type": "function"
    },
    {
      "inputs": [
        {
          "internalType": "address",
          "name": "_walletAddress",
          "type": "address"
        }
      ],
      "name": "getPatientHealthDetails",
      "outputs": [
        {
          "components": [
            {
              "internalType": "string",
              "name": "healthIssue",
              "type": "string"
            },
            {
              "internalType": "string",
              "name": "date",
              "type": "string"
            },
            {
              "internalType": "address",
              "name": "walletAddress",
              "type": "address"
            },
            {
              "internalType": "address",
              "name": "physician",
              "type": "address"
            },
            {
              "internalType": "string",
              "name": "Department_uint",
              "type": "string"
            },
            {
              "internalType": "string",
              "name": "BloodPressure",
              "type": "string"
            },
            {
              "internalType": "string",
              "name": "HeartRate",
              "type": "string"
            },
            {
              "internalType": "string",
              "name": "GlucoseLevel",
              "type": "string"
            },
            {
              "internalType": "string",
              "name": "bodyTemperature",
              "type": "string"
            },
            {
              "internalType": "string",
              "name": "checkupDescription",
              "type": "string"
            },
            {
              "internalType": "string",
              "name": "medicinesPrescribed",
              "type": "string"
            }
          ],
          "internalType": "struct PatientDetails.PatientHealthCondition[]",
          "name": "",
          "type": "tuple[]"
        }
      ],
      "stateMutability": "view",
      "type": "function"
    },
    {
      "inputs": [
        {
          "internalType": "address",
          "name": "_address",
          "type": "address"
        }
      ],
      "name": "getPatientStored",
      "outputs": [
        {
          "components": [
            {
              "internalType": "uint256",
              "name": "timestamp",
              "type": "uint256"
            },
            {
              "internalType": "string",
              "name": "cid",
              "type": "string"
            }
          ],
          "internalType": "struct PatientDetails.HealthData[]",
          "name": "",
          "type": "tuple[]"
        }
      ],
      "stateMutability": "view",
      "type": "function"
    },
    {
      "inputs": [
        {
          "internalType": "uint256",
          "name": "timestamp",
          "type": "uint256"
        }
      ],
      "name": "getYear",
      "outputs": [
        {
          "internalType": "uint256",
          "name": "",
          "type": "uint256"
        }
      ],
      "stateMutability": "pure",
      "type": "function"
    },
    {
      "inputs": [
        {
          "internalType": "address",
          "name": "_address",
          "type": "address"
        }
      ],
      "name": "isDoctor",
      "outputs": [
        {
          "internalType": "bool",
          "name": "val",
          "type": "bool"
        }
      ],
      "stateMutability": "view",
      "type": "function"
    },
    {
      "inputs": [
        {
          "internalType": "address",
          "name": "_address",
          "type": "address"
        }
      ],
      "name": "isOwner",
      "outputs": [
        {
          "internalType": "bool",
          "name": "val",
          "type": "bool"
        }
      ],
      "stateMutability": "view",
      "type": "function"
    },
    {
      "inputs": [
        {
          "internalType": "address",
          "name": "_address",
          "type": "address"
        }
      ],
      "name": "isPatient",
      "outputs": [
        {
          "internalType": "bool",
          "name": "",
          "type": "bool"
        }
      ],
      "stateMutability": "view",
      "type": "function"
    },
    {
      "inputs": [
        {
          "internalType": "address",
          "name": "",
          "type": "address"
        }
      ],
      "name": "owner",
      "outputs": [
        {
          "internalType": "bool",
          "name": "",
          "type": "bool"
        }
      ],
      "stateMutability": "view",
      "type": "function"
    },
    {
      "inputs": [
        {
          "internalType": "address",
          "name": "",
          "type": "address"
        },
        {
          "internalType": "uint256",
          "name": "",
          "type": "uint256"
        }
      ],
      "name": "patientsStoredData",
      "outputs": [
        {
          "internalType": "uint256",
          "name": "timestamp",
          "type": "uint256"
        },
        {
          "internalType": "string",
          "name": "cid",
          "type": "string"
        }
      ],
      "stateMutability": "view",
      "type": "function"
    },
    {
      "inputs": [
        {
          "internalType": "address",
          "name": "_address",
          "type": "address"
        }
      ],
      "name": "removeOwner",
      "outputs": [],
      "stateMutability": "nonpayable",
      "type": "function"
    },
    {
      "inputs": [],
      "name": "superOwner",
      "outputs": [
        {
          "internalType": "address",
          "name": "",
          "type": "address"
        }
      ],
      "stateMutability": "view",
      "type": "function"
    },
    {
      "inputs": [],
      "name": "totalAdmin",
      "outputs": [
        {
          "internalType": "uint256",
          "name": "",
          "type": "uint256"
        }
      ],
      "stateMutability": "view",
      "type": "function"
    },
    {
      "inputs": [],
      "name": "totalDoctors",
      "outputs": [
        {
          "internalType": "uint256",
          "name": "",
          "type": "uint256"
        }
      ],
      "stateMutability": "view",
      "type": "function"
    },
    {
      "inputs": [],
      "name": "totalPatient",
      "outputs": [
        {
          "internalType": "uint256",
          "name": "",
          "type": "uint256"
        }
      ],
      "stateMutability": "view",
      "type": "function"
    }
  ],
  "bytecode": "0x608060405234801561000f575f80fd5b50335f818152602081905260409020805460ff1916600190811790915580546001600160a01b03191690911790556158e9806200004b5f395ff3fe608060405234801561000f575f80fd5b5060043610610213575f3560e01c806387dcd2b61161011f578063ac46b5b7116100a9578063ccf0c1b511610079578063ccf0c1b514610510578063efe2ccc114610523578063f243cc6a14610544578063f7e901d31461056b578063fe0c2a311461058b575f80fd5b8063ac46b5b714610497578063b5f63ec5146104aa578063bb7d6b67146104ca578063bbcaa637146104ec575f80fd5b806392d66313116100ef57806392d663131461042b578063996440c61461043e5780639cd3f9a414610451578063a49b172514610464578063a96a6b2114610477575f80fd5b806387dcd2b6146103d15780638f9c79ed146103fc57806392b3141d1461040f57806392c2808f14610422575f80fd5b806355d2df12116101a057806366adec561161017057806366adec5614610352578063686e1f1b146103655780636e2c0ffe146103785780637065cb481461039957806375c6a96c146103ac575f80fd5b806355d2df12146102fe57806364319e331461031e57806365b44d7e14610327578063666e1b3914610330575f80fd5b80631a757712116101e65780631a757712146102785780631f650cc91461028b5780632f54bf6e146102b557806334a9e6eb146102d857806348e64d80146102eb575f80fd5b806304028017146102175780630e37008a1461022c578063163972a314610252578063173825d914610265575b5f80fd5b61022a61022536600461455b565b6105b5565b005b61023f61023a366004614574565b61071e565b6040519081526020015b60405180910390f35b61022a610260366004614628565b61079b565b61022a61027336600461455b565b610b93565b61022a6102863660046147ab565b610c0d565b61029e61029936600461455b565b610d94565b6040516102499b9a99989796959493929190614892565b6102c86102c336600461455b565b611118565b6040519015158152602001610249565b61022a6102e6366004614951565b611145565b61022a6102f9366004614a38565b611313565b61031161030c36600461455b565b6114ac565b6040516102499190614ad4565b61023f600a5481565b61023f60095481565b6102c861033e36600461455b565b5f6020819052908152604090205460ff1681565b61022a610360366004614951565b6115b7565b61022a61037336600461455b565b611827565b61038b610386366004614b46565b6119c7565b604051610249929190614b6e565b61022a6103a736600461455b565b611a87565b6103bf6103ba36600461455b565b611b04565b60405161024996959493929190614b8e565b6001546103e4906001600160a01b031681565b6040516001600160a01b039091168152602001610249565b6102c861040a36600461455b565b611cd8565b61022a61041d366004614a38565b611d25565b61023f600b5481565b61023f610439366004614574565b611f59565b6102c861044c36600461455b565b611f68565b61022a61045f366004614bee565b611f90565b61022a6104723660046147ab565b612255565b61048a61048536600461455b565b612468565b6040516102499190614d17565b61022a6104a5366004614d9d565b61274f565b6104bd6104b836600461455b565b6127ae565b6040516102499190614de8565b6102c86104d836600461455b565b60066020525f908152604090205460ff1681565b6104ff6104fa36600461455b565b612dec565b604051610249959493929190614f4e565b61022a61051e366004614bee565b612fb6565b61053661053136600461455b565b6131d7565b604051610249929190615064565b61055761055236600461455b565b613acf565b60405161024998979695949392919061517b565b61057e61057936600461455b565b613d3f565b6040516102499190615200565b61059e610599366004614b46565b61400d565b6040516102499b9a99989796959493929190615280565b335f9081526020819052604090205460ff16806105dc57506001546001600160a01b031633145b6106015760405162461bcd60e51b81526004016105f890615366565b60405180910390fd5b335f908152602081905260409020805460ff191660011790556001600160a01b0381166106625760405162461bcd60e51b815260206004820152600f60248201526e496e76616c6964204164647265737360881b60448201526064016105f8565b6001600160a01b0381165f9081526006602052604090205460ff166106fe5760405162461bcd60e51b815260206004820152604660248201527f50726f76696465642061646472657373206d75737420626520616e2041646d6960448201527f6e4163636573734164647265737320746f2072656d6f76652041646d696e416360648201526563657373212160d01b608482015260a4016105f8565b6001600160a01b03165f908152600660205260409020805460ff19169055565b5f8061072942611f59565b90505f83610739836107b26153c4565b61074391906153d7565b90505f81116107945760405162461bcd60e51b815260206004820152601860248201527f456e74657220636f72726563742062697274682079656172000000000000000060448201526064016105f8565b9392505050565b335f9081526006602052604081205460ff16156107b6575060015b335f9081526006602052604090205460ff166107e45760405162461bcd60e51b81526004016105f8906153ea565b6001600160a01b03808b165f818152600260208190526040909120015490911614801561082d57506001600160a01b03808b165f81815260036020526040902060010154909116145b6109115760405162461bcd60e51b815260206004820152609960248201527f496e636f72726563742050617469656e742077616c6c6574206164647265737360448201527f206f72205468652050617469656e742064657461696c2073706563696669632060648201527f746f20706572736f6e616c206f722070617374206d65646963616c206869737460848201527f6f7279206f662074686520616464726573732070726f7669646564206e6f742060a48201527f617661696c61626c6520696e2074686520636861696e2121200000000000000060c482015260e4016105f8565b6001600160a01b03808a165f81815260076020526040902060010154909116146109e35760405162461bcd60e51b815260206004820152607160248201527f496e636f72726563742050687973696369616e2077616c6c657420616464726560448201527f7373206f72205468652050687973696369616e2064657461696c20666f72207460648201527f686520616464726573732070726f7669646564206e6f7420617661696c61626c6084820152700329034b7103a34329031b430b4b710909607d1b60a482015260c4016105f8565b60045f8b6001600160a01b03166001600160a01b031681526020019081526020015f206040518061016001604052808e81526020018d81526020018c6001600160a01b031681526020018b6001600160a01b031681526020018a815260200189815260200188815260200187815260200186815260200185815260200184815250908060018154018082558091505060019003905f5260205f2090600b02015f909190919091505f820151815f019081610a9d91906154d4565b5060208201516001820190610ab290826154d4565b5060408201516002820180546001600160a01b039283166001600160a01b031991821617909155606084015160038401805491909316911617905560808201516004820190610b0190826154d4565b5060a08201516005820190610b1690826154d4565b5060c08201516006820190610b2b90826154d4565b5060e08201516007820190610b4090826154d4565b506101008201516008820190610b5690826154d4565b506101208201516009820190610b6c90826154d4565b50610140820151600a820190610b8290826154d4565b505050505050505050505050505050565b6001546001600160a01b03163314610bed5760405162461bcd60e51b815260206004820152601f60248201527f41636365737365626c65206f6e6c7920666f722053757065724f776e6572730060448201526064016105f8565b6001600160a01b03165f908152602081905260409020805460ff19169055565b335f9081526020819052604090205460ff1680610c3457506001546001600160a01b031633145b610c505760405162461bcd60e51b81526004016105f890615366565b6001600160a01b03851615801590610c6857505f8151115b8015610c7457505f8651115b610c905760405162461bcd60e51b81526004016105f890615590565b6001600160a01b038086165f8181526007602052604090206001015490911614610ccc5760405162461bcd60e51b81526004016105f8906155df565b6040805160c0810182528781526001600160a01b0387166020808301829052828401889052606083018790526080830186905260a083018590525f91825260079052919091208151859291908190610d2490826154d4565b5060208201516001820180546001600160a01b0319166001600160a01b0390921691909117905560408201516002820190610d5f90826154d4565b50606082015160038201556080820151600482015560a08201516005820190610d8890826154d4565b50505050505050505050565b60026020525f9081526040902080548190610dae90615452565b80601f0160208091040260200160405190810160405280929190818152602001828054610dda90615452565b8015610e255780601f10610dfc57610100808354040283529160200191610e25565b820191905f5260205f20905b815481529060010190602001808311610e0857829003601f168201915b505050505090806001018054610e3a90615452565b80601f0160208091040260200160405190810160405280929190818152602001828054610e6690615452565b8015610eb15780601f10610e8857610100808354040283529160200191610eb1565b820191905f5260205f20905b815481529060010190602001808311610e9457829003601f168201915b505050600284015460038501805494956001600160a01b03909216949193509150610edb90615452565b80601f0160208091040260200160405190810160405280929190818152602001828054610f0790615452565b8015610f525780601f10610f2957610100808354040283529160200191610f52565b820191905f5260205f20905b815481529060010190602001808311610f3557829003601f168201915b505050505090806004018054610f6790615452565b80601f0160208091040260200160405190810160405280929190818152602001828054610f9390615452565b8015610fde5780601f10610fb557610100808354040283529160200191610fde565b820191905f5260205f20905b815481529060010190602001808311610fc157829003601f168201915b505050505090806005018054610ff390615452565b80601f016020809104026020016040519081016040528092919081815260200182805461101f90615452565b801561106a5780601f106110415761010080835404028352916020019161106a565b820191905f5260205f20905b81548152906001019060200180831161104d57829003601f168201915b50505050509080600601549080600701549080600801805461108b90615452565b80601f01602080910402602001604051908101604052809291908181526020018280546110b790615452565b80156111025780601f106110d957610100808354040283529160200191611102565b820191905f5260205f20905b8154815290600101906020018083116110e557829003601f168201915b50505050509080600901549080600a015490508b565b6001600160a01b0381165f9081526020819052604081205460ff161561114057506001919050565b919050565b335f9081526006602052604081205460ff1615611160575060015b335f9081526006602052604090205460ff1661118e5760405162461bcd60e51b81526004016105f8906153ea565b6001600160a01b0388166111b45760405162461bcd60e51b81526004016105f890615677565b6001600160a01b038089165f8181526002602081905260409091200154909116146111f15760405162461bcd60e51b81526004016105f8906156bd565b60408051610100810182528a81526001600160a01b038a1660208083018290528a1515838501528915156060840152881515608084015260a0830188905260c0830187905260e083018690525f91825260039052919091208151819061125790826154d4565b5060208201516001820180546040850151606086015160808701511515600160b01b0260ff60b01b19911515600160a81b029190911661ffff60a81b19921515600160a01b026001600160a81b03199094166001600160a01b039096169590951792909217169290921791909117905560a082015160028201906112db90826154d4565b5060c082015160038201906112f090826154d4565b5060e0820151600482019061130590826154d4565b505050505050505050505050565b335f9081526020819052604090205460ff168061133a57506001546001600160a01b031633145b6113565760405162461bcd60e51b81526004016105f890615366565b6001600160a01b0385161580159061136e57505f8151115b801561137a57505f8451115b801561138657505f8351115b6113ca5760405162461bcd60e51b8152602060048201526015602482015274656e74657220636f72726563742064657461696c7360581b60448201526064016105f8565b6001600160a01b038086165f81815260086020526040902054909116146114035760405162461bcd60e51b81526004016105f8906155df565b6040805160a0810182526001600160a01b0387811680835260208084018681528486018a905260608501899052608085018890525f9283526008909152939020825181546001600160a01b03191692169190911781559151909190600182019061146d90826154d4565b506040820151600282019061148290826154d4565b506060820151600382019061149790826154d4565b50608082015181600401559050505050505050565b6001600160a01b0381165f908152600560209081526040808320805482518185028101850190935280835260609492939192909184015b828210156115ac578382905f5260205f2090600202016040518060400160405290815f820154815260200160018201805461151d90615452565b80601f016020809104026020016040519081016040528092919081815260200182805461154990615452565b80156115945780601f1061156b57610100808354040283529160200191611594565b820191905f5260205f20905b81548152906001019060200180831161157757829003601f168201915b505050505081525050815260200190600101906114e3565b505050509050919050565b335f9081526006602052604081205460ff16156115d2575060015b335f9081526006602052604090205460ff166116005760405162461bcd60e51b81526004016105f8906153ea565b6001600160a01b038089165f81815260036020526040902060010154909116036116a55760405162461bcd60e51b815260206004820152604a60248201527f50617469656e74206d65646963616c2064657461696c7320616c72656164792060448201527f657869737421212e204b696e646c792065646974207468652064657461696c73606482015269081a59881b995959195960b21b608482015260a4016105f8565b6001600160a01b0388166116cb5760405162461bcd60e51b81526004016105f890615677565b60408051610100810182528a81526001600160a01b038a1660208083018290528a1515838501528915156060840152881515608084015260a0830188905260c0830187905260e083018690525f91825260039052919091208151819061173190826154d4565b5060208201516001820180546040850151606086015160808701511515600160b01b0260ff60b01b19911515600160a81b029190911661ffff60a81b19921515600160a01b026001600160a81b03199094166001600160a01b039096169590951792909217169290921791909117905560a082015160028201906117b590826154d4565b5060c082015160038201906117ca90826154d4565b5060e082015160048201906117df90826154d4565b5050506001600160a01b038089165f81815260026020819052604090912001549091160361181c57600b8054905f61181683615755565b91905055505b505050505050505050565b335f9081526020819052604090205460ff168061184e57506001546001600160a01b031633145b61186a5760405162461bcd60e51b81526004016105f890615366565b335f9081526020819052604090205460ff166118df5760405162461bcd60e51b815260206004820152602e60248201527f4f6e6c79206f776e6572206861732070726976696c65676520746f206164642060448201526d6f776e657220616363657373212160901b60648201526084016105f8565b6001600160a01b0381165f9081526006602052604090205460ff16156119475760405162461bcd60e51b815260206004820181905260248201527f4164647265737320616c7265616479206861732061646d696e2061636365737360448201526064016105f8565b6001600160a01b03811661198f5760405162461bcd60e51b815260206004820152600f60248201526e496e76616c6964204164647265737360881b60448201526064016105f8565b6001600160a01b0381165f908152600660205260408120805460ff19166001179055600a8054916119bf83615755565b919050555050565b6005602052815f5260405f2081815481106119e0575f80fd5b905f5260205f2090600202015f9150915050805f015490806001018054611a0690615452565b80601f0160208091040260200160405190810160405280929190818152602001828054611a3290615452565b8015611a7d5780601f10611a5457610100808354040283529160200191611a7d565b820191905f5260205f20905b815481529060010190602001808311611a6057829003601f168201915b5050505050905082565b6001546001600160a01b03163314611ae15760405162461bcd60e51b815260206004820152601f60248201527f41636365737365626c65206f6e6c7920666f722053757065724f776e6572730060448201526064016105f8565b6001600160a01b03165f908152602081905260409020805460ff19166001179055565b60076020525f9081526040902080548190611b1e90615452565b80601f0160208091040260200160405190810160405280929190818152602001828054611b4a90615452565b8015611b955780601f10611b6c57610100808354040283529160200191611b95565b820191905f5260205f20905b815481529060010190602001808311611b7857829003601f168201915b505050600184015460028501805494956001600160a01b03909216949193509150611bbf90615452565b80601f0160208091040260200160405190810160405280929190818152602001828054611beb90615452565b8015611c365780601f10611c0d57610100808354040283529160200191611c36565b820191905f5260205f20905b815481529060010190602001808311611c1957829003601f168201915b505050505090806003015490806004015490806005018054611c5790615452565b80601f0160208091040260200160405190810160405280929190818152602001828054611c8390615452565b8015611cce5780601f10611ca557610100808354040283529160200191611cce565b820191905f5260205f20905b815481529060010190602001808311611cb157829003601f168201915b5050505050905086565b6001600160a01b038082165f818152600260208190526040822001549092161480611d1f57506001600160a01b038083165f81815260036020526040902060010154909116145b92915050565b335f9081526020819052604090205460ff1680611d4c57506001546001600160a01b031633145b611d685760405162461bcd60e51b81526004016105f890615366565b6001600160a01b038086165f8181526008602052604090205490911603611de85760405162461bcd60e51b815260206004820152602e60248201527f50687973696369616e2050726f66657373696f6e616c2064657461696c73206160448201526d6c7265616479206578697374212160901b60648201526084016105f8565b6001600160a01b038086165f8181526008602052604090205490911614801590611e1257505f8151115b8015611e1e57505f8451115b8015611e2a57505f8351115b611e6e5760405162461bcd60e51b8152602060048201526015602482015274456e74657220436f72726563742064657461696c7360581b60448201526064016105f8565b6040805160a0810182526001600160a01b0387811680835260208084018681528486018a905260608501899052608085018890525f9283526008909152939020825181546001600160a01b031916921691909117815591519091906001820190611ed890826154d4565b5060408201516002820190611eed90826154d4565b5060608201516003820190611f0290826154d4565b50608091909101516004909101556001600160a01b038086165f8181526007602052604090206001015490911603611f5257611f3d85611827565b60098054905f611f4c83615755565b91905055505b5050505050565b5f611d1f6301e133808361576d565b6001600160a01b0381165f9081526006602052604081205460ff161561114057506001919050565b335f9081526006602052604081205460ff1615611fab575060015b335f9081526006602052604090205460ff16611fd95760405162461bcd60e51b81526004016105f8906153ea565b6001600160a01b03808b165f8181526002602081905260409091200154909116036120815760405162461bcd60e51b815260206004820152604c60248201527f50617469656e742773204d65646963616c2064657461696c7320616c7265616460448201527f7920657869737421212e204b696e646c7920656469742074686520646574616960648201526b1b1cc81a59881b995959195960a21b608482015260a4016105f8565b6001600160a01b038a161580159061209957505f8951115b80156120a557505f8851115b6120c15760405162461bcd60e51b81526004016105f890615677565b5f8690506040518061016001604052808e81526020018d81526020018c6001600160a01b031681526020018b81526020018a81526020018981526020018281526020018781526020018681526020018581526020018481525060025f8d6001600160a01b03166001600160a01b031681526020019081526020015f205f820151815f01908161215091906154d4565b506020820151600182019061216590826154d4565b5060408201516002820180546001600160a01b0319166001600160a01b03909216919091179055606082015160038201906121a090826154d4565b50608082015160048201906121b590826154d4565b5060a082015160058201906121ca90826154d4565b5060c0820151600682015560e0820151600782015561010082015160088201906121f490826154d4565b50610120820151600982015561014090910151600a909101556001600160a01b03808c165f818152600360205260409020600101549091160361224657600b8054905f61224083615755565b91905055505b50505050505050505050505050565b335f9081526020819052604090205460ff168061227c57506001546001600160a01b031633145b6122985760405162461bcd60e51b81526004016105f890615366565b6001600160a01b038086165f81815260076020526040902060010154909116036123165760405162461bcd60e51b815260206004820152602960248201527f50687973696369616e20706572736f6e616c2064657461696c20616c7265616460448201526879206578697374212160b81b60648201526084016105f8565b6001600160a01b0385161580159061232d57505f82115b801561233957505f8151115b801561234557505f8651115b6123615760405162461bcd60e51b81526004016105f890615590565b6040805160c0810182528781526001600160a01b0387166020808301829052828401889052606083018790526080830186905260a083018590525f918252600790529190912081518592919081906123b990826154d4565b5060208201516001820180546001600160a01b0319166001600160a01b03909216919091179055604082015160028201906123f490826154d4565b50606082015160038201556080820151600482015560a0820151600582019061241d90826154d4565b5050506001600160a01b038087165f818152600860205260409020549091160361245f5761244a86611827565b60098054905f61245983615755565b91905055505b50505050505050565b6124a76040518060c00160405280606081526020015f6001600160a01b03168152602001606081526020015f81526020015f8152602001606081525090565b335f9081526020819052604090205460ff16806124ce57506001546001600160a01b031633145b6124ea5760405162461bcd60e51b81526004016105f890615366565b6001600160a01b0382166125105760405162461bcd60e51b81526004016105f89061578c565b6001600160a01b038083165f818152600760205260409020600101549091161461254c5760405162461bcd60e51b81526004016105f8906157c3565b6001600160a01b0382165f9081526007602052604090819020815160c0810190925280548290829061257d90615452565b80601f01602080910402602001604051908101604052809291908181526020018280546125a990615452565b80156125f45780601f106125cb576101008083540402835291602001916125f4565b820191905f5260205f20905b8154815290600101906020018083116125d757829003601f168201915b505050918352505060018201546001600160a01b0316602082015260028201805460409092019161262490615452565b80601f016020809104026020016040519081016040528092919081815260200182805461265090615452565b801561269b5780601f106126725761010080835404028352916020019161269b565b820191905f5260205f20905b81548152906001019060200180831161267e57829003601f168201915b5050505050815260200160038201548152602001600482015481526020016005820180546126c890615452565b80601f01602080910402602001604051908101604052809291908181526020018280546126f490615452565b801561273f5780601f106127165761010080835404028352916020019161273f565b820191905f5260205f20905b81548152906001019060200180831161272257829003601f168201915b5050505050815250509050919050565b60408051808201825242815260208082018581526001600160a01b0385165f908152600583529384208054600181810183559186529290942083516002909302019182555191928392908201906127a690826154d4565b505050505050565b335f81815260026020819052604090912001546060916001600160a01b0390911614806127f35750335f818152600360205260409020600101546001600160a01b0316145b8061280c5750335f9081526006602052604090205460ff165b806128255750335f9081526020819052604090205460ff165b8061283a57506001546001600160a01b031633145b6128565760405162461bcd60e51b81526004016105f89061586c565b6001600160a01b0382165f90815260046020908152604080832080548251818502810185019093528083529193909284015b828210156115ac578382905f5260205f2090600b0201604051806101600160405290815f820180546128b990615452565b80601f01602080910402602001604051908101604052809291908181526020018280546128e590615452565b80156129305780601f1061290757610100808354040283529160200191612930565b820191905f5260205f20905b81548152906001019060200180831161291357829003601f168201915b5050505050815260200160018201805461294990615452565b80601f016020809104026020016040519081016040528092919081815260200182805461297590615452565b80156129c05780601f10612997576101008083540402835291602001916129c0565b820191905f5260205f20905b8154815290600101906020018083116129a357829003601f168201915b505050918352505060028201546001600160a01b03908116602083015260038301541660408201526004820180546060909201916129fd90615452565b80601f0160208091040260200160405190810160405280929190818152602001828054612a2990615452565b8015612a745780601f10612a4b57610100808354040283529160200191612a74565b820191905f5260205f20905b815481529060010190602001808311612a5757829003601f168201915b50505050508152602001600582018054612a8d90615452565b80601f0160208091040260200160405190810160405280929190818152602001828054612ab990615452565b8015612b045780601f10612adb57610100808354040283529160200191612b04565b820191905f5260205f20905b815481529060010190602001808311612ae757829003601f168201915b50505050508152602001600682018054612b1d90615452565b80601f0160208091040260200160405190810160405280929190818152602001828054612b4990615452565b8015612b945780601f10612b6b57610100808354040283529160200191612b94565b820191905f5260205f20905b815481529060010190602001808311612b7757829003601f168201915b50505050508152602001600782018054612bad90615452565b80601f0160208091040260200160405190810160405280929190818152602001828054612bd990615452565b8015612c245780601f10612bfb57610100808354040283529160200191612c24565b820191905f5260205f20905b815481529060010190602001808311612c0757829003601f168201915b50505050508152602001600882018054612c3d90615452565b80601f0160208091040260200160405190810160405280929190818152602001828054612c6990615452565b8015612cb45780601f10612c8b57610100808354040283529160200191612cb4565b820191905f5260205f20905b815481529060010190602001808311612c9757829003601f168201915b50505050508152602001600982018054612ccd90615452565b80601f0160208091040260200160405190810160405280929190818152602001828054612cf990615452565b8015612d445780601f10612d1b57610100808354040283529160200191612d44565b820191905f5260205f20905b815481529060010190602001808311612d2757829003601f168201915b50505050508152602001600a82018054612d5d90615452565b80601f0160208091040260200160405190810160405280929190818152602001828054612d8990615452565b8015612dd45780601f10612dab57610100808354040283529160200191612dd4565b820191905f5260205f20905b815481529060010190602001808311612db757829003601f168201915b50505050508152505081526020019060010190612888565b60086020525f9081526040902080546001820180546001600160a01b039092169291612e1790615452565b80601f0160208091040260200160405190810160405280929190818152602001828054612e4390615452565b8015612e8e5780601f10612e6557610100808354040283529160200191612e8e565b820191905f5260205f20905b815481529060010190602001808311612e7157829003601f168201915b505050505090806002018054612ea390615452565b80601f0160208091040260200160405190810160405280929190818152602001828054612ecf90615452565b8015612f1a5780601f10612ef157610100808354040283529160200191612f1a565b820191905f5260205f20905b815481529060010190602001808311612efd57829003601f168201915b505050505090806003018054612f2f90615452565b80601f0160208091040260200160405190810160405280929190818152602001828054612f5b90615452565b8015612fa65780601f10612f7d57610100808354040283529160200191612fa6565b820191905f5260205f20905b815481529060010190602001808311612f8957829003601f168201915b5050505050908060040154905085565b335f9081526006602052604081205460ff1615612fd1575060015b335f9081526006602052604090205460ff16612fff5760405162461bcd60e51b81526004016105f8906153ea565b6001600160a01b038a161580159061301757505f8951115b801561302357505f8851115b61303f5760405162461bcd60e51b81526004016105f890615677565b6001600160a01b03808b165f81815260026020819052604090912001549091161461307c5760405162461bcd60e51b81526004016105f8906156bd565b5f8690506040518061016001604052808e81526020018d81526020018c6001600160a01b031681526020018b81526020018a81526020018981526020018281526020018781526020018681526020018581526020018481525060025f8d6001600160a01b03166001600160a01b031681526020019081526020015f205f820151815f01908161310b91906154d4565b506020820151600182019061312090826154d4565b5060408201516002820180546001600160a01b0319166001600160a01b039092169190911790556060820151600382019061315b90826154d4565b506080820151600482019061317090826154d4565b5060a0820151600582019061318590826154d4565b5060c0820151600682015560e0820151600782015561010082015160088201906131af90826154d4565b50610120820151600982015561014090910151600a9091015550505050505050505050505050565b61323860405180610160016040528060608152602001606081526020015f6001600160a01b031681526020016060815260200160608152602001606081526020015f81526020015f8152602001606081526020015f81526020015f81525090565b61328b604051806101000160405280606081526020015f6001600160a01b031681526020015f151581526020015f151581526020015f151581526020016060815260200160608152602001606081525090565b335f81815260026020819052604090912001546001600160a01b031614806132cb5750335f818152600360205260409020600101546001600160a01b0316145b806132e45750335f9081526006602052604090205460ff165b806132fd5750335f9081526020819052604090205460ff165b8061331257506001546001600160a01b031633145b61332e5760405162461bcd60e51b81526004016105f89061586c565b6001600160a01b0383166133545760405162461bcd60e51b81526004016105f89061578c565b6001600160a01b038084165f818152600260208190526040909120015490911614801561339d57506001600160a01b038084165f81815260036020526040902060010154909116145b61345b5760405162461bcd60e51b815260206004820152607960248201527f496e636f72726563742050617469656e742077616c6c6574206164647265737360448201527f206f72205468652050617469656e742064657461696c20666f7220746865206160648201527f6464726573732070726f7669646564206973206e6f7420636f6d706c65746c7960848201527f20617661696c61626c6520696e2074686520636861696e21210000000000000060a482015260c4016105f8565b6001600160a01b0383165f9081526002602090815260408083206003909252918290208251610160810190935281549192909183908290829061349d90615452565b80601f01602080910402602001604051908101604052809291908181526020018280546134c990615452565b80156135145780601f106134eb57610100808354040283529160200191613514565b820191905f5260205f20905b8154815290600101906020018083116134f757829003601f168201915b5050505050815260200160018201805461352d90615452565b80601f016020809104026020016040519081016040528092919081815260200182805461355990615452565b80156135a45780601f1061357b576101008083540402835291602001916135a4565b820191905f5260205f20905b81548152906001019060200180831161358757829003601f168201915b505050918352505060028201546001600160a01b031660208201526003820180546040909201916135d490615452565b80601f016020809104026020016040519081016040528092919081815260200182805461360090615452565b801561364b5780601f106136225761010080835404028352916020019161364b565b820191905f5260205f20905b81548152906001019060200180831161362e57829003601f168201915b5050505050815260200160048201805461366490615452565b80601f016020809104026020016040519081016040528092919081815260200182805461369090615452565b80156136db5780601f106136b2576101008083540402835291602001916136db565b820191905f5260205f20905b8154815290600101906020018083116136be57829003601f168201915b505050505081526020016005820180546136f490615452565b80601f016020809104026020016040519081016040528092919081815260200182805461372090615452565b801561376b5780601f106137425761010080835404028352916020019161376b565b820191905f5260205f20905b81548152906001019060200180831161374e57829003601f168201915b50505050508152602001600682015481526020016007820154815260200160088201805461379890615452565b80601f01602080910402602001604051908101604052809291908181526020018280546137c490615452565b801561380f5780601f106137e65761010080835404028352916020019161380f565b820191905f5260205f20905b8154815290600101906020018083116137f257829003601f168201915b5050505050815260200160098201548152602001600a82015481525050915080604051806101000160405290815f8201805461384a90615452565b80601f016020809104026020016040519081016040528092919081815260200182805461387690615452565b80156138c15780601f10613898576101008083540402835291602001916138c1565b820191905f5260205f20905b8154815290600101906020018083116138a457829003601f168201915b505050918352505060018201546001600160a01b038116602083015260ff600160a01b8204811615156040840152600160a81b8204811615156060840152600160b01b909104161515608082015260028201805460a09092019161392490615452565b80601f016020809104026020016040519081016040528092919081815260200182805461395090615452565b801561399b5780601f106139725761010080835404028352916020019161399b565b820191905f5260205f20905b81548152906001019060200180831161397e57829003601f168201915b505050505081526020016003820180546139b490615452565b80601f01602080910402602001604051908101604052809291908181526020018280546139e090615452565b8015613a2b5780601f10613a0257610100808354040283529160200191613a2b565b820191905f5260205f20905b815481529060010190602001808311613a0e57829003601f168201915b50505050508152602001600482018054613a4490615452565b80601f0160208091040260200160405190810160405280929190818152602001828054613a7090615452565b8015613abb5780601f10613a9257610100808354040283529160200191613abb565b820191905f5260205f20905b815481529060010190602001808311613a9e57829003601f168201915b505050505081525050905091509150915091565b60036020525f9081526040902080548190613ae990615452565b80601f0160208091040260200160405190810160405280929190818152602001828054613b1590615452565b8015613b605780601f10613b3757610100808354040283529160200191613b60565b820191905f5260205f20905b815481529060010190602001808311613b4357829003601f168201915b50505050600183015460028401805493946001600160a01b0383169460ff600160a01b850481169550600160a81b8504811694600160b01b9004169290613ba690615452565b80601f0160208091040260200160405190810160405280929190818152602001828054613bd290615452565b8015613c1d5780601f10613bf457610100808354040283529160200191613c1d565b820191905f5260205f20905b815481529060010190602001808311613c0057829003601f168201915b505050505090806003018054613c3290615452565b80601f0160208091040260200160405190810160405280929190818152602001828054613c5e90615452565b8015613ca95780601f10613c8057610100808354040283529160200191613ca9565b820191905f5260205f20905b815481529060010190602001808311613c8c57829003601f168201915b505050505090806004018054613cbe90615452565b80601f0160208091040260200160405190810160405280929190818152602001828054613cea90615452565b8015613d355780601f10613d0c57610100808354040283529160200191613d35565b820191905f5260205f20905b815481529060010190602001808311613d1857829003601f168201915b5050505050905088565b613d786040518060a001604052805f6001600160a01b031681526020016060815260200160608152602001606081526020015f81525090565b335f9081526020819052604090205460ff1680613d9f57506001546001600160a01b031633145b613dbb5760405162461bcd60e51b81526004016105f890615366565b6001600160a01b038216613de15760405162461bcd60e51b81526004016105f89061578c565b6001600160a01b038083165f8181526008602052604090205490911614613e1a5760405162461bcd60e51b81526004016105f8906157c3565b6001600160a01b038083165f90815260086020908152604091829020825160a081019093528054909316825260018301805492939291840191613e5c90615452565b80601f0160208091040260200160405190810160405280929190818152602001828054613e8890615452565b8015613ed35780601f10613eaa57610100808354040283529160200191613ed3565b820191905f5260205f20905b815481529060010190602001808311613eb657829003601f168201915b50505050508152602001600282018054613eec90615452565b80601f0160208091040260200160405190810160405280929190818152602001828054613f1890615452565b8015613f635780601f10613f3a57610100808354040283529160200191613f63565b820191905f5260205f20905b815481529060010190602001808311613f4657829003601f168201915b50505050508152602001600382018054613f7c90615452565b80601f0160208091040260200160405190810160405280929190818152602001828054613fa890615452565b8015613ff35780601f10613fca57610100808354040283529160200191613ff3565b820191905f5260205f20905b815481529060010190602001808311613fd657829003601f168201915b505050505081526020016004820154815250509050919050565b6004602052815f5260405f208181548110614026575f80fd5b905f5260205f2090600b02015f9150915050805f01805461404690615452565b80601f016020809104026020016040519081016040528092919081815260200182805461407290615452565b80156140bd5780601f10614094576101008083540402835291602001916140bd565b820191905f5260205f20905b8154815290600101906020018083116140a057829003601f168201915b5050505050908060010180546140d290615452565b80601f01602080910402602001604051908101604052809291908181526020018280546140fe90615452565b80156141495780601f1061412057610100808354040283529160200191614149565b820191905f5260205f20905b81548152906001019060200180831161412c57829003601f168201915b5050506002840154600385015460048601805495966001600160a01b039384169692909316945091925061417c90615452565b80601f01602080910402602001604051908101604052809291908181526020018280546141a890615452565b80156141f35780601f106141ca576101008083540402835291602001916141f3565b820191905f5260205f20905b8154815290600101906020018083116141d657829003601f168201915b50505050509080600501805461420890615452565b80601f016020809104026020016040519081016040528092919081815260200182805461423490615452565b801561427f5780601f106142565761010080835404028352916020019161427f565b820191905f5260205f20905b81548152906001019060200180831161426257829003601f168201915b50505050509080600601805461429490615452565b80601f01602080910402602001604051908101604052809291908181526020018280546142c090615452565b801561430b5780601f106142e25761010080835404028352916020019161430b565b820191905f5260205f20905b8154815290600101906020018083116142ee57829003601f168201915b50505050509080600701805461432090615452565b80601f016020809104026020016040519081016040528092919081815260200182805461434c90615452565b80156143975780601f1061436e57610100808354040283529160200191614397565b820191905f5260205f20905b81548152906001019060200180831161437a57829003601f168201915b5050505050908060080180546143ac90615452565b80601f01602080910402602001604051908101604052809291908181526020018280546143d890615452565b80156144235780601f106143fa57610100808354040283529160200191614423565b820191905f5260205f20905b81548152906001019060200180831161440657829003601f168201915b50505050509080600901805461443890615452565b80601f016020809104026020016040519081016040528092919081815260200182805461446490615452565b80156144af5780601f10614486576101008083540402835291602001916144af565b820191905f5260205f20905b81548152906001019060200180831161449257829003601f168201915b50505050509080600a0180546144c490615452565b80601f01602080910402602001604051908101604052809291908181526020018280546144f090615452565b801561453b5780601f106145125761010080835404028352916020019161453b565b820191905f5260205f20905b81548152906001019060200180831161451e57829003601f168201915b505050505090508b565b80356001600160a01b0381168114611140575f80fd5b5f6020828403121561456b575f80fd5b61079482614545565b5f60208284031215614584575f80fd5b5035919050565b634e487b7160e01b5f52604160045260245ffd5b5f82601f8301126145ae575f80fd5b813567ffffffffffffffff808211156145c9576145c961458b565b604051601f8301601f19908116603f011681019082821181831017156145f1576145f161458b565b81604052838152866020858801011115614609575f80fd5b836020870160208301375f602085830101528094505050505092915050565b5f805f805f805f805f805f6101608c8e031215614643575f80fd5b67ffffffffffffffff808d351115614659575f80fd5b6146668e8e358f0161459f565b9b508060208e01351115614678575f80fd5b6146888e60208f01358f0161459f565b9a5061469660408e01614545565b99506146a460608e01614545565b98508060808e013511156146b6575f80fd5b6146c68e60808f01358f0161459f565b97508060a08e013511156146d8575f80fd5b6146e88e60a08f01358f0161459f565b96508060c08e013511156146fa575f80fd5b61470a8e60c08f01358f0161459f565b95508060e08e0135111561471c575f80fd5b61472c8e60e08f01358f0161459f565b9450806101008e0135111561473f575f80fd5b6147508e6101008f01358f0161459f565b9350806101208e01351115614763575f80fd5b6147748e6101208f01358f0161459f565b9250806101408e01351115614787575f80fd5b506147998d6101408e01358e0161459f565b90509295989b509295989b9093969950565b5f805f805f8060c087890312156147c0575f80fd5b863567ffffffffffffffff808211156147d7575f80fd5b6147e38a838b0161459f565b97506147f160208a01614545565b96506040890135915080821115614806575f80fd5b6148128a838b0161459f565b9550606089013594506080890135935060a0890135915080821115614835575f80fd5b5061484289828a0161459f565b9150509295509295509295565b5f81518084525f5b8181101561487357602081850181015186830182015201614857565b505f602082860101526020601f19601f83011685010191505092915050565b5f6101608083526148a58184018f61484f565b905082810360208401526148b9818e61484f565b6001600160a01b038d166040850152838103606085015290506148dc818c61484f565b905082810360808401526148f0818b61484f565b905082810360a0840152614904818a61484f565b90508760c08401528660e0840152828103610100840152614925818761484f565b610120840195909552505061014001529998505050505050505050565b80358015158114611140575f80fd5b5f805f805f805f80610100898b031215614969575f80fd5b883567ffffffffffffffff80821115614980575f80fd5b61498c8c838d0161459f565b995061499a60208c01614545565b98506149a860408c01614942565b97506149b660608c01614942565b96506149c460808c01614942565b955060a08b01359150808211156149d9575f80fd5b6149e58c838d0161459f565b945060c08b01359150808211156149fa575f80fd5b614a068c838d0161459f565b935060e08b0135915080821115614a1b575f80fd5b50614a288b828c0161459f565b9150509295985092959890939650565b5f805f805f60a08688031215614a4c575f80fd5b614a5586614545565b9450602086013567ffffffffffffffff80821115614a71575f80fd5b614a7d89838a0161459f565b95506040880135915080821115614a92575f80fd5b614a9e89838a0161459f565b9450606088013593506080880135915080821115614aba575f80fd5b50614ac78882890161459f565b9150509295509295909350565b5f6020808301818452808551808352604092508286019150828160051b8701018488015f5b83811015614b3857888303603f19018552815180518452870151878401879052614b258785018261484f565b9588019593505090860190600101614af9565b509098975050505050505050565b5f8060408385031215614b57575f80fd5b614b6083614545565b946020939093013593505050565b828152604060208201525f614b86604083018461484f565b949350505050565b60c081525f614ba060c083018961484f565b6001600160a01b03881660208401528281036040840152614bc1818861484f565b905085606084015284608084015282810360a0840152614be1818561484f565b9998505050505050505050565b5f805f805f805f805f805f6101608c8e031215614c09575f80fd5b67ffffffffffffffff808d351115614c1f575f80fd5b614c2c8e8e358f0161459f565b9b508060208e01351115614c3e575f80fd5b614c4e8e60208f01358f0161459f565b9a50614c5c60408e01614545565b99508060608e01351115614c6e575f80fd5b614c7e8e60608f01358f0161459f565b98508060808e01351115614c90575f80fd5b614ca08e60808f01358f0161459f565b97508060a08e01351115614cb2575f80fd5b614cc28e60a08f01358f0161459f565b965060c08d0135955060e08d01359450806101008e01351115614ce3575f80fd5b50614cf58d6101008e01358e0161459f565b92506101208c013591506101408c013590509295989b509295989b9093969950565b602081525f825160c06020840152614d3260e084018261484f565b905060018060a01b0360208501511660408401526040840151601f1980858403016060860152614d62838361484f565b925060608601516080860152608086015160a086015260a08601519150808584030160c086015250614d94828261484f565b95945050505050565b5f8060408385031215614dae575f80fd5b823567ffffffffffffffff811115614dc4575f80fd5b614dd08582860161459f565b925050614ddf60208401614545565b90509250929050565b5f6020808301818452808551808352604092508286019150828160051b8701018488015f5b83811015614b3857603f1989840301855281516101608151818652614e348287018261484f565b915050888201518582038a870152614e4c828261484f565b91505087820151614e67898701826001600160a01b03169052565b506060828101516001600160a01b03169086015260808083015186830382880152614e92838261484f565b9250505060a08083015186830382880152614ead838261484f565b9250505060c08083015186830382880152614ec8838261484f565b9250505060e08083015186830382880152614ee3838261484f565b925050506101008083015186830382880152614eff838261484f565b925050506101208083015186830382880152614f1b838261484f565b925050506101408083015192508582038187015250614f3a818361484f565b968901969450505090860190600101614e0d565b6001600160a01b038616815260a0602082018190525f90614f719083018761484f565b8281036040840152614f83818761484f565b90508281036060840152614f97818661484f565b9150508260808301529695505050505050565b5f6101008251818552614fbf8286018261484f565b9150506020830151614fdc60208601826001600160a01b03169052565b506040830151614ff0604086018215159052565b506060830151615004606086018215159052565b506080830151615018608086018215159052565b5060a083015184820360a0860152615030828261484f565b91505060c083015184820360c086015261504a828261484f565b91505060e083015184820360e0860152614d94828261484f565b604081525f83516101608060408501526150826101a085018361484f565b91506020860151603f19808685030160608701526150a0848361484f565b9350604088015191506150be60808701836001600160a01b03169052565b60608801519150808685030160a08701526150d9848361484f565b935060808801519150808685030160c08701526150f6848361484f565b935060a08801519150808685030160e0870152615113848361484f565b935060c08801519150610100828188015260e089015192506101208381890152818a015193506101409150828887030182890152615151868561484f565b908a015194880194909452880151610180870152505083810360208501529050614d948185614faa565b5f61010080835261518e8184018c61484f565b6001600160a01b038b16602085015289151560408501528815156060850152871515608085015283810360a085015290506151c9818761484f565b905082810360c08401526151dd818661484f565b905082810360e08401526151f1818561484f565b9b9a5050505050505050505050565b602080825282516001600160a01b03168282015282015160a060408301525f9061522d60c084018261484f565b90506040840151601f198085840301606086015261524b838361484f565b9250606086015191508085840301608086015250615269828261484f565b915050608084015160a08401528091505092915050565b5f6101608083526152938184018f61484f565b905082810360208401526152a7818e61484f565b6001600160a01b038d16604085015290506001600160a01b038b16606084015282810360808401526152d9818b61484f565b905082810360a08401526152ed818a61484f565b905082810360c0840152615301818961484f565b905082810360e0840152615315818861484f565b905082810361010084015261532a818761484f565b905082810361012084015261533f818661484f565b9050828103610140840152615354818561484f565b9e9d5050505050505050505050505050565b6020808252602a908201527f41636365737365626c65206f6e6c7920666f72204f776e65727320616e642053604082015269757065724f776e65727360b01b606082015260800190565b634e487b7160e01b5f52601160045260245ffd5b80820180821115611d1f57611d1f6153b0565b81810381811115611d1f57611d1f6153b0565b60208082526042908201527f4f6e6c792074686520446f63746f72732063616e2063616c6c2074686973206660408201527f756e6374696f6e2064756520746f20736563757269747920726561736f6e7321606082015261212160f01b608082015260a00190565b600181811c9082168061546657607f821691505b60208210810361548457634e487b7160e01b5f52602260045260245ffd5b50919050565b601f8211156154cf575f81815260208120601f850160051c810160208610156154b05750805b601f850160051c820191505b818110156127a6578281556001016154bc565b505050565b815167ffffffffffffffff8111156154ee576154ee61458b565b615502816154fc8454615452565b8461548a565b602080601f831160018114615535575f841561551e5750858301515b5f19600386901b1c1916600185901b1785556127a6565b5f85815260208120601f198616915b8281101561556357888601518255948401946001909101908401615544565b508582101561558057878501515f19600388901b60f8161c191681555b5050505050600190811b01905550565b6020808252602f908201527f4b696e646c792066696c6c20616c6c20746865206d616e6461746f727920666560408201526e696c64732070726f7065726c79212160881b606082015260800190565b6020808252606c908201527f496e636f727265637420446f63746f7227732077616c6c65742061646472657360408201527f73206f722054686520446f63746f722064657461696c20666f7220746865206160608201527f6464726573732070726f7669646564206e6f7420617661696c61626c6520696e60808201526b2074686520636861696e212160a01b60a082015260c00190565b60208082526026908201527f4b696e646c792066696c6c20616c6c20746865206d616e6461746f7279206665604082015265696c6473212160d01b606082015260800190565b6020808252606c908201527f496e636f72726563742050617469656e742077616c6c6574206164647265737360408201527f206f72205468652050617469656e742064657461696c20666f7220746865206160608201527f6464726573732070726f7669646564206e6f7420617661696c61626c6520696e60808201526b2074686520636861696e212160a01b60a082015260c00190565b5f60018201615766576157666153b0565b5060010190565b5f8261578757634e487b7160e01b5f52601260045260245ffd5b500490565b6020808252601e908201527f57616c6c657420416464726573732063616e6e6f7420626520656d7074790000604082015260600190565b60208082526078908201527f496e636f727265637420446f63746f722077616c6c657420616464726573732060408201527f6f722054686520446f63746f722064657461696c20666f72207468652061646460608201527f726573732070726f7669646564206973206e6f7420636f6d706c6574656c792060808201527f617661696c61626c6520696e2074686520636861696e2121000000000000000060a082015260c00190565b60208082526027908201527f596f752068617665206e6f2061636365737320746f206665746368207468652060408201526664657461696c7360c81b60608201526080019056fea2646970667358221220a9af4bf5db750839904b22724fbebc73d3653aa4d77bd23b9c69d8a9244a5a9164736f6c63430008150033",
  "linkReferences": {},
  "deployedLinkReferences": {}
}