{
  "_format": "hh-sol-artifact-1",
  "contractName": "PatientDetails",
  "sourceName": "src/contracts/Patient.sol",
  "abi": [
    {
      "inputs": [],
      "stateMutability": "nonpayable",
      "type": "constructor"
    },
    {
      "inputs": [
        {
          "internalType": "address",
          "name": "_walletAddress",
          "type": "address"
        }
      ],
      "name": "AddAdminAccess",
      "outputs": [],
      "stateMutability": "nonpayable",
      "type": "function"
    },
    {
      "inputs": [
        {
          "internalType": "string",
          "name": "_name",
          "type": "string"
        },
        {
          "internalType": "address",
          "name": "_walletAddress",
          "type": "address"
        },
        {
          "internalType": "uint256",
          "name": "_dayOfBirth",
          "type": "uint256"
        },
        {
          "internalType": "uint256",
          "name": "_monthOfBirth",
          "type": "uint256"
        },
        {
          "internalType": "uint256",
          "name": "_yearOfBirth",
          "type": "uint256"
        },
        {
          "internalType": "uint256",
          "name": "_phoneNumber",
          "type": "uint256"
        },
        {
          "internalType": "string",
          "name": "_email",
          "type": "string"
        }
      ],
      "name": "AddDoctorPersonalInfo",
      "outputs": [],
      "stateMutability": "nonpayable",
      "type": "function"
    },
    {
      "inputs": [
        {
          "internalType": "address",
          "name": "_walletAddress",
          "type": "address"
        },
        {
          "internalType": "string",
          "name": "_MedicalLicenseNumber",
          "type": "string"
        },
        {
          "internalType": "string",
          "name": "_Specialization",
          "type": "string"
        },
        {
          "internalType": "string",
          "name": "_AvailableTimings",
          "type": "string"
        },
        {
          "internalType": "uint256",
          "name": "_ExperienceInYear",
          "type": "uint256"
        },
        {
          "internalType": "string",
          "name": "_MedicalSchoolAttended",
          "type": "string"
        },
        {
          "internalType": "bool",
          "name": "_isLicenseValid",
          "type": "bool"
        }
      ],
      "name": "AddDoctorProfessionalInfo",
      "outputs": [],
      "stateMutability": "nonpayable",
      "type": "function"
    },
    {
      "inputs": [
        {
          "internalType": "address",
          "name": "_walletAddress",
          "type": "address"
        },
        {
          "internalType": "bool",
          "name": "_isAlcoholic",
          "type": "bool"
        },
        {
          "internalType": "bool",
          "name": "_isSmoker",
          "type": "bool"
        },
        {
          "internalType": "bool",
          "name": "_isSmokelessTobaccoUser",
          "type": "bool"
        },
        {
          "internalType": "string",
          "name": "_surgicalHistory_ifAny",
          "type": "string"
        },
        {
          "internalType": "string",
          "name": "_physicalActivityLevel",
          "type": "string"
        },
        {
          "internalType": "string",
          "name": "_pastMedicationDetails_IfAny",
          "type": "string"
        }
      ],
      "name": "AddPatientsMedicalDetails",
      "outputs": [],
      "stateMutability": "nonpayable",
      "type": "function"
    },
    {
      "inputs": [
        {
          "internalType": "bool",
          "name": "_isAlive",
          "type": "bool"
        },
        {
          "internalType": "string",
          "name": "_name",
          "type": "string"
        },
        {
          "internalType": "address",
          "name": "_walletAddress",
          "type": "address"
        },
        {
          "internalType": "string",
          "name": "_gender",
          "type": "string"
        },
        {
          "internalType": "string",
          "name": "_Occupation",
          "type": "string"
        },
        {
          "internalType": "uint256",
          "name": "_dayOfBirth",
          "type": "uint256"
        },
        {
          "internalType": "uint256",
          "name": "_monthOfBirth",
          "type": "uint256"
        },
        {
          "internalType": "uint256",
          "name": "_yearOfBirth",
          "type": "uint256"
        }
      ],
      "name": "AddPatientsPersonalDetails",
      "outputs": [],
      "stateMutability": "nonpayable",
      "type": "function"
    },
    {
      "inputs": [
        {
          "internalType": "uint256",
          "name": "",
          "type": "uint256"
        }
      ],
      "name": "AdminAccess",
      "outputs": [
        {
          "internalType": "address",
          "name": "",
          "type": "address"
        }
      ],
      "stateMutability": "view",
      "type": "function"
    },
    {
      "inputs": [
        {
          "internalType": "address",
          "name": "_walletAddress",
          "type": "address"
        }
      ],
      "name": "DeleteAdminAccess",
      "outputs": [],
      "stateMutability": "nonpayable",
      "type": "function"
    },
    {
      "inputs": [
        {
          "internalType": "address",
          "name": "",
          "type": "address"
        }
      ],
      "name": "DoctorsPersonalInfo",
      "outputs": [
        {
          "internalType": "string",
          "name": "name",
          "type": "string"
        },
        {
          "internalType": "address",
          "name": "walletAddress",
          "type": "address"
        },
        {
          "internalType": "uint256",
          "name": "dayOfBirth",
          "type": "uint256"
        },
        {
          "internalType": "uint256",
          "name": "monthOfBirth",
          "type": "uint256"
        },
        {
          "internalType": "uint256",
          "name": "yearOfBirth",
          "type": "uint256"
        },
        {
          "internalType": "uint256",
          "name": "age",
          "type": "uint256"
        },
        {
          "internalType": "uint256",
          "name": "phoneNumber",
          "type": "uint256"
        },
        {
          "internalType": "string",
          "name": "email",
          "type": "string"
        }
      ],
      "stateMutability": "view",
      "type": "function"
    },
    {
      "inputs": [
        {
          "internalType": "address",
          "name": "",
          "type": "address"
        }
      ],
      "name": "Doctors_ProfessionalDetails",
      "outputs": [
        {
          "internalType": "address",
          "name": "walletAddress",
          "type": "address"
        },
        {
          "internalType": "string",
          "name": "MedicalSchoolAttended",
          "type": "string"
        },
        {
          "internalType": "string",
          "name": "MedicalLicenseNumber",
          "type": "string"
        },
        {
          "internalType": "string",
          "name": "Specialization",
          "type": "string"
        },
        {
          "internalType": "string",
          "name": "AvailableTimings",
          "type": "string"
        },
        {
          "internalType": "uint256",
          "name": "ExperienceInYear",
          "type": "uint256"
        },
        {
          "internalType": "bool",
          "name": "isLicenseValid",
          "type": "bool"
        }
      ],
      "stateMutability": "view",
      "type": "function"
    },
    {
      "inputs": [
        {
          "internalType": "string",
          "name": "_name",
          "type": "string"
        },
        {
          "internalType": "address",
          "name": "_walletAddress",
          "type": "address"
        },
        {
          "internalType": "uint256",
          "name": "_dayOfBirth",
          "type": "uint256"
        },
        {
          "internalType": "uint256",
          "name": "_monthOfBirth",
          "type": "uint256"
        },
        {
          "internalType": "uint256",
          "name": "_yearOfBirth",
          "type": "uint256"
        },
        {
          "internalType": "uint256",
          "name": "_phoneNumber",
          "type": "uint256"
        },
        {
          "internalType": "string",
          "name": "_email",
          "type": "string"
        }
      ],
      "name": "EditDoctorPersonalDetails",
      "outputs": [],
      "stateMutability": "nonpayable",
      "type": "function"
    },
    {
      "inputs": [
        {
          "internalType": "address",
          "name": "_walletAddress",
          "type": "address"
        },
        {
          "internalType": "string",
          "name": "_MedicalLicenseNumber",
          "type": "string"
        },
        {
          "internalType": "string",
          "name": "_Specialization",
          "type": "string"
        },
        {
          "internalType": "string",
          "name": "_AvailableTimings",
          "type": "string"
        },
        {
          "internalType": "uint256",
          "name": "_ExperienceInYear",
          "type": "uint256"
        },
        {
          "internalType": "string",
          "name": "_MedicalSchoolAttended",
          "type": "string"
        },
        {
          "internalType": "bool",
          "name": "_isLicenseValid",
          "type": "bool"
        },
        {
          "internalType": "address[]",
          "name": "_treatedPatients",
          "type": "address[]"
        }
      ],
      "name": "EditDoctorProfessionalDetails",
      "outputs": [],
      "stateMutability": "nonpayable",
      "type": "function"
    },
    {
      "inputs": [
        {
          "internalType": "bool",
          "name": "_isAlive",
          "type": "bool"
        },
        {
          "internalType": "string",
          "name": "_name",
          "type": "string"
        },
        {
          "internalType": "address",
          "name": "_walletAddress",
          "type": "address"
        },
        {
          "internalType": "string",
          "name": "_gender",
          "type": "string"
        },
        {
          "internalType": "string",
          "name": "_Occupation",
          "type": "string"
        },
        {
          "internalType": "uint256",
          "name": "_dayOfBirth",
          "type": "uint256"
        },
        {
          "internalType": "uint256",
          "name": "_monthOfBirth",
          "type": "uint256"
        },
        {
          "internalType": "uint256",
          "name": "_yearOfBirth",
          "type": "uint256"
        }
      ],
      "name": "EditPatientPersonalDetails",
      "outputs": [],
      "stateMutability": "nonpayable",
      "type": "function"
    },
    {
      "inputs": [
        {
          "internalType": "address",
          "name": "_walletAddress",
          "type": "address"
        },
        {
          "internalType": "bool",
          "name": "_isAlcoholic",
          "type": "bool"
        },
        {
          "internalType": "bool",
          "name": "_isSmoker",
          "type": "bool"
        },
        {
          "internalType": "bool",
          "name": "_isSmokelessTobaccoUser",
          "type": "bool"
        },
        {
          "internalType": "string",
          "name": "_surgicalHistory_ifAny",
          "type": "string"
        },
        {
          "internalType": "string",
          "name": "_physicalActivityLevel",
          "type": "string"
        },
        {
          "internalType": "string",
          "name": "_pastMedicationDetails_IfAny",
          "type": "string"
        }
      ],
      "name": "EditPatinetMedicalDetails",
      "outputs": [],
      "stateMutability": "nonpayable",
      "type": "function"
    },
    {
      "inputs": [
        {
          "internalType": "address",
          "name": "",
          "type": "address"
        },
        {
          "internalType": "uint256",
          "name": "",
          "type": "uint256"
        }
      ],
      "name": "HealthCondition",
      "outputs": [
        {
          "internalType": "address",
          "name": "walletAddress",
          "type": "address"
        },
        {
          "internalType": "address",
          "name": "physician",
          "type": "address"
        },
        {
          "internalType": "string",
          "name": "Department_uint",
          "type": "string"
        },
        {
          "internalType": "string",
          "name": "BloodPressure",
          "type": "string"
        },
        {
          "internalType": "string",
          "name": "HeartRate",
          "type": "string"
        },
        {
          "internalType": "string",
          "name": "RespiratoryRate",
          "type": "string"
        },
        {
          "internalType": "string",
          "name": "Dosage",
          "type": "string"
        }
      ],
      "stateMutability": "view",
      "type": "function"
    },
    {
      "inputs": [
        {
          "internalType": "address",
          "name": "",
          "type": "address"
        }
      ],
      "name": "OnlyOwner",
      "outputs": [
        {
          "internalType": "bool",
          "name": "",
          "type": "bool"
        }
      ],
      "stateMutability": "view",
      "type": "function"
    },
    {
      "inputs": [
        {
          "internalType": "string",
          "name": "dataURL",
          "type": "string"
        },
        {
          "internalType": "address",
          "name": "user",
          "type": "address"
        }
      ],
      "name": "PatientDataStorage",
      "outputs": [],
      "stateMutability": "nonpayable",
      "type": "function"
    },
    {
      "inputs": [
        {
          "internalType": "address",
          "name": "",
          "type": "address"
        }
      ],
      "name": "PatientsMedicalDetails",
      "outputs": [
        {
          "internalType": "address",
          "name": "walletAddress",
          "type": "address"
        },
        {
          "internalType": "bool",
          "name": "isAlcoholic",
          "type": "bool"
        },
        {
          "internalType": "bool",
          "name": "isSmoker",
          "type": "bool"
        },
        {
          "internalType": "bool",
          "name": "isSmokelessTobaccoUser",
          "type": "bool"
        },
        {
          "internalType": "string",
          "name": "surgicalHistory_ifAny",
          "type": "string"
        },
        {
          "internalType": "string",
          "name": "physicalActivityLevel",
          "type": "string"
        },
        {
          "internalType": "string",
          "name": "pastMedicationDetails_IfAny",
          "type": "string"
        }
      ],
      "stateMutability": "view",
      "type": "function"
    },
    {
      "inputs": [
        {
          "internalType": "address",
          "name": "",
          "type": "address"
        }
      ],
      "name": "PatientsPersonalDetails",
      "outputs": [
        {
          "internalType": "bool",
          "name": "isAlive",
          "type": "bool"
        },
        {
          "internalType": "string",
          "name": "name",
          "type": "string"
        },
        {
          "internalType": "address",
          "name": "walletAddress",
          "type": "address"
        },
        {
          "internalType": "string",
          "name": "gender",
          "type": "string"
        },
        {
          "internalType": "string",
          "name": "Occupation",
          "type": "string"
        },
        {
          "internalType": "uint256",
          "name": "dayOfBirth",
          "type": "uint256"
        },
        {
          "internalType": "uint256",
          "name": "monthOfBirth",
          "type": "uint256"
        },
        {
          "internalType": "uint256",
          "name": "yearOfBirth",
          "type": "uint256"
        },
        {
          "internalType": "uint256",
          "name": "age",
          "type": "uint256"
        }
      ],
      "stateMutability": "view",
      "type": "function"
    },
    {
      "inputs": [
        {
          "internalType": "address",
          "name": "_address",
          "type": "address"
        }
      ],
      "name": "addOwner",
      "outputs": [],
      "stateMutability": "nonpayable",
      "type": "function"
    },
    {
      "inputs": [
        {
          "internalType": "address",
          "name": "_walletAddress",
          "type": "address"
        },
        {
          "internalType": "address",
          "name": "_physician",
          "type": "address"
        },
        {
          "internalType": "string",
          "name": "_Department_uint",
          "type": "string"
        },
        {
          "internalType": "string",
          "name": "_BloodPressure",
          "type": "string"
        },
        {
          "internalType": "string",
          "name": "_HeartRate",
          "type": "string"
        },
        {
          "internalType": "string",
          "name": "_RespiratoryRate",
          "type": "string"
        },
        {
          "internalType": "string",
          "name": "_Dosage",
          "type": "string"
        }
      ],
      "name": "addPatientHealthDetails",
      "outputs": [],
      "stateMutability": "nonpayable",
      "type": "function"
    },
    {
      "inputs": [
        {
          "internalType": "uint256",
          "name": "_yearOfBirth",
          "type": "uint256"
        }
      ],
      "name": "getAge",
      "outputs": [
        {
          "internalType": "uint256",
          "name": "",
          "type": "uint256"
        }
      ],
      "stateMutability": "view",
      "type": "function"
    },
    {
      "inputs": [
        {
          "internalType": "address",
          "name": "_walletAddress",
          "type": "address"
        }
      ],
      "name": "getDoctor",
      "outputs": [
        {
          "components": [
            {
              "internalType": "string",
              "name": "name",
              "type": "string"
            },
            {
              "internalType": "address",
              "name": "walletAddress",
              "type": "address"
            },
            {
              "internalType": "uint256",
              "name": "dayOfBirth",
              "type": "uint256"
            },
            {
              "internalType": "uint256",
              "name": "monthOfBirth",
              "type": "uint256"
            },
            {
              "internalType": "uint256",
              "name": "yearOfBirth",
              "type": "uint256"
            },
            {
              "internalType": "uint256",
              "name": "age",
              "type": "uint256"
            },
            {
              "internalType": "uint256",
              "name": "phoneNumber",
              "type": "uint256"
            },
            {
              "internalType": "string",
              "name": "email",
              "type": "string"
            }
          ],
          "internalType": "struct DoctorDetails.DoctorPersonalInfo",
          "name": "",
          "type": "tuple"
        },
        {
          "components": [
            {
              "internalType": "address",
              "name": "walletAddress",
              "type": "address"
            },
            {
              "internalType": "string",
              "name": "MedicalSchoolAttended",
              "type": "string"
            },
            {
              "internalType": "string",
              "name": "MedicalLicenseNumber",
              "type": "string"
            },
            {
              "internalType": "string",
              "name": "Specialization",
              "type": "string"
            },
            {
              "internalType": "string",
              "name": "AvailableTimings",
              "type": "string"
            },
            {
              "internalType": "uint256",
              "name": "ExperienceInYear",
              "type": "uint256"
            },
            {
              "internalType": "address[]",
              "name": "treatedPatients",
              "type": "address[]"
            },
            {
              "internalType": "bool",
              "name": "isLicenseValid",
              "type": "bool"
            }
          ],
          "internalType": "struct DoctorDetails.DoctorProfessionalDetails",
          "name": "",
          "type": "tuple"
        }
      ],
      "stateMutability": "view",
      "type": "function"
    },
    {
      "inputs": [
        {
          "internalType": "address",
          "name": "_walletAddress",
          "type": "address"
        }
      ],
      "name": "getPatientDetails",
      "outputs": [
        {
          "components": [
            {
              "internalType": "bool",
              "name": "isAlive",
              "type": "bool"
            },
            {
              "internalType": "string",
              "name": "name",
              "type": "string"
            },
            {
              "internalType": "address",
              "name": "walletAddress",
              "type": "address"
            },
            {
              "internalType": "string",
              "name": "gender",
              "type": "string"
            },
            {
              "internalType": "string",
              "name": "Occupation",
              "type": "string"
            },
            {
              "internalType": "uint256",
              "name": "dayOfBirth",
              "type": "uint256"
            },
            {
              "internalType": "uint256",
              "name": "monthOfBirth",
              "type": "uint256"
            },
            {
              "internalType": "uint256",
              "name": "yearOfBirth",
              "type": "uint256"
            },
            {
              "internalType": "uint256",
              "name": "age",
              "type": "uint256"
            }
          ],
          "internalType": "struct PatientDetails.PatientPersonalDetails",
          "name": "",
          "type": "tuple"
        },
        {
          "components": [
            {
              "internalType": "address",
              "name": "walletAddress",
              "type": "address"
            },
            {
              "internalType": "bool",
              "name": "isAlcoholic",
              "type": "bool"
            },
            {
              "internalType": "bool",
              "name": "isSmoker",
              "type": "bool"
            },
            {
              "internalType": "bool",
              "name": "isSmokelessTobaccoUser",
              "type": "bool"
            },
            {
              "internalType": "string",
              "name": "surgicalHistory_ifAny",
              "type": "string"
            },
            {
              "internalType": "string",
              "name": "physicalActivityLevel",
              "type": "string"
            },
            {
              "internalType": "string",
              "name": "pastMedicationDetails_IfAny",
              "type": "string"
            }
          ],
          "internalType": "struct PatientDetails.PatientMedicalDetails",
          "name": "",
          "type": "tuple"
        }
      ],
      "stateMutability": "view",
      "type": "function"
    },
    {
      "inputs": [
        {
          "internalType": "address",
          "name": "_walletAddress",
          "type": "address"
        }
      ],
      "name": "getPatientHealthDetails",
      "outputs": [
        {
          "components": [
            {
              "internalType": "address",
              "name": "walletAddress",
              "type": "address"
            },
            {
              "internalType": "address",
              "name": "physician",
              "type": "address"
            },
            {
              "internalType": "string",
              "name": "Department_uint",
              "type": "string"
            },
            {
              "internalType": "string",
              "name": "BloodPressure",
              "type": "string"
            },
            {
              "internalType": "string",
              "name": "HeartRate",
              "type": "string"
            },
            {
              "internalType": "string",
              "name": "RespiratoryRate",
              "type": "string"
            },
            {
              "internalType": "string",
              "name": "Dosage",
              "type": "string"
            }
          ],
          "internalType": "struct PatientDetails.PatientHealthCondition[]",
          "name": "",
          "type": "tuple[]"
        }
      ],
      "stateMutability": "view",
      "type": "function"
    },
    {
      "inputs": [
        {
          "internalType": "uint256",
          "name": "timestamp",
          "type": "uint256"
        }
      ],
      "name": "getYear",
      "outputs": [
        {
          "internalType": "uint256",
          "name": "",
          "type": "uint256"
        }
      ],
      "stateMutability": "pure",
      "type": "function"
    },
    {
      "inputs": [],
      "name": "id",
      "outputs": [
        {
          "internalType": "uint256",
          "name": "",
          "type": "uint256"
        }
      ],
      "stateMutability": "view",
      "type": "function"
    },
    {
      "inputs": [
        {
          "internalType": "address",
          "name": "",
          "type": "address"
        }
      ],
      "name": "owner",
      "outputs": [
        {
          "internalType": "bool",
          "name": "",
          "type": "bool"
        }
      ],
      "stateMutability": "view",
      "type": "function"
    },
    {
      "inputs": [
        {
          "internalType": "address",
          "name": "",
          "type": "address"
        },
        {
          "internalType": "uint256",
          "name": "",
          "type": "uint256"
        }
      ],
      "name": "patientsStoredData",
      "outputs": [
        {
          "internalType": "string",
          "name": "",
          "type": "string"
        }
      ],
      "stateMutability": "view",
      "type": "function"
    },
    {
      "inputs": [
        {
          "internalType": "address",
          "name": "_address",
          "type": "address"
        }
      ],
      "name": "removeOwner",
      "outputs": [],
      "stateMutability": "nonpayable",
      "type": "function"
    },
    {
      "inputs": [],
      "name": "superOwner",
      "outputs": [
        {
          "internalType": "address",
          "name": "",
          "type": "address"
        }
      ],
      "stateMutability": "view",
      "type": "function"
    },
    {
      "inputs": [],
      "name": "totalAdmin",
      "outputs": [
        {
          "internalType": "uint256",
          "name": "",
          "type": "uint256"
        }
      ],
      "stateMutability": "view",
      "type": "function"
    },
    {
      "inputs": [],
      "name": "totalDoctors",
      "outputs": [
        {
          "internalType": "uint256",
          "name": "",
          "type": "uint256"
        }
      ],
      "stateMutability": "view",
      "type": "function"
    },
    {
      "inputs": [],
      "name": "totalPatient",
      "outputs": [
        {
          "internalType": "uint256",
          "name": "",
          "type": "uint256"
        }
      ],
      "stateMutability": "view",
      "type": "function"
    }
  ],
  "bytecode": "0x60806040523480156200001157600080fd5b50336000818152602081905260409020805460ff19166001179055620000379062000052565b600180546001600160a01b031916331781556008556200022f565b3360009081526020819052604090205460ff161515600114620000bc5760405162461bcd60e51b815260206004820152601a60248201527f41636365737365626c65206f6e6c7920666f72204f776e65727300000000000060448201526064015b60405180910390fd5b336000908152602081905260409020805460ff191660011790556001600160a01b03811660009081526003602052604090205460ff1615620001415760405162461bcd60e51b815260206004820181905260248201527f4164647265737320616c7265616479206861732061646d696e206163636573736044820152606401620000b3565b6001600160a01b0381166200018b5760405162461bcd60e51b815260206004820152600f60248201526e496e76616c6964204164647265737360881b6044820152606401620000b3565b6002805460018082019092557f405787fa12a823e0f2b7631cc41b3ba8828b3321ca811111fa75cd3aa3bb5ace0180546001600160a01b0319166001600160a01b0384169081179091556000908152600360205260408120805460ff19169092179091556007805491620001ff8362000207565b919050555050565b6000600182016200022857634e487b7160e01b600052601160045260246000fd5b5060010190565b614d65806200023f6000396000f3fe608060405234801561001057600080fd5b50600436106101fb5760003560e01c80637b42e4711161011a578063aa908bbe116100ad578063c09f40251161007c578063c09f4025146104ad578063e2463ac3146104c0578063efe2ccc1146104d3578063f243cc6a146104f4578063fe0c2a311461051a57600080fd5b8063aa908bbe1461044b578063af640d0f1461045e578063b5f63ec514610467578063bbcaa6371461048757600080fd5b80638a228357116100e95780638a2283571461040957806392c2808f1461041c57806392d66313146104255780639c68ff231461043857600080fd5b80637b42e471146103a55780637f1955eb146103b857806387dcd2b6146103cb57806388b29e8b146103f657600080fd5b80635c3106e111610192578063666e1b3911610161578063666e1b39146103285780636e2c0ffe1461034b5780637065cb481461036b57806375c6a96c1461037e57600080fd5b80635c3106e1146102f05780636140f5aa1461030357806364319e331461031657806365b44d7e1461031f57600080fd5b806318396cc8116101ce57806318396cc8146102815780631f650cc9146102945780632f04e064146102bc57806343935f3c146102dd57600080fd5b8063013b58c8146102005780630a86c02a146102155780630e37008a1461024d578063173825d91461026e575b600080fd5b61021361020e366004613ca6565b610540565b005b610238610223366004613cf4565b60036020526000908152604090205460ff1681565b60405190151581526020015b60405180910390f35b61026061025b366004613d0f565b610577565b604051908152602001610244565b61021361027c366004613cf4565b6105fc565b61021361028f366004613dbf565b610677565b6102a76102a2366004613cf4565b610876565b60405161024499989796959493929190613f02565b6102cf6102ca366004613cf4565b610a68565b60405161024492919061407c565b6102136102eb36600461411b565b611132565b6102136102fe36600461420e565b611521565b610213610311366004613cf4565b61167f565b61026060075481565b61026060065481565b610238610336366004613cf4565b60006020819052908152604090205460ff1681565b61035e610359366004614279565b6117d3565b60405161024491906142a3565b610213610379366004613cf4565b61188c565b61039161038c366004613cf4565b61190a565b6040516102449897969594939291906142b6565b6102136103b3366004614319565b611a6d565b6102136103c63660046143de565b611c6e565b6001546103de906001600160a01b031681565b6040516001600160a01b039091168152602001610244565b610213610404366004613cf4565b611f51565b610213610417366004614319565b6120ca565b610260600d5481565b610260610433366004613d0f565b61235d565b6102136104463660046144b6565b612373565b6103de610459366004613d0f565b6125e1565b61026060085481565b61047a610475366004613cf4565b61260b565b6040516102449190614535565b61049a610495366004613cf4565b6129fd565b604051610244979695949392919061463d565b6102136104bb36600461420e565b612c66565b6102136104ce3660046144b6565b612e2d565b6104e66104e1366004613cf4565b612ffe565b604051610244929190614735565b610507610502366004613cf4565b6136e1565b60405161024497969594939291906147ff565b61052d610528366004614279565b6138cc565b604051610244979695949392919061486f565b6001600160a01b0381166000908152600c60209081526040822080546001810182559083529120016105728382614957565b505050565b6000806105834261235d565b9050600083610594836107b2614a2d565b61059e9190614a40565b9050600081116105f55760405162461bcd60e51b815260206004820152601860248201527f456e74657220636f72726563742062697274682079656172000000000000000060448201526064015b60405180910390fd5b9392505050565b6001546001600160a01b031633146106565760405162461bcd60e51b815260206004820152601f60248201527f41636365737365626c65206f6e6c7920666f722053757065724f776e6572730060448201526064016105ec565b6001600160a01b03166000908152602081905260409020805460ff19169055565b3360009081526020819052604090205460ff1615156001146106ab5760405162461bcd60e51b81526004016105ec90614a53565b6001600160a01b038816158015906106c4575060008351115b80156106d1575060008751115b80156106de575060008651115b80156106eb575060008551115b61072f5760405162461bcd60e51b8152602060048201526015602482015274656e74657220636f72726563742064657461696c7360581b60448201526064016105ec565b6001600160a01b03808916600081815260056020526040902054909116146107695760405162461bcd60e51b81526004016105ec90614a8a565b60408051610100810182526001600160a01b038a811680835260208084018881528486018d9052606085018c9052608085018b905260a085018a905260c0850187905287151560e086015260009283526005909152939020825181546001600160a01b0319169216919091178155915190919060018201906107eb9082614957565b50604082015160028201906108009082614957565b50606082015160038201906108159082614957565b506080820151600482019061082a9082614957565b5060a0820151600582015560c08201518051610850916006840191602090910190613b59565b5060e091909101516007909101805460ff19169115159190911790555050505050505050565b6009602052600090815260409020805460018201805460ff909216929161089c906148d5565b80601f01602080910402602001604051908101604052809291908181526020018280546108c8906148d5565b80156109155780601f106108ea57610100808354040283529160200191610915565b820191906000526020600020905b8154815290600101906020018083116108f857829003601f168201915b505050600284015460038501805494956001600160a01b0390921694919350915061093f906148d5565b80601f016020809104026020016040519081016040528092919081815260200182805461096b906148d5565b80156109b85780601f1061098d576101008083540402835291602001916109b8565b820191906000526020600020905b81548152906001019060200180831161099b57829003601f168201915b5050505050908060040180546109cd906148d5565b80601f01602080910402602001604051908101604052809291908181526020018280546109f9906148d5565b8015610a465780601f10610a1b57610100808354040283529160200191610a46565b820191906000526020600020905b815481529060010190602001808311610a2957829003601f168201915b5050505050908060050154908060060154908060070154908060080154905089565b610ab96040518061010001604052806060815260200160006001600160a01b031681526020016000815260200160008152602001600081526020016000815260200160008152602001606081525090565b610b0c60405180610100016040528060006001600160a01b031681526020016060815260200160608152602001606081526020016060815260200160008152602001606081526020016000151581525090565b3360009081526020819052604090205460ff161515600114610b405760405162461bcd60e51b81526004016105ec90614a53565b6001600160a01b038316610b965760405162461bcd60e51b815260206004820152601e60248201527f57616c6c657420416464726573732063616e6e6f7420626520656d707479000060448201526064016105ec565b6001600160a01b03808416600081815260046020526040902060010154909116148015610bdd57506001600160a01b03808416600081815260056020526040902054909116145b610c9b5760405162461bcd60e51b815260206004820152607860248201527f496e636f727265637420446f63746f722077616c6c657420616464726573732060448201527f6f722054686520446f63746f722064657461696c20666f72207468652061646460648201527f726573732070726f7669646564206973206e6f7420636f6d706c6574656c792060848201527f617661696c61626c6520696e2074686520636861696e2121000000000000000060a482015260c4016105ec565b6001600160a01b038316600090815260046020908152604080832060059092529182902082516101008101909352815491929091839082908290610cde906148d5565b80601f0160208091040260200160405190810160405280929190818152602001828054610d0a906148d5565b8015610d575780601f10610d2c57610100808354040283529160200191610d57565b820191906000526020600020905b815481529060010190602001808311610d3a57829003601f168201915b505050918352505060018201546001600160a01b03166020820152600282015460408201526003820154606082015260048201546080820152600582015460a0820152600682015460c082015260078201805460e090920191610db9906148d5565b80601f0160208091040260200160405190810160405280929190818152602001828054610de5906148d5565b8015610e325780601f10610e0757610100808354040283529160200191610e32565b820191906000526020600020905b815481529060010190602001808311610e1557829003601f168201915b50505091909252505060408051610100810190915283546001600160a01b031681526001840180549395509092849250602084019190610e71906148d5565b80601f0160208091040260200160405190810160405280929190818152602001828054610e9d906148d5565b8015610eea5780601f10610ebf57610100808354040283529160200191610eea565b820191906000526020600020905b815481529060010190602001808311610ecd57829003601f168201915b50505050508152602001600282018054610f03906148d5565b80601f0160208091040260200160405190810160405280929190818152602001828054610f2f906148d5565b8015610f7c5780601f10610f5157610100808354040283529160200191610f7c565b820191906000526020600020905b815481529060010190602001808311610f5f57829003601f168201915b50505050508152602001600382018054610f95906148d5565b80601f0160208091040260200160405190810160405280929190818152602001828054610fc1906148d5565b801561100e5780601f10610fe35761010080835404028352916020019161100e565b820191906000526020600020905b815481529060010190602001808311610ff157829003601f168201915b50505050508152602001600482018054611027906148d5565b80601f0160208091040260200160405190810160405280929190818152602001828054611053906148d5565b80156110a05780601f10611075576101008083540402835291602001916110a0565b820191906000526020600020905b81548152906001019060200180831161108357829003601f168201915b50505050508152602001600582015481526020016006820180548060200260200160405190810160405280929190818152602001828054801561110c57602002820191906000526020600020905b81546001600160a01b031681526001909101906020018083116110ee575b50505091835250506007919091015460ff16151560209091015291935090915050915091565b6001600160a01b03871660009081526009602052604090205460ff166111db5760405162461bcd60e51b815260206004820152605260248201527f57652072656772657420746f2073617920746861742c7468697320506174696560448201527f6e74206973206465616420616e642063616e6e6f7420616464204865616c74686064820152712064657461696c7320616e796d6f7265212160701b608482015260a4016105ec565b6001600160a01b0380881660008181526009602052604090206002015490911614801561122257506001600160a01b038088166000818152600a6020526040902054909116145b6113065760405162461bcd60e51b815260206004820152609960248201527f496e636f72726563742050617469656e742077616c6c6574206164647265737360448201527f206f72205468652050617469656e742064657461696c2073706563696669632060648201527f746f20706572736f6e616c206f722070617374206d65646963616c206869737460848201527f6f7279206f662074686520616464726573732070726f7669646564206e6f742060a48201527f617661696c61626c6520696e2074686520636861696e2121200000000000000060c482015260e4016105ec565b6001600160a01b038781166000908152600460205260409020600101548116908716146113db5760405162461bcd60e51b815260206004820152607160248201527f496e636f72726563742050687973696369616e2077616c6c657420616464726560448201527f7373206f72205468652050687973696369616e2064657461696c20666f72207460648201527f686520616464726573732070726f7669646564206e6f7420617661696c61626c6084820152700329034b7103a34329031b430b4b710909607d1b60a482015260c4016105ec565b6001600160a01b038088166000818152600b60209081526040808320815160e0810183529485528b86168584019081529185018b8152606086018b9052608086018a905260a0860189905260c0860188905281546001818101845592865293909420855160079094020180549387166001600160a01b031994851617815591519082018054919096169216919091179093555190919060028201906114809082614957565b50606082015160038201906114959082614957565b50608082015160048201906114aa9082614957565b5060a082015160058201906114bf9082614957565b5060c082015160068201906114d49082614957565b505050506001600160a01b0394851660009081526005602090815260408220600601805460018101825590835291200180546001600160a01b031916969095169590951790935550505050565b6001600160a01b0387166115475760405162461bcd60e51b81526004016105ec90614b22565b6001600160a01b03808816600081815260096020526040902060020154909116146115845760405162461bcd60e51b81526004016105ec90614b68565b6040805160e0810182526001600160a01b03808a1680835289151560208085019182528a15158587019081528a151560608701908152608087018b815260a088018b905260c088018a90526000958652600a90935296909320855181549351945197511515600160b01b0260ff60b01b19981515600160a81b029890981661ffff60a81b19951515600160a01b026001600160a81b03199095169190961617929092179290921692909217939093178155915190919060018201906116499082614957565b5060a0820151600282019061165e9082614957565b5060c082015160038201906116739082614957565b50505050505050505050565b3360009081526020819052604090205460ff1615156001146116b35760405162461bcd60e51b81526004016105ec90614a53565b336000908152602081905260409020805460ff191660011790556001600160a01b0381166117155760405162461bcd60e51b815260206004820152600f60248201526e496e76616c6964204164647265737360881b60448201526064016105ec565b6001600160a01b03811660009081526003602052604090205460ff166117b25760405162461bcd60e51b815260206004820152604660248201527f50726f76696465642061646472657373206d75737420626520616e2041646d6960448201527f6e4163636573734164647265737320746f2072656d6f76652041646d696e416360648201526563657373212160d01b608482015260a4016105ec565b6001600160a01b03166000908152600360205260409020805460ff19169055565b600c60205281600052604060002081815481106117ef57600080fd5b9060005260206000200160009150915050805461180b906148d5565b80601f0160208091040260200160405190810160405280929190818152602001828054611837906148d5565b80156118845780601f1061185957610100808354040283529160200191611884565b820191906000526020600020905b81548152906001019060200180831161186757829003601f168201915b505050505081565b6001546001600160a01b031633146118e65760405162461bcd60e51b815260206004820152601f60248201527f41636365737365626c65206f6e6c7920666f722053757065724f776e6572730060448201526064016105ec565b6001600160a01b03166000908152602081905260409020805460ff19166001179055565b600460205260009081526040902080548190611925906148d5565b80601f0160208091040260200160405190810160405280929190818152602001828054611951906148d5565b801561199e5780601f106119735761010080835404028352916020019161199e565b820191906000526020600020905b81548152906001019060200180831161198157829003601f168201915b5050505050908060010160009054906101000a90046001600160a01b0316908060020154908060030154908060040154908060050154908060060154908060070180546119ea906148d5565b80601f0160208091040260200160405190810160405280929190818152602001828054611a16906148d5565b8015611a635780601f10611a3857610100808354040283529160200191611a63565b820191906000526020600020905b815481529060010190602001808311611a4657829003601f168201915b5050505050905088565b3360009081526003602052604081205460ff1615611a89575060015b3360009081526003602052604090205460ff16611ab85760405162461bcd60e51b81526004016105ec90614c00565b6001600160a01b03871615801590611ad1575060008651115b8015611ade575060008551115b8015611ae957508315155b8015611af457508215155b8015611aff57508115155b611b1b5760405162461bcd60e51b81526004016105ec90614b22565b6001600160a01b0380881660008181526009602052604090206002015490911614611b585760405162461bcd60e51b81526004016105ec90614b68565b6000611b6383610577565b60408051610120810182528c1515815260208082018d81526001600160a01b038d16838501819052606084018d9052608084018c905260a084018b905260c084018a905260e084018990526101008401869052600090815260099092529290208151815460ff19169015151781559151929350916001820190611be69082614957565b5060408201516002820180546001600160a01b0319166001600160a01b0390921691909117905560608201516003820190611c219082614957565b5060808201516004820190611c369082614957565b5060a0820151600582015560c0820151600682015560e082015160078201556101009091015160089091015550505050505050505050565b3360009081526020819052604090205460ff161515600114611ca25760405162461bcd60e51b81526004016105ec90614a53565b6001600160a01b0380881660008181526005602052604090205490911603611d235760405162461bcd60e51b815260206004820152602e60248201527f50687973696369616e2050726f66657373696f6e616c2064657461696c73206160448201526d6c7265616479206578697374212160901b60648201526084016105ec565b6001600160a01b0380881660008181526005602052604090205490911614801590611d4f575060008251115b8015611d5c575060008651115b8015611d69575060008551115b8015611d76575060008451115b611dba5760405162461bcd60e51b8152602060048201526015602482015274456e74657220436f72726563742064657461696c7360581b60448201526064016105ec565b604051806101000160405280886001600160a01b03168152602001838152602001878152602001868152602001858152602001848152602001600067ffffffffffffffff811115611e0d57611e0d613bd3565b604051908082528060200260200182016040528015611e36578160200160208202803683370190505b5081528215156020918201526001600160a01b0389811660009081526005835260409020835181546001600160a01b0319169216919091178155908201516001820190611e839082614957565b5060408201516002820190611e989082614957565b5060608201516003820190611ead9082614957565b5060808201516004820190611ec29082614957565b5060a0820151600582015560c08201518051611ee8916006840191602090910190613b59565b5060e091909101516007909101805460ff19169115159190911790556001600160a01b0387811660008181526004602052604090206001015490911603611f4857611f3287611f51565b60068054906000611f4283614c5e565b91905055505b50505050505050565b3360009081526020819052604090205460ff161515600114611f855760405162461bcd60e51b81526004016105ec90614a53565b336000908152602081905260409020805460ff191660011790556001600160a01b03811660009081526003602052604090205460ff16156120085760405162461bcd60e51b815260206004820181905260248201527f4164647265737320616c7265616479206861732061646d696e2061636365737360448201526064016105ec565b6001600160a01b0381166120505760405162461bcd60e51b815260206004820152600f60248201526e496e76616c6964204164647265737360881b60448201526064016105ec565b6002805460018082019092557f405787fa12a823e0f2b7631cc41b3ba8828b3321ca811111fa75cd3aa3bb5ace0180546001600160a01b0319166001600160a01b0384169081179091556000908152600360205260408120805460ff191690921790915560078054916120c283614c5e565b919050555050565b3360009081526003602052604081205460ff16156120e6575060015b3360009081526003602052604090205460ff166121155760405162461bcd60e51b81526004016105ec90614c00565b6001600160a01b03808816600081815260096020526040902060020154909116036121955760405162461bcd60e51b815260206004820152602a60248201527f50617469656e74277320706572736f6e616c2064657461696c7320616c7265616044820152696479206578697374212160b01b60648201526084016105ec565b6001600160a01b038716158015906121ae575060008651115b80156121bb575060008551115b80156121c657508315155b80156121d25750601e84105b80156121dd57508215155b80156121e95750600c83105b80156121f457508115155b6122105760405162461bcd60e51b81526004016105ec90614b22565b600061221b83610577565b60408051610120810182528c1515815260208082018d81526001600160a01b038d16838501819052606084018d9052608084018c905260a084018b905260c084018a905260e084018990526101008401869052600090815260099092529290208151815460ff1916901515178155915192935091600182019061229e9082614957565b5060408201516002820180546001600160a01b0319166001600160a01b03909216919091179055606082015160038201906122d99082614957565b50608082015160048201906122ee9082614957565b5060a0820151600582015560c0820151600682015560e08201516007820155610100909101516008909101556001600160a01b038089166000818152600a60205260409020549091160361167357600d805490600061234c83614c5e565b919050555050505050505050505050565b600061236d6301e1338083614c77565b92915050565b3360009081526020819052604090205460ff1615156001146123a75760405162461bcd60e51b81526004016105ec90614a53565b6001600160a01b03808716600081815260046020526040902060010154909116036124265760405162461bcd60e51b815260206004820152602960248201527f50687973696369616e20706572736f6e616c2064657461696c20616c7265616460448201526879206578697374212160b81b60648201526084016105ec565b6001600160a01b0386161580159061243e5750600085115b801561244b5750601f8511155b80156124575750600084115b80156124645750600c8411155b80156124705750600083115b801561247c5750600082115b8015612489575060008151115b8015612496575060008751115b6124b25760405162461bcd60e51b81526004016105ec90614c99565b60006124bd84610577565b60408051610100810182528a81526001600160a01b038a1660208083018290528284018b9052606083018a90526080830189905260a0830185905260c0830188905260e08301879052600091825260049052919091208151929350909181906125269082614957565b5060208201516001820180546001600160a01b0319166001600160a01b0390921691909117905560408201516002820155606082015160038201556080820151600482015560a0820151600582015560c0820151600682015560e082015160078201906125939082614957565b5050506001600160a01b03808816600081815260056020526040902054909116036125d7576125c187611f51565b600680549060006125d183614c5e565b91905055505b5050505050505050565b600281815481106125f157600080fd5b6000918252602090912001546001600160a01b0316905081565b336000818152600960205260408120600201546060926001600160a01b03909116148061264e5750336000818152600a60205260409020546001600160a01b0316145b8061266857503360009081526003602052604090205460ff165b15612671575060015b8061268e5760405162461bcd60e51b81526004016105ec90614ce8565b6001600160a01b0383166000908152600b6020908152604080832080548251818502810185019093528083529193909284015b828210156129f05760008481526020908190206040805160e0810182526007860290920180546001600160a01b0390811684526001820154169383019390935260028301805492939291840191612717906148d5565b80601f0160208091040260200160405190810160405280929190818152602001828054612743906148d5565b80156127905780601f1061276557610100808354040283529160200191612790565b820191906000526020600020905b81548152906001019060200180831161277357829003601f168201915b505050505081526020016003820180546127a9906148d5565b80601f01602080910402602001604051908101604052809291908181526020018280546127d5906148d5565b80156128225780601f106127f757610100808354040283529160200191612822565b820191906000526020600020905b81548152906001019060200180831161280557829003601f168201915b5050505050815260200160048201805461283b906148d5565b80601f0160208091040260200160405190810160405280929190818152602001828054612867906148d5565b80156128b45780601f10612889576101008083540402835291602001916128b4565b820191906000526020600020905b81548152906001019060200180831161289757829003601f168201915b505050505081526020016005820180546128cd906148d5565b80601f01602080910402602001604051908101604052809291908181526020018280546128f9906148d5565b80156129465780601f1061291b57610100808354040283529160200191612946565b820191906000526020600020905b81548152906001019060200180831161292957829003601f168201915b5050505050815260200160068201805461295f906148d5565b80601f016020809104026020016040519081016040528092919081815260200182805461298b906148d5565b80156129d85780601f106129ad576101008083540402835291602001916129d8565b820191906000526020600020905b8154815290600101906020018083116129bb57829003601f168201915b505050505081525050815260200190600101906126c1565b5050505091505b50919050565b600560205260009081526040902080546001820180546001600160a01b039092169291612a29906148d5565b80601f0160208091040260200160405190810160405280929190818152602001828054612a55906148d5565b8015612aa25780601f10612a7757610100808354040283529160200191612aa2565b820191906000526020600020905b815481529060010190602001808311612a8557829003601f168201915b505050505090806002018054612ab7906148d5565b80601f0160208091040260200160405190810160405280929190818152602001828054612ae3906148d5565b8015612b305780601f10612b0557610100808354040283529160200191612b30565b820191906000526020600020905b815481529060010190602001808311612b1357829003601f168201915b505050505090806003018054612b45906148d5565b80601f0160208091040260200160405190810160405280929190818152602001828054612b71906148d5565b8015612bbe5780601f10612b9357610100808354040283529160200191612bbe565b820191906000526020600020905b815481529060010190602001808311612ba157829003601f168201915b505050505090806004018054612bd3906148d5565b80601f0160208091040260200160405190810160405280929190818152602001828054612bff906148d5565b8015612c4c5780601f10612c2157610100808354040283529160200191612c4c565b820191906000526020600020905b815481529060010190602001808311612c2f57829003601f168201915b50505050600583015460079093015491929160ff16905087565b6001600160a01b038088166000818152600a602052604090205490911603612ce05760405162461bcd60e51b815260206004820152602760248201527f50617469656e74206d65646963616c2064657461696c7320616c7265616479206044820152666578697374212160c81b60648201526084016105ec565b6001600160a01b038716612d065760405162461bcd60e51b81526004016105ec90614b22565b6040805160e0810182526001600160a01b03808a1680835289151560208085019182528a15158587019081528a151560608701908152608087018b815260a088018b905260c088018a90526000958652600a90935296909320855181549351945197511515600160b01b0260ff60b01b19981515600160a81b029890981661ffff60a81b19951515600160a01b026001600160a81b0319909516919096161792909217929092169290921793909317815591519091906001820190612dcb9082614957565b5060a08201516002820190612de09082614957565b5060c08201516003820190612df59082614957565b5050506001600160a01b0380881660008181526009602052604090206002015490911603611f4857600d8054906000611f4283614c5e565b3360009081526020819052604090205460ff161515600114612e615760405162461bcd60e51b81526004016105ec90614a53565b6001600160a01b03861615801590612e795750600085115b8015612e855750600084115b8015612e915750600083115b8015612e9d5750600082115b8015612eaa575060008151115b8015612eb7575060008751115b612ed35760405162461bcd60e51b81526004016105ec90614c99565b6001600160a01b0380871660008181526004602052604090206001015490911614612f105760405162461bcd60e51b81526004016105ec90614a8a565b6000612f1b84610577565b60408051610100810182528a81526001600160a01b038a1660208083018290528284018b9052606083018a90526080830189905260a0830185905260c0830188905260e0830187905260009182526004905291909120815192935090918190612f849082614957565b5060208201516001820180546001600160a01b0319166001600160a01b0390921691909117905560408201516002820155606082015160038201556080820151600482015560a0820151600582015560c0820151600682015560e08201516007820190612ff19082614957565b5050505050505050505050565b6130586040518061012001604052806000151581526020016060815260200160006001600160a01b031681526020016060815260200160608152602001600081526020016000815260200160008152602001600081525090565b6130a76040518060e0016040528060006001600160a01b031681526020016000151581526020016000151581526020016000151581526020016060815260200160608152602001606081525090565b3360008181526009602052604081206002015490916001600160a01b0390911614806130e95750336000818152600a60205260409020546001600160a01b0316145b8061310357503360009081526003602052604090205460ff165b1561310c575060015b806131295760405162461bcd60e51b81526004016105ec90614ce8565b6001600160a01b03841661317f5760405162461bcd60e51b815260206004820152601e60248201527f57616c6c657420416464726573732063616e6e6f7420626520656d707479000060448201526064016105ec565b6001600160a01b038085166000818152600960205260409020600201549091161480156131c657506001600160a01b038085166000818152600a6020526040902054909116145b6132845760405162461bcd60e51b815260206004820152607960248201527f496e636f72726563742050617469656e742077616c6c6574206164647265737360448201527f206f72205468652050617469656e742064657461696c20666f7220746865206160648201527f6464726573732070726f7669646564206973206e6f7420636f6d706c65746c7960848201527f20617661696c61626c6520696e2074686520636861696e21210000000000000060a482015260c4016105ec565b6001600160a01b0384166000908152600960209081526040808320600a83529281902081516101208101909252835460ff16151582526001840180549193859290840191906132d2906148d5565b80601f01602080910402602001604051908101604052809291908181526020018280546132fe906148d5565b801561334b5780601f106133205761010080835404028352916020019161334b565b820191906000526020600020905b81548152906001019060200180831161332e57829003601f168201915b505050918352505060028201546001600160a01b0316602082015260038201805460409092019161337b906148d5565b80601f01602080910402602001604051908101604052809291908181526020018280546133a7906148d5565b80156133f45780601f106133c9576101008083540402835291602001916133f4565b820191906000526020600020905b8154815290600101906020018083116133d757829003601f168201915b5050505050815260200160048201805461340d906148d5565b80601f0160208091040260200160405190810160405280929190818152602001828054613439906148d5565b80156134865780601f1061345b57610100808354040283529160200191613486565b820191906000526020600020905b81548152906001019060200180831161346957829003601f168201915b5050509183525050600582015460208083019190915260068301546040808401919091526007840154606080850191909152600890940154608093840152805160e08101825286546001600160a01b038116825260ff600160a01b82048116151594830194909452600160a81b81048416151592820192909252600160b01b90910490911615159281019290925260018401805493955091928492918401919061352f906148d5565b80601f016020809104026020016040519081016040528092919081815260200182805461355b906148d5565b80156135a85780601f1061357d576101008083540402835291602001916135a8565b820191906000526020600020905b81548152906001019060200180831161358b57829003601f168201915b505050505081526020016002820180546135c1906148d5565b80601f01602080910402602001604051908101604052809291908181526020018280546135ed906148d5565b801561363a5780601f1061360f5761010080835404028352916020019161363a565b820191906000526020600020905b81548152906001019060200180831161361d57829003601f168201915b50505050508152602001600382018054613653906148d5565b80601f016020809104026020016040519081016040528092919081815260200182805461367f906148d5565b80156136cc5780601f106136a1576101008083540402835291602001916136cc565b820191906000526020600020905b8154815290600101906020018083116136af57829003601f168201915b50505050508152505090509250925050915091565b600a60205260009081526040902080546001820180546001600160a01b0383169360ff600160a01b8504811694600160a81b8104821694600160b01b9091049091169261372d906148d5565b80601f0160208091040260200160405190810160405280929190818152602001828054613759906148d5565b80156137a65780601f1061377b576101008083540402835291602001916137a6565b820191906000526020600020905b81548152906001019060200180831161378957829003601f168201915b5050505050908060020180546137bb906148d5565b80601f01602080910402602001604051908101604052809291908181526020018280546137e7906148d5565b80156138345780601f1061380957610100808354040283529160200191613834565b820191906000526020600020905b81548152906001019060200180831161381757829003601f168201915b505050505090806003018054613849906148d5565b80601f0160208091040260200160405190810160405280929190818152602001828054613875906148d5565b80156138c25780601f10613897576101008083540402835291602001916138c2565b820191906000526020600020905b8154815290600101906020018083116138a557829003601f168201915b5050505050905087565b600b60205281600052604060002081815481106138e857600080fd5b60009182526020909120600790910201805460018201546002830180546001600160a01b039384169650919092169350613921906148d5565b80601f016020809104026020016040519081016040528092919081815260200182805461394d906148d5565b801561399a5780601f1061396f5761010080835404028352916020019161399a565b820191906000526020600020905b81548152906001019060200180831161397d57829003601f168201915b5050505050908060030180546139af906148d5565b80601f01602080910402602001604051908101604052809291908181526020018280546139db906148d5565b8015613a285780601f106139fd57610100808354040283529160200191613a28565b820191906000526020600020905b815481529060010190602001808311613a0b57829003601f168201915b505050505090806004018054613a3d906148d5565b80601f0160208091040260200160405190810160405280929190818152602001828054613a69906148d5565b8015613ab65780601f10613a8b57610100808354040283529160200191613ab6565b820191906000526020600020905b815481529060010190602001808311613a9957829003601f168201915b505050505090806005018054613acb906148d5565b80601f0160208091040260200160405190810160405280929190818152602001828054613af7906148d5565b8015613b445780601f10613b1957610100808354040283529160200191613b44565b820191906000526020600020905b815481529060010190602001808311613b2757829003601f168201915b505050505090806006018054613849906148d5565b828054828255906000526020600020908101928215613bae579160200282015b82811115613bae57825182546001600160a01b0319166001600160a01b03909116178255602090920191600190910190613b79565b50613bba929150613bbe565b5090565b5b80821115613bba5760008155600101613bbf565b634e487b7160e01b600052604160045260246000fd5b604051601f8201601f1916810167ffffffffffffffff81118282101715613c1257613c12613bd3565b604052919050565b600082601f830112613c2b57600080fd5b813567ffffffffffffffff811115613c4557613c45613bd3565b613c58601f8201601f1916602001613be9565b818152846020838601011115613c6d57600080fd5b816020850160208301376000918101602001919091529392505050565b80356001600160a01b0381168114613ca157600080fd5b919050565b60008060408385031215613cb957600080fd5b823567ffffffffffffffff811115613cd057600080fd5b613cdc85828601613c1a565b925050613ceb60208401613c8a565b90509250929050565b600060208284031215613d0657600080fd5b6105f582613c8a565b600060208284031215613d2157600080fd5b5035919050565b80358015158114613ca157600080fd5b600082601f830112613d4957600080fd5b8135602067ffffffffffffffff821115613d6557613d65613bd3565b8160051b613d74828201613be9565b9283528481018201928281019087851115613d8e57600080fd5b83870192505b84831015613db457613da583613c8a565b82529183019190830190613d94565b979650505050505050565b600080600080600080600080610100898b031215613ddc57600080fd5b613de589613c8a565b9750602089013567ffffffffffffffff80821115613e0257600080fd5b613e0e8c838d01613c1a565b985060408b0135915080821115613e2457600080fd5b613e308c838d01613c1a565b975060608b0135915080821115613e4657600080fd5b613e528c838d01613c1a565b965060808b0135955060a08b0135915080821115613e6f57600080fd5b613e7b8c838d01613c1a565b9450613e8960c08c01613d28565b935060e08b0135915080821115613e9f57600080fd5b50613eac8b828c01613d38565b9150509295985092959890939650565b6000815180845260005b81811015613ee257602081850181015186830182015201613ec6565b506000602082860101526020601f19601f83011685010191505092915050565b60006101208b15158352806020840152613f1e8184018c613ebc565b6001600160a01b038b16604085015283810360608501529050613f41818a613ebc565b90508281036080840152613f558189613ebc565b9150508560a08301528460c08301528360e0830152826101008301529a9950505050505050505050565b600081518084526020808501945080840160005b83811015613fb85781516001600160a01b031687529582019590820190600101613f93565b509495945050505050565b80516001600160a01b0316825260006101006020830151816020860152613fec82860182613ebc565b915050604083015184820360408601526140068282613ebc565b915050606083015184820360608601526140208282613ebc565b9150506080830151848203608086015261403a8282613ebc565b91505060a083015160a085015260c083015184820360c086015261405e8282613f7f565b91505060e083015161407460e086018215159052565b509392505050565b604081526000835161010080604085015261409b610140850183613ebc565b915060018060a01b03602087015116606085015260408601516080850152606086015160a0850152608086015160c085015260a086015160e085015260c0860151818501525060e0850151603f19848303016101208501526140fd8282613ebc565b91505082810360208401526141128185613fc3565b95945050505050565b600080600080600080600060e0888a03121561413657600080fd5b61413f88613c8a565b965061414d60208901613c8a565b9550604088013567ffffffffffffffff8082111561416a57600080fd5b6141768b838c01613c1a565b965060608a013591508082111561418c57600080fd5b6141988b838c01613c1a565b955060808a01359150808211156141ae57600080fd5b6141ba8b838c01613c1a565b945060a08a01359150808211156141d057600080fd5b6141dc8b838c01613c1a565b935060c08a01359150808211156141f257600080fd5b506141ff8a828b01613c1a565b91505092959891949750929550565b600080600080600080600060e0888a03121561422957600080fd5b61423288613c8a565b965061424060208901613d28565b955061424e60408901613d28565b945061425c60608901613d28565b9350608088013567ffffffffffffffff808211156141ae57600080fd5b6000806040838503121561428c57600080fd5b61429583613c8a565b946020939093013593505050565b6020815260006105f56020830184613ebc565b60006101008083526142ca8184018c613ebc565b905060018060a01b038a1660208401528860408401528760608401528660808401528560a08401528460c084015282810360e084015261430a8185613ebc565b9b9a5050505050505050505050565b600080600080600080600080610100898b03121561433657600080fd5b61433f89613d28565b9750602089013567ffffffffffffffff8082111561435c57600080fd5b6143688c838d01613c1a565b985061437660408c01613c8a565b975060608b013591508082111561438c57600080fd5b6143988c838d01613c1a565b965060808b01359150808211156143ae57600080fd5b506143bb8b828c01613c1a565b989b979a50959894979660a0860135965060c08601359560e00135945092505050565b600080600080600080600060e0888a0312156143f957600080fd5b61440288613c8a565b9650602088013567ffffffffffffffff8082111561441f57600080fd5b61442b8b838c01613c1a565b975060408a013591508082111561444157600080fd5b61444d8b838c01613c1a565b965060608a013591508082111561446357600080fd5b61446f8b838c01613c1a565b955060808a0135945060a08a013591508082111561448c57600080fd5b506144998a828b01613c1a565b9250506144a860c08901613d28565b905092959891949750929550565b600080600080600080600060e0888a0312156144d157600080fd5b873567ffffffffffffffff808211156144e957600080fd5b6144f58b838c01613c1a565b985061450360208b01613c8a565b975060408a0135965060608a0135955060808a0135945060a08a0135935060c08a01359150808211156141f257600080fd5b60006020808301818452808551808352604092508286019150828160051b87010184880160005b8381101561462f57888303603f19018552815180516001600160a01b031684528781015160e0906145978a8701826001600160a01b03169052565b508782015181898701526145ad82870182613ebc565b915050606080830151868303828801526145c78382613ebc565b92505050608080830151868303828801526145e28382613ebc565b9250505060a080830151868303828801526145fd8382613ebc565b9250505060c0808301519250858203818701525061461b8183613ebc565b96890196945050509086019060010161455c565b509098975050505050505050565b6001600160a01b038816815260e06020820181905260009061466190830189613ebc565b82810360408401526146738189613ebc565b905082810360608401526146878188613ebc565b9050828103608084015261469b8187613ebc565b60a0840195909552505090151560c09091015295945050505050565b60018060a01b0381511682526020810151151560208301526040810151151560408301526060810151151560608301526000608082015160e0608085015261470260e0850182613ebc565b905060a083015184820360a086015261471b8282613ebc565b91505060c083015184820360c08601526141128282613ebc565b6040815261474860408201845115159052565b60006020840151610120806060850152614766610160850183613ebc565b9150604086015161478260808601826001600160a01b03169052565b506060860151603f19808685030160a087015261479f8483613ebc565b935060808801519150808685030160c0870152506147bd8382613ebc565b92505060a086015160e085015260c0860151610100818187015260e08801518387015280880151610140870152505050828103602084015261411281856146b7565b6001600160a01b038816815286151560208201528515156040820152841515606082015260e06080820181905260009061483b90830186613ebc565b82810360a084015261484d8186613ebc565b905082810360c08401526148618185613ebc565b9a9950505050505050505050565b6001600160a01b0388811682528716602082015260e06040820181905260009061489b90830188613ebc565b82810360608401526148ad8188613ebc565b905082810360808401526148c18187613ebc565b905082810360a084015261484d8186613ebc565b600181811c908216806148e957607f821691505b6020821081036129f757634e487b7160e01b600052602260045260246000fd5b601f82111561057257600081815260208120601f850160051c810160208610156149305750805b601f850160051c820191505b8181101561494f5782815560010161493c565b505050505050565b815167ffffffffffffffff81111561497157614971613bd3565b6149858161497f84546148d5565b84614909565b602080601f8311600181146149ba57600084156149a25750858301515b600019600386901b1c1916600185901b17855561494f565b600085815260208120601f198616915b828110156149e9578886015182559484019460019091019084016149ca565b5085821015614a075787850151600019600388901b60f8161c191681555b5050505050600190811b01905550565b634e487b7160e01b600052601160045260246000fd5b8082018082111561236d5761236d614a17565b8181038181111561236d5761236d614a17565b6020808252601a908201527f41636365737365626c65206f6e6c7920666f72204f776e657273000000000000604082015260600190565b6020808252606c908201527f496e636f727265637420446f63746f7227732077616c6c65742061646472657360408201527f73206f722054686520446f63746f722064657461696c20666f7220746865206160608201527f6464726573732070726f7669646564206e6f7420617661696c61626c6520696e60808201526b2074686520636861696e212160a01b60a082015260c00190565b60208082526026908201527f4b696e646c792066696c6c20616c6c20746865206d616e6461746f7279206665604082015265696c6473212160d01b606082015260800190565b6020808252606c908201527f496e636f72726563742050617469656e742077616c6c6574206164647265737360408201527f206f72205468652050617469656e742064657461696c20666f7220746865206160608201527f6464726573732070726f7669646564206e6f7420617661696c61626c6520696e60808201526b2074686520636861696e212160a01b60a082015260c00190565b602080825260409082018190527f4f6e6c79207468652041646d696e2063616e2063616c6c20746869732066756e908201527f6374696f6e2064756520746f20736563757269747920726561736f6e73212121606082015260800190565b600060018201614c7057614c70614a17565b5060010190565b600082614c9457634e487b7160e01b600052601260045260246000fd5b500490565b6020808252602f908201527f4b696e646c792066696c6c20616c6c20746865206d616e6461746f727920666560408201526e696c64732070726f7065726c79212160881b606082015260800190565b60208082526027908201527f596f752068617665206e6f2061636365737320746f206665746368207468652060408201526664657461696c7360c81b60608201526080019056fea2646970667358221220a97ba3c15d01206789e5788b27fce04a0676807932246f72a0a7639dae119b4864736f6c63430008150033",
  "linkReferences": {},
  "deployedLinkReferences": {}
}