{
  "_format": "hh-sol-artifact-1",
  "contractName": "PatientDetails",
  "sourceName": "src/contracts/Patient.sol",
  "abi": [
    {
      "inputs": [],
      "stateMutability": "nonpayable",
      "type": "constructor"
    },
    {
      "inputs": [
        {
          "internalType": "address",
          "name": "_walletAddress",
          "type": "address"
        }
      ],
      "name": "AddDoctorAccess",
      "outputs": [],
      "stateMutability": "nonpayable",
      "type": "function"
    },
    {
      "inputs": [
        {
          "internalType": "string",
          "name": "_name",
          "type": "string"
        },
        {
          "internalType": "address",
          "name": "_walletAddress",
          "type": "address"
        },
        {
          "internalType": "string",
          "name": "_dateOfBirth",
          "type": "string"
        },
        {
          "internalType": "uint256",
          "name": "_age",
          "type": "uint256"
        },
        {
          "internalType": "uint256",
          "name": "_phoneNumber",
          "type": "uint256"
        },
        {
          "internalType": "string",
          "name": "_email",
          "type": "string"
        }
      ],
      "name": "AddDoctorPersonalInfo",
      "outputs": [],
      "stateMutability": "nonpayable",
      "type": "function"
    },
    {
      "inputs": [
        {
          "internalType": "address",
          "name": "_walletAddress",
          "type": "address"
        },
        {
          "internalType": "string",
          "name": "_MedicalLicenseNumber",
          "type": "string"
        },
        {
          "internalType": "string",
          "name": "_Specialization",
          "type": "string"
        },
        {
          "internalType": "uint256",
          "name": "_ExperienceInYear",
          "type": "uint256"
        },
        {
          "internalType": "string",
          "name": "_MedicalSchoolAttended",
          "type": "string"
        }
      ],
      "name": "AddDoctorProfessionalInfo",
      "outputs": [],
      "stateMutability": "nonpayable",
      "type": "function"
    },
    {
      "inputs": [
        {
          "internalType": "string",
          "name": "_date",
          "type": "string"
        },
        {
          "internalType": "address",
          "name": "_walletAddress",
          "type": "address"
        },
        {
          "internalType": "bool",
          "name": "_isAlcoholic",
          "type": "bool"
        },
        {
          "internalType": "bool",
          "name": "_isSmoker",
          "type": "bool"
        },
        {
          "internalType": "bool",
          "name": "_isSmokelessTobaccoUser",
          "type": "bool"
        },
        {
          "internalType": "string",
          "name": "_surgicalHistory_ifAny",
          "type": "string"
        },
        {
          "internalType": "string",
          "name": "_physicalActivityLevel",
          "type": "string"
        },
        {
          "internalType": "string",
          "name": "_pastMedicationDetails_IfAny",
          "type": "string"
        }
      ],
      "name": "AddPatientsMedicalDetails",
      "outputs": [],
      "stateMutability": "nonpayable",
      "type": "function"
    },
    {
      "inputs": [
        {
          "internalType": "string",
          "name": "date",
          "type": "string"
        },
        {
          "internalType": "string",
          "name": "_name",
          "type": "string"
        },
        {
          "internalType": "address",
          "name": "_walletAddress",
          "type": "address"
        },
        {
          "internalType": "string",
          "name": "_gender",
          "type": "string"
        },
        {
          "internalType": "string",
          "name": "_Occupation",
          "type": "string"
        },
        {
          "internalType": "string",
          "name": "_dateOfBirth",
          "type": "string"
        },
        {
          "internalType": "uint256",
          "name": "_age",
          "type": "uint256"
        }
      ],
      "name": "AddPatientsPersonalDetails",
      "outputs": [],
      "stateMutability": "nonpayable",
      "type": "function"
    },
    {
      "inputs": [
        {
          "internalType": "address",
          "name": "_walletAddress",
          "type": "address"
        }
      ],
      "name": "DeleteDoctorAccess",
      "outputs": [],
      "stateMutability": "nonpayable",
      "type": "function"
    },
    {
      "inputs": [
        {
          "internalType": "address",
          "name": "",
          "type": "address"
        }
      ],
      "name": "DoctorAccess",
      "outputs": [
        {
          "internalType": "bool",
          "name": "",
          "type": "bool"
        }
      ],
      "stateMutability": "view",
      "type": "function"
    },
    {
      "inputs": [
        {
          "internalType": "address",
          "name": "",
          "type": "address"
        }
      ],
      "name": "DoctorsPersonalInfo",
      "outputs": [
        {
          "internalType": "string",
          "name": "name",
          "type": "string"
        },
        {
          "internalType": "address",
          "name": "walletAddress",
          "type": "address"
        },
        {
          "internalType": "string",
          "name": "dateOfBirth",
          "type": "string"
        },
        {
          "internalType": "uint256",
          "name": "age",
          "type": "uint256"
        },
        {
          "internalType": "uint256",
          "name": "phoneNumber",
          "type": "uint256"
        },
        {
          "internalType": "string",
          "name": "email",
          "type": "string"
        }
      ],
      "stateMutability": "view",
      "type": "function"
    },
    {
      "inputs": [
        {
          "internalType": "address",
          "name": "",
          "type": "address"
        }
      ],
      "name": "Doctors_ProfessionalDetails",
      "outputs": [
        {
          "internalType": "address",
          "name": "walletAddress",
          "type": "address"
        },
        {
          "internalType": "string",
          "name": "MedicalSchoolAttended",
          "type": "string"
        },
        {
          "internalType": "string",
          "name": "MedicalLicenseNumber",
          "type": "string"
        },
        {
          "internalType": "string",
          "name": "Specialization",
          "type": "string"
        },
        {
          "internalType": "uint256",
          "name": "ExperienceInYear",
          "type": "uint256"
        }
      ],
      "stateMutability": "view",
      "type": "function"
    },
    {
      "inputs": [
        {
          "internalType": "string",
          "name": "_name",
          "type": "string"
        },
        {
          "internalType": "address",
          "name": "_walletAddress",
          "type": "address"
        },
        {
          "internalType": "string",
          "name": "_dateOfBirth",
          "type": "string"
        },
        {
          "internalType": "uint256",
          "name": "_age",
          "type": "uint256"
        },
        {
          "internalType": "uint256",
          "name": "_phoneNumber",
          "type": "uint256"
        },
        {
          "internalType": "string",
          "name": "_email",
          "type": "string"
        }
      ],
      "name": "EditDoctorPersonalDetails",
      "outputs": [],
      "stateMutability": "nonpayable",
      "type": "function"
    },
    {
      "inputs": [
        {
          "internalType": "address",
          "name": "_walletAddress",
          "type": "address"
        },
        {
          "internalType": "string",
          "name": "_MedicalLicenseNumber",
          "type": "string"
        },
        {
          "internalType": "string",
          "name": "_Specialization",
          "type": "string"
        },
        {
          "internalType": "uint256",
          "name": "_ExperienceInYear",
          "type": "uint256"
        },
        {
          "internalType": "string",
          "name": "_MedicalSchoolAttended",
          "type": "string"
        }
      ],
      "name": "EditDoctorProfessionalDetails",
      "outputs": [],
      "stateMutability": "nonpayable",
      "type": "function"
    },
    {
      "inputs": [
        {
          "internalType": "string",
          "name": "_date",
          "type": "string"
        },
        {
          "internalType": "string",
          "name": "_name",
          "type": "string"
        },
        {
          "internalType": "address",
          "name": "_walletAddress",
          "type": "address"
        },
        {
          "internalType": "string",
          "name": "_gender",
          "type": "string"
        },
        {
          "internalType": "string",
          "name": "_Occupation",
          "type": "string"
        },
        {
          "internalType": "string",
          "name": "_dateOfBirth",
          "type": "string"
        },
        {
          "internalType": "uint256",
          "name": "_age",
          "type": "uint256"
        }
      ],
      "name": "EditPatientPersonalDetails",
      "outputs": [],
      "stateMutability": "nonpayable",
      "type": "function"
    },
    {
      "inputs": [
        {
          "internalType": "string",
          "name": "_date",
          "type": "string"
        },
        {
          "internalType": "address",
          "name": "_walletAddress",
          "type": "address"
        },
        {
          "internalType": "bool",
          "name": "_isAlcoholic",
          "type": "bool"
        },
        {
          "internalType": "bool",
          "name": "_isSmoker",
          "type": "bool"
        },
        {
          "internalType": "bool",
          "name": "_isSmokelessTobaccoUser",
          "type": "bool"
        },
        {
          "internalType": "string",
          "name": "_surgicalHistory_ifAny",
          "type": "string"
        },
        {
          "internalType": "string",
          "name": "_physicalActivityLevel",
          "type": "string"
        },
        {
          "internalType": "string",
          "name": "_pastMedicationDetails_IfAny",
          "type": "string"
        }
      ],
      "name": "EditPatinetMedicalDetails",
      "outputs": [],
      "stateMutability": "nonpayable",
      "type": "function"
    },
    {
      "inputs": [
        {
          "internalType": "address",
          "name": "",
          "type": "address"
        },
        {
          "internalType": "uint256",
          "name": "",
          "type": "uint256"
        }
      ],
      "name": "HealthCondition",
      "outputs": [
        {
          "internalType": "string",
          "name": "date",
          "type": "string"
        },
        {
          "internalType": "address",
          "name": "walletAddress",
          "type": "address"
        },
        {
          "internalType": "address",
          "name": "physician",
          "type": "address"
        },
        {
          "internalType": "string",
          "name": "Department_uint",
          "type": "string"
        },
        {
          "internalType": "string",
          "name": "BloodPressure",
          "type": "string"
        },
        {
          "internalType": "string",
          "name": "HeartRate",
          "type": "string"
        },
        {
          "internalType": "string",
          "name": "RespiratoryRate",
          "type": "string"
        },
        {
          "internalType": "string",
          "name": "Dosage",
          "type": "string"
        }
      ],
      "stateMutability": "view",
      "type": "function"
    },
    {
      "inputs": [
        {
          "internalType": "address",
          "name": "",
          "type": "address"
        }
      ],
      "name": "PatientsMedicalDetails",
      "outputs": [
        {
          "internalType": "string",
          "name": "date",
          "type": "string"
        },
        {
          "internalType": "address",
          "name": "walletAddress",
          "type": "address"
        },
        {
          "internalType": "bool",
          "name": "isAlcoholic",
          "type": "bool"
        },
        {
          "internalType": "bool",
          "name": "isSmoker",
          "type": "bool"
        },
        {
          "internalType": "bool",
          "name": "isSmokelessTobaccoUser",
          "type": "bool"
        },
        {
          "internalType": "string",
          "name": "surgicalHistory_ifAny",
          "type": "string"
        },
        {
          "internalType": "string",
          "name": "physicalActivityLevel",
          "type": "string"
        },
        {
          "internalType": "string",
          "name": "pastMedicationDetails_IfAny",
          "type": "string"
        }
      ],
      "stateMutability": "view",
      "type": "function"
    },
    {
      "inputs": [
        {
          "internalType": "address",
          "name": "",
          "type": "address"
        }
      ],
      "name": "PatientsPersonalDetails",
      "outputs": [
        {
          "internalType": "string",
          "name": "date",
          "type": "string"
        },
        {
          "internalType": "string",
          "name": "name",
          "type": "string"
        },
        {
          "internalType": "address",
          "name": "walletAddress",
          "type": "address"
        },
        {
          "internalType": "string",
          "name": "gender",
          "type": "string"
        },
        {
          "internalType": "string",
          "name": "Occupation",
          "type": "string"
        },
        {
          "internalType": "string",
          "name": "dateOfBirth",
          "type": "string"
        },
        {
          "internalType": "uint256",
          "name": "age",
          "type": "uint256"
        }
      ],
      "stateMutability": "view",
      "type": "function"
    },
    {
      "inputs": [
        {
          "internalType": "string",
          "name": "_dataURL",
          "type": "string"
        },
        {
          "internalType": "address",
          "name": "user",
          "type": "address"
        }
      ],
      "name": "StorePatientData",
      "outputs": [],
      "stateMutability": "nonpayable",
      "type": "function"
    },
    {
      "inputs": [
        {
          "internalType": "address",
          "name": "_address",
          "type": "address"
        }
      ],
      "name": "addOwner",
      "outputs": [],
      "stateMutability": "nonpayable",
      "type": "function"
    },
    {
      "inputs": [
        {
          "internalType": "string",
          "name": "_date",
          "type": "string"
        },
        {
          "internalType": "address",
          "name": "_walletAddress",
          "type": "address"
        },
        {
          "internalType": "address",
          "name": "_physician",
          "type": "address"
        },
        {
          "internalType": "string",
          "name": "_Department_uint",
          "type": "string"
        },
        {
          "internalType": "string",
          "name": "_BloodPressure",
          "type": "string"
        },
        {
          "internalType": "string",
          "name": "_HeartRate",
          "type": "string"
        },
        {
          "internalType": "string",
          "name": "_RespiratoryRate",
          "type": "string"
        },
        {
          "internalType": "string",
          "name": "_Dosage",
          "type": "string"
        }
      ],
      "name": "addPatientHealthDetails",
      "outputs": [],
      "stateMutability": "nonpayable",
      "type": "function"
    },
    {
      "inputs": [
        {
          "internalType": "uint256",
          "name": "_yearOfBirth",
          "type": "uint256"
        }
      ],
      "name": "getAge",
      "outputs": [
        {
          "internalType": "uint256",
          "name": "",
          "type": "uint256"
        }
      ],
      "stateMutability": "view",
      "type": "function"
    },
    {
      "inputs": [
        {
          "internalType": "address",
          "name": "_walletAddress",
          "type": "address"
        }
      ],
      "name": "getDoctorPersonalDetails",
      "outputs": [
        {
          "components": [
            {
              "internalType": "string",
              "name": "name",
              "type": "string"
            },
            {
              "internalType": "address",
              "name": "walletAddress",
              "type": "address"
            },
            {
              "internalType": "string",
              "name": "dateOfBirth",
              "type": "string"
            },
            {
              "internalType": "uint256",
              "name": "age",
              "type": "uint256"
            },
            {
              "internalType": "uint256",
              "name": "phoneNumber",
              "type": "uint256"
            },
            {
              "internalType": "string",
              "name": "email",
              "type": "string"
            }
          ],
          "internalType": "struct DoctorDetails.DoctorPersonalInfo",
          "name": "",
          "type": "tuple"
        }
      ],
      "stateMutability": "view",
      "type": "function"
    },
    {
      "inputs": [
        {
          "internalType": "address",
          "name": "_walletAddress",
          "type": "address"
        }
      ],
      "name": "getDoctorProfessionalDetails",
      "outputs": [
        {
          "components": [
            {
              "internalType": "address",
              "name": "walletAddress",
              "type": "address"
            },
            {
              "internalType": "string",
              "name": "MedicalSchoolAttended",
              "type": "string"
            },
            {
              "internalType": "string",
              "name": "MedicalLicenseNumber",
              "type": "string"
            },
            {
              "internalType": "string",
              "name": "Specialization",
              "type": "string"
            },
            {
              "internalType": "uint256",
              "name": "ExperienceInYear",
              "type": "uint256"
            }
          ],
          "internalType": "struct DoctorDetails.DoctorProfessionalDetails",
          "name": "",
          "type": "tuple"
        }
      ],
      "stateMutability": "view",
      "type": "function"
    },
    {
      "inputs": [
        {
          "internalType": "address",
          "name": "_walletAddress",
          "type": "address"
        }
      ],
      "name": "getPatientDetails",
      "outputs": [
        {
          "components": [
            {
              "internalType": "string",
              "name": "date",
              "type": "string"
            },
            {
              "internalType": "string",
              "name": "name",
              "type": "string"
            },
            {
              "internalType": "address",
              "name": "walletAddress",
              "type": "address"
            },
            {
              "internalType": "string",
              "name": "gender",
              "type": "string"
            },
            {
              "internalType": "string",
              "name": "Occupation",
              "type": "string"
            },
            {
              "internalType": "string",
              "name": "dateOfBirth",
              "type": "string"
            },
            {
              "internalType": "uint256",
              "name": "age",
              "type": "uint256"
            }
          ],
          "internalType": "struct PatientDetails.PatientPersonalDetails",
          "name": "",
          "type": "tuple"
        },
        {
          "components": [
            {
              "internalType": "string",
              "name": "date",
              "type": "string"
            },
            {
              "internalType": "address",
              "name": "walletAddress",
              "type": "address"
            },
            {
              "internalType": "bool",
              "name": "isAlcoholic",
              "type": "bool"
            },
            {
              "internalType": "bool",
              "name": "isSmoker",
              "type": "bool"
            },
            {
              "internalType": "bool",
              "name": "isSmokelessTobaccoUser",
              "type": "bool"
            },
            {
              "internalType": "string",
              "name": "surgicalHistory_ifAny",
              "type": "string"
            },
            {
              "internalType": "string",
              "name": "physicalActivityLevel",
              "type": "string"
            },
            {
              "internalType": "string",
              "name": "pastMedicationDetails_IfAny",
              "type": "string"
            }
          ],
          "internalType": "struct PatientDetails.PatientMedicalDetails",
          "name": "",
          "type": "tuple"
        }
      ],
      "stateMutability": "view",
      "type": "function"
    },
    {
      "inputs": [
        {
          "internalType": "address",
          "name": "_walletAddress",
          "type": "address"
        }
      ],
      "name": "getPatientHealthDetails",
      "outputs": [
        {
          "components": [
            {
              "internalType": "string",
              "name": "date",
              "type": "string"
            },
            {
              "internalType": "address",
              "name": "walletAddress",
              "type": "address"
            },
            {
              "internalType": "address",
              "name": "physician",
              "type": "address"
            },
            {
              "internalType": "string",
              "name": "Department_uint",
              "type": "string"
            },
            {
              "internalType": "string",
              "name": "BloodPressure",
              "type": "string"
            },
            {
              "internalType": "string",
              "name": "HeartRate",
              "type": "string"
            },
            {
              "internalType": "string",
              "name": "RespiratoryRate",
              "type": "string"
            },
            {
              "internalType": "string",
              "name": "Dosage",
              "type": "string"
            }
          ],
          "internalType": "struct PatientDetails.PatientHealthCondition[]",
          "name": "",
          "type": "tuple[]"
        }
      ],
      "stateMutability": "view",
      "type": "function"
    },
    {
      "inputs": [
        {
          "internalType": "address",
          "name": "_address",
          "type": "address"
        }
      ],
      "name": "getPatientStored",
      "outputs": [
        {
          "components": [
            {
              "internalType": "uint256",
              "name": "timestamp",
              "type": "uint256"
            },
            {
              "internalType": "string",
              "name": "cid",
              "type": "string"
            }
          ],
          "internalType": "struct PatientDetails.HealthData[]",
          "name": "",
          "type": "tuple[]"
        }
      ],
      "stateMutability": "view",
      "type": "function"
    },
    {
      "inputs": [
        {
          "internalType": "uint256",
          "name": "timestamp",
          "type": "uint256"
        }
      ],
      "name": "getYear",
      "outputs": [
        {
          "internalType": "uint256",
          "name": "",
          "type": "uint256"
        }
      ],
      "stateMutability": "pure",
      "type": "function"
    },
    {
      "inputs": [],
      "name": "id",
      "outputs": [
        {
          "internalType": "uint256",
          "name": "",
          "type": "uint256"
        }
      ],
      "stateMutability": "view",
      "type": "function"
    },
    {
      "inputs": [
        {
          "internalType": "address",
          "name": "_address",
          "type": "address"
        }
      ],
      "name": "isDoctor",
      "outputs": [
        {
          "internalType": "bool",
          "name": "val",
          "type": "bool"
        }
      ],
      "stateMutability": "view",
      "type": "function"
    },
    {
      "inputs": [
        {
          "internalType": "address",
          "name": "_address",
          "type": "address"
        }
      ],
      "name": "isOwner",
      "outputs": [
        {
          "internalType": "bool",
          "name": "val",
          "type": "bool"
        }
      ],
      "stateMutability": "view",
      "type": "function"
    },
    {
      "inputs": [
        {
          "internalType": "address",
          "name": "",
          "type": "address"
        }
      ],
      "name": "owner",
      "outputs": [
        {
          "internalType": "bool",
          "name": "",
          "type": "bool"
        }
      ],
      "stateMutability": "view",
      "type": "function"
    },
    {
      "inputs": [
        {
          "internalType": "address",
          "name": "",
          "type": "address"
        },
        {
          "internalType": "uint256",
          "name": "",
          "type": "uint256"
        }
      ],
      "name": "patientsStoredData",
      "outputs": [
        {
          "internalType": "uint256",
          "name": "timestamp",
          "type": "uint256"
        },
        {
          "internalType": "string",
          "name": "cid",
          "type": "string"
        }
      ],
      "stateMutability": "view",
      "type": "function"
    },
    {
      "inputs": [
        {
          "internalType": "address",
          "name": "_address",
          "type": "address"
        }
      ],
      "name": "removeOwner",
      "outputs": [],
      "stateMutability": "nonpayable",
      "type": "function"
    },
    {
      "inputs": [],
      "name": "superOwner",
      "outputs": [
        {
          "internalType": "address",
          "name": "",
          "type": "address"
        }
      ],
      "stateMutability": "view",
      "type": "function"
    },
    {
      "inputs": [],
      "name": "totalAdmin",
      "outputs": [
        {
          "internalType": "uint256",
          "name": "",
          "type": "uint256"
        }
      ],
      "stateMutability": "view",
      "type": "function"
    },
    {
      "inputs": [],
      "name": "totalDoctors",
      "outputs": [
        {
          "internalType": "uint256",
          "name": "",
          "type": "uint256"
        }
      ],
      "stateMutability": "view",
      "type": "function"
    },
    {
      "inputs": [],
      "name": "totalPatient",
      "outputs": [
        {
          "internalType": "uint256",
          "name": "",
          "type": "uint256"
        }
      ],
      "stateMutability": "view",
      "type": "function"
    }
  ],
  "bytecode": "0x608060405234801561000f575f80fd5b50335f818152602081905260409020805460ff1916600190811790915580546001600160a01b0319169091178155600755614f098061004d5f395ff3fe608060405234801561000f575f80fd5b5060043610610213575f3560e01c806387dcd2b61161011f578063b5f63ec5116100a9578063d1f2f0e511610079578063d1f2f0e514610502578063efe2ccc114610515578063f243cc6a14610536578063f7e901d31461055d578063fe0c2a311461057d575f80fd5b8063b5f63ec514610489578063bb7d6b67146104a9578063bbcaa637146104cb578063cda2e23c146104ef575f80fd5b8063996440c6116100ef578063996440c614610427578063a49b17251461043a578063a96a6b211461044d578063ac46b5b71461046d578063af640d0f14610480575f80fd5b806387dcd2b6146103cd57806392b3141d146103f857806392c2808f1461040b57806392d6631314610414575f80fd5b806364319e33116101a0578063686e1f1b11610170578063686e1f1b1461034e5780636e2c0ffe146103615780637065cb481461038257806375c6a96c146103955780637a508e9c146103ba575f80fd5b806364319e331461030757806365b44d7e14610310578063666e1b391461031957806366adec561461033b575f80fd5b80631f650cc9116101e65780631f650cc9146102785780632f54bf6e1461029e57806334a9e6eb146102c157806348e64d80146102d457806355d2df12146102e7575f80fd5b806304028017146102175780630e37008a1461022c578063173825d9146102525780631a75771214610265575b5f80fd5b61022a610225366004613dfc565b6105a4565b005b61023f61023a366004613e15565b61070d565b6040519081526020015b60405180910390f35b61022a610260366004613dfc565b61078a565b61022a610273366004613ec9565b610804565b61028b610286366004613dfc565b61098b565b6040516102499796959493929190613fb0565b6102b16102ac366004613dfc565b610c71565b6040519015158152602001610249565b61022a6102cf366004614043565b610c9e565b61022a6102e236600461412a565b610e6b565b6102fa6102f5366004613dfc565b611004565b60405161024991906141c6565b61023f60065481565b61023f60055481565b6102b1610327366004613dfc565b5f6020819052908152604090205460ff1681565b61022a610349366004614043565b61110f565b61022a61035c366004613dfc565b611355565b61037461036f366004614238565b6114f5565b604051610249929190614260565b61022a610390366004613dfc565b6115b5565b6103a86103a3366004613dfc565b611632565b60405161024996959493929190614280565b61022a6103c83660046142e0565b611806565b6001546103e0906001600160a01b031681565b6040516001600160a01b039091168152602001610249565b61022a61040636600461412a565b6119be565b61023f600c5481565b61023f610422366004613e15565b611bf2565b6102b1610435366004613dfc565b611c07565b61022a610448366004613ec9565b611c2f565b61046061045b366004613dfc565b611e42565b60405161024991906143c2565b61022a61047b366004614448565b612129565b61023f60075481565b61049c610497366004613dfc565b612188565b6040516102499190614493565b6102b16104b7366004613dfc565b60026020525f908152604090205460ff1681565b6104de6104d9366004613dfc565b612615565b6040516102499594939291906145a6565b61022a6104fd3660046142e0565b6127df565b61022a610510366004614602565b612a02565b610528610523366004613dfc565b612d68565b604051610249929190614755565b610549610544366004613dfc565b613595565b60405161024998979695949392919061481b565b61057061056b366004613dfc565b613805565b60405161024991906148a0565b61059061058b366004614238565b613ad3565b604051610249989796959493929190614920565b335f9081526020819052604090205460ff16806105cb57506001546001600160a01b031633145b6105f05760405162461bcd60e51b81526004016105e790614986565b60405180910390fd5b335f908152602081905260409020805460ff191660011790556001600160a01b0381166106515760405162461bcd60e51b815260206004820152600f60248201526e496e76616c6964204164647265737360881b60448201526064016105e7565b6001600160a01b0381165f9081526002602052604090205460ff166106ed5760405162461bcd60e51b815260206004820152604660248201527f50726f76696465642061646472657373206d75737420626520616e2041646d6960448201527f6e4163636573734164647265737320746f2072656d6f76652041646d696e416360648201526563657373212160d01b608482015260a4016105e7565b6001600160a01b03165f908152600260205260409020805460ff19169055565b5f8061071842611bf2565b90505f83610728836107b26149e4565b61073291906149f7565b90505f81116107835760405162461bcd60e51b815260206004820152601860248201527f456e74657220636f72726563742062697274682079656172000000000000000060448201526064016105e7565b9392505050565b6001546001600160a01b031633146107e45760405162461bcd60e51b815260206004820152601f60248201527f41636365737365626c65206f6e6c7920666f722053757065724f776e6572730060448201526064016105e7565b6001600160a01b03165f908152602081905260409020805460ff19169055565b335f9081526020819052604090205460ff168061082b57506001546001600160a01b031633145b6108475760405162461bcd60e51b81526004016105e790614986565b6001600160a01b0385161580159061085f57505f8151115b801561086b57505f8651115b6108875760405162461bcd60e51b81526004016105e790614a0a565b6001600160a01b038086165f81815260036020526040902060010154909116146108c35760405162461bcd60e51b81526004016105e790614a59565b6040805160c0810182528781526001600160a01b0387166020808301829052828401889052606083018790526080830186905260a083018590525f9182526003905291909120815185929190819061091b9082614b73565b5060208201516001820180546001600160a01b0319166001600160a01b03909216919091179055604082015160028201906109569082614b73565b50606082015160038201556080820151600482015560a0820151600582019061097f9082614b73565b50505050505050505050565b60086020525f90815260409020805481906109a590614af1565b80601f01602080910402602001604051908101604052809291908181526020018280546109d190614af1565b8015610a1c5780601f106109f357610100808354040283529160200191610a1c565b820191905f5260205f20905b8154815290600101906020018083116109ff57829003601f168201915b505050505090806001018054610a3190614af1565b80601f0160208091040260200160405190810160405280929190818152602001828054610a5d90614af1565b8015610aa85780601f10610a7f57610100808354040283529160200191610aa8565b820191905f5260205f20905b815481529060010190602001808311610a8b57829003601f168201915b505050600284015460038501805494956001600160a01b03909216949193509150610ad290614af1565b80601f0160208091040260200160405190810160405280929190818152602001828054610afe90614af1565b8015610b495780601f10610b2057610100808354040283529160200191610b49565b820191905f5260205f20905b815481529060010190602001808311610b2c57829003601f168201915b505050505090806004018054610b5e90614af1565b80601f0160208091040260200160405190810160405280929190818152602001828054610b8a90614af1565b8015610bd55780601f10610bac57610100808354040283529160200191610bd5565b820191905f5260205f20905b815481529060010190602001808311610bb857829003601f168201915b505050505090806005018054610bea90614af1565b80601f0160208091040260200160405190810160405280929190818152602001828054610c1690614af1565b8015610c615780601f10610c3857610100808354040283529160200191610c61565b820191905f5260205f20905b815481529060010190602001808311610c4457829003601f168201915b5050505050908060060154905087565b6001600160a01b0381165f9081526020819052604081205460ff1615610c9957506001919050565b919050565b335f9081526002602052604081205460ff1615610cb9575060015b335f9081526002602052604090205460ff16610ce75760405162461bcd60e51b81526004016105e790614c2f565b6001600160a01b038816610d0d5760405162461bcd60e51b81526004016105e790614c97565b6001600160a01b038089165f8181526008602052604090206002015490911614610d495760405162461bcd60e51b81526004016105e790614cdd565b60408051610100810182528a81526001600160a01b038a1660208083018290528a1515838501528915156060840152881515608084015260a0830188905260c0830187905260e083018690525f918252600990529190912081518190610daf9082614b73565b5060208201516001820180546040850151606086015160808701511515600160b01b0260ff60b01b19911515600160a81b029190911661ffff60a81b19921515600160a01b026001600160a81b03199094166001600160a01b039096169590951792909217169290921791909117905560a08201516002820190610e339082614b73565b5060c08201516003820190610e489082614b73565b5060e08201516004820190610e5d9082614b73565b505050505050505050505050565b335f9081526020819052604090205460ff1680610e9257506001546001600160a01b031633145b610eae5760405162461bcd60e51b81526004016105e790614986565b6001600160a01b03851615801590610ec657505f8151115b8015610ed257505f8451115b8015610ede57505f8351115b610f225760405162461bcd60e51b8152602060048201526015602482015274656e74657220636f72726563742064657461696c7360581b60448201526064016105e7565b6001600160a01b038086165f8181526004602052604090205490911614610f5b5760405162461bcd60e51b81526004016105e790614a59565b6040805160a0810182526001600160a01b0387811680835260208084018681528486018a905260608501899052608085018890525f9283526004909152939020825181546001600160a01b031916921691909117815591519091906001820190610fc59082614b73565b5060408201516002820190610fda9082614b73565b5060608201516003820190610fef9082614b73565b50608082015181600401559050505050505050565b6001600160a01b0381165f908152600b60209081526040808320805482518185028101850190935280835260609492939192909184015b82821015611104578382905f5260205f2090600202016040518060400160405290815f820154815260200160018201805461107590614af1565b80601f01602080910402602001604051908101604052809291908181526020018280546110a190614af1565b80156110ec5780601f106110c3576101008083540402835291602001916110ec565b820191905f5260205f20905b8154815290600101906020018083116110cf57829003601f168201915b5050505050815250508152602001906001019061103b565b505050509050919050565b335f9081526002602052604081205460ff161561112a575060015b335f9081526002602052604090205460ff166111585760405162461bcd60e51b81526004016105e790614c2f565b6001600160a01b038089165f81815260096020526040902060010154909116036111d45760405162461bcd60e51b815260206004820152602760248201527f50617469656e74206d65646963616c2064657461696c7320616c7265616479206044820152666578697374212160c81b60648201526084016105e7565b6001600160a01b0388166111fa5760405162461bcd60e51b81526004016105e790614c97565b60408051610100810182528a81526001600160a01b038a1660208083018290528a1515838501528915156060840152881515608084015260a0830188905260c0830187905260e083018690525f9182526009905291909120815181906112609082614b73565b5060208201516001820180546040850151606086015160808701511515600160b01b0260ff60b01b19911515600160a81b029190911661ffff60a81b19921515600160a01b026001600160a81b03199094166001600160a01b039096169590951792909217169290921791909117905560a082015160028201906112e49082614b73565b5060c082015160038201906112f99082614b73565b5060e0820151600482019061130e9082614b73565b5050506001600160a01b038089165f818152600860205260409020600201549091160361134a57600c8054905f61134483614d75565b91905055505b505050505050505050565b335f9081526020819052604090205460ff168061137c57506001546001600160a01b031633145b6113985760405162461bcd60e51b81526004016105e790614986565b335f9081526020819052604090205460ff1661140d5760405162461bcd60e51b815260206004820152602e60248201527f4f6e6c79206f776e6572206861732070726976696c65676520746f206164642060448201526d6f776e657220616363657373212160901b60648201526084016105e7565b6001600160a01b0381165f9081526002602052604090205460ff16156114755760405162461bcd60e51b815260206004820181905260248201527f4164647265737320616c7265616479206861732061646d696e2061636365737360448201526064016105e7565b6001600160a01b0381166114bd5760405162461bcd60e51b815260206004820152600f60248201526e496e76616c6964204164647265737360881b60448201526064016105e7565b6001600160a01b0381165f908152600260205260408120805460ff1916600117905560068054916114ed83614d75565b919050555050565b600b602052815f5260405f20818154811061150e575f80fd5b905f5260205f2090600202015f9150915050805f01549080600101805461153490614af1565b80601f016020809104026020016040519081016040528092919081815260200182805461156090614af1565b80156115ab5780601f10611582576101008083540402835291602001916115ab565b820191905f5260205f20905b81548152906001019060200180831161158e57829003601f168201915b5050505050905082565b6001546001600160a01b0316331461160f5760405162461bcd60e51b815260206004820152601f60248201527f41636365737365626c65206f6e6c7920666f722053757065724f776e6572730060448201526064016105e7565b6001600160a01b03165f908152602081905260409020805460ff19166001179055565b60036020525f908152604090208054819061164c90614af1565b80601f016020809104026020016040519081016040528092919081815260200182805461167890614af1565b80156116c35780601f1061169a576101008083540402835291602001916116c3565b820191905f5260205f20905b8154815290600101906020018083116116a657829003601f168201915b505050600184015460028501805494956001600160a01b039092169491935091506116ed90614af1565b80601f016020809104026020016040519081016040528092919081815260200182805461171990614af1565b80156117645780601f1061173b57610100808354040283529160200191611764565b820191905f5260205f20905b81548152906001019060200180831161174757829003601f168201915b50505050509080600301549080600401549080600501805461178590614af1565b80601f01602080910402602001604051908101604052809291908181526020018280546117b190614af1565b80156117fc5780601f106117d3576101008083540402835291602001916117fc565b820191905f5260205f20905b8154815290600101906020018083116117df57829003601f168201915b5050505050905086565b335f9081526002602052604081205460ff1615611821575060015b335f9081526002602052604090205460ff1661184f5760405162461bcd60e51b81526004016105e790614c2f565b6001600160a01b0386161580159061186757505f8551115b801561187357505f8451115b61188f5760405162461bcd60e51b81526004016105e790614c97565b6001600160a01b038087165f81815260086020526040902060020154909116146118cb5760405162461bcd60e51b81526004016105e790614cdd565b6040805160e08101825289815260208082018a90526001600160a01b038916828401819052606083018990526080830188905260a0830187905260c083018690525f908152600890915291909120815184929190819061192b9082614b73565b50602082015160018201906119409082614b73565b5060408201516002820180546001600160a01b0319166001600160a01b039092169190911790556060820151600382019061197b9082614b73565b50608082015160048201906119909082614b73565b5060a082015160058201906119a59082614b73565b5060c08201518160060155905050505050505050505050565b335f9081526020819052604090205460ff16806119e557506001546001600160a01b031633145b611a015760405162461bcd60e51b81526004016105e790614986565b6001600160a01b038086165f8181526004602052604090205490911603611a815760405162461bcd60e51b815260206004820152602e60248201527f50687973696369616e2050726f66657373696f6e616c2064657461696c73206160448201526d6c7265616479206578697374212160901b60648201526084016105e7565b6001600160a01b038086165f8181526004602052604090205490911614801590611aab57505f8151115b8015611ab757505f8451115b8015611ac357505f8351115b611b075760405162461bcd60e51b8152602060048201526015602482015274456e74657220436f72726563742064657461696c7360581b60448201526064016105e7565b6040805160a0810182526001600160a01b0387811680835260208084018681528486018a905260608501899052608085018890525f9283526004909152939020825181546001600160a01b031916921691909117815591519091906001820190611b719082614b73565b5060408201516002820190611b869082614b73565b5060608201516003820190611b9b9082614b73565b50608091909101516004909101556001600160a01b038086165f8181526003602052604090206001015490911603611beb57611bd685611355565b60058054905f611be583614d75565b91905055505b5050505050565b5f611c016301e1338083614d8d565b92915050565b6001600160a01b0381165f9081526002602052604081205460ff1615610c9957506001919050565b335f9081526020819052604090205460ff1680611c5657506001546001600160a01b031633145b611c725760405162461bcd60e51b81526004016105e790614986565b6001600160a01b038086165f8181526003602052604090206001015490911603611cf05760405162461bcd60e51b815260206004820152602960248201527f50687973696369616e20706572736f6e616c2064657461696c20616c7265616460448201526879206578697374212160b81b60648201526084016105e7565b6001600160a01b03851615801590611d0757505f82115b8015611d1357505f8151115b8015611d1f57505f8651115b611d3b5760405162461bcd60e51b81526004016105e790614a0a565b6040805160c0810182528781526001600160a01b0387166020808301829052828401889052606083018790526080830186905260a083018590525f91825260039052919091208151859291908190611d939082614b73565b5060208201516001820180546001600160a01b0319166001600160a01b0390921691909117905560408201516002820190611dce9082614b73565b50606082015160038201556080820151600482015560a08201516005820190611df79082614b73565b5050506001600160a01b038087165f8181526004602052604090205490911603611e3957611e2486611355565b60058054905f611e3383614d75565b91905055505b50505050505050565b611e816040518060c00160405280606081526020015f6001600160a01b03168152602001606081526020015f81526020015f8152602001606081525090565b335f9081526020819052604090205460ff1680611ea857506001546001600160a01b031633145b611ec45760405162461bcd60e51b81526004016105e790614986565b6001600160a01b038216611eea5760405162461bcd60e51b81526004016105e790614dac565b6001600160a01b038083165f8181526003602052604090206001015490911614611f265760405162461bcd60e51b81526004016105e790614de3565b6001600160a01b0382165f9081526003602052604090819020815160c08101909252805482908290611f5790614af1565b80601f0160208091040260200160405190810160405280929190818152602001828054611f8390614af1565b8015611fce5780601f10611fa557610100808354040283529160200191611fce565b820191905f5260205f20905b815481529060010190602001808311611fb157829003601f168201915b505050918352505060018201546001600160a01b03166020820152600282018054604090920191611ffe90614af1565b80601f016020809104026020016040519081016040528092919081815260200182805461202a90614af1565b80156120755780601f1061204c57610100808354040283529160200191612075565b820191905f5260205f20905b81548152906001019060200180831161205857829003601f168201915b5050505050815260200160038201548152602001600482015481526020016005820180546120a290614af1565b80601f01602080910402602001604051908101604052809291908181526020018280546120ce90614af1565b80156121195780601f106120f057610100808354040283529160200191612119565b820191905f5260205f20905b8154815290600101906020018083116120fc57829003601f168201915b5050505050815250509050919050565b60408051808201825242815260208082018581526001600160a01b0385165f908152600b83529384208054600181810183559186529290942083516002909302019182555191928392908201906121809082614b73565b505050505050565b335f818152600860205260409020600201546060916001600160a01b0390911614806121cc5750335f818152600960205260409020600101546001600160a01b0316145b806121e55750335f9081526002602052604090205460ff165b806121fe5750335f9081526020819052604090205460ff165b8061221357506001546001600160a01b031633145b61222f5760405162461bcd60e51b81526004016105e790614e8c565b6001600160a01b0382165f908152600a6020908152604080832080548251818502810185019093528083529193909284015b82821015611104578382905f5260205f209060080201604051806101000160405290815f8201805461229290614af1565b80601f01602080910402602001604051908101604052809291908181526020018280546122be90614af1565b80156123095780601f106122e057610100808354040283529160200191612309565b820191905f5260205f20905b8154815290600101906020018083116122ec57829003601f168201915b505050918352505060018201546001600160a01b039081166020830152600283015416604082015260038201805460609092019161234690614af1565b80601f016020809104026020016040519081016040528092919081815260200182805461237290614af1565b80156123bd5780601f10612394576101008083540402835291602001916123bd565b820191905f5260205f20905b8154815290600101906020018083116123a057829003601f168201915b505050505081526020016004820180546123d690614af1565b80601f016020809104026020016040519081016040528092919081815260200182805461240290614af1565b801561244d5780601f106124245761010080835404028352916020019161244d565b820191905f5260205f20905b81548152906001019060200180831161243057829003601f168201915b5050505050815260200160058201805461246690614af1565b80601f016020809104026020016040519081016040528092919081815260200182805461249290614af1565b80156124dd5780601f106124b4576101008083540402835291602001916124dd565b820191905f5260205f20905b8154815290600101906020018083116124c057829003601f168201915b505050505081526020016006820180546124f690614af1565b80601f016020809104026020016040519081016040528092919081815260200182805461252290614af1565b801561256d5780601f106125445761010080835404028352916020019161256d565b820191905f5260205f20905b81548152906001019060200180831161255057829003601f168201915b5050505050815260200160078201805461258690614af1565b80601f01602080910402602001604051908101604052809291908181526020018280546125b290614af1565b80156125fd5780601f106125d4576101008083540402835291602001916125fd565b820191905f5260205f20905b8154815290600101906020018083116125e057829003601f168201915b50505050508152505081526020019060010190612261565b60046020525f9081526040902080546001820180546001600160a01b03909216929161264090614af1565b80601f016020809104026020016040519081016040528092919081815260200182805461266c90614af1565b80156126b75780601f1061268e576101008083540402835291602001916126b7565b820191905f5260205f20905b81548152906001019060200180831161269a57829003601f168201915b5050505050908060020180546126cc90614af1565b80601f01602080910402602001604051908101604052809291908181526020018280546126f890614af1565b80156127435780601f1061271a57610100808354040283529160200191612743565b820191905f5260205f20905b81548152906001019060200180831161272657829003601f168201915b50505050509080600301805461275890614af1565b80601f016020809104026020016040519081016040528092919081815260200182805461278490614af1565b80156127cf5780601f106127a6576101008083540402835291602001916127cf565b820191905f5260205f20905b8154815290600101906020018083116127b257829003601f168201915b5050505050908060040154905085565b335f9081526002602052604081205460ff16156127fa575060015b335f9081526002602052604090205460ff166128285760405162461bcd60e51b81526004016105e790614c2f565b6001600160a01b038087165f81815260086020526040902060020154909116036128a75760405162461bcd60e51b815260206004820152602a60248201527f50617469656e74277320706572736f6e616c2064657461696c7320616c7265616044820152696479206578697374212160b01b60648201526084016105e7565b6001600160a01b038616158015906128bf57505f8551115b80156128cb57505f8451115b6128e75760405162461bcd60e51b81526004016105e790614c97565b6040805160e08101825289815260208082018a90526001600160a01b038916828401819052606083018990526080830188905260a0830187905260c083018690525f90815260089091529190912081518492919081906129479082614b73565b506020820151600182019061295c9082614b73565b5060408201516002820180546001600160a01b0319166001600160a01b03909216919091179055606082015160038201906129979082614b73565b50608082015160048201906129ac9082614b73565b5060a082015160058201906129c19082614b73565b5060c091909101516006909101556001600160a01b038088165f818152600960205260409020600101549091160361134a57600c8054905f61134483614d75565b335f9081526002602052604081205460ff1615612a1d575060015b335f9081526002602052604090205460ff16612a4b5760405162461bcd60e51b81526004016105e790614c2f565b6001600160a01b038089165f81815260086020526040902060020154909116148015612a9357506001600160a01b038089165f81815260096020526040902060010154909116145b612b775760405162461bcd60e51b815260206004820152609960248201527f496e636f72726563742050617469656e742077616c6c6574206164647265737360448201527f206f72205468652050617469656e742064657461696c2073706563696669632060648201527f746f20706572736f6e616c206f722070617374206d65646963616c206869737460848201527f6f7279206f662074686520616464726573732070726f7669646564206e6f742060a48201527f617661696c61626c6520696e2074686520636861696e2121200000000000000060c482015260e4016105e7565b6001600160a01b038881165f90815260036020526040902060010154811690881614612c4b5760405162461bcd60e51b815260206004820152607160248201527f496e636f72726563742050687973696369616e2077616c6c657420616464726560448201527f7373206f72205468652050687973696369616e2064657461696c20666f72207460648201527f686520616464726573732070726f7669646564206e6f7420617661696c61626c6084820152700329034b7103a34329031b430b4b710909607d1b60a482015260c4016105e7565b6001600160a01b038089165f818152600a602090815260408083208151610100810183528f815280840195909552948c1690840152606083018a90526080830189905260a0830188905260c0830187905260e08301869052835460018101855593825290208151919260080201908190612cc59082614b73565b5060208201516001820180546001600160a01b039283166001600160a01b031991821617909155604084015160028401805491909316911617905560608201516003820190612d149082614b73565b5060808201516004820190612d299082614b73565b5060a08201516005820190612d3e9082614b73565b5060c08201516006820190612d539082614b73565b5060e08201516007820190610e5d9082614b73565b612daf6040518060e0016040528060608152602001606081526020015f6001600160a01b031681526020016060815260200160608152602001606081526020015f81525090565b612e02604051806101000160405280606081526020015f6001600160a01b031681526020015f151581526020015f151581526020015f151581526020016060815260200160608152602001606081525090565b335f818152600860205260409020600201546001600160a01b03161480612e415750335f818152600960205260409020600101546001600160a01b0316145b80612e5a5750335f9081526002602052604090205460ff165b80612e735750335f9081526020819052604090205460ff165b80612e8857506001546001600160a01b031633145b612ea45760405162461bcd60e51b81526004016105e790614e8c565b6001600160a01b038316612eca5760405162461bcd60e51b81526004016105e790614dac565b6001600160a01b038084165f81815260086020526040902060020154909116148015612f1257506001600160a01b038084165f81815260096020526040902060010154909116145b612fd05760405162461bcd60e51b815260206004820152607960248201527f496e636f72726563742050617469656e742077616c6c6574206164647265737360448201527f206f72205468652050617469656e742064657461696c20666f7220746865206160648201527f6464726573732070726f7669646564206973206e6f7420636f6d706c65746c7960848201527f20617661696c61626c6520696e2074686520636861696e21210000000000000060a482015260c4016105e7565b6001600160a01b0383165f908152600860209081526040808320600990925291829020825160e0810190935281549192909183908290829061301190614af1565b80601f016020809104026020016040519081016040528092919081815260200182805461303d90614af1565b80156130885780601f1061305f57610100808354040283529160200191613088565b820191905f5260205f20905b81548152906001019060200180831161306b57829003601f168201915b505050505081526020016001820180546130a190614af1565b80601f01602080910402602001604051908101604052809291908181526020018280546130cd90614af1565b80156131185780601f106130ef57610100808354040283529160200191613118565b820191905f5260205f20905b8154815290600101906020018083116130fb57829003601f168201915b505050918352505060028201546001600160a01b0316602082015260038201805460409092019161314890614af1565b80601f016020809104026020016040519081016040528092919081815260200182805461317490614af1565b80156131bf5780601f10613196576101008083540402835291602001916131bf565b820191905f5260205f20905b8154815290600101906020018083116131a257829003601f168201915b505050505081526020016004820180546131d890614af1565b80601f016020809104026020016040519081016040528092919081815260200182805461320490614af1565b801561324f5780601f106132265761010080835404028352916020019161324f565b820191905f5260205f20905b81548152906001019060200180831161323257829003601f168201915b5050505050815260200160058201805461326890614af1565b80601f016020809104026020016040519081016040528092919081815260200182805461329490614af1565b80156132df5780601f106132b6576101008083540402835291602001916132df565b820191905f5260205f20905b8154815290600101906020018083116132c257829003601f168201915b50505050508152602001600682015481525050915080604051806101000160405290815f8201805461331090614af1565b80601f016020809104026020016040519081016040528092919081815260200182805461333c90614af1565b80156133875780601f1061335e57610100808354040283529160200191613387565b820191905f5260205f20905b81548152906001019060200180831161336a57829003601f168201915b505050918352505060018201546001600160a01b038116602083015260ff600160a01b8204811615156040840152600160a81b8204811615156060840152600160b01b909104161515608082015260028201805460a0909201916133ea90614af1565b80601f016020809104026020016040519081016040528092919081815260200182805461341690614af1565b80156134615780601f1061343857610100808354040283529160200191613461565b820191905f5260205f20905b81548152906001019060200180831161344457829003601f168201915b5050505050815260200160038201805461347a90614af1565b80601f01602080910402602001604051908101604052809291908181526020018280546134a690614af1565b80156134f15780601f106134c8576101008083540402835291602001916134f1565b820191905f5260205f20905b8154815290600101906020018083116134d457829003601f168201915b5050505050815260200160048201805461350a90614af1565b80601f016020809104026020016040519081016040528092919081815260200182805461353690614af1565b80156135815780601f1061355857610100808354040283529160200191613581565b820191905f5260205f20905b81548152906001019060200180831161356457829003601f168201915b505050505081525050905091509150915091565b60096020525f90815260409020805481906135af90614af1565b80601f01602080910402602001604051908101604052809291908181526020018280546135db90614af1565b80156136265780601f106135fd57610100808354040283529160200191613626565b820191905f5260205f20905b81548152906001019060200180831161360957829003601f168201915b50505050600183015460028401805493946001600160a01b0383169460ff600160a01b850481169550600160a81b8504811694600160b01b900416929061366c90614af1565b80601f016020809104026020016040519081016040528092919081815260200182805461369890614af1565b80156136e35780601f106136ba576101008083540402835291602001916136e3565b820191905f5260205f20905b8154815290600101906020018083116136c657829003601f168201915b5050505050908060030180546136f890614af1565b80601f016020809104026020016040519081016040528092919081815260200182805461372490614af1565b801561376f5780601f106137465761010080835404028352916020019161376f565b820191905f5260205f20905b81548152906001019060200180831161375257829003601f168201915b50505050509080600401805461378490614af1565b80601f01602080910402602001604051908101604052809291908181526020018280546137b090614af1565b80156137fb5780601f106137d2576101008083540402835291602001916137fb565b820191905f5260205f20905b8154815290600101906020018083116137de57829003601f168201915b5050505050905088565b61383e6040518060a001604052805f6001600160a01b031681526020016060815260200160608152602001606081526020015f81525090565b335f9081526020819052604090205460ff168061386557506001546001600160a01b031633145b6138815760405162461bcd60e51b81526004016105e790614986565b6001600160a01b0382166138a75760405162461bcd60e51b81526004016105e790614dac565b6001600160a01b038083165f81815260046020526040902054909116146138e05760405162461bcd60e51b81526004016105e790614de3565b6001600160a01b038083165f90815260046020908152604091829020825160a08101909352805490931682526001830180549293929184019161392290614af1565b80601f016020809104026020016040519081016040528092919081815260200182805461394e90614af1565b80156139995780601f1061397057610100808354040283529160200191613999565b820191905f5260205f20905b81548152906001019060200180831161397c57829003601f168201915b505050505081526020016002820180546139b290614af1565b80601f01602080910402602001604051908101604052809291908181526020018280546139de90614af1565b8015613a295780601f10613a0057610100808354040283529160200191613a29565b820191905f5260205f20905b815481529060010190602001808311613a0c57829003601f168201915b50505050508152602001600382018054613a4290614af1565b80601f0160208091040260200160405190810160405280929190818152602001828054613a6e90614af1565b8015613ab95780601f10613a9057610100808354040283529160200191613ab9565b820191905f5260205f20905b815481529060010190602001808311613a9c57829003601f168201915b505050505081526020016004820154815250509050919050565b600a602052815f5260405f208181548110613aec575f80fd5b905f5260205f2090600802015f9150915050805f018054613b0c90614af1565b80601f0160208091040260200160405190810160405280929190818152602001828054613b3890614af1565b8015613b835780601f10613b5a57610100808354040283529160200191613b83565b820191905f5260205f20905b815481529060010190602001808311613b6657829003601f168201915b5050506001840154600285015460038601805495966001600160a01b0393841696929093169450919250613bb690614af1565b80601f0160208091040260200160405190810160405280929190818152602001828054613be290614af1565b8015613c2d5780601f10613c0457610100808354040283529160200191613c2d565b820191905f5260205f20905b815481529060010190602001808311613c1057829003601f168201915b505050505090806004018054613c4290614af1565b80601f0160208091040260200160405190810160405280929190818152602001828054613c6e90614af1565b8015613cb95780601f10613c9057610100808354040283529160200191613cb9565b820191905f5260205f20905b815481529060010190602001808311613c9c57829003601f168201915b505050505090806005018054613cce90614af1565b80601f0160208091040260200160405190810160405280929190818152602001828054613cfa90614af1565b8015613d455780601f10613d1c57610100808354040283529160200191613d45565b820191905f5260205f20905b815481529060010190602001808311613d2857829003601f168201915b505050505090806006018054613d5a90614af1565b80601f0160208091040260200160405190810160405280929190818152602001828054613d8690614af1565b8015613dd15780601f10613da857610100808354040283529160200191613dd1565b820191905f5260205f20905b815481529060010190602001808311613db457829003601f168201915b50505050509080600701805461378490614af1565b80356001600160a01b0381168114610c99575f80fd5b5f60208284031215613e0c575f80fd5b61078382613de6565b5f60208284031215613e25575f80fd5b5035919050565b634e487b7160e01b5f52604160045260245ffd5b5f82601f830112613e4f575f80fd5b813567ffffffffffffffff80821115613e6a57613e6a613e2c565b604051601f8301601f19908116603f01168101908282118183101715613e9257613e92613e2c565b81604052838152866020858801011115613eaa575f80fd5b836020870160208301375f602085830101528094505050505092915050565b5f805f805f8060c08789031215613ede575f80fd5b863567ffffffffffffffff80821115613ef5575f80fd5b613f018a838b01613e40565b9750613f0f60208a01613de6565b96506040890135915080821115613f24575f80fd5b613f308a838b01613e40565b9550606089013594506080890135935060a0890135915080821115613f53575f80fd5b50613f6089828a01613e40565b9150509295509295509295565b5f81518084525f5b81811015613f9157602081850181015186830182015201613f75565b505f602082860101526020601f19601f83011685010191505092915050565b60e081525f613fc260e083018a613f6d565b8281036020840152613fd4818a613f6d565b6001600160a01b038916604085015283810360608501529050613ff78188613f6d565b9050828103608084015261400b8187613f6d565b905082810360a084015261401f8186613f6d565b9150508260c083015298975050505050505050565b80358015158114610c99575f80fd5b5f805f805f805f80610100898b03121561405b575f80fd5b883567ffffffffffffffff80821115614072575f80fd5b61407e8c838d01613e40565b995061408c60208c01613de6565b985061409a60408c01614034565b97506140a860608c01614034565b96506140b660808c01614034565b955060a08b01359150808211156140cb575f80fd5b6140d78c838d01613e40565b945060c08b01359150808211156140ec575f80fd5b6140f88c838d01613e40565b935060e08b013591508082111561410d575f80fd5b5061411a8b828c01613e40565b9150509295985092959890939650565b5f805f805f60a0868803121561413e575f80fd5b61414786613de6565b9450602086013567ffffffffffffffff80821115614163575f80fd5b61416f89838a01613e40565b95506040880135915080821115614184575f80fd5b61419089838a01613e40565b94506060880135935060808801359150808211156141ac575f80fd5b506141b988828901613e40565b9150509295509295909350565b5f6020808301818452808551808352604092508286019150828160051b8701018488015f5b8381101561422a57888303603f1901855281518051845287015187840187905261421787850182613f6d565b95880195935050908601906001016141eb565b509098975050505050505050565b5f8060408385031215614249575f80fd5b61425283613de6565b946020939093013593505050565b828152604060208201525f6142786040830184613f6d565b949350505050565b60c081525f61429260c0830189613f6d565b6001600160a01b038816602084015282810360408401526142b38188613f6d565b905085606084015284608084015282810360a08401526142d38185613f6d565b9998505050505050505050565b5f805f805f805f60e0888a0312156142f6575f80fd5b873567ffffffffffffffff8082111561430d575f80fd5b6143198b838c01613e40565b985060208a013591508082111561432e575f80fd5b61433a8b838c01613e40565b975061434860408b01613de6565b965060608a013591508082111561435d575f80fd5b6143698b838c01613e40565b955060808a013591508082111561437e575f80fd5b61438a8b838c01613e40565b945060a08a013591508082111561439f575f80fd5b506143ac8a828b01613e40565b92505060c0880135905092959891949750929550565b602081525f825160c060208401526143dd60e0840182613f6d565b905060018060a01b0360208501511660408401526040840151601f198085840301606086015261440d8383613f6d565b925060608601516080860152608086015160a086015260a08601519150808584030160c08601525061443f8282613f6d565b95945050505050565b5f8060408385031215614459575f80fd5b823567ffffffffffffffff81111561446f575f80fd5b61447b85828601613e40565b92505061448a60208401613de6565b90509250929050565b5f6020808301818452808551808352604092508286019150828160051b8701018488015f5b8381101561422a57603f19898403018552815161010081518186526144df82870182613f6d565b915050888201516144fa8a8701826001600160a01b03169052565b50878201516001600160a01b031685890152606080830151868303828801526145238382613f6d565b925050506080808301518683038288015261453e8382613f6d565b9250505060a080830151868303828801526145598382613f6d565b9250505060c080830151868303828801526145748382613f6d565b9250505060e080830151925085820381870152506145928183613f6d565b9689019694505050908601906001016144b8565b6001600160a01b038616815260a0602082018190525f906145c990830187613f6d565b82810360408401526145db8187613f6d565b905082810360608401526145ef8186613f6d565b9150508260808301529695505050505050565b5f805f805f805f80610100898b03121561461a575f80fd5b883567ffffffffffffffff80821115614631575f80fd5b61463d8c838d01613e40565b995061464b60208c01613de6565b985061465960408c01613de6565b975060608b013591508082111561466e575f80fd5b61467a8c838d01613e40565b965060808b013591508082111561468f575f80fd5b6140b68c838d01613e40565b5f61010082518185526146b082860182613f6d565b91505060208301516146cd60208601826001600160a01b03169052565b5060408301516146e1604086018215159052565b5060608301516146f5606086018215159052565b506080830151614709608086018215159052565b5060a083015184820360a08601526147218282613f6d565b91505060c083015184820360c086015261473b8282613f6d565b91505060e083015184820360e086015261443f8282613f6d565b604081525f835160e06040840152614771610120840182613f6d565b90506020850151603f198085840301606086015261478f8383613f6d565b60408801516001600160a01b031660808701526060880151868203830160a088015290935091506147c08383613f6d565b925060808701519150808584030160c08601526147dd8383613f6d565b925060a08701519150808584030160e0860152506147fb8282613f6d565b91505060c0850151610100840152828103602084015261443f818561469b565b5f61010080835261482e8184018c613f6d565b6001600160a01b038b16602085015289151560408501528815156060850152871515608085015283810360a085015290506148698187613f6d565b905082810360c084015261487d8186613f6d565b905082810360e08401526148918185613f6d565b9b9a5050505050505050505050565b602080825282516001600160a01b03168282015282015160a060408301525f906148cd60c0840182613f6d565b90506040840151601f19808584030160608601526148eb8383613f6d565b92506060860151915080858403016080860152506149098282613f6d565b915050608084015160a08401528091505092915050565b5f6101008083526149338184018c613f6d565b6001600160a01b038b811660208601528a1660408501528381036060850152905061495e8189613f6d565b905082810360808401526149728188613f6d565b905082810360a08401526148698187613f6d565b6020808252602a908201527f41636365737365626c65206f6e6c7920666f72204f776e65727320616e642053604082015269757065724f776e65727360b01b606082015260800190565b634e487b7160e01b5f52601160045260245ffd5b80820180821115611c0157611c016149d0565b81810381811115611c0157611c016149d0565b6020808252602f908201527f4b696e646c792066696c6c20616c6c20746865206d616e6461746f727920666560408201526e696c64732070726f7065726c79212160881b606082015260800190565b6020808252606c908201527f496e636f727265637420446f63746f7227732077616c6c65742061646472657360408201527f73206f722054686520446f63746f722064657461696c20666f7220746865206160608201527f6464726573732070726f7669646564206e6f7420617661696c61626c6520696e60808201526b2074686520636861696e212160a01b60a082015260c00190565b600181811c90821680614b0557607f821691505b602082108103614b2357634e487b7160e01b5f52602260045260245ffd5b50919050565b601f821115614b6e575f81815260208120601f850160051c81016020861015614b4f5750805b601f850160051c820191505b8181101561218057828155600101614b5b565b505050565b815167ffffffffffffffff811115614b8d57614b8d613e2c565b614ba181614b9b8454614af1565b84614b29565b602080601f831160018114614bd4575f8415614bbd5750858301515b5f19600386901b1c1916600185901b178555612180565b5f85815260208120601f198616915b82811015614c0257888601518255948401946001909101908401614be3565b5085821015614c1f57878501515f19600388901b60f8161c191681555b5050505050600190811b01905550565b60208082526042908201527f4f6e6c792074686520446f63746f72732063616e2063616c6c2074686973206660408201527f756e6374696f6e2064756520746f20736563757269747920726561736f6e7321606082015261212160f01b608082015260a00190565b60208082526026908201527f4b696e646c792066696c6c20616c6c20746865206d616e6461746f7279206665604082015265696c6473212160d01b606082015260800190565b6020808252606c908201527f496e636f72726563742050617469656e742077616c6c6574206164647265737360408201527f206f72205468652050617469656e742064657461696c20666f7220746865206160608201527f6464726573732070726f7669646564206e6f7420617661696c61626c6520696e60808201526b2074686520636861696e212160a01b60a082015260c00190565b5f60018201614d8657614d866149d0565b5060010190565b5f82614da757634e487b7160e01b5f52601260045260245ffd5b500490565b6020808252601e908201527f57616c6c657420416464726573732063616e6e6f7420626520656d7074790000604082015260600190565b60208082526078908201527f496e636f727265637420446f63746f722077616c6c657420616464726573732060408201527f6f722054686520446f63746f722064657461696c20666f72207468652061646460608201527f726573732070726f7669646564206973206e6f7420636f6d706c6574656c792060808201527f617661696c61626c6520696e2074686520636861696e2121000000000000000060a082015260c00190565b60208082526027908201527f596f752068617665206e6f2061636365737320746f206665746368207468652060408201526664657461696c7360c81b60608201526080019056fea2646970667358221220a061208d40c2a5aa21b8f7b6170d79e107c5c97964087d24b53bca6d34f4592064736f6c63430008150033",
  "linkReferences": {},
  "deployedLinkReferences": {}
}