{
  "_format": "hh-sol-artifact-1",
  "contractName": "PatientDetails",
  "sourceName": "src/contracts/Patient.sol",
  "abi": [
    {
      "inputs": [],
      "stateMutability": "nonpayable",
      "type": "constructor"
    },
    {
      "inputs": [
        {
          "internalType": "address",
          "name": "_walletAddress",
          "type": "address"
        }
      ],
      "name": "AddDoctorAccess",
      "outputs": [],
      "stateMutability": "nonpayable",
      "type": "function"
    },
    {
      "inputs": [
        {
          "internalType": "string",
          "name": "_name",
          "type": "string"
        },
        {
          "internalType": "address",
          "name": "_walletAddress",
          "type": "address"
        },
        {
          "internalType": "string",
          "name": "_dateOfBirth",
          "type": "string"
        },
        {
          "internalType": "uint256",
          "name": "_age",
          "type": "uint256"
        },
        {
          "internalType": "uint256",
          "name": "_phoneNumber",
          "type": "uint256"
        },
        {
          "internalType": "string",
          "name": "_email",
          "type": "string"
        }
      ],
      "name": "AddDoctorPersonalInfo",
      "outputs": [],
      "stateMutability": "nonpayable",
      "type": "function"
    },
    {
      "inputs": [
        {
          "internalType": "address",
          "name": "_walletAddress",
          "type": "address"
        },
        {
          "internalType": "string",
          "name": "_MedicalLicenseNumber",
          "type": "string"
        },
        {
          "internalType": "string",
          "name": "_Specialization",
          "type": "string"
        },
        {
          "internalType": "uint256",
          "name": "_ExperienceInYear",
          "type": "uint256"
        },
        {
          "internalType": "string",
          "name": "_MedicalSchoolAttended",
          "type": "string"
        }
      ],
      "name": "AddDoctorProfessionalInfo",
      "outputs": [],
      "stateMutability": "nonpayable",
      "type": "function"
    },
    {
      "inputs": [
        {
          "internalType": "string",
          "name": "_date",
          "type": "string"
        },
        {
          "internalType": "address",
          "name": "_walletAddress",
          "type": "address"
        },
        {
          "internalType": "bool",
          "name": "_isAlcoholic",
          "type": "bool"
        },
        {
          "internalType": "bool",
          "name": "_isSmoker",
          "type": "bool"
        },
        {
          "internalType": "bool",
          "name": "_isSmokelessTobaccoUser",
          "type": "bool"
        },
        {
          "internalType": "string",
          "name": "_surgicalHistory_ifAny",
          "type": "string"
        },
        {
          "internalType": "string",
          "name": "_physicalActivityLevel",
          "type": "string"
        },
        {
          "internalType": "string",
          "name": "_pastMedicationDetails_IfAny",
          "type": "string"
        }
      ],
      "name": "AddPatientsMedicalDetails",
      "outputs": [],
      "stateMutability": "nonpayable",
      "type": "function"
    },
    {
      "inputs": [
        {
          "internalType": "string",
          "name": "date",
          "type": "string"
        },
        {
          "internalType": "string",
          "name": "_name",
          "type": "string"
        },
        {
          "internalType": "address",
          "name": "_walletAddress",
          "type": "address"
        },
        {
          "internalType": "string",
          "name": "_gender",
          "type": "string"
        },
        {
          "internalType": "string",
          "name": "_Occupation",
          "type": "string"
        },
        {
          "internalType": "string",
          "name": "_dateOfBirth",
          "type": "string"
        },
        {
          "internalType": "uint256",
          "name": "_age",
          "type": "uint256"
        }
      ],
      "name": "AddPatientsPersonalDetails",
      "outputs": [],
      "stateMutability": "nonpayable",
      "type": "function"
    },
    {
      "inputs": [
        {
          "internalType": "address",
          "name": "_walletAddress",
          "type": "address"
        }
      ],
      "name": "DeleteDoctorAccess",
      "outputs": [],
      "stateMutability": "nonpayable",
      "type": "function"
    },
    {
      "inputs": [
        {
          "internalType": "address",
          "name": "",
          "type": "address"
        }
      ],
      "name": "DoctorAccess",
      "outputs": [
        {
          "internalType": "bool",
          "name": "",
          "type": "bool"
        }
      ],
      "stateMutability": "view",
      "type": "function"
    },
    {
      "inputs": [
        {
          "internalType": "address",
          "name": "",
          "type": "address"
        }
      ],
      "name": "DoctorsPersonalInfo",
      "outputs": [
        {
          "internalType": "string",
          "name": "name",
          "type": "string"
        },
        {
          "internalType": "address",
          "name": "walletAddress",
          "type": "address"
        },
        {
          "internalType": "string",
          "name": "dateOfBirth",
          "type": "string"
        },
        {
          "internalType": "uint256",
          "name": "age",
          "type": "uint256"
        },
        {
          "internalType": "uint256",
          "name": "phoneNumber",
          "type": "uint256"
        },
        {
          "internalType": "string",
          "name": "email",
          "type": "string"
        }
      ],
      "stateMutability": "view",
      "type": "function"
    },
    {
      "inputs": [
        {
          "internalType": "address",
          "name": "",
          "type": "address"
        }
      ],
      "name": "Doctors_ProfessionalDetails",
      "outputs": [
        {
          "internalType": "address",
          "name": "walletAddress",
          "type": "address"
        },
        {
          "internalType": "string",
          "name": "MedicalSchoolAttended",
          "type": "string"
        },
        {
          "internalType": "string",
          "name": "MedicalLicenseNumber",
          "type": "string"
        },
        {
          "internalType": "string",
          "name": "Specialization",
          "type": "string"
        },
        {
          "internalType": "uint256",
          "name": "ExperienceInYear",
          "type": "uint256"
        }
      ],
      "stateMutability": "view",
      "type": "function"
    },
    {
      "inputs": [
        {
          "internalType": "string",
          "name": "_name",
          "type": "string"
        },
        {
          "internalType": "address",
          "name": "_walletAddress",
          "type": "address"
        },
        {
          "internalType": "string",
          "name": "_dateOfBirth",
          "type": "string"
        },
        {
          "internalType": "uint256",
          "name": "_age",
          "type": "uint256"
        },
        {
          "internalType": "uint256",
          "name": "_phoneNumber",
          "type": "uint256"
        },
        {
          "internalType": "string",
          "name": "_email",
          "type": "string"
        }
      ],
      "name": "EditDoctorPersonalDetails",
      "outputs": [],
      "stateMutability": "nonpayable",
      "type": "function"
    },
    {
      "inputs": [
        {
          "internalType": "address",
          "name": "_walletAddress",
          "type": "address"
        },
        {
          "internalType": "string",
          "name": "_MedicalLicenseNumber",
          "type": "string"
        },
        {
          "internalType": "string",
          "name": "_Specialization",
          "type": "string"
        },
        {
          "internalType": "uint256",
          "name": "_ExperienceInYear",
          "type": "uint256"
        },
        {
          "internalType": "string",
          "name": "_MedicalSchoolAttended",
          "type": "string"
        }
      ],
      "name": "EditDoctorProfessionalDetails",
      "outputs": [],
      "stateMutability": "nonpayable",
      "type": "function"
    },
    {
      "inputs": [
        {
          "internalType": "string",
          "name": "_date",
          "type": "string"
        },
        {
          "internalType": "string",
          "name": "_name",
          "type": "string"
        },
        {
          "internalType": "address",
          "name": "_walletAddress",
          "type": "address"
        },
        {
          "internalType": "string",
          "name": "_gender",
          "type": "string"
        },
        {
          "internalType": "string",
          "name": "_Occupation",
          "type": "string"
        },
        {
          "internalType": "string",
          "name": "_dateOfBirth",
          "type": "string"
        },
        {
          "internalType": "uint256",
          "name": "_age",
          "type": "uint256"
        }
      ],
      "name": "EditPatientPersonalDetails",
      "outputs": [],
      "stateMutability": "nonpayable",
      "type": "function"
    },
    {
      "inputs": [
        {
          "internalType": "string",
          "name": "_date",
          "type": "string"
        },
        {
          "internalType": "address",
          "name": "_walletAddress",
          "type": "address"
        },
        {
          "internalType": "bool",
          "name": "_isAlcoholic",
          "type": "bool"
        },
        {
          "internalType": "bool",
          "name": "_isSmoker",
          "type": "bool"
        },
        {
          "internalType": "bool",
          "name": "_isSmokelessTobaccoUser",
          "type": "bool"
        },
        {
          "internalType": "string",
          "name": "_surgicalHistory_ifAny",
          "type": "string"
        },
        {
          "internalType": "string",
          "name": "_physicalActivityLevel",
          "type": "string"
        },
        {
          "internalType": "string",
          "name": "_pastMedicationDetails_IfAny",
          "type": "string"
        }
      ],
      "name": "EditPatinetMedicalDetails",
      "outputs": [],
      "stateMutability": "nonpayable",
      "type": "function"
    },
    {
      "inputs": [
        {
          "internalType": "address",
          "name": "",
          "type": "address"
        },
        {
          "internalType": "uint256",
          "name": "",
          "type": "uint256"
        }
      ],
      "name": "HealthCondition",
      "outputs": [
        {
          "internalType": "string",
          "name": "date",
          "type": "string"
        },
        {
          "internalType": "address",
          "name": "walletAddress",
          "type": "address"
        },
        {
          "internalType": "address",
          "name": "physician",
          "type": "address"
        },
        {
          "internalType": "string",
          "name": "Department_uint",
          "type": "string"
        },
        {
          "internalType": "string",
          "name": "BloodPressure",
          "type": "string"
        },
        {
          "internalType": "string",
          "name": "HeartRate",
          "type": "string"
        },
        {
          "internalType": "string",
          "name": "RespiratoryRate",
          "type": "string"
        },
        {
          "internalType": "string",
          "name": "Dosage",
          "type": "string"
        }
      ],
      "stateMutability": "view",
      "type": "function"
    },
    {
      "inputs": [
        {
          "internalType": "string",
          "name": "dataURL",
          "type": "string"
        },
        {
          "internalType": "address",
          "name": "user",
          "type": "address"
        }
      ],
      "name": "PatientDataStorage",
      "outputs": [],
      "stateMutability": "nonpayable",
      "type": "function"
    },
    {
      "inputs": [
        {
          "internalType": "address",
          "name": "",
          "type": "address"
        }
      ],
      "name": "PatientsMedicalDetails",
      "outputs": [
        {
          "internalType": "string",
          "name": "date",
          "type": "string"
        },
        {
          "internalType": "address",
          "name": "walletAddress",
          "type": "address"
        },
        {
          "internalType": "bool",
          "name": "isAlcoholic",
          "type": "bool"
        },
        {
          "internalType": "bool",
          "name": "isSmoker",
          "type": "bool"
        },
        {
          "internalType": "bool",
          "name": "isSmokelessTobaccoUser",
          "type": "bool"
        },
        {
          "internalType": "string",
          "name": "surgicalHistory_ifAny",
          "type": "string"
        },
        {
          "internalType": "string",
          "name": "physicalActivityLevel",
          "type": "string"
        },
        {
          "internalType": "string",
          "name": "pastMedicationDetails_IfAny",
          "type": "string"
        }
      ],
      "stateMutability": "view",
      "type": "function"
    },
    {
      "inputs": [
        {
          "internalType": "address",
          "name": "",
          "type": "address"
        }
      ],
      "name": "PatientsPersonalDetails",
      "outputs": [
        {
          "internalType": "string",
          "name": "date",
          "type": "string"
        },
        {
          "internalType": "string",
          "name": "name",
          "type": "string"
        },
        {
          "internalType": "address",
          "name": "walletAddress",
          "type": "address"
        },
        {
          "internalType": "string",
          "name": "gender",
          "type": "string"
        },
        {
          "internalType": "string",
          "name": "Occupation",
          "type": "string"
        },
        {
          "internalType": "string",
          "name": "dateOfBirth",
          "type": "string"
        },
        {
          "internalType": "uint256",
          "name": "age",
          "type": "uint256"
        }
      ],
      "stateMutability": "view",
      "type": "function"
    },
    {
      "inputs": [
        {
          "internalType": "address",
          "name": "_address",
          "type": "address"
        }
      ],
      "name": "addOwner",
      "outputs": [],
      "stateMutability": "nonpayable",
      "type": "function"
    },
    {
      "inputs": [
        {
          "internalType": "string",
          "name": "_date",
          "type": "string"
        },
        {
          "internalType": "address",
          "name": "_walletAddress",
          "type": "address"
        },
        {
          "internalType": "address",
          "name": "_physician",
          "type": "address"
        },
        {
          "internalType": "string",
          "name": "_Department_uint",
          "type": "string"
        },
        {
          "internalType": "string",
          "name": "_BloodPressure",
          "type": "string"
        },
        {
          "internalType": "string",
          "name": "_HeartRate",
          "type": "string"
        },
        {
          "internalType": "string",
          "name": "_RespiratoryRate",
          "type": "string"
        },
        {
          "internalType": "string",
          "name": "_Dosage",
          "type": "string"
        }
      ],
      "name": "addPatientHealthDetails",
      "outputs": [],
      "stateMutability": "nonpayable",
      "type": "function"
    },
    {
      "inputs": [
        {
          "internalType": "uint256",
          "name": "_yearOfBirth",
          "type": "uint256"
        }
      ],
      "name": "getAge",
      "outputs": [
        {
          "internalType": "uint256",
          "name": "",
          "type": "uint256"
        }
      ],
      "stateMutability": "view",
      "type": "function"
    },
    {
      "inputs": [
        {
          "internalType": "address",
          "name": "_walletAddress",
          "type": "address"
        }
      ],
      "name": "getDoctorPersonalDetails",
      "outputs": [
        {
          "components": [
            {
              "internalType": "string",
              "name": "name",
              "type": "string"
            },
            {
              "internalType": "address",
              "name": "walletAddress",
              "type": "address"
            },
            {
              "internalType": "string",
              "name": "dateOfBirth",
              "type": "string"
            },
            {
              "internalType": "uint256",
              "name": "age",
              "type": "uint256"
            },
            {
              "internalType": "uint256",
              "name": "phoneNumber",
              "type": "uint256"
            },
            {
              "internalType": "string",
              "name": "email",
              "type": "string"
            }
          ],
          "internalType": "struct DoctorDetails.DoctorPersonalInfo",
          "name": "",
          "type": "tuple"
        }
      ],
      "stateMutability": "view",
      "type": "function"
    },
    {
      "inputs": [
        {
          "internalType": "address",
          "name": "_walletAddress",
          "type": "address"
        }
      ],
      "name": "getDoctorProfessionalDetails",
      "outputs": [
        {
          "components": [
            {
              "internalType": "address",
              "name": "walletAddress",
              "type": "address"
            },
            {
              "internalType": "string",
              "name": "MedicalSchoolAttended",
              "type": "string"
            },
            {
              "internalType": "string",
              "name": "MedicalLicenseNumber",
              "type": "string"
            },
            {
              "internalType": "string",
              "name": "Specialization",
              "type": "string"
            },
            {
              "internalType": "uint256",
              "name": "ExperienceInYear",
              "type": "uint256"
            }
          ],
          "internalType": "struct DoctorDetails.DoctorProfessionalDetails",
          "name": "",
          "type": "tuple"
        }
      ],
      "stateMutability": "view",
      "type": "function"
    },
    {
      "inputs": [
        {
          "internalType": "address",
          "name": "_walletAddress",
          "type": "address"
        }
      ],
      "name": "getPatientDetails",
      "outputs": [
        {
          "components": [
            {
              "internalType": "string",
              "name": "date",
              "type": "string"
            },
            {
              "internalType": "string",
              "name": "name",
              "type": "string"
            },
            {
              "internalType": "address",
              "name": "walletAddress",
              "type": "address"
            },
            {
              "internalType": "string",
              "name": "gender",
              "type": "string"
            },
            {
              "internalType": "string",
              "name": "Occupation",
              "type": "string"
            },
            {
              "internalType": "string",
              "name": "dateOfBirth",
              "type": "string"
            },
            {
              "internalType": "uint256",
              "name": "age",
              "type": "uint256"
            }
          ],
          "internalType": "struct PatientDetails.PatientPersonalDetails",
          "name": "",
          "type": "tuple"
        },
        {
          "components": [
            {
              "internalType": "string",
              "name": "date",
              "type": "string"
            },
            {
              "internalType": "address",
              "name": "walletAddress",
              "type": "address"
            },
            {
              "internalType": "bool",
              "name": "isAlcoholic",
              "type": "bool"
            },
            {
              "internalType": "bool",
              "name": "isSmoker",
              "type": "bool"
            },
            {
              "internalType": "bool",
              "name": "isSmokelessTobaccoUser",
              "type": "bool"
            },
            {
              "internalType": "string",
              "name": "surgicalHistory_ifAny",
              "type": "string"
            },
            {
              "internalType": "string",
              "name": "physicalActivityLevel",
              "type": "string"
            },
            {
              "internalType": "string",
              "name": "pastMedicationDetails_IfAny",
              "type": "string"
            }
          ],
          "internalType": "struct PatientDetails.PatientMedicalDetails",
          "name": "",
          "type": "tuple"
        }
      ],
      "stateMutability": "view",
      "type": "function"
    },
    {
      "inputs": [
        {
          "internalType": "address",
          "name": "_walletAddress",
          "type": "address"
        }
      ],
      "name": "getPatientHealthDetails",
      "outputs": [
        {
          "components": [
            {
              "internalType": "string",
              "name": "date",
              "type": "string"
            },
            {
              "internalType": "address",
              "name": "walletAddress",
              "type": "address"
            },
            {
              "internalType": "address",
              "name": "physician",
              "type": "address"
            },
            {
              "internalType": "string",
              "name": "Department_uint",
              "type": "string"
            },
            {
              "internalType": "string",
              "name": "BloodPressure",
              "type": "string"
            },
            {
              "internalType": "string",
              "name": "HeartRate",
              "type": "string"
            },
            {
              "internalType": "string",
              "name": "RespiratoryRate",
              "type": "string"
            },
            {
              "internalType": "string",
              "name": "Dosage",
              "type": "string"
            }
          ],
          "internalType": "struct PatientDetails.PatientHealthCondition[]",
          "name": "",
          "type": "tuple[]"
        }
      ],
      "stateMutability": "view",
      "type": "function"
    },
    {
      "inputs": [
        {
          "internalType": "uint256",
          "name": "timestamp",
          "type": "uint256"
        }
      ],
      "name": "getYear",
      "outputs": [
        {
          "internalType": "uint256",
          "name": "",
          "type": "uint256"
        }
      ],
      "stateMutability": "pure",
      "type": "function"
    },
    {
      "inputs": [],
      "name": "id",
      "outputs": [
        {
          "internalType": "uint256",
          "name": "",
          "type": "uint256"
        }
      ],
      "stateMutability": "view",
      "type": "function"
    },
    {
      "inputs": [
        {
          "internalType": "address",
          "name": "_address",
          "type": "address"
        }
      ],
      "name": "isDoctor",
      "outputs": [
        {
          "internalType": "bool",
          "name": "val",
          "type": "bool"
        }
      ],
      "stateMutability": "view",
      "type": "function"
    },
    {
      "inputs": [
        {
          "internalType": "address",
          "name": "_address",
          "type": "address"
        }
      ],
      "name": "isOwner",
      "outputs": [
        {
          "internalType": "bool",
          "name": "val",
          "type": "bool"
        }
      ],
      "stateMutability": "view",
      "type": "function"
    },
    {
      "inputs": [
        {
          "internalType": "address",
          "name": "",
          "type": "address"
        }
      ],
      "name": "owner",
      "outputs": [
        {
          "internalType": "bool",
          "name": "",
          "type": "bool"
        }
      ],
      "stateMutability": "view",
      "type": "function"
    },
    {
      "inputs": [
        {
          "internalType": "address",
          "name": "",
          "type": "address"
        },
        {
          "internalType": "uint256",
          "name": "",
          "type": "uint256"
        }
      ],
      "name": "patientsStoredData",
      "outputs": [
        {
          "internalType": "string",
          "name": "",
          "type": "string"
        }
      ],
      "stateMutability": "view",
      "type": "function"
    },
    {
      "inputs": [
        {
          "internalType": "address",
          "name": "_address",
          "type": "address"
        }
      ],
      "name": "removeOwner",
      "outputs": [],
      "stateMutability": "nonpayable",
      "type": "function"
    },
    {
      "inputs": [],
      "name": "superOwner",
      "outputs": [
        {
          "internalType": "address",
          "name": "",
          "type": "address"
        }
      ],
      "stateMutability": "view",
      "type": "function"
    },
    {
      "inputs": [],
      "name": "totalAdmin",
      "outputs": [
        {
          "internalType": "uint256",
          "name": "",
          "type": "uint256"
        }
      ],
      "stateMutability": "view",
      "type": "function"
    },
    {
      "inputs": [],
      "name": "totalDoctors",
      "outputs": [
        {
          "internalType": "uint256",
          "name": "",
          "type": "uint256"
        }
      ],
      "stateMutability": "view",
      "type": "function"
    },
    {
      "inputs": [],
      "name": "totalPatient",
      "outputs": [
        {
          "internalType": "uint256",
          "name": "",
          "type": "uint256"
        }
      ],
      "stateMutability": "view",
      "type": "function"
    }
  ],
  "bytecode": "0x608060405234801561000f575f80fd5b50335f818152602081905260409020805460ff1916600190811790915580546001600160a01b0319169091178155600755614d368061004d5f395ff3fe608060405234801561000f575f80fd5b5060043610610208575f3560e01c80637a508e9c1161011f578063b5f63ec5116100a9578063d1f2f0e511610079578063d1f2f0e5146104d6578063efe2ccc1146104e9578063f243cc6a1461050a578063f7e901d314610531578063fe0c2a3114610551575f80fd5b8063b5f63ec51461045d578063bb7d6b671461047d578063bbcaa6371461049f578063cda2e23c146104c3575f80fd5b806392d66313116100ef57806392d66313146103fb578063996440c61461040e578063a49b172514610421578063a96a6b2114610434578063af640d0f14610454575f80fd5b80637a508e9c146103a157806387dcd2b6146103b457806392b3141d146103df57806392c2808f146103f2575f80fd5b806348e64d80116101a057806366adec561161017057806366adec5614610323578063686e1f1b146103365780636e2c0ffe146103495780637065cb481461036957806375c6a96c1461037c575f80fd5b806348e64d80146102dc57806364319e33146102ef57806365b44d7e146102f8578063666e1b3914610301575f80fd5b80631a757712116101db5780631a7577121461026d5780631f650cc9146102805780632f54bf6e146102a657806334a9e6eb146102c9575f80fd5b8063013b58c81461020c57806304028017146102215780630e37008a14610234578063173825d91461025a575b5f80fd5b61021f61021a366004613d35565b610578565b005b61021f61022f366004613d80565b6105ae565b610247610242366004613d99565b610717565b6040519081526020015b60405180910390f35b61021f610268366004613d80565b610794565b61021f61027b366004613db0565b61080e565b61029361028e366004613d80565b610995565b6040516102519796959493929190613e97565b6102b96102b4366004613d80565b610c7b565b6040519015158152602001610251565b61021f6102d7366004613f2a565b610ca8565b61021f6102ea366004614011565b610e75565b61024760065481565b61024760055481565b6102b961030f366004613d80565b5f6020819052908152604090205460ff1681565b61021f610331366004613f2a565b61100e565b61021f610344366004613d80565b611254565b61035c6103573660046140ad565b6113f4565b60405161025191906140d5565b61021f610377366004613d80565b6114a5565b61038f61038a366004613d80565b611522565b604051610251969594939291906140e7565b61021f6103af366004614147565b6116f6565b6001546103c7906001600160a01b031681565b6040516001600160a01b039091168152602001610251565b61021f6103ed366004614011565b6118ae565b610247600c5481565b610247610409366004613d99565b611ae2565b6102b961041c366004613d80565b611af7565b61021f61042f366004613db0565b611b1f565b610447610442366004613d80565b611d32565b6040516102519190614229565b61024760075481565b61047061046b366004613d80565b612019565b60405161025191906142af565b6102b961048b366004613d80565b60026020525f908152604090205460ff1681565b6104b26104ad366004613d80565b6124b1565b6040516102519594939291906143d0565b61021f6104d1366004614147565b61267b565b61021f6104e436600461442c565b61289e565b6104fc6104f7366004613d80565b612c04565b60405161025192919061457f565b61051d610518366004613d80565b613431565b604051610251989796959493929190614645565b61054461053f366004613d80565b6136a1565b60405161025191906146ca565b61056461055f3660046140ad565b61396f565b60405161025198979695949392919061474a565b6001600160a01b0381165f908152600b60209081526040822080546001810182559083529120016105a98382614835565b505050565b335f9081526020819052604090205460ff16806105d557506001546001600160a01b031633145b6105fa5760405162461bcd60e51b81526004016105f1906148f1565b60405180910390fd5b335f908152602081905260409020805460ff191660011790556001600160a01b03811661065b5760405162461bcd60e51b815260206004820152600f60248201526e496e76616c6964204164647265737360881b60448201526064016105f1565b6001600160a01b0381165f9081526002602052604090205460ff166106f75760405162461bcd60e51b815260206004820152604660248201527f50726f76696465642061646472657373206d75737420626520616e2041646d6960448201527f6e4163636573734164647265737320746f2072656d6f76652041646d696e416360648201526563657373212160d01b608482015260a4016105f1565b6001600160a01b03165f908152600260205260409020805460ff19169055565b5f8061072242611ae2565b90505f83610732836107b261494f565b61073c9190614962565b90505f811161078d5760405162461bcd60e51b815260206004820152601860248201527f456e74657220636f72726563742062697274682079656172000000000000000060448201526064016105f1565b9392505050565b6001546001600160a01b031633146107ee5760405162461bcd60e51b815260206004820152601f60248201527f41636365737365626c65206f6e6c7920666f722053757065724f776e6572730060448201526064016105f1565b6001600160a01b03165f908152602081905260409020805460ff19169055565b335f9081526020819052604090205460ff168061083557506001546001600160a01b031633145b6108515760405162461bcd60e51b81526004016105f1906148f1565b6001600160a01b0385161580159061086957505f8151115b801561087557505f8651115b6108915760405162461bcd60e51b81526004016105f190614975565b6001600160a01b038086165f81815260036020526040902060010154909116146108cd5760405162461bcd60e51b81526004016105f1906149c4565b6040805160c0810182528781526001600160a01b0387166020808301829052828401889052606083018790526080830186905260a083018590525f918252600390529190912081518592919081906109259082614835565b5060208201516001820180546001600160a01b0319166001600160a01b03909216919091179055604082015160028201906109609082614835565b50606082015160038201556080820151600482015560a082015160058201906109899082614835565b50505050505050505050565b60086020525f90815260409020805481906109af906147b0565b80601f01602080910402602001604051908101604052809291908181526020018280546109db906147b0565b8015610a265780601f106109fd57610100808354040283529160200191610a26565b820191905f5260205f20905b815481529060010190602001808311610a0957829003601f168201915b505050505090806001018054610a3b906147b0565b80601f0160208091040260200160405190810160405280929190818152602001828054610a67906147b0565b8015610ab25780601f10610a8957610100808354040283529160200191610ab2565b820191905f5260205f20905b815481529060010190602001808311610a9557829003601f168201915b505050600284015460038501805494956001600160a01b03909216949193509150610adc906147b0565b80601f0160208091040260200160405190810160405280929190818152602001828054610b08906147b0565b8015610b535780601f10610b2a57610100808354040283529160200191610b53565b820191905f5260205f20905b815481529060010190602001808311610b3657829003601f168201915b505050505090806004018054610b68906147b0565b80601f0160208091040260200160405190810160405280929190818152602001828054610b94906147b0565b8015610bdf5780601f10610bb657610100808354040283529160200191610bdf565b820191905f5260205f20905b815481529060010190602001808311610bc257829003601f168201915b505050505090806005018054610bf4906147b0565b80601f0160208091040260200160405190810160405280929190818152602001828054610c20906147b0565b8015610c6b5780601f10610c4257610100808354040283529160200191610c6b565b820191905f5260205f20905b815481529060010190602001808311610c4e57829003601f168201915b5050505050908060060154905087565b6001600160a01b0381165f9081526020819052604081205460ff1615610ca357506001919050565b919050565b335f9081526002602052604081205460ff1615610cc3575060015b335f9081526002602052604090205460ff16610cf15760405162461bcd60e51b81526004016105f190614a5c565b6001600160a01b038816610d175760405162461bcd60e51b81526004016105f190614ac4565b6001600160a01b038089165f8181526008602052604090206002015490911614610d535760405162461bcd60e51b81526004016105f190614b0a565b60408051610100810182528a81526001600160a01b038a1660208083018290528a1515838501528915156060840152881515608084015260a0830188905260c0830187905260e083018690525f918252600990529190912081518190610db99082614835565b5060208201516001820180546040850151606086015160808701511515600160b01b0260ff60b01b19911515600160a81b029190911661ffff60a81b19921515600160a01b026001600160a81b03199094166001600160a01b039096169590951792909217169290921791909117905560a08201516002820190610e3d9082614835565b5060c08201516003820190610e529082614835565b5060e08201516004820190610e679082614835565b505050505050505050505050565b335f9081526020819052604090205460ff1680610e9c57506001546001600160a01b031633145b610eb85760405162461bcd60e51b81526004016105f1906148f1565b6001600160a01b03851615801590610ed057505f8151115b8015610edc57505f8451115b8015610ee857505f8351115b610f2c5760405162461bcd60e51b8152602060048201526015602482015274656e74657220636f72726563742064657461696c7360581b60448201526064016105f1565b6001600160a01b038086165f8181526004602052604090205490911614610f655760405162461bcd60e51b81526004016105f1906149c4565b6040805160a0810182526001600160a01b0387811680835260208084018681528486018a905260608501899052608085018890525f9283526004909152939020825181546001600160a01b031916921691909117815591519091906001820190610fcf9082614835565b5060408201516002820190610fe49082614835565b5060608201516003820190610ff99082614835565b50608082015181600401559050505050505050565b335f9081526002602052604081205460ff1615611029575060015b335f9081526002602052604090205460ff166110575760405162461bcd60e51b81526004016105f190614a5c565b6001600160a01b038089165f81815260096020526040902060010154909116036110d35760405162461bcd60e51b815260206004820152602760248201527f50617469656e74206d65646963616c2064657461696c7320616c7265616479206044820152666578697374212160c81b60648201526084016105f1565b6001600160a01b0388166110f95760405162461bcd60e51b81526004016105f190614ac4565b60408051610100810182528a81526001600160a01b038a1660208083018290528a1515838501528915156060840152881515608084015260a0830188905260c0830187905260e083018690525f91825260099052919091208151819061115f9082614835565b5060208201516001820180546040850151606086015160808701511515600160b01b0260ff60b01b19911515600160a81b029190911661ffff60a81b19921515600160a01b026001600160a81b03199094166001600160a01b039096169590951792909217169290921791909117905560a082015160028201906111e39082614835565b5060c082015160038201906111f89082614835565b5060e0820151600482019061120d9082614835565b5050506001600160a01b038089165f818152600860205260409020600201549091160361124957600c8054905f61124383614ba2565b91905055505b505050505050505050565b335f9081526020819052604090205460ff168061127b57506001546001600160a01b031633145b6112975760405162461bcd60e51b81526004016105f1906148f1565b335f9081526020819052604090205460ff1661130c5760405162461bcd60e51b815260206004820152602e60248201527f4f6e6c79206f776e6572206861732070726976696c65676520746f206164642060448201526d6f776e657220616363657373212160901b60648201526084016105f1565b6001600160a01b0381165f9081526002602052604090205460ff16156113745760405162461bcd60e51b815260206004820181905260248201527f4164647265737320616c7265616479206861732061646d696e2061636365737360448201526064016105f1565b6001600160a01b0381166113bc5760405162461bcd60e51b815260206004820152600f60248201526e496e76616c6964204164647265737360881b60448201526064016105f1565b6001600160a01b0381165f908152600260205260408120805460ff1916600117905560068054916113ec83614ba2565b919050555050565b600b602052815f5260405f20818154811061140d575f80fd5b905f5260205f20015f91509150508054611426906147b0565b80601f0160208091040260200160405190810160405280929190818152602001828054611452906147b0565b801561149d5780601f106114745761010080835404028352916020019161149d565b820191905f5260205f20905b81548152906001019060200180831161148057829003601f168201915b505050505081565b6001546001600160a01b031633146114ff5760405162461bcd60e51b815260206004820152601f60248201527f41636365737365626c65206f6e6c7920666f722053757065724f776e6572730060448201526064016105f1565b6001600160a01b03165f908152602081905260409020805460ff19166001179055565b60036020525f908152604090208054819061153c906147b0565b80601f0160208091040260200160405190810160405280929190818152602001828054611568906147b0565b80156115b35780601f1061158a576101008083540402835291602001916115b3565b820191905f5260205f20905b81548152906001019060200180831161159657829003601f168201915b505050600184015460028501805494956001600160a01b039092169491935091506115dd906147b0565b80601f0160208091040260200160405190810160405280929190818152602001828054611609906147b0565b80156116545780601f1061162b57610100808354040283529160200191611654565b820191905f5260205f20905b81548152906001019060200180831161163757829003601f168201915b505050505090806003015490806004015490806005018054611675906147b0565b80601f01602080910402602001604051908101604052809291908181526020018280546116a1906147b0565b80156116ec5780601f106116c3576101008083540402835291602001916116ec565b820191905f5260205f20905b8154815290600101906020018083116116cf57829003601f168201915b5050505050905086565b335f9081526002602052604081205460ff1615611711575060015b335f9081526002602052604090205460ff1661173f5760405162461bcd60e51b81526004016105f190614a5c565b6001600160a01b0386161580159061175757505f8551115b801561176357505f8451115b61177f5760405162461bcd60e51b81526004016105f190614ac4565b6001600160a01b038087165f81815260086020526040902060020154909116146117bb5760405162461bcd60e51b81526004016105f190614b0a565b6040805160e08101825289815260208082018a90526001600160a01b038916828401819052606083018990526080830188905260a0830187905260c083018690525f908152600890915291909120815184929190819061181b9082614835565b50602082015160018201906118309082614835565b5060408201516002820180546001600160a01b0319166001600160a01b039092169190911790556060820151600382019061186b9082614835565b50608082015160048201906118809082614835565b5060a082015160058201906118959082614835565b5060c08201518160060155905050505050505050505050565b335f9081526020819052604090205460ff16806118d557506001546001600160a01b031633145b6118f15760405162461bcd60e51b81526004016105f1906148f1565b6001600160a01b038086165f81815260046020526040902054909116036119715760405162461bcd60e51b815260206004820152602e60248201527f50687973696369616e2050726f66657373696f6e616c2064657461696c73206160448201526d6c7265616479206578697374212160901b60648201526084016105f1565b6001600160a01b038086165f818152600460205260409020549091161480159061199b57505f8151115b80156119a757505f8451115b80156119b357505f8351115b6119f75760405162461bcd60e51b8152602060048201526015602482015274456e74657220436f72726563742064657461696c7360581b60448201526064016105f1565b6040805160a0810182526001600160a01b0387811680835260208084018681528486018a905260608501899052608085018890525f9283526004909152939020825181546001600160a01b031916921691909117815591519091906001820190611a619082614835565b5060408201516002820190611a769082614835565b5060608201516003820190611a8b9082614835565b50608091909101516004909101556001600160a01b038086165f8181526003602052604090206001015490911603611adb57611ac685611254565b60058054905f611ad583614ba2565b91905055505b5050505050565b5f611af16301e1338083614bba565b92915050565b6001600160a01b0381165f9081526002602052604081205460ff1615610ca357506001919050565b335f9081526020819052604090205460ff1680611b4657506001546001600160a01b031633145b611b625760405162461bcd60e51b81526004016105f1906148f1565b6001600160a01b038086165f8181526003602052604090206001015490911603611be05760405162461bcd60e51b815260206004820152602960248201527f50687973696369616e20706572736f6e616c2064657461696c20616c7265616460448201526879206578697374212160b81b60648201526084016105f1565b6001600160a01b03851615801590611bf757505f82115b8015611c0357505f8151115b8015611c0f57505f8651115b611c2b5760405162461bcd60e51b81526004016105f190614975565b6040805160c0810182528781526001600160a01b0387166020808301829052828401889052606083018790526080830186905260a083018590525f91825260039052919091208151859291908190611c839082614835565b5060208201516001820180546001600160a01b0319166001600160a01b0390921691909117905560408201516002820190611cbe9082614835565b50606082015160038201556080820151600482015560a08201516005820190611ce79082614835565b5050506001600160a01b038087165f8181526004602052604090205490911603611d2957611d1486611254565b60058054905f611d2383614ba2565b91905055505b50505050505050565b611d716040518060c00160405280606081526020015f6001600160a01b03168152602001606081526020015f81526020015f8152602001606081525090565b335f9081526020819052604090205460ff1680611d9857506001546001600160a01b031633145b611db45760405162461bcd60e51b81526004016105f1906148f1565b6001600160a01b038216611dda5760405162461bcd60e51b81526004016105f190614bd9565b6001600160a01b038083165f8181526003602052604090206001015490911614611e165760405162461bcd60e51b81526004016105f190614c10565b6001600160a01b0382165f9081526003602052604090819020815160c08101909252805482908290611e47906147b0565b80601f0160208091040260200160405190810160405280929190818152602001828054611e73906147b0565b8015611ebe5780601f10611e9557610100808354040283529160200191611ebe565b820191905f5260205f20905b815481529060010190602001808311611ea157829003601f168201915b505050918352505060018201546001600160a01b03166020820152600282018054604090920191611eee906147b0565b80601f0160208091040260200160405190810160405280929190818152602001828054611f1a906147b0565b8015611f655780601f10611f3c57610100808354040283529160200191611f65565b820191905f5260205f20905b815481529060010190602001808311611f4857829003601f168201915b505050505081526020016003820154815260200160048201548152602001600582018054611f92906147b0565b80601f0160208091040260200160405190810160405280929190818152602001828054611fbe906147b0565b80156120095780601f10611fe057610100808354040283529160200191612009565b820191905f5260205f20905b815481529060010190602001808311611fec57829003601f168201915b5050505050815250509050919050565b335f818152600860205260409020600201546060916001600160a01b03909116148061205d5750335f818152600960205260409020600101546001600160a01b0316145b806120765750335f9081526002602052604090205460ff165b8061208f5750335f9081526020819052604090205460ff165b806120a457506001546001600160a01b031633145b6120c05760405162461bcd60e51b81526004016105f190614cb9565b6001600160a01b0382165f908152600a6020908152604080832080548251818502810185019093528083529193909284015b828210156124a6578382905f5260205f209060080201604051806101000160405290815f82018054612123906147b0565b80601f016020809104026020016040519081016040528092919081815260200182805461214f906147b0565b801561219a5780601f106121715761010080835404028352916020019161219a565b820191905f5260205f20905b81548152906001019060200180831161217d57829003601f168201915b505050918352505060018201546001600160a01b03908116602083015260028301541660408201526003820180546060909201916121d7906147b0565b80601f0160208091040260200160405190810160405280929190818152602001828054612203906147b0565b801561224e5780601f106122255761010080835404028352916020019161224e565b820191905f5260205f20905b81548152906001019060200180831161223157829003601f168201915b50505050508152602001600482018054612267906147b0565b80601f0160208091040260200160405190810160405280929190818152602001828054612293906147b0565b80156122de5780601f106122b5576101008083540402835291602001916122de565b820191905f5260205f20905b8154815290600101906020018083116122c157829003601f168201915b505050505081526020016005820180546122f7906147b0565b80601f0160208091040260200160405190810160405280929190818152602001828054612323906147b0565b801561236e5780601f106123455761010080835404028352916020019161236e565b820191905f5260205f20905b81548152906001019060200180831161235157829003601f168201915b50505050508152602001600682018054612387906147b0565b80601f01602080910402602001604051908101604052809291908181526020018280546123b3906147b0565b80156123fe5780601f106123d5576101008083540402835291602001916123fe565b820191905f5260205f20905b8154815290600101906020018083116123e157829003601f168201915b50505050508152602001600782018054612417906147b0565b80601f0160208091040260200160405190810160405280929190818152602001828054612443906147b0565b801561248e5780601f106124655761010080835404028352916020019161248e565b820191905f5260205f20905b81548152906001019060200180831161247157829003601f168201915b505050505081525050815260200190600101906120f2565b505050509050919050565b60046020525f9081526040902080546001820180546001600160a01b0390921692916124dc906147b0565b80601f0160208091040260200160405190810160405280929190818152602001828054612508906147b0565b80156125535780601f1061252a57610100808354040283529160200191612553565b820191905f5260205f20905b81548152906001019060200180831161253657829003601f168201915b505050505090806002018054612568906147b0565b80601f0160208091040260200160405190810160405280929190818152602001828054612594906147b0565b80156125df5780601f106125b6576101008083540402835291602001916125df565b820191905f5260205f20905b8154815290600101906020018083116125c257829003601f168201915b5050505050908060030180546125f4906147b0565b80601f0160208091040260200160405190810160405280929190818152602001828054612620906147b0565b801561266b5780601f106126425761010080835404028352916020019161266b565b820191905f5260205f20905b81548152906001019060200180831161264e57829003601f168201915b5050505050908060040154905085565b335f9081526002602052604081205460ff1615612696575060015b335f9081526002602052604090205460ff166126c45760405162461bcd60e51b81526004016105f190614a5c565b6001600160a01b038087165f81815260086020526040902060020154909116036127435760405162461bcd60e51b815260206004820152602a60248201527f50617469656e74277320706572736f6e616c2064657461696c7320616c7265616044820152696479206578697374212160b01b60648201526084016105f1565b6001600160a01b0386161580159061275b57505f8551115b801561276757505f8451115b6127835760405162461bcd60e51b81526004016105f190614ac4565b6040805160e08101825289815260208082018a90526001600160a01b038916828401819052606083018990526080830188905260a0830187905260c083018690525f90815260089091529190912081518492919081906127e39082614835565b50602082015160018201906127f89082614835565b5060408201516002820180546001600160a01b0319166001600160a01b03909216919091179055606082015160038201906128339082614835565b50608082015160048201906128489082614835565b5060a0820151600582019061285d9082614835565b5060c091909101516006909101556001600160a01b038088165f818152600960205260409020600101549091160361124957600c8054905f61124383614ba2565b335f9081526002602052604081205460ff16156128b9575060015b335f9081526002602052604090205460ff166128e75760405162461bcd60e51b81526004016105f190614a5c565b6001600160a01b038089165f8181526008602052604090206002015490911614801561292f57506001600160a01b038089165f81815260096020526040902060010154909116145b612a135760405162461bcd60e51b815260206004820152609960248201527f496e636f72726563742050617469656e742077616c6c6574206164647265737360448201527f206f72205468652050617469656e742064657461696c2073706563696669632060648201527f746f20706572736f6e616c206f722070617374206d65646963616c206869737460848201527f6f7279206f662074686520616464726573732070726f7669646564206e6f742060a48201527f617661696c61626c6520696e2074686520636861696e2121200000000000000060c482015260e4016105f1565b6001600160a01b038881165f90815260036020526040902060010154811690881614612ae75760405162461bcd60e51b815260206004820152607160248201527f496e636f72726563742050687973696369616e2077616c6c657420616464726560448201527f7373206f72205468652050687973696369616e2064657461696c20666f72207460648201527f686520616464726573732070726f7669646564206e6f7420617661696c61626c6084820152700329034b7103a34329031b430b4b710909607d1b60a482015260c4016105f1565b6001600160a01b038089165f818152600a602090815260408083208151610100810183528f815280840195909552948c1690840152606083018a90526080830189905260a0830188905260c0830187905260e08301869052835460018101855593825290208151919260080201908190612b619082614835565b5060208201516001820180546001600160a01b039283166001600160a01b031991821617909155604084015160028401805491909316911617905560608201516003820190612bb09082614835565b5060808201516004820190612bc59082614835565b5060a08201516005820190612bda9082614835565b5060c08201516006820190612bef9082614835565b5060e08201516007820190610e679082614835565b612c4b6040518060e0016040528060608152602001606081526020015f6001600160a01b031681526020016060815260200160608152602001606081526020015f81525090565b612c9e604051806101000160405280606081526020015f6001600160a01b031681526020015f151581526020015f151581526020015f151581526020016060815260200160608152602001606081525090565b335f818152600860205260409020600201546001600160a01b03161480612cdd5750335f818152600960205260409020600101546001600160a01b0316145b80612cf65750335f9081526002602052604090205460ff165b80612d0f5750335f9081526020819052604090205460ff165b80612d2457506001546001600160a01b031633145b612d405760405162461bcd60e51b81526004016105f190614cb9565b6001600160a01b038316612d665760405162461bcd60e51b81526004016105f190614bd9565b6001600160a01b038084165f81815260086020526040902060020154909116148015612dae57506001600160a01b038084165f81815260096020526040902060010154909116145b612e6c5760405162461bcd60e51b815260206004820152607960248201527f496e636f72726563742050617469656e742077616c6c6574206164647265737360448201527f206f72205468652050617469656e742064657461696c20666f7220746865206160648201527f6464726573732070726f7669646564206973206e6f7420636f6d706c65746c7960848201527f20617661696c61626c6520696e2074686520636861696e21210000000000000060a482015260c4016105f1565b6001600160a01b0383165f908152600860209081526040808320600990925291829020825160e08101909352815491929091839082908290612ead906147b0565b80601f0160208091040260200160405190810160405280929190818152602001828054612ed9906147b0565b8015612f245780601f10612efb57610100808354040283529160200191612f24565b820191905f5260205f20905b815481529060010190602001808311612f0757829003601f168201915b50505050508152602001600182018054612f3d906147b0565b80601f0160208091040260200160405190810160405280929190818152602001828054612f69906147b0565b8015612fb45780601f10612f8b57610100808354040283529160200191612fb4565b820191905f5260205f20905b815481529060010190602001808311612f9757829003601f168201915b505050918352505060028201546001600160a01b03166020820152600382018054604090920191612fe4906147b0565b80601f0160208091040260200160405190810160405280929190818152602001828054613010906147b0565b801561305b5780601f106130325761010080835404028352916020019161305b565b820191905f5260205f20905b81548152906001019060200180831161303e57829003601f168201915b50505050508152602001600482018054613074906147b0565b80601f01602080910402602001604051908101604052809291908181526020018280546130a0906147b0565b80156130eb5780601f106130c2576101008083540402835291602001916130eb565b820191905f5260205f20905b8154815290600101906020018083116130ce57829003601f168201915b50505050508152602001600582018054613104906147b0565b80601f0160208091040260200160405190810160405280929190818152602001828054613130906147b0565b801561317b5780601f106131525761010080835404028352916020019161317b565b820191905f5260205f20905b81548152906001019060200180831161315e57829003601f168201915b50505050508152602001600682015481525050915080604051806101000160405290815f820180546131ac906147b0565b80601f01602080910402602001604051908101604052809291908181526020018280546131d8906147b0565b80156132235780601f106131fa57610100808354040283529160200191613223565b820191905f5260205f20905b81548152906001019060200180831161320657829003601f168201915b505050918352505060018201546001600160a01b038116602083015260ff600160a01b8204811615156040840152600160a81b8204811615156060840152600160b01b909104161515608082015260028201805460a090920191613286906147b0565b80601f01602080910402602001604051908101604052809291908181526020018280546132b2906147b0565b80156132fd5780601f106132d4576101008083540402835291602001916132fd565b820191905f5260205f20905b8154815290600101906020018083116132e057829003601f168201915b50505050508152602001600382018054613316906147b0565b80601f0160208091040260200160405190810160405280929190818152602001828054613342906147b0565b801561338d5780601f106133645761010080835404028352916020019161338d565b820191905f5260205f20905b81548152906001019060200180831161337057829003601f168201915b505050505081526020016004820180546133a6906147b0565b80601f01602080910402602001604051908101604052809291908181526020018280546133d2906147b0565b801561341d5780601f106133f45761010080835404028352916020019161341d565b820191905f5260205f20905b81548152906001019060200180831161340057829003601f168201915b505050505081525050905091509150915091565b60096020525f908152604090208054819061344b906147b0565b80601f0160208091040260200160405190810160405280929190818152602001828054613477906147b0565b80156134c25780601f10613499576101008083540402835291602001916134c2565b820191905f5260205f20905b8154815290600101906020018083116134a557829003601f168201915b50505050600183015460028401805493946001600160a01b0383169460ff600160a01b850481169550600160a81b8504811694600160b01b9004169290613508906147b0565b80601f0160208091040260200160405190810160405280929190818152602001828054613534906147b0565b801561357f5780601f106135565761010080835404028352916020019161357f565b820191905f5260205f20905b81548152906001019060200180831161356257829003601f168201915b505050505090806003018054613594906147b0565b80601f01602080910402602001604051908101604052809291908181526020018280546135c0906147b0565b801561360b5780601f106135e25761010080835404028352916020019161360b565b820191905f5260205f20905b8154815290600101906020018083116135ee57829003601f168201915b505050505090806004018054613620906147b0565b80601f016020809104026020016040519081016040528092919081815260200182805461364c906147b0565b80156136975780601f1061366e57610100808354040283529160200191613697565b820191905f5260205f20905b81548152906001019060200180831161367a57829003601f168201915b5050505050905088565b6136da6040518060a001604052805f6001600160a01b031681526020016060815260200160608152602001606081526020015f81525090565b335f9081526020819052604090205460ff168061370157506001546001600160a01b031633145b61371d5760405162461bcd60e51b81526004016105f1906148f1565b6001600160a01b0382166137435760405162461bcd60e51b81526004016105f190614bd9565b6001600160a01b038083165f818152600460205260409020549091161461377c5760405162461bcd60e51b81526004016105f190614c10565b6001600160a01b038083165f90815260046020908152604091829020825160a0810190935280549093168252600183018054929392918401916137be906147b0565b80601f01602080910402602001604051908101604052809291908181526020018280546137ea906147b0565b80156138355780601f1061380c57610100808354040283529160200191613835565b820191905f5260205f20905b81548152906001019060200180831161381857829003601f168201915b5050505050815260200160028201805461384e906147b0565b80601f016020809104026020016040519081016040528092919081815260200182805461387a906147b0565b80156138c55780601f1061389c576101008083540402835291602001916138c5565b820191905f5260205f20905b8154815290600101906020018083116138a857829003601f168201915b505050505081526020016003820180546138de906147b0565b80601f016020809104026020016040519081016040528092919081815260200182805461390a906147b0565b80156139555780601f1061392c57610100808354040283529160200191613955565b820191905f5260205f20905b81548152906001019060200180831161393857829003601f168201915b505050505081526020016004820154815250509050919050565b600a602052815f5260405f208181548110613988575f80fd5b905f5260205f2090600802015f9150915050805f0180546139a8906147b0565b80601f01602080910402602001604051908101604052809291908181526020018280546139d4906147b0565b8015613a1f5780601f106139f657610100808354040283529160200191613a1f565b820191905f5260205f20905b815481529060010190602001808311613a0257829003601f168201915b5050506001840154600285015460038601805495966001600160a01b0393841696929093169450919250613a52906147b0565b80601f0160208091040260200160405190810160405280929190818152602001828054613a7e906147b0565b8015613ac95780601f10613aa057610100808354040283529160200191613ac9565b820191905f5260205f20905b815481529060010190602001808311613aac57829003601f168201915b505050505090806004018054613ade906147b0565b80601f0160208091040260200160405190810160405280929190818152602001828054613b0a906147b0565b8015613b555780601f10613b2c57610100808354040283529160200191613b55565b820191905f5260205f20905b815481529060010190602001808311613b3857829003601f168201915b505050505090806005018054613b6a906147b0565b80601f0160208091040260200160405190810160405280929190818152602001828054613b96906147b0565b8015613be15780601f10613bb857610100808354040283529160200191613be1565b820191905f5260205f20905b815481529060010190602001808311613bc457829003601f168201915b505050505090806006018054613bf6906147b0565b80601f0160208091040260200160405190810160405280929190818152602001828054613c22906147b0565b8015613c6d5780601f10613c4457610100808354040283529160200191613c6d565b820191905f5260205f20905b815481529060010190602001808311613c5057829003601f168201915b505050505090806007018054613620906147b0565b634e487b7160e01b5f52604160045260245ffd5b5f82601f830112613ca5575f80fd5b813567ffffffffffffffff80821115613cc057613cc0613c82565b604051601f8301601f19908116603f01168101908282118183101715613ce857613ce8613c82565b81604052838152866020858801011115613d00575f80fd5b836020870160208301375f602085830101528094505050505092915050565b80356001600160a01b0381168114610ca3575f80fd5b5f8060408385031215613d46575f80fd5b823567ffffffffffffffff811115613d5c575f80fd5b613d6885828601613c96565b925050613d7760208401613d1f565b90509250929050565b5f60208284031215613d90575f80fd5b61078d82613d1f565b5f60208284031215613da9575f80fd5b5035919050565b5f805f805f8060c08789031215613dc5575f80fd5b863567ffffffffffffffff80821115613ddc575f80fd5b613de88a838b01613c96565b9750613df660208a01613d1f565b96506040890135915080821115613e0b575f80fd5b613e178a838b01613c96565b9550606089013594506080890135935060a0890135915080821115613e3a575f80fd5b50613e4789828a01613c96565b9150509295509295509295565b5f81518084525f5b81811015613e7857602081850181015186830182015201613e5c565b505f602082860101526020601f19601f83011685010191505092915050565b60e081525f613ea960e083018a613e54565b8281036020840152613ebb818a613e54565b6001600160a01b038916604085015283810360608501529050613ede8188613e54565b90508281036080840152613ef28187613e54565b905082810360a0840152613f068186613e54565b9150508260c083015298975050505050505050565b80358015158114610ca3575f80fd5b5f805f805f805f80610100898b031215613f42575f80fd5b883567ffffffffffffffff80821115613f59575f80fd5b613f658c838d01613c96565b9950613f7360208c01613d1f565b9850613f8160408c01613f1b565b9750613f8f60608c01613f1b565b9650613f9d60808c01613f1b565b955060a08b0135915080821115613fb2575f80fd5b613fbe8c838d01613c96565b945060c08b0135915080821115613fd3575f80fd5b613fdf8c838d01613c96565b935060e08b0135915080821115613ff4575f80fd5b506140018b828c01613c96565b9150509295985092959890939650565b5f805f805f60a08688031215614025575f80fd5b61402e86613d1f565b9450602086013567ffffffffffffffff8082111561404a575f80fd5b61405689838a01613c96565b9550604088013591508082111561406b575f80fd5b61407789838a01613c96565b9450606088013593506080880135915080821115614093575f80fd5b506140a088828901613c96565b9150509295509295909350565b5f80604083850312156140be575f80fd5b6140c783613d1f565b946020939093013593505050565b602081525f61078d6020830184613e54565b60c081525f6140f960c0830189613e54565b6001600160a01b0388166020840152828103604084015261411a8188613e54565b905085606084015284608084015282810360a084015261413a8185613e54565b9998505050505050505050565b5f805f805f805f60e0888a03121561415d575f80fd5b873567ffffffffffffffff80821115614174575f80fd5b6141808b838c01613c96565b985060208a0135915080821115614195575f80fd5b6141a18b838c01613c96565b97506141af60408b01613d1f565b965060608a01359150808211156141c4575f80fd5b6141d08b838c01613c96565b955060808a01359150808211156141e5575f80fd5b6141f18b838c01613c96565b945060a08a0135915080821115614206575f80fd5b506142138a828b01613c96565b92505060c0880135905092959891949750929550565b602081525f825160c0602084015261424460e0840182613e54565b905060018060a01b0360208501511660408401526040840151601f19808584030160608601526142748383613e54565b925060608601516080860152608086015160a086015260a08601519150808584030160c0860152506142a68282613e54565b95945050505050565b5f6020808301818452808551808352604092508286019150828160051b8701018488015f5b838110156143c257603f19898403018552815161010081518186526142fb82870182613e54565b915050888201516143168a8701826001600160a01b03169052565b50878201516001600160a01b0316858901526060808301518683038288015261433f8382613e54565b925050506080808301518683038288015261435a8382613e54565b9250505060a080830151868303828801526143758382613e54565b9250505060c080830151868303828801526143908382613e54565b9250505060e080830151925085820381870152506143ae8183613e54565b9689019694505050908601906001016142d4565b509098975050505050505050565b6001600160a01b038616815260a0602082018190525f906143f390830187613e54565b82810360408401526144058187613e54565b905082810360608401526144198186613e54565b9150508260808301529695505050505050565b5f805f805f805f80610100898b031215614444575f80fd5b883567ffffffffffffffff8082111561445b575f80fd5b6144678c838d01613c96565b995061447560208c01613d1f565b985061448360408c01613d1f565b975060608b0135915080821115614498575f80fd5b6144a48c838d01613c96565b965060808b01359150808211156144b9575f80fd5b613f9d8c838d01613c96565b5f61010082518185526144da82860182613e54565b91505060208301516144f760208601826001600160a01b03169052565b50604083015161450b604086018215159052565b50606083015161451f606086018215159052565b506080830151614533608086018215159052565b5060a083015184820360a086015261454b8282613e54565b91505060c083015184820360c08601526145658282613e54565b91505060e083015184820360e08601526142a68282613e54565b604081525f835160e0604084015261459b610120840182613e54565b90506020850151603f19808584030160608601526145b98383613e54565b60408801516001600160a01b031660808701526060880151868203830160a088015290935091506145ea8383613e54565b925060808701519150808584030160c08601526146078383613e54565b925060a08701519150808584030160e0860152506146258282613e54565b91505060c085015161010084015282810360208401526142a681856144c5565b5f6101008083526146588184018c613e54565b6001600160a01b038b16602085015289151560408501528815156060850152871515608085015283810360a085015290506146938187613e54565b905082810360c08401526146a78186613e54565b905082810360e08401526146bb8185613e54565b9b9a5050505050505050505050565b602080825282516001600160a01b03168282015282015160a060408301525f906146f760c0840182613e54565b90506040840151601f19808584030160608601526147158383613e54565b92506060860151915080858403016080860152506147338282613e54565b915050608084015160a08401528091505092915050565b5f61010080835261475d8184018c613e54565b6001600160a01b038b811660208601528a166040850152838103606085015290506147888189613e54565b9050828103608084015261479c8188613e54565b905082810360a08401526146938187613e54565b600181811c908216806147c457607f821691505b6020821081036147e257634e487b7160e01b5f52602260045260245ffd5b50919050565b601f8211156105a9575f81815260208120601f850160051c8101602086101561480e5750805b601f850160051c820191505b8181101561482d5782815560010161481a565b505050505050565b815167ffffffffffffffff81111561484f5761484f613c82565b6148638161485d84546147b0565b846147e8565b602080601f831160018114614896575f841561487f5750858301515b5f19600386901b1c1916600185901b17855561482d565b5f85815260208120601f198616915b828110156148c4578886015182559484019460019091019084016148a5565b50858210156148e157878501515f19600388901b60f8161c191681555b5050505050600190811b01905550565b6020808252602a908201527f41636365737365626c65206f6e6c7920666f72204f776e65727320616e642053604082015269757065724f776e65727360b01b606082015260800190565b634e487b7160e01b5f52601160045260245ffd5b80820180821115611af157611af161493b565b81810381811115611af157611af161493b565b6020808252602f908201527f4b696e646c792066696c6c20616c6c20746865206d616e6461746f727920666560408201526e696c64732070726f7065726c79212160881b606082015260800190565b6020808252606c908201527f496e636f727265637420446f63746f7227732077616c6c65742061646472657360408201527f73206f722054686520446f63746f722064657461696c20666f7220746865206160608201527f6464726573732070726f7669646564206e6f7420617661696c61626c6520696e60808201526b2074686520636861696e212160a01b60a082015260c00190565b60208082526042908201527f4f6e6c792074686520446f63746f72732063616e2063616c6c2074686973206660408201527f756e6374696f6e2064756520746f20736563757269747920726561736f6e7321606082015261212160f01b608082015260a00190565b60208082526026908201527f4b696e646c792066696c6c20616c6c20746865206d616e6461746f7279206665604082015265696c6473212160d01b606082015260800190565b6020808252606c908201527f496e636f72726563742050617469656e742077616c6c6574206164647265737360408201527f206f72205468652050617469656e742064657461696c20666f7220746865206160608201527f6464726573732070726f7669646564206e6f7420617661696c61626c6520696e60808201526b2074686520636861696e212160a01b60a082015260c00190565b5f60018201614bb357614bb361493b565b5060010190565b5f82614bd457634e487b7160e01b5f52601260045260245ffd5b500490565b6020808252601e908201527f57616c6c657420416464726573732063616e6e6f7420626520656d7074790000604082015260600190565b60208082526078908201527f496e636f727265637420446f63746f722077616c6c657420616464726573732060408201527f6f722054686520446f63746f722064657461696c20666f72207468652061646460608201527f726573732070726f7669646564206973206e6f7420636f6d706c6574656c792060808201527f617661696c61626c6520696e2074686520636861696e2121000000000000000060a082015260c00190565b60208082526027908201527f596f752068617665206e6f2061636365737320746f206665746368207468652060408201526664657461696c7360c81b60608201526080019056fea26469706673582212207f1486841999cc5ca5a1a29d7216eee93225d77fc14d159ddc2b9bf3f454d59764736f6c63430008150033",
  "linkReferences": {},
  "deployedLinkReferences": {}
}