{
  "_format": "hh-sol-artifact-1",
  "contractName": "PatientDetails",
  "sourceName": "src/contracts/Patient.sol",
  "abi": [
    {
      "inputs": [],
      "stateMutability": "nonpayable",
      "type": "constructor"
    },
    {
      "inputs": [
        {
          "internalType": "address",
          "name": "_walletAddress",
          "type": "address"
        }
      ],
      "name": "AddAdminAccess",
      "outputs": [],
      "stateMutability": "nonpayable",
      "type": "function"
    },
    {
      "inputs": [
        {
          "internalType": "string",
          "name": "_name",
          "type": "string"
        },
        {
          "internalType": "address",
          "name": "_walletAddress",
          "type": "address"
        },
        {
          "internalType": "uint256",
          "name": "_dayOfBirth",
          "type": "uint256"
        },
        {
          "internalType": "uint256",
          "name": "_monthOfBirth",
          "type": "uint256"
        },
        {
          "internalType": "uint256",
          "name": "_yearOfBirth",
          "type": "uint256"
        },
        {
          "internalType": "uint256",
          "name": "_phoneNumber",
          "type": "uint256"
        },
        {
          "internalType": "string",
          "name": "_email",
          "type": "string"
        }
      ],
      "name": "AddDoctorPersonalInfo",
      "outputs": [],
      "stateMutability": "nonpayable",
      "type": "function"
    },
    {
      "inputs": [
        {
          "internalType": "address",
          "name": "_walletAddress",
          "type": "address"
        },
        {
          "internalType": "string",
          "name": "_MedicalLicenseNumber",
          "type": "string"
        },
        {
          "internalType": "string",
          "name": "_Specialization",
          "type": "string"
        },
        {
          "internalType": "string",
          "name": "_AvailableTimings",
          "type": "string"
        },
        {
          "internalType": "uint256",
          "name": "_ExperienceInYear",
          "type": "uint256"
        },
        {
          "internalType": "string",
          "name": "_MedicalSchoolAttended",
          "type": "string"
        },
        {
          "internalType": "bool",
          "name": "_isLicenseValid",
          "type": "bool"
        }
      ],
      "name": "AddDoctorProfessionalInfo",
      "outputs": [],
      "stateMutability": "nonpayable",
      "type": "function"
    },
    {
      "inputs": [
        {
          "internalType": "address",
          "name": "_walletAddress",
          "type": "address"
        },
        {
          "internalType": "bool",
          "name": "_isAlcoholic",
          "type": "bool"
        },
        {
          "internalType": "bool",
          "name": "_isSmoker",
          "type": "bool"
        },
        {
          "internalType": "bool",
          "name": "_isSmokelessTobaccoUser",
          "type": "bool"
        },
        {
          "internalType": "string",
          "name": "_surgicalHistory_ifAny",
          "type": "string"
        },
        {
          "internalType": "string",
          "name": "_physicalActivityLevel",
          "type": "string"
        },
        {
          "internalType": "string",
          "name": "_pastMedicationDetails_IfAny",
          "type": "string"
        }
      ],
      "name": "AddPatientsMedicalDetails",
      "outputs": [],
      "stateMutability": "nonpayable",
      "type": "function"
    },
    {
      "inputs": [
        {
          "internalType": "bool",
          "name": "_isAlive",
          "type": "bool"
        },
        {
          "internalType": "string",
          "name": "_name",
          "type": "string"
        },
        {
          "internalType": "address",
          "name": "_walletAddress",
          "type": "address"
        },
        {
          "internalType": "string",
          "name": "_gender",
          "type": "string"
        },
        {
          "internalType": "string",
          "name": "_Occupation",
          "type": "string"
        },
        {
          "internalType": "uint256",
          "name": "_dayOfBirth",
          "type": "uint256"
        },
        {
          "internalType": "uint256",
          "name": "_monthOfBirth",
          "type": "uint256"
        },
        {
          "internalType": "uint256",
          "name": "_yearOfBirth",
          "type": "uint256"
        },
        {
          "internalType": "bool",
          "name": "_isDoctor",
          "type": "bool"
        }
      ],
      "name": "AddPatientsPersonalDetails",
      "outputs": [],
      "stateMutability": "nonpayable",
      "type": "function"
    },
    {
      "inputs": [
        {
          "internalType": "uint256",
          "name": "",
          "type": "uint256"
        }
      ],
      "name": "AdminAccess",
      "outputs": [
        {
          "internalType": "address",
          "name": "",
          "type": "address"
        }
      ],
      "stateMutability": "view",
      "type": "function"
    },
    {
      "inputs": [
        {
          "internalType": "address",
          "name": "_walletAddress",
          "type": "address"
        }
      ],
      "name": "DeleteAdminAccess",
      "outputs": [],
      "stateMutability": "nonpayable",
      "type": "function"
    },
    {
      "inputs": [
        {
          "internalType": "address",
          "name": "",
          "type": "address"
        }
      ],
      "name": "DoctorsPersonalInfo",
      "outputs": [
        {
          "internalType": "string",
          "name": "name",
          "type": "string"
        },
        {
          "internalType": "address",
          "name": "walletAddress",
          "type": "address"
        },
        {
          "internalType": "uint256",
          "name": "dayOfBirth",
          "type": "uint256"
        },
        {
          "internalType": "uint256",
          "name": "monthOfBirth",
          "type": "uint256"
        },
        {
          "internalType": "uint256",
          "name": "yearOfBirth",
          "type": "uint256"
        },
        {
          "internalType": "uint256",
          "name": "age",
          "type": "uint256"
        },
        {
          "internalType": "uint256",
          "name": "phoneNumber",
          "type": "uint256"
        },
        {
          "internalType": "string",
          "name": "email",
          "type": "string"
        }
      ],
      "stateMutability": "view",
      "type": "function"
    },
    {
      "inputs": [
        {
          "internalType": "address",
          "name": "",
          "type": "address"
        }
      ],
      "name": "Doctors_ProfessionalDetails",
      "outputs": [
        {
          "internalType": "address",
          "name": "walletAddress",
          "type": "address"
        },
        {
          "internalType": "string",
          "name": "MedicalSchoolAttended",
          "type": "string"
        },
        {
          "internalType": "string",
          "name": "MedicalLicenseNumber",
          "type": "string"
        },
        {
          "internalType": "string",
          "name": "Specialization",
          "type": "string"
        },
        {
          "internalType": "string",
          "name": "AvailableTimings",
          "type": "string"
        },
        {
          "internalType": "uint256",
          "name": "ExperienceInYear",
          "type": "uint256"
        },
        {
          "internalType": "bool",
          "name": "isLicenseValid",
          "type": "bool"
        }
      ],
      "stateMutability": "view",
      "type": "function"
    },
    {
      "inputs": [
        {
          "internalType": "string",
          "name": "_name",
          "type": "string"
        },
        {
          "internalType": "address",
          "name": "_walletAddress",
          "type": "address"
        },
        {
          "internalType": "uint256",
          "name": "_dayOfBirth",
          "type": "uint256"
        },
        {
          "internalType": "uint256",
          "name": "_monthOfBirth",
          "type": "uint256"
        },
        {
          "internalType": "uint256",
          "name": "_yearOfBirth",
          "type": "uint256"
        },
        {
          "internalType": "uint256",
          "name": "_phoneNumber",
          "type": "uint256"
        },
        {
          "internalType": "string",
          "name": "_email",
          "type": "string"
        }
      ],
      "name": "EditDoctorPersonalDetails",
      "outputs": [],
      "stateMutability": "nonpayable",
      "type": "function"
    },
    {
      "inputs": [
        {
          "internalType": "address",
          "name": "_walletAddress",
          "type": "address"
        },
        {
          "internalType": "string",
          "name": "_MedicalLicenseNumber",
          "type": "string"
        },
        {
          "internalType": "string",
          "name": "_Specialization",
          "type": "string"
        },
        {
          "internalType": "string",
          "name": "_AvailableTimings",
          "type": "string"
        },
        {
          "internalType": "uint256",
          "name": "_ExperienceInYear",
          "type": "uint256"
        },
        {
          "internalType": "string",
          "name": "_MedicalSchoolAttended",
          "type": "string"
        },
        {
          "internalType": "bool",
          "name": "_isLicenseValid",
          "type": "bool"
        },
        {
          "internalType": "address[]",
          "name": "_treatedPatients",
          "type": "address[]"
        }
      ],
      "name": "EditDoctorProfessionalDetails",
      "outputs": [],
      "stateMutability": "nonpayable",
      "type": "function"
    },
    {
      "inputs": [
        {
          "internalType": "bool",
          "name": "_isAlive",
          "type": "bool"
        },
        {
          "internalType": "string",
          "name": "_name",
          "type": "string"
        },
        {
          "internalType": "address",
          "name": "_walletAddress",
          "type": "address"
        },
        {
          "internalType": "string",
          "name": "_gender",
          "type": "string"
        },
        {
          "internalType": "string",
          "name": "_Occupation",
          "type": "string"
        },
        {
          "internalType": "uint256",
          "name": "_dayOfBirth",
          "type": "uint256"
        },
        {
          "internalType": "uint256",
          "name": "_monthOfBirth",
          "type": "uint256"
        },
        {
          "internalType": "uint256",
          "name": "_yearOfBirth",
          "type": "uint256"
        },
        {
          "internalType": "bool",
          "name": "_isDoctor",
          "type": "bool"
        }
      ],
      "name": "EditPatientPersonalDetails",
      "outputs": [],
      "stateMutability": "nonpayable",
      "type": "function"
    },
    {
      "inputs": [
        {
          "internalType": "address",
          "name": "_walletAddress",
          "type": "address"
        },
        {
          "internalType": "bool",
          "name": "_isAlcoholic",
          "type": "bool"
        },
        {
          "internalType": "bool",
          "name": "_isSmoker",
          "type": "bool"
        },
        {
          "internalType": "bool",
          "name": "_isSmokelessTobaccoUser",
          "type": "bool"
        },
        {
          "internalType": "string",
          "name": "_surgicalHistory_ifAny",
          "type": "string"
        },
        {
          "internalType": "string",
          "name": "_physicalActivityLevel",
          "type": "string"
        },
        {
          "internalType": "string",
          "name": "_pastMedicationDetails_IfAny",
          "type": "string"
        }
      ],
      "name": "EditPatinetMedicalDetails",
      "outputs": [],
      "stateMutability": "nonpayable",
      "type": "function"
    },
    {
      "inputs": [
        {
          "internalType": "address",
          "name": "",
          "type": "address"
        },
        {
          "internalType": "uint256",
          "name": "",
          "type": "uint256"
        }
      ],
      "name": "HealthCondition",
      "outputs": [
        {
          "internalType": "address",
          "name": "walletAddress",
          "type": "address"
        },
        {
          "internalType": "address",
          "name": "physician",
          "type": "address"
        },
        {
          "internalType": "string",
          "name": "Department_uint",
          "type": "string"
        },
        {
          "internalType": "string",
          "name": "BloodPressure",
          "type": "string"
        },
        {
          "internalType": "string",
          "name": "HeartRate",
          "type": "string"
        },
        {
          "internalType": "string",
          "name": "RespiratoryRate",
          "type": "string"
        },
        {
          "internalType": "string",
          "name": "Dosage",
          "type": "string"
        }
      ],
      "stateMutability": "view",
      "type": "function"
    },
    {
      "inputs": [
        {
          "internalType": "address",
          "name": "",
          "type": "address"
        }
      ],
      "name": "OnlyOwner",
      "outputs": [
        {
          "internalType": "bool",
          "name": "",
          "type": "bool"
        }
      ],
      "stateMutability": "view",
      "type": "function"
    },
    {
      "inputs": [
        {
          "internalType": "string",
          "name": "dataURL",
          "type": "string"
        },
        {
          "internalType": "address",
          "name": "user",
          "type": "address"
        }
      ],
      "name": "PatientDataStorage",
      "outputs": [],
      "stateMutability": "nonpayable",
      "type": "function"
    },
    {
      "inputs": [
        {
          "internalType": "address",
          "name": "",
          "type": "address"
        }
      ],
      "name": "PatientsMedicalDetails",
      "outputs": [
        {
          "internalType": "address",
          "name": "walletAddress",
          "type": "address"
        },
        {
          "internalType": "bool",
          "name": "isAlcoholic",
          "type": "bool"
        },
        {
          "internalType": "bool",
          "name": "isSmoker",
          "type": "bool"
        },
        {
          "internalType": "bool",
          "name": "isSmokelessTobaccoUser",
          "type": "bool"
        },
        {
          "internalType": "string",
          "name": "surgicalHistory_ifAny",
          "type": "string"
        },
        {
          "internalType": "string",
          "name": "physicalActivityLevel",
          "type": "string"
        },
        {
          "internalType": "string",
          "name": "pastMedicationDetails_IfAny",
          "type": "string"
        }
      ],
      "stateMutability": "view",
      "type": "function"
    },
    {
      "inputs": [
        {
          "internalType": "address",
          "name": "",
          "type": "address"
        }
      ],
      "name": "PatientsPersonalDetails",
      "outputs": [
        {
          "internalType": "bool",
          "name": "isAlive",
          "type": "bool"
        },
        {
          "internalType": "string",
          "name": "name",
          "type": "string"
        },
        {
          "internalType": "address",
          "name": "walletAddress",
          "type": "address"
        },
        {
          "internalType": "string",
          "name": "gender",
          "type": "string"
        },
        {
          "internalType": "string",
          "name": "Occupation",
          "type": "string"
        },
        {
          "internalType": "uint256",
          "name": "dayOfBirth",
          "type": "uint256"
        },
        {
          "internalType": "uint256",
          "name": "monthOfBirth",
          "type": "uint256"
        },
        {
          "internalType": "uint256",
          "name": "yearOfBirth",
          "type": "uint256"
        },
        {
          "internalType": "uint256",
          "name": "age",
          "type": "uint256"
        },
        {
          "internalType": "bool",
          "name": "isDoctor",
          "type": "bool"
        }
      ],
      "stateMutability": "view",
      "type": "function"
    },
    {
      "inputs": [
        {
          "internalType": "address",
          "name": "_address",
          "type": "address"
        }
      ],
      "name": "addOwner",
      "outputs": [],
      "stateMutability": "nonpayable",
      "type": "function"
    },
    {
      "inputs": [
        {
          "internalType": "address",
          "name": "_walletAddress",
          "type": "address"
        },
        {
          "internalType": "address",
          "name": "_physician",
          "type": "address"
        },
        {
          "internalType": "string",
          "name": "_Department_uint",
          "type": "string"
        },
        {
          "internalType": "string",
          "name": "_BloodPressure",
          "type": "string"
        },
        {
          "internalType": "string",
          "name": "_HeartRate",
          "type": "string"
        },
        {
          "internalType": "string",
          "name": "_RespiratoryRate",
          "type": "string"
        },
        {
          "internalType": "string",
          "name": "_Dosage",
          "type": "string"
        }
      ],
      "name": "addPatientHealthDetails",
      "outputs": [],
      "stateMutability": "nonpayable",
      "type": "function"
    },
    {
      "inputs": [
        {
          "internalType": "uint256",
          "name": "_yearOfBirth",
          "type": "uint256"
        }
      ],
      "name": "getAge",
      "outputs": [
        {
          "internalType": "uint256",
          "name": "",
          "type": "uint256"
        }
      ],
      "stateMutability": "view",
      "type": "function"
    },
    {
      "inputs": [
        {
          "internalType": "address",
          "name": "_walletAddress",
          "type": "address"
        }
      ],
      "name": "getDoctor",
      "outputs": [
        {
          "components": [
            {
              "internalType": "string",
              "name": "name",
              "type": "string"
            },
            {
              "internalType": "address",
              "name": "walletAddress",
              "type": "address"
            },
            {
              "internalType": "uint256",
              "name": "dayOfBirth",
              "type": "uint256"
            },
            {
              "internalType": "uint256",
              "name": "monthOfBirth",
              "type": "uint256"
            },
            {
              "internalType": "uint256",
              "name": "yearOfBirth",
              "type": "uint256"
            },
            {
              "internalType": "uint256",
              "name": "age",
              "type": "uint256"
            },
            {
              "internalType": "uint256",
              "name": "phoneNumber",
              "type": "uint256"
            },
            {
              "internalType": "string",
              "name": "email",
              "type": "string"
            }
          ],
          "internalType": "struct DoctorDetails.DoctorPersonalInfo",
          "name": "",
          "type": "tuple"
        },
        {
          "components": [
            {
              "internalType": "address",
              "name": "walletAddress",
              "type": "address"
            },
            {
              "internalType": "string",
              "name": "MedicalSchoolAttended",
              "type": "string"
            },
            {
              "internalType": "string",
              "name": "MedicalLicenseNumber",
              "type": "string"
            },
            {
              "internalType": "string",
              "name": "Specialization",
              "type": "string"
            },
            {
              "internalType": "string",
              "name": "AvailableTimings",
              "type": "string"
            },
            {
              "internalType": "uint256",
              "name": "ExperienceInYear",
              "type": "uint256"
            },
            {
              "internalType": "address[]",
              "name": "treatedPatients",
              "type": "address[]"
            },
            {
              "internalType": "bool",
              "name": "isLicenseValid",
              "type": "bool"
            }
          ],
          "internalType": "struct DoctorDetails.DoctorProfessionalDetails",
          "name": "",
          "type": "tuple"
        }
      ],
      "stateMutability": "view",
      "type": "function"
    },
    {
      "inputs": [
        {
          "internalType": "address",
          "name": "_walletAddress",
          "type": "address"
        }
      ],
      "name": "getPatientDetails",
      "outputs": [
        {
          "components": [
            {
              "internalType": "bool",
              "name": "isAlive",
              "type": "bool"
            },
            {
              "internalType": "string",
              "name": "name",
              "type": "string"
            },
            {
              "internalType": "address",
              "name": "walletAddress",
              "type": "address"
            },
            {
              "internalType": "string",
              "name": "gender",
              "type": "string"
            },
            {
              "internalType": "string",
              "name": "Occupation",
              "type": "string"
            },
            {
              "internalType": "uint256",
              "name": "dayOfBirth",
              "type": "uint256"
            },
            {
              "internalType": "uint256",
              "name": "monthOfBirth",
              "type": "uint256"
            },
            {
              "internalType": "uint256",
              "name": "yearOfBirth",
              "type": "uint256"
            },
            {
              "internalType": "uint256",
              "name": "age",
              "type": "uint256"
            },
            {
              "internalType": "bool",
              "name": "isDoctor",
              "type": "bool"
            }
          ],
          "internalType": "struct PatientDetails.PatientPersonalDetails",
          "name": "",
          "type": "tuple"
        },
        {
          "components": [
            {
              "internalType": "address",
              "name": "walletAddress",
              "type": "address"
            },
            {
              "internalType": "bool",
              "name": "isAlcoholic",
              "type": "bool"
            },
            {
              "internalType": "bool",
              "name": "isSmoker",
              "type": "bool"
            },
            {
              "internalType": "bool",
              "name": "isSmokelessTobaccoUser",
              "type": "bool"
            },
            {
              "internalType": "string",
              "name": "surgicalHistory_ifAny",
              "type": "string"
            },
            {
              "internalType": "string",
              "name": "physicalActivityLevel",
              "type": "string"
            },
            {
              "internalType": "string",
              "name": "pastMedicationDetails_IfAny",
              "type": "string"
            }
          ],
          "internalType": "struct PatientDetails.PatientMedicalDetails",
          "name": "",
          "type": "tuple"
        }
      ],
      "stateMutability": "view",
      "type": "function"
    },
    {
      "inputs": [
        {
          "internalType": "address",
          "name": "_walletAddress",
          "type": "address"
        }
      ],
      "name": "getPatientHealthDetails",
      "outputs": [
        {
          "components": [
            {
              "internalType": "address",
              "name": "walletAddress",
              "type": "address"
            },
            {
              "internalType": "address",
              "name": "physician",
              "type": "address"
            },
            {
              "internalType": "string",
              "name": "Department_uint",
              "type": "string"
            },
            {
              "internalType": "string",
              "name": "BloodPressure",
              "type": "string"
            },
            {
              "internalType": "string",
              "name": "HeartRate",
              "type": "string"
            },
            {
              "internalType": "string",
              "name": "RespiratoryRate",
              "type": "string"
            },
            {
              "internalType": "string",
              "name": "Dosage",
              "type": "string"
            }
          ],
          "internalType": "struct PatientDetails.PatientHealthCondition[]",
          "name": "",
          "type": "tuple[]"
        }
      ],
      "stateMutability": "view",
      "type": "function"
    },
    {
      "inputs": [
        {
          "internalType": "uint256",
          "name": "timestamp",
          "type": "uint256"
        }
      ],
      "name": "getYear",
      "outputs": [
        {
          "internalType": "uint256",
          "name": "",
          "type": "uint256"
        }
      ],
      "stateMutability": "pure",
      "type": "function"
    },
    {
      "inputs": [],
      "name": "id",
      "outputs": [
        {
          "internalType": "uint256",
          "name": "",
          "type": "uint256"
        }
      ],
      "stateMutability": "view",
      "type": "function"
    },
    {
      "inputs": [
        {
          "internalType": "address",
          "name": "_address",
          "type": "address"
        }
      ],
      "name": "isDoctor",
      "outputs": [
        {
          "internalType": "bool",
          "name": "val",
          "type": "bool"
        }
      ],
      "stateMutability": "view",
      "type": "function"
    },
    {
      "inputs": [
        {
          "internalType": "address",
          "name": "",
          "type": "address"
        }
      ],
      "name": "owner",
      "outputs": [
        {
          "internalType": "bool",
          "name": "",
          "type": "bool"
        }
      ],
      "stateMutability": "view",
      "type": "function"
    },
    {
      "inputs": [
        {
          "internalType": "address",
          "name": "",
          "type": "address"
        },
        {
          "internalType": "uint256",
          "name": "",
          "type": "uint256"
        }
      ],
      "name": "patientsStoredData",
      "outputs": [
        {
          "internalType": "string",
          "name": "",
          "type": "string"
        }
      ],
      "stateMutability": "view",
      "type": "function"
    },
    {
      "inputs": [
        {
          "internalType": "address",
          "name": "_address",
          "type": "address"
        }
      ],
      "name": "removeOwner",
      "outputs": [],
      "stateMutability": "nonpayable",
      "type": "function"
    },
    {
      "inputs": [],
      "name": "superOwner",
      "outputs": [
        {
          "internalType": "address",
          "name": "",
          "type": "address"
        }
      ],
      "stateMutability": "view",
      "type": "function"
    },
    {
      "inputs": [],
      "name": "totalAdmin",
      "outputs": [
        {
          "internalType": "uint256",
          "name": "",
          "type": "uint256"
        }
      ],
      "stateMutability": "view",
      "type": "function"
    },
    {
      "inputs": [],
      "name": "totalDoctors",
      "outputs": [
        {
          "internalType": "uint256",
          "name": "",
          "type": "uint256"
        }
      ],
      "stateMutability": "view",
      "type": "function"
    },
    {
      "inputs": [],
      "name": "totalPatient",
      "outputs": [
        {
          "internalType": "uint256",
          "name": "",
          "type": "uint256"
        }
      ],
      "stateMutability": "view",
      "type": "function"
    }
  ],
  "bytecode": "0x60806040523480156200001157600080fd5b50336000818152602081905260409020805460ff1916600190811790915580546001600160a01b031916821790556200004a9062000055565b600160085562000228565b6001546001600160a01b03163314620000b55760405162461bcd60e51b815260206004820152601f60248201527f41636365737365626c65206f6e6c7920666f722053757065724f776e6572730060448201526064015b60405180910390fd5b336000908152602081905260409020805460ff191660011790556001600160a01b03811660009081526003602052604090205460ff16156200013a5760405162461bcd60e51b815260206004820181905260248201527f4164647265737320616c7265616479206861732061646d696e206163636573736044820152606401620000ac565b6001600160a01b038116620001845760405162461bcd60e51b815260206004820152600f60248201526e496e76616c6964204164647265737360881b6044820152606401620000ac565b6002805460018082019092557f405787fa12a823e0f2b7631cc41b3ba8828b3321ca811111fa75cd3aa3bb5ace0180546001600160a01b0319166001600160a01b0384169081179091556000908152600360205260408120805460ff19169092179091556007805491620001f88362000200565b919050555050565b6000600182016200022157634e487b7160e01b600052601160045260246000fd5b5060010190565b614e7d80620002386000396000f3fe608060405234801561001057600080fd5b50600436106102065760003560e01c80637f1955eb1161011a578063af640d0f116100ad578063cf646ede1161007c578063cf646ede146104cc578063e2463ac3146104df578063efe2ccc1146104f2578063f243cc6a14610513578063fe0c2a311461053957600080fd5b8063af640d0f1461046a578063b5f63ec514610473578063bbcaa63714610493578063c09f4025146104b957600080fd5b806392d66313116100e957806392d663131461041e578063996440c6146104315780639c68ff2314610444578063aa908bbe1461045757600080fd5b80637f1955eb146103c457806387dcd2b6146103d757806388b29e8b1461040257806392c2808f1461041557600080fd5b80635c3106e11161019d578063666e1b391161016c578063666e1b39146103345780636e2c0ffe146103575780637065cb481461037757806375c6a96c1461038a5780637d68abd1146103b157600080fd5b80635c3106e1146102fc5780636140f5aa1461030f57806364319e331461032257806365b44d7e1461032b57600080fd5b806318396cc8116101d957806318396cc81461028c5780631f650cc91461029f5780632f04e064146102c857806343935f3c146102e957600080fd5b8063013b58c81461020b5780630a86c02a146102205780630e37008a14610258578063173825d914610279575b600080fd5b61021e610219366004613d89565b61055f565b005b61024361022e366004613dd7565b60036020526000908152604090205460ff1681565b60405190151581526020015b60405180910390f35b61026b610266366004613df2565b610596565b60405190815260200161024f565b61021e610287366004613dd7565b61061b565b61021e61029a366004613ea2565b610666565b6102b26102ad366004613dd7565b61085b565b60405161024f9a99989796959493929190613fe5565b6102db6102d6366004613dd7565b610a57565b60405161024f929190614167565b61021e6102f7366004614206565b611117565b61021e61030a3660046142f9565b611552565b61021e61031d366004613dd7565b6116fc565b61026b60075481565b61026b60065481565b610243610342366004613dd7565b60006020819052908152604090205460ff1681565b61036a610365366004614364565b611846565b60405161024f919061438e565b61021e610385366004613dd7565b6118ff565b61039d610398366004613dd7565b61194d565b60405161024f9897969594939291906143a1565b61021e6103bf366004614404565b611ab0565b61021e6103d23660046144dc565b611cd4565b6001546103ea906001600160a01b031681565b6040516001600160a01b03909116815260200161024f565b61021e610410366004613dd7565b611fad565b61026b600d5481565b61026b61042c366004613df2565b61211c565b61024361043f366004613dd7565b612132565b61021e6104523660046145b4565b612160565b6103ea610465366004613df2565b6123c4565b61026b60085481565b610486610481366004613dd7565b6123ee565b60405161024f9190614633565b6104a66104a1366004613dd7565b6127e0565b60405161024f979695949392919061473b565b61021e6104c73660046142f9565b612a49565b61021e6104da366004614404565b612c5b565b61021e6104ed3660046145b4565b612f11565b610505610500366004613dd7565b6130cb565b60405161024f929190614833565b610526610521366004613dd7565b6137c9565b60405161024f9796959493929190614917565b61054c610547366004614364565b6139b4565b60405161024f9796959493929190614987565b6001600160a01b0381166000908152600c60209081526040822080546001810182559083529120016105918382614a6f565b505050565b6000806105a24261211c565b90506000836105b3836107b2614b45565b6105bd9190614b58565b9050600081116106145760405162461bcd60e51b815260206004820152601860248201527f456e74657220636f72726563742062697274682079656172000000000000000060448201526064015b60405180910390fd5b9392505050565b6001546001600160a01b031633146106455760405162461bcd60e51b815260040161060b90614b6b565b6001600160a01b03166000908152602081905260409020805460ff19169055565b6001546001600160a01b031633146106905760405162461bcd60e51b815260040161060b90614b6b565b6001600160a01b038816158015906106a9575060008351115b80156106b6575060008751115b80156106c3575060008651115b80156106d0575060008551115b6107145760405162461bcd60e51b8152602060048201526015602482015274656e74657220636f72726563742064657461696c7360581b604482015260640161060b565b6001600160a01b038089166000818152600560205260409020549091161461074e5760405162461bcd60e51b815260040161060b90614ba2565b60408051610100810182526001600160a01b038a811680835260208084018881528486018d9052606085018c9052608085018b905260a085018a905260c0850187905287151560e086015260009283526005909152939020825181546001600160a01b0319169216919091178155915190919060018201906107d09082614a6f565b50604082015160028201906107e59082614a6f565b50606082015160038201906107fa9082614a6f565b506080820151600482019061080f9082614a6f565b5060a0820151600582015560c08201518051610835916006840191602090910190613c41565b5060e091909101516007909101805460ff19169115159190911790555050505050505050565b6009602052600090815260409020805460018201805460ff9092169291610881906149ed565b80601f01602080910402602001604051908101604052809291908181526020018280546108ad906149ed565b80156108fa5780601f106108cf576101008083540402835291602001916108fa565b820191906000526020600020905b8154815290600101906020018083116108dd57829003601f168201915b505050600284015460038501805494956001600160a01b03909216949193509150610924906149ed565b80601f0160208091040260200160405190810160405280929190818152602001828054610950906149ed565b801561099d5780601f106109725761010080835404028352916020019161099d565b820191906000526020600020905b81548152906001019060200180831161098057829003601f168201915b5050505050908060040180546109b2906149ed565b80601f01602080910402602001604051908101604052809291908181526020018280546109de906149ed565b8015610a2b5780601f10610a0057610100808354040283529160200191610a2b565b820191906000526020600020905b815481529060010190602001808311610a0e57829003601f168201915b505050600584015460068501546007860154600887015460099097015495969295919450925060ff168a565b610aa86040518061010001604052806060815260200160006001600160a01b031681526020016000815260200160008152602001600081526020016000815260200160008152602001606081525090565b610afb60405180610100016040528060006001600160a01b031681526020016060815260200160608152602001606081526020016060815260200160008152602001606081526020016000151581525090565b6001546001600160a01b03163314610b255760405162461bcd60e51b815260040161060b90614b6b565b6001600160a01b038316610b7b5760405162461bcd60e51b815260206004820152601e60248201527f57616c6c657420416464726573732063616e6e6f7420626520656d7074790000604482015260640161060b565b6001600160a01b03808416600081815260046020526040902060010154909116148015610bc257506001600160a01b03808416600081815260056020526040902054909116145b610c805760405162461bcd60e51b815260206004820152607860248201527f496e636f727265637420446f63746f722077616c6c657420616464726573732060448201527f6f722054686520446f63746f722064657461696c20666f72207468652061646460648201527f726573732070726f7669646564206973206e6f7420636f6d706c6574656c792060848201527f617661696c61626c6520696e2074686520636861696e2121000000000000000060a482015260c40161060b565b6001600160a01b038316600090815260046020908152604080832060059092529182902082516101008101909352815491929091839082908290610cc3906149ed565b80601f0160208091040260200160405190810160405280929190818152602001828054610cef906149ed565b8015610d3c5780601f10610d1157610100808354040283529160200191610d3c565b820191906000526020600020905b815481529060010190602001808311610d1f57829003601f168201915b505050918352505060018201546001600160a01b03166020820152600282015460408201526003820154606082015260048201546080820152600582015460a0820152600682015460c082015260078201805460e090920191610d9e906149ed565b80601f0160208091040260200160405190810160405280929190818152602001828054610dca906149ed565b8015610e175780601f10610dec57610100808354040283529160200191610e17565b820191906000526020600020905b815481529060010190602001808311610dfa57829003601f168201915b50505091909252505060408051610100810190915283546001600160a01b031681526001840180549395509092849250602084019190610e56906149ed565b80601f0160208091040260200160405190810160405280929190818152602001828054610e82906149ed565b8015610ecf5780601f10610ea457610100808354040283529160200191610ecf565b820191906000526020600020905b815481529060010190602001808311610eb257829003601f168201915b50505050508152602001600282018054610ee8906149ed565b80601f0160208091040260200160405190810160405280929190818152602001828054610f14906149ed565b8015610f615780601f10610f3657610100808354040283529160200191610f61565b820191906000526020600020905b815481529060010190602001808311610f4457829003601f168201915b50505050508152602001600382018054610f7a906149ed565b80601f0160208091040260200160405190810160405280929190818152602001828054610fa6906149ed565b8015610ff35780601f10610fc857610100808354040283529160200191610ff3565b820191906000526020600020905b815481529060010190602001808311610fd657829003601f168201915b5050505050815260200160048201805461100c906149ed565b80601f0160208091040260200160405190810160405280929190818152602001828054611038906149ed565b80156110855780601f1061105a57610100808354040283529160200191611085565b820191906000526020600020905b81548152906001019060200180831161106857829003601f168201915b5050505050815260200160058201548152602001600682018054806020026020016040519081016040528092919081815260200182805480156110f157602002820191906000526020600020905b81546001600160a01b031681526001909101906020018083116110d3575b50505091835250506007919091015460ff16151560209091015291935090915050915091565b3360009081526003602052604081205460ff1615611133575060015b3360009081526003602052604090205460ff166111625760405162461bcd60e51b815260040161060b90614c3a565b6001600160a01b03881660009081526009602052604090205460ff1661120b5760405162461bcd60e51b815260206004820152605260248201527f57652072656772657420746f2073617920746861742c7468697320506174696560448201527f6e74206973206465616420616e642063616e6e6f7420616464204865616c74686064820152712064657461696c7320616e796d6f7265212160701b608482015260a40161060b565b6001600160a01b0380891660008181526009602052604090206002015490911614801561125257506001600160a01b038089166000818152600a6020526040902054909116145b6113365760405162461bcd60e51b815260206004820152609960248201527f496e636f72726563742050617469656e742077616c6c6574206164647265737360448201527f206f72205468652050617469656e742064657461696c2073706563696669632060648201527f746f20706572736f6e616c206f722070617374206d65646963616c206869737460848201527f6f7279206f662074686520616464726573732070726f7669646564206e6f742060a48201527f617661696c61626c6520696e2074686520636861696e2121200000000000000060c482015260e40161060b565b6001600160a01b0388811660009081526004602052604090206001015481169088161461140b5760405162461bcd60e51b815260206004820152607160248201527f496e636f72726563742050687973696369616e2077616c6c657420616464726560448201527f7373206f72205468652050687973696369616e2064657461696c20666f72207460648201527f686520616464726573732070726f7669646564206e6f7420617661696c61626c6084820152700329034b7103a34329031b430b4b710909607d1b60a482015260c40161060b565b6001600160a01b038089166000818152600b60209081526040808320815160e0810183529485528c86168584019081529185018c8152606086018c9052608086018b905260a086018a905260c0860189905281546001818101845592865293909420855160079094020180549387166001600160a01b031994851617815591519082018054919096169216919091179093555190919060028201906114b09082614a6f565b50606082015160038201906114c59082614a6f565b50608082015160048201906114da9082614a6f565b5060a082015160058201906114ef9082614a6f565b5060c082015160068201906115049082614a6f565b505050506001600160a01b0395861660009081526005602090815260408220600601805460018101825590835291200180546001600160a01b03191697909616969096179094555050505050565b3360009081526003602052604081205460ff161561156e575060015b3360009081526003602052604090205460ff1661159d5760405162461bcd60e51b815260040161060b90614c3a565b6001600160a01b0388166115c35760405162461bcd60e51b815260040161060b90614c98565b6001600160a01b03808916600081815260096020526040902060020154909116146116005760405162461bcd60e51b815260040161060b90614cde565b6040805160e0810182526001600160a01b03808b168083528a151560208085019182528b15158587019081528b151560608701908152608087018c815260a088018c905260c088018b90526000958652600a90935296909320855181549351945197511515600160b01b0260ff60b01b19981515600160a81b029890981661ffff60a81b19951515600160a01b026001600160a81b03199095169190961617929092179290921692909217939093178155915190919060018201906116c59082614a6f565b5060a082015160028201906116da9082614a6f565b5060c082015160038201906116ef9082614a6f565b5050505050505050505050565b6001546001600160a01b031633146117265760405162461bcd60e51b815260040161060b90614b6b565b336000908152602081905260409020805460ff191660011790556001600160a01b0381166117885760405162461bcd60e51b815260206004820152600f60248201526e496e76616c6964204164647265737360881b604482015260640161060b565b6001600160a01b03811660009081526003602052604090205460ff166118255760405162461bcd60e51b815260206004820152604660248201527f50726f76696465642061646472657373206d75737420626520616e2041646d6960448201527f6e4163636573734164647265737320746f2072656d6f76652041646d696e416360648201526563657373212160d01b608482015260a40161060b565b6001600160a01b03166000908152600360205260409020805460ff19169055565b600c602052816000526040600020818154811061186257600080fd5b9060005260206000200160009150915050805461187e906149ed565b80601f01602080910402602001604051908101604052809291908181526020018280546118aa906149ed565b80156118f75780601f106118cc576101008083540402835291602001916118f7565b820191906000526020600020905b8154815290600101906020018083116118da57829003601f168201915b505050505081565b6001546001600160a01b031633146119295760405162461bcd60e51b815260040161060b90614b6b565b6001600160a01b03166000908152602081905260409020805460ff19166001179055565b600460205260009081526040902080548190611968906149ed565b80601f0160208091040260200160405190810160405280929190818152602001828054611994906149ed565b80156119e15780601f106119b6576101008083540402835291602001916119e1565b820191906000526020600020905b8154815290600101906020018083116119c457829003601f168201915b5050505050908060010160009054906101000a90046001600160a01b031690806002015490806003015490806004015490806005015490806006015490806007018054611a2d906149ed565b80601f0160208091040260200160405190810160405280929190818152602001828054611a59906149ed565b8015611aa65780601f10611a7b57610100808354040283529160200191611aa6565b820191906000526020600020905b815481529060010190602001808311611a8957829003601f168201915b5050505050905088565b3360009081526003602052604081205460ff1615611acc575060015b3360009081526003602052604090205460ff16611afb5760405162461bcd60e51b815260040161060b90614c3a565b6001600160a01b03881615801590611b14575060008751115b8015611b21575060008651115b8015611b2c57508415155b8015611b3757508315155b8015611b4257508215155b611b5e5760405162461bcd60e51b815260040161060b90614c98565b6001600160a01b0380891660008181526009602052604090206002015490911614611b9b5760405162461bcd60e51b815260040161060b90614cde565b6000611ba684610596565b60408051610140810182528d1515815260208082018e81526001600160a01b038e16838501819052606084018e9052608084018d905260a084018c905260c084018b905260e084018a90526101008401869052881515610120850152600090815260099092529290208151815460ff19169015151781559151929350916001820190611c329082614a6f565b5060408201516002820180546001600160a01b0319166001600160a01b0390921691909117905560608201516003820190611c6d9082614a6f565b5060808201516004820190611c829082614a6f565b5060a0820151600582015560c0820151600682015560e082015160078201556101008201516008820155610120909101516009909101805460ff19169115159190911790555050505050505050505050565b6001546001600160a01b03163314611cfe5760405162461bcd60e51b815260040161060b90614b6b565b6001600160a01b0380881660008181526005602052604090205490911603611d7f5760405162461bcd60e51b815260206004820152602e60248201527f50687973696369616e2050726f66657373696f6e616c2064657461696c73206160448201526d6c7265616479206578697374212160901b606482015260840161060b565b6001600160a01b0380881660008181526005602052604090205490911614801590611dab575060008251115b8015611db8575060008651115b8015611dc5575060008551115b8015611dd2575060008451115b611e165760405162461bcd60e51b8152602060048201526015602482015274456e74657220436f72726563742064657461696c7360581b604482015260640161060b565b604051806101000160405280886001600160a01b03168152602001838152602001878152602001868152602001858152602001848152602001600067ffffffffffffffff811115611e6957611e69613cbb565b604051908082528060200260200182016040528015611e92578160200160208202803683370190505b5081528215156020918201526001600160a01b0389811660009081526005835260409020835181546001600160a01b0319169216919091178155908201516001820190611edf9082614a6f565b5060408201516002820190611ef49082614a6f565b5060608201516003820190611f099082614a6f565b5060808201516004820190611f1e9082614a6f565b5060a0820151600582015560c08201518051611f44916006840191602090910190613c41565b5060e091909101516007909101805460ff19169115159190911790556001600160a01b0387811660008181526004602052604090206001015490911603611fa457611f8e87611fad565b60068054906000611f9e83614d76565b91905055505b50505050505050565b6001546001600160a01b03163314611fd75760405162461bcd60e51b815260040161060b90614b6b565b336000908152602081905260409020805460ff191660011790556001600160a01b03811660009081526003602052604090205460ff161561205a5760405162461bcd60e51b815260206004820181905260248201527f4164647265737320616c7265616479206861732061646d696e20616363657373604482015260640161060b565b6001600160a01b0381166120a25760405162461bcd60e51b815260206004820152600f60248201526e496e76616c6964204164647265737360881b604482015260640161060b565b6002805460018082019092557f405787fa12a823e0f2b7631cc41b3ba8828b3321ca811111fa75cd3aa3bb5ace0180546001600160a01b0319166001600160a01b0384169081179091556000908152600360205260408120805460ff1916909217909155600780549161211483614d76565b919050555050565b600061212c6301e1338083614d8f565b92915050565b6001600160a01b03811660009081526003602052604081205460ff161561215b57506001919050565b919050565b6001546001600160a01b0316331461218a5760405162461bcd60e51b815260040161060b90614b6b565b6001600160a01b03808716600081815260046020526040902060010154909116036122095760405162461bcd60e51b815260206004820152602960248201527f50687973696369616e20706572736f6e616c2064657461696c20616c7265616460448201526879206578697374212160b81b606482015260840161060b565b6001600160a01b038616158015906122215750600085115b801561222e5750601f8511155b801561223a5750600084115b80156122475750600c8411155b80156122535750600083115b801561225f5750600082115b801561226c575060008151115b8015612279575060008751115b6122955760405162461bcd60e51b815260040161060b90614db1565b60006122a084610596565b60408051610100810182528a81526001600160a01b038a1660208083018290528284018b9052606083018a90526080830189905260a0830185905260c0830188905260e08301879052600091825260049052919091208151929350909181906123099082614a6f565b5060208201516001820180546001600160a01b0319166001600160a01b0390921691909117905560408201516002820155606082015160038201556080820151600482015560a0820151600582015560c0820151600682015560e082015160078201906123769082614a6f565b5050506001600160a01b03808816600081815260056020526040902054909116036123ba576123a487611fad565b600680549060006123b483614d76565b91905055505b5050505050505050565b600281815481106123d457600080fd5b6000918252602090912001546001600160a01b0316905081565b336000818152600960205260408120600201546060926001600160a01b0390911614806124315750336000818152600a60205260409020546001600160a01b0316145b8061244b57503360009081526003602052604090205460ff165b15612454575060015b806124715760405162461bcd60e51b815260040161060b90614e00565b6001600160a01b0383166000908152600b6020908152604080832080548251818502810185019093528083529193909284015b828210156127d35760008481526020908190206040805160e0810182526007860290920180546001600160a01b03908116845260018201541693830193909352600283018054929392918401916124fa906149ed565b80601f0160208091040260200160405190810160405280929190818152602001828054612526906149ed565b80156125735780601f1061254857610100808354040283529160200191612573565b820191906000526020600020905b81548152906001019060200180831161255657829003601f168201915b5050505050815260200160038201805461258c906149ed565b80601f01602080910402602001604051908101604052809291908181526020018280546125b8906149ed565b80156126055780601f106125da57610100808354040283529160200191612605565b820191906000526020600020905b8154815290600101906020018083116125e857829003601f168201915b5050505050815260200160048201805461261e906149ed565b80601f016020809104026020016040519081016040528092919081815260200182805461264a906149ed565b80156126975780601f1061266c57610100808354040283529160200191612697565b820191906000526020600020905b81548152906001019060200180831161267a57829003601f168201915b505050505081526020016005820180546126b0906149ed565b80601f01602080910402602001604051908101604052809291908181526020018280546126dc906149ed565b80156127295780601f106126fe57610100808354040283529160200191612729565b820191906000526020600020905b81548152906001019060200180831161270c57829003601f168201915b50505050508152602001600682018054612742906149ed565b80601f016020809104026020016040519081016040528092919081815260200182805461276e906149ed565b80156127bb5780601f10612790576101008083540402835291602001916127bb565b820191906000526020600020905b81548152906001019060200180831161279e57829003601f168201915b505050505081525050815260200190600101906124a4565b5050505091505b50919050565b600560205260009081526040902080546001820180546001600160a01b03909216929161280c906149ed565b80601f0160208091040260200160405190810160405280929190818152602001828054612838906149ed565b80156128855780601f1061285a57610100808354040283529160200191612885565b820191906000526020600020905b81548152906001019060200180831161286857829003601f168201915b50505050509080600201805461289a906149ed565b80601f01602080910402602001604051908101604052809291908181526020018280546128c6906149ed565b80156129135780601f106128e857610100808354040283529160200191612913565b820191906000526020600020905b8154815290600101906020018083116128f657829003601f168201915b505050505090806003018054612928906149ed565b80601f0160208091040260200160405190810160405280929190818152602001828054612954906149ed565b80156129a15780601f10612976576101008083540402835291602001916129a1565b820191906000526020600020905b81548152906001019060200180831161298457829003601f168201915b5050505050908060040180546129b6906149ed565b80601f01602080910402602001604051908101604052809291908181526020018280546129e2906149ed565b8015612a2f5780601f10612a0457610100808354040283529160200191612a2f565b820191906000526020600020905b815481529060010190602001808311612a1257829003601f168201915b50505050600583015460079093015491929160ff16905087565b3360009081526003602052604081205460ff1615612a65575060015b3360009081526003602052604090205460ff16612a945760405162461bcd60e51b815260040161060b90614c3a565b6001600160a01b038089166000818152600a602052604090205490911603612b0e5760405162461bcd60e51b815260206004820152602760248201527f50617469656e74206d65646963616c2064657461696c7320616c7265616479206044820152666578697374212160c81b606482015260840161060b565b6001600160a01b038816612b345760405162461bcd60e51b815260040161060b90614c98565b6040805160e0810182526001600160a01b03808b168083528a151560208085019182528b15158587019081528b151560608701908152608087018c815260a088018c905260c088018b90526000958652600a90935296909320855181549351945197511515600160b01b0260ff60b01b19981515600160a81b029890981661ffff60a81b19951515600160a01b026001600160a81b0319909516919096161792909217929092169290921793909317815591519091906001820190612bf99082614a6f565b5060a08201516002820190612c0e9082614a6f565b5060c08201516003820190612c239082614a6f565b5050506001600160a01b03808916600081815260096020526040902060020154909116036123ba57600d80549060006123b483614d76565b3360009081526003602052604081205460ff1615612c77575060015b3360009081526003602052604090205460ff16612ca65760405162461bcd60e51b815260040161060b90614c3a565b6001600160a01b0380891660008181526009602052604090206002015490911603612d265760405162461bcd60e51b815260206004820152602a60248201527f50617469656e74277320706572736f6e616c2064657461696c7320616c7265616044820152696479206578697374212160b01b606482015260840161060b565b6001600160a01b03881615801590612d3f575060008751115b8015612d4c575060008651115b8015612d5757508415155b8015612d635750601e85105b8015612d6e57508315155b8015612d7a5750600c84105b8015612d8557508215155b612da15760405162461bcd60e51b815260040161060b90614c98565b6000612dac84610596565b60408051610140810182528d1515815260208082018e81526001600160a01b038e16838501819052606084018e9052608084018d905260a084018c905260c084018b905260e084018a90526101008401869052881515610120850152600090815260099092529290208151815460ff19169015151781559151929350916001820190612e389082614a6f565b5060408201516002820180546001600160a01b0319166001600160a01b0390921691909117905560608201516003820190612e739082614a6f565b5060808201516004820190612e889082614a6f565b5060a0820151600582015560c0820151600682015560e082015160078201556101008201516008820155610120909101516009909101805460ff19169115159190911790556001600160a01b038981166000818152600a6020526040902054909116036116ef57600d8054906000612eff83614d76565b91905055505050505050505050505050565b6001546001600160a01b03163314612f3b5760405162461bcd60e51b815260040161060b90614b6b565b6001600160a01b03861615801590612f535750600085115b8015612f5f5750600084115b8015612f6b5750600083115b8015612f775750600082115b8015612f84575060008151115b8015612f91575060008751115b612fad5760405162461bcd60e51b815260040161060b90614db1565b6001600160a01b0380871660008181526004602052604090206001015490911614612fea5760405162461bcd60e51b815260040161060b90614ba2565b6000612ff584610596565b60408051610100810182528a81526001600160a01b038a1660208083018290528284018b9052606083018a90526080830189905260a0830185905260c0830188905260e083018790526000918252600490529190912081519293509091819061305e9082614a6f565b5060208201516001820180546001600160a01b0319166001600160a01b0390921691909117905560408201516002820155606082015160038201556080820151600482015560a0820151600582015560c0820151600682015560e082015160078201906116ef9082614a6f565b61312e6040518061014001604052806000151581526020016060815260200160006001600160a01b031681526020016060815260200160608152602001600081526020016000815260200160008152602001600081526020016000151581525090565b61317d6040518060e0016040528060006001600160a01b031681526020016000151581526020016000151581526020016000151581526020016060815260200160608152602001606081525090565b3360008181526009602052604081206002015490916001600160a01b0390911614806131bf5750336000818152600a60205260409020546001600160a01b0316145b806131d957503360009081526003602052604090205460ff165b156131e2575060015b806131ff5760405162461bcd60e51b815260040161060b90614e00565b6001600160a01b0384166132555760405162461bcd60e51b815260206004820152601e60248201527f57616c6c657420416464726573732063616e6e6f7420626520656d7074790000604482015260640161060b565b6001600160a01b0380851660008181526009602052604090206002015490911614801561329c57506001600160a01b038085166000818152600a6020526040902054909116145b61335a5760405162461bcd60e51b815260206004820152607960248201527f496e636f72726563742050617469656e742077616c6c6574206164647265737360448201527f206f72205468652050617469656e742064657461696c20666f7220746865206160648201527f6464726573732070726f7669646564206973206e6f7420636f6d706c65746c7960848201527f20617661696c61626c6520696e2074686520636861696e21210000000000000060a482015260c40161060b565b6001600160a01b0384166000908152600960209081526040808320600a83529281902081516101408101909252835460ff16151582526001840180549193859290840191906133a8906149ed565b80601f01602080910402602001604051908101604052809291908181526020018280546133d4906149ed565b80156134215780601f106133f657610100808354040283529160200191613421565b820191906000526020600020905b81548152906001019060200180831161340457829003601f168201915b505050918352505060028201546001600160a01b03166020820152600382018054604090920191613451906149ed565b80601f016020809104026020016040519081016040528092919081815260200182805461347d906149ed565b80156134ca5780601f1061349f576101008083540402835291602001916134ca565b820191906000526020600020905b8154815290600101906020018083116134ad57829003601f168201915b505050505081526020016004820180546134e3906149ed565b80601f016020809104026020016040519081016040528092919081815260200182805461350f906149ed565b801561355c5780601f106135315761010080835404028352916020019161355c565b820191906000526020600020905b81548152906001019060200180831161353f57829003601f168201915b5050509183525050600582015460208083019190915260068301546040808401919091526007840154606080850191909152600885015460808086019190915260099095015460ff908116151560a090950194909452815160e08101835287546001600160a01b0381168252600160a01b81048616151594820194909452600160a81b84048516151592810192909252600160b01b9092049092161515908201526001840180549395509092849284019190613617906149ed565b80601f0160208091040260200160405190810160405280929190818152602001828054613643906149ed565b80156136905780601f1061366557610100808354040283529160200191613690565b820191906000526020600020905b81548152906001019060200180831161367357829003601f168201915b505050505081526020016002820180546136a9906149ed565b80601f01602080910402602001604051908101604052809291908181526020018280546136d5906149ed565b80156137225780601f106136f757610100808354040283529160200191613722565b820191906000526020600020905b81548152906001019060200180831161370557829003601f168201915b5050505050815260200160038201805461373b906149ed565b80601f0160208091040260200160405190810160405280929190818152602001828054613767906149ed565b80156137b45780601f10613789576101008083540402835291602001916137b4565b820191906000526020600020905b81548152906001019060200180831161379757829003601f168201915b50505050508152505090509250925050915091565b600a60205260009081526040902080546001820180546001600160a01b0383169360ff600160a01b8504811694600160a81b8104821694600160b01b90910490911692613815906149ed565b80601f0160208091040260200160405190810160405280929190818152602001828054613841906149ed565b801561388e5780601f106138635761010080835404028352916020019161388e565b820191906000526020600020905b81548152906001019060200180831161387157829003601f168201915b5050505050908060020180546138a3906149ed565b80601f01602080910402602001604051908101604052809291908181526020018280546138cf906149ed565b801561391c5780601f106138f15761010080835404028352916020019161391c565b820191906000526020600020905b8154815290600101906020018083116138ff57829003601f168201915b505050505090806003018054613931906149ed565b80601f016020809104026020016040519081016040528092919081815260200182805461395d906149ed565b80156139aa5780601f1061397f576101008083540402835291602001916139aa565b820191906000526020600020905b81548152906001019060200180831161398d57829003601f168201915b5050505050905087565b600b60205281600052604060002081815481106139d057600080fd5b60009182526020909120600790910201805460018201546002830180546001600160a01b039384169650919092169350613a09906149ed565b80601f0160208091040260200160405190810160405280929190818152602001828054613a35906149ed565b8015613a825780601f10613a5757610100808354040283529160200191613a82565b820191906000526020600020905b815481529060010190602001808311613a6557829003601f168201915b505050505090806003018054613a97906149ed565b80601f0160208091040260200160405190810160405280929190818152602001828054613ac3906149ed565b8015613b105780601f10613ae557610100808354040283529160200191613b10565b820191906000526020600020905b815481529060010190602001808311613af357829003601f168201915b505050505090806004018054613b25906149ed565b80601f0160208091040260200160405190810160405280929190818152602001828054613b51906149ed565b8015613b9e5780601f10613b7357610100808354040283529160200191613b9e565b820191906000526020600020905b815481529060010190602001808311613b8157829003601f168201915b505050505090806005018054613bb3906149ed565b80601f0160208091040260200160405190810160405280929190818152602001828054613bdf906149ed565b8015613c2c5780601f10613c0157610100808354040283529160200191613c2c565b820191906000526020600020905b815481529060010190602001808311613c0f57829003601f168201915b505050505090806006018054613931906149ed565b828054828255906000526020600020908101928215613c96579160200282015b82811115613c9657825182546001600160a01b0319166001600160a01b03909116178255602090920191600190910190613c61565b50613ca2929150613ca6565b5090565b5b80821115613ca25760008155600101613ca7565b634e487b7160e01b600052604160045260246000fd5b604051601f8201601f1916810167ffffffffffffffff81118282101715613cfa57613cfa613cbb565b604052919050565b600082601f830112613d1357600080fd5b813567ffffffffffffffff811115613d2d57613d2d613cbb565b613d40601f8201601f1916602001613cd1565b818152846020838601011115613d5557600080fd5b816020850160208301376000918101602001919091529392505050565b80356001600160a01b038116811461215b57600080fd5b60008060408385031215613d9c57600080fd5b823567ffffffffffffffff811115613db357600080fd5b613dbf85828601613d02565b925050613dce60208401613d72565b90509250929050565b600060208284031215613de957600080fd5b61061482613d72565b600060208284031215613e0457600080fd5b5035919050565b8035801515811461215b57600080fd5b600082601f830112613e2c57600080fd5b8135602067ffffffffffffffff821115613e4857613e48613cbb565b8160051b613e57828201613cd1565b9283528481018201928281019087851115613e7157600080fd5b83870192505b84831015613e9757613e8883613d72565b82529183019190830190613e77565b979650505050505050565b600080600080600080600080610100898b031215613ebf57600080fd5b613ec889613d72565b9750602089013567ffffffffffffffff80821115613ee557600080fd5b613ef18c838d01613d02565b985060408b0135915080821115613f0757600080fd5b613f138c838d01613d02565b975060608b0135915080821115613f2957600080fd5b613f358c838d01613d02565b965060808b0135955060a08b0135915080821115613f5257600080fd5b613f5e8c838d01613d02565b9450613f6c60c08c01613e0b565b935060e08b0135915080821115613f8257600080fd5b50613f8f8b828c01613e1b565b9150509295985092959890939650565b6000815180845260005b81811015613fc557602081850181015186830182015201613fa9565b506000602082860101526020601f19601f83011685010191505092915050565b60006101408c151583528060208401526140018184018d613f9f565b6001600160a01b038c16604085015283810360608501529050614024818b613f9f565b90508281036080840152614038818a613f9f565b60a0840198909852505060c081019490945260e084019290925261010083015215156101209091015295945050505050565b600081518084526020808501945080840160005b838110156140a35781516001600160a01b03168752958201959082019060010161407e565b509495945050505050565b80516001600160a01b03168252600061010060208301518160208601526140d782860182613f9f565b915050604083015184820360408601526140f18282613f9f565b9150506060830151848203606086015261410b8282613f9f565b915050608083015184820360808601526141258282613f9f565b91505060a083015160a085015260c083015184820360c0860152614149828261406a565b91505060e083015161415f60e086018215159052565b509392505050565b6040815260008351610100806040850152614186610140850183613f9f565b915060018060a01b03602087015116606085015260408601516080850152606086015160a0850152608086015160c085015260a086015160e085015260c0860151818501525060e0850151603f19848303016101208501526141e88282613f9f565b91505082810360208401526141fd81856140ae565b95945050505050565b600080600080600080600060e0888a03121561422157600080fd5b61422a88613d72565b965061423860208901613d72565b9550604088013567ffffffffffffffff8082111561425557600080fd5b6142618b838c01613d02565b965060608a013591508082111561427757600080fd5b6142838b838c01613d02565b955060808a013591508082111561429957600080fd5b6142a58b838c01613d02565b945060a08a01359150808211156142bb57600080fd5b6142c78b838c01613d02565b935060c08a01359150808211156142dd57600080fd5b506142ea8a828b01613d02565b91505092959891949750929550565b600080600080600080600060e0888a03121561431457600080fd5b61431d88613d72565b965061432b60208901613e0b565b955061433960408901613e0b565b945061434760608901613e0b565b9350608088013567ffffffffffffffff8082111561429957600080fd5b6000806040838503121561437757600080fd5b61438083613d72565b946020939093013593505050565b6020815260006106146020830184613f9f565b60006101008083526143b58184018c613f9f565b905060018060a01b038a1660208401528860408401528760608401528660808401528560a08401528460c084015282810360e08401526143f58185613f9f565b9b9a5050505050505050505050565b60008060008060008060008060006101208a8c03121561442357600080fd5b61442c8a613e0b565b985060208a013567ffffffffffffffff8082111561444957600080fd5b6144558d838e01613d02565b995061446360408d01613d72565b985060608c013591508082111561447957600080fd5b6144858d838e01613d02565b975060808c013591508082111561449b57600080fd5b506144a88c828d01613d02565b95505060a08a0135935060c08a0135925060e08a013591506144cd6101008b01613e0b565b90509295985092959850929598565b600080600080600080600060e0888a0312156144f757600080fd5b61450088613d72565b9650602088013567ffffffffffffffff8082111561451d57600080fd5b6145298b838c01613d02565b975060408a013591508082111561453f57600080fd5b61454b8b838c01613d02565b965060608a013591508082111561456157600080fd5b61456d8b838c01613d02565b955060808a0135945060a08a013591508082111561458a57600080fd5b506145978a828b01613d02565b9250506145a660c08901613e0b565b905092959891949750929550565b600080600080600080600060e0888a0312156145cf57600080fd5b873567ffffffffffffffff808211156145e757600080fd5b6145f38b838c01613d02565b985061460160208b01613d72565b975060408a0135965060608a0135955060808a0135945060a08a0135935060c08a01359150808211156142dd57600080fd5b60006020808301818452808551808352604092508286019150828160051b87010184880160005b8381101561472d57888303603f19018552815180516001600160a01b031684528781015160e0906146958a8701826001600160a01b03169052565b508782015181898701526146ab82870182613f9f565b915050606080830151868303828801526146c58382613f9f565b92505050608080830151868303828801526146e08382613f9f565b9250505060a080830151868303828801526146fb8382613f9f565b9250505060c080830151925085820381870152506147198183613f9f565b96890196945050509086019060010161465a565b509098975050505050505050565b6001600160a01b038816815260e06020820181905260009061475f90830189613f9f565b82810360408401526147718189613f9f565b905082810360608401526147858188613f9f565b905082810360808401526147998187613f9f565b60a0840195909552505090151560c09091015295945050505050565b60018060a01b0381511682526020810151151560208301526040810151151560408301526060810151151560608301526000608082015160e0608085015261480060e0850182613f9f565b905060a083015184820360a08601526148198282613f9f565b91505060c083015184820360c08601526141fd8282613f9f565b6040815261484660408201845115159052565b60006020840151610140806060850152614864610180850183613f9f565b9150604086015161488060808601826001600160a01b03169052565b506060860151603f19808685030160a087015261489d8483613f9f565b935060808801519150808685030160c0870152506148bb8382613f9f565b92505060a086015160e085015260c0860151610100818187015260e088015191506101208281880152818901518488015280890151935050505061490461016085018215159052565b5082810360208401526141fd81856147b5565b6001600160a01b038816815286151560208201528515156040820152841515606082015260e06080820181905260009061495390830186613f9f565b82810360a08401526149658186613f9f565b905082810360c08401526149798185613f9f565b9a9950505050505050505050565b6001600160a01b0388811682528716602082015260e0604082018190526000906149b390830188613f9f565b82810360608401526149c58188613f9f565b905082810360808401526149d98187613f9f565b905082810360a08401526149658186613f9f565b600181811c90821680614a0157607f821691505b6020821081036127da57634e487b7160e01b600052602260045260246000fd5b601f82111561059157600081815260208120601f850160051c81016020861015614a485750805b601f850160051c820191505b81811015614a6757828155600101614a54565b505050505050565b815167ffffffffffffffff811115614a8957614a89613cbb565b614a9d81614a9784546149ed565b84614a21565b602080601f831160018114614ad25760008415614aba5750858301515b600019600386901b1c1916600185901b178555614a67565b600085815260208120601f198616915b82811015614b0157888601518255948401946001909101908401614ae2565b5085821015614b1f5787850151600019600388901b60f8161c191681555b5050505050600190811b01905550565b634e487b7160e01b600052601160045260246000fd5b8082018082111561212c5761212c614b2f565b8181038181111561212c5761212c614b2f565b6020808252601f908201527f41636365737365626c65206f6e6c7920666f722053757065724f776e65727300604082015260600190565b6020808252606c908201527f496e636f727265637420446f63746f7227732077616c6c65742061646472657360408201527f73206f722054686520446f63746f722064657461696c20666f7220746865206160608201527f6464726573732070726f7669646564206e6f7420617661696c61626c6520696e60808201526b2074686520636861696e212160a01b60a082015260c00190565b602080825260409082018190527f4f6e6c79207468652041646d696e2063616e2063616c6c20746869732066756e908201527f6374696f6e2064756520746f20736563757269747920726561736f6e73212121606082015260800190565b60208082526026908201527f4b696e646c792066696c6c20616c6c20746865206d616e6461746f7279206665604082015265696c6473212160d01b606082015260800190565b6020808252606c908201527f496e636f72726563742050617469656e742077616c6c6574206164647265737360408201527f206f72205468652050617469656e742064657461696c20666f7220746865206160608201527f6464726573732070726f7669646564206e6f7420617661696c61626c6520696e60808201526b2074686520636861696e212160a01b60a082015260c00190565b600060018201614d8857614d88614b2f565b5060010190565b600082614dac57634e487b7160e01b600052601260045260246000fd5b500490565b6020808252602f908201527f4b696e646c792066696c6c20616c6c20746865206d616e6461746f727920666560408201526e696c64732070726f7065726c79212160881b606082015260800190565b60208082526027908201527f596f752068617665206e6f2061636365737320746f206665746368207468652060408201526664657461696c7360c81b60608201526080019056fea264697066735822122007ba085b675c9ee2c94101187ad4409f960e922e9958131841d6cad0a6398acc64736f6c63430008150033",
  "linkReferences": {},
  "deployedLinkReferences": {}
}