{
  "_format": "hh-sol-artifact-1",
  "contractName": "PatientDetails",
  "sourceName": "src/contracts/Patient.sol",
  "abi": [
    {
      "inputs": [],
      "stateMutability": "nonpayable",
      "type": "constructor"
    },
    {
      "inputs": [
        {
          "internalType": "address",
          "name": "_walletAddress",
          "type": "address"
        }
      ],
      "name": "AddDoctorAccess",
      "outputs": [],
      "stateMutability": "nonpayable",
      "type": "function"
    },
    {
      "inputs": [
        {
          "internalType": "string",
          "name": "_name",
          "type": "string"
        },
        {
          "internalType": "address",
          "name": "_walletAddress",
          "type": "address"
        },
        {
          "internalType": "string",
          "name": "_dateOfBirth",
          "type": "string"
        },
        {
          "internalType": "uint256",
          "name": "_age",
          "type": "uint256"
        },
        {
          "internalType": "uint256",
          "name": "_phoneNumber",
          "type": "uint256"
        },
        {
          "internalType": "string",
          "name": "_email",
          "type": "string"
        }
      ],
      "name": "AddDoctorPersonalInfo",
      "outputs": [],
      "stateMutability": "nonpayable",
      "type": "function"
    },
    {
      "inputs": [
        {
          "internalType": "address",
          "name": "_walletAddress",
          "type": "address"
        },
        {
          "internalType": "string",
          "name": "_MedicalLicenseNumber",
          "type": "string"
        },
        {
          "internalType": "string",
          "name": "_Specialization",
          "type": "string"
        },
        {
          "internalType": "uint256",
          "name": "_ExperienceInYear",
          "type": "uint256"
        },
        {
          "internalType": "string",
          "name": "_MedicalSchoolAttended",
          "type": "string"
        }
      ],
      "name": "AddDoctorProfessionalInfo",
      "outputs": [],
      "stateMutability": "nonpayable",
      "type": "function"
    },
    {
      "inputs": [
        {
          "internalType": "string",
          "name": "_date",
          "type": "string"
        },
        {
          "internalType": "address",
          "name": "_walletAddress",
          "type": "address"
        },
        {
          "internalType": "bool",
          "name": "_isAlcoholic",
          "type": "bool"
        },
        {
          "internalType": "bool",
          "name": "_isSmoker",
          "type": "bool"
        },
        {
          "internalType": "bool",
          "name": "_isSmokelessTobaccoUser",
          "type": "bool"
        },
        {
          "internalType": "string",
          "name": "_surgicalHistory_ifAny",
          "type": "string"
        },
        {
          "internalType": "string",
          "name": "_physicalActivityLevel",
          "type": "string"
        },
        {
          "internalType": "string",
          "name": "_pastMedicationDetails_IfAny",
          "type": "string"
        }
      ],
      "name": "AddPatientsMedicalDetails",
      "outputs": [],
      "stateMutability": "nonpayable",
      "type": "function"
    },
    {
      "inputs": [
        {
          "internalType": "string",
          "name": "date",
          "type": "string"
        },
        {
          "internalType": "string",
          "name": "_name",
          "type": "string"
        },
        {
          "internalType": "address",
          "name": "_walletAddress",
          "type": "address"
        },
        {
          "internalType": "string",
          "name": "_gender",
          "type": "string"
        },
        {
          "internalType": "string",
          "name": "_Occupation",
          "type": "string"
        },
        {
          "internalType": "string",
          "name": "_dateOfBirth",
          "type": "string"
        },
        {
          "internalType": "uint256",
          "name": "_age",
          "type": "uint256"
        },
        {
          "internalType": "uint256",
          "name": "number",
          "type": "uint256"
        }
      ],
      "name": "AddPatientsPersonalDetails",
      "outputs": [],
      "stateMutability": "nonpayable",
      "type": "function"
    },
    {
      "inputs": [
        {
          "internalType": "address",
          "name": "_walletAddress",
          "type": "address"
        }
      ],
      "name": "DeleteDoctorAccess",
      "outputs": [],
      "stateMutability": "nonpayable",
      "type": "function"
    },
    {
      "inputs": [
        {
          "internalType": "address",
          "name": "",
          "type": "address"
        }
      ],
      "name": "DoctorAccess",
      "outputs": [
        {
          "internalType": "bool",
          "name": "",
          "type": "bool"
        }
      ],
      "stateMutability": "view",
      "type": "function"
    },
    {
      "inputs": [
        {
          "internalType": "address",
          "name": "",
          "type": "address"
        }
      ],
      "name": "DoctorsPersonalInfo",
      "outputs": [
        {
          "internalType": "string",
          "name": "name",
          "type": "string"
        },
        {
          "internalType": "address",
          "name": "walletAddress",
          "type": "address"
        },
        {
          "internalType": "string",
          "name": "dateOfBirth",
          "type": "string"
        },
        {
          "internalType": "uint256",
          "name": "age",
          "type": "uint256"
        },
        {
          "internalType": "uint256",
          "name": "phoneNumber",
          "type": "uint256"
        },
        {
          "internalType": "string",
          "name": "email",
          "type": "string"
        }
      ],
      "stateMutability": "view",
      "type": "function"
    },
    {
      "inputs": [
        {
          "internalType": "address",
          "name": "",
          "type": "address"
        }
      ],
      "name": "Doctors_ProfessionalDetails",
      "outputs": [
        {
          "internalType": "address",
          "name": "walletAddress",
          "type": "address"
        },
        {
          "internalType": "string",
          "name": "MedicalSchoolAttended",
          "type": "string"
        },
        {
          "internalType": "string",
          "name": "MedicalLicenseNumber",
          "type": "string"
        },
        {
          "internalType": "string",
          "name": "Specialization",
          "type": "string"
        },
        {
          "internalType": "uint256",
          "name": "ExperienceInYear",
          "type": "uint256"
        }
      ],
      "stateMutability": "view",
      "type": "function"
    },
    {
      "inputs": [
        {
          "internalType": "string",
          "name": "_name",
          "type": "string"
        },
        {
          "internalType": "address",
          "name": "_walletAddress",
          "type": "address"
        },
        {
          "internalType": "string",
          "name": "_dateOfBirth",
          "type": "string"
        },
        {
          "internalType": "uint256",
          "name": "_age",
          "type": "uint256"
        },
        {
          "internalType": "uint256",
          "name": "_phoneNumber",
          "type": "uint256"
        },
        {
          "internalType": "string",
          "name": "_email",
          "type": "string"
        }
      ],
      "name": "EditDoctorPersonalDetails",
      "outputs": [],
      "stateMutability": "nonpayable",
      "type": "function"
    },
    {
      "inputs": [
        {
          "internalType": "address",
          "name": "_walletAddress",
          "type": "address"
        },
        {
          "internalType": "string",
          "name": "_MedicalLicenseNumber",
          "type": "string"
        },
        {
          "internalType": "string",
          "name": "_Specialization",
          "type": "string"
        },
        {
          "internalType": "uint256",
          "name": "_ExperienceInYear",
          "type": "uint256"
        },
        {
          "internalType": "string",
          "name": "_MedicalSchoolAttended",
          "type": "string"
        }
      ],
      "name": "EditDoctorProfessionalDetails",
      "outputs": [],
      "stateMutability": "nonpayable",
      "type": "function"
    },
    {
      "inputs": [
        {
          "internalType": "string",
          "name": "_date",
          "type": "string"
        },
        {
          "internalType": "string",
          "name": "_name",
          "type": "string"
        },
        {
          "internalType": "address",
          "name": "_walletAddress",
          "type": "address"
        },
        {
          "internalType": "string",
          "name": "_gender",
          "type": "string"
        },
        {
          "internalType": "string",
          "name": "_Occupation",
          "type": "string"
        },
        {
          "internalType": "string",
          "name": "_dateOfBirth",
          "type": "string"
        },
        {
          "internalType": "uint256",
          "name": "_age",
          "type": "uint256"
        },
        {
          "internalType": "uint256",
          "name": "number",
          "type": "uint256"
        }
      ],
      "name": "EditPatientPersonalDetails",
      "outputs": [],
      "stateMutability": "nonpayable",
      "type": "function"
    },
    {
      "inputs": [
        {
          "internalType": "string",
          "name": "_date",
          "type": "string"
        },
        {
          "internalType": "address",
          "name": "_walletAddress",
          "type": "address"
        },
        {
          "internalType": "bool",
          "name": "_isAlcoholic",
          "type": "bool"
        },
        {
          "internalType": "bool",
          "name": "_isSmoker",
          "type": "bool"
        },
        {
          "internalType": "bool",
          "name": "_isSmokelessTobaccoUser",
          "type": "bool"
        },
        {
          "internalType": "string",
          "name": "_surgicalHistory_ifAny",
          "type": "string"
        },
        {
          "internalType": "string",
          "name": "_physicalActivityLevel",
          "type": "string"
        },
        {
          "internalType": "string",
          "name": "_pastMedicationDetails_IfAny",
          "type": "string"
        }
      ],
      "name": "EditPatinetMedicalDetails",
      "outputs": [],
      "stateMutability": "nonpayable",
      "type": "function"
    },
    {
      "inputs": [
        {
          "internalType": "address",
          "name": "",
          "type": "address"
        },
        {
          "internalType": "uint256",
          "name": "",
          "type": "uint256"
        }
      ],
      "name": "HealthCondition",
      "outputs": [
        {
          "internalType": "string",
          "name": "date",
          "type": "string"
        },
        {
          "internalType": "address",
          "name": "walletAddress",
          "type": "address"
        },
        {
          "internalType": "address",
          "name": "physician",
          "type": "address"
        },
        {
          "internalType": "string",
          "name": "Department_uint",
          "type": "string"
        },
        {
          "internalType": "string",
          "name": "BloodPressure",
          "type": "string"
        },
        {
          "internalType": "string",
          "name": "HeartRate",
          "type": "string"
        },
        {
          "internalType": "string",
          "name": "RespiratoryRate",
          "type": "string"
        },
        {
          "internalType": "string",
          "name": "Dosage",
          "type": "string"
        }
      ],
      "stateMutability": "view",
      "type": "function"
    },
    {
      "inputs": [
        {
          "internalType": "address",
          "name": "",
          "type": "address"
        }
      ],
      "name": "PatientsMedicalDetails",
      "outputs": [
        {
          "internalType": "string",
          "name": "date",
          "type": "string"
        },
        {
          "internalType": "address",
          "name": "walletAddress",
          "type": "address"
        },
        {
          "internalType": "bool",
          "name": "isAlcoholic",
          "type": "bool"
        },
        {
          "internalType": "bool",
          "name": "isSmoker",
          "type": "bool"
        },
        {
          "internalType": "bool",
          "name": "isSmokelessTobaccoUser",
          "type": "bool"
        },
        {
          "internalType": "string",
          "name": "surgicalHistory_ifAny",
          "type": "string"
        },
        {
          "internalType": "string",
          "name": "physicalActivityLevel",
          "type": "string"
        },
        {
          "internalType": "string",
          "name": "pastMedicationDetails_IfAny",
          "type": "string"
        }
      ],
      "stateMutability": "view",
      "type": "function"
    },
    {
      "inputs": [
        {
          "internalType": "address",
          "name": "",
          "type": "address"
        }
      ],
      "name": "PatientsPersonalDetails",
      "outputs": [
        {
          "internalType": "string",
          "name": "date",
          "type": "string"
        },
        {
          "internalType": "string",
          "name": "name",
          "type": "string"
        },
        {
          "internalType": "address",
          "name": "walletAddress",
          "type": "address"
        },
        {
          "internalType": "string",
          "name": "gender",
          "type": "string"
        },
        {
          "internalType": "string",
          "name": "Occupation",
          "type": "string"
        },
        {
          "internalType": "string",
          "name": "dateOfBirth",
          "type": "string"
        },
        {
          "internalType": "uint256",
          "name": "age",
          "type": "uint256"
        },
        {
          "internalType": "uint256",
          "name": "phoneNumber",
          "type": "uint256"
        }
      ],
      "stateMutability": "view",
      "type": "function"
    },
    {
      "inputs": [
        {
          "internalType": "string",
          "name": "_dataURL",
          "type": "string"
        },
        {
          "internalType": "address",
          "name": "user",
          "type": "address"
        }
      ],
      "name": "StorePatientData",
      "outputs": [],
      "stateMutability": "nonpayable",
      "type": "function"
    },
    {
      "inputs": [
        {
          "internalType": "address",
          "name": "_address",
          "type": "address"
        }
      ],
      "name": "addOwner",
      "outputs": [],
      "stateMutability": "nonpayable",
      "type": "function"
    },
    {
      "inputs": [
        {
          "internalType": "string",
          "name": "_date",
          "type": "string"
        },
        {
          "internalType": "address",
          "name": "_walletAddress",
          "type": "address"
        },
        {
          "internalType": "address",
          "name": "_physician",
          "type": "address"
        },
        {
          "internalType": "string",
          "name": "_Department_uint",
          "type": "string"
        },
        {
          "internalType": "string",
          "name": "_BloodPressure",
          "type": "string"
        },
        {
          "internalType": "string",
          "name": "_HeartRate",
          "type": "string"
        },
        {
          "internalType": "string",
          "name": "_RespiratoryRate",
          "type": "string"
        },
        {
          "internalType": "string",
          "name": "_Dosage",
          "type": "string"
        }
      ],
      "name": "addPatientHealthDetails",
      "outputs": [],
      "stateMutability": "nonpayable",
      "type": "function"
    },
    {
      "inputs": [
        {
          "internalType": "uint256",
          "name": "_yearOfBirth",
          "type": "uint256"
        }
      ],
      "name": "getAge",
      "outputs": [
        {
          "internalType": "uint256",
          "name": "",
          "type": "uint256"
        }
      ],
      "stateMutability": "view",
      "type": "function"
    },
    {
      "inputs": [
        {
          "internalType": "address",
          "name": "_walletAddress",
          "type": "address"
        }
      ],
      "name": "getDoctorPersonalDetails",
      "outputs": [
        {
          "components": [
            {
              "internalType": "string",
              "name": "name",
              "type": "string"
            },
            {
              "internalType": "address",
              "name": "walletAddress",
              "type": "address"
            },
            {
              "internalType": "string",
              "name": "dateOfBirth",
              "type": "string"
            },
            {
              "internalType": "uint256",
              "name": "age",
              "type": "uint256"
            },
            {
              "internalType": "uint256",
              "name": "phoneNumber",
              "type": "uint256"
            },
            {
              "internalType": "string",
              "name": "email",
              "type": "string"
            }
          ],
          "internalType": "struct PatientDetails.DoctorPersonalInfo",
          "name": "",
          "type": "tuple"
        }
      ],
      "stateMutability": "view",
      "type": "function"
    },
    {
      "inputs": [
        {
          "internalType": "address",
          "name": "_walletAddress",
          "type": "address"
        }
      ],
      "name": "getDoctorProfessionalDetails",
      "outputs": [
        {
          "components": [
            {
              "internalType": "address",
              "name": "walletAddress",
              "type": "address"
            },
            {
              "internalType": "string",
              "name": "MedicalSchoolAttended",
              "type": "string"
            },
            {
              "internalType": "string",
              "name": "MedicalLicenseNumber",
              "type": "string"
            },
            {
              "internalType": "string",
              "name": "Specialization",
              "type": "string"
            },
            {
              "internalType": "uint256",
              "name": "ExperienceInYear",
              "type": "uint256"
            }
          ],
          "internalType": "struct PatientDetails.DoctorProfessionalDetails",
          "name": "",
          "type": "tuple"
        }
      ],
      "stateMutability": "view",
      "type": "function"
    },
    {
      "inputs": [
        {
          "internalType": "address",
          "name": "_walletAddress",
          "type": "address"
        }
      ],
      "name": "getPatientDetails",
      "outputs": [
        {
          "components": [
            {
              "internalType": "string",
              "name": "date",
              "type": "string"
            },
            {
              "internalType": "string",
              "name": "name",
              "type": "string"
            },
            {
              "internalType": "address",
              "name": "walletAddress",
              "type": "address"
            },
            {
              "internalType": "string",
              "name": "gender",
              "type": "string"
            },
            {
              "internalType": "string",
              "name": "Occupation",
              "type": "string"
            },
            {
              "internalType": "string",
              "name": "dateOfBirth",
              "type": "string"
            },
            {
              "internalType": "uint256",
              "name": "age",
              "type": "uint256"
            },
            {
              "internalType": "uint256",
              "name": "phoneNumber",
              "type": "uint256"
            }
          ],
          "internalType": "struct PatientDetails.PatientPersonalDetails",
          "name": "",
          "type": "tuple"
        },
        {
          "components": [
            {
              "internalType": "string",
              "name": "date",
              "type": "string"
            },
            {
              "internalType": "address",
              "name": "walletAddress",
              "type": "address"
            },
            {
              "internalType": "bool",
              "name": "isAlcoholic",
              "type": "bool"
            },
            {
              "internalType": "bool",
              "name": "isSmoker",
              "type": "bool"
            },
            {
              "internalType": "bool",
              "name": "isSmokelessTobaccoUser",
              "type": "bool"
            },
            {
              "internalType": "string",
              "name": "surgicalHistory_ifAny",
              "type": "string"
            },
            {
              "internalType": "string",
              "name": "physicalActivityLevel",
              "type": "string"
            },
            {
              "internalType": "string",
              "name": "pastMedicationDetails_IfAny",
              "type": "string"
            }
          ],
          "internalType": "struct PatientDetails.PatientMedicalDetails",
          "name": "",
          "type": "tuple"
        }
      ],
      "stateMutability": "view",
      "type": "function"
    },
    {
      "inputs": [
        {
          "internalType": "address",
          "name": "_walletAddress",
          "type": "address"
        }
      ],
      "name": "getPatientHealthDetails",
      "outputs": [
        {
          "components": [
            {
              "internalType": "string",
              "name": "date",
              "type": "string"
            },
            {
              "internalType": "address",
              "name": "walletAddress",
              "type": "address"
            },
            {
              "internalType": "address",
              "name": "physician",
              "type": "address"
            },
            {
              "internalType": "string",
              "name": "Department_uint",
              "type": "string"
            },
            {
              "internalType": "string",
              "name": "BloodPressure",
              "type": "string"
            },
            {
              "internalType": "string",
              "name": "HeartRate",
              "type": "string"
            },
            {
              "internalType": "string",
              "name": "RespiratoryRate",
              "type": "string"
            },
            {
              "internalType": "string",
              "name": "Dosage",
              "type": "string"
            }
          ],
          "internalType": "struct PatientDetails.PatientHealthCondition[]",
          "name": "",
          "type": "tuple[]"
        }
      ],
      "stateMutability": "view",
      "type": "function"
    },
    {
      "inputs": [
        {
          "internalType": "address",
          "name": "_address",
          "type": "address"
        }
      ],
      "name": "getPatientStored",
      "outputs": [
        {
          "components": [
            {
              "internalType": "uint256",
              "name": "timestamp",
              "type": "uint256"
            },
            {
              "internalType": "string",
              "name": "cid",
              "type": "string"
            }
          ],
          "internalType": "struct PatientDetails.HealthData[]",
          "name": "",
          "type": "tuple[]"
        }
      ],
      "stateMutability": "view",
      "type": "function"
    },
    {
      "inputs": [
        {
          "internalType": "uint256",
          "name": "timestamp",
          "type": "uint256"
        }
      ],
      "name": "getYear",
      "outputs": [
        {
          "internalType": "uint256",
          "name": "",
          "type": "uint256"
        }
      ],
      "stateMutability": "pure",
      "type": "function"
    },
    {
      "inputs": [
        {
          "internalType": "address",
          "name": "_address",
          "type": "address"
        }
      ],
      "name": "isDoctor",
      "outputs": [
        {
          "internalType": "bool",
          "name": "val",
          "type": "bool"
        }
      ],
      "stateMutability": "view",
      "type": "function"
    },
    {
      "inputs": [
        {
          "internalType": "address",
          "name": "_address",
          "type": "address"
        }
      ],
      "name": "isOwner",
      "outputs": [
        {
          "internalType": "bool",
          "name": "val",
          "type": "bool"
        }
      ],
      "stateMutability": "view",
      "type": "function"
    },
    {
      "inputs": [
        {
          "internalType": "address",
          "name": "_address",
          "type": "address"
        }
      ],
      "name": "isPatient",
      "outputs": [
        {
          "internalType": "bool",
          "name": "",
          "type": "bool"
        }
      ],
      "stateMutability": "view",
      "type": "function"
    },
    {
      "inputs": [
        {
          "internalType": "address",
          "name": "",
          "type": "address"
        }
      ],
      "name": "owner",
      "outputs": [
        {
          "internalType": "bool",
          "name": "",
          "type": "bool"
        }
      ],
      "stateMutability": "view",
      "type": "function"
    },
    {
      "inputs": [
        {
          "internalType": "address",
          "name": "",
          "type": "address"
        },
        {
          "internalType": "uint256",
          "name": "",
          "type": "uint256"
        }
      ],
      "name": "patientsStoredData",
      "outputs": [
        {
          "internalType": "uint256",
          "name": "timestamp",
          "type": "uint256"
        },
        {
          "internalType": "string",
          "name": "cid",
          "type": "string"
        }
      ],
      "stateMutability": "view",
      "type": "function"
    },
    {
      "inputs": [
        {
          "internalType": "address",
          "name": "_address",
          "type": "address"
        }
      ],
      "name": "removeOwner",
      "outputs": [],
      "stateMutability": "nonpayable",
      "type": "function"
    },
    {
      "inputs": [],
      "name": "superOwner",
      "outputs": [
        {
          "internalType": "address",
          "name": "",
          "type": "address"
        }
      ],
      "stateMutability": "view",
      "type": "function"
    },
    {
      "inputs": [],
      "name": "totalAdmin",
      "outputs": [
        {
          "internalType": "uint256",
          "name": "",
          "type": "uint256"
        }
      ],
      "stateMutability": "view",
      "type": "function"
    },
    {
      "inputs": [],
      "name": "totalDoctors",
      "outputs": [
        {
          "internalType": "uint256",
          "name": "",
          "type": "uint256"
        }
      ],
      "stateMutability": "view",
      "type": "function"
    },
    {
      "inputs": [],
      "name": "totalPatient",
      "outputs": [
        {
          "internalType": "uint256",
          "name": "",
          "type": "uint256"
        }
      ],
      "stateMutability": "view",
      "type": "function"
    }
  ],
  "bytecode": "0x608060405234801561000f575f80fd5b50335f818152602081905260409020805460ff1916600190811790915580546001600160a01b03191690911790556150228061004a5f395ff3fe608060405234801561000f575f80fd5b5060043610610213575f3560e01c806387dcd2b61161011f578063ac46b5b7116100a9578063d1f2f0e511610079578063d1f2f0e51461050d578063efe2ccc114610520578063f243cc6a14610541578063f7e901d314610568578063fe0c2a3114610588575f80fd5b8063ac46b5b714610494578063b5f63ec5146104a7578063bb7d6b67146104c7578063bbcaa637146104e9575f80fd5b806392d66313116100ef57806392d6631314610428578063996440c61461043b578063a49b17251461044e578063a96a6b2114610461578063a980702c14610481575f80fd5b806387dcd2b6146103ce5780638f9c79ed146103f957806392b3141d1461040c57806392c2808f1461041f575f80fd5b806355d2df12116101a057806366adec561161017057806366adec561461034f578063686e1f1b146103625780636e2c0ffe146103755780637065cb481461039657806375c6a96c146103a9575f80fd5b806355d2df12146102fb57806364319e331461031b57806365b44d7e14610324578063666e1b391461032d575f80fd5b80631a757712116101e65780631a757712146102785780631f650cc91461028b5780632f54bf6e146102b257806334a9e6eb146102d557806348e64d80146102e8575f80fd5b806304028017146102175780630b103ee11461022c5780630e37008a1461023f578063173825d914610265575b5f80fd5b61022a610225366004613ef1565b6105af565b005b61022a61023a366004613fa7565b610718565b61025261024d366004614093565b6108e3565b6040519081526020015b60405180910390f35b61022a610273366004613ef1565b610960565b61022a6102863660046140aa565b6109da565b61029e610299366004613ef1565b610b61565b60405161025c989796959493929190614191565b6102c56102c0366004613ef1565b610e4d565b604051901515815260200161025c565b61022a6102e336600461422a565b610e7a565b61022a6102f6366004614311565b611048565b61030e610309366004613ef1565b6111e1565b60405161025c91906143ad565b610252600a5481565b61025260095481565b6102c561033b366004613ef1565b5f6020819052908152604090205460ff1681565b61022a61035d36600461422a565b6112ec565b61022a610370366004613ef1565b61155c565b61038861038336600461441f565b6116fc565b60405161025c929190614447565b61022a6103a4366004613ef1565b6117bc565b6103bc6103b7366004613ef1565b611839565b60405161025c96959493929190614467565b6001546103e1906001600160a01b031681565b6040516001600160a01b03909116815260200161025c565b6102c5610407366004613ef1565b611a0d565b61022a61041a366004614311565b611a5a565b610252600b5481565b610252610436366004614093565b611c8e565b6102c5610449366004613ef1565b611c9d565b61022a61045c3660046140aa565b611cc5565b61047461046f366004613ef1565b611ed8565b60405161025c91906144c7565b61022a61048f366004613fa7565b6121bf565b61022a6104a236600461454d565b61242d565b6104ba6104b5366004613ef1565b61248c565b60405161025c9190614598565b6102c56104d5366004613ef1565b60066020525f908152604090205460ff1681565b6104fc6104f7366004613ef1565b61291a565b60405161025c9594939291906146ab565b61022a61051b366004614707565b612ae4565b61053361052e366004613ef1565b612e49565b60405161025c92919061485a565b61055461054f366004613ef1565b61368a565b60405161025c989796959493929190614934565b61057b610576366004613ef1565b6138fa565b60405161025c91906149b9565b61059b61059636600461441f565b613bc8565b60405161025c989796959493929190614a39565b335f9081526020819052604090205460ff16806105d657506001546001600160a01b031633145b6105fb5760405162461bcd60e51b81526004016105f290614a9f565b60405180910390fd5b335f908152602081905260409020805460ff191660011790556001600160a01b03811661065c5760405162461bcd60e51b815260206004820152600f60248201526e496e76616c6964204164647265737360881b60448201526064016105f2565b6001600160a01b0381165f9081526006602052604090205460ff166106f85760405162461bcd60e51b815260206004820152604660248201527f50726f76696465642061646472657373206d75737420626520616e2041646d6960448201527f6e4163636573734164647265737320746f2072656d6f76652041646d696e416360648201526563657373212160d01b608482015260a4016105f2565b6001600160a01b03165f908152600660205260409020805460ff19169055565b335f9081526006602052604081205460ff1615610733575060015b335f9081526006602052604090205460ff166107615760405162461bcd60e51b81526004016105f290614ae9565b6001600160a01b0387161580159061077957505f8651115b801561078557505f8551115b6107a15760405162461bcd60e51b81526004016105f290614b51565b6001600160a01b038088165f8181526002602081905260409091200154909116146107de5760405162461bcd60e51b81526004016105f290614b97565b60408051610100810182528a815260208082018b90526001600160a01b038a16828401819052606083018a90526080830189905260a0830188905260c0830187905260e083018690525f90815260029091529190912081518592919081906108469082614cb1565b506020820151600182019061085b9082614cb1565b5060408201516002820180546001600160a01b0319166001600160a01b03909216919091179055606082015160038201906108969082614cb1565b50608082015160048201906108ab9082614cb1565b5060a082015160058201906108c09082614cb1565b5060c0820151600682015560e09091015160079091015550505050505050505050565b5f806108ee42611c8e565b90505f836108fe836107b2614d81565b6109089190614d94565b90505f81116109595760405162461bcd60e51b815260206004820152601860248201527f456e74657220636f72726563742062697274682079656172000000000000000060448201526064016105f2565b9392505050565b6001546001600160a01b031633146109ba5760405162461bcd60e51b815260206004820152601f60248201527f41636365737365626c65206f6e6c7920666f722053757065724f776e6572730060448201526064016105f2565b6001600160a01b03165f908152602081905260409020805460ff19169055565b335f9081526020819052604090205460ff1680610a0157506001546001600160a01b031633145b610a1d5760405162461bcd60e51b81526004016105f290614a9f565b6001600160a01b03851615801590610a3557505f8151115b8015610a4157505f8651115b610a5d5760405162461bcd60e51b81526004016105f290614da7565b6001600160a01b038086165f8181526007602052604090206001015490911614610a995760405162461bcd60e51b81526004016105f290614df6565b6040805160c0810182528781526001600160a01b0387166020808301829052828401889052606083018790526080830186905260a083018590525f91825260079052919091208151859291908190610af19082614cb1565b5060208201516001820180546001600160a01b0319166001600160a01b0390921691909117905560408201516002820190610b2c9082614cb1565b50606082015160038201556080820151600482015560a08201516005820190610b559082614cb1565b50505050505050505050565b60026020525f9081526040902080548190610b7b90614c2f565b80601f0160208091040260200160405190810160405280929190818152602001828054610ba790614c2f565b8015610bf25780601f10610bc957610100808354040283529160200191610bf2565b820191905f5260205f20905b815481529060010190602001808311610bd557829003601f168201915b505050505090806001018054610c0790614c2f565b80601f0160208091040260200160405190810160405280929190818152602001828054610c3390614c2f565b8015610c7e5780601f10610c5557610100808354040283529160200191610c7e565b820191905f5260205f20905b815481529060010190602001808311610c6157829003601f168201915b505050600284015460038501805494956001600160a01b03909216949193509150610ca890614c2f565b80601f0160208091040260200160405190810160405280929190818152602001828054610cd490614c2f565b8015610d1f5780601f10610cf657610100808354040283529160200191610d1f565b820191905f5260205f20905b815481529060010190602001808311610d0257829003601f168201915b505050505090806004018054610d3490614c2f565b80601f0160208091040260200160405190810160405280929190818152602001828054610d6090614c2f565b8015610dab5780601f10610d8257610100808354040283529160200191610dab565b820191905f5260205f20905b815481529060010190602001808311610d8e57829003601f168201915b505050505090806005018054610dc090614c2f565b80601f0160208091040260200160405190810160405280929190818152602001828054610dec90614c2f565b8015610e375780601f10610e0e57610100808354040283529160200191610e37565b820191905f5260205f20905b815481529060010190602001808311610e1a57829003601f168201915b5050505050908060060154908060070154905088565b6001600160a01b0381165f9081526020819052604081205460ff1615610e7557506001919050565b919050565b335f9081526006602052604081205460ff1615610e95575060015b335f9081526006602052604090205460ff16610ec35760405162461bcd60e51b81526004016105f290614ae9565b6001600160a01b038816610ee95760405162461bcd60e51b81526004016105f290614b51565b6001600160a01b038089165f818152600260208190526040909120015490911614610f265760405162461bcd60e51b81526004016105f290614b97565b60408051610100810182528a81526001600160a01b038a1660208083018290528a1515838501528915156060840152881515608084015260a0830188905260c0830187905260e083018690525f918252600390529190912081518190610f8c9082614cb1565b5060208201516001820180546040850151606086015160808701511515600160b01b0260ff60b01b19911515600160a81b029190911661ffff60a81b19921515600160a01b026001600160a81b03199094166001600160a01b039096169590951792909217169290921791909117905560a082015160028201906110109082614cb1565b5060c082015160038201906110259082614cb1565b5060e0820151600482019061103a9082614cb1565b505050505050505050505050565b335f9081526020819052604090205460ff168061106f57506001546001600160a01b031633145b61108b5760405162461bcd60e51b81526004016105f290614a9f565b6001600160a01b038516158015906110a357505f8151115b80156110af57505f8451115b80156110bb57505f8351115b6110ff5760405162461bcd60e51b8152602060048201526015602482015274656e74657220636f72726563742064657461696c7360581b60448201526064016105f2565b6001600160a01b038086165f81815260086020526040902054909116146111385760405162461bcd60e51b81526004016105f290614df6565b6040805160a0810182526001600160a01b0387811680835260208084018681528486018a905260608501899052608085018890525f9283526008909152939020825181546001600160a01b0319169216919091178155915190919060018201906111a29082614cb1565b50604082015160028201906111b79082614cb1565b50606082015160038201906111cc9082614cb1565b50608082015181600401559050505050505050565b6001600160a01b0381165f908152600560209081526040808320805482518185028101850190935280835260609492939192909184015b828210156112e1578382905f5260205f2090600202016040518060400160405290815f820154815260200160018201805461125290614c2f565b80601f016020809104026020016040519081016040528092919081815260200182805461127e90614c2f565b80156112c95780601f106112a0576101008083540402835291602001916112c9565b820191905f5260205f20905b8154815290600101906020018083116112ac57829003601f168201915b50505050508152505081526020019060010190611218565b505050509050919050565b335f9081526006602052604081205460ff1615611307575060015b335f9081526006602052604090205460ff166113355760405162461bcd60e51b81526004016105f290614ae9565b6001600160a01b038089165f81815260036020526040902060010154909116036113da5760405162461bcd60e51b815260206004820152604a60248201527f50617469656e74206d65646963616c2064657461696c7320616c72656164792060448201527f657869737421212e204b696e646c792065646974207468652064657461696c73606482015269081a59881b995959195960b21b608482015260a4016105f2565b6001600160a01b0388166114005760405162461bcd60e51b81526004016105f290614b51565b60408051610100810182528a81526001600160a01b038a1660208083018290528a1515838501528915156060840152881515608084015260a0830188905260c0830187905260e083018690525f9182526003905291909120815181906114669082614cb1565b5060208201516001820180546040850151606086015160808701511515600160b01b0260ff60b01b19911515600160a81b029190911661ffff60a81b19921515600160a01b026001600160a81b03199094166001600160a01b039096169590951792909217169290921791909117905560a082015160028201906114ea9082614cb1565b5060c082015160038201906114ff9082614cb1565b5060e082015160048201906115149082614cb1565b5050506001600160a01b038089165f81815260026020819052604090912001549091160361155157600b8054905f61154b83614e8e565b91905055505b505050505050505050565b335f9081526020819052604090205460ff168061158357506001546001600160a01b031633145b61159f5760405162461bcd60e51b81526004016105f290614a9f565b335f9081526020819052604090205460ff166116145760405162461bcd60e51b815260206004820152602e60248201527f4f6e6c79206f776e6572206861732070726976696c65676520746f206164642060448201526d6f776e657220616363657373212160901b60648201526084016105f2565b6001600160a01b0381165f9081526006602052604090205460ff161561167c5760405162461bcd60e51b815260206004820181905260248201527f4164647265737320616c7265616479206861732061646d696e2061636365737360448201526064016105f2565b6001600160a01b0381166116c45760405162461bcd60e51b815260206004820152600f60248201526e496e76616c6964204164647265737360881b60448201526064016105f2565b6001600160a01b0381165f908152600660205260408120805460ff19166001179055600a8054916116f483614e8e565b919050555050565b6005602052815f5260405f208181548110611715575f80fd5b905f5260205f2090600202015f9150915050805f01549080600101805461173b90614c2f565b80601f016020809104026020016040519081016040528092919081815260200182805461176790614c2f565b80156117b25780601f10611789576101008083540402835291602001916117b2565b820191905f5260205f20905b81548152906001019060200180831161179557829003601f168201915b5050505050905082565b6001546001600160a01b031633146118165760405162461bcd60e51b815260206004820152601f60248201527f41636365737365626c65206f6e6c7920666f722053757065724f776e6572730060448201526064016105f2565b6001600160a01b03165f908152602081905260409020805460ff19166001179055565b60076020525f908152604090208054819061185390614c2f565b80601f016020809104026020016040519081016040528092919081815260200182805461187f90614c2f565b80156118ca5780601f106118a1576101008083540402835291602001916118ca565b820191905f5260205f20905b8154815290600101906020018083116118ad57829003601f168201915b505050600184015460028501805494956001600160a01b039092169491935091506118f490614c2f565b80601f016020809104026020016040519081016040528092919081815260200182805461192090614c2f565b801561196b5780601f106119425761010080835404028352916020019161196b565b820191905f5260205f20905b81548152906001019060200180831161194e57829003601f168201915b50505050509080600301549080600401549080600501805461198c90614c2f565b80601f01602080910402602001604051908101604052809291908181526020018280546119b890614c2f565b8015611a035780601f106119da57610100808354040283529160200191611a03565b820191905f5260205f20905b8154815290600101906020018083116119e657829003601f168201915b5050505050905086565b6001600160a01b038082165f818152600260208190526040822001549092161480611a5457506001600160a01b038083165f81815260036020526040902060010154909116145b92915050565b335f9081526020819052604090205460ff1680611a8157506001546001600160a01b031633145b611a9d5760405162461bcd60e51b81526004016105f290614a9f565b6001600160a01b038086165f8181526008602052604090205490911603611b1d5760405162461bcd60e51b815260206004820152602e60248201527f50687973696369616e2050726f66657373696f6e616c2064657461696c73206160448201526d6c7265616479206578697374212160901b60648201526084016105f2565b6001600160a01b038086165f8181526008602052604090205490911614801590611b4757505f8151115b8015611b5357505f8451115b8015611b5f57505f8351115b611ba35760405162461bcd60e51b8152602060048201526015602482015274456e74657220436f72726563742064657461696c7360581b60448201526064016105f2565b6040805160a0810182526001600160a01b0387811680835260208084018681528486018a905260608501899052608085018890525f9283526008909152939020825181546001600160a01b031916921691909117815591519091906001820190611c0d9082614cb1565b5060408201516002820190611c229082614cb1565b5060608201516003820190611c379082614cb1565b50608091909101516004909101556001600160a01b038086165f8181526007602052604090206001015490911603611c8757611c728561155c565b60098054905f611c8183614e8e565b91905055505b5050505050565b5f611a546301e1338083614ea6565b6001600160a01b0381165f9081526006602052604081205460ff1615610e7557506001919050565b335f9081526020819052604090205460ff1680611cec57506001546001600160a01b031633145b611d085760405162461bcd60e51b81526004016105f290614a9f565b6001600160a01b038086165f8181526007602052604090206001015490911603611d865760405162461bcd60e51b815260206004820152602960248201527f50687973696369616e20706572736f6e616c2064657461696c20616c7265616460448201526879206578697374212160b81b60648201526084016105f2565b6001600160a01b03851615801590611d9d57505f82115b8015611da957505f8151115b8015611db557505f8651115b611dd15760405162461bcd60e51b81526004016105f290614da7565b6040805160c0810182528781526001600160a01b0387166020808301829052828401889052606083018790526080830186905260a083018590525f91825260079052919091208151859291908190611e299082614cb1565b5060208201516001820180546001600160a01b0319166001600160a01b0390921691909117905560408201516002820190611e649082614cb1565b50606082015160038201556080820151600482015560a08201516005820190611e8d9082614cb1565b5050506001600160a01b038087165f8181526008602052604090205490911603611ecf57611eba8661155c565b60098054905f611ec983614e8e565b91905055505b50505050505050565b611f176040518060c00160405280606081526020015f6001600160a01b03168152602001606081526020015f81526020015f8152602001606081525090565b335f9081526020819052604090205460ff1680611f3e57506001546001600160a01b031633145b611f5a5760405162461bcd60e51b81526004016105f290614a9f565b6001600160a01b038216611f805760405162461bcd60e51b81526004016105f290614ec5565b6001600160a01b038083165f8181526007602052604090206001015490911614611fbc5760405162461bcd60e51b81526004016105f290614efc565b6001600160a01b0382165f9081526007602052604090819020815160c08101909252805482908290611fed90614c2f565b80601f016020809104026020016040519081016040528092919081815260200182805461201990614c2f565b80156120645780601f1061203b57610100808354040283529160200191612064565b820191905f5260205f20905b81548152906001019060200180831161204757829003601f168201915b505050918352505060018201546001600160a01b0316602082015260028201805460409092019161209490614c2f565b80601f01602080910402602001604051908101604052809291908181526020018280546120c090614c2f565b801561210b5780601f106120e25761010080835404028352916020019161210b565b820191905f5260205f20905b8154815290600101906020018083116120ee57829003601f168201915b50505050508152602001600382015481526020016004820154815260200160058201805461213890614c2f565b80601f016020809104026020016040519081016040528092919081815260200182805461216490614c2f565b80156121af5780601f10612186576101008083540402835291602001916121af565b820191905f5260205f20905b81548152906001019060200180831161219257829003601f168201915b5050505050815250509050919050565b335f9081526006602052604081205460ff16156121da575060015b335f9081526006602052604090205460ff166122085760405162461bcd60e51b81526004016105f290614ae9565b6001600160a01b038088165f8181526002602081905260409091200154909116036122b05760405162461bcd60e51b815260206004820152604c60248201527f50617469656e742773204d65646963616c2064657461696c7320616c7265616460448201527f7920657869737421212e204b696e646c7920656469742074686520646574616960648201526b1b1cc81a59881b995959195960a21b608482015260a4016105f2565b6001600160a01b038716158015906122c857505f8651115b80156122d457505f8551115b6122f05760405162461bcd60e51b81526004016105f290614b51565b60408051610100810182528a815260208082018b90526001600160a01b038a16828401819052606083018a90526080830189905260a0830188905260c0830187905260e083018690525f90815260029091529190912081518592919081906123589082614cb1565b506020820151600182019061236d9082614cb1565b5060408201516002820180546001600160a01b0319166001600160a01b03909216919091179055606082015160038201906123a89082614cb1565b50608082015160048201906123bd9082614cb1565b5060a082015160058201906123d29082614cb1565b5060c0820151600682015560e0909101516007909101556001600160a01b038089165f8181526003602052604090206001015490911603610b5557600b8054905f61241c83614e8e565b919050555050505050505050505050565b60408051808201825242815260208082018581526001600160a01b0385165f908152600583529384208054600181810183559186529290942083516002909302019182555191928392908201906124849082614cb1565b505050505050565b335f81815260026020819052604090912001546060916001600160a01b0390911614806124d15750335f818152600360205260409020600101546001600160a01b0316145b806124ea5750335f9081526006602052604090205460ff165b806125035750335f9081526020819052604090205460ff165b8061251857506001546001600160a01b031633145b6125345760405162461bcd60e51b81526004016105f290614fa5565b6001600160a01b0382165f90815260046020908152604080832080548251818502810185019093528083529193909284015b828210156112e1578382905f5260205f209060080201604051806101000160405290815f8201805461259790614c2f565b80601f01602080910402602001604051908101604052809291908181526020018280546125c390614c2f565b801561260e5780601f106125e55761010080835404028352916020019161260e565b820191905f5260205f20905b8154815290600101906020018083116125f157829003601f168201915b505050918352505060018201546001600160a01b039081166020830152600283015416604082015260038201805460609092019161264b90614c2f565b80601f016020809104026020016040519081016040528092919081815260200182805461267790614c2f565b80156126c25780601f10612699576101008083540402835291602001916126c2565b820191905f5260205f20905b8154815290600101906020018083116126a557829003601f168201915b505050505081526020016004820180546126db90614c2f565b80601f016020809104026020016040519081016040528092919081815260200182805461270790614c2f565b80156127525780601f1061272957610100808354040283529160200191612752565b820191905f5260205f20905b81548152906001019060200180831161273557829003601f168201915b5050505050815260200160058201805461276b90614c2f565b80601f016020809104026020016040519081016040528092919081815260200182805461279790614c2f565b80156127e25780601f106127b9576101008083540402835291602001916127e2565b820191905f5260205f20905b8154815290600101906020018083116127c557829003601f168201915b505050505081526020016006820180546127fb90614c2f565b80601f016020809104026020016040519081016040528092919081815260200182805461282790614c2f565b80156128725780601f1061284957610100808354040283529160200191612872565b820191905f5260205f20905b81548152906001019060200180831161285557829003601f168201915b5050505050815260200160078201805461288b90614c2f565b80601f01602080910402602001604051908101604052809291908181526020018280546128b790614c2f565b80156129025780601f106128d957610100808354040283529160200191612902565b820191905f5260205f20905b8154815290600101906020018083116128e557829003601f168201915b50505050508152505081526020019060010190612566565b60086020525f9081526040902080546001820180546001600160a01b03909216929161294590614c2f565b80601f016020809104026020016040519081016040528092919081815260200182805461297190614c2f565b80156129bc5780601f10612993576101008083540402835291602001916129bc565b820191905f5260205f20905b81548152906001019060200180831161299f57829003601f168201915b5050505050908060020180546129d190614c2f565b80601f01602080910402602001604051908101604052809291908181526020018280546129fd90614c2f565b8015612a485780601f10612a1f57610100808354040283529160200191612a48565b820191905f5260205f20905b815481529060010190602001808311612a2b57829003601f168201915b505050505090806003018054612a5d90614c2f565b80601f0160208091040260200160405190810160405280929190818152602001828054612a8990614c2f565b8015612ad45780601f10612aab57610100808354040283529160200191612ad4565b820191905f5260205f20905b815481529060010190602001808311612ab757829003601f168201915b5050505050908060040154905085565b335f9081526006602052604081205460ff1615612aff575060015b335f9081526006602052604090205460ff16612b2d5760405162461bcd60e51b81526004016105f290614ae9565b6001600160a01b038089165f8181526002602081905260409091200154909116148015612b7657506001600160a01b038089165f81815260036020526040902060010154909116145b612c5a5760405162461bcd60e51b815260206004820152609960248201527f496e636f72726563742050617469656e742077616c6c6574206164647265737360448201527f206f72205468652050617469656e742064657461696c2073706563696669632060648201527f746f20706572736f6e616c206f722070617374206d65646963616c206869737460848201527f6f7279206f662074686520616464726573732070726f7669646564206e6f742060a48201527f617661696c61626c6520696e2074686520636861696e2121200000000000000060c482015260e4016105f2565b6001600160a01b038088165f8181526007602052604090206001015490911614612d2c5760405162461bcd60e51b815260206004820152607160248201527f496e636f72726563742050687973696369616e2077616c6c657420616464726560448201527f7373206f72205468652050687973696369616e2064657461696c20666f72207460648201527f686520616464726573732070726f7669646564206e6f7420617661696c61626c6084820152700329034b7103a34329031b430b4b710909607d1b60a482015260c4016105f2565b6001600160a01b038089165f8181526004602090815260408083208151610100810183528f815280840195909552948c1690840152606083018a90526080830189905260a0830188905260c0830187905260e08301869052835460018101855593825290208151919260080201908190612da69082614cb1565b5060208201516001820180546001600160a01b039283166001600160a01b031991821617909155604084015160028401805491909316911617905560608201516003820190612df59082614cb1565b5060808201516004820190612e0a9082614cb1565b5060a08201516005820190612e1f9082614cb1565b5060c08201516006820190612e349082614cb1565b5060e0820151600782019061103a9082614cb1565b612e9760405180610100016040528060608152602001606081526020015f6001600160a01b031681526020016060815260200160608152602001606081526020015f81526020015f81525090565b612eea604051806101000160405280606081526020015f6001600160a01b031681526020015f151581526020015f151581526020015f151581526020016060815260200160608152602001606081525090565b335f81815260026020819052604090912001546001600160a01b03161480612f2a5750335f818152600360205260409020600101546001600160a01b0316145b80612f435750335f9081526006602052604090205460ff165b80612f5c5750335f9081526020819052604090205460ff165b80612f7157506001546001600160a01b031633145b612f8d5760405162461bcd60e51b81526004016105f290614fa5565b6001600160a01b038316612fb35760405162461bcd60e51b81526004016105f290614ec5565b6001600160a01b038084165f8181526002602081905260409091200154909116148015612ffc57506001600160a01b038084165f81815260036020526040902060010154909116145b6130ba5760405162461bcd60e51b815260206004820152607960248201527f496e636f72726563742050617469656e742077616c6c6574206164647265737360448201527f206f72205468652050617469656e742064657461696c20666f7220746865206160648201527f6464726573732070726f7669646564206973206e6f7420636f6d706c65746c7960848201527f20617661696c61626c6520696e2074686520636861696e21210000000000000060a482015260c4016105f2565b6001600160a01b0383165f908152600260209081526040808320600390925291829020825161010081019093528154919290918390829082906130fc90614c2f565b80601f016020809104026020016040519081016040528092919081815260200182805461312890614c2f565b80156131735780601f1061314a57610100808354040283529160200191613173565b820191905f5260205f20905b81548152906001019060200180831161315657829003601f168201915b5050505050815260200160018201805461318c90614c2f565b80601f01602080910402602001604051908101604052809291908181526020018280546131b890614c2f565b80156132035780601f106131da57610100808354040283529160200191613203565b820191905f5260205f20905b8154815290600101906020018083116131e657829003601f168201915b505050918352505060028201546001600160a01b0316602082015260038201805460409092019161323390614c2f565b80601f016020809104026020016040519081016040528092919081815260200182805461325f90614c2f565b80156132aa5780601f10613281576101008083540402835291602001916132aa565b820191905f5260205f20905b81548152906001019060200180831161328d57829003601f168201915b505050505081526020016004820180546132c390614c2f565b80601f01602080910402602001604051908101604052809291908181526020018280546132ef90614c2f565b801561333a5780601f106133115761010080835404028352916020019161333a565b820191905f5260205f20905b81548152906001019060200180831161331d57829003601f168201915b5050505050815260200160058201805461335390614c2f565b80601f016020809104026020016040519081016040528092919081815260200182805461337f90614c2f565b80156133ca5780601f106133a1576101008083540402835291602001916133ca565b820191905f5260205f20905b8154815290600101906020018083116133ad57829003601f168201915b5050505050815260200160068201548152602001600782015481525050915080604051806101000160405290815f8201805461340590614c2f565b80601f016020809104026020016040519081016040528092919081815260200182805461343190614c2f565b801561347c5780601f106134535761010080835404028352916020019161347c565b820191905f5260205f20905b81548152906001019060200180831161345f57829003601f168201915b505050918352505060018201546001600160a01b038116602083015260ff600160a01b8204811615156040840152600160a81b8204811615156060840152600160b01b909104161515608082015260028201805460a0909201916134df90614c2f565b80601f016020809104026020016040519081016040528092919081815260200182805461350b90614c2f565b80156135565780601f1061352d57610100808354040283529160200191613556565b820191905f5260205f20905b81548152906001019060200180831161353957829003601f168201915b5050505050815260200160038201805461356f90614c2f565b80601f016020809104026020016040519081016040528092919081815260200182805461359b90614c2f565b80156135e65780601f106135bd576101008083540402835291602001916135e6565b820191905f5260205f20905b8154815290600101906020018083116135c957829003601f168201915b505050505081526020016004820180546135ff90614c2f565b80601f016020809104026020016040519081016040528092919081815260200182805461362b90614c2f565b80156136765780601f1061364d57610100808354040283529160200191613676565b820191905f5260205f20905b81548152906001019060200180831161365957829003601f168201915b505050505081525050905091509150915091565b60036020525f90815260409020805481906136a490614c2f565b80601f01602080910402602001604051908101604052809291908181526020018280546136d090614c2f565b801561371b5780601f106136f25761010080835404028352916020019161371b565b820191905f5260205f20905b8154815290600101906020018083116136fe57829003601f168201915b50505050600183015460028401805493946001600160a01b0383169460ff600160a01b850481169550600160a81b8504811694600160b01b900416929061376190614c2f565b80601f016020809104026020016040519081016040528092919081815260200182805461378d90614c2f565b80156137d85780601f106137af576101008083540402835291602001916137d8565b820191905f5260205f20905b8154815290600101906020018083116137bb57829003601f168201915b5050505050908060030180546137ed90614c2f565b80601f016020809104026020016040519081016040528092919081815260200182805461381990614c2f565b80156138645780601f1061383b57610100808354040283529160200191613864565b820191905f5260205f20905b81548152906001019060200180831161384757829003601f168201915b50505050509080600401805461387990614c2f565b80601f01602080910402602001604051908101604052809291908181526020018280546138a590614c2f565b80156138f05780601f106138c7576101008083540402835291602001916138f0565b820191905f5260205f20905b8154815290600101906020018083116138d357829003601f168201915b5050505050905088565b6139336040518060a001604052805f6001600160a01b031681526020016060815260200160608152602001606081526020015f81525090565b335f9081526020819052604090205460ff168061395a57506001546001600160a01b031633145b6139765760405162461bcd60e51b81526004016105f290614a9f565b6001600160a01b03821661399c5760405162461bcd60e51b81526004016105f290614ec5565b6001600160a01b038083165f81815260086020526040902054909116146139d55760405162461bcd60e51b81526004016105f290614efc565b6001600160a01b038083165f90815260086020908152604091829020825160a081019093528054909316825260018301805492939291840191613a1790614c2f565b80601f0160208091040260200160405190810160405280929190818152602001828054613a4390614c2f565b8015613a8e5780601f10613a6557610100808354040283529160200191613a8e565b820191905f5260205f20905b815481529060010190602001808311613a7157829003601f168201915b50505050508152602001600282018054613aa790614c2f565b80601f0160208091040260200160405190810160405280929190818152602001828054613ad390614c2f565b8015613b1e5780601f10613af557610100808354040283529160200191613b1e565b820191905f5260205f20905b815481529060010190602001808311613b0157829003601f168201915b50505050508152602001600382018054613b3790614c2f565b80601f0160208091040260200160405190810160405280929190818152602001828054613b6390614c2f565b8015613bae5780601f10613b8557610100808354040283529160200191613bae565b820191905f5260205f20905b815481529060010190602001808311613b9157829003601f168201915b505050505081526020016004820154815250509050919050565b6004602052815f5260405f208181548110613be1575f80fd5b905f5260205f2090600802015f9150915050805f018054613c0190614c2f565b80601f0160208091040260200160405190810160405280929190818152602001828054613c2d90614c2f565b8015613c785780601f10613c4f57610100808354040283529160200191613c78565b820191905f5260205f20905b815481529060010190602001808311613c5b57829003601f168201915b5050506001840154600285015460038601805495966001600160a01b0393841696929093169450919250613cab90614c2f565b80601f0160208091040260200160405190810160405280929190818152602001828054613cd790614c2f565b8015613d225780601f10613cf957610100808354040283529160200191613d22565b820191905f5260205f20905b815481529060010190602001808311613d0557829003601f168201915b505050505090806004018054613d3790614c2f565b80601f0160208091040260200160405190810160405280929190818152602001828054613d6390614c2f565b8015613dae5780601f10613d8557610100808354040283529160200191613dae565b820191905f5260205f20905b815481529060010190602001808311613d9157829003601f168201915b505050505090806005018054613dc390614c2f565b80601f0160208091040260200160405190810160405280929190818152602001828054613def90614c2f565b8015613e3a5780601f10613e1157610100808354040283529160200191613e3a565b820191905f5260205f20905b815481529060010190602001808311613e1d57829003601f168201915b505050505090806006018054613e4f90614c2f565b80601f0160208091040260200160405190810160405280929190818152602001828054613e7b90614c2f565b8015613ec65780601f10613e9d57610100808354040283529160200191613ec6565b820191905f5260205f20905b815481529060010190602001808311613ea957829003601f168201915b50505050509080600701805461387990614c2f565b80356001600160a01b0381168114610e75575f80fd5b5f60208284031215613f01575f80fd5b61095982613edb565b634e487b7160e01b5f52604160045260245ffd5b5f82601f830112613f2d575f80fd5b813567ffffffffffffffff80821115613f4857613f48613f0a565b604051601f8301601f19908116603f01168101908282118183101715613f7057613f70613f0a565b81604052838152866020858801011115613f88575f80fd5b836020870160208301375f602085830101528094505050505092915050565b5f805f805f805f80610100898b031215613fbf575f80fd5b883567ffffffffffffffff80821115613fd6575f80fd5b613fe28c838d01613f1e565b995060208b0135915080821115613ff7575f80fd5b6140038c838d01613f1e565b985061401160408c01613edb565b975060608b0135915080821115614026575f80fd5b6140328c838d01613f1e565b965060808b0135915080821115614047575f80fd5b6140538c838d01613f1e565b955060a08b0135915080821115614068575f80fd5b506140758b828c01613f1e565b93505060c0890135915060e089013590509295985092959890939650565b5f602082840312156140a3575f80fd5b5035919050565b5f805f805f8060c087890312156140bf575f80fd5b863567ffffffffffffffff808211156140d6575f80fd5b6140e28a838b01613f1e565b97506140f060208a01613edb565b96506040890135915080821115614105575f80fd5b6141118a838b01613f1e565b9550606089013594506080890135935060a0890135915080821115614134575f80fd5b5061414189828a01613f1e565b9150509295509295509295565b5f81518084525f5b8181101561417257602081850181015186830182015201614156565b505f602082860101526020601f19601f83011685010191505092915050565b5f6101008083526141a48184018c61414e565b905082810360208401526141b8818b61414e565b6001600160a01b038a166040850152838103606085015290506141db818961414e565b905082810360808401526141ef818861414e565b905082810360a0840152614203818761414e565b60c0840195909552505060e001529695505050505050565b80358015158114610e75575f80fd5b5f805f805f805f80610100898b031215614242575f80fd5b883567ffffffffffffffff80821115614259575f80fd5b6142658c838d01613f1e565b995061427360208c01613edb565b985061428160408c0161421b565b975061428f60608c0161421b565b965061429d60808c0161421b565b955060a08b01359150808211156142b2575f80fd5b6142be8c838d01613f1e565b945060c08b01359150808211156142d3575f80fd5b6142df8c838d01613f1e565b935060e08b01359150808211156142f4575f80fd5b506143018b828c01613f1e565b9150509295985092959890939650565b5f805f805f60a08688031215614325575f80fd5b61432e86613edb565b9450602086013567ffffffffffffffff8082111561434a575f80fd5b61435689838a01613f1e565b9550604088013591508082111561436b575f80fd5b61437789838a01613f1e565b9450606088013593506080880135915080821115614393575f80fd5b506143a088828901613f1e565b9150509295509295909350565b5f6020808301818452808551808352604092508286019150828160051b8701018488015f5b8381101561441157888303603f190185528151805184528701518784018790526143fe8785018261414e565b95880195935050908601906001016143d2565b509098975050505050505050565b5f8060408385031215614430575f80fd5b61443983613edb565b946020939093013593505050565b828152604060208201525f61445f604083018461414e565b949350505050565b60c081525f61447960c083018961414e565b6001600160a01b0388166020840152828103604084015261449a818861414e565b905085606084015284608084015282810360a08401526144ba818561414e565b9998505050505050505050565b602081525f825160c060208401526144e260e084018261414e565b905060018060a01b0360208501511660408401526040840151601f1980858403016060860152614512838361414e565b925060608601516080860152608086015160a086015260a08601519150808584030160c086015250614544828261414e565b95945050505050565b5f806040838503121561455e575f80fd5b823567ffffffffffffffff811115614574575f80fd5b61458085828601613f1e565b92505061458f60208401613edb565b90509250929050565b5f6020808301818452808551808352604092508286019150828160051b8701018488015f5b8381101561441157603f19898403018552815161010081518186526145e48287018261414e565b915050888201516145ff8a8701826001600160a01b03169052565b50878201516001600160a01b03168589015260608083015186830382880152614628838261414e565b9250505060808083015186830382880152614643838261414e565b9250505060a0808301518683038288015261465e838261414e565b9250505060c08083015186830382880152614679838261414e565b9250505060e08083015192508582038187015250614697818361414e565b9689019694505050908601906001016145bd565b6001600160a01b038616815260a0602082018190525f906146ce9083018761414e565b82810360408401526146e0818761414e565b905082810360608401526146f4818661414e565b9150508260808301529695505050505050565b5f805f805f805f80610100898b03121561471f575f80fd5b883567ffffffffffffffff80821115614736575f80fd5b6147428c838d01613f1e565b995061475060208c01613edb565b985061475e60408c01613edb565b975060608b0135915080821115614773575f80fd5b61477f8c838d01613f1e565b965060808b0135915080821115614794575f80fd5b61429d8c838d01613f1e565b5f61010082518185526147b58286018261414e565b91505060208301516147d260208601826001600160a01b03169052565b5060408301516147e6604086018215159052565b5060608301516147fa606086018215159052565b50608083015161480e608086018215159052565b5060a083015184820360a0860152614826828261414e565b91505060c083015184820360c0860152614840828261414e565b91505060e083015184820360e0860152614544828261414e565b604081525f835161010080604085015261487861014085018361414e565b91506020860151603f1980868503016060870152614896848361414e565b9350604088015191506148b460808701836001600160a01b03169052565b60608801519150808685030160a08701526148cf848361414e565b935060808801519150808685030160c08701526148ec848361414e565b935060a08801519150808685030160e08701525061490a838261414e565b92505060c0860151818501525060e0850151610120840152828103602084015261454481856147a0565b5f6101008083526149478184018c61414e565b6001600160a01b038b16602085015289151560408501528815156060850152871515608085015283810360a08501529050614982818761414e565b905082810360c0840152614996818661414e565b905082810360e08401526149aa818561414e565b9b9a5050505050505050505050565b602080825282516001600160a01b03168282015282015160a060408301525f906149e660c084018261414e565b90506040840151601f1980858403016060860152614a04838361414e565b9250606086015191508085840301608086015250614a22828261414e565b915050608084015160a08401528091505092915050565b5f610100808352614a4c8184018c61414e565b6001600160a01b038b811660208601528a16604085015283810360608501529050614a77818961414e565b90508281036080840152614a8b818861414e565b905082810360a0840152614982818761414e565b6020808252602a908201527f41636365737365626c65206f6e6c7920666f72204f776e65727320616e642053604082015269757065724f776e65727360b01b606082015260800190565b60208082526042908201527f4f6e6c792074686520446f63746f72732063616e2063616c6c2074686973206660408201527f756e6374696f6e2064756520746f20736563757269747920726561736f6e7321606082015261212160f01b608082015260a00190565b60208082526026908201527f4b696e646c792066696c6c20616c6c20746865206d616e6461746f7279206665604082015265696c6473212160d01b606082015260800190565b6020808252606c908201527f496e636f72726563742050617469656e742077616c6c6574206164647265737360408201527f206f72205468652050617469656e742064657461696c20666f7220746865206160608201527f6464726573732070726f7669646564206e6f7420617661696c61626c6520696e60808201526b2074686520636861696e212160a01b60a082015260c00190565b600181811c90821680614c4357607f821691505b602082108103614c6157634e487b7160e01b5f52602260045260245ffd5b50919050565b601f821115614cac575f81815260208120601f850160051c81016020861015614c8d5750805b601f850160051c820191505b8181101561248457828155600101614c99565b505050565b815167ffffffffffffffff811115614ccb57614ccb613f0a565b614cdf81614cd98454614c2f565b84614c67565b602080601f831160018114614d12575f8415614cfb5750858301515b5f19600386901b1c1916600185901b178555612484565b5f85815260208120601f198616915b82811015614d4057888601518255948401946001909101908401614d21565b5085821015614d5d57878501515f19600388901b60f8161c191681555b5050505050600190811b01905550565b634e487b7160e01b5f52601160045260245ffd5b80820180821115611a5457611a54614d6d565b81810381811115611a5457611a54614d6d565b6020808252602f908201527f4b696e646c792066696c6c20616c6c20746865206d616e6461746f727920666560408201526e696c64732070726f7065726c79212160881b606082015260800190565b6020808252606c908201527f496e636f727265637420446f63746f7227732077616c6c65742061646472657360408201527f73206f722054686520446f63746f722064657461696c20666f7220746865206160608201527f6464726573732070726f7669646564206e6f7420617661696c61626c6520696e60808201526b2074686520636861696e212160a01b60a082015260c00190565b5f60018201614e9f57614e9f614d6d565b5060010190565b5f82614ec057634e487b7160e01b5f52601260045260245ffd5b500490565b6020808252601e908201527f57616c6c657420416464726573732063616e6e6f7420626520656d7074790000604082015260600190565b60208082526078908201527f496e636f727265637420446f63746f722077616c6c657420616464726573732060408201527f6f722054686520446f63746f722064657461696c20666f72207468652061646460608201527f726573732070726f7669646564206973206e6f7420636f6d706c6574656c792060808201527f617661696c61626c6520696e2074686520636861696e2121000000000000000060a082015260c00190565b60208082526027908201527f596f752068617665206e6f2061636365737320746f206665746368207468652060408201526664657461696c7360c81b60608201526080019056fea2646970667358221220cd97faf445294f0c1b68d5cd74ec2e78ff801663e4737e865d4bee6894523b9e64736f6c63430008150033",
  "linkReferences": {},
  "deployedLinkReferences": {}
}