{
  "_format": "hh-sol-artifact-1",
  "contractName": "PatientDetails",
  "sourceName": "src/contracts/Patient.sol",
  "abi": [
    {
      "inputs": [],
      "stateMutability": "nonpayable",
      "type": "constructor"
    },
    {
      "inputs": [
        {
          "internalType": "address",
          "name": "_walletAddress",
          "type": "address"
        }
      ],
      "name": "AddDoctorAccess",
      "outputs": [],
      "stateMutability": "nonpayable",
      "type": "function"
    },
    {
      "inputs": [
        {
          "internalType": "string",
          "name": "_name",
          "type": "string"
        },
        {
          "internalType": "address",
          "name": "_walletAddress",
          "type": "address"
        },
        {
          "internalType": "string",
          "name": "_dateOfBirth",
          "type": "string"
        },
        {
          "internalType": "uint256",
          "name": "_age",
          "type": "uint256"
        },
        {
          "internalType": "uint256",
          "name": "_phoneNumber",
          "type": "uint256"
        },
        {
          "internalType": "string",
          "name": "_email",
          "type": "string"
        }
      ],
      "name": "AddDoctorPersonalInfo",
      "outputs": [],
      "stateMutability": "nonpayable",
      "type": "function"
    },
    {
      "inputs": [
        {
          "internalType": "address",
          "name": "_walletAddress",
          "type": "address"
        },
        {
          "internalType": "string",
          "name": "_MedicalLicenseNumber",
          "type": "string"
        },
        {
          "internalType": "string",
          "name": "_Specialization",
          "type": "string"
        },
        {
          "internalType": "uint256",
          "name": "_ExperienceInYear",
          "type": "uint256"
        },
        {
          "internalType": "string",
          "name": "_MedicalSchoolAttended",
          "type": "string"
        }
      ],
      "name": "AddDoctorProfessionalInfo",
      "outputs": [],
      "stateMutability": "nonpayable",
      "type": "function"
    },
    {
      "inputs": [
        {
          "internalType": "string",
          "name": "_date",
          "type": "string"
        },
        {
          "internalType": "address",
          "name": "_walletAddress",
          "type": "address"
        },
        {
          "internalType": "bool",
          "name": "_isAlcoholic",
          "type": "bool"
        },
        {
          "internalType": "bool",
          "name": "_isSmoker",
          "type": "bool"
        },
        {
          "internalType": "bool",
          "name": "_isSmokelessTobaccoUser",
          "type": "bool"
        },
        {
          "internalType": "string",
          "name": "_surgicalHistory_ifAny",
          "type": "string"
        },
        {
          "internalType": "string",
          "name": "_physicalActivityLevel",
          "type": "string"
        },
        {
          "internalType": "string",
          "name": "_pastMedicationDetails_IfAny",
          "type": "string"
        }
      ],
      "name": "AddPatientsMedicalDetails",
      "outputs": [],
      "stateMutability": "nonpayable",
      "type": "function"
    },
    {
      "inputs": [
        {
          "internalType": "string",
          "name": "date",
          "type": "string"
        },
        {
          "internalType": "string",
          "name": "_name",
          "type": "string"
        },
        {
          "internalType": "address",
          "name": "_walletAddress",
          "type": "address"
        },
        {
          "internalType": "string",
          "name": "_gender",
          "type": "string"
        },
        {
          "internalType": "string",
          "name": "_Occupation",
          "type": "string"
        },
        {
          "internalType": "string",
          "name": "_dateOfBirth",
          "type": "string"
        },
        {
          "internalType": "uint256",
          "name": "_age",
          "type": "uint256"
        },
        {
          "internalType": "uint256",
          "name": "number",
          "type": "uint256"
        },
        {
          "internalType": "string",
          "name": "_bloodGrp",
          "type": "string"
        },
        {
          "internalType": "uint256",
          "name": "_height",
          "type": "uint256"
        },
        {
          "internalType": "uint256",
          "name": "_weight",
          "type": "uint256"
        }
      ],
      "name": "AddPatientsPersonalDetails",
      "outputs": [],
      "stateMutability": "nonpayable",
      "type": "function"
    },
    {
      "inputs": [
        {
          "internalType": "address",
          "name": "_walletAddress",
          "type": "address"
        }
      ],
      "name": "DeleteDoctorAccess",
      "outputs": [],
      "stateMutability": "nonpayable",
      "type": "function"
    },
    {
      "inputs": [
        {
          "internalType": "address",
          "name": "",
          "type": "address"
        }
      ],
      "name": "DoctorAccess",
      "outputs": [
        {
          "internalType": "bool",
          "name": "",
          "type": "bool"
        }
      ],
      "stateMutability": "view",
      "type": "function"
    },
    {
      "inputs": [
        {
          "internalType": "address",
          "name": "",
          "type": "address"
        }
      ],
      "name": "DoctorsPersonalInfo",
      "outputs": [
        {
          "internalType": "string",
          "name": "name",
          "type": "string"
        },
        {
          "internalType": "address",
          "name": "walletAddress",
          "type": "address"
        },
        {
          "internalType": "string",
          "name": "dateOfBirth",
          "type": "string"
        },
        {
          "internalType": "uint256",
          "name": "age",
          "type": "uint256"
        },
        {
          "internalType": "uint256",
          "name": "phoneNumber",
          "type": "uint256"
        },
        {
          "internalType": "string",
          "name": "email",
          "type": "string"
        }
      ],
      "stateMutability": "view",
      "type": "function"
    },
    {
      "inputs": [
        {
          "internalType": "address",
          "name": "",
          "type": "address"
        }
      ],
      "name": "Doctors_ProfessionalDetails",
      "outputs": [
        {
          "internalType": "address",
          "name": "walletAddress",
          "type": "address"
        },
        {
          "internalType": "string",
          "name": "MedicalSchoolAttended",
          "type": "string"
        },
        {
          "internalType": "string",
          "name": "MedicalLicenseNumber",
          "type": "string"
        },
        {
          "internalType": "string",
          "name": "Specialization",
          "type": "string"
        },
        {
          "internalType": "uint256",
          "name": "ExperienceInYear",
          "type": "uint256"
        }
      ],
      "stateMutability": "view",
      "type": "function"
    },
    {
      "inputs": [
        {
          "internalType": "string",
          "name": "_name",
          "type": "string"
        },
        {
          "internalType": "address",
          "name": "_walletAddress",
          "type": "address"
        },
        {
          "internalType": "string",
          "name": "_dateOfBirth",
          "type": "string"
        },
        {
          "internalType": "uint256",
          "name": "_age",
          "type": "uint256"
        },
        {
          "internalType": "uint256",
          "name": "_phoneNumber",
          "type": "uint256"
        },
        {
          "internalType": "string",
          "name": "_email",
          "type": "string"
        }
      ],
      "name": "EditDoctorPersonalDetails",
      "outputs": [],
      "stateMutability": "nonpayable",
      "type": "function"
    },
    {
      "inputs": [
        {
          "internalType": "address",
          "name": "_walletAddress",
          "type": "address"
        },
        {
          "internalType": "string",
          "name": "_MedicalLicenseNumber",
          "type": "string"
        },
        {
          "internalType": "string",
          "name": "_Specialization",
          "type": "string"
        },
        {
          "internalType": "uint256",
          "name": "_ExperienceInYear",
          "type": "uint256"
        },
        {
          "internalType": "string",
          "name": "_MedicalSchoolAttended",
          "type": "string"
        }
      ],
      "name": "EditDoctorProfessionalDetails",
      "outputs": [],
      "stateMutability": "nonpayable",
      "type": "function"
    },
    {
      "inputs": [
        {
          "internalType": "string",
          "name": "_date",
          "type": "string"
        },
        {
          "internalType": "string",
          "name": "_name",
          "type": "string"
        },
        {
          "internalType": "address",
          "name": "_walletAddress",
          "type": "address"
        },
        {
          "internalType": "string",
          "name": "_gender",
          "type": "string"
        },
        {
          "internalType": "string",
          "name": "_Occupation",
          "type": "string"
        },
        {
          "internalType": "string",
          "name": "_dateOfBirth",
          "type": "string"
        },
        {
          "internalType": "uint256",
          "name": "_age",
          "type": "uint256"
        },
        {
          "internalType": "uint256",
          "name": "number",
          "type": "uint256"
        },
        {
          "internalType": "string",
          "name": "_bloodGrp",
          "type": "string"
        },
        {
          "internalType": "uint256",
          "name": "_height",
          "type": "uint256"
        },
        {
          "internalType": "uint256",
          "name": "_weight",
          "type": "uint256"
        }
      ],
      "name": "EditPatientPersonalDetails",
      "outputs": [],
      "stateMutability": "nonpayable",
      "type": "function"
    },
    {
      "inputs": [
        {
          "internalType": "string",
          "name": "_date",
          "type": "string"
        },
        {
          "internalType": "address",
          "name": "_walletAddress",
          "type": "address"
        },
        {
          "internalType": "bool",
          "name": "_isAlcoholic",
          "type": "bool"
        },
        {
          "internalType": "bool",
          "name": "_isSmoker",
          "type": "bool"
        },
        {
          "internalType": "bool",
          "name": "_isSmokelessTobaccoUser",
          "type": "bool"
        },
        {
          "internalType": "string",
          "name": "_surgicalHistory_ifAny",
          "type": "string"
        },
        {
          "internalType": "string",
          "name": "_physicalActivityLevel",
          "type": "string"
        },
        {
          "internalType": "string",
          "name": "_pastMedicationDetails_IfAny",
          "type": "string"
        }
      ],
      "name": "EditPatinetMedicalDetails",
      "outputs": [],
      "stateMutability": "nonpayable",
      "type": "function"
    },
    {
      "inputs": [
        {
          "internalType": "address",
          "name": "",
          "type": "address"
        },
        {
          "internalType": "uint256",
          "name": "",
          "type": "uint256"
        }
      ],
      "name": "HealthCondition",
      "outputs": [
        {
          "internalType": "string",
          "name": "healthIssue",
          "type": "string"
        },
        {
          "internalType": "string",
          "name": "date",
          "type": "string"
        },
        {
          "internalType": "address",
          "name": "walletAddress",
          "type": "address"
        },
        {
          "internalType": "address",
          "name": "physician",
          "type": "address"
        },
        {
          "internalType": "string",
          "name": "Department_uint",
          "type": "string"
        },
        {
          "internalType": "string",
          "name": "BloodPressure",
          "type": "string"
        },
        {
          "internalType": "string",
          "name": "HeartRate",
          "type": "string"
        },
        {
          "internalType": "string",
          "name": "GlucoseLevel",
          "type": "string"
        },
        {
          "internalType": "string",
          "name": "bodyTemperature",
          "type": "string"
        },
        {
          "internalType": "string",
          "name": "checkupDescription",
          "type": "string"
        },
        {
          "internalType": "string",
          "name": "medicinesPrescribed",
          "type": "string"
        }
      ],
      "stateMutability": "view",
      "type": "function"
    },
    {
      "inputs": [
        {
          "internalType": "address",
          "name": "",
          "type": "address"
        }
      ],
      "name": "PatientsMedicalDetails",
      "outputs": [
        {
          "internalType": "string",
          "name": "date",
          "type": "string"
        },
        {
          "internalType": "address",
          "name": "walletAddress",
          "type": "address"
        },
        {
          "internalType": "bool",
          "name": "isAlcoholic",
          "type": "bool"
        },
        {
          "internalType": "bool",
          "name": "isSmoker",
          "type": "bool"
        },
        {
          "internalType": "bool",
          "name": "isSmokelessTobaccoUser",
          "type": "bool"
        },
        {
          "internalType": "string",
          "name": "surgicalHistory_ifAny",
          "type": "string"
        },
        {
          "internalType": "string",
          "name": "physicalActivityLevel",
          "type": "string"
        },
        {
          "internalType": "string",
          "name": "pastMedicationDetails_IfAny",
          "type": "string"
        }
      ],
      "stateMutability": "view",
      "type": "function"
    },
    {
      "inputs": [
        {
          "internalType": "address",
          "name": "",
          "type": "address"
        }
      ],
      "name": "PatientsPersonalDetails",
      "outputs": [
        {
          "internalType": "string",
          "name": "date",
          "type": "string"
        },
        {
          "internalType": "string",
          "name": "name",
          "type": "string"
        },
        {
          "internalType": "address",
          "name": "walletAddress",
          "type": "address"
        },
        {
          "internalType": "string",
          "name": "gender",
          "type": "string"
        },
        {
          "internalType": "string",
          "name": "Occupation",
          "type": "string"
        },
        {
          "internalType": "string",
          "name": "dateOfBirth",
          "type": "string"
        },
        {
          "internalType": "uint256",
          "name": "age",
          "type": "uint256"
        },
        {
          "internalType": "uint256",
          "name": "phoneNumber",
          "type": "uint256"
        },
        {
          "internalType": "string",
          "name": "bloodGroup",
          "type": "string"
        },
        {
          "internalType": "uint256",
          "name": "height",
          "type": "uint256"
        },
        {
          "internalType": "uint256",
          "name": "weight",
          "type": "uint256"
        }
      ],
      "stateMutability": "view",
      "type": "function"
    },
    {
      "inputs": [
        {
          "internalType": "string",
          "name": "_dataURL",
          "type": "string"
        },
        {
          "internalType": "address",
          "name": "user",
          "type": "address"
        },
        {
          "internalType": "string",
          "name": "_fileName",
          "type": "string"
        }
      ],
      "name": "StorePatientData",
      "outputs": [],
      "stateMutability": "nonpayable",
      "type": "function"
    },
    {
      "inputs": [
        {
          "internalType": "address",
          "name": "_address",
          "type": "address"
        }
      ],
      "name": "addOwner",
      "outputs": [],
      "stateMutability": "nonpayable",
      "type": "function"
    },
    {
      "inputs": [
        {
          "internalType": "string",
          "name": "_healthIssue",
          "type": "string"
        },
        {
          "internalType": "string",
          "name": "_date",
          "type": "string"
        },
        {
          "internalType": "address",
          "name": "_walletAddress",
          "type": "address"
        },
        {
          "internalType": "address",
          "name": "_physician",
          "type": "address"
        },
        {
          "internalType": "string",
          "name": "_Department_uint",
          "type": "string"
        },
        {
          "internalType": "string",
          "name": "_BloodPressure",
          "type": "string"
        },
        {
          "internalType": "string",
          "name": "_HeartRate",
          "type": "string"
        },
        {
          "internalType": "string",
          "name": "_glucoseLevel",
          "type": "string"
        },
        {
          "internalType": "string",
          "name": "_bodyTemperature",
          "type": "string"
        },
        {
          "internalType": "string",
          "name": "_checkupDescription",
          "type": "string"
        },
        {
          "internalType": "string",
          "name": "_medicinesPrescribed",
          "type": "string"
        }
      ],
      "name": "addPatientHealthDetails",
      "outputs": [],
      "stateMutability": "nonpayable",
      "type": "function"
    },
    {
      "inputs": [
        {
          "internalType": "uint256",
          "name": "_yearOfBirth",
          "type": "uint256"
        }
      ],
      "name": "getAge",
      "outputs": [
        {
          "internalType": "uint256",
          "name": "",
          "type": "uint256"
        }
      ],
      "stateMutability": "view",
      "type": "function"
    },
    {
      "inputs": [
        {
          "internalType": "address",
          "name": "_walletAddress",
          "type": "address"
        }
      ],
      "name": "getDoctorPersonalDetails",
      "outputs": [
        {
          "components": [
            {
              "internalType": "string",
              "name": "name",
              "type": "string"
            },
            {
              "internalType": "address",
              "name": "walletAddress",
              "type": "address"
            },
            {
              "internalType": "string",
              "name": "dateOfBirth",
              "type": "string"
            },
            {
              "internalType": "uint256",
              "name": "age",
              "type": "uint256"
            },
            {
              "internalType": "uint256",
              "name": "phoneNumber",
              "type": "uint256"
            },
            {
              "internalType": "string",
              "name": "email",
              "type": "string"
            }
          ],
          "internalType": "struct PatientDetails.DoctorPersonalInfo",
          "name": "",
          "type": "tuple"
        }
      ],
      "stateMutability": "view",
      "type": "function"
    },
    {
      "inputs": [
        {
          "internalType": "address",
          "name": "_walletAddress",
          "type": "address"
        }
      ],
      "name": "getDoctorProfessionalDetails",
      "outputs": [
        {
          "components": [
            {
              "internalType": "address",
              "name": "walletAddress",
              "type": "address"
            },
            {
              "internalType": "string",
              "name": "MedicalSchoolAttended",
              "type": "string"
            },
            {
              "internalType": "string",
              "name": "MedicalLicenseNumber",
              "type": "string"
            },
            {
              "internalType": "string",
              "name": "Specialization",
              "type": "string"
            },
            {
              "internalType": "uint256",
              "name": "ExperienceInYear",
              "type": "uint256"
            }
          ],
          "internalType": "struct PatientDetails.DoctorProfessionalDetails",
          "name": "",
          "type": "tuple"
        }
      ],
      "stateMutability": "view",
      "type": "function"
    },
    {
      "inputs": [
        {
          "internalType": "address",
          "name": "_walletAddress",
          "type": "address"
        }
      ],
      "name": "getPatientDetails",
      "outputs": [
        {
          "components": [
            {
              "internalType": "string",
              "name": "date",
              "type": "string"
            },
            {
              "internalType": "string",
              "name": "name",
              "type": "string"
            },
            {
              "internalType": "address",
              "name": "walletAddress",
              "type": "address"
            },
            {
              "internalType": "string",
              "name": "gender",
              "type": "string"
            },
            {
              "internalType": "string",
              "name": "Occupation",
              "type": "string"
            },
            {
              "internalType": "string",
              "name": "dateOfBirth",
              "type": "string"
            },
            {
              "internalType": "uint256",
              "name": "age",
              "type": "uint256"
            },
            {
              "internalType": "uint256",
              "name": "phoneNumber",
              "type": "uint256"
            },
            {
              "internalType": "string",
              "name": "bloodGroup",
              "type": "string"
            },
            {
              "internalType": "uint256",
              "name": "height",
              "type": "uint256"
            },
            {
              "internalType": "uint256",
              "name": "weight",
              "type": "uint256"
            }
          ],
          "internalType": "struct PatientDetails.PatientPersonalDetails",
          "name": "",
          "type": "tuple"
        },
        {
          "components": [
            {
              "internalType": "string",
              "name": "date",
              "type": "string"
            },
            {
              "internalType": "address",
              "name": "walletAddress",
              "type": "address"
            },
            {
              "internalType": "bool",
              "name": "isAlcoholic",
              "type": "bool"
            },
            {
              "internalType": "bool",
              "name": "isSmoker",
              "type": "bool"
            },
            {
              "internalType": "bool",
              "name": "isSmokelessTobaccoUser",
              "type": "bool"
            },
            {
              "internalType": "string",
              "name": "surgicalHistory_ifAny",
              "type": "string"
            },
            {
              "internalType": "string",
              "name": "physicalActivityLevel",
              "type": "string"
            },
            {
              "internalType": "string",
              "name": "pastMedicationDetails_IfAny",
              "type": "string"
            }
          ],
          "internalType": "struct PatientDetails.PatientMedicalDetails",
          "name": "",
          "type": "tuple"
        }
      ],
      "stateMutability": "view",
      "type": "function"
    },
    {
      "inputs": [
        {
          "internalType": "address",
          "name": "_walletAddress",
          "type": "address"
        }
      ],
      "name": "getPatientHealthDetails",
      "outputs": [
        {
          "components": [
            {
              "internalType": "string",
              "name": "healthIssue",
              "type": "string"
            },
            {
              "internalType": "string",
              "name": "date",
              "type": "string"
            },
            {
              "internalType": "address",
              "name": "walletAddress",
              "type": "address"
            },
            {
              "internalType": "address",
              "name": "physician",
              "type": "address"
            },
            {
              "internalType": "string",
              "name": "Department_uint",
              "type": "string"
            },
            {
              "internalType": "string",
              "name": "BloodPressure",
              "type": "string"
            },
            {
              "internalType": "string",
              "name": "HeartRate",
              "type": "string"
            },
            {
              "internalType": "string",
              "name": "GlucoseLevel",
              "type": "string"
            },
            {
              "internalType": "string",
              "name": "bodyTemperature",
              "type": "string"
            },
            {
              "internalType": "string",
              "name": "checkupDescription",
              "type": "string"
            },
            {
              "internalType": "string",
              "name": "medicinesPrescribed",
              "type": "string"
            }
          ],
          "internalType": "struct PatientDetails.PatientHealthCondition[]",
          "name": "",
          "type": "tuple[]"
        }
      ],
      "stateMutability": "view",
      "type": "function"
    },
    {
      "inputs": [
        {
          "internalType": "address",
          "name": "_address",
          "type": "address"
        }
      ],
      "name": "getPatientStored",
      "outputs": [
        {
          "components": [
            {
              "internalType": "uint256",
              "name": "timestamp",
              "type": "uint256"
            },
            {
              "internalType": "string",
              "name": "cid",
              "type": "string"
            },
            {
              "internalType": "string",
              "name": "fileName",
              "type": "string"
            }
          ],
          "internalType": "struct PatientDetails.HealthData[]",
          "name": "",
          "type": "tuple[]"
        }
      ],
      "stateMutability": "view",
      "type": "function"
    },
    {
      "inputs": [
        {
          "internalType": "uint256",
          "name": "timestamp",
          "type": "uint256"
        }
      ],
      "name": "getYear",
      "outputs": [
        {
          "internalType": "uint256",
          "name": "",
          "type": "uint256"
        }
      ],
      "stateMutability": "pure",
      "type": "function"
    },
    {
      "inputs": [
        {
          "internalType": "address",
          "name": "_address",
          "type": "address"
        }
      ],
      "name": "isDoctor",
      "outputs": [
        {
          "internalType": "bool",
          "name": "val",
          "type": "bool"
        }
      ],
      "stateMutability": "view",
      "type": "function"
    },
    {
      "inputs": [
        {
          "internalType": "address",
          "name": "_address",
          "type": "address"
        }
      ],
      "name": "isOwner",
      "outputs": [
        {
          "internalType": "bool",
          "name": "val",
          "type": "bool"
        }
      ],
      "stateMutability": "view",
      "type": "function"
    },
    {
      "inputs": [
        {
          "internalType": "address",
          "name": "_address",
          "type": "address"
        }
      ],
      "name": "isPatient",
      "outputs": [
        {
          "internalType": "bool",
          "name": "",
          "type": "bool"
        }
      ],
      "stateMutability": "view",
      "type": "function"
    },
    {
      "inputs": [
        {
          "internalType": "address",
          "name": "",
          "type": "address"
        }
      ],
      "name": "owner",
      "outputs": [
        {
          "internalType": "bool",
          "name": "",
          "type": "bool"
        }
      ],
      "stateMutability": "view",
      "type": "function"
    },
    {
      "inputs": [
        {
          "internalType": "address",
          "name": "",
          "type": "address"
        },
        {
          "internalType": "uint256",
          "name": "",
          "type": "uint256"
        }
      ],
      "name": "patientsStoredData",
      "outputs": [
        {
          "internalType": "uint256",
          "name": "timestamp",
          "type": "uint256"
        },
        {
          "internalType": "string",
          "name": "cid",
          "type": "string"
        },
        {
          "internalType": "string",
          "name": "fileName",
          "type": "string"
        }
      ],
      "stateMutability": "view",
      "type": "function"
    },
    {
      "inputs": [
        {
          "internalType": "address",
          "name": "_address",
          "type": "address"
        }
      ],
      "name": "removeOwner",
      "outputs": [],
      "stateMutability": "nonpayable",
      "type": "function"
    },
    {
      "inputs": [],
      "name": "superOwner",
      "outputs": [
        {
          "internalType": "address",
          "name": "",
          "type": "address"
        }
      ],
      "stateMutability": "view",
      "type": "function"
    },
    {
      "inputs": [],
      "name": "totalAdmin",
      "outputs": [
        {
          "internalType": "uint256",
          "name": "",
          "type": "uint256"
        }
      ],
      "stateMutability": "view",
      "type": "function"
    },
    {
      "inputs": [],
      "name": "totalDoctors",
      "outputs": [
        {
          "internalType": "uint256",
          "name": "",
          "type": "uint256"
        }
      ],
      "stateMutability": "view",
      "type": "function"
    },
    {
      "inputs": [],
      "name": "totalPatient",
      "outputs": [
        {
          "internalType": "uint256",
          "name": "",
          "type": "uint256"
        }
      ],
      "stateMutability": "view",
      "type": "function"
    }
  ],
  "bytecode": "0x608060405234801561000f575f80fd5b50335f818152602081905260409020805460ff1916600190811790915580546001600160a01b0319169091179055615a7b806200004b5f395ff3fe608060405234801561000f575f80fd5b5060043610610213575f3560e01c806375c6a96c1161011f578063a96a6b21116100a9578063ccf0c1b511610079578063ccf0c1b514610511578063efe2ccc114610524578063f243cc6a14610545578063f7e901d31461056c578063fe0c2a311461058c575f80fd5b8063a96a6b211461048b578063b5f63ec5146104ab578063bb7d6b67146104cb578063bbcaa637146104ed575f80fd5b806392c2808f116100ef57806392c2808f1461043657806392d663131461043f578063996440c6146104525780639cd3f9a414610465578063a49b172514610478575f80fd5b806375c6a96c146103c057806387dcd2b6146103e55780638f9c79ed1461041057806392b3141d14610423575f80fd5b806348e64d80116101a0578063666e1b3911610170578063666e1b391461034357806366adec5614610365578063686e1f1b146103785780636e2c0ffe1461038b5780637065cb48146103ad575f80fd5b806348e64d80146102fe57806355d2df121461031157806364319e331461033157806365b44d7e1461033a575f80fd5b80631a757712116101e65780631a757712146102785780631f650cc91461028b5780631f6d15fc146102b55780632f54bf6e146102c857806334a9e6eb146102eb575f80fd5b806304028017146102175780630e37008a1461022c578063163972a314610252578063173825d914610265575b5f80fd5b61022a610225366004614694565b6105b6565b005b61023f61023a3660046146ad565b61071f565b6040519081526020015b60405180910390f35b61022a610260366004614761565b61079c565b61022a610273366004614694565b610b94565b61022a6102863660046148e4565b610c0e565b61029e610299366004614694565b610d95565b6040516102499b9a999897969594939291906149cb565b61022a6102c3366004614a7b565b611119565b6102db6102d6366004614694565b611195565b6040519015158152602001610249565b61022a6102f9366004614af9565b6111c2565b61022a61030c366004614be0565b611390565b61032461031f366004614694565b611529565b6040516102499190614c7c565b61023f600a5481565b61023f60095481565b6102db610351366004614694565b5f6020819052908152604090205460ff1681565b61022a610373366004614af9565b6116c4565b61022a610386366004614694565b611934565b61039e610399366004614d0b565b611ad4565b60405161024993929190614d33565b61022a6103bb366004614694565b611c20565b6103d36103ce366004614694565b611c9d565b60405161024996959493929190614d67565b6001546103f8906001600160a01b031681565b6040516001600160a01b039091168152602001610249565b6102db61041e366004614694565b611e71565b61022a610431366004614be0565b611ebe565b61023f600b5481565b61023f61044d3660046146ad565b6120f2565b6102db610460366004614694565b612101565b61022a610473366004614dc7565b612129565b61022a6104863660046148e4565b6123ee565b61049e610499366004614694565b612600565b6040516102499190614ef0565b6104be6104b9366004614694565b6128e7565b6040516102499190614f76565b6102db6104d9366004614694565b60066020525f908152604090205460ff1681565b6105006104fb366004614694565b612f25565b6040516102499594939291906150dc565b61022a61051f366004614dc7565b6130ef565b610537610532366004614694565b613310565b6040516102499291906151f2565b610558610553366004614694565b613c08565b604051610249989796959493929190615309565b61057f61057a366004614694565b613e78565b604051610249919061538e565b61059f61059a366004614d0b565b614146565b6040516102499b9a9998979695949392919061540e565b335f9081526020819052604090205460ff16806105dd57506001546001600160a01b031633145b6106025760405162461bcd60e51b81526004016105f9906154f4565b60405180910390fd5b335f908152602081905260409020805460ff191660011790556001600160a01b0381166106635760405162461bcd60e51b815260206004820152600f60248201526e496e76616c6964204164647265737360881b60448201526064016105f9565b6001600160a01b0381165f9081526006602052604090205460ff166106ff5760405162461bcd60e51b815260206004820152604660248201527f50726f76696465642061646472657373206d75737420626520616e2041646d6960448201527f6e4163636573734164647265737320746f2072656d6f76652041646d696e416360648201526563657373212160d01b608482015260a4016105f9565b6001600160a01b03165f908152600660205260409020805460ff19169055565b5f8061072a426120f2565b90505f8361073a836107b2615552565b6107449190615565565b90505f81116107955760405162461bcd60e51b815260206004820152601860248201527f456e74657220636f72726563742062697274682079656172000000000000000060448201526064016105f9565b9392505050565b335f9081526006602052604081205460ff16156107b7575060015b335f9081526006602052604090205460ff166107e55760405162461bcd60e51b81526004016105f990615578565b6001600160a01b03808b165f818152600260208190526040909120015490911614801561082e57506001600160a01b03808b165f81815260036020526040902060010154909116145b6109125760405162461bcd60e51b815260206004820152609960248201527f496e636f72726563742050617469656e742077616c6c6574206164647265737360448201527f206f72205468652050617469656e742064657461696c2073706563696669632060648201527f746f20706572736f6e616c206f722070617374206d65646963616c206869737460848201527f6f7279206f662074686520616464726573732070726f7669646564206e6f742060a48201527f617661696c61626c6520696e2074686520636861696e2121200000000000000060c482015260e4016105f9565b6001600160a01b03808a165f81815260076020526040902060010154909116146109e45760405162461bcd60e51b815260206004820152607160248201527f496e636f72726563742050687973696369616e2077616c6c657420616464726560448201527f7373206f72205468652050687973696369616e2064657461696c20666f72207460648201527f686520616464726573732070726f7669646564206e6f7420617661696c61626c6084820152700329034b7103a34329031b430b4b710909607d1b60a482015260c4016105f9565b60045f8b6001600160a01b03166001600160a01b031681526020019081526020015f206040518061016001604052808e81526020018d81526020018c6001600160a01b031681526020018b6001600160a01b031681526020018a815260200189815260200188815260200187815260200186815260200185815260200184815250908060018154018082558091505060019003905f5260205f2090600b02015f909190919091505f820151815f019081610a9e9190615666565b5060208201516001820190610ab39082615666565b5060408201516002820180546001600160a01b039283166001600160a01b031991821617909155606084015160038401805491909316911617905560808201516004820190610b029082615666565b5060a08201516005820190610b179082615666565b5060c08201516006820190610b2c9082615666565b5060e08201516007820190610b419082615666565b506101008201516008820190610b579082615666565b506101208201516009820190610b6d9082615666565b50610140820151600a820190610b839082615666565b505050505050505050505050505050565b6001546001600160a01b03163314610bee5760405162461bcd60e51b815260206004820152601f60248201527f41636365737365626c65206f6e6c7920666f722053757065724f776e6572730060448201526064016105f9565b6001600160a01b03165f908152602081905260409020805460ff19169055565b335f9081526020819052604090205460ff1680610c3557506001546001600160a01b031633145b610c515760405162461bcd60e51b81526004016105f9906154f4565b6001600160a01b03851615801590610c6957505f8151115b8015610c7557505f8651115b610c915760405162461bcd60e51b81526004016105f990615722565b6001600160a01b038086165f8181526007602052604090206001015490911614610ccd5760405162461bcd60e51b81526004016105f990615771565b6040805160c0810182528781526001600160a01b0387166020808301829052828401889052606083018790526080830186905260a083018590525f91825260079052919091208151859291908190610d259082615666565b5060208201516001820180546001600160a01b0319166001600160a01b0390921691909117905560408201516002820190610d609082615666565b50606082015160038201556080820151600482015560a08201516005820190610d899082615666565b50505050505050505050565b60026020525f9081526040902080548190610daf906155e0565b80601f0160208091040260200160405190810160405280929190818152602001828054610ddb906155e0565b8015610e265780601f10610dfd57610100808354040283529160200191610e26565b820191905f5260205f20905b815481529060010190602001808311610e0957829003601f168201915b505050505090806001018054610e3b906155e0565b80601f0160208091040260200160405190810160405280929190818152602001828054610e67906155e0565b8015610eb25780601f10610e8957610100808354040283529160200191610eb2565b820191905f5260205f20905b815481529060010190602001808311610e9557829003601f168201915b505050600284015460038501805494956001600160a01b03909216949193509150610edc906155e0565b80601f0160208091040260200160405190810160405280929190818152602001828054610f08906155e0565b8015610f535780601f10610f2a57610100808354040283529160200191610f53565b820191905f5260205f20905b815481529060010190602001808311610f3657829003601f168201915b505050505090806004018054610f68906155e0565b80601f0160208091040260200160405190810160405280929190818152602001828054610f94906155e0565b8015610fdf5780601f10610fb657610100808354040283529160200191610fdf565b820191905f5260205f20905b815481529060010190602001808311610fc257829003601f168201915b505050505090806005018054610ff4906155e0565b80601f0160208091040260200160405190810160405280929190818152602001828054611020906155e0565b801561106b5780601f106110425761010080835404028352916020019161106b565b820191905f5260205f20905b81548152906001019060200180831161104e57829003601f168201915b50505050509080600601549080600701549080600801805461108c906155e0565b80601f01602080910402602001604051908101604052809291908181526020018280546110b8906155e0565b80156111035780601f106110da57610100808354040283529160200191611103565b820191905f5260205f20905b8154815290600101906020018083116110e657829003601f168201915b50505050509080600901549080600a015490508b565b6040805160608101825242815260208082018681528284018590526001600160a01b0386165f908152600583529384208054600181810183559186529290942083516003909302019182555191928392908201906111779082615666565b506040820151600282019061118c9082615666565b50505050505050565b6001600160a01b0381165f9081526020819052604081205460ff16156111bd57506001919050565b919050565b335f9081526006602052604081205460ff16156111dd575060015b335f9081526006602052604090205460ff1661120b5760405162461bcd60e51b81526004016105f990615578565b6001600160a01b0388166112315760405162461bcd60e51b81526004016105f990615809565b6001600160a01b038089165f81815260026020819052604090912001549091161461126e5760405162461bcd60e51b81526004016105f99061584f565b60408051610100810182528a81526001600160a01b038a1660208083018290528a1515838501528915156060840152881515608084015260a0830188905260c0830187905260e083018690525f9182526003905291909120815181906112d49082615666565b5060208201516001820180546040850151606086015160808701511515600160b01b0260ff60b01b19911515600160a81b029190911661ffff60a81b19921515600160a01b026001600160a81b03199094166001600160a01b039096169590951792909217169290921791909117905560a082015160028201906113589082615666565b5060c0820151600382019061136d9082615666565b5060e082015160048201906113829082615666565b505050505050505050505050565b335f9081526020819052604090205460ff16806113b757506001546001600160a01b031633145b6113d35760405162461bcd60e51b81526004016105f9906154f4565b6001600160a01b038516158015906113eb57505f8151115b80156113f757505f8451115b801561140357505f8351115b6114475760405162461bcd60e51b8152602060048201526015602482015274656e74657220636f72726563742064657461696c7360581b60448201526064016105f9565b6001600160a01b038086165f81815260086020526040902054909116146114805760405162461bcd60e51b81526004016105f990615771565b6040805160a0810182526001600160a01b0387811680835260208084018681528486018a905260608501899052608085018890525f9283526008909152939020825181546001600160a01b0319169216919091178155915190919060018201906114ea9082615666565b50604082015160028201906114ff9082615666565b50606082015160038201906115149082615666565b50608082015181600401559050505050505050565b6001600160a01b0381165f908152600560209081526040808320805482518185028101850190935280835260609492939192909184015b828210156116b9578382905f5260205f2090600302016040518060600160405290815f820154815260200160018201805461159a906155e0565b80601f01602080910402602001604051908101604052809291908181526020018280546115c6906155e0565b80156116115780601f106115e857610100808354040283529160200191611611565b820191905f5260205f20905b8154815290600101906020018083116115f457829003601f168201915b5050505050815260200160028201805461162a906155e0565b80601f0160208091040260200160405190810160405280929190818152602001828054611656906155e0565b80156116a15780601f10611678576101008083540402835291602001916116a1565b820191905f5260205f20905b81548152906001019060200180831161168457829003601f168201915b50505050508152505081526020019060010190611560565b505050509050919050565b335f9081526006602052604081205460ff16156116df575060015b335f9081526006602052604090205460ff1661170d5760405162461bcd60e51b81526004016105f990615578565b6001600160a01b038089165f81815260036020526040902060010154909116036117b25760405162461bcd60e51b815260206004820152604a60248201527f50617469656e74206d65646963616c2064657461696c7320616c72656164792060448201527f657869737421212e204b696e646c792065646974207468652064657461696c73606482015269081a59881b995959195960b21b608482015260a4016105f9565b6001600160a01b0388166117d85760405162461bcd60e51b81526004016105f990615809565b60408051610100810182528a81526001600160a01b038a1660208083018290528a1515838501528915156060840152881515608084015260a0830188905260c0830187905260e083018690525f91825260039052919091208151819061183e9082615666565b5060208201516001820180546040850151606086015160808701511515600160b01b0260ff60b01b19911515600160a81b029190911661ffff60a81b19921515600160a01b026001600160a81b03199094166001600160a01b039096169590951792909217169290921791909117905560a082015160028201906118c29082615666565b5060c082015160038201906118d79082615666565b5060e082015160048201906118ec9082615666565b5050506001600160a01b038089165f81815260026020819052604090912001549091160361192957600b8054905f611923836158e7565b91905055505b505050505050505050565b335f9081526020819052604090205460ff168061195b57506001546001600160a01b031633145b6119775760405162461bcd60e51b81526004016105f9906154f4565b335f9081526020819052604090205460ff166119ec5760405162461bcd60e51b815260206004820152602e60248201527f4f6e6c79206f776e6572206861732070726976696c65676520746f206164642060448201526d6f776e657220616363657373212160901b60648201526084016105f9565b6001600160a01b0381165f9081526006602052604090205460ff1615611a545760405162461bcd60e51b815260206004820181905260248201527f4164647265737320616c7265616479206861732061646d696e2061636365737360448201526064016105f9565b6001600160a01b038116611a9c5760405162461bcd60e51b815260206004820152600f60248201526e496e76616c6964204164647265737360881b60448201526064016105f9565b6001600160a01b0381165f908152600660205260408120805460ff19166001179055600a805491611acc836158e7565b919050555050565b6005602052815f5260405f208181548110611aed575f80fd5b905f5260205f2090600302015f9150915050805f015490806001018054611b13906155e0565b80601f0160208091040260200160405190810160405280929190818152602001828054611b3f906155e0565b8015611b8a5780601f10611b6157610100808354040283529160200191611b8a565b820191905f5260205f20905b815481529060010190602001808311611b6d57829003601f168201915b505050505090806002018054611b9f906155e0565b80601f0160208091040260200160405190810160405280929190818152602001828054611bcb906155e0565b8015611c165780601f10611bed57610100808354040283529160200191611c16565b820191905f5260205f20905b815481529060010190602001808311611bf957829003601f168201915b5050505050905083565b6001546001600160a01b03163314611c7a5760405162461bcd60e51b815260206004820152601f60248201527f41636365737365626c65206f6e6c7920666f722053757065724f776e6572730060448201526064016105f9565b6001600160a01b03165f908152602081905260409020805460ff19166001179055565b60076020525f9081526040902080548190611cb7906155e0565b80601f0160208091040260200160405190810160405280929190818152602001828054611ce3906155e0565b8015611d2e5780601f10611d0557610100808354040283529160200191611d2e565b820191905f5260205f20905b815481529060010190602001808311611d1157829003601f168201915b505050600184015460028501805494956001600160a01b03909216949193509150611d58906155e0565b80601f0160208091040260200160405190810160405280929190818152602001828054611d84906155e0565b8015611dcf5780601f10611da657610100808354040283529160200191611dcf565b820191905f5260205f20905b815481529060010190602001808311611db257829003601f168201915b505050505090806003015490806004015490806005018054611df0906155e0565b80601f0160208091040260200160405190810160405280929190818152602001828054611e1c906155e0565b8015611e675780601f10611e3e57610100808354040283529160200191611e67565b820191905f5260205f20905b815481529060010190602001808311611e4a57829003601f168201915b5050505050905086565b6001600160a01b038082165f818152600260208190526040822001549092161480611eb857506001600160a01b038083165f81815260036020526040902060010154909116145b92915050565b335f9081526020819052604090205460ff1680611ee557506001546001600160a01b031633145b611f015760405162461bcd60e51b81526004016105f9906154f4565b6001600160a01b038086165f8181526008602052604090205490911603611f815760405162461bcd60e51b815260206004820152602e60248201527f50687973696369616e2050726f66657373696f6e616c2064657461696c73206160448201526d6c7265616479206578697374212160901b60648201526084016105f9565b6001600160a01b038086165f8181526008602052604090205490911614801590611fab57505f8151115b8015611fb757505f8451115b8015611fc357505f8351115b6120075760405162461bcd60e51b8152602060048201526015602482015274456e74657220436f72726563742064657461696c7360581b60448201526064016105f9565b6040805160a0810182526001600160a01b0387811680835260208084018681528486018a905260608501899052608085018890525f9283526008909152939020825181546001600160a01b0319169216919091178155915190919060018201906120719082615666565b50604082015160028201906120869082615666565b506060820151600382019061209b9082615666565b50608091909101516004909101556001600160a01b038086165f81815260076020526040902060010154909116036120eb576120d685611934565b60098054905f6120e5836158e7565b91905055505b5050505050565b5f611eb86301e13380836158ff565b6001600160a01b0381165f9081526006602052604081205460ff16156111bd57506001919050565b335f9081526006602052604081205460ff1615612144575060015b335f9081526006602052604090205460ff166121725760405162461bcd60e51b81526004016105f990615578565b6001600160a01b03808b165f81815260026020819052604090912001549091160361221a5760405162461bcd60e51b815260206004820152604c60248201527f50617469656e742773204d65646963616c2064657461696c7320616c7265616460448201527f7920657869737421212e204b696e646c7920656469742074686520646574616960648201526b1b1cc81a59881b995959195960a21b608482015260a4016105f9565b6001600160a01b038a161580159061223257505f8951115b801561223e57505f8851115b61225a5760405162461bcd60e51b81526004016105f990615809565b5f8690506040518061016001604052808e81526020018d81526020018c6001600160a01b031681526020018b81526020018a81526020018981526020018281526020018781526020018681526020018581526020018481525060025f8d6001600160a01b03166001600160a01b031681526020019081526020015f205f820151815f0190816122e99190615666565b50602082015160018201906122fe9082615666565b5060408201516002820180546001600160a01b0319166001600160a01b03909216919091179055606082015160038201906123399082615666565b506080820151600482019061234e9082615666565b5060a082015160058201906123639082615666565b5060c0820151600682015560e08201516007820155610100820151600882019061238d9082615666565b50610120820151600982015561014090910151600a909101556001600160a01b03808c165f81815260036020526040902060010154909116036123df57600b8054905f6123d9836158e7565b91905055505b50505050505050505050505050565b335f9081526020819052604090205460ff168061241557506001546001600160a01b031633145b6124315760405162461bcd60e51b81526004016105f9906154f4565b6001600160a01b038086165f81815260076020526040902060010154909116036124af5760405162461bcd60e51b815260206004820152602960248201527f50687973696369616e20706572736f6e616c2064657461696c20616c7265616460448201526879206578697374212160b81b60648201526084016105f9565b6001600160a01b038516158015906124c657505f82115b80156124d257505f8151115b80156124de57505f8651115b6124fa5760405162461bcd60e51b81526004016105f990615722565b6040805160c0810182528781526001600160a01b0387166020808301829052828401889052606083018790526080830186905260a083018590525f918252600790529190912081518592919081906125529082615666565b5060208201516001820180546001600160a01b0319166001600160a01b039092169190911790556040820151600282019061258d9082615666565b50606082015160038201556080820151600482015560a082015160058201906125b69082615666565b5050506001600160a01b038087165f818152600860205260409020549091160361118c576125e386611934565b60098054905f6125f2836158e7565b919050555050505050505050565b61263f6040518060c00160405280606081526020015f6001600160a01b03168152602001606081526020015f81526020015f8152602001606081525090565b335f9081526020819052604090205460ff168061266657506001546001600160a01b031633145b6126825760405162461bcd60e51b81526004016105f9906154f4565b6001600160a01b0382166126a85760405162461bcd60e51b81526004016105f99061591e565b6001600160a01b038083165f81815260076020526040902060010154909116146126e45760405162461bcd60e51b81526004016105f990615955565b6001600160a01b0382165f9081526007602052604090819020815160c08101909252805482908290612715906155e0565b80601f0160208091040260200160405190810160405280929190818152602001828054612741906155e0565b801561278c5780601f106127635761010080835404028352916020019161278c565b820191905f5260205f20905b81548152906001019060200180831161276f57829003601f168201915b505050918352505060018201546001600160a01b031660208201526002820180546040909201916127bc906155e0565b80601f01602080910402602001604051908101604052809291908181526020018280546127e8906155e0565b80156128335780601f1061280a57610100808354040283529160200191612833565b820191905f5260205f20905b81548152906001019060200180831161281657829003601f168201915b505050505081526020016003820154815260200160048201548152602001600582018054612860906155e0565b80601f016020809104026020016040519081016040528092919081815260200182805461288c906155e0565b80156128d75780601f106128ae576101008083540402835291602001916128d7565b820191905f5260205f20905b8154815290600101906020018083116128ba57829003601f168201915b5050505050815250509050919050565b335f81815260026020819052604090912001546060916001600160a01b03909116148061292c5750335f818152600360205260409020600101546001600160a01b0316145b806129455750335f9081526006602052604090205460ff165b8061295e5750335f9081526020819052604090205460ff165b8061297357506001546001600160a01b031633145b61298f5760405162461bcd60e51b81526004016105f9906159fe565b6001600160a01b0382165f90815260046020908152604080832080548251818502810185019093528083529193909284015b828210156116b9578382905f5260205f2090600b0201604051806101600160405290815f820180546129f2906155e0565b80601f0160208091040260200160405190810160405280929190818152602001828054612a1e906155e0565b8015612a695780601f10612a4057610100808354040283529160200191612a69565b820191905f5260205f20905b815481529060010190602001808311612a4c57829003601f168201915b50505050508152602001600182018054612a82906155e0565b80601f0160208091040260200160405190810160405280929190818152602001828054612aae906155e0565b8015612af95780601f10612ad057610100808354040283529160200191612af9565b820191905f5260205f20905b815481529060010190602001808311612adc57829003601f168201915b505050918352505060028201546001600160a01b0390811660208301526003830154166040820152600482018054606090920191612b36906155e0565b80601f0160208091040260200160405190810160405280929190818152602001828054612b62906155e0565b8015612bad5780601f10612b8457610100808354040283529160200191612bad565b820191905f5260205f20905b815481529060010190602001808311612b9057829003601f168201915b50505050508152602001600582018054612bc6906155e0565b80601f0160208091040260200160405190810160405280929190818152602001828054612bf2906155e0565b8015612c3d5780601f10612c1457610100808354040283529160200191612c3d565b820191905f5260205f20905b815481529060010190602001808311612c2057829003601f168201915b50505050508152602001600682018054612c56906155e0565b80601f0160208091040260200160405190810160405280929190818152602001828054612c82906155e0565b8015612ccd5780601f10612ca457610100808354040283529160200191612ccd565b820191905f5260205f20905b815481529060010190602001808311612cb057829003601f168201915b50505050508152602001600782018054612ce6906155e0565b80601f0160208091040260200160405190810160405280929190818152602001828054612d12906155e0565b8015612d5d5780601f10612d3457610100808354040283529160200191612d5d565b820191905f5260205f20905b815481529060010190602001808311612d4057829003601f168201915b50505050508152602001600882018054612d76906155e0565b80601f0160208091040260200160405190810160405280929190818152602001828054612da2906155e0565b8015612ded5780601f10612dc457610100808354040283529160200191612ded565b820191905f5260205f20905b815481529060010190602001808311612dd057829003601f168201915b50505050508152602001600982018054612e06906155e0565b80601f0160208091040260200160405190810160405280929190818152602001828054612e32906155e0565b8015612e7d5780601f10612e5457610100808354040283529160200191612e7d565b820191905f5260205f20905b815481529060010190602001808311612e6057829003601f168201915b50505050508152602001600a82018054612e96906155e0565b80601f0160208091040260200160405190810160405280929190818152602001828054612ec2906155e0565b8015612f0d5780601f10612ee457610100808354040283529160200191612f0d565b820191905f5260205f20905b815481529060010190602001808311612ef057829003601f168201915b505050505081525050815260200190600101906129c1565b60086020525f9081526040902080546001820180546001600160a01b039092169291612f50906155e0565b80601f0160208091040260200160405190810160405280929190818152602001828054612f7c906155e0565b8015612fc75780601f10612f9e57610100808354040283529160200191612fc7565b820191905f5260205f20905b815481529060010190602001808311612faa57829003601f168201915b505050505090806002018054612fdc906155e0565b80601f0160208091040260200160405190810160405280929190818152602001828054613008906155e0565b80156130535780601f1061302a57610100808354040283529160200191613053565b820191905f5260205f20905b81548152906001019060200180831161303657829003601f168201915b505050505090806003018054613068906155e0565b80601f0160208091040260200160405190810160405280929190818152602001828054613094906155e0565b80156130df5780601f106130b6576101008083540402835291602001916130df565b820191905f5260205f20905b8154815290600101906020018083116130c257829003601f168201915b5050505050908060040154905085565b335f9081526006602052604081205460ff161561310a575060015b335f9081526006602052604090205460ff166131385760405162461bcd60e51b81526004016105f990615578565b6001600160a01b038a161580159061315057505f8951115b801561315c57505f8851115b6131785760405162461bcd60e51b81526004016105f990615809565b6001600160a01b03808b165f8181526002602081905260409091200154909116146131b55760405162461bcd60e51b81526004016105f99061584f565b5f8690506040518061016001604052808e81526020018d81526020018c6001600160a01b031681526020018b81526020018a81526020018981526020018281526020018781526020018681526020018581526020018481525060025f8d6001600160a01b03166001600160a01b031681526020019081526020015f205f820151815f0190816132449190615666565b50602082015160018201906132599082615666565b5060408201516002820180546001600160a01b0319166001600160a01b03909216919091179055606082015160038201906132949082615666565b50608082015160048201906132a99082615666565b5060a082015160058201906132be9082615666565b5060c0820151600682015560e0820151600782015561010082015160088201906132e89082615666565b50610120820151600982015561014090910151600a9091015550505050505050505050505050565b61337160405180610160016040528060608152602001606081526020015f6001600160a01b031681526020016060815260200160608152602001606081526020015f81526020015f8152602001606081526020015f81526020015f81525090565b6133c4604051806101000160405280606081526020015f6001600160a01b031681526020015f151581526020015f151581526020015f151581526020016060815260200160608152602001606081525090565b335f81815260026020819052604090912001546001600160a01b031614806134045750335f818152600360205260409020600101546001600160a01b0316145b8061341d5750335f9081526006602052604090205460ff165b806134365750335f9081526020819052604090205460ff165b8061344b57506001546001600160a01b031633145b6134675760405162461bcd60e51b81526004016105f9906159fe565b6001600160a01b03831661348d5760405162461bcd60e51b81526004016105f99061591e565b6001600160a01b038084165f81815260026020819052604090912001549091161480156134d657506001600160a01b038084165f81815260036020526040902060010154909116145b6135945760405162461bcd60e51b815260206004820152607960248201527f496e636f72726563742050617469656e742077616c6c6574206164647265737360448201527f206f72205468652050617469656e742064657461696c20666f7220746865206160648201527f6464726573732070726f7669646564206973206e6f7420636f6d706c65746c7960848201527f20617661696c61626c6520696e2074686520636861696e21210000000000000060a482015260c4016105f9565b6001600160a01b0383165f908152600260209081526040808320600390925291829020825161016081019093528154919290918390829082906135d6906155e0565b80601f0160208091040260200160405190810160405280929190818152602001828054613602906155e0565b801561364d5780601f106136245761010080835404028352916020019161364d565b820191905f5260205f20905b81548152906001019060200180831161363057829003601f168201915b50505050508152602001600182018054613666906155e0565b80601f0160208091040260200160405190810160405280929190818152602001828054613692906155e0565b80156136dd5780601f106136b4576101008083540402835291602001916136dd565b820191905f5260205f20905b8154815290600101906020018083116136c057829003601f168201915b505050918352505060028201546001600160a01b0316602082015260038201805460409092019161370d906155e0565b80601f0160208091040260200160405190810160405280929190818152602001828054613739906155e0565b80156137845780601f1061375b57610100808354040283529160200191613784565b820191905f5260205f20905b81548152906001019060200180831161376757829003601f168201915b5050505050815260200160048201805461379d906155e0565b80601f01602080910402602001604051908101604052809291908181526020018280546137c9906155e0565b80156138145780601f106137eb57610100808354040283529160200191613814565b820191905f5260205f20905b8154815290600101906020018083116137f757829003601f168201915b5050505050815260200160058201805461382d906155e0565b80601f0160208091040260200160405190810160405280929190818152602001828054613859906155e0565b80156138a45780601f1061387b576101008083540402835291602001916138a4565b820191905f5260205f20905b81548152906001019060200180831161388757829003601f168201915b5050505050815260200160068201548152602001600782015481526020016008820180546138d1906155e0565b80601f01602080910402602001604051908101604052809291908181526020018280546138fd906155e0565b80156139485780601f1061391f57610100808354040283529160200191613948565b820191905f5260205f20905b81548152906001019060200180831161392b57829003601f168201915b5050505050815260200160098201548152602001600a82015481525050915080604051806101000160405290815f82018054613983906155e0565b80601f01602080910402602001604051908101604052809291908181526020018280546139af906155e0565b80156139fa5780601f106139d1576101008083540402835291602001916139fa565b820191905f5260205f20905b8154815290600101906020018083116139dd57829003601f168201915b505050918352505060018201546001600160a01b038116602083015260ff600160a01b8204811615156040840152600160a81b8204811615156060840152600160b01b909104161515608082015260028201805460a090920191613a5d906155e0565b80601f0160208091040260200160405190810160405280929190818152602001828054613a89906155e0565b8015613ad45780601f10613aab57610100808354040283529160200191613ad4565b820191905f5260205f20905b815481529060010190602001808311613ab757829003601f168201915b50505050508152602001600382018054613aed906155e0565b80601f0160208091040260200160405190810160405280929190818152602001828054613b19906155e0565b8015613b645780601f10613b3b57610100808354040283529160200191613b64565b820191905f5260205f20905b815481529060010190602001808311613b4757829003601f168201915b50505050508152602001600482018054613b7d906155e0565b80601f0160208091040260200160405190810160405280929190818152602001828054613ba9906155e0565b8015613bf45780601f10613bcb57610100808354040283529160200191613bf4565b820191905f5260205f20905b815481529060010190602001808311613bd757829003601f168201915b505050505081525050905091509150915091565b60036020525f9081526040902080548190613c22906155e0565b80601f0160208091040260200160405190810160405280929190818152602001828054613c4e906155e0565b8015613c995780601f10613c7057610100808354040283529160200191613c99565b820191905f5260205f20905b815481529060010190602001808311613c7c57829003601f168201915b50505050600183015460028401805493946001600160a01b0383169460ff600160a01b850481169550600160a81b8504811694600160b01b9004169290613cdf906155e0565b80601f0160208091040260200160405190810160405280929190818152602001828054613d0b906155e0565b8015613d565780601f10613d2d57610100808354040283529160200191613d56565b820191905f5260205f20905b815481529060010190602001808311613d3957829003601f168201915b505050505090806003018054613d6b906155e0565b80601f0160208091040260200160405190810160405280929190818152602001828054613d97906155e0565b8015613de25780601f10613db957610100808354040283529160200191613de2565b820191905f5260205f20905b815481529060010190602001808311613dc557829003601f168201915b505050505090806004018054613df7906155e0565b80601f0160208091040260200160405190810160405280929190818152602001828054613e23906155e0565b8015613e6e5780601f10613e4557610100808354040283529160200191613e6e565b820191905f5260205f20905b815481529060010190602001808311613e5157829003601f168201915b5050505050905088565b613eb16040518060a001604052805f6001600160a01b031681526020016060815260200160608152602001606081526020015f81525090565b335f9081526020819052604090205460ff1680613ed857506001546001600160a01b031633145b613ef45760405162461bcd60e51b81526004016105f9906154f4565b6001600160a01b038216613f1a5760405162461bcd60e51b81526004016105f99061591e565b6001600160a01b038083165f8181526008602052604090205490911614613f535760405162461bcd60e51b81526004016105f990615955565b6001600160a01b038083165f90815260086020908152604091829020825160a081019093528054909316825260018301805492939291840191613f95906155e0565b80601f0160208091040260200160405190810160405280929190818152602001828054613fc1906155e0565b801561400c5780601f10613fe35761010080835404028352916020019161400c565b820191905f5260205f20905b815481529060010190602001808311613fef57829003601f168201915b50505050508152602001600282018054614025906155e0565b80601f0160208091040260200160405190810160405280929190818152602001828054614051906155e0565b801561409c5780601f106140735761010080835404028352916020019161409c565b820191905f5260205f20905b81548152906001019060200180831161407f57829003601f168201915b505050505081526020016003820180546140b5906155e0565b80601f01602080910402602001604051908101604052809291908181526020018280546140e1906155e0565b801561412c5780601f106141035761010080835404028352916020019161412c565b820191905f5260205f20905b81548152906001019060200180831161410f57829003601f168201915b505050505081526020016004820154815250509050919050565b6004602052815f5260405f20818154811061415f575f80fd5b905f5260205f2090600b02015f9150915050805f01805461417f906155e0565b80601f01602080910402602001604051908101604052809291908181526020018280546141ab906155e0565b80156141f65780601f106141cd576101008083540402835291602001916141f6565b820191905f5260205f20905b8154815290600101906020018083116141d957829003601f168201915b50505050509080600101805461420b906155e0565b80601f0160208091040260200160405190810160405280929190818152602001828054614237906155e0565b80156142825780601f1061425957610100808354040283529160200191614282565b820191905f5260205f20905b81548152906001019060200180831161426557829003601f168201915b5050506002840154600385015460048601805495966001600160a01b03938416969290931694509192506142b5906155e0565b80601f01602080910402602001604051908101604052809291908181526020018280546142e1906155e0565b801561432c5780601f106143035761010080835404028352916020019161432c565b820191905f5260205f20905b81548152906001019060200180831161430f57829003601f168201915b505050505090806005018054614341906155e0565b80601f016020809104026020016040519081016040528092919081815260200182805461436d906155e0565b80156143b85780601f1061438f576101008083540402835291602001916143b8565b820191905f5260205f20905b81548152906001019060200180831161439b57829003601f168201915b5050505050908060060180546143cd906155e0565b80601f01602080910402602001604051908101604052809291908181526020018280546143f9906155e0565b80156144445780601f1061441b57610100808354040283529160200191614444565b820191905f5260205f20905b81548152906001019060200180831161442757829003601f168201915b505050505090806007018054614459906155e0565b80601f0160208091040260200160405190810160405280929190818152602001828054614485906155e0565b80156144d05780601f106144a7576101008083540402835291602001916144d0565b820191905f5260205f20905b8154815290600101906020018083116144b357829003601f168201915b5050505050908060080180546144e5906155e0565b80601f0160208091040260200160405190810160405280929190818152602001828054614511906155e0565b801561455c5780601f106145335761010080835404028352916020019161455c565b820191905f5260205f20905b81548152906001019060200180831161453f57829003601f168201915b505050505090806009018054614571906155e0565b80601f016020809104026020016040519081016040528092919081815260200182805461459d906155e0565b80156145e85780601f106145bf576101008083540402835291602001916145e8565b820191905f5260205f20905b8154815290600101906020018083116145cb57829003601f168201915b50505050509080600a0180546145fd906155e0565b80601f0160208091040260200160405190810160405280929190818152602001828054614629906155e0565b80156146745780601f1061464b57610100808354040283529160200191614674565b820191905f5260205f20905b81548152906001019060200180831161465757829003601f168201915b505050505090508b565b80356001600160a01b03811681146111bd575f80fd5b5f602082840312156146a4575f80fd5b6107958261467e565b5f602082840312156146bd575f80fd5b5035919050565b634e487b7160e01b5f52604160045260245ffd5b5f82601f8301126146e7575f80fd5b813567ffffffffffffffff80821115614702576147026146c4565b604051601f8301601f19908116603f0116810190828211818310171561472a5761472a6146c4565b81604052838152866020858801011115614742575f80fd5b836020870160208301375f602085830101528094505050505092915050565b5f805f805f805f805f805f6101608c8e03121561477c575f80fd5b67ffffffffffffffff808d351115614792575f80fd5b61479f8e8e358f016146d8565b9b508060208e013511156147b1575f80fd5b6147c18e60208f01358f016146d8565b9a506147cf60408e0161467e565b99506147dd60608e0161467e565b98508060808e013511156147ef575f80fd5b6147ff8e60808f01358f016146d8565b97508060a08e01351115614811575f80fd5b6148218e60a08f01358f016146d8565b96508060c08e01351115614833575f80fd5b6148438e60c08f01358f016146d8565b95508060e08e01351115614855575f80fd5b6148658e60e08f01358f016146d8565b9450806101008e01351115614878575f80fd5b6148898e6101008f01358f016146d8565b9350806101208e0135111561489c575f80fd5b6148ad8e6101208f01358f016146d8565b9250806101408e013511156148c0575f80fd5b506148d28d6101408e01358e016146d8565b90509295989b509295989b9093969950565b5f805f805f8060c087890312156148f9575f80fd5b863567ffffffffffffffff80821115614910575f80fd5b61491c8a838b016146d8565b975061492a60208a0161467e565b9650604089013591508082111561493f575f80fd5b61494b8a838b016146d8565b9550606089013594506080890135935060a089013591508082111561496e575f80fd5b5061497b89828a016146d8565b9150509295509295509295565b5f81518084525f5b818110156149ac57602081850181015186830182015201614990565b505f602082860101526020601f19601f83011685010191505092915050565b5f6101608083526149de8184018f614988565b905082810360208401526149f2818e614988565b6001600160a01b038d16604085015283810360608501529050614a15818c614988565b90508281036080840152614a29818b614988565b905082810360a0840152614a3d818a614988565b90508760c08401528660e0840152828103610100840152614a5e8187614988565b610120840195909552505061014001529998505050505050505050565b5f805f60608486031215614a8d575f80fd5b833567ffffffffffffffff80821115614aa4575f80fd5b614ab0878388016146d8565b9450614abe6020870161467e565b93506040860135915080821115614ad3575f80fd5b50614ae0868287016146d8565b9150509250925092565b803580151581146111bd575f80fd5b5f805f805f805f80610100898b031215614b11575f80fd5b883567ffffffffffffffff80821115614b28575f80fd5b614b348c838d016146d8565b9950614b4260208c0161467e565b9850614b5060408c01614aea565b9750614b5e60608c01614aea565b9650614b6c60808c01614aea565b955060a08b0135915080821115614b81575f80fd5b614b8d8c838d016146d8565b945060c08b0135915080821115614ba2575f80fd5b614bae8c838d016146d8565b935060e08b0135915080821115614bc3575f80fd5b50614bd08b828c016146d8565b9150509295985092959890939650565b5f805f805f60a08688031215614bf4575f80fd5b614bfd8661467e565b9450602086013567ffffffffffffffff80821115614c19575f80fd5b614c2589838a016146d8565b95506040880135915080821115614c3a575f80fd5b614c4689838a016146d8565b9450606088013593506080880135915080821115614c62575f80fd5b50614c6f888289016146d8565b9150509295509295909350565b5f6020808301818452808551808352604092508286019150828160051b8701018488015f5b83811015614cfd57603f19898403018552815160608151855288820151818a870152614ccf82870182614988565b91505087820151915084810388860152614ce98183614988565b968901969450505090860190600101614ca1565b509098975050505050505050565b5f8060408385031215614d1c575f80fd5b614d258361467e565b946020939093013593505050565b838152606060208201525f614d4b6060830185614988565b8281036040840152614d5d8185614988565b9695505050505050565b60c081525f614d7960c0830189614988565b6001600160a01b03881660208401528281036040840152614d9a8188614988565b905085606084015284608084015282810360a0840152614dba8185614988565b9998505050505050505050565b5f805f805f805f805f805f6101608c8e031215614de2575f80fd5b67ffffffffffffffff808d351115614df8575f80fd5b614e058e8e358f016146d8565b9b508060208e01351115614e17575f80fd5b614e278e60208f01358f016146d8565b9a50614e3560408e0161467e565b99508060608e01351115614e47575f80fd5b614e578e60608f01358f016146d8565b98508060808e01351115614e69575f80fd5b614e798e60808f01358f016146d8565b97508060a08e01351115614e8b575f80fd5b614e9b8e60a08f01358f016146d8565b965060c08d0135955060e08d01359450806101008e01351115614ebc575f80fd5b50614ece8d6101008e01358e016146d8565b92506101208c013591506101408c013590509295989b509295989b9093969950565b602081525f825160c06020840152614f0b60e0840182614988565b905060018060a01b0360208501511660408401526040840151601f1980858403016060860152614f3b8383614988565b925060608601516080860152608086015160a086015260a08601519150808584030160c086015250614f6d8282614988565b95945050505050565b5f6020808301818452808551808352604092508286019150828160051b8701018488015f5b83811015614cfd57603f1989840301855281516101608151818652614fc282870182614988565b915050888201518582038a870152614fda8282614988565b91505087820151614ff5898701826001600160a01b03169052565b506060828101516001600160a01b031690860152608080830151868303828801526150208382614988565b9250505060a0808301518683038288015261503b8382614988565b9250505060c080830151868303828801526150568382614988565b9250505060e080830151868303828801526150718382614988565b92505050610100808301518683038288015261508d8382614988565b9250505061012080830151868303828801526150a98382614988565b9250505061014080830151925085820381870152506150c88183614988565b968901969450505090860190600101614f9b565b6001600160a01b038616815260a0602082018190525f906150ff90830187614988565b82810360408401526151118187614988565b905082810360608401526151258186614988565b9150508260808301529695505050505050565b5f610100825181855261514d82860182614988565b915050602083015161516a60208601826001600160a01b03169052565b50604083015161517e604086018215159052565b506060830151615192606086018215159052565b5060808301516151a6608086018215159052565b5060a083015184820360a08601526151be8282614988565b91505060c083015184820360c08601526151d88282614988565b91505060e083015184820360e0860152614f6d8282614988565b604081525f83516101608060408501526152106101a0850183614988565b91506020860151603f198086850301606087015261522e8483614988565b93506040880151915061524c60808701836001600160a01b03169052565b60608801519150808685030160a08701526152678483614988565b935060808801519150808685030160c08701526152848483614988565b935060a08801519150808685030160e08701526152a18483614988565b935060c08801519150610100828188015260e089015192506101208381890152818a0151935061014091508288870301828901526152df8685614988565b908a015194880194909452880151610180870152505083810360208501529050614f6d8185615138565b5f61010080835261531c8184018c614988565b6001600160a01b038b16602085015289151560408501528815156060850152871515608085015283810360a085015290506153578187614988565b905082810360c084015261536b8186614988565b905082810360e084015261537f8185614988565b9b9a5050505050505050505050565b602080825282516001600160a01b03168282015282015160a060408301525f906153bb60c0840182614988565b90506040840151601f19808584030160608601526153d98383614988565b92506060860151915080858403016080860152506153f78282614988565b915050608084015160a08401528091505092915050565b5f6101608083526154218184018f614988565b90508281036020840152615435818e614988565b6001600160a01b038d16604085015290506001600160a01b038b1660608401528281036080840152615467818b614988565b905082810360a084015261547b818a614988565b905082810360c084015261548f8189614988565b905082810360e08401526154a38188614988565b90508281036101008401526154b88187614988565b90508281036101208401526154cd8186614988565b90508281036101408401526154e28185614988565b9e9d5050505050505050505050505050565b6020808252602a908201527f41636365737365626c65206f6e6c7920666f72204f776e65727320616e642053604082015269757065724f776e65727360b01b606082015260800190565b634e487b7160e01b5f52601160045260245ffd5b80820180821115611eb857611eb861553e565b81810381811115611eb857611eb861553e565b60208082526042908201527f4f6e6c792074686520446f63746f72732063616e2063616c6c2074686973206660408201527f756e6374696f6e2064756520746f20736563757269747920726561736f6e7321606082015261212160f01b608082015260a00190565b600181811c908216806155f457607f821691505b60208210810361561257634e487b7160e01b5f52602260045260245ffd5b50919050565b601f821115615661575f81815260208120601f850160051c8101602086101561563e5750805b601f850160051c820191505b8181101561565d5782815560010161564a565b5050505b505050565b815167ffffffffffffffff811115615680576156806146c4565b6156948161568e84546155e0565b84615618565b602080601f8311600181146156c7575f84156156b05750858301515b5f19600386901b1c1916600185901b17855561565d565b5f85815260208120601f198616915b828110156156f5578886015182559484019460019091019084016156d6565b508582101561571257878501515f19600388901b60f8161c191681555b5050505050600190811b01905550565b6020808252602f908201527f4b696e646c792066696c6c20616c6c20746865206d616e6461746f727920666560408201526e696c64732070726f7065726c79212160881b606082015260800190565b6020808252606c908201527f496e636f727265637420446f63746f7227732077616c6c65742061646472657360408201527f73206f722054686520446f63746f722064657461696c20666f7220746865206160608201527f6464726573732070726f7669646564206e6f7420617661696c61626c6520696e60808201526b2074686520636861696e212160a01b60a082015260c00190565b60208082526026908201527f4b696e646c792066696c6c20616c6c20746865206d616e6461746f7279206665604082015265696c6473212160d01b606082015260800190565b6020808252606c908201527f496e636f72726563742050617469656e742077616c6c6574206164647265737360408201527f206f72205468652050617469656e742064657461696c20666f7220746865206160608201527f6464726573732070726f7669646564206e6f7420617661696c61626c6520696e60808201526b2074686520636861696e212160a01b60a082015260c00190565b5f600182016158f8576158f861553e565b5060010190565b5f8261591957634e487b7160e01b5f52601260045260245ffd5b500490565b6020808252601e908201527f57616c6c657420416464726573732063616e6e6f7420626520656d7074790000604082015260600190565b60208082526078908201527f496e636f727265637420446f63746f722077616c6c657420616464726573732060408201527f6f722054686520446f63746f722064657461696c20666f72207468652061646460608201527f726573732070726f7669646564206973206e6f7420636f6d706c6574656c792060808201527f617661696c61626c6520696e2074686520636861696e2121000000000000000060a082015260c00190565b60208082526027908201527f596f752068617665206e6f2061636365737320746f206665746368207468652060408201526664657461696c7360c81b60608201526080019056fea264697066735822122009a213b5a0579feace29d88b29cdd166e31155dc8ba032a9fa6e8d91bd6d1d7e64736f6c63430008150033",
  "linkReferences": {},
  "deployedLinkReferences": {}
}