{
  "_format": "hh-sol-artifact-1",
  "contractName": "PatientDetails",
  "sourceName": "src/contracts/Patient.sol",
  "abi": [
    {
      "inputs": [],
      "stateMutability": "nonpayable",
      "type": "constructor"
    },
    {
      "inputs": [
        {
          "internalType": "address",
          "name": "_walletAddress",
          "type": "address"
        }
      ],
      "name": "AddDoctorAccess",
      "outputs": [],
      "stateMutability": "nonpayable",
      "type": "function"
    },
    {
      "inputs": [
        {
          "internalType": "string",
          "name": "_name",
          "type": "string"
        },
        {
          "internalType": "address",
          "name": "_walletAddress",
          "type": "address"
        },
        {
          "internalType": "string",
          "name": "_dateOfBirth",
          "type": "string"
        },
        {
          "internalType": "uint256",
          "name": "_age",
          "type": "uint256"
        },
        {
          "internalType": "uint256",
          "name": "_phoneNumber",
          "type": "uint256"
        },
        {
          "internalType": "string",
          "name": "_email",
          "type": "string"
        }
      ],
      "name": "AddDoctorPersonalInfo",
      "outputs": [],
      "stateMutability": "nonpayable",
      "type": "function"
    },
    {
      "inputs": [
        {
          "internalType": "address",
          "name": "_walletAddress",
          "type": "address"
        },
        {
          "internalType": "string",
          "name": "_MedicalLicenseNumber",
          "type": "string"
        },
        {
          "internalType": "string",
          "name": "_Specialization",
          "type": "string"
        },
        {
          "internalType": "uint256",
          "name": "_ExperienceInYear",
          "type": "uint256"
        },
        {
          "internalType": "string",
          "name": "_MedicalSchoolAttended",
          "type": "string"
        }
      ],
      "name": "AddDoctorProfessionalInfo",
      "outputs": [],
      "stateMutability": "nonpayable",
      "type": "function"
    },
    {
      "inputs": [
        {
          "internalType": "string",
          "name": "_date",
          "type": "string"
        },
        {
          "internalType": "address",
          "name": "_walletAddress",
          "type": "address"
        },
        {
          "internalType": "bool",
          "name": "_isAlcoholic",
          "type": "bool"
        },
        {
          "internalType": "bool",
          "name": "_isSmoker",
          "type": "bool"
        },
        {
          "internalType": "bool",
          "name": "_isSmokelessTobaccoUser",
          "type": "bool"
        },
        {
          "internalType": "string",
          "name": "_surgicalHistory_ifAny",
          "type": "string"
        },
        {
          "internalType": "string",
          "name": "_physicalActivityLevel",
          "type": "string"
        },
        {
          "internalType": "string",
          "name": "_pastMedicationDetails_IfAny",
          "type": "string"
        }
      ],
      "name": "AddPatientsMedicalDetails",
      "outputs": [],
      "stateMutability": "nonpayable",
      "type": "function"
    },
    {
      "inputs": [
        {
          "internalType": "string",
          "name": "date",
          "type": "string"
        },
        {
          "internalType": "string",
          "name": "_name",
          "type": "string"
        },
        {
          "internalType": "address",
          "name": "_walletAddress",
          "type": "address"
        },
        {
          "internalType": "string",
          "name": "_gender",
          "type": "string"
        },
        {
          "internalType": "string",
          "name": "_Occupation",
          "type": "string"
        },
        {
          "internalType": "string",
          "name": "_dateOfBirth",
          "type": "string"
        },
        {
          "internalType": "uint256",
          "name": "_age",
          "type": "uint256"
        },
        {
          "internalType": "uint256",
          "name": "number",
          "type": "uint256"
        }
      ],
      "name": "AddPatientsPersonalDetails",
      "outputs": [],
      "stateMutability": "nonpayable",
      "type": "function"
    },
    {
      "inputs": [
        {
          "internalType": "address",
          "name": "_walletAddress",
          "type": "address"
        }
      ],
      "name": "DeleteDoctorAccess",
      "outputs": [],
      "stateMutability": "nonpayable",
      "type": "function"
    },
    {
      "inputs": [
        {
          "internalType": "address",
          "name": "",
          "type": "address"
        }
      ],
      "name": "DoctorAccess",
      "outputs": [
        {
          "internalType": "bool",
          "name": "",
          "type": "bool"
        }
      ],
      "stateMutability": "view",
      "type": "function"
    },
    {
      "inputs": [
        {
          "internalType": "address",
          "name": "",
          "type": "address"
        }
      ],
      "name": "DoctorsPersonalInfo",
      "outputs": [
        {
          "internalType": "string",
          "name": "name",
          "type": "string"
        },
        {
          "internalType": "address",
          "name": "walletAddress",
          "type": "address"
        },
        {
          "internalType": "string",
          "name": "dateOfBirth",
          "type": "string"
        },
        {
          "internalType": "uint256",
          "name": "age",
          "type": "uint256"
        },
        {
          "internalType": "uint256",
          "name": "phoneNumber",
          "type": "uint256"
        },
        {
          "internalType": "string",
          "name": "email",
          "type": "string"
        }
      ],
      "stateMutability": "view",
      "type": "function"
    },
    {
      "inputs": [
        {
          "internalType": "address",
          "name": "",
          "type": "address"
        }
      ],
      "name": "Doctors_ProfessionalDetails",
      "outputs": [
        {
          "internalType": "address",
          "name": "walletAddress",
          "type": "address"
        },
        {
          "internalType": "string",
          "name": "MedicalSchoolAttended",
          "type": "string"
        },
        {
          "internalType": "string",
          "name": "MedicalLicenseNumber",
          "type": "string"
        },
        {
          "internalType": "string",
          "name": "Specialization",
          "type": "string"
        },
        {
          "internalType": "uint256",
          "name": "ExperienceInYear",
          "type": "uint256"
        }
      ],
      "stateMutability": "view",
      "type": "function"
    },
    {
      "inputs": [
        {
          "internalType": "string",
          "name": "_name",
          "type": "string"
        },
        {
          "internalType": "address",
          "name": "_walletAddress",
          "type": "address"
        },
        {
          "internalType": "string",
          "name": "_dateOfBirth",
          "type": "string"
        },
        {
          "internalType": "uint256",
          "name": "_age",
          "type": "uint256"
        },
        {
          "internalType": "uint256",
          "name": "_phoneNumber",
          "type": "uint256"
        },
        {
          "internalType": "string",
          "name": "_email",
          "type": "string"
        }
      ],
      "name": "EditDoctorPersonalDetails",
      "outputs": [],
      "stateMutability": "nonpayable",
      "type": "function"
    },
    {
      "inputs": [
        {
          "internalType": "address",
          "name": "_walletAddress",
          "type": "address"
        },
        {
          "internalType": "string",
          "name": "_MedicalLicenseNumber",
          "type": "string"
        },
        {
          "internalType": "string",
          "name": "_Specialization",
          "type": "string"
        },
        {
          "internalType": "uint256",
          "name": "_ExperienceInYear",
          "type": "uint256"
        },
        {
          "internalType": "string",
          "name": "_MedicalSchoolAttended",
          "type": "string"
        }
      ],
      "name": "EditDoctorProfessionalDetails",
      "outputs": [],
      "stateMutability": "nonpayable",
      "type": "function"
    },
    {
      "inputs": [
        {
          "internalType": "string",
          "name": "_date",
          "type": "string"
        },
        {
          "internalType": "string",
          "name": "_name",
          "type": "string"
        },
        {
          "internalType": "address",
          "name": "_walletAddress",
          "type": "address"
        },
        {
          "internalType": "string",
          "name": "_gender",
          "type": "string"
        },
        {
          "internalType": "string",
          "name": "_Occupation",
          "type": "string"
        },
        {
          "internalType": "string",
          "name": "_dateOfBirth",
          "type": "string"
        },
        {
          "internalType": "uint256",
          "name": "_age",
          "type": "uint256"
        },
        {
          "internalType": "uint256",
          "name": "number",
          "type": "uint256"
        }
      ],
      "name": "EditPatientPersonalDetails",
      "outputs": [],
      "stateMutability": "nonpayable",
      "type": "function"
    },
    {
      "inputs": [
        {
          "internalType": "string",
          "name": "_date",
          "type": "string"
        },
        {
          "internalType": "address",
          "name": "_walletAddress",
          "type": "address"
        },
        {
          "internalType": "bool",
          "name": "_isAlcoholic",
          "type": "bool"
        },
        {
          "internalType": "bool",
          "name": "_isSmoker",
          "type": "bool"
        },
        {
          "internalType": "bool",
          "name": "_isSmokelessTobaccoUser",
          "type": "bool"
        },
        {
          "internalType": "string",
          "name": "_surgicalHistory_ifAny",
          "type": "string"
        },
        {
          "internalType": "string",
          "name": "_physicalActivityLevel",
          "type": "string"
        },
        {
          "internalType": "string",
          "name": "_pastMedicationDetails_IfAny",
          "type": "string"
        }
      ],
      "name": "EditPatinetMedicalDetails",
      "outputs": [],
      "stateMutability": "nonpayable",
      "type": "function"
    },
    {
      "inputs": [
        {
          "internalType": "address",
          "name": "",
          "type": "address"
        },
        {
          "internalType": "uint256",
          "name": "",
          "type": "uint256"
        }
      ],
      "name": "HealthCondition",
      "outputs": [
        {
          "internalType": "string",
          "name": "date",
          "type": "string"
        },
        {
          "internalType": "address",
          "name": "walletAddress",
          "type": "address"
        },
        {
          "internalType": "address",
          "name": "physician",
          "type": "address"
        },
        {
          "internalType": "string",
          "name": "Department_uint",
          "type": "string"
        },
        {
          "internalType": "string",
          "name": "BloodPressure",
          "type": "string"
        },
        {
          "internalType": "string",
          "name": "HeartRate",
          "type": "string"
        },
        {
          "internalType": "string",
          "name": "RespiratoryRate",
          "type": "string"
        },
        {
          "internalType": "string",
          "name": "Dosage",
          "type": "string"
        }
      ],
      "stateMutability": "view",
      "type": "function"
    },
    {
      "inputs": [
        {
          "internalType": "address",
          "name": "",
          "type": "address"
        }
      ],
      "name": "PatientsMedicalDetails",
      "outputs": [
        {
          "internalType": "string",
          "name": "date",
          "type": "string"
        },
        {
          "internalType": "address",
          "name": "walletAddress",
          "type": "address"
        },
        {
          "internalType": "bool",
          "name": "isAlcoholic",
          "type": "bool"
        },
        {
          "internalType": "bool",
          "name": "isSmoker",
          "type": "bool"
        },
        {
          "internalType": "bool",
          "name": "isSmokelessTobaccoUser",
          "type": "bool"
        },
        {
          "internalType": "string",
          "name": "surgicalHistory_ifAny",
          "type": "string"
        },
        {
          "internalType": "string",
          "name": "physicalActivityLevel",
          "type": "string"
        },
        {
          "internalType": "string",
          "name": "pastMedicationDetails_IfAny",
          "type": "string"
        }
      ],
      "stateMutability": "view",
      "type": "function"
    },
    {
      "inputs": [
        {
          "internalType": "address",
          "name": "",
          "type": "address"
        }
      ],
      "name": "PatientsPersonalDetails",
      "outputs": [
        {
          "internalType": "string",
          "name": "date",
          "type": "string"
        },
        {
          "internalType": "string",
          "name": "name",
          "type": "string"
        },
        {
          "internalType": "address",
          "name": "walletAddress",
          "type": "address"
        },
        {
          "internalType": "string",
          "name": "gender",
          "type": "string"
        },
        {
          "internalType": "string",
          "name": "Occupation",
          "type": "string"
        },
        {
          "internalType": "string",
          "name": "dateOfBirth",
          "type": "string"
        },
        {
          "internalType": "uint256",
          "name": "age",
          "type": "uint256"
        },
        {
          "internalType": "uint256",
          "name": "phoneNumber",
          "type": "uint256"
        }
      ],
      "stateMutability": "view",
      "type": "function"
    },
    {
      "inputs": [
        {
          "internalType": "string",
          "name": "_dataURL",
          "type": "string"
        },
        {
          "internalType": "address",
          "name": "user",
          "type": "address"
        }
      ],
      "name": "StorePatientData",
      "outputs": [],
      "stateMutability": "nonpayable",
      "type": "function"
    },
    {
      "inputs": [
        {
          "internalType": "address",
          "name": "_address",
          "type": "address"
        }
      ],
      "name": "addOwner",
      "outputs": [],
      "stateMutability": "nonpayable",
      "type": "function"
    },
    {
      "inputs": [
        {
          "internalType": "string",
          "name": "_date",
          "type": "string"
        },
        {
          "internalType": "address",
          "name": "_walletAddress",
          "type": "address"
        },
        {
          "internalType": "address",
          "name": "_physician",
          "type": "address"
        },
        {
          "internalType": "string",
          "name": "_Department_uint",
          "type": "string"
        },
        {
          "internalType": "string",
          "name": "_BloodPressure",
          "type": "string"
        },
        {
          "internalType": "string",
          "name": "_HeartRate",
          "type": "string"
        },
        {
          "internalType": "string",
          "name": "_RespiratoryRate",
          "type": "string"
        },
        {
          "internalType": "string",
          "name": "_Dosage",
          "type": "string"
        }
      ],
      "name": "addPatientHealthDetails",
      "outputs": [],
      "stateMutability": "nonpayable",
      "type": "function"
    },
    {
      "inputs": [
        {
          "internalType": "uint256",
          "name": "_yearOfBirth",
          "type": "uint256"
        }
      ],
      "name": "getAge",
      "outputs": [
        {
          "internalType": "uint256",
          "name": "",
          "type": "uint256"
        }
      ],
      "stateMutability": "view",
      "type": "function"
    },
    {
      "inputs": [
        {
          "internalType": "address",
          "name": "_walletAddress",
          "type": "address"
        }
      ],
      "name": "getDoctorPersonalDetails",
      "outputs": [
        {
          "components": [
            {
              "internalType": "string",
              "name": "name",
              "type": "string"
            },
            {
              "internalType": "address",
              "name": "walletAddress",
              "type": "address"
            },
            {
              "internalType": "string",
              "name": "dateOfBirth",
              "type": "string"
            },
            {
              "internalType": "uint256",
              "name": "age",
              "type": "uint256"
            },
            {
              "internalType": "uint256",
              "name": "phoneNumber",
              "type": "uint256"
            },
            {
              "internalType": "string",
              "name": "email",
              "type": "string"
            }
          ],
          "internalType": "struct PatientDetails.DoctorPersonalInfo",
          "name": "",
          "type": "tuple"
        }
      ],
      "stateMutability": "view",
      "type": "function"
    },
    {
      "inputs": [
        {
          "internalType": "address",
          "name": "_walletAddress",
          "type": "address"
        }
      ],
      "name": "getDoctorProfessionalDetails",
      "outputs": [
        {
          "components": [
            {
              "internalType": "address",
              "name": "walletAddress",
              "type": "address"
            },
            {
              "internalType": "string",
              "name": "MedicalSchoolAttended",
              "type": "string"
            },
            {
              "internalType": "string",
              "name": "MedicalLicenseNumber",
              "type": "string"
            },
            {
              "internalType": "string",
              "name": "Specialization",
              "type": "string"
            },
            {
              "internalType": "uint256",
              "name": "ExperienceInYear",
              "type": "uint256"
            }
          ],
          "internalType": "struct PatientDetails.DoctorProfessionalDetails",
          "name": "",
          "type": "tuple"
        }
      ],
      "stateMutability": "view",
      "type": "function"
    },
    {
      "inputs": [
        {
          "internalType": "address",
          "name": "_walletAddress",
          "type": "address"
        }
      ],
      "name": "getPatientDetails",
      "outputs": [
        {
          "components": [
            {
              "internalType": "string",
              "name": "date",
              "type": "string"
            },
            {
              "internalType": "string",
              "name": "name",
              "type": "string"
            },
            {
              "internalType": "address",
              "name": "walletAddress",
              "type": "address"
            },
            {
              "internalType": "string",
              "name": "gender",
              "type": "string"
            },
            {
              "internalType": "string",
              "name": "Occupation",
              "type": "string"
            },
            {
              "internalType": "string",
              "name": "dateOfBirth",
              "type": "string"
            },
            {
              "internalType": "uint256",
              "name": "age",
              "type": "uint256"
            },
            {
              "internalType": "uint256",
              "name": "phoneNumber",
              "type": "uint256"
            }
          ],
          "internalType": "struct PatientDetails.PatientPersonalDetails",
          "name": "",
          "type": "tuple"
        },
        {
          "components": [
            {
              "internalType": "string",
              "name": "date",
              "type": "string"
            },
            {
              "internalType": "address",
              "name": "walletAddress",
              "type": "address"
            },
            {
              "internalType": "bool",
              "name": "isAlcoholic",
              "type": "bool"
            },
            {
              "internalType": "bool",
              "name": "isSmoker",
              "type": "bool"
            },
            {
              "internalType": "bool",
              "name": "isSmokelessTobaccoUser",
              "type": "bool"
            },
            {
              "internalType": "string",
              "name": "surgicalHistory_ifAny",
              "type": "string"
            },
            {
              "internalType": "string",
              "name": "physicalActivityLevel",
              "type": "string"
            },
            {
              "internalType": "string",
              "name": "pastMedicationDetails_IfAny",
              "type": "string"
            }
          ],
          "internalType": "struct PatientDetails.PatientMedicalDetails",
          "name": "",
          "type": "tuple"
        }
      ],
      "stateMutability": "view",
      "type": "function"
    },
    {
      "inputs": [
        {
          "internalType": "address",
          "name": "_walletAddress",
          "type": "address"
        }
      ],
      "name": "getPatientHealthDetails",
      "outputs": [
        {
          "components": [
            {
              "internalType": "string",
              "name": "date",
              "type": "string"
            },
            {
              "internalType": "address",
              "name": "walletAddress",
              "type": "address"
            },
            {
              "internalType": "address",
              "name": "physician",
              "type": "address"
            },
            {
              "internalType": "string",
              "name": "Department_uint",
              "type": "string"
            },
            {
              "internalType": "string",
              "name": "BloodPressure",
              "type": "string"
            },
            {
              "internalType": "string",
              "name": "HeartRate",
              "type": "string"
            },
            {
              "internalType": "string",
              "name": "RespiratoryRate",
              "type": "string"
            },
            {
              "internalType": "string",
              "name": "Dosage",
              "type": "string"
            }
          ],
          "internalType": "struct PatientDetails.PatientHealthCondition[]",
          "name": "",
          "type": "tuple[]"
        }
      ],
      "stateMutability": "view",
      "type": "function"
    },
    {
      "inputs": [
        {
          "internalType": "address",
          "name": "_address",
          "type": "address"
        }
      ],
      "name": "getPatientStored",
      "outputs": [
        {
          "components": [
            {
              "internalType": "uint256",
              "name": "timestamp",
              "type": "uint256"
            },
            {
              "internalType": "string",
              "name": "cid",
              "type": "string"
            }
          ],
          "internalType": "struct PatientDetails.HealthData[]",
          "name": "",
          "type": "tuple[]"
        }
      ],
      "stateMutability": "view",
      "type": "function"
    },
    {
      "inputs": [
        {
          "internalType": "uint256",
          "name": "timestamp",
          "type": "uint256"
        }
      ],
      "name": "getYear",
      "outputs": [
        {
          "internalType": "uint256",
          "name": "",
          "type": "uint256"
        }
      ],
      "stateMutability": "pure",
      "type": "function"
    },
    {
      "inputs": [
        {
          "internalType": "address",
          "name": "_address",
          "type": "address"
        }
      ],
      "name": "isDoctor",
      "outputs": [
        {
          "internalType": "bool",
          "name": "val",
          "type": "bool"
        }
      ],
      "stateMutability": "view",
      "type": "function"
    },
    {
      "inputs": [
        {
          "internalType": "address",
          "name": "_address",
          "type": "address"
        }
      ],
      "name": "isOwner",
      "outputs": [
        {
          "internalType": "bool",
          "name": "val",
          "type": "bool"
        }
      ],
      "stateMutability": "view",
      "type": "function"
    },
    {
      "inputs": [
        {
          "internalType": "address",
          "name": "",
          "type": "address"
        }
      ],
      "name": "owner",
      "outputs": [
        {
          "internalType": "bool",
          "name": "",
          "type": "bool"
        }
      ],
      "stateMutability": "view",
      "type": "function"
    },
    {
      "inputs": [
        {
          "internalType": "address",
          "name": "",
          "type": "address"
        },
        {
          "internalType": "uint256",
          "name": "",
          "type": "uint256"
        }
      ],
      "name": "patientsStoredData",
      "outputs": [
        {
          "internalType": "uint256",
          "name": "timestamp",
          "type": "uint256"
        },
        {
          "internalType": "string",
          "name": "cid",
          "type": "string"
        }
      ],
      "stateMutability": "view",
      "type": "function"
    },
    {
      "inputs": [
        {
          "internalType": "address",
          "name": "_address",
          "type": "address"
        }
      ],
      "name": "removeOwner",
      "outputs": [],
      "stateMutability": "nonpayable",
      "type": "function"
    },
    {
      "inputs": [],
      "name": "superOwner",
      "outputs": [
        {
          "internalType": "address",
          "name": "",
          "type": "address"
        }
      ],
      "stateMutability": "view",
      "type": "function"
    },
    {
      "inputs": [],
      "name": "totalAdmin",
      "outputs": [
        {
          "internalType": "uint256",
          "name": "",
          "type": "uint256"
        }
      ],
      "stateMutability": "view",
      "type": "function"
    },
    {
      "inputs": [],
      "name": "totalDoctors",
      "outputs": [
        {
          "internalType": "uint256",
          "name": "",
          "type": "uint256"
        }
      ],
      "stateMutability": "view",
      "type": "function"
    },
    {
      "inputs": [],
      "name": "totalPatient",
      "outputs": [
        {
          "internalType": "uint256",
          "name": "",
          "type": "uint256"
        }
      ],
      "stateMutability": "view",
      "type": "function"
    }
  ],
  "bytecode": "0x608060405234801561000f575f80fd5b50335f818152602081905260409020805460ff1916600190811790915580546001600160a01b0319169091179055614f6e8061004a5f395ff3fe608060405234801561000f575f80fd5b5060043610610208575f3560e01c806375c6a96c1161011f578063ac46b5b7116100a9578063d1f2f0e511610079578063d1f2f0e5146104ef578063efe2ccc114610502578063f243cc6a14610523578063f7e901d31461054a578063fe0c2a311461056a575f80fd5b8063ac46b5b714610476578063b5f63ec514610489578063bb7d6b67146104a9578063bbcaa637146104cb575f80fd5b806392d66313116100ef57806392d663131461040a578063996440c61461041d578063a49b172514610430578063a96a6b2114610443578063a980702c14610463575f80fd5b806375c6a96c1461039e57806387dcd2b6146103c357806392b3141d146103ee57806392c2808f14610401575f80fd5b806348e64d80116101a0578063666e1b3911610170578063666e1b391461032257806366adec5614610344578063686e1f1b146103575780636e2c0ffe1461036a5780637065cb481461038b575f80fd5b806348e64d80146102dd57806355d2df12146102f057806364319e331461031057806365b44d7e14610319575f80fd5b80631a757712116101db5780631a7577121461026d5780631f650cc9146102805780632f54bf6e146102a757806334a9e6eb146102ca575f80fd5b8063040280171461020c5780630b103ee1146102215780630e37008a14610234578063173825d91461025a575b5f80fd5b61021f61021a366004613e3d565b610591565b005b61021f61022f366004613ef3565b6106fa565b610247610242366004613fdf565b6108c5565b6040519081526020015b60405180910390f35b61021f610268366004613e3d565b610942565b61021f61027b366004613ff6565b6109bc565b61029361028e366004613e3d565b610b43565b6040516102519897969594939291906140dd565b6102ba6102b5366004613e3d565b610e2f565b6040519015158152602001610251565b61021f6102d8366004614176565b610e5c565b61021f6102eb36600461425d565b61102a565b6103036102fe366004613e3d565b6111c3565b60405161025191906142f9565b610247600a5481565b61024760095481565b6102ba610330366004613e3d565b5f6020819052908152604090205460ff1681565b61021f610352366004614176565b6112ce565b61021f610365366004613e3d565b611515565b61037d61037836600461436b565b6116b5565b604051610251929190614393565b61021f610399366004613e3d565b611775565b6103b16103ac366004613e3d565b6117f2565b604051610251969594939291906143b3565b6001546103d6906001600160a01b031681565b6040516001600160a01b039091168152602001610251565b61021f6103fc36600461425d565b6119c6565b610247600b5481565b610247610418366004613fdf565b611bfa565b6102ba61042b366004613e3d565b611c0f565b61021f61043e366004613ff6565b611c37565b610456610451366004613e3d565b611e4a565b6040516102519190614413565b61021f610471366004613ef3565b612131565b61021f610484366004614499565b612377565b61049c610497366004613e3d565b6123d6565b60405161025191906144e4565b6102ba6104b7366004613e3d565b60066020525f908152604090205460ff1681565b6104de6104d9366004613e3d565b612864565b6040516102519594939291906145f7565b61021f6104fd366004614653565b612a2e565b610515610510366004613e3d565b612d95565b6040516102519291906147a6565b610536610531366004613e3d565b6135d6565b604051610251989796959493929190614880565b61055d610558366004613e3d565b613846565b6040516102519190614905565b61057d61057836600461436b565b613b14565b604051610251989796959493929190614985565b335f9081526020819052604090205460ff16806105b857506001546001600160a01b031633145b6105dd5760405162461bcd60e51b81526004016105d4906149eb565b60405180910390fd5b335f908152602081905260409020805460ff191660011790556001600160a01b03811661063e5760405162461bcd60e51b815260206004820152600f60248201526e496e76616c6964204164647265737360881b60448201526064016105d4565b6001600160a01b0381165f9081526006602052604090205460ff166106da5760405162461bcd60e51b815260206004820152604660248201527f50726f76696465642061646472657373206d75737420626520616e2041646d6960448201527f6e4163636573734164647265737320746f2072656d6f76652041646d696e416360648201526563657373212160d01b608482015260a4016105d4565b6001600160a01b03165f908152600660205260409020805460ff19169055565b335f9081526006602052604081205460ff1615610715575060015b335f9081526006602052604090205460ff166107435760405162461bcd60e51b81526004016105d490614a35565b6001600160a01b0387161580159061075b57505f8651115b801561076757505f8551115b6107835760405162461bcd60e51b81526004016105d490614a9d565b6001600160a01b038088165f8181526002602081905260409091200154909116146107c05760405162461bcd60e51b81526004016105d490614ae3565b60408051610100810182528a815260208082018b90526001600160a01b038a16828401819052606083018a90526080830189905260a0830188905260c0830187905260e083018690525f90815260029091529190912081518592919081906108289082614bfd565b506020820151600182019061083d9082614bfd565b5060408201516002820180546001600160a01b0319166001600160a01b03909216919091179055606082015160038201906108789082614bfd565b506080820151600482019061088d9082614bfd565b5060a082015160058201906108a29082614bfd565b5060c0820151600682015560e09091015160079091015550505050505050505050565b5f806108d042611bfa565b90505f836108e0836107b2614ccd565b6108ea9190614ce0565b90505f811161093b5760405162461bcd60e51b815260206004820152601860248201527f456e74657220636f72726563742062697274682079656172000000000000000060448201526064016105d4565b9392505050565b6001546001600160a01b0316331461099c5760405162461bcd60e51b815260206004820152601f60248201527f41636365737365626c65206f6e6c7920666f722053757065724f776e6572730060448201526064016105d4565b6001600160a01b03165f908152602081905260409020805460ff19169055565b335f9081526020819052604090205460ff16806109e357506001546001600160a01b031633145b6109ff5760405162461bcd60e51b81526004016105d4906149eb565b6001600160a01b03851615801590610a1757505f8151115b8015610a2357505f8651115b610a3f5760405162461bcd60e51b81526004016105d490614cf3565b6001600160a01b038086165f8181526007602052604090206001015490911614610a7b5760405162461bcd60e51b81526004016105d490614d42565b6040805160c0810182528781526001600160a01b0387166020808301829052828401889052606083018790526080830186905260a083018590525f91825260079052919091208151859291908190610ad39082614bfd565b5060208201516001820180546001600160a01b0319166001600160a01b0390921691909117905560408201516002820190610b0e9082614bfd565b50606082015160038201556080820151600482015560a08201516005820190610b379082614bfd565b50505050505050505050565b60026020525f9081526040902080548190610b5d90614b7b565b80601f0160208091040260200160405190810160405280929190818152602001828054610b8990614b7b565b8015610bd45780601f10610bab57610100808354040283529160200191610bd4565b820191905f5260205f20905b815481529060010190602001808311610bb757829003601f168201915b505050505090806001018054610be990614b7b565b80601f0160208091040260200160405190810160405280929190818152602001828054610c1590614b7b565b8015610c605780601f10610c3757610100808354040283529160200191610c60565b820191905f5260205f20905b815481529060010190602001808311610c4357829003601f168201915b505050600284015460038501805494956001600160a01b03909216949193509150610c8a90614b7b565b80601f0160208091040260200160405190810160405280929190818152602001828054610cb690614b7b565b8015610d015780601f10610cd857610100808354040283529160200191610d01565b820191905f5260205f20905b815481529060010190602001808311610ce457829003601f168201915b505050505090806004018054610d1690614b7b565b80601f0160208091040260200160405190810160405280929190818152602001828054610d4290614b7b565b8015610d8d5780601f10610d6457610100808354040283529160200191610d8d565b820191905f5260205f20905b815481529060010190602001808311610d7057829003601f168201915b505050505090806005018054610da290614b7b565b80601f0160208091040260200160405190810160405280929190818152602001828054610dce90614b7b565b8015610e195780601f10610df057610100808354040283529160200191610e19565b820191905f5260205f20905b815481529060010190602001808311610dfc57829003601f168201915b5050505050908060060154908060070154905088565b6001600160a01b0381165f9081526020819052604081205460ff1615610e5757506001919050565b919050565b335f9081526006602052604081205460ff1615610e77575060015b335f9081526006602052604090205460ff16610ea55760405162461bcd60e51b81526004016105d490614a35565b6001600160a01b038816610ecb5760405162461bcd60e51b81526004016105d490614a9d565b6001600160a01b038089165f818152600260208190526040909120015490911614610f085760405162461bcd60e51b81526004016105d490614ae3565b60408051610100810182528a81526001600160a01b038a1660208083018290528a1515838501528915156060840152881515608084015260a0830188905260c0830187905260e083018690525f918252600390529190912081518190610f6e9082614bfd565b5060208201516001820180546040850151606086015160808701511515600160b01b0260ff60b01b19911515600160a81b029190911661ffff60a81b19921515600160a01b026001600160a81b03199094166001600160a01b039096169590951792909217169290921791909117905560a08201516002820190610ff29082614bfd565b5060c082015160038201906110079082614bfd565b5060e0820151600482019061101c9082614bfd565b505050505050505050505050565b335f9081526020819052604090205460ff168061105157506001546001600160a01b031633145b61106d5760405162461bcd60e51b81526004016105d4906149eb565b6001600160a01b0385161580159061108557505f8151115b801561109157505f8451115b801561109d57505f8351115b6110e15760405162461bcd60e51b8152602060048201526015602482015274656e74657220636f72726563742064657461696c7360581b60448201526064016105d4565b6001600160a01b038086165f818152600860205260409020549091161461111a5760405162461bcd60e51b81526004016105d490614d42565b6040805160a0810182526001600160a01b0387811680835260208084018681528486018a905260608501899052608085018890525f9283526008909152939020825181546001600160a01b0319169216919091178155915190919060018201906111849082614bfd565b50604082015160028201906111999082614bfd565b50606082015160038201906111ae9082614bfd565b50608082015181600401559050505050505050565b6001600160a01b0381165f908152600560209081526040808320805482518185028101850190935280835260609492939192909184015b828210156112c3578382905f5260205f2090600202016040518060400160405290815f820154815260200160018201805461123490614b7b565b80601f016020809104026020016040519081016040528092919081815260200182805461126090614b7b565b80156112ab5780601f10611282576101008083540402835291602001916112ab565b820191905f5260205f20905b81548152906001019060200180831161128e57829003601f168201915b505050505081525050815260200190600101906111fa565b505050509050919050565b335f9081526006602052604081205460ff16156112e9575060015b335f9081526006602052604090205460ff166113175760405162461bcd60e51b81526004016105d490614a35565b6001600160a01b038089165f81815260036020526040902060010154909116036113935760405162461bcd60e51b815260206004820152602760248201527f50617469656e74206d65646963616c2064657461696c7320616c7265616479206044820152666578697374212160c81b60648201526084016105d4565b6001600160a01b0388166113b95760405162461bcd60e51b81526004016105d490614a9d565b60408051610100810182528a81526001600160a01b038a1660208083018290528a1515838501528915156060840152881515608084015260a0830188905260c0830187905260e083018690525f91825260039052919091208151819061141f9082614bfd565b5060208201516001820180546040850151606086015160808701511515600160b01b0260ff60b01b19911515600160a81b029190911661ffff60a81b19921515600160a01b026001600160a81b03199094166001600160a01b039096169590951792909217169290921791909117905560a082015160028201906114a39082614bfd565b5060c082015160038201906114b89082614bfd565b5060e082015160048201906114cd9082614bfd565b5050506001600160a01b038089165f81815260026020819052604090912001549091160361150a57600b8054905f61150483614dda565b91905055505b505050505050505050565b335f9081526020819052604090205460ff168061153c57506001546001600160a01b031633145b6115585760405162461bcd60e51b81526004016105d4906149eb565b335f9081526020819052604090205460ff166115cd5760405162461bcd60e51b815260206004820152602e60248201527f4f6e6c79206f776e6572206861732070726976696c65676520746f206164642060448201526d6f776e657220616363657373212160901b60648201526084016105d4565b6001600160a01b0381165f9081526006602052604090205460ff16156116355760405162461bcd60e51b815260206004820181905260248201527f4164647265737320616c7265616479206861732061646d696e2061636365737360448201526064016105d4565b6001600160a01b03811661167d5760405162461bcd60e51b815260206004820152600f60248201526e496e76616c6964204164647265737360881b60448201526064016105d4565b6001600160a01b0381165f908152600660205260408120805460ff19166001179055600a8054916116ad83614dda565b919050555050565b6005602052815f5260405f2081815481106116ce575f80fd5b905f5260205f2090600202015f9150915050805f0154908060010180546116f490614b7b565b80601f016020809104026020016040519081016040528092919081815260200182805461172090614b7b565b801561176b5780601f106117425761010080835404028352916020019161176b565b820191905f5260205f20905b81548152906001019060200180831161174e57829003601f168201915b5050505050905082565b6001546001600160a01b031633146117cf5760405162461bcd60e51b815260206004820152601f60248201527f41636365737365626c65206f6e6c7920666f722053757065724f776e6572730060448201526064016105d4565b6001600160a01b03165f908152602081905260409020805460ff19166001179055565b60076020525f908152604090208054819061180c90614b7b565b80601f016020809104026020016040519081016040528092919081815260200182805461183890614b7b565b80156118835780601f1061185a57610100808354040283529160200191611883565b820191905f5260205f20905b81548152906001019060200180831161186657829003601f168201915b505050600184015460028501805494956001600160a01b039092169491935091506118ad90614b7b565b80601f01602080910402602001604051908101604052809291908181526020018280546118d990614b7b565b80156119245780601f106118fb57610100808354040283529160200191611924565b820191905f5260205f20905b81548152906001019060200180831161190757829003601f168201915b50505050509080600301549080600401549080600501805461194590614b7b565b80601f016020809104026020016040519081016040528092919081815260200182805461197190614b7b565b80156119bc5780601f10611993576101008083540402835291602001916119bc565b820191905f5260205f20905b81548152906001019060200180831161199f57829003601f168201915b5050505050905086565b335f9081526020819052604090205460ff16806119ed57506001546001600160a01b031633145b611a095760405162461bcd60e51b81526004016105d4906149eb565b6001600160a01b038086165f8181526008602052604090205490911603611a895760405162461bcd60e51b815260206004820152602e60248201527f50687973696369616e2050726f66657373696f6e616c2064657461696c73206160448201526d6c7265616479206578697374212160901b60648201526084016105d4565b6001600160a01b038086165f8181526008602052604090205490911614801590611ab357505f8151115b8015611abf57505f8451115b8015611acb57505f8351115b611b0f5760405162461bcd60e51b8152602060048201526015602482015274456e74657220436f72726563742064657461696c7360581b60448201526064016105d4565b6040805160a0810182526001600160a01b0387811680835260208084018681528486018a905260608501899052608085018890525f9283526008909152939020825181546001600160a01b031916921691909117815591519091906001820190611b799082614bfd565b5060408201516002820190611b8e9082614bfd565b5060608201516003820190611ba39082614bfd565b50608091909101516004909101556001600160a01b038086165f8181526007602052604090206001015490911603611bf357611bde85611515565b60098054905f611bed83614dda565b91905055505b5050505050565b5f611c096301e1338083614df2565b92915050565b6001600160a01b0381165f9081526006602052604081205460ff1615610e5757506001919050565b335f9081526020819052604090205460ff1680611c5e57506001546001600160a01b031633145b611c7a5760405162461bcd60e51b81526004016105d4906149eb565b6001600160a01b038086165f8181526007602052604090206001015490911603611cf85760405162461bcd60e51b815260206004820152602960248201527f50687973696369616e20706572736f6e616c2064657461696c20616c7265616460448201526879206578697374212160b81b60648201526084016105d4565b6001600160a01b03851615801590611d0f57505f82115b8015611d1b57505f8151115b8015611d2757505f8651115b611d435760405162461bcd60e51b81526004016105d490614cf3565b6040805160c0810182528781526001600160a01b0387166020808301829052828401889052606083018790526080830186905260a083018590525f91825260079052919091208151859291908190611d9b9082614bfd565b5060208201516001820180546001600160a01b0319166001600160a01b0390921691909117905560408201516002820190611dd69082614bfd565b50606082015160038201556080820151600482015560a08201516005820190611dff9082614bfd565b5050506001600160a01b038087165f8181526008602052604090205490911603611e4157611e2c86611515565b60098054905f611e3b83614dda565b91905055505b50505050505050565b611e896040518060c00160405280606081526020015f6001600160a01b03168152602001606081526020015f81526020015f8152602001606081525090565b335f9081526020819052604090205460ff1680611eb057506001546001600160a01b031633145b611ecc5760405162461bcd60e51b81526004016105d4906149eb565b6001600160a01b038216611ef25760405162461bcd60e51b81526004016105d490614e11565b6001600160a01b038083165f8181526007602052604090206001015490911614611f2e5760405162461bcd60e51b81526004016105d490614e48565b6001600160a01b0382165f9081526007602052604090819020815160c08101909252805482908290611f5f90614b7b565b80601f0160208091040260200160405190810160405280929190818152602001828054611f8b90614b7b565b8015611fd65780601f10611fad57610100808354040283529160200191611fd6565b820191905f5260205f20905b815481529060010190602001808311611fb957829003601f168201915b505050918352505060018201546001600160a01b0316602082015260028201805460409092019161200690614b7b565b80601f016020809104026020016040519081016040528092919081815260200182805461203290614b7b565b801561207d5780601f106120545761010080835404028352916020019161207d565b820191905f5260205f20905b81548152906001019060200180831161206057829003601f168201915b5050505050815260200160038201548152602001600482015481526020016005820180546120aa90614b7b565b80601f01602080910402602001604051908101604052809291908181526020018280546120d690614b7b565b80156121215780601f106120f857610100808354040283529160200191612121565b820191905f5260205f20905b81548152906001019060200180831161210457829003601f168201915b5050505050815250509050919050565b335f9081526006602052604081205460ff161561214c575060015b335f9081526006602052604090205460ff1661217a5760405162461bcd60e51b81526004016105d490614a35565b6001600160a01b038088165f8181526002602081905260409091200154909116036121fa5760405162461bcd60e51b815260206004820152602a60248201527f50617469656e74277320706572736f6e616c2064657461696c7320616c7265616044820152696479206578697374212160b01b60648201526084016105d4565b6001600160a01b0387161580159061221257505f8651115b801561221e57505f8551115b61223a5760405162461bcd60e51b81526004016105d490614a9d565b60408051610100810182528a815260208082018b90526001600160a01b038a16828401819052606083018a90526080830189905260a0830188905260c0830187905260e083018690525f90815260029091529190912081518592919081906122a29082614bfd565b50602082015160018201906122b79082614bfd565b5060408201516002820180546001600160a01b0319166001600160a01b03909216919091179055606082015160038201906122f29082614bfd565b50608082015160048201906123079082614bfd565b5060a0820151600582019061231c9082614bfd565b5060c0820151600682015560e0909101516007909101556001600160a01b038089165f8181526003602052604090206001015490911603610b3757600b8054905f61236683614dda565b919050555050505050505050505050565b60408051808201825242815260208082018581526001600160a01b0385165f908152600583529384208054600181810183559186529290942083516002909302019182555191928392908201906123ce9082614bfd565b505050505050565b335f81815260026020819052604090912001546060916001600160a01b03909116148061241b5750335f818152600360205260409020600101546001600160a01b0316145b806124345750335f9081526006602052604090205460ff165b8061244d5750335f9081526020819052604090205460ff165b8061246257506001546001600160a01b031633145b61247e5760405162461bcd60e51b81526004016105d490614ef1565b6001600160a01b0382165f90815260046020908152604080832080548251818502810185019093528083529193909284015b828210156112c3578382905f5260205f209060080201604051806101000160405290815f820180546124e190614b7b565b80601f016020809104026020016040519081016040528092919081815260200182805461250d90614b7b565b80156125585780601f1061252f57610100808354040283529160200191612558565b820191905f5260205f20905b81548152906001019060200180831161253b57829003601f168201915b505050918352505060018201546001600160a01b039081166020830152600283015416604082015260038201805460609092019161259590614b7b565b80601f01602080910402602001604051908101604052809291908181526020018280546125c190614b7b565b801561260c5780601f106125e35761010080835404028352916020019161260c565b820191905f5260205f20905b8154815290600101906020018083116125ef57829003601f168201915b5050505050815260200160048201805461262590614b7b565b80601f016020809104026020016040519081016040528092919081815260200182805461265190614b7b565b801561269c5780601f106126735761010080835404028352916020019161269c565b820191905f5260205f20905b81548152906001019060200180831161267f57829003601f168201915b505050505081526020016005820180546126b590614b7b565b80601f01602080910402602001604051908101604052809291908181526020018280546126e190614b7b565b801561272c5780601f106127035761010080835404028352916020019161272c565b820191905f5260205f20905b81548152906001019060200180831161270f57829003601f168201915b5050505050815260200160068201805461274590614b7b565b80601f016020809104026020016040519081016040528092919081815260200182805461277190614b7b565b80156127bc5780601f10612793576101008083540402835291602001916127bc565b820191905f5260205f20905b81548152906001019060200180831161279f57829003601f168201915b505050505081526020016007820180546127d590614b7b565b80601f016020809104026020016040519081016040528092919081815260200182805461280190614b7b565b801561284c5780601f106128235761010080835404028352916020019161284c565b820191905f5260205f20905b81548152906001019060200180831161282f57829003601f168201915b505050505081525050815260200190600101906124b0565b60086020525f9081526040902080546001820180546001600160a01b03909216929161288f90614b7b565b80601f01602080910402602001604051908101604052809291908181526020018280546128bb90614b7b565b80156129065780601f106128dd57610100808354040283529160200191612906565b820191905f5260205f20905b8154815290600101906020018083116128e957829003601f168201915b50505050509080600201805461291b90614b7b565b80601f016020809104026020016040519081016040528092919081815260200182805461294790614b7b565b80156129925780601f1061296957610100808354040283529160200191612992565b820191905f5260205f20905b81548152906001019060200180831161297557829003601f168201915b5050505050908060030180546129a790614b7b565b80601f01602080910402602001604051908101604052809291908181526020018280546129d390614b7b565b8015612a1e5780601f106129f557610100808354040283529160200191612a1e565b820191905f5260205f20905b815481529060010190602001808311612a0157829003601f168201915b5050505050908060040154905085565b335f9081526006602052604081205460ff1615612a49575060015b335f9081526006602052604090205460ff16612a775760405162461bcd60e51b81526004016105d490614a35565b6001600160a01b038089165f8181526002602081905260409091200154909116148015612ac057506001600160a01b038089165f81815260036020526040902060010154909116145b612ba45760405162461bcd60e51b815260206004820152609960248201527f496e636f72726563742050617469656e742077616c6c6574206164647265737360448201527f206f72205468652050617469656e742064657461696c2073706563696669632060648201527f746f20706572736f6e616c206f722070617374206d65646963616c206869737460848201527f6f7279206f662074686520616464726573732070726f7669646564206e6f742060a48201527f617661696c61626c6520696e2074686520636861696e2121200000000000000060c482015260e4016105d4565b6001600160a01b038881165f90815260076020526040902060010154811690881614612c785760405162461bcd60e51b815260206004820152607160248201527f496e636f72726563742050687973696369616e2077616c6c657420616464726560448201527f7373206f72205468652050687973696369616e2064657461696c20666f72207460648201527f686520616464726573732070726f7669646564206e6f7420617661696c61626c6084820152700329034b7103a34329031b430b4b710909607d1b60a482015260c4016105d4565b6001600160a01b038089165f8181526004602090815260408083208151610100810183528f815280840195909552948c1690840152606083018a90526080830189905260a0830188905260c0830187905260e08301869052835460018101855593825290208151919260080201908190612cf29082614bfd565b5060208201516001820180546001600160a01b039283166001600160a01b031991821617909155604084015160028401805491909316911617905560608201516003820190612d419082614bfd565b5060808201516004820190612d569082614bfd565b5060a08201516005820190612d6b9082614bfd565b5060c08201516006820190612d809082614bfd565b5060e0820151600782019061101c9082614bfd565b612de360405180610100016040528060608152602001606081526020015f6001600160a01b031681526020016060815260200160608152602001606081526020015f81526020015f81525090565b612e36604051806101000160405280606081526020015f6001600160a01b031681526020015f151581526020015f151581526020015f151581526020016060815260200160608152602001606081525090565b335f81815260026020819052604090912001546001600160a01b03161480612e765750335f818152600360205260409020600101546001600160a01b0316145b80612e8f5750335f9081526006602052604090205460ff165b80612ea85750335f9081526020819052604090205460ff165b80612ebd57506001546001600160a01b031633145b612ed95760405162461bcd60e51b81526004016105d490614ef1565b6001600160a01b038316612eff5760405162461bcd60e51b81526004016105d490614e11565b6001600160a01b038084165f8181526002602081905260409091200154909116148015612f4857506001600160a01b038084165f81815260036020526040902060010154909116145b6130065760405162461bcd60e51b815260206004820152607960248201527f496e636f72726563742050617469656e742077616c6c6574206164647265737360448201527f206f72205468652050617469656e742064657461696c20666f7220746865206160648201527f6464726573732070726f7669646564206973206e6f7420636f6d706c65746c7960848201527f20617661696c61626c6520696e2074686520636861696e21210000000000000060a482015260c4016105d4565b6001600160a01b0383165f9081526002602090815260408083206003909252918290208251610100810190935281549192909183908290829061304890614b7b565b80601f016020809104026020016040519081016040528092919081815260200182805461307490614b7b565b80156130bf5780601f10613096576101008083540402835291602001916130bf565b820191905f5260205f20905b8154815290600101906020018083116130a257829003601f168201915b505050505081526020016001820180546130d890614b7b565b80601f016020809104026020016040519081016040528092919081815260200182805461310490614b7b565b801561314f5780601f106131265761010080835404028352916020019161314f565b820191905f5260205f20905b81548152906001019060200180831161313257829003601f168201915b505050918352505060028201546001600160a01b0316602082015260038201805460409092019161317f90614b7b565b80601f01602080910402602001604051908101604052809291908181526020018280546131ab90614b7b565b80156131f65780601f106131cd576101008083540402835291602001916131f6565b820191905f5260205f20905b8154815290600101906020018083116131d957829003601f168201915b5050505050815260200160048201805461320f90614b7b565b80601f016020809104026020016040519081016040528092919081815260200182805461323b90614b7b565b80156132865780601f1061325d57610100808354040283529160200191613286565b820191905f5260205f20905b81548152906001019060200180831161326957829003601f168201915b5050505050815260200160058201805461329f90614b7b565b80601f01602080910402602001604051908101604052809291908181526020018280546132cb90614b7b565b80156133165780601f106132ed57610100808354040283529160200191613316565b820191905f5260205f20905b8154815290600101906020018083116132f957829003601f168201915b5050505050815260200160068201548152602001600782015481525050915080604051806101000160405290815f8201805461335190614b7b565b80601f016020809104026020016040519081016040528092919081815260200182805461337d90614b7b565b80156133c85780601f1061339f576101008083540402835291602001916133c8565b820191905f5260205f20905b8154815290600101906020018083116133ab57829003601f168201915b505050918352505060018201546001600160a01b038116602083015260ff600160a01b8204811615156040840152600160a81b8204811615156060840152600160b01b909104161515608082015260028201805460a09092019161342b90614b7b565b80601f016020809104026020016040519081016040528092919081815260200182805461345790614b7b565b80156134a25780601f10613479576101008083540402835291602001916134a2565b820191905f5260205f20905b81548152906001019060200180831161348557829003601f168201915b505050505081526020016003820180546134bb90614b7b565b80601f01602080910402602001604051908101604052809291908181526020018280546134e790614b7b565b80156135325780601f1061350957610100808354040283529160200191613532565b820191905f5260205f20905b81548152906001019060200180831161351557829003601f168201915b5050505050815260200160048201805461354b90614b7b565b80601f016020809104026020016040519081016040528092919081815260200182805461357790614b7b565b80156135c25780601f10613599576101008083540402835291602001916135c2565b820191905f5260205f20905b8154815290600101906020018083116135a557829003601f168201915b505050505081525050905091509150915091565b60036020525f90815260409020805481906135f090614b7b565b80601f016020809104026020016040519081016040528092919081815260200182805461361c90614b7b565b80156136675780601f1061363e57610100808354040283529160200191613667565b820191905f5260205f20905b81548152906001019060200180831161364a57829003601f168201915b50505050600183015460028401805493946001600160a01b0383169460ff600160a01b850481169550600160a81b8504811694600160b01b90041692906136ad90614b7b565b80601f01602080910402602001604051908101604052809291908181526020018280546136d990614b7b565b80156137245780601f106136fb57610100808354040283529160200191613724565b820191905f5260205f20905b81548152906001019060200180831161370757829003601f168201915b50505050509080600301805461373990614b7b565b80601f016020809104026020016040519081016040528092919081815260200182805461376590614b7b565b80156137b05780601f10613787576101008083540402835291602001916137b0565b820191905f5260205f20905b81548152906001019060200180831161379357829003601f168201915b5050505050908060040180546137c590614b7b565b80601f01602080910402602001604051908101604052809291908181526020018280546137f190614b7b565b801561383c5780601f106138135761010080835404028352916020019161383c565b820191905f5260205f20905b81548152906001019060200180831161381f57829003601f168201915b5050505050905088565b61387f6040518060a001604052805f6001600160a01b031681526020016060815260200160608152602001606081526020015f81525090565b335f9081526020819052604090205460ff16806138a657506001546001600160a01b031633145b6138c25760405162461bcd60e51b81526004016105d4906149eb565b6001600160a01b0382166138e85760405162461bcd60e51b81526004016105d490614e11565b6001600160a01b038083165f81815260086020526040902054909116146139215760405162461bcd60e51b81526004016105d490614e48565b6001600160a01b038083165f90815260086020908152604091829020825160a08101909352805490931682526001830180549293929184019161396390614b7b565b80601f016020809104026020016040519081016040528092919081815260200182805461398f90614b7b565b80156139da5780601f106139b1576101008083540402835291602001916139da565b820191905f5260205f20905b8154815290600101906020018083116139bd57829003601f168201915b505050505081526020016002820180546139f390614b7b565b80601f0160208091040260200160405190810160405280929190818152602001828054613a1f90614b7b565b8015613a6a5780601f10613a4157610100808354040283529160200191613a6a565b820191905f5260205f20905b815481529060010190602001808311613a4d57829003601f168201915b50505050508152602001600382018054613a8390614b7b565b80601f0160208091040260200160405190810160405280929190818152602001828054613aaf90614b7b565b8015613afa5780601f10613ad157610100808354040283529160200191613afa565b820191905f5260205f20905b815481529060010190602001808311613add57829003601f168201915b505050505081526020016004820154815250509050919050565b6004602052815f5260405f208181548110613b2d575f80fd5b905f5260205f2090600802015f9150915050805f018054613b4d90614b7b565b80601f0160208091040260200160405190810160405280929190818152602001828054613b7990614b7b565b8015613bc45780601f10613b9b57610100808354040283529160200191613bc4565b820191905f5260205f20905b815481529060010190602001808311613ba757829003601f168201915b5050506001840154600285015460038601805495966001600160a01b0393841696929093169450919250613bf790614b7b565b80601f0160208091040260200160405190810160405280929190818152602001828054613c2390614b7b565b8015613c6e5780601f10613c4557610100808354040283529160200191613c6e565b820191905f5260205f20905b815481529060010190602001808311613c5157829003601f168201915b505050505090806004018054613c8390614b7b565b80601f0160208091040260200160405190810160405280929190818152602001828054613caf90614b7b565b8015613cfa5780601f10613cd157610100808354040283529160200191613cfa565b820191905f5260205f20905b815481529060010190602001808311613cdd57829003601f168201915b505050505090806005018054613d0f90614b7b565b80601f0160208091040260200160405190810160405280929190818152602001828054613d3b90614b7b565b8015613d865780601f10613d5d57610100808354040283529160200191613d86565b820191905f5260205f20905b815481529060010190602001808311613d6957829003601f168201915b505050505090806006018054613d9b90614b7b565b80601f0160208091040260200160405190810160405280929190818152602001828054613dc790614b7b565b8015613e125780601f10613de957610100808354040283529160200191613e12565b820191905f5260205f20905b815481529060010190602001808311613df557829003601f168201915b5050505050908060070180546137c590614b7b565b80356001600160a01b0381168114610e57575f80fd5b5f60208284031215613e4d575f80fd5b61093b82613e27565b634e487b7160e01b5f52604160045260245ffd5b5f82601f830112613e79575f80fd5b813567ffffffffffffffff80821115613e9457613e94613e56565b604051601f8301601f19908116603f01168101908282118183101715613ebc57613ebc613e56565b81604052838152866020858801011115613ed4575f80fd5b836020870160208301375f602085830101528094505050505092915050565b5f805f805f805f80610100898b031215613f0b575f80fd5b883567ffffffffffffffff80821115613f22575f80fd5b613f2e8c838d01613e6a565b995060208b0135915080821115613f43575f80fd5b613f4f8c838d01613e6a565b9850613f5d60408c01613e27565b975060608b0135915080821115613f72575f80fd5b613f7e8c838d01613e6a565b965060808b0135915080821115613f93575f80fd5b613f9f8c838d01613e6a565b955060a08b0135915080821115613fb4575f80fd5b50613fc18b828c01613e6a565b93505060c0890135915060e089013590509295985092959890939650565b5f60208284031215613fef575f80fd5b5035919050565b5f805f805f8060c0878903121561400b575f80fd5b863567ffffffffffffffff80821115614022575f80fd5b61402e8a838b01613e6a565b975061403c60208a01613e27565b96506040890135915080821115614051575f80fd5b61405d8a838b01613e6a565b9550606089013594506080890135935060a0890135915080821115614080575f80fd5b5061408d89828a01613e6a565b9150509295509295509295565b5f81518084525f5b818110156140be576020818501810151868301820152016140a2565b505f602082860101526020601f19601f83011685010191505092915050565b5f6101008083526140f08184018c61409a565b90508281036020840152614104818b61409a565b6001600160a01b038a16604085015283810360608501529050614127818961409a565b9050828103608084015261413b818861409a565b905082810360a084015261414f818761409a565b60c0840195909552505060e001529695505050505050565b80358015158114610e57575f80fd5b5f805f805f805f80610100898b03121561418e575f80fd5b883567ffffffffffffffff808211156141a5575f80fd5b6141b18c838d01613e6a565b99506141bf60208c01613e27565b98506141cd60408c01614167565b97506141db60608c01614167565b96506141e960808c01614167565b955060a08b01359150808211156141fe575f80fd5b61420a8c838d01613e6a565b945060c08b013591508082111561421f575f80fd5b61422b8c838d01613e6a565b935060e08b0135915080821115614240575f80fd5b5061424d8b828c01613e6a565b9150509295985092959890939650565b5f805f805f60a08688031215614271575f80fd5b61427a86613e27565b9450602086013567ffffffffffffffff80821115614296575f80fd5b6142a289838a01613e6a565b955060408801359150808211156142b7575f80fd5b6142c389838a01613e6a565b94506060880135935060808801359150808211156142df575f80fd5b506142ec88828901613e6a565b9150509295509295909350565b5f6020808301818452808551808352604092508286019150828160051b8701018488015f5b8381101561435d57888303603f1901855281518051845287015187840187905261434a8785018261409a565b958801959350509086019060010161431e565b509098975050505050505050565b5f806040838503121561437c575f80fd5b61438583613e27565b946020939093013593505050565b828152604060208201525f6143ab604083018461409a565b949350505050565b60c081525f6143c560c083018961409a565b6001600160a01b038816602084015282810360408401526143e6818861409a565b905085606084015284608084015282810360a0840152614406818561409a565b9998505050505050505050565b602081525f825160c0602084015261442e60e084018261409a565b905060018060a01b0360208501511660408401526040840151601f198085840301606086015261445e838361409a565b925060608601516080860152608086015160a086015260a08601519150808584030160c086015250614490828261409a565b95945050505050565b5f80604083850312156144aa575f80fd5b823567ffffffffffffffff8111156144c0575f80fd5b6144cc85828601613e6a565b9250506144db60208401613e27565b90509250929050565b5f6020808301818452808551808352604092508286019150828160051b8701018488015f5b8381101561435d57603f19898403018552815161010081518186526145308287018261409a565b9150508882015161454b8a8701826001600160a01b03169052565b50878201516001600160a01b03168589015260608083015186830382880152614574838261409a565b925050506080808301518683038288015261458f838261409a565b9250505060a080830151868303828801526145aa838261409a565b9250505060c080830151868303828801526145c5838261409a565b9250505060e080830151925085820381870152506145e3818361409a565b968901969450505090860190600101614509565b6001600160a01b038616815260a0602082018190525f9061461a9083018761409a565b828103604084015261462c818761409a565b90508281036060840152614640818661409a565b9150508260808301529695505050505050565b5f805f805f805f80610100898b03121561466b575f80fd5b883567ffffffffffffffff80821115614682575f80fd5b61468e8c838d01613e6a565b995061469c60208c01613e27565b98506146aa60408c01613e27565b975060608b01359150808211156146bf575f80fd5b6146cb8c838d01613e6a565b965060808b01359150808211156146e0575f80fd5b6141e98c838d01613e6a565b5f61010082518185526147018286018261409a565b915050602083015161471e60208601826001600160a01b03169052565b506040830151614732604086018215159052565b506060830151614746606086018215159052565b50608083015161475a608086018215159052565b5060a083015184820360a0860152614772828261409a565b91505060c083015184820360c086015261478c828261409a565b91505060e083015184820360e0860152614490828261409a565b604081525f83516101008060408501526147c461014085018361409a565b91506020860151603f19808685030160608701526147e2848361409a565b93506040880151915061480060808701836001600160a01b03169052565b60608801519150808685030160a087015261481b848361409a565b935060808801519150808685030160c0870152614838848361409a565b935060a08801519150808685030160e087015250614856838261409a565b92505060c0860151818501525060e0850151610120840152828103602084015261449081856146ec565b5f6101008083526148938184018c61409a565b6001600160a01b038b16602085015289151560408501528815156060850152871515608085015283810360a085015290506148ce818761409a565b905082810360c08401526148e2818661409a565b905082810360e08401526148f6818561409a565b9b9a5050505050505050505050565b602080825282516001600160a01b03168282015282015160a060408301525f9061493260c084018261409a565b90506040840151601f1980858403016060860152614950838361409a565b925060608601519150808584030160808601525061496e828261409a565b915050608084015160a08401528091505092915050565b5f6101008083526149988184018c61409a565b6001600160a01b038b811660208601528a166040850152838103606085015290506149c3818961409a565b905082810360808401526149d7818861409a565b905082810360a08401526148ce818761409a565b6020808252602a908201527f41636365737365626c65206f6e6c7920666f72204f776e65727320616e642053604082015269757065724f776e65727360b01b606082015260800190565b60208082526042908201527f4f6e6c792074686520446f63746f72732063616e2063616c6c2074686973206660408201527f756e6374696f6e2064756520746f20736563757269747920726561736f6e7321606082015261212160f01b608082015260a00190565b60208082526026908201527f4b696e646c792066696c6c20616c6c20746865206d616e6461746f7279206665604082015265696c6473212160d01b606082015260800190565b6020808252606c908201527f496e636f72726563742050617469656e742077616c6c6574206164647265737360408201527f206f72205468652050617469656e742064657461696c20666f7220746865206160608201527f6464726573732070726f7669646564206e6f7420617661696c61626c6520696e60808201526b2074686520636861696e212160a01b60a082015260c00190565b600181811c90821680614b8f57607f821691505b602082108103614bad57634e487b7160e01b5f52602260045260245ffd5b50919050565b601f821115614bf8575f81815260208120601f850160051c81016020861015614bd95750805b601f850160051c820191505b818110156123ce57828155600101614be5565b505050565b815167ffffffffffffffff811115614c1757614c17613e56565b614c2b81614c258454614b7b565b84614bb3565b602080601f831160018114614c5e575f8415614c475750858301515b5f19600386901b1c1916600185901b1785556123ce565b5f85815260208120601f198616915b82811015614c8c57888601518255948401946001909101908401614c6d565b5085821015614ca957878501515f19600388901b60f8161c191681555b5050505050600190811b01905550565b634e487b7160e01b5f52601160045260245ffd5b80820180821115611c0957611c09614cb9565b81810381811115611c0957611c09614cb9565b6020808252602f908201527f4b696e646c792066696c6c20616c6c20746865206d616e6461746f727920666560408201526e696c64732070726f7065726c79212160881b606082015260800190565b6020808252606c908201527f496e636f727265637420446f63746f7227732077616c6c65742061646472657360408201527f73206f722054686520446f63746f722064657461696c20666f7220746865206160608201527f6464726573732070726f7669646564206e6f7420617661696c61626c6520696e60808201526b2074686520636861696e212160a01b60a082015260c00190565b5f60018201614deb57614deb614cb9565b5060010190565b5f82614e0c57634e487b7160e01b5f52601260045260245ffd5b500490565b6020808252601e908201527f57616c6c657420416464726573732063616e6e6f7420626520656d7074790000604082015260600190565b60208082526078908201527f496e636f727265637420446f63746f722077616c6c657420616464726573732060408201527f6f722054686520446f63746f722064657461696c20666f72207468652061646460608201527f726573732070726f7669646564206973206e6f7420636f6d706c6574656c792060808201527f617661696c61626c6520696e2074686520636861696e2121000000000000000060a082015260c00190565b60208082526027908201527f596f752068617665206e6f2061636365737320746f206665746368207468652060408201526664657461696c7360c81b60608201526080019056fea2646970667358221220db1c681453fd9c664898ee04cbfd21992d2c0970114752784d6fa546dc36127a64736f6c63430008150033",
  "linkReferences": {},
  "deployedLinkReferences": {}
}