{
  "_format": "hh-sol-artifact-1",
  "contractName": "PatientDetails",
  "sourceName": "src/contracts/Patient.sol",
  "abi": [
    {
      "inputs": [],
      "stateMutability": "nonpayable",
      "type": "constructor"
    },
    {
      "inputs": [
        {
          "internalType": "address",
          "name": "_walletAddress",
          "type": "address"
        }
      ],
      "name": "AddAdminAccess",
      "outputs": [],
      "stateMutability": "nonpayable",
      "type": "function"
    },
    {
      "inputs": [
        {
          "internalType": "string",
          "name": "_name",
          "type": "string"
        },
        {
          "internalType": "address",
          "name": "_walletAddress",
          "type": "address"
        },
        {
          "internalType": "string",
          "name": "_dateOfBirth",
          "type": "string"
        },
        {
          "internalType": "uint256",
          "name": "_age",
          "type": "uint256"
        },
        {
          "internalType": "uint256",
          "name": "_phoneNumber",
          "type": "uint256"
        },
        {
          "internalType": "string",
          "name": "_email",
          "type": "string"
        }
      ],
      "name": "AddDoctorPersonalInfo",
      "outputs": [],
      "stateMutability": "nonpayable",
      "type": "function"
    },
    {
      "inputs": [
        {
          "internalType": "address",
          "name": "_walletAddress",
          "type": "address"
        },
        {
          "internalType": "string",
          "name": "_MedicalLicenseNumber",
          "type": "string"
        },
        {
          "internalType": "string",
          "name": "_Specialization",
          "type": "string"
        },
        {
          "internalType": "string",
          "name": "_AvailableTimings",
          "type": "string"
        },
        {
          "internalType": "uint256",
          "name": "_ExperienceInYear",
          "type": "uint256"
        },
        {
          "internalType": "string",
          "name": "_MedicalSchoolAttended",
          "type": "string"
        },
        {
          "internalType": "bool",
          "name": "_isLicenseValid",
          "type": "bool"
        }
      ],
      "name": "AddDoctorProfessionalInfo",
      "outputs": [],
      "stateMutability": "nonpayable",
      "type": "function"
    },
    {
      "inputs": [
        {
          "internalType": "string",
          "name": "_date",
          "type": "string"
        },
        {
          "internalType": "address",
          "name": "_walletAddress",
          "type": "address"
        },
        {
          "internalType": "bool",
          "name": "_isAlcoholic",
          "type": "bool"
        },
        {
          "internalType": "bool",
          "name": "_isSmoker",
          "type": "bool"
        },
        {
          "internalType": "bool",
          "name": "_isSmokelessTobaccoUser",
          "type": "bool"
        },
        {
          "internalType": "string",
          "name": "_surgicalHistory_ifAny",
          "type": "string"
        },
        {
          "internalType": "string",
          "name": "_physicalActivityLevel",
          "type": "string"
        },
        {
          "internalType": "string",
          "name": "_pastMedicationDetails_IfAny",
          "type": "string"
        }
      ],
      "name": "AddPatientsMedicalDetails",
      "outputs": [],
      "stateMutability": "nonpayable",
      "type": "function"
    },
    {
      "inputs": [
        {
          "internalType": "string",
          "name": "date",
          "type": "string"
        },
        {
          "internalType": "string",
          "name": "_name",
          "type": "string"
        },
        {
          "internalType": "address",
          "name": "_walletAddress",
          "type": "address"
        },
        {
          "internalType": "string",
          "name": "_gender",
          "type": "string"
        },
        {
          "internalType": "string",
          "name": "_Occupation",
          "type": "string"
        },
        {
          "internalType": "string",
          "name": "_dateOfBirth",
          "type": "string"
        },
        {
          "internalType": "uint256",
          "name": "_age",
          "type": "uint256"
        }
      ],
      "name": "AddPatientsPersonalDetails",
      "outputs": [],
      "stateMutability": "nonpayable",
      "type": "function"
    },
    {
      "inputs": [
        {
          "internalType": "uint256",
          "name": "",
          "type": "uint256"
        }
      ],
      "name": "AdminAccess",
      "outputs": [
        {
          "internalType": "address",
          "name": "",
          "type": "address"
        }
      ],
      "stateMutability": "view",
      "type": "function"
    },
    {
      "inputs": [
        {
          "internalType": "address",
          "name": "_walletAddress",
          "type": "address"
        }
      ],
      "name": "DeleteAdminAccess",
      "outputs": [],
      "stateMutability": "nonpayable",
      "type": "function"
    },
    {
      "inputs": [
        {
          "internalType": "address",
          "name": "",
          "type": "address"
        }
      ],
      "name": "DoctorAccess",
      "outputs": [
        {
          "internalType": "bool",
          "name": "",
          "type": "bool"
        }
      ],
      "stateMutability": "view",
      "type": "function"
    },
    {
      "inputs": [
        {
          "internalType": "address",
          "name": "",
          "type": "address"
        }
      ],
      "name": "DoctorsPersonalInfo",
      "outputs": [
        {
          "internalType": "string",
          "name": "name",
          "type": "string"
        },
        {
          "internalType": "address",
          "name": "walletAddress",
          "type": "address"
        },
        {
          "internalType": "string",
          "name": "dateOfBirth",
          "type": "string"
        },
        {
          "internalType": "uint256",
          "name": "age",
          "type": "uint256"
        },
        {
          "internalType": "uint256",
          "name": "phoneNumber",
          "type": "uint256"
        },
        {
          "internalType": "string",
          "name": "email",
          "type": "string"
        }
      ],
      "stateMutability": "view",
      "type": "function"
    },
    {
      "inputs": [
        {
          "internalType": "address",
          "name": "",
          "type": "address"
        }
      ],
      "name": "Doctors_ProfessionalDetails",
      "outputs": [
        {
          "internalType": "address",
          "name": "walletAddress",
          "type": "address"
        },
        {
          "internalType": "string",
          "name": "MedicalSchoolAttended",
          "type": "string"
        },
        {
          "internalType": "string",
          "name": "MedicalLicenseNumber",
          "type": "string"
        },
        {
          "internalType": "string",
          "name": "Specialization",
          "type": "string"
        },
        {
          "internalType": "string",
          "name": "AvailableTimings",
          "type": "string"
        },
        {
          "internalType": "uint256",
          "name": "ExperienceInYear",
          "type": "uint256"
        },
        {
          "internalType": "bool",
          "name": "isLicenseValid",
          "type": "bool"
        }
      ],
      "stateMutability": "view",
      "type": "function"
    },
    {
      "inputs": [
        {
          "internalType": "string",
          "name": "_name",
          "type": "string"
        },
        {
          "internalType": "address",
          "name": "_walletAddress",
          "type": "address"
        },
        {
          "internalType": "string",
          "name": "_dateOfBirth",
          "type": "string"
        },
        {
          "internalType": "uint256",
          "name": "_age",
          "type": "uint256"
        },
        {
          "internalType": "uint256",
          "name": "_phoneNumber",
          "type": "uint256"
        },
        {
          "internalType": "string",
          "name": "_email",
          "type": "string"
        }
      ],
      "name": "EditDoctorPersonalDetails",
      "outputs": [],
      "stateMutability": "nonpayable",
      "type": "function"
    },
    {
      "inputs": [
        {
          "internalType": "address",
          "name": "_walletAddress",
          "type": "address"
        },
        {
          "internalType": "string",
          "name": "_MedicalLicenseNumber",
          "type": "string"
        },
        {
          "internalType": "string",
          "name": "_Specialization",
          "type": "string"
        },
        {
          "internalType": "string",
          "name": "_AvailableTimings",
          "type": "string"
        },
        {
          "internalType": "uint256",
          "name": "_ExperienceInYear",
          "type": "uint256"
        },
        {
          "internalType": "string",
          "name": "_MedicalSchoolAttended",
          "type": "string"
        },
        {
          "internalType": "bool",
          "name": "_isLicenseValid",
          "type": "bool"
        },
        {
          "internalType": "address[]",
          "name": "_treatedPatients",
          "type": "address[]"
        }
      ],
      "name": "EditDoctorProfessionalDetails",
      "outputs": [],
      "stateMutability": "nonpayable",
      "type": "function"
    },
    {
      "inputs": [
        {
          "internalType": "string",
          "name": "_date",
          "type": "string"
        },
        {
          "internalType": "string",
          "name": "_name",
          "type": "string"
        },
        {
          "internalType": "address",
          "name": "_walletAddress",
          "type": "address"
        },
        {
          "internalType": "string",
          "name": "_gender",
          "type": "string"
        },
        {
          "internalType": "string",
          "name": "_Occupation",
          "type": "string"
        },
        {
          "internalType": "string",
          "name": "_dateOfBirth",
          "type": "string"
        },
        {
          "internalType": "uint256",
          "name": "_age",
          "type": "uint256"
        }
      ],
      "name": "EditPatientPersonalDetails",
      "outputs": [],
      "stateMutability": "nonpayable",
      "type": "function"
    },
    {
      "inputs": [
        {
          "internalType": "string",
          "name": "_date",
          "type": "string"
        },
        {
          "internalType": "address",
          "name": "_walletAddress",
          "type": "address"
        },
        {
          "internalType": "bool",
          "name": "_isAlcoholic",
          "type": "bool"
        },
        {
          "internalType": "bool",
          "name": "_isSmoker",
          "type": "bool"
        },
        {
          "internalType": "bool",
          "name": "_isSmokelessTobaccoUser",
          "type": "bool"
        },
        {
          "internalType": "string",
          "name": "_surgicalHistory_ifAny",
          "type": "string"
        },
        {
          "internalType": "string",
          "name": "_physicalActivityLevel",
          "type": "string"
        },
        {
          "internalType": "string",
          "name": "_pastMedicationDetails_IfAny",
          "type": "string"
        }
      ],
      "name": "EditPatinetMedicalDetails",
      "outputs": [],
      "stateMutability": "nonpayable",
      "type": "function"
    },
    {
      "inputs": [
        {
          "internalType": "address",
          "name": "",
          "type": "address"
        },
        {
          "internalType": "uint256",
          "name": "",
          "type": "uint256"
        }
      ],
      "name": "HealthCondition",
      "outputs": [
        {
          "internalType": "string",
          "name": "date",
          "type": "string"
        },
        {
          "internalType": "address",
          "name": "walletAddress",
          "type": "address"
        },
        {
          "internalType": "address",
          "name": "physician",
          "type": "address"
        },
        {
          "internalType": "string",
          "name": "Department_uint",
          "type": "string"
        },
        {
          "internalType": "string",
          "name": "BloodPressure",
          "type": "string"
        },
        {
          "internalType": "string",
          "name": "HeartRate",
          "type": "string"
        },
        {
          "internalType": "string",
          "name": "RespiratoryRate",
          "type": "string"
        },
        {
          "internalType": "string",
          "name": "Dosage",
          "type": "string"
        }
      ],
      "stateMutability": "view",
      "type": "function"
    },
    {
      "inputs": [
        {
          "internalType": "string",
          "name": "dataURL",
          "type": "string"
        },
        {
          "internalType": "address",
          "name": "user",
          "type": "address"
        }
      ],
      "name": "PatientDataStorage",
      "outputs": [],
      "stateMutability": "nonpayable",
      "type": "function"
    },
    {
      "inputs": [
        {
          "internalType": "address",
          "name": "",
          "type": "address"
        }
      ],
      "name": "PatientsMedicalDetails",
      "outputs": [
        {
          "internalType": "string",
          "name": "date",
          "type": "string"
        },
        {
          "internalType": "address",
          "name": "walletAddress",
          "type": "address"
        },
        {
          "internalType": "bool",
          "name": "isAlcoholic",
          "type": "bool"
        },
        {
          "internalType": "bool",
          "name": "isSmoker",
          "type": "bool"
        },
        {
          "internalType": "bool",
          "name": "isSmokelessTobaccoUser",
          "type": "bool"
        },
        {
          "internalType": "string",
          "name": "surgicalHistory_ifAny",
          "type": "string"
        },
        {
          "internalType": "string",
          "name": "physicalActivityLevel",
          "type": "string"
        },
        {
          "internalType": "string",
          "name": "pastMedicationDetails_IfAny",
          "type": "string"
        }
      ],
      "stateMutability": "view",
      "type": "function"
    },
    {
      "inputs": [
        {
          "internalType": "address",
          "name": "",
          "type": "address"
        }
      ],
      "name": "PatientsPersonalDetails",
      "outputs": [
        {
          "internalType": "string",
          "name": "date",
          "type": "string"
        },
        {
          "internalType": "string",
          "name": "name",
          "type": "string"
        },
        {
          "internalType": "address",
          "name": "walletAddress",
          "type": "address"
        },
        {
          "internalType": "string",
          "name": "gender",
          "type": "string"
        },
        {
          "internalType": "string",
          "name": "Occupation",
          "type": "string"
        },
        {
          "internalType": "string",
          "name": "dateOfBirth",
          "type": "string"
        },
        {
          "internalType": "uint256",
          "name": "age",
          "type": "uint256"
        }
      ],
      "stateMutability": "view",
      "type": "function"
    },
    {
      "inputs": [
        {
          "internalType": "address",
          "name": "_address",
          "type": "address"
        }
      ],
      "name": "addOwner",
      "outputs": [],
      "stateMutability": "nonpayable",
      "type": "function"
    },
    {
      "inputs": [
        {
          "internalType": "string",
          "name": "_date",
          "type": "string"
        },
        {
          "internalType": "address",
          "name": "_walletAddress",
          "type": "address"
        },
        {
          "internalType": "address",
          "name": "_physician",
          "type": "address"
        },
        {
          "internalType": "string",
          "name": "_Department_uint",
          "type": "string"
        },
        {
          "internalType": "string",
          "name": "_BloodPressure",
          "type": "string"
        },
        {
          "internalType": "string",
          "name": "_HeartRate",
          "type": "string"
        },
        {
          "internalType": "string",
          "name": "_RespiratoryRate",
          "type": "string"
        },
        {
          "internalType": "string",
          "name": "_Dosage",
          "type": "string"
        }
      ],
      "name": "addPatientHealthDetails",
      "outputs": [],
      "stateMutability": "nonpayable",
      "type": "function"
    },
    {
      "inputs": [
        {
          "internalType": "uint256",
          "name": "_yearOfBirth",
          "type": "uint256"
        }
      ],
      "name": "getAge",
      "outputs": [
        {
          "internalType": "uint256",
          "name": "",
          "type": "uint256"
        }
      ],
      "stateMutability": "view",
      "type": "function"
    },
    {
      "inputs": [
        {
          "internalType": "address",
          "name": "_walletAddress",
          "type": "address"
        }
      ],
      "name": "getDoctor",
      "outputs": [
        {
          "components": [
            {
              "internalType": "string",
              "name": "name",
              "type": "string"
            },
            {
              "internalType": "address",
              "name": "walletAddress",
              "type": "address"
            },
            {
              "internalType": "string",
              "name": "dateOfBirth",
              "type": "string"
            },
            {
              "internalType": "uint256",
              "name": "age",
              "type": "uint256"
            },
            {
              "internalType": "uint256",
              "name": "phoneNumber",
              "type": "uint256"
            },
            {
              "internalType": "string",
              "name": "email",
              "type": "string"
            }
          ],
          "internalType": "struct DoctorDetails.DoctorPersonalInfo",
          "name": "",
          "type": "tuple"
        },
        {
          "components": [
            {
              "internalType": "address",
              "name": "walletAddress",
              "type": "address"
            },
            {
              "internalType": "string",
              "name": "MedicalSchoolAttended",
              "type": "string"
            },
            {
              "internalType": "string",
              "name": "MedicalLicenseNumber",
              "type": "string"
            },
            {
              "internalType": "string",
              "name": "Specialization",
              "type": "string"
            },
            {
              "internalType": "string",
              "name": "AvailableTimings",
              "type": "string"
            },
            {
              "internalType": "uint256",
              "name": "ExperienceInYear",
              "type": "uint256"
            },
            {
              "internalType": "address[]",
              "name": "treatedPatients",
              "type": "address[]"
            },
            {
              "internalType": "bool",
              "name": "isLicenseValid",
              "type": "bool"
            }
          ],
          "internalType": "struct DoctorDetails.DoctorProfessionalDetails",
          "name": "",
          "type": "tuple"
        }
      ],
      "stateMutability": "view",
      "type": "function"
    },
    {
      "inputs": [
        {
          "internalType": "address",
          "name": "_walletAddress",
          "type": "address"
        }
      ],
      "name": "getPatientDetails",
      "outputs": [
        {
          "components": [
            {
              "internalType": "string",
              "name": "date",
              "type": "string"
            },
            {
              "internalType": "string",
              "name": "name",
              "type": "string"
            },
            {
              "internalType": "address",
              "name": "walletAddress",
              "type": "address"
            },
            {
              "internalType": "string",
              "name": "gender",
              "type": "string"
            },
            {
              "internalType": "string",
              "name": "Occupation",
              "type": "string"
            },
            {
              "internalType": "string",
              "name": "dateOfBirth",
              "type": "string"
            },
            {
              "internalType": "uint256",
              "name": "age",
              "type": "uint256"
            }
          ],
          "internalType": "struct PatientDetails.PatientPersonalDetails",
          "name": "",
          "type": "tuple"
        },
        {
          "components": [
            {
              "internalType": "string",
              "name": "date",
              "type": "string"
            },
            {
              "internalType": "address",
              "name": "walletAddress",
              "type": "address"
            },
            {
              "internalType": "bool",
              "name": "isAlcoholic",
              "type": "bool"
            },
            {
              "internalType": "bool",
              "name": "isSmoker",
              "type": "bool"
            },
            {
              "internalType": "bool",
              "name": "isSmokelessTobaccoUser",
              "type": "bool"
            },
            {
              "internalType": "string",
              "name": "surgicalHistory_ifAny",
              "type": "string"
            },
            {
              "internalType": "string",
              "name": "physicalActivityLevel",
              "type": "string"
            },
            {
              "internalType": "string",
              "name": "pastMedicationDetails_IfAny",
              "type": "string"
            }
          ],
          "internalType": "struct PatientDetails.PatientMedicalDetails",
          "name": "",
          "type": "tuple"
        }
      ],
      "stateMutability": "view",
      "type": "function"
    },
    {
      "inputs": [
        {
          "internalType": "address",
          "name": "_walletAddress",
          "type": "address"
        }
      ],
      "name": "getPatientHealthDetails",
      "outputs": [
        {
          "components": [
            {
              "internalType": "string",
              "name": "date",
              "type": "string"
            },
            {
              "internalType": "address",
              "name": "walletAddress",
              "type": "address"
            },
            {
              "internalType": "address",
              "name": "physician",
              "type": "address"
            },
            {
              "internalType": "string",
              "name": "Department_uint",
              "type": "string"
            },
            {
              "internalType": "string",
              "name": "BloodPressure",
              "type": "string"
            },
            {
              "internalType": "string",
              "name": "HeartRate",
              "type": "string"
            },
            {
              "internalType": "string",
              "name": "RespiratoryRate",
              "type": "string"
            },
            {
              "internalType": "string",
              "name": "Dosage",
              "type": "string"
            }
          ],
          "internalType": "struct PatientDetails.PatientHealthCondition[]",
          "name": "",
          "type": "tuple[]"
        }
      ],
      "stateMutability": "view",
      "type": "function"
    },
    {
      "inputs": [
        {
          "internalType": "uint256",
          "name": "timestamp",
          "type": "uint256"
        }
      ],
      "name": "getYear",
      "outputs": [
        {
          "internalType": "uint256",
          "name": "",
          "type": "uint256"
        }
      ],
      "stateMutability": "pure",
      "type": "function"
    },
    {
      "inputs": [],
      "name": "id",
      "outputs": [
        {
          "internalType": "uint256",
          "name": "",
          "type": "uint256"
        }
      ],
      "stateMutability": "view",
      "type": "function"
    },
    {
      "inputs": [
        {
          "internalType": "address",
          "name": "_address",
          "type": "address"
        }
      ],
      "name": "isDoctor",
      "outputs": [
        {
          "internalType": "bool",
          "name": "val",
          "type": "bool"
        }
      ],
      "stateMutability": "view",
      "type": "function"
    },
    {
      "inputs": [
        {
          "internalType": "address",
          "name": "_address",
          "type": "address"
        }
      ],
      "name": "isOwner",
      "outputs": [
        {
          "internalType": "bool",
          "name": "val",
          "type": "bool"
        }
      ],
      "stateMutability": "view",
      "type": "function"
    },
    {
      "inputs": [
        {
          "internalType": "address",
          "name": "",
          "type": "address"
        }
      ],
      "name": "owner",
      "outputs": [
        {
          "internalType": "bool",
          "name": "",
          "type": "bool"
        }
      ],
      "stateMutability": "view",
      "type": "function"
    },
    {
      "inputs": [
        {
          "internalType": "address",
          "name": "",
          "type": "address"
        },
        {
          "internalType": "uint256",
          "name": "",
          "type": "uint256"
        }
      ],
      "name": "patientsStoredData",
      "outputs": [
        {
          "internalType": "string",
          "name": "",
          "type": "string"
        }
      ],
      "stateMutability": "view",
      "type": "function"
    },
    {
      "inputs": [
        {
          "internalType": "address",
          "name": "_address",
          "type": "address"
        }
      ],
      "name": "removeOwner",
      "outputs": [],
      "stateMutability": "nonpayable",
      "type": "function"
    },
    {
      "inputs": [],
      "name": "superOwner",
      "outputs": [
        {
          "internalType": "address",
          "name": "",
          "type": "address"
        }
      ],
      "stateMutability": "view",
      "type": "function"
    },
    {
      "inputs": [],
      "name": "totalAdmin",
      "outputs": [
        {
          "internalType": "uint256",
          "name": "",
          "type": "uint256"
        }
      ],
      "stateMutability": "view",
      "type": "function"
    },
    {
      "inputs": [],
      "name": "totalDoctors",
      "outputs": [
        {
          "internalType": "uint256",
          "name": "",
          "type": "uint256"
        }
      ],
      "stateMutability": "view",
      "type": "function"
    },
    {
      "inputs": [],
      "name": "totalPatient",
      "outputs": [
        {
          "internalType": "uint256",
          "name": "",
          "type": "uint256"
        }
      ],
      "stateMutability": "view",
      "type": "function"
    }
  ],
  "bytecode": "0x608060405234801562000010575f80fd5b50335f818152602081905260409020805460ff1916600190811790915580546001600160a01b03191682179055620000489062000053565b600160085562000252565b335f9081526020819052604090205460ff161515600114806200008057506001546001600160a01b031633145b620000e55760405162461bcd60e51b815260206004820152602a60248201527f41636365737365626c65206f6e6c7920666f72204f776e65727320616e642053604482015269757065724f776e65727360b01b60648201526084015b60405180910390fd5b335f908152602081905260409020805460ff191660011790556001600160a01b0381165f9081526003602052604090205460ff1615620001685760405162461bcd60e51b815260206004820181905260248201527f4164647265737320616c7265616479206861732061646d696e206163636573736044820152606401620000dc565b6001600160a01b038116620001b25760405162461bcd60e51b815260206004820152600f60248201526e496e76616c6964204164647265737360881b6044820152606401620000dc565b6002805460018082019092557f405787fa12a823e0f2b7631cc41b3ba8828b3321ca811111fa75cd3aa3bb5ace0180546001600160a01b0319166001600160a01b0384169081179091555f908152600360205260408120805460ff1916909217909155600780549162000225836200022d565b919050555050565b5f600182016200024b57634e487b7160e01b5f52601160045260245ffd5b5060010190565b6152d680620002605f395ff3fe608060405234801561000f575f80fd5b5060043610610208575f3560e01c80637a508e9c1161011f578063af640d0f116100a9578063cda2e23c11610079578063cda2e23c146104d9578063d1f2f0e5146104ec578063efe2ccc1146104ff578063f243cc6a14610520578063fe0c2a3114610547575f80fd5b8063af640d0f14610468578063b5f63ec514610471578063bb7d6b6714610491578063bbcaa637146104b3575f80fd5b806392c2808f116100ef57806392c2808f1461041357806392d663131461041c578063996440c61461042f578063a49b172514610442578063aa908bbe14610455575f80fd5b80637a508e9c146103af5780637f1955eb146103c257806387dcd2b6146103d557806388b29e8b14610400575f80fd5b806334a9e6eb116101a0578063666e1b3911610170578063666e1b391461032257806366adec56146103445780636e2c0ffe146103575780637065cb481461037757806375c6a96c1461038a575f80fd5b806334a9e6eb146102ea5780636140f5aa146102fd57806364319e331461031057806365b44d7e14610319575f80fd5b80631a757712116101db5780631a7577121461026d5780631f650cc9146102805780632f04e064146102a65780632f54bf6e146102c7575f80fd5b8063013b58c81461020c5780630e37008a14610221578063173825d91461024757806318396cc81461025a575b5f80fd5b61021f61021a36600461416a565b61056e565b005b61023461022f3660046141b5565b6105a4565b6040519081526020015b60405180910390f35b61021f6102553660046141cc565b610626565b61021f610268366004614278565b6106a0565b61021f61027b36600461436b565b6108ad565b61029361028e3660046141cc565b610a39565b60405161023e9796959493929190614452565b6102b96102b43660046141cc565b610d1f565b60405161023e9291906145d0565b6102da6102d53660046141cc565b611448565b604051901515815260200161023e565b61021f6102f8366004614670565b611475565b61021f61030b3660046141cc565b611642565b61023460075481565b61023460065481565b6102da6103303660046141cc565b5f6020819052908152604090205460ff1681565b61021f610352366004614670565b6117a7565b61036a610365366004614747565b6119ed565b60405161023e919061476f565b61021f6103853660046141cc565b611a9e565b61039d6103983660046141cc565b611b1b565b60405161023e96959493929190614781565b61021f6103bd3660046147e1565b611cef565b61021f6103d03660046148c3565b611ea7565b6001546103e8906001600160a01b031681565b6040516001600160a01b03909116815260200161023e565b61021f61040e3660046141cc565b612194565b610234600d5481565b61023461042a3660046141b5565b61231e565b6102da61043d3660046141cc565b612333565b61021f61045036600461436b565b61235b565b6103e86104633660046141b5565b612555565b61023460085481565b61048461047f3660046141cc565b61257d565b60405161023e9190614992565b6102da61049f3660046141cc565b60036020525f908152604090205460ff1681565b6104c66104c13660046141cc565b612a15565b60405161023e9796959493929190614ab3565b61021f6104e73660046147e1565b612c75565b61021f6104fa366004614b2c565b612e98565b61051261050d3660046141cc565b61324c565b60405161023e929190614c7f565b61053361052e3660046141cc565b613aa9565b60405161023e989796959493929190614d45565b61055a610555366004614747565b613d19565b60405161023e989796959493929190614dca565b6001600160a01b0381165f908152600c602090815260408220805460018101825590835291200161059f8382614eb5565b505050565b5f806105af4261231e565b90505f836105bf836107b2614f85565b6105c99190614f98565b90505f811161061f5760405162461bcd60e51b815260206004820152601860248201527f456e74657220636f72726563742062697274682079656172000000000000000060448201526064015b60405180910390fd5b9392505050565b6001546001600160a01b031633146106805760405162461bcd60e51b815260206004820152601f60248201527f41636365737365626c65206f6e6c7920666f722053757065724f776e657273006044820152606401610616565b6001600160a01b03165f908152602081905260409020805460ff19169055565b335f9081526020819052604090205460ff161515600114806106cc57506001546001600160a01b031633145b6106e85760405162461bcd60e51b815260040161061690614fab565b6001600160a01b0388161580159061070057505f8351115b801561070c57505f8751115b801561071857505f8651115b801561072457505f8551115b6107685760405162461bcd60e51b8152602060048201526015602482015274656e74657220636f72726563742064657461696c7360581b6044820152606401610616565b6001600160a01b038089165f81815260056020526040902054909116146107a15760405162461bcd60e51b815260040161061690614ff5565b60408051610100810182526001600160a01b038a811680835260208084018881528486018d9052606085018c9052608085018b905260a085018a905260c0850187905287151560e08601525f9283526005909152939020825181546001600160a01b0319169216919091178155915190919060018201906108229082614eb5565b50604082015160028201906108379082614eb5565b506060820151600382019061084c9082614eb5565b50608082015160048201906108619082614eb5565b5060a0820151600582015560c0820151805161088791600684019160209091019061402c565b5060e091909101516007909101805460ff19169115159190911790555050505050505050565b335f9081526020819052604090205460ff161515600114806108d957506001546001600160a01b031633145b6108f55760405162461bcd60e51b815260040161061690614fab565b6001600160a01b0385161580159061090d57505f8151115b801561091957505f8651115b6109355760405162461bcd60e51b81526004016106169061508d565b6001600160a01b038086165f81815260046020526040902060010154909116146109715760405162461bcd60e51b815260040161061690614ff5565b6040805160c0810182528781526001600160a01b0387166020808301829052828401889052606083018790526080830186905260a083018590525f918252600490529190912081518592919081906109c99082614eb5565b5060208201516001820180546001600160a01b0319166001600160a01b0390921691909117905560408201516002820190610a049082614eb5565b50606082015160038201556080820151600482015560a08201516005820190610a2d9082614eb5565b50505050505050505050565b60096020525f9081526040902080548190610a5390614e30565b80601f0160208091040260200160405190810160405280929190818152602001828054610a7f90614e30565b8015610aca5780601f10610aa157610100808354040283529160200191610aca565b820191905f5260205f20905b815481529060010190602001808311610aad57829003601f168201915b505050505090806001018054610adf90614e30565b80601f0160208091040260200160405190810160405280929190818152602001828054610b0b90614e30565b8015610b565780601f10610b2d57610100808354040283529160200191610b56565b820191905f5260205f20905b815481529060010190602001808311610b3957829003601f168201915b505050600284015460038501805494956001600160a01b03909216949193509150610b8090614e30565b80601f0160208091040260200160405190810160405280929190818152602001828054610bac90614e30565b8015610bf75780601f10610bce57610100808354040283529160200191610bf7565b820191905f5260205f20905b815481529060010190602001808311610bda57829003601f168201915b505050505090806004018054610c0c90614e30565b80601f0160208091040260200160405190810160405280929190818152602001828054610c3890614e30565b8015610c835780601f10610c5a57610100808354040283529160200191610c83565b820191905f5260205f20905b815481529060010190602001808311610c6657829003601f168201915b505050505090806005018054610c9890614e30565b80601f0160208091040260200160405190810160405280929190818152602001828054610cc490614e30565b8015610d0f5780601f10610ce657610100808354040283529160200191610d0f565b820191905f5260205f20905b815481529060010190602001808311610cf257829003601f168201915b5050505050908060060154905087565b610d5e6040518060c00160405280606081526020015f6001600160a01b03168152602001606081526020015f81526020015f8152602001606081525090565b610dae6040518061010001604052805f6001600160a01b03168152602001606081526020016060815260200160608152602001606081526020015f8152602001606081526020015f151581525090565b335f9081526020819052604090205460ff16151560011480610dda57506001546001600160a01b031633145b610df65760405162461bcd60e51b815260040161061690614fab565b6001600160a01b038316610e4c5760405162461bcd60e51b815260206004820152601e60248201527f57616c6c657420416464726573732063616e6e6f7420626520656d70747900006044820152606401610616565b6001600160a01b038084165f81815260046020526040902060010154909116148015610e9157506001600160a01b038084165f81815260056020526040902054909116145b610f4f5760405162461bcd60e51b815260206004820152607860248201527f496e636f727265637420446f63746f722077616c6c657420616464726573732060448201527f6f722054686520446f63746f722064657461696c20666f72207468652061646460648201527f726573732070726f7669646564206973206e6f7420636f6d706c6574656c792060848201527f617661696c61626c6520696e2074686520636861696e2121000000000000000060a482015260c401610616565b6001600160a01b0383165f908152600460209081526040808320600590925291829020825160c08101909352815491929091839082908290610f9090614e30565b80601f0160208091040260200160405190810160405280929190818152602001828054610fbc90614e30565b80156110075780601f10610fde57610100808354040283529160200191611007565b820191905f5260205f20905b815481529060010190602001808311610fea57829003601f168201915b505050918352505060018201546001600160a01b0316602082015260028201805460409092019161103790614e30565b80601f016020809104026020016040519081016040528092919081815260200182805461106390614e30565b80156110ae5780601f10611085576101008083540402835291602001916110ae565b820191905f5260205f20905b81548152906001019060200180831161109157829003601f168201915b5050505050815260200160038201548152602001600482015481526020016005820180546110db90614e30565b80601f016020809104026020016040519081016040528092919081815260200182805461110790614e30565b80156111525780601f1061112957610100808354040283529160200191611152565b820191905f5260205f20905b81548152906001019060200180831161113557829003601f168201915b50505091909252505060408051610100810190915283546001600160a01b03168152600184018054939550909284925060208401919061119190614e30565b80601f01602080910402602001604051908101604052809291908181526020018280546111bd90614e30565b80156112085780601f106111df57610100808354040283529160200191611208565b820191905f5260205f20905b8154815290600101906020018083116111eb57829003601f168201915b5050505050815260200160028201805461122190614e30565b80601f016020809104026020016040519081016040528092919081815260200182805461124d90614e30565b80156112985780601f1061126f57610100808354040283529160200191611298565b820191905f5260205f20905b81548152906001019060200180831161127b57829003601f168201915b505050505081526020016003820180546112b190614e30565b80601f01602080910402602001604051908101604052809291908181526020018280546112dd90614e30565b80156113285780601f106112ff57610100808354040283529160200191611328565b820191905f5260205f20905b81548152906001019060200180831161130b57829003601f168201915b5050505050815260200160048201805461134190614e30565b80601f016020809104026020016040519081016040528092919081815260200182805461136d90614e30565b80156113b85780601f1061138f576101008083540402835291602001916113b8565b820191905f5260205f20905b81548152906001019060200180831161139b57829003601f168201915b50505050508152602001600582015481526020016006820180548060200260200160405190810160405280929190818152602001828054801561142257602002820191905f5260205f20905b81546001600160a01b03168152600190910190602001808311611404575b50505091835250506007919091015460ff16151560209091015291935090915050915091565b6001600160a01b0381165f9081526020819052604081205460ff161561147057506001919050565b919050565b335f9081526003602052604081205460ff1615611490575060015b335f9081526003602052604090205460ff166114be5760405162461bcd60e51b8152600401610616906150dc565b6001600160a01b0388166114e45760405162461bcd60e51b815260040161061690615144565b6001600160a01b038089165f81815260096020526040902060020154909116146115205760405162461bcd60e51b81526004016106169061518a565b60408051610100810182528a81526001600160a01b038a1660208083018290528a1515838501528915156060840152881515608084015260a0830188905260c0830187905260e083018690525f918252600a905291909120815181906115869082614eb5565b5060208201516001820180546040850151606086015160808701511515600160b01b0260ff60b01b19911515600160a81b029190911661ffff60a81b19921515600160a01b026001600160a81b03199094166001600160a01b039096169590951792909217169290921791909117905560a0820151600282019061160a9082614eb5565b5060c0820151600382019061161f9082614eb5565b5060e082015160048201906116349082614eb5565b505050505050505050505050565b335f9081526020819052604090205460ff1615156001148061166e57506001546001600160a01b031633145b61168a5760405162461bcd60e51b815260040161061690614fab565b335f908152602081905260409020805460ff191660011790556001600160a01b0381166116eb5760405162461bcd60e51b815260206004820152600f60248201526e496e76616c6964204164647265737360881b6044820152606401610616565b6001600160a01b0381165f9081526003602052604090205460ff166117875760405162461bcd60e51b815260206004820152604660248201527f50726f76696465642061646472657373206d75737420626520616e2041646d6960448201527f6e4163636573734164647265737320746f2072656d6f76652041646d696e416360648201526563657373212160d01b608482015260a401610616565b6001600160a01b03165f908152600360205260409020805460ff19169055565b335f9081526003602052604081205460ff16156117c2575060015b335f9081526003602052604090205460ff166117f05760405162461bcd60e51b8152600401610616906150dc565b6001600160a01b038089165f818152600a60205260409020600101549091160361186c5760405162461bcd60e51b815260206004820152602760248201527f50617469656e74206d65646963616c2064657461696c7320616c7265616479206044820152666578697374212160c81b6064820152608401610616565b6001600160a01b0388166118925760405162461bcd60e51b815260040161061690615144565b60408051610100810182528a81526001600160a01b038a1660208083018290528a1515838501528915156060840152881515608084015260a0830188905260c0830187905260e083018690525f918252600a905291909120815181906118f89082614eb5565b5060208201516001820180546040850151606086015160808701511515600160b01b0260ff60b01b19911515600160a81b029190911661ffff60a81b19921515600160a01b026001600160a81b03199094166001600160a01b039096169590951792909217169290921791909117905560a0820151600282019061197c9082614eb5565b5060c082015160038201906119919082614eb5565b5060e082015160048201906119a69082614eb5565b5050506001600160a01b038089165f81815260096020526040902060020154909116036119e257600d8054905f6119dc83615222565b91905055505b505050505050505050565b600c602052815f5260405f208181548110611a06575f80fd5b905f5260205f20015f91509150508054611a1f90614e30565b80601f0160208091040260200160405190810160405280929190818152602001828054611a4b90614e30565b8015611a965780601f10611a6d57610100808354040283529160200191611a96565b820191905f5260205f20905b815481529060010190602001808311611a7957829003601f168201915b505050505081565b6001546001600160a01b03163314611af85760405162461bcd60e51b815260206004820152601f60248201527f41636365737365626c65206f6e6c7920666f722053757065724f776e657273006044820152606401610616565b6001600160a01b03165f908152602081905260409020805460ff19166001179055565b60046020525f9081526040902080548190611b3590614e30565b80601f0160208091040260200160405190810160405280929190818152602001828054611b6190614e30565b8015611bac5780601f10611b8357610100808354040283529160200191611bac565b820191905f5260205f20905b815481529060010190602001808311611b8f57829003601f168201915b505050600184015460028501805494956001600160a01b03909216949193509150611bd690614e30565b80601f0160208091040260200160405190810160405280929190818152602001828054611c0290614e30565b8015611c4d5780601f10611c2457610100808354040283529160200191611c4d565b820191905f5260205f20905b815481529060010190602001808311611c3057829003601f168201915b505050505090806003015490806004015490806005018054611c6e90614e30565b80601f0160208091040260200160405190810160405280929190818152602001828054611c9a90614e30565b8015611ce55780601f10611cbc57610100808354040283529160200191611ce5565b820191905f5260205f20905b815481529060010190602001808311611cc857829003601f168201915b5050505050905086565b335f9081526003602052604081205460ff1615611d0a575060015b335f9081526003602052604090205460ff16611d385760405162461bcd60e51b8152600401610616906150dc565b6001600160a01b03861615801590611d5057505f8551115b8015611d5c57505f8451115b611d785760405162461bcd60e51b815260040161061690615144565b6001600160a01b038087165f8181526009602052604090206002015490911614611db45760405162461bcd60e51b81526004016106169061518a565b6040805160e08101825289815260208082018a90526001600160a01b038916828401819052606083018990526080830188905260a0830187905260c083018690525f9081526009909152919091208151849291908190611e149082614eb5565b5060208201516001820190611e299082614eb5565b5060408201516002820180546001600160a01b0319166001600160a01b0390921691909117905560608201516003820190611e649082614eb5565b5060808201516004820190611e799082614eb5565b5060a08201516005820190611e8e9082614eb5565b5060c08201518160060155905050505050505050505050565b335f9081526020819052604090205460ff16151560011480611ed357506001546001600160a01b031633145b611eef5760405162461bcd60e51b815260040161061690614fab565b6001600160a01b038088165f8181526005602052604090205490911603611f6f5760405162461bcd60e51b815260206004820152602e60248201527f50687973696369616e2050726f66657373696f6e616c2064657461696c73206160448201526d6c7265616479206578697374212160901b6064820152608401610616565b6001600160a01b038088165f8181526005602052604090205490911614801590611f9957505f8251115b8015611fa557505f8651115b8015611fb157505f8551115b8015611fbd57505f8451115b6120015760405162461bcd60e51b8152602060048201526015602482015274456e74657220436f72726563742064657461696c7360581b6044820152606401610616565b604051806101000160405280886001600160a01b031681526020018381526020018781526020018681526020018581526020018481526020015f67ffffffffffffffff811115612053576120536140a3565b60405190808252806020026020018201604052801561207c578160200160208202803683370190505b5081528215156020918201526001600160a01b038981165f9081526005835260409020835181546001600160a01b03191692169190911781559082015160018201906120c89082614eb5565b50604082015160028201906120dd9082614eb5565b50606082015160038201906120f29082614eb5565b50608082015160048201906121079082614eb5565b5060a0820151600582015560c0820151805161212d91600684019160209091019061402c565b5060e091909101516007909101805460ff19169115159190911790556001600160a01b038781165f818152600460205260409020600101549091160361218b5761217687612194565b60068054905f61218583615222565b91905055505b50505050505050565b335f9081526020819052604090205460ff161515600114806121c057506001546001600160a01b031633145b6121dc5760405162461bcd60e51b815260040161061690614fab565b335f908152602081905260409020805460ff191660011790556001600160a01b0381165f9081526003602052604090205460ff161561225d5760405162461bcd60e51b815260206004820181905260248201527f4164647265737320616c7265616479206861732061646d696e206163636573736044820152606401610616565b6001600160a01b0381166122a55760405162461bcd60e51b815260206004820152600f60248201526e496e76616c6964204164647265737360881b6044820152606401610616565b6002805460018082019092557f405787fa12a823e0f2b7631cc41b3ba8828b3321ca811111fa75cd3aa3bb5ace0180546001600160a01b0319166001600160a01b0384169081179091555f908152600360205260408120805460ff1916909217909155600780549161231683615222565b919050555050565b5f61232d6301e133808361523a565b92915050565b6001600160a01b0381165f9081526003602052604081205460ff161561147057506001919050565b335f9081526020819052604090205460ff1615156001148061238757506001546001600160a01b031633145b6123a35760405162461bcd60e51b815260040161061690614fab565b6001600160a01b038086165f81815260046020526040902060010154909116036124215760405162461bcd60e51b815260206004820152602960248201527f50687973696369616e20706572736f6e616c2064657461696c20616c7265616460448201526879206578697374212160b81b6064820152608401610616565b6001600160a01b0385161580159061243857505f82115b801561244457505f8151115b801561245057505f8651115b61246c5760405162461bcd60e51b81526004016106169061508d565b6040805160c0810182528781526001600160a01b0387166020808301829052828401889052606083018790526080830186905260a083018590525f918252600490529190912081518592919081906124c49082614eb5565b5060208201516001820180546001600160a01b0319166001600160a01b03909216919091179055604082015160028201906124ff9082614eb5565b50606082015160038201556080820151600482015560a082015160058201906125289082614eb5565b5050506001600160a01b038087165f818152600560205260409020549091160361218b5761217686612194565b60028181548110612564575f80fd5b5f918252602090912001546001600160a01b0316905081565b335f818152600960205260409020600201546060916001600160a01b0390911614806125c15750335f818152600a60205260409020600101546001600160a01b0316145b806125da5750335f9081526003602052604090205460ff165b806125f35750335f9081526020819052604090205460ff165b8061260857506001546001600160a01b031633145b6126245760405162461bcd60e51b815260040161061690615259565b6001600160a01b0382165f908152600b6020908152604080832080548251818502810185019093528083529193909284015b82821015612a0a578382905f5260205f209060080201604051806101000160405290815f8201805461268790614e30565b80601f01602080910402602001604051908101604052809291908181526020018280546126b390614e30565b80156126fe5780601f106126d5576101008083540402835291602001916126fe565b820191905f5260205f20905b8154815290600101906020018083116126e157829003601f168201915b505050918352505060018201546001600160a01b039081166020830152600283015416604082015260038201805460609092019161273b90614e30565b80601f016020809104026020016040519081016040528092919081815260200182805461276790614e30565b80156127b25780601f10612789576101008083540402835291602001916127b2565b820191905f5260205f20905b81548152906001019060200180831161279557829003601f168201915b505050505081526020016004820180546127cb90614e30565b80601f01602080910402602001604051908101604052809291908181526020018280546127f790614e30565b80156128425780601f1061281957610100808354040283529160200191612842565b820191905f5260205f20905b81548152906001019060200180831161282557829003601f168201915b5050505050815260200160058201805461285b90614e30565b80601f016020809104026020016040519081016040528092919081815260200182805461288790614e30565b80156128d25780601f106128a9576101008083540402835291602001916128d2565b820191905f5260205f20905b8154815290600101906020018083116128b557829003601f168201915b505050505081526020016006820180546128eb90614e30565b80601f016020809104026020016040519081016040528092919081815260200182805461291790614e30565b80156129625780601f1061293957610100808354040283529160200191612962565b820191905f5260205f20905b81548152906001019060200180831161294557829003601f168201915b5050505050815260200160078201805461297b90614e30565b80601f01602080910402602001604051908101604052809291908181526020018280546129a790614e30565b80156129f25780601f106129c9576101008083540402835291602001916129f2565b820191905f5260205f20905b8154815290600101906020018083116129d557829003601f168201915b50505050508152505081526020019060010190612656565b505050509050919050565b60056020525f9081526040902080546001820180546001600160a01b039092169291612a4090614e30565b80601f0160208091040260200160405190810160405280929190818152602001828054612a6c90614e30565b8015612ab75780601f10612a8e57610100808354040283529160200191612ab7565b820191905f5260205f20905b815481529060010190602001808311612a9a57829003601f168201915b505050505090806002018054612acc90614e30565b80601f0160208091040260200160405190810160405280929190818152602001828054612af890614e30565b8015612b435780601f10612b1a57610100808354040283529160200191612b43565b820191905f5260205f20905b815481529060010190602001808311612b2657829003601f168201915b505050505090806003018054612b5890614e30565b80601f0160208091040260200160405190810160405280929190818152602001828054612b8490614e30565b8015612bcf5780601f10612ba657610100808354040283529160200191612bcf565b820191905f5260205f20905b815481529060010190602001808311612bb257829003601f168201915b505050505090806004018054612be490614e30565b80601f0160208091040260200160405190810160405280929190818152602001828054612c1090614e30565b8015612c5b5780601f10612c3257610100808354040283529160200191612c5b565b820191905f5260205f20905b815481529060010190602001808311612c3e57829003601f168201915b50505050600583015460079093015491929160ff16905087565b335f9081526003602052604081205460ff1615612c90575060015b335f9081526003602052604090205460ff16612cbe5760405162461bcd60e51b8152600401610616906150dc565b6001600160a01b038087165f8181526009602052604090206002015490911603612d3d5760405162461bcd60e51b815260206004820152602a60248201527f50617469656e74277320706572736f6e616c2064657461696c7320616c7265616044820152696479206578697374212160b01b6064820152608401610616565b6001600160a01b03861615801590612d5557505f8551115b8015612d6157505f8451115b612d7d5760405162461bcd60e51b815260040161061690615144565b6040805160e08101825289815260208082018a90526001600160a01b038916828401819052606083018990526080830188905260a0830187905260c083018690525f9081526009909152919091208151849291908190612ddd9082614eb5565b5060208201516001820190612df29082614eb5565b5060408201516002820180546001600160a01b0319166001600160a01b0390921691909117905560608201516003820190612e2d9082614eb5565b5060808201516004820190612e429082614eb5565b5060a08201516005820190612e579082614eb5565b5060c091909101516006909101556001600160a01b038088165f818152600a6020526040902060010154909116036119e257600d8054905f6119dc83615222565b335f9081526003602052604081205460ff1615612eb3575060015b335f9081526003602052604090205460ff16612ee15760405162461bcd60e51b8152600401610616906150dc565b6001600160a01b038089165f81815260096020526040902060020154909116148015612f2957506001600160a01b038089165f818152600a6020526040902060010154909116145b61300d5760405162461bcd60e51b815260206004820152609960248201527f496e636f72726563742050617469656e742077616c6c6574206164647265737360448201527f206f72205468652050617469656e742064657461696c2073706563696669632060648201527f746f20706572736f6e616c206f722070617374206d65646963616c206869737460848201527f6f7279206f662074686520616464726573732070726f7669646564206e6f742060a48201527f617661696c61626c6520696e2074686520636861696e2121200000000000000060c482015260e401610616565b6001600160a01b038881165f908152600460205260409020600101548116908816146130e15760405162461bcd60e51b815260206004820152607160248201527f496e636f72726563742050687973696369616e2077616c6c657420616464726560448201527f7373206f72205468652050687973696369616e2064657461696c20666f72207460648201527f686520616464726573732070726f7669646564206e6f7420617661696c61626c6084820152700329034b7103a34329031b430b4b710909607d1b60a482015260c401610616565b6001600160a01b038089165f818152600b602090815260408083208151610100810183528f815280840195909552948c1690840152606083018a90526080830189905260a0830188905260c0830187905260e0830186905283546001810185559382529020815191926008020190819061315b9082614eb5565b5060208201516001820180546001600160a01b039283166001600160a01b0319918216179091556040840151600284018054919093169116179055606082015160038201906131aa9082614eb5565b50608082015160048201906131bf9082614eb5565b5060a082015160058201906131d49082614eb5565b5060c082015160068201906131e99082614eb5565b5060e082015160078201906131fe9082614eb5565b505050506001600160a01b039586165f9081526005602090815260408220600601805460018101825590835291200180546001600160a01b0319169790961696909617909455505050505050565b6132936040518060e0016040528060608152602001606081526020015f6001600160a01b031681526020016060815260200160608152602001606081526020015f81525090565b6132e6604051806101000160405280606081526020015f6001600160a01b031681526020015f151581526020015f151581526020015f151581526020016060815260200160608152602001606081525090565b335f818152600960205260409020600201546001600160a01b031614806133255750335f818152600a60205260409020600101546001600160a01b0316145b8061333e5750335f9081526003602052604090205460ff165b806133575750335f9081526020819052604090205460ff165b8061336c57506001546001600160a01b031633145b6133885760405162461bcd60e51b815260040161061690615259565b6001600160a01b0383166133de5760405162461bcd60e51b815260206004820152601e60248201527f57616c6c657420416464726573732063616e6e6f7420626520656d70747900006044820152606401610616565b6001600160a01b038084165f8181526009602052604090206002015490911614801561342657506001600160a01b038084165f818152600a6020526040902060010154909116145b6134e45760405162461bcd60e51b815260206004820152607960248201527f496e636f72726563742050617469656e742077616c6c6574206164647265737360448201527f206f72205468652050617469656e742064657461696c20666f7220746865206160648201527f6464726573732070726f7669646564206973206e6f7420636f6d706c65746c7960848201527f20617661696c61626c6520696e2074686520636861696e21210000000000000060a482015260c401610616565b6001600160a01b0383165f908152600960209081526040808320600a90925291829020825160e0810190935281549192909183908290829061352590614e30565b80601f016020809104026020016040519081016040528092919081815260200182805461355190614e30565b801561359c5780601f106135735761010080835404028352916020019161359c565b820191905f5260205f20905b81548152906001019060200180831161357f57829003601f168201915b505050505081526020016001820180546135b590614e30565b80601f01602080910402602001604051908101604052809291908181526020018280546135e190614e30565b801561362c5780601f106136035761010080835404028352916020019161362c565b820191905f5260205f20905b81548152906001019060200180831161360f57829003601f168201915b505050918352505060028201546001600160a01b0316602082015260038201805460409092019161365c90614e30565b80601f016020809104026020016040519081016040528092919081815260200182805461368890614e30565b80156136d35780601f106136aa576101008083540402835291602001916136d3565b820191905f5260205f20905b8154815290600101906020018083116136b657829003601f168201915b505050505081526020016004820180546136ec90614e30565b80601f016020809104026020016040519081016040528092919081815260200182805461371890614e30565b80156137635780601f1061373a57610100808354040283529160200191613763565b820191905f5260205f20905b81548152906001019060200180831161374657829003601f168201915b5050505050815260200160058201805461377c90614e30565b80601f01602080910402602001604051908101604052809291908181526020018280546137a890614e30565b80156137f35780601f106137ca576101008083540402835291602001916137f3565b820191905f5260205f20905b8154815290600101906020018083116137d657829003601f168201915b50505050508152602001600682015481525050915080604051806101000160405290815f8201805461382490614e30565b80601f016020809104026020016040519081016040528092919081815260200182805461385090614e30565b801561389b5780601f106138725761010080835404028352916020019161389b565b820191905f5260205f20905b81548152906001019060200180831161387e57829003601f168201915b505050918352505060018201546001600160a01b038116602083015260ff600160a01b8204811615156040840152600160a81b8204811615156060840152600160b01b909104161515608082015260028201805460a0909201916138fe90614e30565b80601f016020809104026020016040519081016040528092919081815260200182805461392a90614e30565b80156139755780601f1061394c57610100808354040283529160200191613975565b820191905f5260205f20905b81548152906001019060200180831161395857829003601f168201915b5050505050815260200160038201805461398e90614e30565b80601f01602080910402602001604051908101604052809291908181526020018280546139ba90614e30565b8015613a055780601f106139dc57610100808354040283529160200191613a05565b820191905f5260205f20905b8154815290600101906020018083116139e857829003601f168201915b50505050508152602001600482018054613a1e90614e30565b80601f0160208091040260200160405190810160405280929190818152602001828054613a4a90614e30565b8015613a955780601f10613a6c57610100808354040283529160200191613a95565b820191905f5260205f20905b815481529060010190602001808311613a7857829003601f168201915b505050505081525050905091509150915091565b600a6020525f9081526040902080548190613ac390614e30565b80601f0160208091040260200160405190810160405280929190818152602001828054613aef90614e30565b8015613b3a5780601f10613b1157610100808354040283529160200191613b3a565b820191905f5260205f20905b815481529060010190602001808311613b1d57829003601f168201915b50505050600183015460028401805493946001600160a01b0383169460ff600160a01b850481169550600160a81b8504811694600160b01b9004169290613b8090614e30565b80601f0160208091040260200160405190810160405280929190818152602001828054613bac90614e30565b8015613bf75780601f10613bce57610100808354040283529160200191613bf7565b820191905f5260205f20905b815481529060010190602001808311613bda57829003601f168201915b505050505090806003018054613c0c90614e30565b80601f0160208091040260200160405190810160405280929190818152602001828054613c3890614e30565b8015613c835780601f10613c5a57610100808354040283529160200191613c83565b820191905f5260205f20905b815481529060010190602001808311613c6657829003601f168201915b505050505090806004018054613c9890614e30565b80601f0160208091040260200160405190810160405280929190818152602001828054613cc490614e30565b8015613d0f5780601f10613ce657610100808354040283529160200191613d0f565b820191905f5260205f20905b815481529060010190602001808311613cf257829003601f168201915b5050505050905088565b600b602052815f5260405f208181548110613d32575f80fd5b905f5260205f2090600802015f9150915050805f018054613d5290614e30565b80601f0160208091040260200160405190810160405280929190818152602001828054613d7e90614e30565b8015613dc95780601f10613da057610100808354040283529160200191613dc9565b820191905f5260205f20905b815481529060010190602001808311613dac57829003601f168201915b5050506001840154600285015460038601805495966001600160a01b0393841696929093169450919250613dfc90614e30565b80601f0160208091040260200160405190810160405280929190818152602001828054613e2890614e30565b8015613e735780601f10613e4a57610100808354040283529160200191613e73565b820191905f5260205f20905b815481529060010190602001808311613e5657829003601f168201915b505050505090806004018054613e8890614e30565b80601f0160208091040260200160405190810160405280929190818152602001828054613eb490614e30565b8015613eff5780601f10613ed657610100808354040283529160200191613eff565b820191905f5260205f20905b815481529060010190602001808311613ee257829003601f168201915b505050505090806005018054613f1490614e30565b80601f0160208091040260200160405190810160405280929190818152602001828054613f4090614e30565b8015613f8b5780601f10613f6257610100808354040283529160200191613f8b565b820191905f5260205f20905b815481529060010190602001808311613f6e57829003601f168201915b505050505090806006018054613fa090614e30565b80601f0160208091040260200160405190810160405280929190818152602001828054613fcc90614e30565b80156140175780601f10613fee57610100808354040283529160200191614017565b820191905f5260205f20905b815481529060010190602001808311613ffa57829003601f168201915b505050505090806007018054613c9890614e30565b828054828255905f5260205f2090810192821561407f579160200282015b8281111561407f57825182546001600160a01b0319166001600160a01b0390911617825560209092019160019091019061404a565b5061408b92915061408f565b5090565b5b8082111561408b575f8155600101614090565b634e487b7160e01b5f52604160045260245ffd5b604051601f8201601f1916810167ffffffffffffffff811182821017156140e0576140e06140a3565b604052919050565b5f82601f8301126140f7575f80fd5b813567ffffffffffffffff811115614111576141116140a3565b614124601f8201601f19166020016140b7565b818152846020838601011115614138575f80fd5b816020850160208301375f918101602001919091529392505050565b80356001600160a01b0381168114611470575f80fd5b5f806040838503121561417b575f80fd5b823567ffffffffffffffff811115614191575f80fd5b61419d858286016140e8565b9250506141ac60208401614154565b90509250929050565b5f602082840312156141c5575f80fd5b5035919050565b5f602082840312156141dc575f80fd5b61061f82614154565b80358015158114611470575f80fd5b5f82601f830112614203575f80fd5b8135602067ffffffffffffffff82111561421f5761421f6140a3565b8160051b61422e8282016140b7565b9283528481018201928281019087851115614247575f80fd5b83870192505b8483101561426d5761425e83614154565b8252918301919083019061424d565b979650505050505050565b5f805f805f805f80610100898b031215614290575f80fd5b61429989614154565b9750602089013567ffffffffffffffff808211156142b5575f80fd5b6142c18c838d016140e8565b985060408b01359150808211156142d6575f80fd5b6142e28c838d016140e8565b975060608b01359150808211156142f7575f80fd5b6143038c838d016140e8565b965060808b0135955060a08b013591508082111561431f575f80fd5b61432b8c838d016140e8565b945061433960c08c016141e5565b935060e08b013591508082111561434e575f80fd5b5061435b8b828c016141f4565b9150509295985092959890939650565b5f805f805f8060c08789031215614380575f80fd5b863567ffffffffffffffff80821115614397575f80fd5b6143a38a838b016140e8565b97506143b160208a01614154565b965060408901359150808211156143c6575f80fd5b6143d28a838b016140e8565b9550606089013594506080890135935060a08901359150808211156143f5575f80fd5b5061440289828a016140e8565b9150509295509295509295565b5f81518084525f5b8181101561443357602081850181015186830182015201614417565b505f602082860101526020601f19601f83011685010191505092915050565b60e081525f61446460e083018a61440f565b8281036020840152614476818a61440f565b6001600160a01b038916604085015283810360608501529050614499818861440f565b905082810360808401526144ad818761440f565b905082810360a08401526144c1818661440f565b9150508260c083015298975050505050505050565b5f8151808452602080850194508084015f5b8381101561450d5781516001600160a01b0316875295820195908201906001016144e8565b509495945050505050565b80516001600160a01b031682525f61010060208301518160208601526145408286018261440f565b9150506040830151848203604086015261455a828261440f565b91505060608301518482036060860152614574828261440f565b9150506080830151848203608086015261458e828261440f565b91505060a083015160a085015260c083015184820360c08601526145b282826144d6565b91505060e08301516145c860e086018215159052565b509392505050565b604081525f835160c060408401526145ec61010084018261440f565b60208601516001600160a01b031660608501526040860151848203603f19908101608087015291925090614620838361440f565b9250606087015160a0860152608087015160c086015260a08701519150808584030160e086015250614652828261440f565b91505082810360208401526146678185614518565b95945050505050565b5f805f805f805f80610100898b031215614688575f80fd5b883567ffffffffffffffff8082111561469f575f80fd5b6146ab8c838d016140e8565b99506146b960208c01614154565b98506146c760408c016141e5565b97506146d560608c016141e5565b96506146e360808c016141e5565b955060a08b01359150808211156146f8575f80fd5b6147048c838d016140e8565b945060c08b0135915080821115614719575f80fd5b6147258c838d016140e8565b935060e08b013591508082111561473a575f80fd5b5061435b8b828c016140e8565b5f8060408385031215614758575f80fd5b61476183614154565b946020939093013593505050565b602081525f61061f602083018461440f565b60c081525f61479360c083018961440f565b6001600160a01b038816602084015282810360408401526147b4818861440f565b905085606084015284608084015282810360a08401526147d4818561440f565b9998505050505050505050565b5f805f805f805f60e0888a0312156147f7575f80fd5b873567ffffffffffffffff8082111561480e575f80fd5b61481a8b838c016140e8565b985060208a013591508082111561482f575f80fd5b61483b8b838c016140e8565b975061484960408b01614154565b965060608a013591508082111561485e575f80fd5b61486a8b838c016140e8565b955060808a013591508082111561487f575f80fd5b61488b8b838c016140e8565b945060a08a01359150808211156148a0575f80fd5b506148ad8a828b016140e8565b92505060c0880135905092959891949750929550565b5f805f805f805f60e0888a0312156148d9575f80fd5b6148e288614154565b9650602088013567ffffffffffffffff808211156148fe575f80fd5b61490a8b838c016140e8565b975060408a013591508082111561491f575f80fd5b61492b8b838c016140e8565b965060608a0135915080821115614940575f80fd5b61494c8b838c016140e8565b955060808a0135945060a08a0135915080821115614968575f80fd5b506149758a828b016140e8565b92505061498460c089016141e5565b905092959891949750929550565b5f6020808301818452808551808352604092508286019150828160051b8701018488015f5b83811015614aa557603f19898403018552815161010081518186526149de8287018261440f565b915050888201516149f98a8701826001600160a01b03169052565b50878201516001600160a01b03168589015260608083015186830382880152614a22838261440f565b9250505060808083015186830382880152614a3d838261440f565b9250505060a08083015186830382880152614a58838261440f565b9250505060c08083015186830382880152614a73838261440f565b9250505060e08083015192508582038187015250614a91818361440f565b9689019694505050908601906001016149b7565b509098975050505050505050565b6001600160a01b038816815260e0602082018190525f90614ad69083018961440f565b8281036040840152614ae8818961440f565b90508281036060840152614afc818861440f565b90508281036080840152614b10818761440f565b60a0840195909552505090151560c09091015295945050505050565b5f805f805f805f80610100898b031215614b44575f80fd5b883567ffffffffffffffff80821115614b5b575f80fd5b614b678c838d016140e8565b9950614b7560208c01614154565b9850614b8360408c01614154565b975060608b0135915080821115614b98575f80fd5b614ba48c838d016140e8565b965060808b0135915080821115614bb9575f80fd5b6146e38c838d016140e8565b5f6101008251818552614bda8286018261440f565b9150506020830151614bf760208601826001600160a01b03169052565b506040830151614c0b604086018215159052565b506060830151614c1f606086018215159052565b506080830151614c33608086018215159052565b5060a083015184820360a0860152614c4b828261440f565b91505060c083015184820360c0860152614c65828261440f565b91505060e083015184820360e0860152614667828261440f565b604081525f835160e06040840152614c9b61012084018261440f565b90506020850151603f1980858403016060860152614cb9838361440f565b60408801516001600160a01b031660808701526060880151868203830160a08801529093509150614cea838361440f565b925060808701519150808584030160c0860152614d07838361440f565b925060a08701519150808584030160e086015250614d25828261440f565b91505060c085015161010084015282810360208401526146678185614bc5565b5f610100808352614d588184018c61440f565b6001600160a01b038b16602085015289151560408501528815156060850152871515608085015283810360a08501529050614d93818761440f565b905082810360c0840152614da7818661440f565b905082810360e0840152614dbb818561440f565b9b9a5050505050505050505050565b5f610100808352614ddd8184018c61440f565b6001600160a01b038b811660208601528a16604085015283810360608501529050614e08818961440f565b90508281036080840152614e1c818861440f565b905082810360a0840152614d93818761440f565b600181811c90821680614e4457607f821691505b602082108103614e6257634e487b7160e01b5f52602260045260245ffd5b50919050565b601f82111561059f575f81815260208120601f850160051c81016020861015614e8e5750805b601f850160051c820191505b81811015614ead57828155600101614e9a565b505050505050565b815167ffffffffffffffff811115614ecf57614ecf6140a3565b614ee381614edd8454614e30565b84614e68565b602080601f831160018114614f16575f8415614eff5750858301515b5f19600386901b1c1916600185901b178555614ead565b5f85815260208120601f198616915b82811015614f4457888601518255948401946001909101908401614f25565b5085821015614f6157878501515f19600388901b60f8161c191681555b5050505050600190811b01905550565b634e487b7160e01b5f52601160045260245ffd5b8082018082111561232d5761232d614f71565b8181038181111561232d5761232d614f71565b6020808252602a908201527f41636365737365626c65206f6e6c7920666f72204f776e65727320616e642053604082015269757065724f776e65727360b01b606082015260800190565b6020808252606c908201527f496e636f727265637420446f63746f7227732077616c6c65742061646472657360408201527f73206f722054686520446f63746f722064657461696c20666f7220746865206160608201527f6464726573732070726f7669646564206e6f7420617661696c61626c6520696e60808201526b2074686520636861696e212160a01b60a082015260c00190565b6020808252602f908201527f4b696e646c792066696c6c20616c6c20746865206d616e6461746f727920666560408201526e696c64732070726f7065726c79212160881b606082015260800190565b60208082526042908201527f4f6e6c792074686520446f63746f72732063616e2063616c6c2074686973206660408201527f756e6374696f6e2064756520746f20736563757269747920726561736f6e7321606082015261212160f01b608082015260a00190565b60208082526026908201527f4b696e646c792066696c6c20616c6c20746865206d616e6461746f7279206665604082015265696c6473212160d01b606082015260800190565b6020808252606c908201527f496e636f72726563742050617469656e742077616c6c6574206164647265737360408201527f206f72205468652050617469656e742064657461696c20666f7220746865206160608201527f6464726573732070726f7669646564206e6f7420617661696c61626c6520696e60808201526b2074686520636861696e212160a01b60a082015260c00190565b5f6001820161523357615233614f71565b5060010190565b5f8261525457634e487b7160e01b5f52601260045260245ffd5b500490565b60208082526027908201527f596f752068617665206e6f2061636365737320746f206665746368207468652060408201526664657461696c7360c81b60608201526080019056fea26469706673582212201b1d7ca3c85afe14a86e8c8c625e1784a8be21645c2501b0be2b935d9763a0dc64736f6c63430008150033",
  "linkReferences": {},
  "deployedLinkReferences": {}
}