{
  "_format": "hh-sol-artifact-1",
  "contractName": "DoctorDetails",
  "sourceName": "src/contracts/Doctor.sol",
  "abi": [
    {
      "inputs": [],
      "stateMutability": "nonpayable",
      "type": "constructor"
    },
    {
      "inputs": [
        {
          "internalType": "address",
          "name": "_walletAddress",
          "type": "address"
        }
      ],
      "name": "AddAdminAccess",
      "outputs": [],
      "stateMutability": "nonpayable",
      "type": "function"
    },
    {
      "inputs": [
        {
          "internalType": "string",
          "name": "_name",
          "type": "string"
        },
        {
          "internalType": "address",
          "name": "_walletAddress",
          "type": "address"
        },
        {
          "internalType": "uint256",
          "name": "_dayOfBirth",
          "type": "uint256"
        },
        {
          "internalType": "uint256",
          "name": "_monthOfBirth",
          "type": "uint256"
        },
        {
          "internalType": "uint256",
          "name": "_yearOfBirth",
          "type": "uint256"
        },
        {
          "internalType": "uint256",
          "name": "_phoneNumber",
          "type": "uint256"
        },
        {
          "internalType": "string",
          "name": "_email",
          "type": "string"
        }
      ],
      "name": "AddDoctorPersonalInfo",
      "outputs": [],
      "stateMutability": "nonpayable",
      "type": "function"
    },
    {
      "inputs": [
        {
          "internalType": "address",
          "name": "_walletAddress",
          "type": "address"
        },
        {
          "internalType": "string",
          "name": "_MedicalLicenseNumber",
          "type": "string"
        },
        {
          "internalType": "string",
          "name": "_Specialization",
          "type": "string"
        },
        {
          "internalType": "string",
          "name": "_AvailableTimings",
          "type": "string"
        },
        {
          "internalType": "uint256",
          "name": "_ExperienceInYear",
          "type": "uint256"
        },
        {
          "internalType": "string",
          "name": "_MedicalSchoolAttended",
          "type": "string"
        },
        {
          "internalType": "bool",
          "name": "_isLicenseValid",
          "type": "bool"
        }
      ],
      "name": "AddDoctorProfessionalInfo",
      "outputs": [],
      "stateMutability": "nonpayable",
      "type": "function"
    },
    {
      "inputs": [
        {
          "internalType": "uint256",
          "name": "",
          "type": "uint256"
        }
      ],
      "name": "AdminAccess",
      "outputs": [
        {
          "internalType": "address",
          "name": "",
          "type": "address"
        }
      ],
      "stateMutability": "view",
      "type": "function"
    },
    {
      "inputs": [
        {
          "internalType": "address",
          "name": "_walletAddress",
          "type": "address"
        }
      ],
      "name": "DeleteAdminAccess",
      "outputs": [],
      "stateMutability": "nonpayable",
      "type": "function"
    },
    {
      "inputs": [
        {
          "internalType": "address",
          "name": "",
          "type": "address"
        }
      ],
      "name": "DoctorsPersonalInfo",
      "outputs": [
        {
          "internalType": "string",
          "name": "name",
          "type": "string"
        },
        {
          "internalType": "address",
          "name": "walletAddress",
          "type": "address"
        },
        {
          "internalType": "uint256",
          "name": "dayOfBirth",
          "type": "uint256"
        },
        {
          "internalType": "uint256",
          "name": "monthOfBirth",
          "type": "uint256"
        },
        {
          "internalType": "uint256",
          "name": "yearOfBirth",
          "type": "uint256"
        },
        {
          "internalType": "uint256",
          "name": "age",
          "type": "uint256"
        },
        {
          "internalType": "uint256",
          "name": "phoneNumber",
          "type": "uint256"
        },
        {
          "internalType": "string",
          "name": "email",
          "type": "string"
        }
      ],
      "stateMutability": "view",
      "type": "function"
    },
    {
      "inputs": [
        {
          "internalType": "address",
          "name": "",
          "type": "address"
        }
      ],
      "name": "Doctors_ProfessionalDetails",
      "outputs": [
        {
          "internalType": "address",
          "name": "walletAddress",
          "type": "address"
        },
        {
          "internalType": "string",
          "name": "MedicalSchoolAttended",
          "type": "string"
        },
        {
          "internalType": "string",
          "name": "MedicalLicenseNumber",
          "type": "string"
        },
        {
          "internalType": "string",
          "name": "Specialization",
          "type": "string"
        },
        {
          "internalType": "string",
          "name": "AvailableTimings",
          "type": "string"
        },
        {
          "internalType": "uint256",
          "name": "ExperienceInYear",
          "type": "uint256"
        },
        {
          "internalType": "bool",
          "name": "isLicenseValid",
          "type": "bool"
        }
      ],
      "stateMutability": "view",
      "type": "function"
    },
    {
      "inputs": [
        {
          "internalType": "string",
          "name": "_name",
          "type": "string"
        },
        {
          "internalType": "address",
          "name": "_walletAddress",
          "type": "address"
        },
        {
          "internalType": "uint256",
          "name": "_dayOfBirth",
          "type": "uint256"
        },
        {
          "internalType": "uint256",
          "name": "_monthOfBirth",
          "type": "uint256"
        },
        {
          "internalType": "uint256",
          "name": "_yearOfBirth",
          "type": "uint256"
        },
        {
          "internalType": "uint256",
          "name": "_phoneNumber",
          "type": "uint256"
        },
        {
          "internalType": "string",
          "name": "_email",
          "type": "string"
        }
      ],
      "name": "EditDoctorPersonalDetails",
      "outputs": [],
      "stateMutability": "nonpayable",
      "type": "function"
    },
    {
      "inputs": [
        {
          "internalType": "address",
          "name": "_walletAddress",
          "type": "address"
        },
        {
          "internalType": "string",
          "name": "_MedicalLicenseNumber",
          "type": "string"
        },
        {
          "internalType": "string",
          "name": "_Specialization",
          "type": "string"
        },
        {
          "internalType": "string",
          "name": "_AvailableTimings",
          "type": "string"
        },
        {
          "internalType": "uint256",
          "name": "_ExperienceInYear",
          "type": "uint256"
        },
        {
          "internalType": "string",
          "name": "_MedicalSchoolAttended",
          "type": "string"
        },
        {
          "internalType": "bool",
          "name": "_isLicenseValid",
          "type": "bool"
        },
        {
          "internalType": "address[]",
          "name": "_treatedPatients",
          "type": "address[]"
        }
      ],
      "name": "EditDoctorProfessionalDetails",
      "outputs": [],
      "stateMutability": "nonpayable",
      "type": "function"
    },
    {
      "inputs": [
        {
          "internalType": "address",
          "name": "",
          "type": "address"
        }
      ],
      "name": "OnlyOwner",
      "outputs": [
        {
          "internalType": "bool",
          "name": "",
          "type": "bool"
        }
      ],
      "stateMutability": "view",
      "type": "function"
    },
    {
      "inputs": [
        {
          "internalType": "address",
          "name": "_address",
          "type": "address"
        }
      ],
      "name": "addOwner",
      "outputs": [],
      "stateMutability": "nonpayable",
      "type": "function"
    },
    {
      "inputs": [
        {
          "internalType": "uint256",
          "name": "_yearOfBirth",
          "type": "uint256"
        }
      ],
      "name": "getAge",
      "outputs": [
        {
          "internalType": "uint256",
          "name": "",
          "type": "uint256"
        }
      ],
      "stateMutability": "view",
      "type": "function"
    },
    {
      "inputs": [
        {
          "internalType": "address",
          "name": "_walletAddress",
          "type": "address"
        }
      ],
      "name": "getDoctor",
      "outputs": [
        {
          "components": [
            {
              "internalType": "string",
              "name": "name",
              "type": "string"
            },
            {
              "internalType": "address",
              "name": "walletAddress",
              "type": "address"
            },
            {
              "internalType": "uint256",
              "name": "dayOfBirth",
              "type": "uint256"
            },
            {
              "internalType": "uint256",
              "name": "monthOfBirth",
              "type": "uint256"
            },
            {
              "internalType": "uint256",
              "name": "yearOfBirth",
              "type": "uint256"
            },
            {
              "internalType": "uint256",
              "name": "age",
              "type": "uint256"
            },
            {
              "internalType": "uint256",
              "name": "phoneNumber",
              "type": "uint256"
            },
            {
              "internalType": "string",
              "name": "email",
              "type": "string"
            }
          ],
          "internalType": "struct DoctorDetails.DoctorPersonalInfo",
          "name": "",
          "type": "tuple"
        },
        {
          "components": [
            {
              "internalType": "address",
              "name": "walletAddress",
              "type": "address"
            },
            {
              "internalType": "string",
              "name": "MedicalSchoolAttended",
              "type": "string"
            },
            {
              "internalType": "string",
              "name": "MedicalLicenseNumber",
              "type": "string"
            },
            {
              "internalType": "string",
              "name": "Specialization",
              "type": "string"
            },
            {
              "internalType": "string",
              "name": "AvailableTimings",
              "type": "string"
            },
            {
              "internalType": "uint256",
              "name": "ExperienceInYear",
              "type": "uint256"
            },
            {
              "internalType": "address[]",
              "name": "treatedPatients",
              "type": "address[]"
            },
            {
              "internalType": "bool",
              "name": "isLicenseValid",
              "type": "bool"
            }
          ],
          "internalType": "struct DoctorDetails.DoctorProfessionalDetails",
          "name": "",
          "type": "tuple"
        }
      ],
      "stateMutability": "view",
      "type": "function"
    },
    {
      "inputs": [
        {
          "internalType": "uint256",
          "name": "timestamp",
          "type": "uint256"
        }
      ],
      "name": "getYear",
      "outputs": [
        {
          "internalType": "uint256",
          "name": "",
          "type": "uint256"
        }
      ],
      "stateMutability": "pure",
      "type": "function"
    },
    {
      "inputs": [
        {
          "internalType": "address",
          "name": "_address",
          "type": "address"
        }
      ],
      "name": "isDoctor",
      "outputs": [
        {
          "internalType": "bool",
          "name": "val",
          "type": "bool"
        }
      ],
      "stateMutability": "view",
      "type": "function"
    },
    {
      "inputs": [
        {
          "internalType": "address",
          "name": "",
          "type": "address"
        }
      ],
      "name": "owner",
      "outputs": [
        {
          "internalType": "bool",
          "name": "",
          "type": "bool"
        }
      ],
      "stateMutability": "view",
      "type": "function"
    },
    {
      "inputs": [
        {
          "internalType": "address",
          "name": "_address",
          "type": "address"
        }
      ],
      "name": "removeOwner",
      "outputs": [],
      "stateMutability": "nonpayable",
      "type": "function"
    },
    {
      "inputs": [],
      "name": "superOwner",
      "outputs": [
        {
          "internalType": "address",
          "name": "",
          "type": "address"
        }
      ],
      "stateMutability": "view",
      "type": "function"
    },
    {
      "inputs": [],
      "name": "totalAdmin",
      "outputs": [
        {
          "internalType": "uint256",
          "name": "",
          "type": "uint256"
        }
      ],
      "stateMutability": "view",
      "type": "function"
    },
    {
      "inputs": [],
      "name": "totalDoctors",
      "outputs": [
        {
          "internalType": "uint256",
          "name": "",
          "type": "uint256"
        }
      ],
      "stateMutability": "view",
      "type": "function"
    }
  ],
  "bytecode": "0x60806040523480156200001157600080fd5b50336000818152602081905260409020805460ff1916600190811790915580546001600160a01b031916821790556200004a9062000050565b62000223565b6001546001600160a01b03163314620000b05760405162461bcd60e51b815260206004820152601f60248201527f41636365737365626c65206f6e6c7920666f722053757065724f776e6572730060448201526064015b60405180910390fd5b336000908152602081905260409020805460ff191660011790556001600160a01b03811660009081526003602052604090205460ff1615620001355760405162461bcd60e51b815260206004820181905260248201527f4164647265737320616c7265616479206861732061646d696e206163636573736044820152606401620000a7565b6001600160a01b0381166200017f5760405162461bcd60e51b815260206004820152600f60248201526e496e76616c6964204164647265737360881b6044820152606401620000a7565b6002805460018082019092557f405787fa12a823e0f2b7631cc41b3ba8828b3321ca811111fa75cd3aa3bb5ace0180546001600160a01b0319166001600160a01b0384169081179091556000908152600360205260408120805460ff19169092179091556007805491620001f383620001fb565b919050555050565b6000600182016200021c57634e487b7160e01b600052601160045260246000fd5b5060010190565b61254b80620002336000396000f3fe608060405234801561001057600080fd5b506004361061012c5760003560e01c806375c6a96c116100ad578063996440c611610071578063996440c6146102b95780639c68ff23146102cc578063aa908bbe146102df578063bbcaa637146102f2578063e2463ac31461031857600080fd5b806375c6a96c1461022e5780637f1955eb1461025557806387dcd2b61461026857806388b29e8b1461029357806392d66313146102a657600080fd5b80636140f5aa116100f45780636140f5aa146101d357806364319e33146101e657806365b44d7e146101ef578063666e1b39146101f85780637065cb481461021b57600080fd5b80630a86c02a146101315780630e37008a14610169578063173825d91461018a57806318396cc81461019f5780632f04e064146101b2575b600080fd5b61015461013f366004611b86565b60036020526000908152604090205460ff1681565b60405190151581526020015b60405180910390f35b61017c610177366004611ba1565b61032b565b604051908152602001610160565b61019d610198366004611b86565b6103b0565b005b61019d6101ad366004611d08565b6103fb565b6101c56101c0366004611b86565b6105f0565b604051610160929190611f48565b61019d6101e1366004611b86565b610cb0565b61017c60075481565b61017c60065481565b610154610206366004611b86565b60006020819052908152604090205460ff1681565b61019d610229366004611b86565b610dfa565b61024161023c366004611b86565b610e48565b604051610160989796959493929190611fe7565b61019d61026336600461204a565b610fab565b60015461027b906001600160a01b031681565b6040516001600160a01b039091168152602001610160565b61019d6102a1366004611b86565b611284565b61017c6102b4366004611ba1565b6113f3565b6101546102c7366004611b86565b611409565b61019d6102da366004612122565b611437565b61027b6102ed366004611ba1565b61169b565b610305610300366004611b86565b6116c5565b60405161016097969594939291906121bd565b61019d610326366004612122565b61192e565b600080610337426113f3565b9050600083610348836107b261224d565b6103529190612260565b9050600081116103a95760405162461bcd60e51b815260206004820152601860248201527f456e74657220636f72726563742062697274682079656172000000000000000060448201526064015b60405180910390fd5b9392505050565b6001546001600160a01b031633146103da5760405162461bcd60e51b81526004016103a090612273565b6001600160a01b03166000908152602081905260409020805460ff19169055565b6001546001600160a01b031633146104255760405162461bcd60e51b81526004016103a090612273565b6001600160a01b0388161580159061043e575060008351115b801561044b575060008751115b8015610458575060008651115b8015610465575060008551115b6104a95760405162461bcd60e51b8152602060048201526015602482015274656e74657220636f72726563742064657461696c7360581b60448201526064016103a0565b6001600160a01b03808916600081815260056020526040902054909116146104e35760405162461bcd60e51b81526004016103a0906122aa565b60408051610100810182526001600160a01b038a811680835260208084018881528486018d9052606085018c9052608085018b905260a085018a905260c0850187905287151560e086015260009283526005909152939020825181546001600160a01b03191692169190911781559151909190600182019061056590826123cb565b506040820151600282019061057a90826123cb565b506060820151600382019061058f90826123cb565b50608082015160048201906105a490826123cb565b5060a0820151600582015560c082015180516105ca916006840191602090910190611af5565b5060e091909101516007909101805460ff19169115159190911790555050505050505050565b6106416040518061010001604052806060815260200160006001600160a01b031681526020016000815260200160008152602001600081526020016000815260200160008152602001606081525090565b61069460405180610100016040528060006001600160a01b031681526020016060815260200160608152602001606081526020016060815260200160008152602001606081526020016000151581525090565b6001546001600160a01b031633146106be5760405162461bcd60e51b81526004016103a090612273565b6001600160a01b0383166107145760405162461bcd60e51b815260206004820152601e60248201527f57616c6c657420416464726573732063616e6e6f7420626520656d707479000060448201526064016103a0565b6001600160a01b0380841660008181526004602052604090206001015490911614801561075b57506001600160a01b03808416600081815260056020526040902054909116145b6108195760405162461bcd60e51b815260206004820152607860248201527f496e636f727265637420446f63746f722077616c6c657420616464726573732060448201527f6f722054686520446f63746f722064657461696c20666f72207468652061646460648201527f726573732070726f7669646564206973206e6f7420636f6d706c6574656c792060848201527f617661696c61626c6520696e2074686520636861696e2121000000000000000060a482015260c4016103a0565b6001600160a01b03831660009081526004602090815260408083206005909252918290208251610100810190935281549192909183908290829061085c90612342565b80601f016020809104026020016040519081016040528092919081815260200182805461088890612342565b80156108d55780601f106108aa576101008083540402835291602001916108d5565b820191906000526020600020905b8154815290600101906020018083116108b857829003601f168201915b505050918352505060018201546001600160a01b03166020820152600282015460408201526003820154606082015260048201546080820152600582015460a0820152600682015460c082015260078201805460e09092019161093790612342565b80601f016020809104026020016040519081016040528092919081815260200182805461096390612342565b80156109b05780601f10610985576101008083540402835291602001916109b0565b820191906000526020600020905b81548152906001019060200180831161099357829003601f168201915b50505091909252505060408051610100810190915283546001600160a01b0316815260018401805493955090928492506020840191906109ef90612342565b80601f0160208091040260200160405190810160405280929190818152602001828054610a1b90612342565b8015610a685780601f10610a3d57610100808354040283529160200191610a68565b820191906000526020600020905b815481529060010190602001808311610a4b57829003601f168201915b50505050508152602001600282018054610a8190612342565b80601f0160208091040260200160405190810160405280929190818152602001828054610aad90612342565b8015610afa5780601f10610acf57610100808354040283529160200191610afa565b820191906000526020600020905b815481529060010190602001808311610add57829003601f168201915b50505050508152602001600382018054610b1390612342565b80601f0160208091040260200160405190810160405280929190818152602001828054610b3f90612342565b8015610b8c5780601f10610b6157610100808354040283529160200191610b8c565b820191906000526020600020905b815481529060010190602001808311610b6f57829003601f168201915b50505050508152602001600482018054610ba590612342565b80601f0160208091040260200160405190810160405280929190818152602001828054610bd190612342565b8015610c1e5780601f10610bf357610100808354040283529160200191610c1e565b820191906000526020600020905b815481529060010190602001808311610c0157829003601f168201915b505050505081526020016005820154815260200160068201805480602002602001604051908101604052809291908181526020018280548015610c8a57602002820191906000526020600020905b81546001600160a01b03168152600190910190602001808311610c6c575b50505091835250506007919091015460ff16151560209091015291935090915050915091565b6001546001600160a01b03163314610cda5760405162461bcd60e51b81526004016103a090612273565b336000908152602081905260409020805460ff191660011790556001600160a01b038116610d3c5760405162461bcd60e51b815260206004820152600f60248201526e496e76616c6964204164647265737360881b60448201526064016103a0565b6001600160a01b03811660009081526003602052604090205460ff16610dd95760405162461bcd60e51b815260206004820152604660248201527f50726f76696465642061646472657373206d75737420626520616e2041646d6960448201527f6e4163636573734164647265737320746f2072656d6f76652041646d696e416360648201526563657373212160d01b608482015260a4016103a0565b6001600160a01b03166000908152600360205260409020805460ff19169055565b6001546001600160a01b03163314610e245760405162461bcd60e51b81526004016103a090612273565b6001600160a01b03166000908152602081905260409020805460ff19166001179055565b600460205260009081526040902080548190610e6390612342565b80601f0160208091040260200160405190810160405280929190818152602001828054610e8f90612342565b8015610edc5780601f10610eb157610100808354040283529160200191610edc565b820191906000526020600020905b815481529060010190602001808311610ebf57829003601f168201915b5050505050908060010160009054906101000a90046001600160a01b031690806002015490806003015490806004015490806005015490806006015490806007018054610f2890612342565b80601f0160208091040260200160405190810160405280929190818152602001828054610f5490612342565b8015610fa15780601f10610f7657610100808354040283529160200191610fa1565b820191906000526020600020905b815481529060010190602001808311610f8457829003601f168201915b5050505050905088565b6001546001600160a01b03163314610fd55760405162461bcd60e51b81526004016103a090612273565b6001600160a01b03808816600081815260056020526040902054909116036110565760405162461bcd60e51b815260206004820152602e60248201527f50687973696369616e2050726f66657373696f6e616c2064657461696c73206160448201526d6c7265616479206578697374212160901b60648201526084016103a0565b6001600160a01b0380881660008181526005602052604090205490911614801590611082575060008251115b801561108f575060008651115b801561109c575060008551115b80156110a9575060008451115b6110ed5760405162461bcd60e51b8152602060048201526015602482015274456e74657220436f72726563742064657461696c7360581b60448201526064016103a0565b604051806101000160405280886001600160a01b03168152602001838152602001878152602001868152602001858152602001848152602001600067ffffffffffffffff81111561114057611140611bba565b604051908082528060200260200182016040528015611169578160200160208202803683370190505b5081528215156020918201526001600160a01b0389811660009081526005835260409020835181546001600160a01b03191692169190911781559082015160018201906111b690826123cb565b50604082015160028201906111cb90826123cb565b50606082015160038201906111e090826123cb565b50608082015160048201906111f590826123cb565b5060a0820151600582015560c0820151805161121b916006840191602090910190611af5565b5060e091909101516007909101805460ff19169115159190911790556001600160a01b038781166000818152600460205260409020600101549091160361127b5761126587611284565b600680549060006112758361248b565b91905055505b50505050505050565b6001546001600160a01b031633146112ae5760405162461bcd60e51b81526004016103a090612273565b336000908152602081905260409020805460ff191660011790556001600160a01b03811660009081526003602052604090205460ff16156113315760405162461bcd60e51b815260206004820181905260248201527f4164647265737320616c7265616479206861732061646d696e2061636365737360448201526064016103a0565b6001600160a01b0381166113795760405162461bcd60e51b815260206004820152600f60248201526e496e76616c6964204164647265737360881b60448201526064016103a0565b6002805460018082019092557f405787fa12a823e0f2b7631cc41b3ba8828b3321ca811111fa75cd3aa3bb5ace0180546001600160a01b0319166001600160a01b0384169081179091556000908152600360205260408120805460ff191690921790915560078054916113eb8361248b565b919050555050565b60006114036301e13380836124a4565b92915050565b6001600160a01b03811660009081526003602052604081205460ff161561143257506001919050565b919050565b6001546001600160a01b031633146114615760405162461bcd60e51b81526004016103a090612273565b6001600160a01b03808716600081815260046020526040902060010154909116036114e05760405162461bcd60e51b815260206004820152602960248201527f50687973696369616e20706572736f6e616c2064657461696c20616c7265616460448201526879206578697374212160b81b60648201526084016103a0565b6001600160a01b038616158015906114f85750600085115b80156115055750601f8511155b80156115115750600084115b801561151e5750600c8411155b801561152a5750600083115b80156115365750600082115b8015611543575060008151115b8015611550575060008751115b61156c5760405162461bcd60e51b81526004016103a0906124c6565b60006115778461032b565b60408051610100810182528a81526001600160a01b038a1660208083018290528284018b9052606083018a90526080830189905260a0830185905260c0830188905260e08301879052600091825260049052919091208151929350909181906115e090826123cb565b5060208201516001820180546001600160a01b0319166001600160a01b0390921691909117905560408201516002820155606082015160038201556080820151600482015560a0820151600582015560c0820151600682015560e0820151600782019061164d90826123cb565b5050506001600160a01b03808816600081815260056020526040902054909116036116915761167b87611284565b6006805490600061168b8361248b565b91905055505b5050505050505050565b600281815481106116ab57600080fd5b6000918252602090912001546001600160a01b0316905081565b600560205260009081526040902080546001820180546001600160a01b0390921692916116f190612342565b80601f016020809104026020016040519081016040528092919081815260200182805461171d90612342565b801561176a5780601f1061173f5761010080835404028352916020019161176a565b820191906000526020600020905b81548152906001019060200180831161174d57829003601f168201915b50505050509080600201805461177f90612342565b80601f01602080910402602001604051908101604052809291908181526020018280546117ab90612342565b80156117f85780601f106117cd576101008083540402835291602001916117f8565b820191906000526020600020905b8154815290600101906020018083116117db57829003601f168201915b50505050509080600301805461180d90612342565b80601f016020809104026020016040519081016040528092919081815260200182805461183990612342565b80156118865780601f1061185b57610100808354040283529160200191611886565b820191906000526020600020905b81548152906001019060200180831161186957829003601f168201915b50505050509080600401805461189b90612342565b80601f01602080910402602001604051908101604052809291908181526020018280546118c790612342565b80156119145780601f106118e957610100808354040283529160200191611914565b820191906000526020600020905b8154815290600101906020018083116118f757829003601f168201915b50505050600583015460079093015491929160ff16905087565b6001546001600160a01b031633146119585760405162461bcd60e51b81526004016103a090612273565b6001600160a01b038616158015906119705750600085115b801561197c5750600084115b80156119885750600083115b80156119945750600082115b80156119a1575060008151115b80156119ae575060008751115b6119ca5760405162461bcd60e51b81526004016103a0906124c6565b6001600160a01b0380871660008181526004602052604090206001015490911614611a075760405162461bcd60e51b81526004016103a0906122aa565b6000611a128461032b565b60408051610100810182528a81526001600160a01b038a1660208083018290528284018b9052606083018a90526080830189905260a0830185905260c0830188905260e0830187905260009182526004905291909120815192935090918190611a7b90826123cb565b5060208201516001820180546001600160a01b0319166001600160a01b0390921691909117905560408201516002820155606082015160038201556080820151600482015560a0820151600582015560c0820151600682015560e08201516007820190611ae890826123cb565b5050505050505050505050565b828054828255906000526020600020908101928215611b4a579160200282015b82811115611b4a57825182546001600160a01b0319166001600160a01b03909116178255602090920191600190910190611b15565b50611b56929150611b5a565b5090565b5b80821115611b565760008155600101611b5b565b80356001600160a01b038116811461143257600080fd5b600060208284031215611b9857600080fd5b6103a982611b6f565b600060208284031215611bb357600080fd5b5035919050565b634e487b7160e01b600052604160045260246000fd5b604051601f8201601f1916810167ffffffffffffffff81118282101715611bf957611bf9611bba565b604052919050565b600082601f830112611c1257600080fd5b813567ffffffffffffffff811115611c2c57611c2c611bba565b611c3f601f8201601f1916602001611bd0565b818152846020838601011115611c5457600080fd5b816020850160208301376000918101602001919091529392505050565b8035801515811461143257600080fd5b600082601f830112611c9257600080fd5b8135602067ffffffffffffffff821115611cae57611cae611bba565b8160051b611cbd828201611bd0565b9283528481018201928281019087851115611cd757600080fd5b83870192505b84831015611cfd57611cee83611b6f565b82529183019190830190611cdd565b979650505050505050565b600080600080600080600080610100898b031215611d2557600080fd5b611d2e89611b6f565b9750602089013567ffffffffffffffff80821115611d4b57600080fd5b611d578c838d01611c01565b985060408b0135915080821115611d6d57600080fd5b611d798c838d01611c01565b975060608b0135915080821115611d8f57600080fd5b611d9b8c838d01611c01565b965060808b0135955060a08b0135915080821115611db857600080fd5b611dc48c838d01611c01565b9450611dd260c08c01611c71565b935060e08b0135915080821115611de857600080fd5b50611df58b828c01611c81565b9150509295985092959890939650565b6000815180845260005b81811015611e2b57602081850181015186830182015201611e0f565b506000602082860101526020601f19601f83011685010191505092915050565b600081518084526020808501945080840160005b83811015611e845781516001600160a01b031687529582019590820190600101611e5f565b509495945050505050565b80516001600160a01b0316825260006101006020830151816020860152611eb882860182611e05565b91505060408301518482036040860152611ed28282611e05565b91505060608301518482036060860152611eec8282611e05565b91505060808301518482036080860152611f068282611e05565b91505060a083015160a085015260c083015184820360c0860152611f2a8282611e4b565b91505060e0830151611f4060e086018215159052565b509392505050565b6040815260008351610100806040850152611f67610140850183611e05565b915060018060a01b03602087015116606085015260408601516080850152606086015160a0850152608086015160c085015260a086015160e085015260c0860151818501525060e0850151603f1984830301610120850152611fc98282611e05565b9150508281036020840152611fde8185611e8f565b95945050505050565b6000610100808352611ffb8184018c611e05565b905060018060a01b038a1660208401528860408401528760608401528660808401528560a08401528460c084015282810360e084015261203b8185611e05565b9b9a5050505050505050505050565b600080600080600080600060e0888a03121561206557600080fd5b61206e88611b6f565b9650602088013567ffffffffffffffff8082111561208b57600080fd5b6120978b838c01611c01565b975060408a01359150808211156120ad57600080fd5b6120b98b838c01611c01565b965060608a01359150808211156120cf57600080fd5b6120db8b838c01611c01565b955060808a0135945060a08a01359150808211156120f857600080fd5b506121058a828b01611c01565b92505061211460c08901611c71565b905092959891949750929550565b600080600080600080600060e0888a03121561213d57600080fd5b873567ffffffffffffffff8082111561215557600080fd5b6121618b838c01611c01565b985061216f60208b01611b6f565b975060408a0135965060608a0135955060808a0135945060a08a0135935060c08a01359150808211156121a157600080fd5b506121ae8a828b01611c01565b91505092959891949750929550565b6001600160a01b038816815260e0602082018190526000906121e190830189611e05565b82810360408401526121f38189611e05565b905082810360608401526122078188611e05565b9050828103608084015261221b8187611e05565b60a0840195909552505090151560c09091015295945050505050565b634e487b7160e01b600052601160045260246000fd5b8082018082111561140357611403612237565b8181038181111561140357611403612237565b6020808252601f908201527f41636365737365626c65206f6e6c7920666f722053757065724f776e65727300604082015260600190565b6020808252606c908201527f496e636f727265637420446f63746f7227732077616c6c65742061646472657360408201527f73206f722054686520446f63746f722064657461696c20666f7220746865206160608201527f6464726573732070726f7669646564206e6f7420617661696c61626c6520696e60808201526b2074686520636861696e212160a01b60a082015260c00190565b600181811c9082168061235657607f821691505b60208210810361237657634e487b7160e01b600052602260045260246000fd5b50919050565b601f8211156123c657600081815260208120601f850160051c810160208610156123a35750805b601f850160051c820191505b818110156123c2578281556001016123af565b5050505b505050565b815167ffffffffffffffff8111156123e5576123e5611bba565b6123f9816123f38454612342565b8461237c565b602080601f83116001811461242e57600084156124165750858301515b600019600386901b1c1916600185901b1785556123c2565b600085815260208120601f198616915b8281101561245d5788860151825594840194600190910190840161243e565b508582101561247b5787850151600019600388901b60f8161c191681555b5050505050600190811b01905550565b60006001820161249d5761249d612237565b5060010190565b6000826124c157634e487b7160e01b600052601260045260246000fd5b500490565b6020808252602f908201527f4b696e646c792066696c6c20616c6c20746865206d616e6461746f727920666560408201526e696c64732070726f7065726c79212160881b60608201526080019056fea26469706673582212207d69a36b2008f524e6b84b80321f32c88e349142a55bd164d6263748cff2cb9364736f6c63430008150033",
  "linkReferences": {},
  "deployedLinkReferences": {}
}