{
  "_format": "hh-sol-artifact-1",
  "contractName": "DoctorDetails",
  "sourceName": "src/contracts/Doctor.sol",
  "abi": [
    {
      "inputs": [],
      "stateMutability": "nonpayable",
      "type": "constructor"
    },
    {
      "inputs": [
        {
          "internalType": "address",
          "name": "_walletAddress",
          "type": "address"
        }
      ],
      "name": "AddAdminAccess",
      "outputs": [],
      "stateMutability": "nonpayable",
      "type": "function"
    },
    {
      "inputs": [
        {
          "internalType": "string",
          "name": "_name",
          "type": "string"
        },
        {
          "internalType": "address",
          "name": "_walletAddress",
          "type": "address"
        },
        {
          "internalType": "string",
          "name": "_dateOfBirth",
          "type": "string"
        },
        {
          "internalType": "uint256",
          "name": "_age",
          "type": "uint256"
        },
        {
          "internalType": "uint256",
          "name": "_phoneNumber",
          "type": "uint256"
        },
        {
          "internalType": "string",
          "name": "_email",
          "type": "string"
        }
      ],
      "name": "AddDoctorPersonalInfo",
      "outputs": [],
      "stateMutability": "nonpayable",
      "type": "function"
    },
    {
      "inputs": [
        {
          "internalType": "address",
          "name": "_walletAddress",
          "type": "address"
        },
        {
          "internalType": "string",
          "name": "_MedicalLicenseNumber",
          "type": "string"
        },
        {
          "internalType": "string",
          "name": "_Specialization",
          "type": "string"
        },
        {
          "internalType": "string",
          "name": "_AvailableTimings",
          "type": "string"
        },
        {
          "internalType": "uint256",
          "name": "_ExperienceInYear",
          "type": "uint256"
        },
        {
          "internalType": "string",
          "name": "_MedicalSchoolAttended",
          "type": "string"
        },
        {
          "internalType": "bool",
          "name": "_isLicenseValid",
          "type": "bool"
        }
      ],
      "name": "AddDoctorProfessionalInfo",
      "outputs": [],
      "stateMutability": "nonpayable",
      "type": "function"
    },
    {
      "inputs": [
        {
          "internalType": "uint256",
          "name": "",
          "type": "uint256"
        }
      ],
      "name": "AdminAccess",
      "outputs": [
        {
          "internalType": "address",
          "name": "",
          "type": "address"
        }
      ],
      "stateMutability": "view",
      "type": "function"
    },
    {
      "inputs": [
        {
          "internalType": "address",
          "name": "_walletAddress",
          "type": "address"
        }
      ],
      "name": "DeleteAdminAccess",
      "outputs": [],
      "stateMutability": "nonpayable",
      "type": "function"
    },
    {
      "inputs": [
        {
          "internalType": "address",
          "name": "",
          "type": "address"
        }
      ],
      "name": "DoctorAccess",
      "outputs": [
        {
          "internalType": "bool",
          "name": "",
          "type": "bool"
        }
      ],
      "stateMutability": "view",
      "type": "function"
    },
    {
      "inputs": [
        {
          "internalType": "address",
          "name": "",
          "type": "address"
        }
      ],
      "name": "DoctorsPersonalInfo",
      "outputs": [
        {
          "internalType": "string",
          "name": "name",
          "type": "string"
        },
        {
          "internalType": "address",
          "name": "walletAddress",
          "type": "address"
        },
        {
          "internalType": "string",
          "name": "dateOfBirth",
          "type": "string"
        },
        {
          "internalType": "uint256",
          "name": "age",
          "type": "uint256"
        },
        {
          "internalType": "uint256",
          "name": "phoneNumber",
          "type": "uint256"
        },
        {
          "internalType": "string",
          "name": "email",
          "type": "string"
        }
      ],
      "stateMutability": "view",
      "type": "function"
    },
    {
      "inputs": [
        {
          "internalType": "address",
          "name": "",
          "type": "address"
        }
      ],
      "name": "Doctors_ProfessionalDetails",
      "outputs": [
        {
          "internalType": "address",
          "name": "walletAddress",
          "type": "address"
        },
        {
          "internalType": "string",
          "name": "MedicalSchoolAttended",
          "type": "string"
        },
        {
          "internalType": "string",
          "name": "MedicalLicenseNumber",
          "type": "string"
        },
        {
          "internalType": "string",
          "name": "Specialization",
          "type": "string"
        },
        {
          "internalType": "string",
          "name": "AvailableTimings",
          "type": "string"
        },
        {
          "internalType": "uint256",
          "name": "ExperienceInYear",
          "type": "uint256"
        },
        {
          "internalType": "bool",
          "name": "isLicenseValid",
          "type": "bool"
        }
      ],
      "stateMutability": "view",
      "type": "function"
    },
    {
      "inputs": [
        {
          "internalType": "string",
          "name": "_name",
          "type": "string"
        },
        {
          "internalType": "address",
          "name": "_walletAddress",
          "type": "address"
        },
        {
          "internalType": "string",
          "name": "_dateOfBirth",
          "type": "string"
        },
        {
          "internalType": "uint256",
          "name": "_age",
          "type": "uint256"
        },
        {
          "internalType": "uint256",
          "name": "_phoneNumber",
          "type": "uint256"
        },
        {
          "internalType": "string",
          "name": "_email",
          "type": "string"
        }
      ],
      "name": "EditDoctorPersonalDetails",
      "outputs": [],
      "stateMutability": "nonpayable",
      "type": "function"
    },
    {
      "inputs": [
        {
          "internalType": "address",
          "name": "_walletAddress",
          "type": "address"
        },
        {
          "internalType": "string",
          "name": "_MedicalLicenseNumber",
          "type": "string"
        },
        {
          "internalType": "string",
          "name": "_Specialization",
          "type": "string"
        },
        {
          "internalType": "string",
          "name": "_AvailableTimings",
          "type": "string"
        },
        {
          "internalType": "uint256",
          "name": "_ExperienceInYear",
          "type": "uint256"
        },
        {
          "internalType": "string",
          "name": "_MedicalSchoolAttended",
          "type": "string"
        },
        {
          "internalType": "bool",
          "name": "_isLicenseValid",
          "type": "bool"
        },
        {
          "internalType": "address[]",
          "name": "_treatedPatients",
          "type": "address[]"
        }
      ],
      "name": "EditDoctorProfessionalDetails",
      "outputs": [],
      "stateMutability": "nonpayable",
      "type": "function"
    },
    {
      "inputs": [
        {
          "internalType": "address",
          "name": "_address",
          "type": "address"
        }
      ],
      "name": "addOwner",
      "outputs": [],
      "stateMutability": "nonpayable",
      "type": "function"
    },
    {
      "inputs": [
        {
          "internalType": "uint256",
          "name": "_yearOfBirth",
          "type": "uint256"
        }
      ],
      "name": "getAge",
      "outputs": [
        {
          "internalType": "uint256",
          "name": "",
          "type": "uint256"
        }
      ],
      "stateMutability": "view",
      "type": "function"
    },
    {
      "inputs": [
        {
          "internalType": "address",
          "name": "_walletAddress",
          "type": "address"
        }
      ],
      "name": "getDoctor",
      "outputs": [
        {
          "components": [
            {
              "internalType": "string",
              "name": "name",
              "type": "string"
            },
            {
              "internalType": "address",
              "name": "walletAddress",
              "type": "address"
            },
            {
              "internalType": "string",
              "name": "dateOfBirth",
              "type": "string"
            },
            {
              "internalType": "uint256",
              "name": "age",
              "type": "uint256"
            },
            {
              "internalType": "uint256",
              "name": "phoneNumber",
              "type": "uint256"
            },
            {
              "internalType": "string",
              "name": "email",
              "type": "string"
            }
          ],
          "internalType": "struct DoctorDetails.DoctorPersonalInfo",
          "name": "",
          "type": "tuple"
        },
        {
          "components": [
            {
              "internalType": "address",
              "name": "walletAddress",
              "type": "address"
            },
            {
              "internalType": "string",
              "name": "MedicalSchoolAttended",
              "type": "string"
            },
            {
              "internalType": "string",
              "name": "MedicalLicenseNumber",
              "type": "string"
            },
            {
              "internalType": "string",
              "name": "Specialization",
              "type": "string"
            },
            {
              "internalType": "string",
              "name": "AvailableTimings",
              "type": "string"
            },
            {
              "internalType": "uint256",
              "name": "ExperienceInYear",
              "type": "uint256"
            },
            {
              "internalType": "address[]",
              "name": "treatedPatients",
              "type": "address[]"
            },
            {
              "internalType": "bool",
              "name": "isLicenseValid",
              "type": "bool"
            }
          ],
          "internalType": "struct DoctorDetails.DoctorProfessionalDetails",
          "name": "",
          "type": "tuple"
        }
      ],
      "stateMutability": "view",
      "type": "function"
    },
    {
      "inputs": [
        {
          "internalType": "uint256",
          "name": "timestamp",
          "type": "uint256"
        }
      ],
      "name": "getYear",
      "outputs": [
        {
          "internalType": "uint256",
          "name": "",
          "type": "uint256"
        }
      ],
      "stateMutability": "pure",
      "type": "function"
    },
    {
      "inputs": [
        {
          "internalType": "address",
          "name": "_address",
          "type": "address"
        }
      ],
      "name": "isDoctor",
      "outputs": [
        {
          "internalType": "bool",
          "name": "val",
          "type": "bool"
        }
      ],
      "stateMutability": "view",
      "type": "function"
    },
    {
      "inputs": [
        {
          "internalType": "address",
          "name": "_address",
          "type": "address"
        }
      ],
      "name": "isOwner",
      "outputs": [
        {
          "internalType": "bool",
          "name": "val",
          "type": "bool"
        }
      ],
      "stateMutability": "view",
      "type": "function"
    },
    {
      "inputs": [
        {
          "internalType": "address",
          "name": "",
          "type": "address"
        }
      ],
      "name": "owner",
      "outputs": [
        {
          "internalType": "bool",
          "name": "",
          "type": "bool"
        }
      ],
      "stateMutability": "view",
      "type": "function"
    },
    {
      "inputs": [
        {
          "internalType": "address",
          "name": "_address",
          "type": "address"
        }
      ],
      "name": "removeOwner",
      "outputs": [],
      "stateMutability": "nonpayable",
      "type": "function"
    },
    {
      "inputs": [],
      "name": "superOwner",
      "outputs": [
        {
          "internalType": "address",
          "name": "",
          "type": "address"
        }
      ],
      "stateMutability": "view",
      "type": "function"
    },
    {
      "inputs": [],
      "name": "totalAdmin",
      "outputs": [
        {
          "internalType": "uint256",
          "name": "",
          "type": "uint256"
        }
      ],
      "stateMutability": "view",
      "type": "function"
    },
    {
      "inputs": [],
      "name": "totalDoctors",
      "outputs": [
        {
          "internalType": "uint256",
          "name": "",
          "type": "uint256"
        }
      ],
      "stateMutability": "view",
      "type": "function"
    }
  ],
  "bytecode": "0x608060405234801562000010575f80fd5b50335f818152602081905260409020805460ff1916600190811790915580546001600160a01b0319168217905562000048906200004e565b6200024d565b335f9081526020819052604090205460ff161515600114806200007b57506001546001600160a01b031633145b620000e05760405162461bcd60e51b815260206004820152602a60248201527f41636365737365626c65206f6e6c7920666f72204f776e65727320616e642053604482015269757065724f776e65727360b01b60648201526084015b60405180910390fd5b335f908152602081905260409020805460ff191660011790556001600160a01b0381165f9081526003602052604090205460ff1615620001635760405162461bcd60e51b815260206004820181905260248201527f4164647265737320616c7265616479206861732061646d696e206163636573736044820152606401620000d7565b6001600160a01b038116620001ad5760405162461bcd60e51b815260206004820152600f60248201526e496e76616c6964204164647265737360881b6044820152606401620000d7565b6002805460018082019092557f405787fa12a823e0f2b7631cc41b3ba8828b3321ca811111fa75cd3aa3bb5ace0180546001600160a01b0319166001600160a01b0384169081179091555f908152600360205260408120805460ff19169092179091556007805491620002208362000228565b919050555050565b5f600182016200024657634e487b7160e01b5f52601160045260245ffd5b5060010190565b61264d806200025b5f395ff3fe608060405234801561000f575f80fd5b5060043610610132575f3560e01c80637065cb48116100b457806392d663131161007957806392d66313146102ab578063996440c6146102be578063a49b1725146102d1578063aa908bbe146102e4578063bb7d6b67146102f7578063bbcaa63714610319575f80fd5b80637065cb481461022257806375c6a96c146102355780637f1955eb1461025a57806387dcd2b61461026d57806388b29e8b14610298575f80fd5b80632f54bf6e116100fa5780632f54bf6e146101b85780636140f5aa146101db57806364319e33146101ee57806365b44d7e146101f7578063666e1b3914610200575f80fd5b80630e37008a14610136578063173825d91461015c57806318396cc8146101715780631a757712146101845780632f04e06414610197575b5f80fd5b610149610144366004611c8d565b61033f565b6040519081526020015b60405180910390f35b61016f61016a366004611cba565b6103c1565b005b61016f61017f366004611e17565b61043b565b61016f610192366004611f0a565b610648565b6101aa6101a5366004611cba565b6107d4565b6040516101539291906120eb565b6101cb6101c6366004611cba565b610efd565b6040519015158152602001610153565b61016f6101e9366004611cba565b610f2a565b61014960075481565b61014960065481565b6101cb61020e366004611cba565b5f6020819052908152604090205460ff1681565b61016f610230366004611cba565b61108f565b610248610243366004611cba565b61110c565b6040516101539695949392919061218b565b61016f6102683660046121eb565b6112e0565b600154610280906001600160a01b031681565b6040516001600160a01b039091168152602001610153565b61016f6102a6366004611cba565b6115cd565b6101496102b9366004611c8d565b611757565b6101cb6102cc366004611cba565b61176c565b61016f6102df366004611f0a565b611794565b6102806102f2366004611c8d565b61198e565b6101cb610305366004611cba565b60036020525f908152604090205460ff1681565b61032c610327366004611cba565b6119b6565b60405161015397969594939291906122ba565b5f8061034a42611757565b90505f8361035a836107b2612347565b610364919061235a565b90505f81116103ba5760405162461bcd60e51b815260206004820152601860248201527f456e74657220636f72726563742062697274682079656172000000000000000060448201526064015b60405180910390fd5b9392505050565b6001546001600160a01b0316331461041b5760405162461bcd60e51b815260206004820152601f60248201527f41636365737365626c65206f6e6c7920666f722053757065724f776e6572730060448201526064016103b1565b6001600160a01b03165f908152602081905260409020805460ff19169055565b335f9081526020819052604090205460ff1615156001148061046757506001546001600160a01b031633145b6104835760405162461bcd60e51b81526004016103b19061236d565b6001600160a01b0388161580159061049b57505f8351115b80156104a757505f8751115b80156104b357505f8651115b80156104bf57505f8551115b6105035760405162461bcd60e51b8152602060048201526015602482015274656e74657220636f72726563742064657461696c7360581b60448201526064016103b1565b6001600160a01b038089165f818152600560205260409020549091161461053c5760405162461bcd60e51b81526004016103b1906123b7565b60408051610100810182526001600160a01b038a811680835260208084018881528486018d9052606085018c9052608085018b905260a085018a905260c0850187905287151560e08601525f9283526005909152939020825181546001600160a01b0319169216919091178155915190919060018201906105bd90826124d5565b50604082015160028201906105d290826124d5565b50606082015160038201906105e790826124d5565b50608082015160048201906105fc90826124d5565b5060a0820151600582015560c08201518051610622916006840191602090910190611c16565b5060e091909101516007909101805460ff19169115159190911790555050505050505050565b335f9081526020819052604090205460ff1615156001148061067457506001546001600160a01b031633145b6106905760405162461bcd60e51b81526004016103b19061236d565b6001600160a01b038516158015906106a857505f8151115b80156106b457505f8651115b6106d05760405162461bcd60e51b81526004016103b190612591565b6001600160a01b038086165f818152600460205260409020600101549091161461070c5760405162461bcd60e51b81526004016103b1906123b7565b6040805160c0810182528781526001600160a01b0387166020808301829052828401889052606083018790526080830186905260a083018590525f9182526004905291909120815185929190819061076490826124d5565b5060208201516001820180546001600160a01b0319166001600160a01b039092169190911790556040820151600282019061079f90826124d5565b50606082015160038201556080820151600482015560a082015160058201906107c890826124d5565b50505050505050505050565b6108136040518060c00160405280606081526020015f6001600160a01b03168152602001606081526020015f81526020015f8152602001606081525090565b6108636040518061010001604052805f6001600160a01b03168152602001606081526020016060815260200160608152602001606081526020015f8152602001606081526020015f151581525090565b335f9081526020819052604090205460ff1615156001148061088f57506001546001600160a01b031633145b6108ab5760405162461bcd60e51b81526004016103b19061236d565b6001600160a01b0383166109015760405162461bcd60e51b815260206004820152601e60248201527f57616c6c657420416464726573732063616e6e6f7420626520656d707479000060448201526064016103b1565b6001600160a01b038084165f8181526004602052604090206001015490911614801561094657506001600160a01b038084165f81815260056020526040902054909116145b610a045760405162461bcd60e51b815260206004820152607860248201527f496e636f727265637420446f63746f722077616c6c657420616464726573732060448201527f6f722054686520446f63746f722064657461696c20666f72207468652061646460648201527f726573732070726f7669646564206973206e6f7420636f6d706c6574656c792060848201527f617661696c61626c6520696e2074686520636861696e2121000000000000000060a482015260c4016103b1565b6001600160a01b0383165f908152600460209081526040808320600590925291829020825160c08101909352815491929091839082908290610a459061244f565b80601f0160208091040260200160405190810160405280929190818152602001828054610a719061244f565b8015610abc5780601f10610a9357610100808354040283529160200191610abc565b820191905f5260205f20905b815481529060010190602001808311610a9f57829003601f168201915b505050918352505060018201546001600160a01b03166020820152600282018054604090920191610aec9061244f565b80601f0160208091040260200160405190810160405280929190818152602001828054610b189061244f565b8015610b635780601f10610b3a57610100808354040283529160200191610b63565b820191905f5260205f20905b815481529060010190602001808311610b4657829003601f168201915b505050505081526020016003820154815260200160048201548152602001600582018054610b909061244f565b80601f0160208091040260200160405190810160405280929190818152602001828054610bbc9061244f565b8015610c075780601f10610bde57610100808354040283529160200191610c07565b820191905f5260205f20905b815481529060010190602001808311610bea57829003601f168201915b50505091909252505060408051610100810190915283546001600160a01b031681526001840180549395509092849250602084019190610c469061244f565b80601f0160208091040260200160405190810160405280929190818152602001828054610c729061244f565b8015610cbd5780601f10610c9457610100808354040283529160200191610cbd565b820191905f5260205f20905b815481529060010190602001808311610ca057829003601f168201915b50505050508152602001600282018054610cd69061244f565b80601f0160208091040260200160405190810160405280929190818152602001828054610d029061244f565b8015610d4d5780601f10610d2457610100808354040283529160200191610d4d565b820191905f5260205f20905b815481529060010190602001808311610d3057829003601f168201915b50505050508152602001600382018054610d669061244f565b80601f0160208091040260200160405190810160405280929190818152602001828054610d929061244f565b8015610ddd5780601f10610db457610100808354040283529160200191610ddd565b820191905f5260205f20905b815481529060010190602001808311610dc057829003601f168201915b50505050508152602001600482018054610df69061244f565b80601f0160208091040260200160405190810160405280929190818152602001828054610e229061244f565b8015610e6d5780601f10610e4457610100808354040283529160200191610e6d565b820191905f5260205f20905b815481529060010190602001808311610e5057829003601f168201915b505050505081526020016005820154815260200160068201805480602002602001604051908101604052809291908181526020018280548015610ed757602002820191905f5260205f20905b81546001600160a01b03168152600190910190602001808311610eb9575b50505091835250506007919091015460ff16151560209091015291935090915050915091565b6001600160a01b0381165f9081526020819052604081205460ff1615610f2557506001919050565b919050565b335f9081526020819052604090205460ff16151560011480610f5657506001546001600160a01b031633145b610f725760405162461bcd60e51b81526004016103b19061236d565b335f908152602081905260409020805460ff191660011790556001600160a01b038116610fd35760405162461bcd60e51b815260206004820152600f60248201526e496e76616c6964204164647265737360881b60448201526064016103b1565b6001600160a01b0381165f9081526003602052604090205460ff1661106f5760405162461bcd60e51b815260206004820152604660248201527f50726f76696465642061646472657373206d75737420626520616e2041646d6960448201527f6e4163636573734164647265737320746f2072656d6f76652041646d696e416360648201526563657373212160d01b608482015260a4016103b1565b6001600160a01b03165f908152600360205260409020805460ff19169055565b6001546001600160a01b031633146110e95760405162461bcd60e51b815260206004820152601f60248201527f41636365737365626c65206f6e6c7920666f722053757065724f776e6572730060448201526064016103b1565b6001600160a01b03165f908152602081905260409020805460ff19166001179055565b60046020525f90815260409020805481906111269061244f565b80601f01602080910402602001604051908101604052809291908181526020018280546111529061244f565b801561119d5780601f106111745761010080835404028352916020019161119d565b820191905f5260205f20905b81548152906001019060200180831161118057829003601f168201915b505050600184015460028501805494956001600160a01b039092169491935091506111c79061244f565b80601f01602080910402602001604051908101604052809291908181526020018280546111f39061244f565b801561123e5780601f106112155761010080835404028352916020019161123e565b820191905f5260205f20905b81548152906001019060200180831161122157829003601f168201915b50505050509080600301549080600401549080600501805461125f9061244f565b80601f016020809104026020016040519081016040528092919081815260200182805461128b9061244f565b80156112d65780601f106112ad576101008083540402835291602001916112d6565b820191905f5260205f20905b8154815290600101906020018083116112b957829003601f168201915b5050505050905086565b335f9081526020819052604090205460ff1615156001148061130c57506001546001600160a01b031633145b6113285760405162461bcd60e51b81526004016103b19061236d565b6001600160a01b038088165f81815260056020526040902054909116036113a85760405162461bcd60e51b815260206004820152602e60248201527f50687973696369616e2050726f66657373696f6e616c2064657461696c73206160448201526d6c7265616479206578697374212160901b60648201526084016103b1565b6001600160a01b038088165f81815260056020526040902054909116148015906113d257505f8251115b80156113de57505f8651115b80156113ea57505f8551115b80156113f657505f8451115b61143a5760405162461bcd60e51b8152602060048201526015602482015274456e74657220436f72726563742064657461696c7360581b60448201526064016103b1565b604051806101000160405280886001600160a01b031681526020018381526020018781526020018681526020018581526020018481526020015f67ffffffffffffffff81111561148c5761148c611cd3565b6040519080825280602002602001820160405280156114b5578160200160208202803683370190505b5081528215156020918201526001600160a01b038981165f9081526005835260409020835181546001600160a01b031916921691909117815590820151600182019061150190826124d5565b506040820151600282019061151690826124d5565b506060820151600382019061152b90826124d5565b506080820151600482019061154090826124d5565b5060a0820151600582015560c08201518051611566916006840191602090910190611c16565b5060e091909101516007909101805460ff19169115159190911790556001600160a01b038781165f81815260046020526040902060010154909116036115c4576115af876115cd565b60068054905f6115be836125e0565b91905055505b50505050505050565b335f9081526020819052604090205460ff161515600114806115f957506001546001600160a01b031633145b6116155760405162461bcd60e51b81526004016103b19061236d565b335f908152602081905260409020805460ff191660011790556001600160a01b0381165f9081526003602052604090205460ff16156116965760405162461bcd60e51b815260206004820181905260248201527f4164647265737320616c7265616479206861732061646d696e2061636365737360448201526064016103b1565b6001600160a01b0381166116de5760405162461bcd60e51b815260206004820152600f60248201526e496e76616c6964204164647265737360881b60448201526064016103b1565b6002805460018082019092557f405787fa12a823e0f2b7631cc41b3ba8828b3321ca811111fa75cd3aa3bb5ace0180546001600160a01b0319166001600160a01b0384169081179091555f908152600360205260408120805460ff1916909217909155600780549161174f836125e0565b919050555050565b5f6117666301e13380836125f8565b92915050565b6001600160a01b0381165f9081526003602052604081205460ff1615610f2557506001919050565b335f9081526020819052604090205460ff161515600114806117c057506001546001600160a01b031633145b6117dc5760405162461bcd60e51b81526004016103b19061236d565b6001600160a01b038086165f818152600460205260409020600101549091160361185a5760405162461bcd60e51b815260206004820152602960248201527f50687973696369616e20706572736f6e616c2064657461696c20616c7265616460448201526879206578697374212160b81b60648201526084016103b1565b6001600160a01b0385161580159061187157505f82115b801561187d57505f8151115b801561188957505f8651115b6118a55760405162461bcd60e51b81526004016103b190612591565b6040805160c0810182528781526001600160a01b0387166020808301829052828401889052606083018790526080830186905260a083018590525f918252600490529190912081518592919081906118fd90826124d5565b5060208201516001820180546001600160a01b0319166001600160a01b039092169190911790556040820151600282019061193890826124d5565b50606082015160038201556080820151600482015560a0820151600582019061196190826124d5565b5050506001600160a01b038087165f81815260056020526040902054909116036115c4576115af866115cd565b6002818154811061199d575f80fd5b5f918252602090912001546001600160a01b0316905081565b60056020525f9081526040902080546001820180546001600160a01b0390921692916119e19061244f565b80601f0160208091040260200160405190810160405280929190818152602001828054611a0d9061244f565b8015611a585780601f10611a2f57610100808354040283529160200191611a58565b820191905f5260205f20905b815481529060010190602001808311611a3b57829003601f168201915b505050505090806002018054611a6d9061244f565b80601f0160208091040260200160405190810160405280929190818152602001828054611a999061244f565b8015611ae45780601f10611abb57610100808354040283529160200191611ae4565b820191905f5260205f20905b815481529060010190602001808311611ac757829003601f168201915b505050505090806003018054611af99061244f565b80601f0160208091040260200160405190810160405280929190818152602001828054611b259061244f565b8015611b705780601f10611b4757610100808354040283529160200191611b70565b820191905f5260205f20905b815481529060010190602001808311611b5357829003601f168201915b505050505090806004018054611b859061244f565b80601f0160208091040260200160405190810160405280929190818152602001828054611bb19061244f565b8015611bfc5780601f10611bd357610100808354040283529160200191611bfc565b820191905f5260205f20905b815481529060010190602001808311611bdf57829003601f168201915b50505050600583015460079093015491929160ff16905087565b828054828255905f5260205f20908101928215611c69579160200282015b82811115611c6957825182546001600160a01b0319166001600160a01b03909116178255602090920191600190910190611c34565b50611c75929150611c79565b5090565b5b80821115611c75575f8155600101611c7a565b5f60208284031215611c9d575f80fd5b5035919050565b80356001600160a01b0381168114610f25575f80fd5b5f60208284031215611cca575f80fd5b6103ba82611ca4565b634e487b7160e01b5f52604160045260245ffd5b604051601f8201601f1916810167ffffffffffffffff81118282101715611d1057611d10611cd3565b604052919050565b5f82601f830112611d27575f80fd5b813567ffffffffffffffff811115611d4157611d41611cd3565b611d54601f8201601f1916602001611ce7565b818152846020838601011115611d68575f80fd5b816020850160208301375f918101602001919091529392505050565b80358015158114610f25575f80fd5b5f82601f830112611da2575f80fd5b8135602067ffffffffffffffff821115611dbe57611dbe611cd3565b8160051b611dcd828201611ce7565b9283528481018201928281019087851115611de6575f80fd5b83870192505b84831015611e0c57611dfd83611ca4565b82529183019190830190611dec565b979650505050505050565b5f805f805f805f80610100898b031215611e2f575f80fd5b611e3889611ca4565b9750602089013567ffffffffffffffff80821115611e54575f80fd5b611e608c838d01611d18565b985060408b0135915080821115611e75575f80fd5b611e818c838d01611d18565b975060608b0135915080821115611e96575f80fd5b611ea28c838d01611d18565b965060808b0135955060a08b0135915080821115611ebe575f80fd5b611eca8c838d01611d18565b9450611ed860c08c01611d84565b935060e08b0135915080821115611eed575f80fd5b50611efa8b828c01611d93565b9150509295985092959890939650565b5f805f805f8060c08789031215611f1f575f80fd5b863567ffffffffffffffff80821115611f36575f80fd5b611f428a838b01611d18565b9750611f5060208a01611ca4565b96506040890135915080821115611f65575f80fd5b611f718a838b01611d18565b9550606089013594506080890135935060a0890135915080821115611f94575f80fd5b50611fa189828a01611d18565b9150509295509295509295565b5f81518084525f5b81811015611fd257602081850181015186830182015201611fb6565b505f602082860101526020601f19601f83011685010191505092915050565b5f8151808452602080850194508084015f5b838110156120285781516001600160a01b031687529582019590820190600101612003565b509495945050505050565b80516001600160a01b031682525f610100602083015181602086015261205b82860182611fae565b915050604083015184820360408601526120758282611fae565b9150506060830151848203606086015261208f8282611fae565b915050608083015184820360808601526120a98282611fae565b91505060a083015160a085015260c083015184820360c08601526120cd8282611ff1565b91505060e08301516120e360e086018215159052565b509392505050565b604081525f835160c06040840152612107610100840182611fae565b60208601516001600160a01b031660608501526040860151848203603f1990810160808701529192509061213b8383611fae565b9250606087015160a0860152608087015160c086015260a08701519150808584030160e08601525061216d8282611fae565b91505082810360208401526121828185612033565b95945050505050565b60c081525f61219d60c0830189611fae565b6001600160a01b038816602084015282810360408401526121be8188611fae565b905085606084015284608084015282810360a08401526121de8185611fae565b9998505050505050505050565b5f805f805f805f60e0888a031215612201575f80fd5b61220a88611ca4565b9650602088013567ffffffffffffffff80821115612226575f80fd5b6122328b838c01611d18565b975060408a0135915080821115612247575f80fd5b6122538b838c01611d18565b965060608a0135915080821115612268575f80fd5b6122748b838c01611d18565b955060808a0135945060a08a0135915080821115612290575f80fd5b5061229d8a828b01611d18565b9250506122ac60c08901611d84565b905092959891949750929550565b6001600160a01b038816815260e0602082018190525f906122dd90830189611fae565b82810360408401526122ef8189611fae565b905082810360608401526123038188611fae565b905082810360808401526123178187611fae565b60a0840195909552505090151560c09091015295945050505050565b634e487b7160e01b5f52601160045260245ffd5b8082018082111561176657611766612333565b8181038181111561176657611766612333565b6020808252602a908201527f41636365737365626c65206f6e6c7920666f72204f776e65727320616e642053604082015269757065724f776e65727360b01b606082015260800190565b6020808252606c908201527f496e636f727265637420446f63746f7227732077616c6c65742061646472657360408201527f73206f722054686520446f63746f722064657461696c20666f7220746865206160608201527f6464726573732070726f7669646564206e6f7420617661696c61626c6520696e60808201526b2074686520636861696e212160a01b60a082015260c00190565b600181811c9082168061246357607f821691505b60208210810361248157634e487b7160e01b5f52602260045260245ffd5b50919050565b601f8211156124d0575f81815260208120601f850160051c810160208610156124ad5750805b601f850160051c820191505b818110156124cc578281556001016124b9565b5050505b505050565b815167ffffffffffffffff8111156124ef576124ef611cd3565b612503816124fd845461244f565b84612487565b602080601f831160018114612536575f841561251f5750858301515b5f19600386901b1c1916600185901b1785556124cc565b5f85815260208120601f198616915b8281101561256457888601518255948401946001909101908401612545565b508582101561258157878501515f19600388901b60f8161c191681555b5050505050600190811b01905550565b6020808252602f908201527f4b696e646c792066696c6c20616c6c20746865206d616e6461746f727920666560408201526e696c64732070726f7065726c79212160881b606082015260800190565b5f600182016125f1576125f1612333565b5060010190565b5f8261261257634e487b7160e01b5f52601260045260245ffd5b50049056fea2646970667358221220aa51cdde625bd7e3bbeab5c827f654499bd5c4c417ac2388a952b7530b2e057764736f6c63430008150033",
  "linkReferences": {},
  "deployedLinkReferences": {}
}