{
  "_format": "hh-sol-artifact-1",
  "contractName": "DoctorDetails",
  "sourceName": "src/contracts/Doctor.sol",
  "abi": [
    {
      "inputs": [],
      "stateMutability": "nonpayable",
      "type": "constructor"
    },
    {
      "inputs": [
        {
          "internalType": "address",
          "name": "_walletAddress",
          "type": "address"
        }
      ],
      "name": "AddDoctorAccess",
      "outputs": [],
      "stateMutability": "nonpayable",
      "type": "function"
    },
    {
      "inputs": [
        {
          "internalType": "string",
          "name": "_name",
          "type": "string"
        },
        {
          "internalType": "address",
          "name": "_walletAddress",
          "type": "address"
        },
        {
          "internalType": "string",
          "name": "_dateOfBirth",
          "type": "string"
        },
        {
          "internalType": "uint256",
          "name": "_age",
          "type": "uint256"
        },
        {
          "internalType": "uint256",
          "name": "_phoneNumber",
          "type": "uint256"
        },
        {
          "internalType": "string",
          "name": "_email",
          "type": "string"
        }
      ],
      "name": "AddDoctorPersonalInfo",
      "outputs": [],
      "stateMutability": "nonpayable",
      "type": "function"
    },
    {
      "inputs": [
        {
          "internalType": "address",
          "name": "_walletAddress",
          "type": "address"
        },
        {
          "internalType": "string",
          "name": "_MedicalLicenseNumber",
          "type": "string"
        },
        {
          "internalType": "string",
          "name": "_Specialization",
          "type": "string"
        },
        {
          "internalType": "uint256",
          "name": "_ExperienceInYear",
          "type": "uint256"
        },
        {
          "internalType": "string",
          "name": "_MedicalSchoolAttended",
          "type": "string"
        }
      ],
      "name": "AddDoctorProfessionalInfo",
      "outputs": [],
      "stateMutability": "nonpayable",
      "type": "function"
    },
    {
      "inputs": [
        {
          "internalType": "address",
          "name": "_walletAddress",
          "type": "address"
        }
      ],
      "name": "DeleteDoctorAccess",
      "outputs": [],
      "stateMutability": "nonpayable",
      "type": "function"
    },
    {
      "inputs": [
        {
          "internalType": "address",
          "name": "",
          "type": "address"
        }
      ],
      "name": "DoctorAccess",
      "outputs": [
        {
          "internalType": "bool",
          "name": "",
          "type": "bool"
        }
      ],
      "stateMutability": "view",
      "type": "function"
    },
    {
      "inputs": [
        {
          "internalType": "address",
          "name": "",
          "type": "address"
        }
      ],
      "name": "DoctorsPersonalInfo",
      "outputs": [
        {
          "internalType": "string",
          "name": "name",
          "type": "string"
        },
        {
          "internalType": "address",
          "name": "walletAddress",
          "type": "address"
        },
        {
          "internalType": "string",
          "name": "dateOfBirth",
          "type": "string"
        },
        {
          "internalType": "uint256",
          "name": "age",
          "type": "uint256"
        },
        {
          "internalType": "uint256",
          "name": "phoneNumber",
          "type": "uint256"
        },
        {
          "internalType": "string",
          "name": "email",
          "type": "string"
        }
      ],
      "stateMutability": "view",
      "type": "function"
    },
    {
      "inputs": [
        {
          "internalType": "address",
          "name": "",
          "type": "address"
        }
      ],
      "name": "Doctors_ProfessionalDetails",
      "outputs": [
        {
          "internalType": "address",
          "name": "walletAddress",
          "type": "address"
        },
        {
          "internalType": "string",
          "name": "MedicalSchoolAttended",
          "type": "string"
        },
        {
          "internalType": "string",
          "name": "MedicalLicenseNumber",
          "type": "string"
        },
        {
          "internalType": "string",
          "name": "Specialization",
          "type": "string"
        },
        {
          "internalType": "uint256",
          "name": "ExperienceInYear",
          "type": "uint256"
        }
      ],
      "stateMutability": "view",
      "type": "function"
    },
    {
      "inputs": [
        {
          "internalType": "string",
          "name": "_name",
          "type": "string"
        },
        {
          "internalType": "address",
          "name": "_walletAddress",
          "type": "address"
        },
        {
          "internalType": "string",
          "name": "_dateOfBirth",
          "type": "string"
        },
        {
          "internalType": "uint256",
          "name": "_age",
          "type": "uint256"
        },
        {
          "internalType": "uint256",
          "name": "_phoneNumber",
          "type": "uint256"
        },
        {
          "internalType": "string",
          "name": "_email",
          "type": "string"
        }
      ],
      "name": "EditDoctorPersonalDetails",
      "outputs": [],
      "stateMutability": "nonpayable",
      "type": "function"
    },
    {
      "inputs": [
        {
          "internalType": "address",
          "name": "_walletAddress",
          "type": "address"
        },
        {
          "internalType": "string",
          "name": "_MedicalLicenseNumber",
          "type": "string"
        },
        {
          "internalType": "string",
          "name": "_Specialization",
          "type": "string"
        },
        {
          "internalType": "uint256",
          "name": "_ExperienceInYear",
          "type": "uint256"
        },
        {
          "internalType": "string",
          "name": "_MedicalSchoolAttended",
          "type": "string"
        }
      ],
      "name": "EditDoctorProfessionalDetails",
      "outputs": [],
      "stateMutability": "nonpayable",
      "type": "function"
    },
    {
      "inputs": [
        {
          "internalType": "address",
          "name": "_address",
          "type": "address"
        }
      ],
      "name": "addOwner",
      "outputs": [],
      "stateMutability": "nonpayable",
      "type": "function"
    },
    {
      "inputs": [
        {
          "internalType": "uint256",
          "name": "_yearOfBirth",
          "type": "uint256"
        }
      ],
      "name": "getAge",
      "outputs": [
        {
          "internalType": "uint256",
          "name": "",
          "type": "uint256"
        }
      ],
      "stateMutability": "view",
      "type": "function"
    },
    {
      "inputs": [
        {
          "internalType": "address",
          "name": "_walletAddress",
          "type": "address"
        }
      ],
      "name": "getDoctorPersonalDetails",
      "outputs": [
        {
          "components": [
            {
              "internalType": "string",
              "name": "name",
              "type": "string"
            },
            {
              "internalType": "address",
              "name": "walletAddress",
              "type": "address"
            },
            {
              "internalType": "string",
              "name": "dateOfBirth",
              "type": "string"
            },
            {
              "internalType": "uint256",
              "name": "age",
              "type": "uint256"
            },
            {
              "internalType": "uint256",
              "name": "phoneNumber",
              "type": "uint256"
            },
            {
              "internalType": "string",
              "name": "email",
              "type": "string"
            }
          ],
          "internalType": "struct DoctorDetails.DoctorPersonalInfo",
          "name": "",
          "type": "tuple"
        }
      ],
      "stateMutability": "view",
      "type": "function"
    },
    {
      "inputs": [
        {
          "internalType": "address",
          "name": "_walletAddress",
          "type": "address"
        }
      ],
      "name": "getDoctorProfessionalDetails",
      "outputs": [
        {
          "components": [
            {
              "internalType": "address",
              "name": "walletAddress",
              "type": "address"
            },
            {
              "internalType": "string",
              "name": "MedicalSchoolAttended",
              "type": "string"
            },
            {
              "internalType": "string",
              "name": "MedicalLicenseNumber",
              "type": "string"
            },
            {
              "internalType": "string",
              "name": "Specialization",
              "type": "string"
            },
            {
              "internalType": "uint256",
              "name": "ExperienceInYear",
              "type": "uint256"
            }
          ],
          "internalType": "struct DoctorDetails.DoctorProfessionalDetails",
          "name": "",
          "type": "tuple"
        }
      ],
      "stateMutability": "view",
      "type": "function"
    },
    {
      "inputs": [
        {
          "internalType": "uint256",
          "name": "timestamp",
          "type": "uint256"
        }
      ],
      "name": "getYear",
      "outputs": [
        {
          "internalType": "uint256",
          "name": "",
          "type": "uint256"
        }
      ],
      "stateMutability": "pure",
      "type": "function"
    },
    {
      "inputs": [
        {
          "internalType": "address",
          "name": "_address",
          "type": "address"
        }
      ],
      "name": "isDoctor",
      "outputs": [
        {
          "internalType": "bool",
          "name": "val",
          "type": "bool"
        }
      ],
      "stateMutability": "view",
      "type": "function"
    },
    {
      "inputs": [
        {
          "internalType": "address",
          "name": "_address",
          "type": "address"
        }
      ],
      "name": "isOwner",
      "outputs": [
        {
          "internalType": "bool",
          "name": "val",
          "type": "bool"
        }
      ],
      "stateMutability": "view",
      "type": "function"
    },
    {
      "inputs": [
        {
          "internalType": "address",
          "name": "",
          "type": "address"
        }
      ],
      "name": "owner",
      "outputs": [
        {
          "internalType": "bool",
          "name": "",
          "type": "bool"
        }
      ],
      "stateMutability": "view",
      "type": "function"
    },
    {
      "inputs": [
        {
          "internalType": "address",
          "name": "_address",
          "type": "address"
        }
      ],
      "name": "removeOwner",
      "outputs": [],
      "stateMutability": "nonpayable",
      "type": "function"
    },
    {
      "inputs": [],
      "name": "superOwner",
      "outputs": [
        {
          "internalType": "address",
          "name": "",
          "type": "address"
        }
      ],
      "stateMutability": "view",
      "type": "function"
    },
    {
      "inputs": [],
      "name": "totalAdmin",
      "outputs": [
        {
          "internalType": "uint256",
          "name": "",
          "type": "uint256"
        }
      ],
      "stateMutability": "view",
      "type": "function"
    },
    {
      "inputs": [],
      "name": "totalDoctors",
      "outputs": [
        {
          "internalType": "uint256",
          "name": "",
          "type": "uint256"
        }
      ],
      "stateMutability": "view",
      "type": "function"
    }
  ],
  "bytecode": "0x608060405234801561000f575f80fd5b50335f818152602081905260409020805460ff1916600190811790915580546001600160a01b03191690911790556121358061004a5f395ff3fe608060405234801561000f575f80fd5b5060043610610132575f3560e01c80637065cb48116100b4578063996440c611610079578063996440c61461029d578063a49b1725146102b0578063a96a6b21146102c3578063bb7d6b67146102e3578063bbcaa63714610305578063f7e901d314610329575f80fd5b80637065cb481461021457806375c6a96c1461022757806387dcd2b61461024c57806392b3141d1461027757806392d663131461028a575f80fd5b806348e64d80116100fa57806348e64d80146101ba57806364319e33146101cd57806365b44d7e146101d6578063666e1b39146101df578063686e1f1b14610201575f80fd5b806304028017146101365780630e37008a1461014b578063173825d9146101715780631a757712146101845780632f54bf6e14610197575b5f80fd5b610149610144366004611960565b610349565b005b61015e610159366004611979565b6104b2565b6040519081526020015b60405180910390f35b61014961017f366004611960565b61052f565b610149610192366004611a2d565b6105a9565b6101aa6101a5366004611960565b610730565b6040519015158152602001610168565b6101496101c8366004611ad1565b61075d565b61015e60065481565b61015e60055481565b6101aa6101ed366004611960565b5f6020819052908152604090205460ff1681565b61014961020f366004611960565b6108f6565b610149610222366004611960565b610a96565b61023a610235366004611960565b610b13565b60405161016896959493929190611bb0565b60015461025f906001600160a01b031681565b6040516001600160a01b039091168152602001610168565b610149610285366004611ad1565b610ce7565b61015e610298366004611979565b610f1b565b6101aa6102ab366004611960565b610f30565b6101496102be366004611a2d565b610f58565b6102d66102d1366004611960565b61116b565b6040516101689190611c10565b6101aa6102f1366004611960565b60026020525f908152604090205460ff1681565b610318610313366004611960565b611482565b604051610168959493929190611c96565b61033c610337366004611960565b61164c565b6040516101689190611cf2565b335f9081526020819052604090205460ff168061037057506001546001600160a01b031633145b6103955760405162461bcd60e51b815260040161038c90611d72565b60405180910390fd5b335f908152602081905260409020805460ff191660011790556001600160a01b0381166103f65760405162461bcd60e51b815260206004820152600f60248201526e496e76616c6964204164647265737360881b604482015260640161038c565b6001600160a01b0381165f9081526002602052604090205460ff166104925760405162461bcd60e51b815260206004820152604660248201527f50726f76696465642061646472657373206d75737420626520616e2041646d6960448201527f6e4163636573734164647265737320746f2072656d6f76652041646d696e416360648201526563657373212160d01b608482015260a40161038c565b6001600160a01b03165f908152600260205260409020805460ff19169055565b5f806104bd42610f1b565b90505f836104cd836107b2611dd0565b6104d79190611de3565b90505f81116105285760405162461bcd60e51b815260206004820152601860248201527f456e74657220636f727265637420626972746820796561720000000000000000604482015260640161038c565b9392505050565b6001546001600160a01b031633146105895760405162461bcd60e51b815260206004820152601f60248201527f41636365737365626c65206f6e6c7920666f722053757065724f776e65727300604482015260640161038c565b6001600160a01b03165f908152602081905260409020805460ff19169055565b335f9081526020819052604090205460ff16806105d057506001546001600160a01b031633145b6105ec5760405162461bcd60e51b815260040161038c90611d72565b6001600160a01b0385161580159061060457505f8151115b801561061057505f8651115b61062c5760405162461bcd60e51b815260040161038c90611df6565b6001600160a01b038086165f81815260036020526040902060010154909116146106685760405162461bcd60e51b815260040161038c90611e45565b6040805160c0810182528781526001600160a01b0387166020808301829052828401889052606083018790526080830186905260a083018590525f918252600390529190912081518592919081906106c09082611f63565b5060208201516001820180546001600160a01b0319166001600160a01b03909216919091179055604082015160028201906106fb9082611f63565b50606082015160038201556080820151600482015560a082015160058201906107249082611f63565b50505050505050505050565b6001600160a01b0381165f9081526020819052604081205460ff161561075857506001919050565b919050565b335f9081526020819052604090205460ff168061078457506001546001600160a01b031633145b6107a05760405162461bcd60e51b815260040161038c90611d72565b6001600160a01b038516158015906107b857505f8151115b80156107c457505f8451115b80156107d057505f8351115b6108145760405162461bcd60e51b8152602060048201526015602482015274656e74657220636f72726563742064657461696c7360581b604482015260640161038c565b6001600160a01b038086165f818152600460205260409020549091161461084d5760405162461bcd60e51b815260040161038c90611e45565b6040805160a0810182526001600160a01b0387811680835260208084018681528486018a905260608501899052608085018890525f9283526004909152939020825181546001600160a01b0319169216919091178155915190919060018201906108b79082611f63565b50604082015160028201906108cc9082611f63565b50606082015160038201906108e19082611f63565b50608082015181600401559050505050505050565b335f9081526020819052604090205460ff168061091d57506001546001600160a01b031633145b6109395760405162461bcd60e51b815260040161038c90611d72565b335f9081526020819052604090205460ff166109ae5760405162461bcd60e51b815260206004820152602e60248201527f4f6e6c79206f776e6572206861732070726976696c65676520746f206164642060448201526d6f776e657220616363657373212160901b606482015260840161038c565b6001600160a01b0381165f9081526002602052604090205460ff1615610a165760405162461bcd60e51b815260206004820181905260248201527f4164647265737320616c7265616479206861732061646d696e20616363657373604482015260640161038c565b6001600160a01b038116610a5e5760405162461bcd60e51b815260206004820152600f60248201526e496e76616c6964204164647265737360881b604482015260640161038c565b6001600160a01b0381165f908152600260205260408120805460ff191660011790556006805491610a8e8361201f565b919050555050565b6001546001600160a01b03163314610af05760405162461bcd60e51b815260206004820152601f60248201527f41636365737365626c65206f6e6c7920666f722053757065724f776e65727300604482015260640161038c565b6001600160a01b03165f908152602081905260409020805460ff19166001179055565b60036020525f9081526040902080548190610b2d90611edd565b80601f0160208091040260200160405190810160405280929190818152602001828054610b5990611edd565b8015610ba45780601f10610b7b57610100808354040283529160200191610ba4565b820191905f5260205f20905b815481529060010190602001808311610b8757829003601f168201915b505050600184015460028501805494956001600160a01b03909216949193509150610bce90611edd565b80601f0160208091040260200160405190810160405280929190818152602001828054610bfa90611edd565b8015610c455780601f10610c1c57610100808354040283529160200191610c45565b820191905f5260205f20905b815481529060010190602001808311610c2857829003601f168201915b505050505090806003015490806004015490806005018054610c6690611edd565b80601f0160208091040260200160405190810160405280929190818152602001828054610c9290611edd565b8015610cdd5780601f10610cb457610100808354040283529160200191610cdd565b820191905f5260205f20905b815481529060010190602001808311610cc057829003601f168201915b5050505050905086565b335f9081526020819052604090205460ff1680610d0e57506001546001600160a01b031633145b610d2a5760405162461bcd60e51b815260040161038c90611d72565b6001600160a01b038086165f8181526004602052604090205490911603610daa5760405162461bcd60e51b815260206004820152602e60248201527f50687973696369616e2050726f66657373696f6e616c2064657461696c73206160448201526d6c7265616479206578697374212160901b606482015260840161038c565b6001600160a01b038086165f8181526004602052604090205490911614801590610dd457505f8151115b8015610de057505f8451115b8015610dec57505f8351115b610e305760405162461bcd60e51b8152602060048201526015602482015274456e74657220436f72726563742064657461696c7360581b604482015260640161038c565b6040805160a0810182526001600160a01b0387811680835260208084018681528486018a905260608501899052608085018890525f9283526004909152939020825181546001600160a01b031916921691909117815591519091906001820190610e9a9082611f63565b5060408201516002820190610eaf9082611f63565b5060608201516003820190610ec49082611f63565b50608091909101516004909101556001600160a01b038086165f8181526003602052604090206001015490911603610f1457610eff856108f6565b60058054905f610f0e8361201f565b91905055505b5050505050565b5f610f2a6301e1338083612037565b92915050565b6001600160a01b0381165f9081526002602052604081205460ff161561075857506001919050565b335f9081526020819052604090205460ff1680610f7f57506001546001600160a01b031633145b610f9b5760405162461bcd60e51b815260040161038c90611d72565b6001600160a01b038086165f81815260036020526040902060010154909116036110195760405162461bcd60e51b815260206004820152602960248201527f50687973696369616e20706572736f6e616c2064657461696c20616c7265616460448201526879206578697374212160b81b606482015260840161038c565b6001600160a01b0385161580159061103057505f82115b801561103c57505f8151115b801561104857505f8651115b6110645760405162461bcd60e51b815260040161038c90611df6565b6040805160c0810182528781526001600160a01b0387166020808301829052828401889052606083018790526080830186905260a083018590525f918252600390529190912081518592919081906110bc9082611f63565b5060208201516001820180546001600160a01b0319166001600160a01b03909216919091179055604082015160028201906110f79082611f63565b50606082015160038201556080820151600482015560a082015160058201906111209082611f63565b5050506001600160a01b038087165f81815260046020526040902054909116036111625761114d866108f6565b60058054905f61115c8361201f565b91905055505b50505050505050565b6111aa6040518060c00160405280606081526020015f6001600160a01b03168152602001606081526020015f81526020015f8152602001606081525090565b335f9081526020819052604090205460ff16806111d157506001546001600160a01b031633145b6111ed5760405162461bcd60e51b815260040161038c90611d72565b6001600160a01b0382166112435760405162461bcd60e51b815260206004820152601e60248201527f57616c6c657420416464726573732063616e6e6f7420626520656d7074790000604482015260640161038c565b6001600160a01b038083165f818152600360205260409020600101549091161461127f5760405162461bcd60e51b815260040161038c90612056565b6001600160a01b0382165f9081526003602052604090819020815160c081019092528054829082906112b090611edd565b80601f01602080910402602001604051908101604052809291908181526020018280546112dc90611edd565b80156113275780601f106112fe57610100808354040283529160200191611327565b820191905f5260205f20905b81548152906001019060200180831161130a57829003601f168201915b505050918352505060018201546001600160a01b0316602082015260028201805460409092019161135790611edd565b80601f016020809104026020016040519081016040528092919081815260200182805461138390611edd565b80156113ce5780601f106113a5576101008083540402835291602001916113ce565b820191905f5260205f20905b8154815290600101906020018083116113b157829003601f168201915b5050505050815260200160038201548152602001600482015481526020016005820180546113fb90611edd565b80601f016020809104026020016040519081016040528092919081815260200182805461142790611edd565b80156114725780601f1061144957610100808354040283529160200191611472565b820191905f5260205f20905b81548152906001019060200180831161145557829003601f168201915b5050505050815250509050919050565b60046020525f9081526040902080546001820180546001600160a01b0390921692916114ad90611edd565b80601f01602080910402602001604051908101604052809291908181526020018280546114d990611edd565b80156115245780601f106114fb57610100808354040283529160200191611524565b820191905f5260205f20905b81548152906001019060200180831161150757829003601f168201915b50505050509080600201805461153990611edd565b80601f016020809104026020016040519081016040528092919081815260200182805461156590611edd565b80156115b05780601f10611587576101008083540402835291602001916115b0565b820191905f5260205f20905b81548152906001019060200180831161159357829003601f168201915b5050505050908060030180546115c590611edd565b80601f01602080910402602001604051908101604052809291908181526020018280546115f190611edd565b801561163c5780601f106116135761010080835404028352916020019161163c565b820191905f5260205f20905b81548152906001019060200180831161161f57829003601f168201915b5050505050908060040154905085565b6116856040518060a001604052805f6001600160a01b031681526020016060815260200160608152602001606081526020015f81525090565b335f9081526020819052604090205460ff16806116ac57506001546001600160a01b031633145b6116c85760405162461bcd60e51b815260040161038c90611d72565b6001600160a01b03821661171e5760405162461bcd60e51b815260206004820152601e60248201527f57616c6c657420416464726573732063616e6e6f7420626520656d7074790000604482015260640161038c565b6001600160a01b038083165f81815260046020526040902054909116146117575760405162461bcd60e51b815260040161038c90612056565b6001600160a01b038083165f90815260046020908152604091829020825160a08101909352805490931682526001830180549293929184019161179990611edd565b80601f01602080910402602001604051908101604052809291908181526020018280546117c590611edd565b80156118105780601f106117e757610100808354040283529160200191611810565b820191905f5260205f20905b8154815290600101906020018083116117f357829003601f168201915b5050505050815260200160028201805461182990611edd565b80601f016020809104026020016040519081016040528092919081815260200182805461185590611edd565b80156118a05780601f10611877576101008083540402835291602001916118a0565b820191905f5260205f20905b81548152906001019060200180831161188357829003601f168201915b505050505081526020016003820180546118b990611edd565b80601f01602080910402602001604051908101604052809291908181526020018280546118e590611edd565b80156119305780601f1061190757610100808354040283529160200191611930565b820191905f5260205f20905b81548152906001019060200180831161191357829003601f168201915b505050505081526020016004820154815250509050919050565b80356001600160a01b0381168114610758575f80fd5b5f60208284031215611970575f80fd5b6105288261194a565b5f60208284031215611989575f80fd5b5035919050565b634e487b7160e01b5f52604160045260245ffd5b5f82601f8301126119b3575f80fd5b813567ffffffffffffffff808211156119ce576119ce611990565b604051601f8301601f19908116603f011681019082821181831017156119f6576119f6611990565b81604052838152866020858801011115611a0e575f80fd5b836020870160208301375f602085830101528094505050505092915050565b5f805f805f8060c08789031215611a42575f80fd5b863567ffffffffffffffff80821115611a59575f80fd5b611a658a838b016119a4565b9750611a7360208a0161194a565b96506040890135915080821115611a88575f80fd5b611a948a838b016119a4565b9550606089013594506080890135935060a0890135915080821115611ab7575f80fd5b50611ac489828a016119a4565b9150509295509295509295565b5f805f805f60a08688031215611ae5575f80fd5b611aee8661194a565b9450602086013567ffffffffffffffff80821115611b0a575f80fd5b611b1689838a016119a4565b95506040880135915080821115611b2b575f80fd5b611b3789838a016119a4565b9450606088013593506080880135915080821115611b53575f80fd5b50611b60888289016119a4565b9150509295509295909350565b5f81518084525f5b81811015611b9157602081850181015186830182015201611b75565b505f602082860101526020601f19601f83011685010191505092915050565b60c081525f611bc260c0830189611b6d565b6001600160a01b03881660208401528281036040840152611be38188611b6d565b905085606084015284608084015282810360a0840152611c038185611b6d565b9998505050505050505050565b602081525f825160c06020840152611c2b60e0840182611b6d565b905060018060a01b0360208501511660408401526040840151601f1980858403016060860152611c5b8383611b6d565b925060608601516080860152608086015160a086015260a08601519150808584030160c086015250611c8d8282611b6d565b95945050505050565b6001600160a01b038616815260a0602082018190525f90611cb990830187611b6d565b8281036040840152611ccb8187611b6d565b90508281036060840152611cdf8186611b6d565b9150508260808301529695505050505050565b602080825282516001600160a01b03168282015282015160a060408301525f90611d1f60c0840182611b6d565b90506040840151601f1980858403016060860152611d3d8383611b6d565b9250606086015191508085840301608086015250611d5b8282611b6d565b915050608084015160a08401528091505092915050565b6020808252602a908201527f41636365737365626c65206f6e6c7920666f72204f776e65727320616e642053604082015269757065724f776e65727360b01b606082015260800190565b634e487b7160e01b5f52601160045260245ffd5b80820180821115610f2a57610f2a611dbc565b81810381811115610f2a57610f2a611dbc565b6020808252602f908201527f4b696e646c792066696c6c20616c6c20746865206d616e6461746f727920666560408201526e696c64732070726f7065726c79212160881b606082015260800190565b6020808252606c908201527f496e636f727265637420446f63746f7227732077616c6c65742061646472657360408201527f73206f722054686520446f63746f722064657461696c20666f7220746865206160608201527f6464726573732070726f7669646564206e6f7420617661696c61626c6520696e60808201526b2074686520636861696e212160a01b60a082015260c00190565b600181811c90821680611ef157607f821691505b602082108103611f0f57634e487b7160e01b5f52602260045260245ffd5b50919050565b601f821115611f5e575f81815260208120601f850160051c81016020861015611f3b5750805b601f850160051c820191505b81811015611f5a57828155600101611f47565b5050505b505050565b815167ffffffffffffffff811115611f7d57611f7d611990565b611f9181611f8b8454611edd565b84611f15565b602080601f831160018114611fc4575f8415611fad5750858301515b5f19600386901b1c1916600185901b178555611f5a565b5f85815260208120601f198616915b82811015611ff257888601518255948401946001909101908401611fd3565b508582101561200f57878501515f19600388901b60f8161c191681555b5050505050600190811b01905550565b5f6001820161203057612030611dbc565b5060010190565b5f8261205157634e487b7160e01b5f52601260045260245ffd5b500490565b60208082526078908201527f496e636f727265637420446f63746f722077616c6c657420616464726573732060408201527f6f722054686520446f63746f722064657461696c20666f72207468652061646460608201527f726573732070726f7669646564206973206e6f7420636f6d706c6574656c792060808201527f617661696c61626c6520696e2074686520636861696e2121000000000000000060a082015260c0019056fea2646970667358221220b4deb93e5d25ec573061d3805a74e3cb623248ab356b90fd087b72fa7b71885264736f6c63430008150033",
  "linkReferences": {},
  "deployedLinkReferences": {}
}