{
  "_format": "hh-sol-artifact-1",
  "contractName": "DoctorDetails",
  "sourceName": "src/contracts/Doctor.sol",
  "abi": [
    {
      "inputs": [],
      "stateMutability": "nonpayable",
      "type": "constructor"
    },
    {
      "inputs": [
        {
          "internalType": "address",
          "name": "_walletAddress",
          "type": "address"
        }
      ],
      "name": "AddAdminAccess",
      "outputs": [],
      "stateMutability": "nonpayable",
      "type": "function"
    },
    {
      "inputs": [
        {
          "internalType": "string",
          "name": "_name",
          "type": "string"
        },
        {
          "internalType": "address",
          "name": "_walletAddress",
          "type": "address"
        },
        {
          "internalType": "uint256",
          "name": "_dayOfBirth",
          "type": "uint256"
        },
        {
          "internalType": "uint256",
          "name": "_monthOfBirth",
          "type": "uint256"
        },
        {
          "internalType": "uint256",
          "name": "_yearOfBirth",
          "type": "uint256"
        },
        {
          "internalType": "uint256",
          "name": "_phoneNumber",
          "type": "uint256"
        },
        {
          "internalType": "string",
          "name": "_email",
          "type": "string"
        }
      ],
      "name": "AddDoctorPersonalInfo",
      "outputs": [],
      "stateMutability": "nonpayable",
      "type": "function"
    },
    {
      "inputs": [
        {
          "internalType": "address",
          "name": "_walletAddress",
          "type": "address"
        },
        {
          "internalType": "string",
          "name": "_MedicalLicenseNumber",
          "type": "string"
        },
        {
          "internalType": "string",
          "name": "_Specialization",
          "type": "string"
        },
        {
          "internalType": "string",
          "name": "_AvailableTimings",
          "type": "string"
        },
        {
          "internalType": "uint256",
          "name": "_ExperienceInYear",
          "type": "uint256"
        },
        {
          "internalType": "string",
          "name": "_MedicalSchoolAttended",
          "type": "string"
        },
        {
          "internalType": "bool",
          "name": "_isLicenseValid",
          "type": "bool"
        }
      ],
      "name": "AddDoctorProfessionalInfo",
      "outputs": [],
      "stateMutability": "nonpayable",
      "type": "function"
    },
    {
      "inputs": [
        {
          "internalType": "uint256",
          "name": "",
          "type": "uint256"
        }
      ],
      "name": "AdminAccess",
      "outputs": [
        {
          "internalType": "address",
          "name": "",
          "type": "address"
        }
      ],
      "stateMutability": "view",
      "type": "function"
    },
    {
      "inputs": [
        {
          "internalType": "address",
          "name": "_walletAddress",
          "type": "address"
        }
      ],
      "name": "DeleteAdminAccess",
      "outputs": [],
      "stateMutability": "nonpayable",
      "type": "function"
    },
    {
      "inputs": [
        {
          "internalType": "address",
          "name": "",
          "type": "address"
        }
      ],
      "name": "DoctorsPersonalInfo",
      "outputs": [
        {
          "internalType": "string",
          "name": "name",
          "type": "string"
        },
        {
          "internalType": "address",
          "name": "walletAddress",
          "type": "address"
        },
        {
          "internalType": "uint256",
          "name": "dayOfBirth",
          "type": "uint256"
        },
        {
          "internalType": "uint256",
          "name": "monthOfBirth",
          "type": "uint256"
        },
        {
          "internalType": "uint256",
          "name": "yearOfBirth",
          "type": "uint256"
        },
        {
          "internalType": "uint256",
          "name": "age",
          "type": "uint256"
        },
        {
          "internalType": "uint256",
          "name": "phoneNumber",
          "type": "uint256"
        },
        {
          "internalType": "string",
          "name": "email",
          "type": "string"
        }
      ],
      "stateMutability": "view",
      "type": "function"
    },
    {
      "inputs": [
        {
          "internalType": "address",
          "name": "",
          "type": "address"
        }
      ],
      "name": "Doctors_ProfessionalDetails",
      "outputs": [
        {
          "internalType": "address",
          "name": "walletAddress",
          "type": "address"
        },
        {
          "internalType": "string",
          "name": "MedicalSchoolAttended",
          "type": "string"
        },
        {
          "internalType": "string",
          "name": "MedicalLicenseNumber",
          "type": "string"
        },
        {
          "internalType": "string",
          "name": "Specialization",
          "type": "string"
        },
        {
          "internalType": "string",
          "name": "AvailableTimings",
          "type": "string"
        },
        {
          "internalType": "uint256",
          "name": "ExperienceInYear",
          "type": "uint256"
        },
        {
          "internalType": "bool",
          "name": "isLicenseValid",
          "type": "bool"
        }
      ],
      "stateMutability": "view",
      "type": "function"
    },
    {
      "inputs": [
        {
          "internalType": "string",
          "name": "_name",
          "type": "string"
        },
        {
          "internalType": "address",
          "name": "_walletAddress",
          "type": "address"
        },
        {
          "internalType": "uint256",
          "name": "_dayOfBirth",
          "type": "uint256"
        },
        {
          "internalType": "uint256",
          "name": "_monthOfBirth",
          "type": "uint256"
        },
        {
          "internalType": "uint256",
          "name": "_yearOfBirth",
          "type": "uint256"
        },
        {
          "internalType": "uint256",
          "name": "_phoneNumber",
          "type": "uint256"
        },
        {
          "internalType": "string",
          "name": "_email",
          "type": "string"
        }
      ],
      "name": "EditDoctorPersonalDetails",
      "outputs": [],
      "stateMutability": "nonpayable",
      "type": "function"
    },
    {
      "inputs": [
        {
          "internalType": "address",
          "name": "_walletAddress",
          "type": "address"
        },
        {
          "internalType": "string",
          "name": "_MedicalLicenseNumber",
          "type": "string"
        },
        {
          "internalType": "string",
          "name": "_Specialization",
          "type": "string"
        },
        {
          "internalType": "string",
          "name": "_AvailableTimings",
          "type": "string"
        },
        {
          "internalType": "uint256",
          "name": "_ExperienceInYear",
          "type": "uint256"
        },
        {
          "internalType": "string",
          "name": "_MedicalSchoolAttended",
          "type": "string"
        },
        {
          "internalType": "bool",
          "name": "_isLicenseValid",
          "type": "bool"
        },
        {
          "internalType": "address[]",
          "name": "_treatedPatients",
          "type": "address[]"
        }
      ],
      "name": "EditDoctorProfessionalDetails",
      "outputs": [],
      "stateMutability": "nonpayable",
      "type": "function"
    },
    {
      "inputs": [
        {
          "internalType": "address",
          "name": "",
          "type": "address"
        }
      ],
      "name": "OnlyOwner",
      "outputs": [
        {
          "internalType": "bool",
          "name": "",
          "type": "bool"
        }
      ],
      "stateMutability": "view",
      "type": "function"
    },
    {
      "inputs": [
        {
          "internalType": "address",
          "name": "_address",
          "type": "address"
        }
      ],
      "name": "addOwner",
      "outputs": [],
      "stateMutability": "nonpayable",
      "type": "function"
    },
    {
      "inputs": [
        {
          "internalType": "uint256",
          "name": "_yearOfBirth",
          "type": "uint256"
        }
      ],
      "name": "getAge",
      "outputs": [
        {
          "internalType": "uint256",
          "name": "",
          "type": "uint256"
        }
      ],
      "stateMutability": "view",
      "type": "function"
    },
    {
      "inputs": [
        {
          "internalType": "address",
          "name": "_walletAddress",
          "type": "address"
        }
      ],
      "name": "getDoctor",
      "outputs": [
        {
          "components": [
            {
              "internalType": "string",
              "name": "name",
              "type": "string"
            },
            {
              "internalType": "address",
              "name": "walletAddress",
              "type": "address"
            },
            {
              "internalType": "uint256",
              "name": "dayOfBirth",
              "type": "uint256"
            },
            {
              "internalType": "uint256",
              "name": "monthOfBirth",
              "type": "uint256"
            },
            {
              "internalType": "uint256",
              "name": "yearOfBirth",
              "type": "uint256"
            },
            {
              "internalType": "uint256",
              "name": "age",
              "type": "uint256"
            },
            {
              "internalType": "uint256",
              "name": "phoneNumber",
              "type": "uint256"
            },
            {
              "internalType": "string",
              "name": "email",
              "type": "string"
            }
          ],
          "internalType": "struct DoctorDetails.DoctorPersonalInfo",
          "name": "",
          "type": "tuple"
        },
        {
          "components": [
            {
              "internalType": "address",
              "name": "walletAddress",
              "type": "address"
            },
            {
              "internalType": "string",
              "name": "MedicalSchoolAttended",
              "type": "string"
            },
            {
              "internalType": "string",
              "name": "MedicalLicenseNumber",
              "type": "string"
            },
            {
              "internalType": "string",
              "name": "Specialization",
              "type": "string"
            },
            {
              "internalType": "string",
              "name": "AvailableTimings",
              "type": "string"
            },
            {
              "internalType": "uint256",
              "name": "ExperienceInYear",
              "type": "uint256"
            },
            {
              "internalType": "address[]",
              "name": "treatedPatients",
              "type": "address[]"
            },
            {
              "internalType": "bool",
              "name": "isLicenseValid",
              "type": "bool"
            }
          ],
          "internalType": "struct DoctorDetails.DoctorProfessionalDetails",
          "name": "",
          "type": "tuple"
        }
      ],
      "stateMutability": "view",
      "type": "function"
    },
    {
      "inputs": [
        {
          "internalType": "uint256",
          "name": "timestamp",
          "type": "uint256"
        }
      ],
      "name": "getYear",
      "outputs": [
        {
          "internalType": "uint256",
          "name": "",
          "type": "uint256"
        }
      ],
      "stateMutability": "pure",
      "type": "function"
    },
    {
      "inputs": [
        {
          "internalType": "address",
          "name": "",
          "type": "address"
        }
      ],
      "name": "owner",
      "outputs": [
        {
          "internalType": "bool",
          "name": "",
          "type": "bool"
        }
      ],
      "stateMutability": "view",
      "type": "function"
    },
    {
      "inputs": [
        {
          "internalType": "address",
          "name": "_address",
          "type": "address"
        }
      ],
      "name": "removeOwner",
      "outputs": [],
      "stateMutability": "nonpayable",
      "type": "function"
    },
    {
      "inputs": [],
      "name": "superOwner",
      "outputs": [
        {
          "internalType": "address",
          "name": "",
          "type": "address"
        }
      ],
      "stateMutability": "view",
      "type": "function"
    },
    {
      "inputs": [],
      "name": "totalAdmin",
      "outputs": [
        {
          "internalType": "uint256",
          "name": "",
          "type": "uint256"
        }
      ],
      "stateMutability": "view",
      "type": "function"
    },
    {
      "inputs": [],
      "name": "totalDoctors",
      "outputs": [
        {
          "internalType": "uint256",
          "name": "",
          "type": "uint256"
        }
      ],
      "stateMutability": "view",
      "type": "function"
    }
  ],
  "bytecode": "0x60806040523480156200001157600080fd5b50336000818152602081905260409020805460ff1916600117905562000037906200004f565b600180546001600160a01b031916331790556200022c565b3360009081526020819052604090205460ff161515600114620000b95760405162461bcd60e51b815260206004820152601a60248201527f41636365737365626c65206f6e6c7920666f72204f776e65727300000000000060448201526064015b60405180910390fd5b336000908152602081905260409020805460ff191660011790556001600160a01b03811660009081526003602052604090205460ff16156200013e5760405162461bcd60e51b815260206004820181905260248201527f4164647265737320616c7265616479206861732061646d696e206163636573736044820152606401620000b0565b6001600160a01b038116620001885760405162461bcd60e51b815260206004820152600f60248201526e496e76616c6964204164647265737360881b6044820152606401620000b0565b6002805460018082019092557f405787fa12a823e0f2b7631cc41b3ba8828b3321ca811111fa75cd3aa3bb5ace0180546001600160a01b0319166001600160a01b0384169081179091556000908152600360205260408120805460ff19169092179091556007805491620001fc8362000204565b919050555050565b6000600182016200022557634e487b7160e01b600052601160045260246000fd5b5060010190565b6125aa806200023c6000396000f3fe608060405234801561001057600080fd5b50600436106101215760003560e01c80637065cb48116100ad57806392d663131161007157806392d663131461029b5780639c68ff23146102ae578063aa908bbe146102c1578063bbcaa637146102d4578063e2463ac3146102fa57600080fd5b80637065cb481461021057806375c6a96c146102235780637f1955eb1461024a57806387dcd2b61461025d57806388b29e8b1461028857600080fd5b80632f04e064116100f45780632f04e064146101a75780636140f5aa146101c857806364319e33146101db57806365b44d7e146101e4578063666e1b39146101ed57600080fd5b80630a86c02a146101265780630e37008a1461015e578063173825d91461017f57806318396cc814610194575b600080fd5b610149610134366004611be5565b60036020526000908152604090205460ff1681565b60405190151581526020015b60405180910390f35b61017161016c366004611c00565b61030d565b604051908152602001610155565b61019261018d366004611be5565b610392565b005b6101926101a2366004611d67565b61040d565b6101ba6101b5366004611be5565b61060c565b604051610155929190611fa7565b6101926101d6366004611be5565b610cd6565b61017160075481565b61017160065481565b6101496101fb366004611be5565b60006020819052908152604090205460ff1681565b61019261021e366004611be5565b610e2a565b610236610231366004611be5565b610ea8565b604051610155989796959493929190612046565b6101926102583660046120a9565b61100b565b600154610270906001600160a01b031681565b6040516001600160a01b039091168152602001610155565b610192610296366004611be5565b6112ee565b6101716102a9366004611c00565b611467565b6101926102bc366004612181565b61147d565b6102706102cf366004611c00565b6116eb565b6102e76102e2366004611be5565b611715565b604051610155979695949392919061221c565b610192610308366004612181565b61197e565b60008061031942611467565b905060008361032a836107b26122ac565b61033491906122bf565b90506000811161038b5760405162461bcd60e51b815260206004820152601860248201527f456e74657220636f72726563742062697274682079656172000000000000000060448201526064015b60405180910390fd5b9392505050565b6001546001600160a01b031633146103ec5760405162461bcd60e51b815260206004820152601f60248201527f41636365737365626c65206f6e6c7920666f722053757065724f776e657273006044820152606401610382565b6001600160a01b03166000908152602081905260409020805460ff19169055565b3360009081526020819052604090205460ff1615156001146104415760405162461bcd60e51b8152600401610382906122d2565b6001600160a01b0388161580159061045a575060008351115b8015610467575060008751115b8015610474575060008651115b8015610481575060008551115b6104c55760405162461bcd60e51b8152602060048201526015602482015274656e74657220636f72726563742064657461696c7360581b6044820152606401610382565b6001600160a01b03808916600081815260056020526040902054909116146104ff5760405162461bcd60e51b815260040161038290612309565b60408051610100810182526001600160a01b038a811680835260208084018881528486018d9052606085018c9052608085018b905260a085018a905260c0850187905287151560e086015260009283526005909152939020825181546001600160a01b031916921691909117815591519091906001820190610581908261242a565b5060408201516002820190610596908261242a565b50606082015160038201906105ab908261242a565b50608082015160048201906105c0908261242a565b5060a0820151600582015560c082015180516105e6916006840191602090910190611b4f565b5060e091909101516007909101805460ff19169115159190911790555050505050505050565b61065d6040518061010001604052806060815260200160006001600160a01b031681526020016000815260200160008152602001600081526020016000815260200160008152602001606081525090565b6106b060405180610100016040528060006001600160a01b031681526020016060815260200160608152602001606081526020016060815260200160008152602001606081526020016000151581525090565b3360009081526020819052604090205460ff1615156001146106e45760405162461bcd60e51b8152600401610382906122d2565b6001600160a01b03831661073a5760405162461bcd60e51b815260206004820152601e60248201527f57616c6c657420416464726573732063616e6e6f7420626520656d70747900006044820152606401610382565b6001600160a01b0380841660008181526004602052604090206001015490911614801561078157506001600160a01b03808416600081815260056020526040902054909116145b61083f5760405162461bcd60e51b815260206004820152607860248201527f496e636f727265637420446f63746f722077616c6c657420616464726573732060448201527f6f722054686520446f63746f722064657461696c20666f72207468652061646460648201527f726573732070726f7669646564206973206e6f7420636f6d706c6574656c792060848201527f617661696c61626c6520696e2074686520636861696e2121000000000000000060a482015260c401610382565b6001600160a01b038316600090815260046020908152604080832060059092529182902082516101008101909352815491929091839082908290610882906123a1565b80601f01602080910402602001604051908101604052809291908181526020018280546108ae906123a1565b80156108fb5780601f106108d0576101008083540402835291602001916108fb565b820191906000526020600020905b8154815290600101906020018083116108de57829003601f168201915b505050918352505060018201546001600160a01b03166020820152600282015460408201526003820154606082015260048201546080820152600582015460a0820152600682015460c082015260078201805460e09092019161095d906123a1565b80601f0160208091040260200160405190810160405280929190818152602001828054610989906123a1565b80156109d65780601f106109ab576101008083540402835291602001916109d6565b820191906000526020600020905b8154815290600101906020018083116109b957829003601f168201915b50505091909252505060408051610100810190915283546001600160a01b031681526001840180549395509092849250602084019190610a15906123a1565b80601f0160208091040260200160405190810160405280929190818152602001828054610a41906123a1565b8015610a8e5780601f10610a6357610100808354040283529160200191610a8e565b820191906000526020600020905b815481529060010190602001808311610a7157829003601f168201915b50505050508152602001600282018054610aa7906123a1565b80601f0160208091040260200160405190810160405280929190818152602001828054610ad3906123a1565b8015610b205780601f10610af557610100808354040283529160200191610b20565b820191906000526020600020905b815481529060010190602001808311610b0357829003601f168201915b50505050508152602001600382018054610b39906123a1565b80601f0160208091040260200160405190810160405280929190818152602001828054610b65906123a1565b8015610bb25780601f10610b8757610100808354040283529160200191610bb2565b820191906000526020600020905b815481529060010190602001808311610b9557829003601f168201915b50505050508152602001600482018054610bcb906123a1565b80601f0160208091040260200160405190810160405280929190818152602001828054610bf7906123a1565b8015610c445780601f10610c1957610100808354040283529160200191610c44565b820191906000526020600020905b815481529060010190602001808311610c2757829003601f168201915b505050505081526020016005820154815260200160068201805480602002602001604051908101604052809291908181526020018280548015610cb057602002820191906000526020600020905b81546001600160a01b03168152600190910190602001808311610c92575b50505091835250506007919091015460ff16151560209091015291935090915050915091565b3360009081526020819052604090205460ff161515600114610d0a5760405162461bcd60e51b8152600401610382906122d2565b336000908152602081905260409020805460ff191660011790556001600160a01b038116610d6c5760405162461bcd60e51b815260206004820152600f60248201526e496e76616c6964204164647265737360881b6044820152606401610382565b6001600160a01b03811660009081526003602052604090205460ff16610e095760405162461bcd60e51b815260206004820152604660248201527f50726f76696465642061646472657373206d75737420626520616e2041646d6960448201527f6e4163636573734164647265737320746f2072656d6f76652041646d696e416360648201526563657373212160d01b608482015260a401610382565b6001600160a01b03166000908152600360205260409020805460ff19169055565b6001546001600160a01b03163314610e845760405162461bcd60e51b815260206004820152601f60248201527f41636365737365626c65206f6e6c7920666f722053757065724f776e657273006044820152606401610382565b6001600160a01b03166000908152602081905260409020805460ff19166001179055565b600460205260009081526040902080548190610ec3906123a1565b80601f0160208091040260200160405190810160405280929190818152602001828054610eef906123a1565b8015610f3c5780601f10610f1157610100808354040283529160200191610f3c565b820191906000526020600020905b815481529060010190602001808311610f1f57829003601f168201915b5050505050908060010160009054906101000a90046001600160a01b031690806002015490806003015490806004015490806005015490806006015490806007018054610f88906123a1565b80601f0160208091040260200160405190810160405280929190818152602001828054610fb4906123a1565b80156110015780601f10610fd657610100808354040283529160200191611001565b820191906000526020600020905b815481529060010190602001808311610fe457829003601f168201915b5050505050905088565b3360009081526020819052604090205460ff16151560011461103f5760405162461bcd60e51b8152600401610382906122d2565b6001600160a01b03808816600081815260056020526040902054909116036110c05760405162461bcd60e51b815260206004820152602e60248201527f50687973696369616e2050726f66657373696f6e616c2064657461696c73206160448201526d6c7265616479206578697374212160901b6064820152608401610382565b6001600160a01b03808816600081815260056020526040902054909116148015906110ec575060008251115b80156110f9575060008651115b8015611106575060008551115b8015611113575060008451115b6111575760405162461bcd60e51b8152602060048201526015602482015274456e74657220436f72726563742064657461696c7360581b6044820152606401610382565b604051806101000160405280886001600160a01b03168152602001838152602001878152602001868152602001858152602001848152602001600067ffffffffffffffff8111156111aa576111aa611c19565b6040519080825280602002602001820160405280156111d3578160200160208202803683370190505b5081528215156020918201526001600160a01b0389811660009081526005835260409020835181546001600160a01b0319169216919091178155908201516001820190611220908261242a565b5060408201516002820190611235908261242a565b506060820151600382019061124a908261242a565b506080820151600482019061125f908261242a565b5060a0820151600582015560c08201518051611285916006840191602090910190611b4f565b5060e091909101516007909101805460ff19169115159190911790556001600160a01b03878116600081815260046020526040902060010154909116036112e5576112cf876112ee565b600680549060006112df836124ea565b91905055505b50505050505050565b3360009081526020819052604090205460ff1615156001146113225760405162461bcd60e51b8152600401610382906122d2565b336000908152602081905260409020805460ff191660011790556001600160a01b03811660009081526003602052604090205460ff16156113a55760405162461bcd60e51b815260206004820181905260248201527f4164647265737320616c7265616479206861732061646d696e206163636573736044820152606401610382565b6001600160a01b0381166113ed5760405162461bcd60e51b815260206004820152600f60248201526e496e76616c6964204164647265737360881b6044820152606401610382565b6002805460018082019092557f405787fa12a823e0f2b7631cc41b3ba8828b3321ca811111fa75cd3aa3bb5ace0180546001600160a01b0319166001600160a01b0384169081179091556000908152600360205260408120805460ff1916909217909155600780549161145f836124ea565b919050555050565b60006114776301e1338083612503565b92915050565b3360009081526020819052604090205460ff1615156001146114b15760405162461bcd60e51b8152600401610382906122d2565b6001600160a01b03808716600081815260046020526040902060010154909116036115305760405162461bcd60e51b815260206004820152602960248201527f50687973696369616e20706572736f6e616c2064657461696c20616c7265616460448201526879206578697374212160b81b6064820152608401610382565b6001600160a01b038616158015906115485750600085115b80156115555750601f8511155b80156115615750600084115b801561156e5750600c8411155b801561157a5750600083115b80156115865750600082115b8015611593575060008151115b80156115a0575060008751115b6115bc5760405162461bcd60e51b815260040161038290612525565b60006115c78461030d565b60408051610100810182528a81526001600160a01b038a1660208083018290528284018b9052606083018a90526080830189905260a0830185905260c0830188905260e0830187905260009182526004905291909120815192935090918190611630908261242a565b5060208201516001820180546001600160a01b0319166001600160a01b0390921691909117905560408201516002820155606082015160038201556080820151600482015560a0820151600582015560c0820151600682015560e0820151600782019061169d908261242a565b5050506001600160a01b03808816600081815260056020526040902054909116036116e1576116cb876112ee565b600680549060006116db836124ea565b91905055505b5050505050505050565b600281815481106116fb57600080fd5b6000918252602090912001546001600160a01b0316905081565b600560205260009081526040902080546001820180546001600160a01b039092169291611741906123a1565b80601f016020809104026020016040519081016040528092919081815260200182805461176d906123a1565b80156117ba5780601f1061178f576101008083540402835291602001916117ba565b820191906000526020600020905b81548152906001019060200180831161179d57829003601f168201915b5050505050908060020180546117cf906123a1565b80601f01602080910402602001604051908101604052809291908181526020018280546117fb906123a1565b80156118485780601f1061181d57610100808354040283529160200191611848565b820191906000526020600020905b81548152906001019060200180831161182b57829003601f168201915b50505050509080600301805461185d906123a1565b80601f0160208091040260200160405190810160405280929190818152602001828054611889906123a1565b80156118d65780601f106118ab576101008083540402835291602001916118d6565b820191906000526020600020905b8154815290600101906020018083116118b957829003601f168201915b5050505050908060040180546118eb906123a1565b80601f0160208091040260200160405190810160405280929190818152602001828054611917906123a1565b80156119645780601f1061193957610100808354040283529160200191611964565b820191906000526020600020905b81548152906001019060200180831161194757829003601f168201915b50505050600583015460079093015491929160ff16905087565b3360009081526020819052604090205460ff1615156001146119b25760405162461bcd60e51b8152600401610382906122d2565b6001600160a01b038616158015906119ca5750600085115b80156119d65750600084115b80156119e25750600083115b80156119ee5750600082115b80156119fb575060008151115b8015611a08575060008751115b611a245760405162461bcd60e51b815260040161038290612525565b6001600160a01b0380871660008181526004602052604090206001015490911614611a615760405162461bcd60e51b815260040161038290612309565b6000611a6c8461030d565b60408051610100810182528a81526001600160a01b038a1660208083018290528284018b9052606083018a90526080830189905260a0830185905260c0830188905260e0830187905260009182526004905291909120815192935090918190611ad5908261242a565b5060208201516001820180546001600160a01b0319166001600160a01b0390921691909117905560408201516002820155606082015160038201556080820151600482015560a0820151600582015560c0820151600682015560e08201516007820190611b42908261242a565b5050505050505050505050565b828054828255906000526020600020908101928215611ba4579160200282015b82811115611ba457825182546001600160a01b0319166001600160a01b03909116178255602090920191600190910190611b6f565b50611bb0929150611bb4565b5090565b5b80821115611bb05760008155600101611bb5565b80356001600160a01b0381168114611be057600080fd5b919050565b600060208284031215611bf757600080fd5b61038b82611bc9565b600060208284031215611c1257600080fd5b5035919050565b634e487b7160e01b600052604160045260246000fd5b604051601f8201601f1916810167ffffffffffffffff81118282101715611c5857611c58611c19565b604052919050565b600082601f830112611c7157600080fd5b813567ffffffffffffffff811115611c8b57611c8b611c19565b611c9e601f8201601f1916602001611c2f565b818152846020838601011115611cb357600080fd5b816020850160208301376000918101602001919091529392505050565b80358015158114611be057600080fd5b600082601f830112611cf157600080fd5b8135602067ffffffffffffffff821115611d0d57611d0d611c19565b8160051b611d1c828201611c2f565b9283528481018201928281019087851115611d3657600080fd5b83870192505b84831015611d5c57611d4d83611bc9565b82529183019190830190611d3c565b979650505050505050565b600080600080600080600080610100898b031215611d8457600080fd5b611d8d89611bc9565b9750602089013567ffffffffffffffff80821115611daa57600080fd5b611db68c838d01611c60565b985060408b0135915080821115611dcc57600080fd5b611dd88c838d01611c60565b975060608b0135915080821115611dee57600080fd5b611dfa8c838d01611c60565b965060808b0135955060a08b0135915080821115611e1757600080fd5b611e238c838d01611c60565b9450611e3160c08c01611cd0565b935060e08b0135915080821115611e4757600080fd5b50611e548b828c01611ce0565b9150509295985092959890939650565b6000815180845260005b81811015611e8a57602081850181015186830182015201611e6e565b506000602082860101526020601f19601f83011685010191505092915050565b600081518084526020808501945080840160005b83811015611ee35781516001600160a01b031687529582019590820190600101611ebe565b509495945050505050565b80516001600160a01b0316825260006101006020830151816020860152611f1782860182611e64565b91505060408301518482036040860152611f318282611e64565b91505060608301518482036060860152611f4b8282611e64565b91505060808301518482036080860152611f658282611e64565b91505060a083015160a085015260c083015184820360c0860152611f898282611eaa565b91505060e0830151611f9f60e086018215159052565b509392505050565b6040815260008351610100806040850152611fc6610140850183611e64565b915060018060a01b03602087015116606085015260408601516080850152606086015160a0850152608086015160c085015260a086015160e085015260c0860151818501525060e0850151603f19848303016101208501526120288282611e64565b915050828103602084015261203d8185611eee565b95945050505050565b600061010080835261205a8184018c611e64565b905060018060a01b038a1660208401528860408401528760608401528660808401528560a08401528460c084015282810360e084015261209a8185611e64565b9b9a5050505050505050505050565b600080600080600080600060e0888a0312156120c457600080fd5b6120cd88611bc9565b9650602088013567ffffffffffffffff808211156120ea57600080fd5b6120f68b838c01611c60565b975060408a013591508082111561210c57600080fd5b6121188b838c01611c60565b965060608a013591508082111561212e57600080fd5b61213a8b838c01611c60565b955060808a0135945060a08a013591508082111561215757600080fd5b506121648a828b01611c60565b92505061217360c08901611cd0565b905092959891949750929550565b600080600080600080600060e0888a03121561219c57600080fd5b873567ffffffffffffffff808211156121b457600080fd5b6121c08b838c01611c60565b98506121ce60208b01611bc9565b975060408a0135965060608a0135955060808a0135945060a08a0135935060c08a013591508082111561220057600080fd5b5061220d8a828b01611c60565b91505092959891949750929550565b6001600160a01b038816815260e06020820181905260009061224090830189611e64565b82810360408401526122528189611e64565b905082810360608401526122668188611e64565b9050828103608084015261227a8187611e64565b60a0840195909552505090151560c09091015295945050505050565b634e487b7160e01b600052601160045260246000fd5b8082018082111561147757611477612296565b8181038181111561147757611477612296565b6020808252601a908201527f41636365737365626c65206f6e6c7920666f72204f776e657273000000000000604082015260600190565b6020808252606c908201527f496e636f727265637420446f63746f7227732077616c6c65742061646472657360408201527f73206f722054686520446f63746f722064657461696c20666f7220746865206160608201527f6464726573732070726f7669646564206e6f7420617661696c61626c6520696e60808201526b2074686520636861696e212160a01b60a082015260c00190565b600181811c908216806123b557607f821691505b6020821081036123d557634e487b7160e01b600052602260045260246000fd5b50919050565b601f82111561242557600081815260208120601f850160051c810160208610156124025750805b601f850160051c820191505b818110156124215782815560010161240e565b5050505b505050565b815167ffffffffffffffff81111561244457612444611c19565b6124588161245284546123a1565b846123db565b602080601f83116001811461248d57600084156124755750858301515b600019600386901b1c1916600185901b178555612421565b600085815260208120601f198616915b828110156124bc5788860151825594840194600190910190840161249d565b50858210156124da5787850151600019600388901b60f8161c191681555b5050505050600190811b01905550565b6000600182016124fc576124fc612296565b5060010190565b60008261252057634e487b7160e01b600052601260045260246000fd5b500490565b6020808252602f908201527f4b696e646c792066696c6c20616c6c20746865206d616e6461746f727920666560408201526e696c64732070726f7065726c79212160881b60608201526080019056fea26469706673582212200563edf643632cfe6df7654c21638e5ed712d573d89348683c77b087f67ef67064736f6c63430008150033",
  "linkReferences": {},
  "deployedLinkReferences": {}
}